{
  "contracts/LendingBorrowing.sol": {
    "LendingBorrowing": {
      "abi": [
        {
          "inputs": [
            {
              "internalType": "contract IERC20",
              "name": "_collateralToken",
              "type": "address"
            },
            {
              "internalType": "contract IERC20",
              "name": "_lendingToken",
              "type": "address"
            },
            {
              "internalType": "uint256",
              "name": "_collateralFactor",
              "type": "uint256"
            }
          ],
          "stateMutability": "nonpayable",
          "type": "constructor"
        },
        {
          "inputs": [
            {
              "internalType": "address",
              "name": "owner",
              "type": "address"
            }
          ],
          "name": "OwnableInvalidOwner",
          "type": "error"
        },
        {
          "inputs": [
            {
              "internalType": "address",
              "name": "account",
              "type": "address"
            }
          ],
          "name": "OwnableUnauthorizedAccount",
          "type": "error"
        },
        {
          "anonymous": false,
          "inputs": [
            {
              "indexed": true,
              "internalType": "address",
              "name": "user",
              "type": "address"
            },
            {
              "indexed": false,
              "internalType": "uint256",
              "name": "amount",
              "type": "uint256"
            }
          ],
          "name": "CollateralDeposited",
          "type": "event"
        },
        {
          "anonymous": false,
          "inputs": [
            {
              "indexed": false,
              "internalType": "uint256",
              "name": "newFactor",
              "type": "uint256"
            }
          ],
          "name": "CollateralFactorUpdated",
          "type": "event"
        },
        {
          "anonymous": false,
          "inputs": [
            {
              "indexed": true,
              "internalType": "address",
              "name": "user",
              "type": "address"
            },
            {
              "indexed": false,
              "internalType": "uint256",
              "name": "amount",
              "type": "uint256"
            }
          ],
          "name": "CollateralWithdrawn",
          "type": "event"
        },
        {
          "anonymous": false,
          "inputs": [
            {
              "indexed": true,
              "internalType": "address",
              "name": "user",
              "type": "address"
            },
            {
              "indexed": false,
              "internalType": "uint256",
              "name": "amount",
              "type": "uint256"
            }
          ],
          "name": "LoanRepaid",
          "type": "event"
        },
        {
          "anonymous": false,
          "inputs": [
            {
              "indexed": true,
              "internalType": "address",
              "name": "user",
              "type": "address"
            },
            {
              "indexed": false,
              "internalType": "uint256",
              "name": "amount",
              "type": "uint256"
            }
          ],
          "name": "LoanTaken",
          "type": "event"
        },
        {
          "anonymous": false,
          "inputs": [
            {
              "indexed": true,
              "internalType": "address",
              "name": "previousOwner",
              "type": "address"
            },
            {
              "indexed": true,
              "internalType": "address",
              "name": "newOwner",
              "type": "address"
            }
          ],
          "name": "OwnershipTransferred",
          "type": "event"
        },
        {
          "inputs": [
            {
              "internalType": "address",
              "name": "",
              "type": "address"
            }
          ],
          "name": "collateralBalances",
          "outputs": [
            {
              "internalType": "uint256",
              "name": "",
              "type": "uint256"
            }
          ],
          "stateMutability": "view",
          "type": "function"
        },
        {
          "inputs": [],
          "name": "collateralFactor",
          "outputs": [
            {
              "internalType": "uint256",
              "name": "",
              "type": "uint256"
            }
          ],
          "stateMutability": "view",
          "type": "function"
        },
        {
          "inputs": [],
          "name": "collateralToken",
          "outputs": [
            {
              "internalType": "contract IERC20",
              "name": "",
              "type": "address"
            }
          ],
          "stateMutability": "view",
          "type": "function"
        },
        {
          "inputs": [
            {
              "internalType": "uint256",
              "name": "_amount",
              "type": "uint256"
            }
          ],
          "name": "depositCollateral",
          "outputs": [],
          "stateMutability": "nonpayable",
          "type": "function"
        },
        {
          "inputs": [
            {
              "internalType": "address",
              "name": "_user",
              "type": "address"
            }
          ],
          "name": "getLoanDetails",
          "outputs": [
            {
              "internalType": "uint256",
              "name": "amount",
              "type": "uint256"
            },
            {
              "internalType": "uint256",
              "name": "collateral",
              "type": "uint256"
            },
            {
              "internalType": "bool",
              "name": "isActive",
              "type": "bool"
            }
          ],
          "stateMutability": "view",
          "type": "function"
        },
        {
          "inputs": [],
          "name": "lendingToken",
          "outputs": [
            {
              "internalType": "contract IERC20",
              "name": "",
              "type": "address"
            }
          ],
          "stateMutability": "view",
          "type": "function"
        },
        {
          "inputs": [
            {
              "internalType": "address",
              "name": "",
              "type": "address"
            }
          ],
          "name": "loans",
          "outputs": [
            {
              "internalType": "uint256",
              "name": "amount",
              "type": "uint256"
            },
            {
              "internalType": "uint256",
              "name": "collateral",
              "type": "uint256"
            },
            {
              "internalType": "bool",
              "name": "isActive",
              "type": "bool"
            }
          ],
          "stateMutability": "view",
          "type": "function"
        },
        {
          "inputs": [],
          "name": "owner",
          "outputs": [
            {
              "internalType": "address",
              "name": "",
              "type": "address"
            }
          ],
          "stateMutability": "view",
          "type": "function"
        },
        {
          "inputs": [],
          "name": "renounceOwnership",
          "outputs": [],
          "stateMutability": "nonpayable",
          "type": "function"
        },
        {
          "inputs": [
            {
              "internalType": "uint256",
              "name": "_amount",
              "type": "uint256"
            }
          ],
          "name": "repayLoan",
          "outputs": [],
          "stateMutability": "nonpayable",
          "type": "function"
        },
        {
          "inputs": [
            {
              "internalType": "uint256",
              "name": "_newFactor",
              "type": "uint256"
            }
          ],
          "name": "setCollateralFactor",
          "outputs": [],
          "stateMutability": "nonpayable",
          "type": "function"
        },
        {
          "inputs": [
            {
              "internalType": "uint256",
              "name": "_amount",
              "type": "uint256"
            }
          ],
          "name": "takeLoan",
          "outputs": [],
          "stateMutability": "nonpayable",
          "type": "function"
        },
        {
          "inputs": [
            {
              "internalType": "address",
              "name": "newOwner",
              "type": "address"
            }
          ],
          "name": "transferOwnership",
          "outputs": [],
          "stateMutability": "nonpayable",
          "type": "function"
        },
        {
          "inputs": [
            {
              "internalType": "uint256",
              "name": "_amount",
              "type": "uint256"
            }
          ],
          "name": "withdrawCollateral",
          "outputs": [],
          "stateMutability": "nonpayable",
          "type": "function"
        }
      ],
      "evm": {
        "assembly": "// RO data = 0/0 bytes\n// RW data = 568/66160 bytes\n// Stack size = 32768 bytes\n\n// Instructions = 8094\n// Code size = 28568 bytes\n\n      : @0 (gas: 2)\n     0: a1 = i32 [0x20240]\n     5: jump @61 if a1 == 0\n      : @1 (gas: 4)\n     9: a0 = 0x30270\n    14: i32 a0 = a0 + 0\n    16: ecalli 13 // 'set_immutable_data'\n    18: jump @61\n      : @2 (gas: 8)\n    21: sp = sp + 0xfffffffffffffff0\n    24: u64 [sp + 0x8] = ra\n    27: u64 [sp] = s0\n    29: a2 = a1\n    31: s0 = a0\n    33: a1 = 0x20\n    36: a0 = a2\n    38: ra = 2, jump @16\n      : @3 [@dyn 1] (gas: 100)\n    43: a1 = u8 [a0 + 0x1]\n    46: a2 = u8 [a0]\n    48: a3 = u8 [a0 + 0x2]\n    51: a4 = u8 [a0 + 0x3]\n    54: a1 = a1 << 0x8\n    57: a1 = a1 | a2\n    60: a3 = a3 << 0x10\n    63: a4 = a4 << 0x18\n    66: a3 = a3 | a4\n    69: a1 = a1 | a3\n    72: a2 = u8 [a0 + 0x5]\n    75: a3 = u8 [a0 + 0x4]\n    78: a4 = u8 [a0 + 0x6]\n    81: a5 = u8 [a0 + 0x7]\n    84: a2 = a2 << 0x8\n    87: a2 = a2 | a3\n    90: a4 = a4 << 0x10\n    93: a5 = a5 << 0x18\n    96: a4 = a4 | a5\n    99: a2 = a2 | a4\n   102: a2 = a2 << 0x20\n   105: t0 = a2 | a1\n   108: a2 = u8 [a0 + 0x9]\n   111: a3 = u8 [a0 + 0x8]\n   114: a4 = u8 [a0 + 0xa]\n   117: a5 = u8 [a0 + 0xb]\n   120: a2 = a2 << 0x8\n   123: a2 = a2 | a3\n   126: a4 = a4 << 0x10\n   129: a5 = a5 << 0x18\n   132: a4 = a4 | a5\n   135: a2 = a2 | a4\n   138: a3 = u8 [a0 + 0xd]\n   141: a4 = u8 [a0 + 0xc]\n   144: a5 = u8 [a0 + 0xe]\n   147: a1 = u8 [a0 + 0xf]\n   150: a3 = a3 << 0x8\n   153: a3 = a3 | a4\n   156: a5 = a5 << 0x10\n   159: a1 = a1 << 0x18\n   162: a1 = a1 | a5\n   165: a1 = a1 | a3\n   168: a1 = a1 << 0x20\n   171: t1 = a1 | a2\n   174: a1 = u8 [a0 + 0x11]\n   177: a3 = u8 [a0 + 0x10]\n   180: a4 = u8 [a0 + 0x12]\n   183: a5 = u8 [a0 + 0x13]\n   186: a1 = a1 << 0x8\n   189: a1 = a1 | a3\n   192: a4 = a4 << 0x10\n   195: a5 = a5 << 0x18\n   198: a4 = a4 | a5\n   201: a1 = a1 | a4\n   204: a3 = u8 [a0 + 0x15]\n   207: a4 = u8 [a0 + 0x14]\n   210: a5 = u8 [a0 + 0x16]\n   213: a2 = u8 [a0 + 0x17]\n   216: a3 = a3 << 0x8\n   219: a3 = a3 | a4\n   222: a5 = a5 << 0x10\n   225: a2 = a2 << 0x18\n   228: a2 = a2 | a5\n   231: a2 = a2 | a3\n   234: a2 = a2 << 0x20\n   237: a3 = a2 | a1\n   240: a1 = u8 [a0 + 0x19]\n   243: a2 = u8 [a0 + 0x18]\n   246: a4 = u8 [a0 + 0x1a]\n   249: a5 = u8 [a0 + 0x1b]\n   252: a1 = a1 << 0x8\n   255: a1 = a1 | a2\n   258: a4 = a4 << 0x10\n   261: a5 = a5 << 0x18\n   264: a4 = a4 | a5\n   267: a1 = a1 | a4\n   270: a2 = u8 [a0 + 0x1d]\n   273: a4 = u8 [a0 + 0x1c]\n   276: a5 = u8 [a0 + 0x1e]\n   279: a0 = u8 [a0 + 0x1f]\n   282: a2 = a2 << 0x8\n   285: a2 = a2 | a4\n   288: a5 = a5 << 0x10\n   291: a0 = a0 << 0x18\n   294: a0 = a0 | a5\n   297: a0 = a0 | a2\n   300: a0 = a0 << 0x20\n   303: a0 = a0 | a1\n   306: a0 = reverse a0\n   308: a1 = reverse a3\n   310: a2 = reverse t1\n   312: a3 = reverse t0\n   314: u64 [s0 + 0x18] = a3\n   317: u64 [s0 + 0x10] = a2\n   320: u64 [s0 + 0x8] = a1\n   323: u64 [s0] = a0\n   325: ra = u64 [sp + 0x8]\n   328: s0 = u64 [sp]\n   330: sp = sp + 0x10\n   333: ret\n      : @4 (gas: 12)\n   335: sp = sp + 0xffffffffffffffd8\n   338: u64 [sp + 0x20] = ra\n   341: u64 [sp + 0x18] = s0\n   344: u64 [sp + 0x10] = s1\n   347: a2 = u64 [a1]\n   349: u64 [sp + 0x8] = a2\n   352: a2 = u64 [a1 + 0x8]\n   355: u64 [sp] = a2\n   357: s0 = u64 [a1 + 0x10]\n   360: s1 = u64 [a1 + 0x18]\n   363: a1 = 0x20\n   366: ra = 4, jump @16\n      : @5 [@dyn 2] (gas: 71)\n   371: a1 = reverse s1\n   373: a2 = reverse s0\n   375: a3 = u64 [sp]\n   377: a3 = reverse a3\n   379: a4 = u64 [sp + 0x8]\n   382: a4 = reverse a4\n   384: u8 [a0 + 0x18] = a4\n   387: u8 [a0 + 0x10] = a3\n   390: u8 [a0 + 0x8] = a2\n   393: u8 [a0] = a1\n   395: a5 = a4 >> 0x38\n   398: u8 [a0 + 0x1f] = a5\n   401: a5 = a4 >> 0x30\n   404: u8 [a0 + 0x1e] = a5\n   407: a5 = a4 >> 0x28\n   410: u8 [a0 + 0x1d] = a5\n   413: a5 = a4 >> 0x20\n   416: u8 [a0 + 0x1c] = a5\n   419: a5 = a4 >> 0x18\n   422: u8 [a0 + 0x1b] = a5\n   425: a5 = a4 >> 0x10\n   428: u8 [a0 + 0x1a] = a5\n   431: a4 = a4 >> 0x8\n   434: u8 [a0 + 0x19] = a4\n   437: a4 = a3 >> 0x38\n   440: u8 [a0 + 0x17] = a4\n   443: a4 = a3 >> 0x30\n   446: u8 [a0 + 0x16] = a4\n   449: a4 = a3 >> 0x28\n   452: u8 [a0 + 0x15] = a4\n   455: a4 = a3 >> 0x20\n   458: u8 [a0 + 0x14] = a4\n   461: a4 = a3 >> 0x18\n   464: u8 [a0 + 0x13] = a4\n   467: a4 = a3 >> 0x10\n   470: u8 [a0 + 0x12] = a4\n   473: a3 = a3 >> 0x8\n   476: u8 [a0 + 0x11] = a3\n   479: a3 = a2 >> 0x38\n   482: u8 [a0 + 0xf] = a3\n   485: a3 = a2 >> 0x30\n   488: u8 [a0 + 0xe] = a3\n   491: a3 = a2 >> 0x28\n   494: u8 [a0 + 0xd] = a3\n   497: a3 = a2 >> 0x20\n   500: u8 [a0 + 0xc] = a3\n   503: a3 = a2 >> 0x18\n   506: u8 [a0 + 0xb] = a3\n   509: a3 = a2 >> 0x10\n   512: u8 [a0 + 0xa] = a3\n   515: a2 = a2 >> 0x8\n   518: u8 [a0 + 0x9] = a2\n   521: a2 = a1 >> 0x38\n   524: u8 [a0 + 0x7] = a2\n   527: a2 = a1 >> 0x30\n   530: u8 [a0 + 0x6] = a2\n   533: a2 = a1 >> 0x28\n   536: u8 [a0 + 0x5] = a2\n   539: a2 = a1 >> 0x20\n   542: u8 [a0 + 0x4] = a2\n   545: a2 = a1 >> 0x18\n   548: u8 [a0 + 0x3] = a2\n   551: a2 = a1 >> 0x10\n   554: u8 [a0 + 0x2] = a2\n   557: a1 = a1 >> 0x8\n   560: u8 [a0 + 0x1] = a1\n   563: ra = u64 [sp + 0x20]\n   566: s0 = u64 [sp + 0x18]\n   569: s1 = u64 [sp + 0x10]\n   572: sp = sp + 0x28\n   575: ret\n      : @6 (gas: 48)\n   577: sp = sp + 0xffffffffffffffa0\n   580: u64 [sp + 0x58] = ra\n   583: u64 [sp + 0x50] = s0\n   586: u64 [sp + 0x48] = s1\n   589: s0 = sp + 0x60\n   592: sp = sp & 0xffffffffffffffe0\n   595: s1 = a0\n   597: a0 = u64 [a1 + 0x18]\n   600: a2 = u64 [a1 + 0x10]\n   603: a3 = u64 [a1 + 0x8]\n   606: a1 = u64 [a1]\n   608: a0 = reverse a0\n   610: a2 = reverse a2\n   612: a3 = reverse a3\n   614: a1 = reverse a1\n   616: u64 [sp + 0x18] = a1\n   619: u64 [sp + 0x10] = a3\n   622: u64 [sp + 0x8] = a2\n   625: u64 [sp] = a0\n   627: u64 [sp + 56] = 0\n   630: u64 [sp + 48] = 0\n   633: u64 [sp + 40] = 0\n   636: u64 [sp + 32] = 0\n   639: u32 [sp + 64] = 0x20\n   643: i32 a1 = sp + 0\n   645: i32 a3 = sp + 0x20\n   648: i32 a4 = sp + 0x40\n   651: a2 = 0xffffffffffffffff\n   654: a0 = 0\n   656: ecalli 7 // 'get_storage'\n   658: a0 = u64 [sp + 0x38]\n   661: a1 = u64 [sp + 0x30]\n   664: a2 = u64 [sp + 0x28]\n   667: a3 = u64 [sp + 0x20]\n   670: a0 = reverse a0\n   672: a1 = reverse a1\n   674: a2 = reverse a2\n   676: a3 = reverse a3\n   678: u64 [s1 + 0x18] = a3\n   681: u64 [s1 + 0x10] = a2\n   684: u64 [s1 + 0x8] = a1\n   687: u64 [s1] = a0\n   689: sp = s0 + 0xffffffffffffffa0\n   692: ra = u64 [sp + 0x58]\n   695: s0 = u64 [sp + 0x50]\n   698: s1 = u64 [sp + 0x48]\n   701: sp = sp + 0x60\n   704: ret\n      : @7 (gas: 40)\n   706: sp = sp + 0xffffffffffffffa0\n   709: u64 [sp + 0x58] = ra\n   712: u64 [sp + 0x50] = s0\n   715: s0 = sp + 0x60\n   718: sp = sp & 0xffffffffffffffe0\n   721: t0 = u64 [a0]\n   723: a3 = u64 [a0 + 0x8]\n   726: a4 = u64 [a0 + 0x10]\n   729: a0 = u64 [a0 + 0x18]\n   732: t1 = u64 [a1]\n   734: a2 = u64 [a1 + 0x8]\n   737: a5 = u64 [a1 + 0x10]\n   740: a1 = u64 [a1 + 0x18]\n   743: t2 = reverse a0\n   745: a4 = reverse a4\n   747: a3 = reverse a3\n   749: a0 = reverse t0\n   751: t0 = reverse a1\n   753: a5 = reverse a5\n   755: a2 = reverse a2\n   757: a1 = reverse t1\n   759: u64 [sp + 0x18] = a0\n   762: u64 [sp + 0x10] = a3\n   765: u64 [sp + 0x8] = a4\n   768: u64 [sp] = t2\n   770: u64 [sp + 0x38] = a1\n   773: u64 [sp + 0x30] = a2\n   776: u64 [sp + 0x28] = a5\n   779: u64 [sp + 0x20] = t0\n   782: i32 a1 = sp + 0\n   784: i32 a3 = sp + 0x20\n   787: a2 = 0xffffffffffffffff\n   790: a4 = 0x20\n   793: a0 = 0\n   795: ecalli 14 // 'set_storage'\n   797: sp = s0 + 0xffffffffffffffa0\n   800: ra = u64 [sp + 0x58]\n   803: s0 = u64 [sp + 0x50]\n   806: sp = sp + 0x60\n   809: ret\n      : @8 [@dyn 3] (gas: 1)\n   811: t0 = 8, jump @1020\n      : @9 [@dyn 4] (gas: 15)\n   816: u64 [sp + 0x38] = a4\n   819: u64 [sp + 0x30] = a3\n   822: u64 [sp + 0x28] = a2\n   825: u64 [sp + 0x20] = a1\n   828: i32 a2 = a0 + 0\n   830: i32 a3 = s1 + 0\n   832: i32 a0 = sp + 0x20\n   835: a1 = 0x1\n   838: ecalli 6 // 'deposit_event'\n   840: sp = s0 + 0xffffffffffffffa0\n   843: ra = u64 [sp + 0x58]\n   846: s0 = u64 [sp + 0x50]\n   849: s1 = u64 [sp + 0x48]\n   852: sp = sp + 0x60\n   855: ret\n      : @10 (gas: 24)\n   857: sp = sp + 0xffffffffffffff60\n   861: u64 [sp + 0x98] = ra\n   865: u64 [sp + 0x90] = s0\n   869: u64 [sp + 0x88] = s1\n   873: s0 = sp + 0xa0\n   877: sp = sp & 0xffffffffffffffe0\n   880: a4 = u64 [a3]\n   882: u64 [sp + 0x38] = a4\n   885: a4 = u64 [a3 + 0x8]\n   888: u64 [sp + 0x30] = a4\n   891: a4 = u64 [a3 + 0x10]\n   894: u64 [sp + 0x28] = a4\n   897: a3 = u64 [a3 + 0x18]\n   900: u64 [sp + 0x20] = a3\n   903: a3 = u64 [a2]\n   905: u64 [sp + 0x18] = a3\n   908: a3 = u64 [a2 + 0x8]\n   911: u64 [sp + 0x10] = a3\n   914: a3 = u64 [a2 + 0x10]\n   917: u64 [sp + 0x8] = a3\n   920: a2 = u64 [a2 + 0x18]\n   923: u64 [sp] = a2\n   925: s1 = a1\n   927: ra = 10, jump @16\n      : @11 [@dyn 5] (gas: 1)\n   932: t0 = 12, jump @1020\n      : @12 [@dyn 6] (gas: 27)\n   937: u64 [sp + 0x58] = a4\n   940: u64 [sp + 0x50] = a3\n   943: u64 [sp + 0x48] = a2\n   946: u64 [sp + 0x40] = a1\n   949: a1 = u64 [sp + 0x20]\n   952: a1 = reverse a1\n   954: a2 = u64 [sp + 0x28]\n   957: a2 = reverse a2\n   959: a3 = u64 [sp + 0x30]\n   962: a3 = reverse a3\n   964: a4 = u64 [sp + 0x38]\n   967: a4 = reverse a4\n   969: u64 [sp + 0x78] = a4\n   972: u64 [sp + 0x70] = a3\n   975: u64 [sp + 0x68] = a2\n   978: u64 [sp + 0x60] = a1\n   981: i32 a2 = a0 + 0\n   983: i32 a3 = s1 + 0\n   985: i32 a0 = sp + 0x40\n   988: a1 = 0x2\n   991: ecalli 6 // 'deposit_event'\n   993: sp = s0 + 0xffffffffffffff60\n   997: ra = u64 [sp + 0x98]\n  1001: s0 = u64 [sp + 0x90]\n  1005: s1 = u64 [sp + 0x88]\n  1009: sp = sp + 0xa0\n  1013: ret\n      : @13 (gas: 33)\n  1015: sp = sp + 0xffffffffffffff20\n  1019: u64 [sp + 0xd8] = ra\n  1023: u64 [sp + 0xd0] = s0\n  1027: u64 [sp + 0xc8] = s1\n  1031: s0 = sp + 0xe0\n  1035: sp = sp & 0xffffffffffffffe0\n  1038: a5 = u64 [a4]\n  1040: u64 [sp + 0x40] = a5\n  1043: a5 = u64 [a4 + 0x8]\n  1046: u64 [sp + 0x48] = a5\n  1049: a5 = u64 [a4 + 0x10]\n  1052: u64 [sp + 0x50] = a5\n  1055: a4 = u64 [a4 + 0x18]\n  1058: u64 [sp + 0x58] = a4\n  1061: t0 = 0xe\n  1064: a4 = u64 [a3]\n  1066: u64 [sp + 0x18] = a4\n  1069: a4 = u64 [a3 + 0x8]\n  1072: u64 [sp + 0x20] = a4\n  1075: a4 = u64 [a3 + 0x10]\n  1078: u64 [sp + 0x28] = a4\n  1081: a3 = u64 [a3 + 0x18]\n  1084: u64 [sp + 0x30] = a3\n  1087: s1 = u64 [a2]\n  1089: a3 = u64 [a2 + 0x8]\n  1092: u64 [sp] = a3\n  1094: a3 = u64 [a2 + 0x10]\n  1097: u64 [sp + 0x8] = a3\n  1100: a2 = u64 [a2 + 0x18]\n  1103: u64 [sp + 0x10] = a2\n  1106: u64 [sp + 56] = 0\n  1109: ra = 0x10\n  1112: jump @16\n      : @14 [@dyn 7] (gas: 2)\n  1115: u64 [sp + 0x38] = a1\n  1118: ra = 16, jump @16\n      : @15 [@dyn 8] (gas: 46)\n  1123: a1 = reverse s1\n  1125: u64 [sp + 0x78] = a1\n  1128: a1 = u64 [sp]\n  1130: a1 = reverse a1\n  1132: u64 [sp + 0x70] = a1\n  1135: a1 = u64 [sp + 0x8]\n  1138: a1 = reverse a1\n  1140: u64 [sp + 0x68] = a1\n  1143: a1 = u64 [sp + 0x10]\n  1146: a1 = reverse a1\n  1148: u64 [sp + 0x60] = a1\n  1151: a1 = u64 [sp + 0x18]\n  1154: a1 = reverse a1\n  1156: u64 [sp + 0x98] = a1\n  1160: a1 = u64 [sp + 0x20]\n  1163: a1 = reverse a1\n  1165: u64 [sp + 0x90] = a1\n  1169: a1 = u64 [sp + 0x28]\n  1172: a1 = reverse a1\n  1174: u64 [sp + 0x88] = a1\n  1178: a1 = u64 [sp + 0x30]\n  1181: a1 = reverse a1\n  1183: u64 [sp + 0x80] = a1\n  1187: a1 = u64 [sp + 0x40]\n  1190: a1 = reverse a1\n  1192: u64 [sp + 0xb8] = a1\n  1196: a1 = u64 [sp + 0x48]\n  1199: a1 = reverse a1\n  1201: u64 [sp + 0xb0] = a1\n  1205: a1 = u64 [sp + 0x50]\n  1208: a1 = reverse a1\n  1210: u64 [sp + 0xa8] = a1\n  1214: a1 = u64 [sp + 0x58]\n  1217: a1 = reverse a1\n  1219: u64 [sp + 0xa0] = a1\n  1223: i32 a2 = a0 + 0\n  1225: a3 = i32 [sp + 0x38]\n  1228: i32 a0 = sp + 0x60\n  1231: a1 = 0x3\n  1234: ecalli 6 // 'deposit_event'\n  1236: sp = s0 + 0xffffffffffffff20\n  1240: ra = u64 [sp + 0xd8]\n  1244: s0 = u64 [sp + 0xd0]\n  1248: s1 = u64 [sp + 0xc8]\n  1252: sp = sp + 0xe0\n  1256: ret\n      : @16 (gas: 2)\n  1258: i32 a2 = a0 >> 0x10\n  1261: jump @21 if a2 != 0\n      : @17 (gas: 4)\n  1264: a1 = a1 + a0\n  1267: i32 a1 = a1 + 0x1f\n  1270: a1 = a1 & 0xffffffffffffffe0\n  1273: jump @21 if a1 >u 65536\n      : @18 (gas: 3)\n  1279: a2 = 0x2023c\n  1284: a3 = i32 [0x2023c]\n  1289: jump @20 if a3 >=u a1\n      : @19 (gas: 2)\n  1292: u32 [0x2023c] = a1\n  1297: fallthrough\n      : @20 (gas: 4)\n  1298: a1 = 0x20250\n  1303: i32 a0 = a0 + 0\n  1305: a0 = a0 + a1\n  1308: ret\n      : @21 (gas: 1)\n  1310: trap\n      : @22 (gas: 6)\n  1311: sp = sp + 0xfffffffffffffff0\n  1314: u64 [sp + 0x8] = ra\n  1317: u64 [sp] = s0\n  1319: s0 = a0 & 0x1\n  1322: ecalli 4 // 'call_data_size'\n  1324: fallthrough\n      : @23 (gas: 2)\n  1325: u32 [0x20238] = a0\n  1330: jump @25 if s0 == 0\n      : @24 (gas: 1)\n  1333: ra = 18, jump @26\n      : @25 [@dyn 9] (gas: 1)\n  1337: ra = 20, jump @64\n      : @26 [@dyn 10] (gas: 15)\n  1342: sp = sp + 0xfffffffffffffc20\n  1346: a0 = sp + 0x300\n  1350: u64 [a0 + 0xd8] = ra\n  1354: u64 [a0 + 0xd0] = s0\n  1358: u64 [a0 + 0xc8] = s1\n  1362: s0 = sp + 0x3e0\n  1366: sp = sp & 0xffffffffffffffe0\n  1369: s1 = sp\n  1371: u64 [s1 + 632] = 0\n  1375: u64 [s1 + 624] = 0\n  1379: u64 [s1 + 616] = 0\n  1383: u64 [s1 + 608] = 0\n  1387: i32 a0 = s1 + 0x260\n  1391: ecalli 15 // 'value_transferred'\n  1393: fallthrough\n      : @27 (gas: 9)\n  1394: a4 = s1 + 0x200\n  1398: a0 = u64 [a4 + 0x70]\n  1401: a1 = u64 [a4 + 0x78]\n  1404: a2 = u64 [a4 + 0x68]\n  1407: a3 = u64 [a4 + 0x60]\n  1410: a1 = a1 | a2\n  1413: a0 = a0 | a3\n  1416: a0 = a0 | a1\n  1419: jump @52 if a0 != 0\n      : @28 (gas: 17)\n  1423: a0 = i32 [0x20238]\n  1428: u64 [s1 + 0x78] = a0\n  1431: a0 = a0 << 0x20\n  1434: a0 = a0 >> 0x20\n  1437: a0 = a0 + 0x1f\n  1440: a0 = a0 & 0xffffffffffffffe0\n  1443: a1 = a0 + 0x80\n  1447: a0 = a1 <u a0\n  1450: a2 = s1 + 0x200\n  1454: u64 [a2 + 0x40] = a1\n  1457: u64 [a2 + 0x48] = a0\n  1460: a0 = 0 if a0 != 0\n  1462: u64 [a2 + 0x50] = a0\n  1465: a0 = 0x40\n  1468: a1 = s1 + 0x240\n  1472: u64 [s1 + 600] = 0\n  1476: ra = 22, jump @4\n      : @29 [@dyn 11] (gas: 3)\n  1481: a0 = 0x80\n  1485: a1 = u64 [s1 + 0x78]\n  1488: ra = 24, jump @16\n      : @30 [@dyn 12] (gas: 5)\n  1493: i32 a0 = a0 + 0\n  1495: a1 = u64 [s1 + 0x78]\n  1498: a2 = 0\n  1500: ecalli 2 // 'call_data_copy'\n  1502: fallthrough\n      : @31 (gas: 2)\n  1503: a1 = u64 [s1 + 0x78]\n  1506: jump @53 if a1 <=u 95\n      : @32 (gas: 7)\n  1511: u64 [s1 + 536] = 0\n  1515: u64 [s1 + 528] = 0\n  1519: u64 [s1 + 512] = 0x80\n  1525: a0 = s1 + 0x220\n  1529: a1 = s1 + 0x200\n  1533: u64 [s1 + 520] = 0\n  1537: ra = 26, jump @909\n      : @33 [@dyn 13] (gas: 14)\n  1542: a1 = s1 + 0x200\n  1546: a0 = u64 [a1 + 0x30]\n  1549: u64 [s1 + 0x30] = a0\n  1552: a0 = u64 [a1 + 0x28]\n  1555: u64 [s1 + 0x40] = a0\n  1558: a0 = u64 [a1 + 0x20]\n  1561: u64 [s1 + 0x48] = a0\n  1564: u64 [s1 + 472] = 0\n  1568: u64 [s1 + 464] = 0\n  1572: u64 [s1 + 448] = 0xa0\n  1578: a0 = s1 + 0x1e0\n  1582: a1 = s1 + 0x1c0\n  1586: u64 [s1 + 456] = 0\n  1590: ra = 28, jump @909\n      : @34 [@dyn 14] (gas: 13)\n  1595: a0 = u64 [s1 + 0x1f0]\n  1599: u64 [s1 + 0x38] = a0\n  1602: a0 = u64 [s1 + 0x1e8]\n  1606: u64 [s1 + 0x50] = a0\n  1609: a0 = u64 [s1 + 0x1e0]\n  1613: u64 [s1 + 0x58] = a0\n  1616: a0 = sp + 0xffffffffffffffe0\n  1619: a0 = a0 & 0xffffffffffffffe0\n  1622: u64 [s1 + 0x70] = a0\n  1625: sp = a0\n  1627: a0 = s1 + 0x1a0\n  1631: a1 = 0xc0\n  1635: ra = 30, jump @2\n      : @35 [@dyn 15] (gas: 16)\n  1640: a4 = s1 + 0x100\n  1644: a0 = u64 [a4 + 0xb0]\n  1648: a1 = u64 [a4 + 0xb8]\n  1652: a2 = u64 [a4 + 0xa0]\n  1656: a3 = u64 [a4 + 0xa8]\n  1660: a4 = u64 [s1 + 0x70]\n  1663: u64 [a4 + 0x10] = a0\n  1666: u64 [a4 + 0x18] = a1\n  1669: u64 [a4] = a2\n  1671: u64 [a4 + 0x8] = a3\n  1674: a0 = 0x30250\n  1679: u64 [s1 + 0x78] = a0\n  1682: i32 a0 = a0 + 0\n  1684: u64 [s1 + 0x68] = a0\n  1687: ecalli 5 // 'caller'\n  1689: fallthrough\n      : @36 (gas: 7)\n  1690: a2 = u64 [s1 + 0x78]\n  1693: a0 = u32 [a2 + 0x10]\n  1696: a1 = u64 [a2]\n  1698: a2 = u64 [a2 + 0x8]\n  1701: a0 = a0 | a1\n  1704: a0 = a0 | a2\n  1707: jump @54 if a0 == 0\n      : @37 (gas: 7)\n  1711: u64 [s1 + 664] = 0\n  1715: u64 [s1 + 656] = 0\n  1719: u64 [s1 + 648] = 0\n  1723: u64 [s1 + 640] = 0\n  1727: a0 = s1 + 0x180\n  1731: a1 = s1 + 0x280\n  1735: ra = 32, jump @6\n      : @38 [@dyn 16] (gas: 14)\n  1740: a0 = u64 [s1 + 0x180]\n  1744: u64 [s1 + 0x8] = a0\n  1747: a0 = u64 [s1 + 0x188]\n  1751: u64 [s1] = a0\n  1753: a0 = u64 [s1 + 0x198]\n  1757: u64 [s1 + 0x28] = a0\n  1760: a0 = u64 [s1 + 0x190]\n  1764: u64 [s1 + 0x60] = a0\n  1767: a0 = u64 [s1 + 0x68]\n  1770: ra = 0x22\n  1773: ecalli 5 // 'caller'\n  1775: a2 = u64 [s1 + 0x78]\n  1778: t0 = 0x24\n  1781: jump @1010\n      : @39 [@dyn 17] (gas: 2)\n  1784: a2 = u64 [s1 + 0x78]\n  1787: t0 = 36, jump @1010\n      : @40 [@dyn 18] (gas: 21)\n  1792: a0 = a0 >> 0x20\n  1795: a2 = reverse a2\n  1797: a3 = a2 << 0x20\n  1800: a0 = a0 | a3\n  1803: a2 = a2 >> 0x20\n  1806: a3 = u64 [s1 + 0x60]\n  1809: a3 = a3 >> 0x20\n  1812: a3 = a3 << 0x20\n  1815: a2 = a2 | a3\n  1818: u64 [s1 + 696] = 0\n  1822: u64 [s1 + 688] = 0\n  1826: u64 [s1 + 680] = 0\n  1830: u64 [s1 + 672] = 0\n  1834: a3 = u64 [s1 + 0x28]\n  1837: u64 [s1 + 0x2d8] = a3\n  1841: u64 [s1 + 0x2d0] = a2\n  1845: u64 [s1 + 0x2c8] = a0\n  1849: u64 [s1 + 0x2c0] = a1\n  1853: a0 = s1 + 0x2a0\n  1857: a1 = s1 + 0x2c0\n  1861: ra = 38, jump @7\n      : @41 [@dyn 19] (gas: 3)\n  1866: a0 = s1 + 0x160\n  1870: a1 = 0x40\n  1873: ra = 40, jump @2\n      : @42 [@dyn 20] (gas: 14)\n  1878: a0 = u64 [s1 + 0x178]\n  1882: u64 [s1 + 0x28] = a0\n  1885: a0 = u64 [s1 + 0x170]\n  1889: u64 [s1 + 0x20] = a0\n  1892: a0 = u64 [s1 + 0x168]\n  1896: u64 [s1 + 0x18] = a0\n  1899: a0 = u64 [s1 + 0x160]\n  1903: u64 [s1 + 0x10] = a0\n  1906: a0 = u64 [s1 + 0x68]\n  1909: ra = 0x2a\n  1912: ecalli 5 // 'caller'\n  1914: a2 = u64 [s1 + 0x78]\n  1917: t0 = 0x2c\n  1920: jump @997\n      : @43 [@dyn 21] (gas: 2)\n  1923: a2 = u64 [s1 + 0x78]\n  1926: t0 = 44, jump @997\n      : @44 [@dyn 22] (gas: 34)\n  1931: t0 = a1 | a0\n  1934: a3 = a3 >> 0x20\n  1937: a2 = reverse a2\n  1939: a1 = a2 << 0x20\n  1942: a1 = a1 | a3\n  1945: a2 = a2 >> 0x20\n  1948: a3 = u64 [s1 + 0x60]\n  1951: a3 = a3 << 0x20\n  1954: a3 = a3 >> 0x20\n  1957: u64 [s1 + 280] = 0\n  1961: u64 [s1 + 312] = 0\n  1965: u64 [s1 + 0x130] = a3\n  1969: a0 = u64 [s1]\n  1971: u64 [s1 + 0x128] = a0\n  1975: a0 = u64 [s1 + 0x8]\n  1978: u64 [s1 + 0x120] = a0\n  1982: a3 = u64 [0x20000]\n  1987: a4 = u64 [0x20008]\n  1992: a5 = u64 [0x20010]\n  1997: a0 = u64 [0x20018]\n  2002: u64 [s1 + 0x158] = a3\n  2006: a3 = s1 + 0x100\n  2010: u64 [a3 + 0x50] = a4\n  2013: u64 [a3 + 0x48] = a5\n  2016: u64 [a3 + 0x40] = a0\n  2019: u64 [a3 + 0x10] = a2\n  2022: u64 [a3 + 0x8] = a1\n  2025: a2 = s1 + 0x140\n  2029: a3 = s1 + 0x120\n  2033: a4 = s1 + 0x100\n  2037: u64 [s1 + 0x100] = t0\n  2041: a0 = 0\n  2043: a1 = 0\n  2045: ra = 46, jump @13\n      : @45 [@dyn 23] (gas: 11)\n  2050: a0 = u64 [s1 + 0x30]\n  2053: a0 = a0 << 0x20\n  2056: a0 = a0 >> 0x20\n  2059: u64 [s1 + 0x78] = a0\n  2062: u64 [s1 + 760] = 0\n  2066: u64 [s1 + 752] = 0\n  2070: u64 [s1 + 744] = 0\n  2074: u64 [s1 + 736] = 0x1\n  2079: a0 = s1 + 0xe0\n  2083: a1 = s1 + 0x2e0\n  2087: ra = 48, jump @6\n      : @46 [@dyn 24] (gas: 18)\n  2092: a0 = u32 [s1 + 0xf4]\n  2096: a0 = a0 << 0x20\n  2099: a1 = u64 [s1 + 0xf8]\n  2103: a2 = u64 [s1 + 0x78]\n  2106: a0 = a0 | a2\n  2109: u64 [s1 + 792] = 0\n  2113: u64 [s1 + 784] = 0\n  2117: u64 [s1 + 776] = 0\n  2121: u64 [s1 + 768] = 0x1\n  2126: a2 = u64 [s1 + 0x40]\n  2129: u64 [s1 + 0x328] = a2\n  2133: a2 = u64 [s1 + 0x48]\n  2136: u64 [s1 + 0x320] = a2\n  2140: u64 [s1 + 0x338] = a1\n  2144: u64 [s1 + 0x330] = a0\n  2148: a0 = s1 + 0x300\n  2152: a1 = s1 + 0x320\n  2156: ra = 50, jump @7\n      : @47 [@dyn 25] (gas: 11)\n  2161: a0 = u64 [s1 + 0x38]\n  2164: a0 = a0 << 0x20\n  2167: a0 = a0 >> 0x20\n  2170: u64 [s1 + 0x78] = a0\n  2173: u64 [s1 + 856] = 0\n  2177: u64 [s1 + 848] = 0\n  2181: u64 [s1 + 840] = 0\n  2185: u64 [s1 + 832] = 0x2\n  2190: a0 = s1 + 0xc0\n  2194: a1 = s1 + 0x340\n  2198: ra = 52, jump @6\n      : @48 [@dyn 26] (gas: 18)\n  2203: a0 = u32 [s1 + 0xd4]\n  2207: a0 = a0 << 0x20\n  2210: a1 = u64 [s1 + 0xd8]\n  2214: a2 = u64 [s1 + 0x78]\n  2217: a0 = a0 | a2\n  2220: u64 [s1 + 888] = 0\n  2224: u64 [s1 + 880] = 0\n  2228: u64 [s1 + 872] = 0\n  2232: u64 [s1 + 864] = 0x2\n  2237: a2 = u64 [s1 + 0x50]\n  2240: u64 [s1 + 0x388] = a2\n  2244: a2 = u64 [s1 + 0x58]\n  2247: u64 [s1 + 0x380] = a2\n  2251: u64 [s1 + 0x398] = a1\n  2255: u64 [s1 + 0x390] = a0\n  2259: a0 = s1 + 0x360\n  2263: a1 = s1 + 0x380\n  2267: ra = 54, jump @7\n      : @49 [@dyn 27] (gas: 7)\n  2272: u64 [s1 + 952] = 0\n  2276: u64 [s1 + 944] = 0\n  2280: u64 [s1 + 936] = 0\n  2284: u64 [s1 + 928] = 0x3\n  2289: a0 = s1 + 0x3a0\n  2293: a1 = u64 [s1 + 0x70]\n  2296: ra = 56, jump @7\n      : @50 [@dyn 28] (gas: 13)\n  2301: a0 = u64 [s1 + 0x28]\n  2304: a1 = u64 [s1 + 0x18]\n  2307: a0 = a0 | a1\n  2310: a1 = u64 [s1 + 0x10]\n  2313: a2 = a1\n  2315: a3 = u64 [s1 + 0x20]\n  2318: a1 = a1 | a3\n  2321: a1 = a1 | a0\n  2324: a1 = a1 >> 0x20\n  2327: a0 = a0 | a3\n  2330: a0 = a0 << 0x20\n  2333: a0 = a0 | a1\n  2336: jump @59 if a0 == 0\n      : @51 (gas: 1)\n  2339: trap\n      : @52 (gas: 4)\n  2340: a1 = 0x20250\n  2345: i32 a1 = a1 + 0\n  2347: a0 = 0x1\n  2350: jump @63\n      : @53 (gas: 4)\n  2353: a1 = 0x20250\n  2358: i32 a1 = a1 + 0\n  2360: a0 = 0x1\n  2363: jump @63\n      : @54 (gas: 8)\n  2366: u64 [s1 + 176] = 0\n  2370: u64 [s1 + 168] = 0\n  2374: u64 [s1 + 160] = 0\n  2378: a0 = 0x1e4fbdf700000000\n  2388: a1 = s1 + 0xa0\n  2392: u64 [s1 + 0xb8] = a0\n  2396: a0 = 0\n  2398: ra = 58, jump @4\n      : @55 [@dyn 29] (gas: 7)\n  2403: u64 [s1 + 152] = 0\n  2407: u64 [s1 + 144] = 0\n  2411: u64 [s1 + 136] = 0\n  2415: a0 = 0x4\n  2418: a1 = s1 + 0x80\n  2422: u64 [s1 + 128] = 0\n  2426: ra = 60, jump @4\n      : @56 [@dyn 30] (gas: 2)\n  2431: a1 = i32 [0x2023c]\n  2436: jump @58 if a1 >u 63\n      : @57 (gas: 2)\n  2440: u32 [0x2023c] = 0x40\n  2446: fallthrough\n      : @58 (gas: 6)\n  2447: a1 = 0x20250\n  2452: i32 a1 = a1 + 0\n  2454: a0 = 0x1\n  2457: a2 = 0x24\n  2460: ecalli 12 // 'seal_return'\n  2462: fallthrough\n      : @59 (gas: 3)\n  2463: a0 = a2\n  2465: a1 = 0\n  2467: ra = 62, jump @16\n      : @60 [@dyn 31] (gas: 5)\n  2472: i32 a0 = a0 + 0\n  2474: a1 = 0\n  2476: a2 = 0\n  2478: ecalli 2 // 'call_data_copy'\n  2480: jump @0\n      : @61 (gas: 3)\n  2483: a0 = u64 [s1 + 0x10]\n  2486: a1 = 0\n  2488: ra = 64, jump @16\n      : @62 [@dyn 32] (gas: 6)\n  2493: i32 a1 = a0 + 0\n  2495: a0 = 0\n  2497: a2 = 0\n  2499: ra = 0x42\n  2502: ecalli 12 // 'seal_return'\n  2504: jump @64\n      : @63 (gas: 4)\n  2506: a2 = 0\n  2508: ra = 0x42\n  2511: ecalli 12 // 'seal_return'\n  2513: fallthrough\n      : @64 [@dyn 33] (gas: 16)\n  2514: sp = sp + 0xfffffffffffffe10\n  2518: u64 [sp + 0x1e8] = ra\n  2522: u64 [sp + 0x1e0] = s0\n  2526: u64 [sp + 0x1d8] = s1\n  2530: s0 = sp + 0x1f0\n  2534: sp = sp + 0xffffffffffffd550\n  2538: sp = sp & 0xffffffffffffffe0\n  2541: s1 = sp\n  2543: a2 = s1 + 0x2058\n  2547: u64 [a2 + 608] = 0\n  2551: u64 [a2 + 600] = 0\n  2555: u64 [a2 + 584] = 0x80\n  2561: a0 = 0x40\n  2564: a1 = s1 + 0x22a0\n  2568: u64 [a2 + 592] = 0\n  2572: ra = 68, jump @4\n      : @65 [@dyn 34] (gas: 4)\n  2577: a0 = 0x20238\n  2582: u64 [s1 + 0xd8] = a0\n  2586: a0 = i32 [0x20238]\n  2591: jump @67 if a0 >=u 4\n      : @66 (gas: 1)\n  2595: jump @861\n      : @67 (gas: 6)\n  2598: a0 = s1 + 0x2000\n  2602: i32 a0 = a0 + 0x2c0\n  2606: a1 = 0\n  2608: ra = 0x46\n  2611: ecalli 3 // 'call_data_load'\n  2613: fallthrough\n      : @68 [@dyn 35] (gas: 3)\n  2614: a2 = s1 + 0x2058\n  2618: a0 = i32 [a2 + 0x284]\n  2622: jump @70 if a0 != 2357215170\n      : @69 (gas: 1)\n  2629: jump @312\n      : @70 (gas: 1)\n  2632: jump @144 if a0 == 2376452955\n      : @71 (gas: 1)\n  2640: jump @73 if a0 != 2863441240\n      : @72 (gas: 1)\n  2647: jump @367\n      : @73 (gas: 2)\n  2650: a3 = s1 + 0x2858\n  2654: jump @208 if a0 == 2876972169\n      : @74 (gas: 1)\n  2662: jump @76 if a0 != 2986437588\n      : @75 (gas: 1)\n  2669: jump @299\n      : @76 (gas: 1)\n  2672: jump @78 if a0 != 3049398615\n      : @77 (gas: 1)\n  2679: jump @268\n      : @78 (gas: 1)\n  2682: jump @112 if a0 == 3134496799\n      : @79 (gas: 1)\n  2690: jump @195 if a0 == 3741391937\n      : @80 (gas: 1)\n  2698: jump @155 if a0 == 3903314574\n      : @81 (gas: 1)\n  2706: jump @238 if a0 != 1628634670\n      : @82 (gas: 10)\n  2714: u64 [a2 + 768] = 0\n  2718: u64 [a2 + 760] = 0\n  2722: u64 [a2 + 752] = 0\n  2726: u64 [a2 + 744] = 0\n  2730: a0 = s1 + 0x2000\n  2734: i32 a0 = a0 + 0x340\n  2738: ra = 0x48\n  2741: ecalli 15 // 'value_transferred'\n  2743: t0 = 0x4a\n  2746: jump @1023\n      : @83 [@dyn 36] (gas: 1)\n  2749: t0 = 74, jump @1023\n      : @84 [@dyn 37] (gas: 8)\n  2754: a0 = u64 [a4 + 0xf8]\n  2758: a1 = u64 [a3 + 0x300]\n  2762: a2 = u64 [a4 + 0xf0]\n  2766: a3 = u64 [a4 + 0xe8]\n  2770: a1 = a1 | a2\n  2773: a0 = a0 | a3\n  2776: a0 = a0 | a1\n  2779: jump @86 if a0 == 0\n      : @85 (gas: 1)\n  2782: jump @820\n      : @86 (gas: 3)\n  2785: a0 = u64 [s1 + 0xd8]\n  2789: a0 = i32 [a0]\n  2791: jump @88 if a0 >u 35\n      : @87 (gas: 1)\n  2795: jump @821\n      : @88 (gas: 5)\n  2798: a0 = s1 + 0x2000\n  2802: i32 a0 = a0 + 0x360\n  2806: a1 = 0x4\n  2809: ecalli 3 // 'call_data_load'\n  2811: fallthrough\n      : @89 (gas: 10)\n  2812: a0 = s1 + 0x2058\n  2816: a1 = a0 + 0x300\n  2820: a2 = u64 [a1 + 0x20]\n  2823: a3 = u64 [a1 + 0x18]\n  2826: a4 = u64 [a1 + 0x10]\n  2829: a5 = u64 [a1 + 0x8]\n  2832: a0 = a4 | a2\n  2835: a1 = a5 | a3\n  2838: a0 = a0 | a1\n  2841: jump @91 if a0 == 0\n      : @90 (gas: 1)\n  2844: jump @448\n      : @91 (gas: 3)\n  2847: a0 = s1 + 0x200\n  2851: a1 = 0x40\n  2854: ra = 76, jump @2\n      : @92 [@dyn 38] (gas: 6)\n  2859: a1 = s1 + 0x200\n  2863: a4 = u64 [a1 + 0x18]\n  2866: a5 = u64 [a1 + 0x10]\n  2869: a3 = u64 [a1 + 0x8]\n  2872: a0 = u64 [a1]\n  2874: t0 = 78, jump @1013\n      : @93 [@dyn 39] (gas: 1)\n  2879: jump @95 if a1 == 0\n      : @94 (gas: 1)\n  2882: jump @533\n      : @95 (gas: 11)\n  2885: u64 [s1 + 496] = 0\n  2889: u64 [s1 + 488] = 0\n  2893: u64 [s1 + 480] = 0\n  2897: a2 = 0x8c379a000000000\n  2907: a1 = s1 + 0x1e0\n  2911: u64 [s1 + 0x1f8] = a2\n  2915: u64 [s1 + 0xd8] = a0\n  2919: u64 [s1 + 0xd0] = a3\n  2923: u64 [s1 + 0xc8] = a4\n  2927: u64 [s1 + 0xc0] = a5\n  2931: ra = 80, jump @4\n      : @96 [@dyn 40] (gas: 5)\n  2936: a1 = u64 [s1 + 0xd8]\n  2940: a0 = u64 [s1 + 0xc8]\n  2944: a3 = u64 [s1 + 0xc0]\n  2948: a3 = a3 | a0\n  2951: t0 = 82, jump @993\n      : @97 [@dyn 41] (gas: 1)\n  2956: jump @99 if a0 != 0\n      : @98 (gas: 1)\n  2959: jump @533\n      : @99 (gas: 9)\n  2962: i32 a0 = a1 + 0x4\n  2965: u64 [s1 + 472] = 0\n  2969: u64 [s1 + 464] = 0\n  2973: u64 [s1 + 448] = 0x20\n  2978: a1 = s1 + 0x1c0\n  2982: u64 [s1 + 456] = 0\n  2986: u64 [s1 + 0xc8] = a3\n  2990: u64 [s1 + 0xc0] = a4\n  2994: ra = 84, jump @4\n      : @100 [@dyn 42] (gas: 1)\n  2999: t0 = 86, jump @994\n      : @101 [@dyn 43] (gas: 1)\n  3004: jump @103 if a0 != 0\n      : @102 (gas: 1)\n  3007: jump @533\n      : @103 (gas: 7)\n  3010: i32 a0 = a1 + 0x24\n  3013: u64 [s1 + 440] = 0\n  3017: u64 [s1 + 432] = 0\n  3021: u64 [s1 + 416] = 0x2b\n  3026: a1 = s1 + 0x1a0\n  3030: u64 [s1 + 424] = 0\n  3034: ra = 88, jump @4\n      : @104 [@dyn 44] (gas: 1)\n  3039: t0 = 90, jump @1014\n      : @105 [@dyn 45] (gas: 1)\n  3044: jump @107 if a0 != 0\n      : @106 (gas: 1)\n  3047: jump @533\n      : @107 (gas: 13)\n  3050: i32 a0 = a1 + 0x44\n  3053: a1 = u64 [0x20220]\n  3058: a4 = s1 + 0x100\n  3062: u64 [a4 + 0x98] = a1\n  3066: a1 = u64 [0x20228]\n  3071: u64 [s1 + 0xc0] = a2\n  3075: a2 = u64 [0x20230]\n  3080: a3 = u64 [0x200d8]\n  3085: u64 [a4 + 0x90] = a1\n  3089: u64 [a4 + 0x88] = a2\n  3093: a1 = s1 + 0x180\n  3097: u64 [a4 + 0x80] = a3\n  3101: ra = 92, jump @4\n      : @108 [@dyn 46] (gas: 1)\n  3106: t0 = 94, jump @995\n      : @109 [@dyn 47] (gas: 1)\n  3111: jump @111 if a0 != 0\n      : @110 (gas: 1)\n  3114: jump @533\n      : @111 (gas: 10)\n  3117: i32 a0 = a2 + 0x64\n  3120: a1 = u64 [0x200e0]\n  3125: u64 [s1 + 360] = 0\n  3129: u64 [s1 + 0x178] = a1\n  3133: a1 = 0x65726f0000000000\n  3143: u64 [s1 + 0x170] = a1\n  3147: a1 = s1 + 0x160\n  3151: u64 [s1 + 352] = 0\n  3155: ra = 0x216\n  3159: jump @4\n      : @112 (gas: 10)\n  3162: u64 [a3 + 480] = 0\n  3166: u64 [a3 + 472] = 0\n  3170: u64 [a3 + 464] = 0\n  3174: u64 [a3 + 456] = 0\n  3178: a0 = s1 + 0x3000\n  3182: i32 a0 = a0 + 0xfffffffffffffa20\n  3186: ra = 0x60\n  3189: ecalli 15 // 'value_transferred'\n  3191: t0 = 0x62\n  3194: jump @1024\n      : @113 [@dyn 48] (gas: 1)\n  3197: t0 = 98, jump @1024\n      : @114 [@dyn 49] (gas: 1)\n  3202: t0 = 100, jump @1029\n      : @115 [@dyn 50] (gas: 1)\n  3207: jump @117 if a0 == 0\n      : @116 (gas: 1)\n  3210: jump @822\n      : @117 (gas: 3)\n  3213: a0 = u64 [s1 + 0xd8]\n  3217: a0 = i32 [a0]\n  3219: jump @119 if a0 >u 35\n      : @118 (gas: 1)\n  3223: jump @823\n      : @119 (gas: 5)\n  3226: a0 = s1 + 0x3000\n  3230: i32 a0 = a0 + 0xfffffffffffffa40\n  3234: a1 = 0x4\n  3237: ecalli 3 // 'call_data_load'\n  3239: fallthrough\n      : @120 (gas: 10)\n  3240: a0 = s1 + 0x2858\n  3244: a2 = u64 [a0 + 0x200]\n  3248: a1 = a0 + 0x100\n  3252: a3 = u64 [a1 + 0xf8]\n  3256: a4 = u64 [a1 + 0xf0]\n  3260: a5 = u64 [a1 + 0xe8]\n  3264: a0 = a4 | a2\n  3267: a1 = a5 | a3\n  3270: a0 = a0 | a1\n  3273: jump @122 if a0 == 0\n      : @121 (gas: 1)\n  3276: jump @381\n      : @122 (gas: 3)\n  3279: a0 = s1 + 0x1c60\n  3283: a1 = 0x40\n  3286: ra = 102, jump @2\n      : @123 [@dyn 51] (gas: 14)\n  3291: a2 = s1 + 0x1858\n  3295: t0 = u64 [a2 + 0x420]\n  3299: a1 = a2 + 0x400\n  3303: a5 = u64 [a1 + 0x18]\n  3306: a4 = u64 [a1 + 0x10]\n  3309: a0 = u64 [a1 + 0x8]\n  3312: a3 = a4 | t0\n  3315: a1 = a0 | a5\n  3318: a1 = a1 | a3\n  3321: a1 = a1 >> 0x20\n  3324: a3 = a3 | a5\n  3327: a3 = a3 << 0x20\n  3330: a1 = a1 | a3\n  3333: jump @125 if a1 == 0\n      : @124 (gas: 1)\n  3336: jump @533\n      : @125 (gas: 11)\n  3339: u64 [a2 + 1016] = 0\n  3343: u64 [a2 + 1008] = 0\n  3347: u64 [a2 + 1000] = 0\n  3351: a3 = 0x8c379a000000000\n  3361: a1 = s1 + 0x1c40\n  3365: u64 [a2 + 0x400] = a3\n  3369: u64 [s1 + 0xd8] = a0\n  3373: u64 [s1 + 0xd0] = a4\n  3377: u64 [s1 + 0xc0] = t0\n  3381: u64 [s1 + 0xc8] = a5\n  3385: ra = 104, jump @4\n      : @126 [@dyn 52] (gas: 1)\n  3390: t0 = 106, jump @992\n      : @127 [@dyn 53] (gas: 1)\n  3395: jump @129 if a0 != 0\n      : @128 (gas: 1)\n  3398: jump @533\n      : @129 (gas: 1)\n  3401: t0 = 108, jump @1032\n      : @130 [@dyn 54] (gas: 8)\n  3406: u64 [a2 + 992] = 0\n  3410: u64 [a2 + 984] = 0\n  3414: u64 [a2 + 968] = 0x20\n  3419: a1 = s1 + 0x1c20\n  3423: u64 [a2 + 976] = 0\n  3427: u64 [s1 + 0xc8] = a3\n  3431: u64 [s1 + 0xc0] = a4\n  3435: ra = 110, jump @4\n      : @131 [@dyn 55] (gas: 1)\n  3440: t0 = 112, jump @994\n      : @132 [@dyn 56] (gas: 1)\n  3445: jump @134 if a0 != 0\n      : @133 (gas: 1)\n  3448: jump @533\n      : @134 (gas: 1)\n  3451: t0 = 114, jump @1030\n      : @135 [@dyn 57] (gas: 6)\n  3456: u64 [a2 + 960] = 0\n  3460: u64 [a2 + 952] = 0\n  3464: u64 [a2 + 936] = 0x28\n  3469: a1 = s1 + 0x1c00\n  3473: u64 [a2 + 944] = 0\n  3477: ra = 116, jump @4\n      : @136 [@dyn 58] (gas: 1)\n  3482: t0 = 118, jump @996\n      : @137 [@dyn 59] (gas: 1)\n  3487: jump @139 if a0 != 0\n      : @138 (gas: 1)\n  3490: jump @533\n      : @139 (gas: 14)\n  3493: i32 a0 = a1 + 0x44\n  3496: a1 = u64 [0x20060]\n  3501: u64 [s1 + 0xc0] = a2\n  3505: a5 = s1 + 0x1858\n  3509: a4 = a5 + 0x300\n  3513: u64 [a4 + 0xa0] = a1\n  3517: a1 = u64 [0x20068]\n  3522: a2 = u64 [0x20070]\n  3527: a3 = u64 [0x20078]\n  3532: u64 [a4 + 0x98] = a1\n  3536: u64 [a4 + 0x90] = a2\n  3540: a1 = s1 + 0x1be0\n  3544: u64 [a4 + 0x88] = a3\n  3548: ra = 120, jump @4\n      : @140 [@dyn 60] (gas: 1)\n  3553: t0 = 122, jump @995\n      : @141 [@dyn 61] (gas: 1)\n  3558: jump @143 if a0 != 0\n      : @142 (gas: 1)\n  3561: jump @533\n      : @143 (gas: 10)\n  3564: i32 a0 = a2 + 0x64\n  3567: a1 = u64 [0x20080]\n  3572: a3 = s1 + 0x1858\n  3576: u64 [a3 + 888] = 0\n  3580: u64 [a3 + 880] = 0\n  3584: u64 [a3 + 0x380] = a1\n  3588: a1 = s1 + 0x1bc0\n  3592: u64 [a3 + 872] = 0\n  3596: ra = 0x216\n  3600: jump @4\n      : @144 (gas: 8)\n  3603: u64 [a2 + 1920] = 0\n  3607: u64 [a2 + 1912] = 0\n  3611: u64 [a2 + 1904] = 0\n  3615: u64 [a2 + 1896] = 0\n  3619: a0 = s1 + 0x2000\n  3623: i32 a0 = a0 + 0x7c0\n  3627: ecalli 15 // 'value_transferred'\n  3629: fallthrough\n      : @145 (gas: 11)\n  3630: a3 = s1 + 0x2058\n  3634: a5 = a3 + 0x700\n  3638: a0 = u64 [a5 + 0x78]\n  3641: a1 = u64 [a5 + 0x80]\n  3645: a2 = u64 [a5 + 0x70]\n  3648: a4 = a3\n  3650: a3 = u64 [a5 + 0x68]\n  3653: a1 = a1 | a2\n  3656: a0 = a0 | a3\n  3659: a0 = a0 | a1\n  3662: jump @147 if a0 == 0\n      : @146 (gas: 1)\n  3665: jump @824\n      : @147 (gas: 3)\n  3668: a0 = u64 [s1 + 0xd8]\n  3672: a0 = i32 [a0]\n  3674: jump @149 if a0 >u 3\n      : @148 (gas: 1)\n  3678: jump @825\n      : @149 (gas: 7)\n  3681: u64 [a4 + 1952] = 0\n  3685: u64 [a4 + 1944] = 0\n  3689: u64 [a4 + 1936] = 0\n  3693: u64 [a4 + 1928] = 0\n  3697: a0 = s1 + 0x12e0\n  3701: a1 = s1 + 0x27e0\n  3705: ra = 124, jump @6\n      : @150 [@dyn 62] (gas: 11)\n  3710: a1 = s1 + 0x1058\n  3714: a2 = a1 + 0x200\n  3718: a0 = u64 [a2 + 0x98]\n  3722: u64 [s1 + 0xc8] = a0\n  3726: a0 = u64 [a2 + 0x90]\n  3730: u64 [s1 + 0xd8] = a0\n  3734: a0 = u64 [a2 + 0x88]\n  3738: u64 [s1 + 0xd0] = a0\n  3742: a0 = s1 + 0x12c0\n  3746: a1 = 0x40\n  3749: ra = 126, jump @2\n      : @151 [@dyn 63] (gas: 7)\n  3754: a3 = s1 + 0x1058\n  3758: a5 = a3 + 0x200\n  3762: a4 = u64 [a5 + 0x80]\n  3766: a1 = u64 [a5 + 0x78]\n  3769: a2 = u64 [a5 + 0x70]\n  3772: a0 = u64 [a5 + 0x68]\n  3775: t0 = 128, jump @1017\n      : @152 [@dyn 64] (gas: 1)\n  3781: jump @154 if a1 == 0\n      : @153 (gas: 1)\n  3784: jump @533\n      : @154 (gas: 14)\n  3787: a1 = u64 [s1 + 0xc8]\n  3791: a1 = a1 << 0x20\n  3794: a2 = a1 >> 0x20\n  3797: u64 [a3 + 608] = 0\n  3801: a1 = u64 [s1 + 0xd0]\n  3805: a4 = a3 + 0x200\n  3809: u64 [a4 + 0x48] = a1\n  3812: a1 = u64 [s1 + 0xd8]\n  3816: u64 [a4 + 0x50] = a1\n  3819: a1 = s1 + 0x12a0\n  3823: u64 [a4 + 0x58] = a2\n  3826: u64 [s1 + 0xd8] = a0\n  3830: ra = 0x154\n  3834: jump @4\n      : @155 (gas: 8)\n  3837: u64 [a3 + 800] = 0\n  3841: u64 [a3 + 792] = 0\n  3845: u64 [a3 + 784] = 0\n  3849: u64 [a3 + 776] = 0\n  3853: a0 = s1 + 0x3000\n  3857: i32 a0 = a0 + 0xfffffffffffffb60\n  3861: ecalli 15 // 'value_transferred'\n  3863: fallthrough\n      : @156 (gas: 10)\n  3864: a3 = s1 + 0x2858\n  3868: a4 = a3 + 0x300\n  3872: a0 = u64 [a4 + 0x18]\n  3875: a1 = u64 [a4 + 0x20]\n  3878: a2 = u64 [a4 + 0x10]\n  3881: a3 = u64 [a4 + 0x8]\n  3884: a1 = a1 | a2\n  3887: a0 = a0 | a3\n  3890: a0 = a0 | a1\n  3893: jump @158 if a0 == 0\n      : @157 (gas: 1)\n  3896: jump @826\n      : @158 (gas: 3)\n  3899: a0 = u64 [s1 + 0xd8]\n  3903: a0 = i32 [a0]\n  3905: jump @160 if a0 >u 35\n      : @159 (gas: 1)\n  3909: jump @827\n      : @160 (gas: 6)\n  3912: a0 = s1 + 0x3000\n  3916: i32 a0 = a0 + 0xfffffffffffffb80\n  3920: a1 = 0x4\n  3923: ra = 0x82\n  3927: ecalli 3 // 'call_data_load'\n  3929: fallthrough\n      : @161 [@dyn 65] (gas: 4)\n  3930: a4 = s1 + 0x2858\n  3934: a1 = u64 [a4 + 0x338]\n  3938: a0 = u64 [a4 + 0x340]\n  3942: t0 = 132, jump @1007\n      : @162 [@dyn 66] (gas: 1)\n  3948: jump @164 if a3 != 0\n      : @163 (gas: 1)\n  3951: jump @828\n      : @164 (gas: 11)\n  3954: a2 = u64 [a4 + 0x330]\n  3958: a3 = u64 [a4 + 0x328]\n  3962: a4 = s1 + 0x2058\n  3966: a5 = a4 + 0x100\n  3970: u64 [a5 + 0x68] = a3\n  3973: u64 [a5 + 0x70] = a2\n  3976: u64 [a5 + 0x78] = a1\n  3979: a1 = s1 + 0x21c0\n  3983: u64 [a5 + 0x80] = a0\n  3987: a0 = 0\n  3989: ra = 134, jump @4\n      : @165 [@dyn 67] (gas: 2)\n  3995: a1 = s1 + 0x2058\n  3999: t0 = 136, jump @1028\n      : @166 [@dyn 68] (gas: 3)\n  4005: a1 = s1 + 0x21a0\n  4009: u64 [a2 + 336] = 0\n  4013: ra = 138, jump @4\n      : @167 [@dyn 69] (gas: 6)\n  4019: a0 = sp + 0xffffffffffffffe0\n  4022: a0 = a0 & 0xffffffffffffffe0\n  4025: u64 [s1 + 0xd0] = a0\n  4029: sp = a0\n  4031: a1 = i32 [0x2023c]\n  4036: jump @169 if a1 >u 63\n      : @168 (gas: 4)\n  4040: a1 = 0x40\n  4043: u32 [0x2023c] = a1\n  4048: t0 = 0x8c\n  4052: jump @1027\n      : @169 (gas: 1)\n  4055: t0 = 140, jump @1027\n      : @170 [@dyn 70] (gas: 8)\n  4061: a0 = 0x20250\n  4066: i32 a0 = a0 + 0\n  4068: i32 a2 = a2 + 0\n  4070: a1 = 0x40\n  4073: ra = 0x8e\n  4077: ecalli 8 // 'hash_keccak_256'\n  4079: t0 = 0x90\n  4083: jump @1006\n      : @171 [@dyn 71] (gas: 1)\n  4086: t0 = 144, jump @1006\n      : @172 [@dyn 72] (gas: 3)\n  4092: a0 = s1 + 0x2180\n  4096: a1 = 0x40\n  4099: ra = 146, jump @2\n      : @173 [@dyn 73] (gas: 16)\n  4105: a1 = s1 + 0x2058\n  4109: a5 = a1 + 0x100\n  4113: a0 = u64 [a5 + 0x40]\n  4116: u64 [s1 + 0xc0] = a0\n  4120: a2 = u64 [a5 + 0x38]\n  4123: u64 [s1 + 0xb8] = a2\n  4127: a4 = u64 [a5 + 0x30]\n  4130: u64 [s1 + 0xc8] = a4\n  4134: a3 = u64 [a5 + 0x28]\n  4137: u64 [s1 + 0xd8] = a3\n  4141: u64 [a5 + 0x20] = a0\n  4144: u64 [a5 + 0x18] = a2\n  4147: u64 [a5 + 0x10] = a4\n  4150: a0 = s1 + 0x2160\n  4154: u64 [a5 + 0x8] = a3\n  4157: ra = 148, jump @923\n      : @174 [@dyn 74] (gas: 3)\n  4163: a0 = s1 + 0x2140\n  4167: a1 = u64 [s1 + 0xd0]\n  4171: ra = 150, jump @6\n      : @175 [@dyn 75] (gas: 1)\n  4177: t0 = 152, jump @1011\n      : @176 [@dyn 76] (gas: 1)\n  4183: jump @178 if a0 == 0\n      : @177 (gas: 1)\n  4186: jump @533\n      : @178 (gas: 16)\n  4189: a0 = s1 + 0x2058\n  4193: a4 = u64 [a0 + 0x100]\n  4197: a3 = u64 [a0 + 0xf8]\n  4201: a2 = u64 [a0 + 0xf0]\n  4205: a1 = u64 [a0 + 0xe8]\n  4209: u64 [s1 + 0xd0] = a1\n  4213: u64 [a0 + 0xc8] = a1\n  4217: u64 [s1 + 0x90] = a2\n  4221: u64 [a0 + 0xd0] = a2\n  4225: u64 [s1 + 0x88] = a3\n  4229: u64 [a0 + 0xd8] = a3\n  4233: a1 = s1 + 0x2120\n  4237: u64 [s1 + 0x80] = a4\n  4241: u64 [a0 + 0xe0] = a4\n  4245: a0 = u64 [s1 + 0xd8]\n  4249: ra = 154, jump @4\n      : @179 [@dyn 77] (gas: 1)\n  4255: t0 = 156, jump @1012\n      : @180 [@dyn 78] (gas: 9)\n  4261: a4 = s1 + 0x2858\n  4265: a5 = a4 + 0x300\n  4269: u64 [a5 + 0x50] = a1\n  4272: u64 [a5 + 0x48] = a0\n  4275: u64 [a5 + 0x58] = a2\n  4278: u64 [a5 + 0x60] = a3\n  4281: a0 = s1 + 0x2100\n  4285: a1 = s1 + 0x2ba0\n  4289: ra = 158, jump @6\n      : @181 [@dyn 79] (gas: 1)\n  4295: t0 = 160, jump @1003\n      : @182 [@dyn 80] (gas: 1)\n  4301: jump @184 if a0 != 0\n      : @183 (gas: 1)\n  4304: jump @533\n      : @184 (gas: 21)\n  4307: a0 = s1 + 0x2058\n  4311: u64 [s1 + 0xc0] = a2\n  4315: a2 = a0\n  4317: t0 = u64 [a0 + 0xc0]\n  4321: a4 = u64 [a0 + 0xb8]\n  4325: u64 [s1 + 0xb8] = a3\n  4329: a3 = u64 [a0 + 0xb0]\n  4333: a1 = u64 [a0 + 0xa8]\n  4337: a0 = u64 [s1 + 0xd8]\n  4341: i32 a0 = a0 + 0x20\n  4344: u64 [s1 + 0x78] = a1\n  4347: u64 [a2 + 0x88] = a1\n  4351: u64 [s1 + 0x70] = a3\n  4354: u64 [a2 + 0x90] = a3\n  4358: u64 [s1 + 0x68] = a4\n  4361: u64 [a2 + 0x98] = a4\n  4365: a1 = s1 + 0x20e0\n  4369: a3 = t0\n  4371: u64 [s1 + 0x60] = a3\n  4374: u64 [a2 + 0xa0] = a3\n  4378: ra = 162, jump @4\n      : @185 [@dyn 81] (gas: 1)\n  4384: t0 = 164, jump @1009\n      : @186 [@dyn 82] (gas: 9)\n  4390: a4 = s1 + 0x2858\n  4394: a5 = a4 + 0x300\n  4398: u64 [a5 + 0x70] = a2\n  4401: u64 [a5 + 0x68] = a0\n  4404: u64 [a5 + 0x78] = a3\n  4407: u64 [a5 + 0x80] = a1\n  4411: a0 = s1 + 0x20c0\n  4415: a1 = s1 + 0x2bc0\n  4419: ra = 166, jump @6\n      : @187 [@dyn 83] (gas: 9)\n  4425: a0 = u64 [s1 + 0xb8]\n  4429: a0 = a0 + 0xffffffffffffffc0\n  4432: a1 = u64 [s1 + 0xd8]\n  4436: a0 = a1 <u a0\n  4439: a1 = u64 [s1 + 0xc8]\n  4443: a0 = 0 if a1 != 0\n  4445: a1 = u64 [s1 + 0xc0]\n  4449: a0 = 0 if a1 != 0\n  4451: jump @189 if a0 != 0\n      : @188 (gas: 1)\n  4454: jump @533\n      : @189 (gas: 13)\n  4457: a3 = s1 + 0x2058\n  4461: a0 = u64 [a3 + 0x68]\n  4464: a0 = a0 & 0xff\n  4468: a2 = a0 >u 0\n  4470: u64 [s1 + 0xc8] = a2\n  4474: a0 = u64 [s1 + 0xd8]\n  4478: i32 a0 = a0 + 0x40\n  4481: u64 [a3 + 96] = 0\n  4484: u64 [a3 + 88] = 0\n  4487: u64 [a3 + 80] = 0\n  4490: a1 = s1 + 0x20a0\n  4494: u64 [a3 + 0x48] = a2\n  4497: ra = 168, jump @4\n      : @190 [@dyn 84] (gas: 3)\n  4503: a0 = s1 + 0x2080\n  4507: a1 = 0x40\n  4510: ra = 170, jump @2\n      : @191 [@dyn 85] (gas: 41)\n  4516: a5 = s1 + 0x2058\n  4520: a3 = u64 [a5 + 0x40]\n  4523: u64 [s1 + 0xd8] = a3\n  4527: a2 = u64 [a5 + 0x38]\n  4530: u64 [s1 + 0xc0] = a2\n  4534: a4 = u64 [a5 + 0x30]\n  4537: u64 [s1 + 0xb8] = a4\n  4541: t0 = u64 [a5 + 0x28]\n  4544: u64 [s1 + 0xb0] = t0\n  4548: a0 = s1 + 0x1858\n  4552: a1 = u64 [s1 + 0xc8]\n  4556: u64 [a0 + 0x788] = a1\n  4560: a1 = u64 [s1 + 0x60]\n  4563: u64 [a0 + 0x7c0] = a1\n  4567: a1 = u64 [s1 + 0x68]\n  4570: u64 [a0 + 0x7b8] = a1\n  4574: a1 = u64 [s1 + 0x70]\n  4577: u64 [a0 + 0x7b0] = a1\n  4581: a1 = u64 [s1 + 0x78]\n  4584: u64 [a0 + 0x7a8] = a1\n  4588: u64 [a0 + 1952] = 0\n  4592: u64 [a0 + 1944] = 0\n  4596: u64 [a0 + 1936] = 0\n  4600: a1 = u64 [s1 + 0x80]\n  4604: u64 [a0 + 0x7e0] = a1\n  4608: a1 = u64 [s1 + 0x88]\n  4612: u64 [a0 + 0x7d8] = a1\n  4616: a1 = u64 [s1 + 0x90]\n  4620: u64 [a0 + 0x7d0] = a1\n  4624: a1 = u64 [s1 + 0xd0]\n  4628: u64 [a0 + 0x7c8] = a1\n  4632: u64 [a5] = a3\n  4634: u64 [a5 + 0xfffffffffffffff8] = a2\n  4637: u64 [a5 + 0xfffffffffffffff0] = a4\n  4640: a0 = s1 + 0x2060\n  4644: a1 = s1 + 0x2040\n  4648: a2 = s1 + 0x2020\n  4652: a3 = s1 + 0x2000\n  4656: a4 = s1 + 0x1fe0\n  4660: u64 [a5 + 0xffffffffffffffe8] = t0\n  4663: ra = 172, jump @915\n      : @192 [@dyn 86] (gas: 12)\n  4669: a4 = u64 [s1 + 0xb8]\n  4673: a2 = u64 [s1 + 0xb0]\n  4677: a0 = u64 [s1 + 0xd8]\n  4681: a0 = a0 | a4\n  4684: a3 = u64 [s1 + 0xc0]\n  4688: a1 = a2 | a3\n  4691: a1 = a1 | a0\n  4694: a1 = a1 >> 0x20\n  4697: a0 = a0 | a3\n  4700: a0 = a0 << 0x20\n  4703: a0 = a0 | a1\n  4706: jump @194 if a0 == 0\n      : @193 (gas: 1)\n  4709: jump @533\n      : @194 (gas: 8)\n  4712: t0 = a3\n  4714: a1 = s1 + 0x2058\n  4718: a0 = u64 [a1 + 0x10]\n  4721: a3 = u64 [a1 + 0x20]\n  4724: u64 [s1 + 0xd0] = a3\n  4728: t1 = u64 [a1 + 0x8]\n  4731: a3 = u64 [a1 + 0x18]\n  4734: jump @264\n      : @195 (gas: 9)\n  4737: u64 [a3 + 736] = 0\n  4741: u64 [a3 + 728] = 0\n  4745: u64 [a3 + 720] = 0\n  4749: u64 [a3 + 712] = 0\n  4753: a0 = s1 + 0x3000\n  4757: i32 a0 = a0 + 0xfffffffffffffb20\n  4761: ra = 0xae\n  4765: ecalli 15 // 'value_transferred'\n  4767: fallthrough\n      : @196 [@dyn 87] (gas: 3)\n  4768: a3 = s1 + 0x2858\n  4772: a4 = a3 + 0x200\n  4776: t0 = 176, jump @1029\n      : @197 [@dyn 88] (gas: 1)\n  4782: jump @199 if a0 == 0\n      : @198 (gas: 1)\n  4785: jump @829\n      : @199 (gas: 3)\n  4788: a0 = u64 [s1 + 0xd8]\n  4792: a1 = i32 [a0]\n  4794: jump @201 if a1 >u 3\n      : @200 (gas: 1)\n  4798: jump @830\n      : @201 (gas: 8)\n  4801: a1 = s1 + 0x2858\n  4805: u64 [a1 + 768] = 0\n  4809: u64 [a1 + 760] = 0\n  4813: u64 [a1 + 752] = 0\n  4817: u64 [a1 + 744] = 0x3\n  4822: a0 = s1 + 0x1fc0\n  4826: a1 = s1 + 0x2b40\n  4830: ra = 178, jump @6\n      : @202 [@dyn 89] (gas: 3)\n  4836: t0 = 0xb4\n  4840: a1 = s1 + 0x1858\n  4844: fallthrough\n      : @203 [@dyn 90] (gas: 12)\n  4845: a2 = a1 + 0x700\n  4849: a0 = u64 [a2 + 0x80]\n  4853: u64 [s1 + 0xd8] = a0\n  4857: a0 = u64 [a2 + 0x78]\n  4860: u64 [s1 + 0xd0] = a0\n  4864: a0 = u64 [a2 + 0x70]\n  4867: u64 [s1 + 0xc8] = a0\n  4871: a0 = u64 [a2 + 0x68]\n  4874: u64 [s1 + 0xc0] = a0\n  4878: a0 = s1 + 0x1fa0\n  4882: a1 = 0x40\n  4885: ra = 182, jump @2\n      : @204 [@dyn 91] (gas: 7)\n  4891: a3 = s1 + 0x1858\n  4895: a5 = a3 + 0x700\n  4899: a0 = u64 [a5 + 0x60]\n  4902: a1 = u64 [a5 + 0x58]\n  4905: a2 = u64 [a5 + 0x50]\n  4908: a4 = u64 [a5 + 0x48]\n  4911: t0 = 184, jump @1008\n      : @205 [@dyn 92] (gas: 1)\n  4917: jump @207 if a0 == 0\n      : @206 (gas: 1)\n  4920: jump @533\n      : @207 (gas: 14)\n  4923: a0 = u64 [s1 + 0xc0]\n  4927: a2 = a3 + 0x700\n  4931: u64 [a2 + 0x28] = a0\n  4934: a0 = u64 [s1 + 0xc8]\n  4938: u64 [a2 + 0x30] = a0\n  4941: a0 = u64 [s1 + 0xd0]\n  4945: u64 [a2 + 0x38] = a0\n  4948: a1 = s1 + 0x1f80\n  4952: a0 = u64 [s1 + 0xd8]\n  4956: u64 [a2 + 0x40] = a0\n  4959: a0 = a4\n  4961: u64 [s1 + 0xd8] = a4\n  4965: ra = 0x154\n  4969: jump @4\n      : @208 (gas: 8)\n  4972: u64 [a3 + 0] = 0\n  4974: u64 [a3 + 4294967288] = 0\n  4977: u64 [a3 + 4294967280] = 0\n  4980: u64 [a3 + 4294967272] = 0\n  4983: a0 = s1 + 0x3000\n  4987: i32 a0 = a0 + 0xfffffffffffff840\n  4991: ecalli 15 // 'value_transferred'\n  4993: fallthrough\n      : @209 (gas: 10)\n  4994: a3 = s1 + 0x2858\n  4998: a4 = a3 + 0xffffffffffffff00\n  5002: a0 = u64 [a4 + 0xf8]\n  5006: a1 = u64 [a3]\n  5008: a2 = u64 [a4 + 0xf0]\n  5012: a3 = u64 [a4 + 0xe8]\n  5016: a1 = a1 | a2\n  5019: a0 = a0 | a3\n  5022: a0 = a0 | a1\n  5025: jump @211 if a0 == 0\n      : @210 (gas: 1)\n  5028: jump @831\n      : @211 (gas: 3)\n  5031: a0 = u64 [s1 + 0xd8]\n  5035: a0 = i32 [a0]\n  5037: jump @213 if a0 >u 35\n      : @212 (gas: 1)\n  5041: jump @832\n      : @213 (gas: 5)\n  5044: a0 = s1 + 0x3000\n  5048: i32 a0 = a0 + 0xfffffffffffff860\n  5052: a1 = 0x4\n  5055: ecalli 3 // 'call_data_load'\n  5057: fallthrough\n      : @214 (gas: 9)\n  5058: a0 = s1 + 0x2858\n  5062: a2 = u64 [a0 + 0x20]\n  5065: a3 = u64 [a0 + 0x18]\n  5068: a4 = u64 [a0 + 0x10]\n  5071: a5 = u64 [a0 + 0x8]\n  5074: a0 = a4 | a2\n  5077: a1 = a5 | a3\n  5080: a0 = a0 | a1\n  5083: jump @216 if a0 == 0\n      : @215 (gas: 1)\n  5086: jump @423\n      : @216 (gas: 3)\n  5089: a0 = s1 + 0x1400\n  5093: a1 = 0x40\n  5096: ra = 186, jump @2\n      : @217 [@dyn 93] (gas: 14)\n  5102: a2 = s1 + 0x1058\n  5106: t0 = u64 [a2 + 0x3c0]\n  5110: a1 = a2 + 0x300\n  5114: a5 = u64 [a1 + 0xb8]\n  5118: a4 = u64 [a1 + 0xb0]\n  5122: a0 = u64 [a1 + 0xa8]\n  5126: a3 = a4 | t0\n  5129: a1 = a0 | a5\n  5132: a1 = a1 | a3\n  5135: a1 = a1 >> 0x20\n  5138: a3 = a3 | a5\n  5141: a3 = a3 << 0x20\n  5144: a1 = a1 | a3\n  5147: jump @219 if a1 == 0\n      : @218 (gas: 1)\n  5150: jump @533\n      : @219 (gas: 11)\n  5153: u64 [a2 + 920] = 0\n  5157: u64 [a2 + 912] = 0\n  5161: u64 [a2 + 904] = 0\n  5165: a3 = 0x8c379a000000000\n  5175: a1 = s1 + 0x13e0\n  5179: u64 [a2 + 0x3a0] = a3\n  5183: u64 [s1 + 0xd8] = a0\n  5187: u64 [s1 + 0xd0] = a4\n  5191: u64 [s1 + 0xc0] = t0\n  5195: u64 [s1 + 0xc8] = a5\n  5199: ra = 188, jump @4\n      : @220 [@dyn 94] (gas: 1)\n  5205: t0 = 190, jump @992\n      : @221 [@dyn 95] (gas: 1)\n  5211: jump @223 if a0 != 0\n      : @222 (gas: 1)\n  5214: jump @533\n      : @223 (gas: 1)\n  5217: t0 = 192, jump @1033\n      : @224 [@dyn 96] (gas: 8)\n  5223: u64 [a2 + 896] = 0\n  5227: u64 [a2 + 888] = 0\n  5231: u64 [a2 + 872] = 0x20\n  5236: a1 = s1 + 0x13c0\n  5240: u64 [a2 + 880] = 0\n  5244: u64 [s1 + 0xc8] = a3\n  5248: u64 [s1 + 0xc0] = a4\n  5252: ra = 194, jump @4\n      : @225 [@dyn 97] (gas: 1)\n  5258: t0 = 196, jump @994\n      : @226 [@dyn 98] (gas: 1)\n  5264: jump @228 if a0 != 0\n      : @227 (gas: 1)\n  5267: jump @533\n      : @228 (gas: 1)\n  5270: t0 = 198, jump @1031\n      : @229 [@dyn 99] (gas: 6)\n  5276: u64 [a2 + 864] = 0\n  5280: u64 [a2 + 856] = 0\n  5284: u64 [a2 + 840] = 0x2a\n  5289: a1 = s1 + 0x13a0\n  5293: u64 [a2 + 848] = 0\n  5297: ra = 200, jump @4\n      : @230 [@dyn 100] (gas: 1)\n  5303: t0 = 202, jump @996\n      : @231 [@dyn 101] (gas: 1)\n  5309: jump @233 if a0 != 0\n      : @232 (gas: 1)\n  5312: jump @533\n      : @233 (gas: 14)\n  5315: i32 a0 = a1 + 0x44\n  5318: a1 = u64 [0x20108]\n  5323: u64 [s1 + 0xc0] = a2\n  5327: a5 = s1 + 0x1058\n  5331: a4 = a5 + 0x300\n  5335: u64 [a4 + 0x40] = a1\n  5338: a1 = u64 [0x20110]\n  5343: a2 = u64 [0x20140]\n  5348: a3 = u64 [0x20148]\n  5353: u64 [a4 + 0x38] = a1\n  5356: u64 [a4 + 0x30] = a2\n  5359: a1 = s1 + 0x1380\n  5363: u64 [a4 + 0x28] = a3\n  5366: ra = 204, jump @4\n      : @234 [@dyn 102] (gas: 1)\n  5372: t0 = 206, jump @995\n      : @235 [@dyn 103] (gas: 1)\n  5378: jump @237 if a0 != 0\n      : @236 (gas: 1)\n  5381: jump @533\n      : @237 (gas: 11)\n  5384: i32 a0 = a2 + 0x64\n  5387: a1 = u64 [0x20150]\n  5392: a3 = s1 + 0x1058\n  5396: u64 [a3 + 784] = 0\n  5400: u64 [a3 + 0x320] = a1\n  5404: a1 = 0x726f000000000000\n  5414: u64 [a3 + 0x318] = a1\n  5418: a1 = s1 + 0x1360\n  5422: u64 [a3 + 776] = 0\n  5426: ra = 0x216\n  5430: jump @4\n      : @238 (gas: 1)\n  5433: jump @240 if a0 == 1941178475\n      : @239 (gas: 1)\n  5440: jump @833\n      : @240 (gas: 9)\n  5443: u64 [a2 + 1248] = 0\n  5447: u64 [a2 + 1240] = 0\n  5451: u64 [a2 + 1232] = 0\n  5455: u64 [a2 + 1224] = 0\n  5459: a0 = s1 + 0x2000\n  5463: i32 a0 = a0 + 0x520\n  5467: ra = 0xd0\n  5471: ecalli 15 // 'value_transferred'\n  5473: fallthrough\n      : @241 [@dyn 104] (gas: 3)\n  5474: a3 = s1 + 0x2058\n  5478: a4 = a3 + 0x400\n  5482: t0 = 210, jump @1029\n      : @242 [@dyn 105] (gas: 1)\n  5488: jump @244 if a0 == 0\n      : @243 (gas: 1)\n  5491: jump @837\n      : @244 (gas: 3)\n  5494: a0 = u64 [s1 + 0xd8]\n  5498: a0 = i32 [a0]\n  5500: jump @246 if a0 >u 35\n      : @245 (gas: 1)\n  5504: jump @838\n      : @246 (gas: 6)\n  5507: a0 = s1 + 0x2000\n  5511: i32 a0 = a0 + 0x540\n  5515: a1 = 0x4\n  5518: ra = 0xd4\n  5522: ecalli 3 // 'call_data_load'\n  5524: fallthrough\n      : @247 [@dyn 106] (gas: 4)\n  5525: a4 = s1 + 0x2058\n  5529: a1 = u64 [a4 + 0x4f8]\n  5533: a0 = u64 [a4 + 0x500]\n  5537: t0 = 214, jump @1007\n      : @248 [@dyn 107] (gas: 1)\n  5543: jump @250 if a3 != 0\n      : @249 (gas: 1)\n  5546: jump @839\n      : @250 (gas: 13)\n  5549: a2 = u64 [a4 + 0x4f0]\n  5553: a3 = u64 [a4 + 0x4e8]\n  5557: a4 = s1 + 0x7ff\n  5561: a4 = a4 + 0x59\n  5564: a5 = a4 + 0x100\n  5568: u64 [a5 + 0x68] = a3\n  5571: u64 [a5 + 0x70] = a2\n  5574: u64 [a5 + 0x78] = a1\n  5577: a1 = s1 + 0x7ff\n  5581: a1 = a1 + 0x1c1\n  5585: u64 [a5 + 0x80] = a0\n  5589: a0 = 0\n  5591: ra = 216, jump @4\n      : @251 [@dyn 108] (gas: 3)\n  5597: a1 = s1 + 0x7ff\n  5601: a1 = a1 + 0x59\n  5604: t0 = 218, jump @1028\n      : @252 [@dyn 109] (gas: 4)\n  5610: a1 = s1 + 0x7ff\n  5614: a1 = a1 + 0x1a1\n  5618: u64 [a2 + 336] = 0\n  5622: ra = 220, jump @4\n      : @253 [@dyn 110] (gas: 6)\n  5628: a0 = sp + 0xffffffffffffffe0\n  5631: a0 = a0 & 0xffffffffffffffe0\n  5634: u64 [s1 + 0xb8] = a0\n  5638: sp = a0\n  5640: a1 = i32 [0x2023c]\n  5645: jump @255 if a1 >u 63\n      : @254 (gas: 4)\n  5649: a1 = 0x40\n  5652: u32 [0x2023c] = a1\n  5657: t0 = 0xde\n  5661: jump @1027\n      : @255 (gas: 1)\n  5664: t0 = 222, jump @1027\n      : @256 [@dyn 111] (gas: 26)\n  5670: a0 = 0x20250\n  5675: i32 a0 = a0 + 0\n  5677: i32 a2 = a2 + 0\n  5679: a1 = 0x40\n  5682: ecalli 8 // 'hash_keccak_256'\n  5684: a3 = u64 [s1 + 0xd8]\n  5688: a0 = u64 [a3 + 0x18]\n  5691: a1 = u64 [a3 + 0x10]\n  5694: a2 = u64 [a3 + 0x8]\n  5697: a3 = u64 [a3]\n  5699: a5 = reverse a0\n  5701: u64 [s1 + 0xc8] = a5\n  5705: a4 = reverse a1\n  5707: u64 [s1 + 0xd0] = a4\n  5711: a2 = reverse a2\n  5713: u64 [s1 + 0xc0] = a2\n  5717: a0 = reverse a3\n  5719: u64 [s1 + 0xd8] = a0\n  5723: a1 = u64 [s1 + 0xb8]\n  5727: u64 [a1 + 0x18] = a0\n  5730: u64 [a1 + 0x10] = a2\n  5733: u64 [a1 + 0x8] = a4\n  5736: u64 [a1] = a5\n  5738: a0 = s1 + 0x7ff\n  5742: a0 = a0 + 0x181\n  5746: ra = 224, jump @6\n      : @257 [@dyn 112] (gas: 33)\n  5752: a1 = s1 + 0x7ff\n  5756: a1 = a1 + 0x59\n  5759: a2 = a1 + 0x100\n  5763: a0 = u64 [a2 + 0x28]\n  5766: u64 [s1 + 0xb8] = a0\n  5770: a0 = u64 [a2 + 0x30]\n  5773: u64 [s1 + 0xb0] = a0\n  5777: a0 = u64 [a2 + 0x38]\n  5780: u64 [s1 + 0xa8] = a0\n  5784: a0 = u64 [a2 + 0x40]\n  5787: u64 [s1 + 0xa0] = a0\n  5791: a0 = u64 [s1 + 0xc8]\n  5795: a0 = a0 + 0x1\n  5798: a1 = a0 <u 0x1\n  5801: a2 = u64 [s1 + 0xd0]\n  5805: a1 = a1 + a2\n  5808: a2 = s1 + 0x2058\n  5812: a3 = a2 + 0x500\n  5816: u64 [a3 + 0x10] = a1\n  5819: a1 = a1 | a0\n  5822: u64 [a3 + 0x8] = a0\n  5825: a0 = a1 <u 0x1\n  5828: a1 = u64 [s1 + 0xc0]\n  5832: a0 = a0 + a1\n  5835: u64 [a3 + 0x18] = a0\n  5838: a0 = a0 <u a1\n  5841: a1 = u64 [s1 + 0xd8]\n  5845: a0 = a0 + a1\n  5848: u64 [a3 + 0x20] = a0\n  5851: a0 = s1 + 0x7ff\n  5855: a0 = a0 + 0x161\n  5859: a1 = s1 + 0x2560\n  5863: ra = 226, jump @6\n      : @258 [@dyn 113] (gas: 32)\n  5869: a4 = s1 + 0x7ff\n  5873: a4 = a4 + 0x59\n  5876: a0 = u64 [a4 + 0x108]\n  5880: u64 [s1 + 0x98] = a0\n  5884: a0 = u64 [a4 + 0x110]\n  5888: u64 [s1 + 0x90] = a0\n  5892: a1 = u64 [s1 + 0xc8]\n  5896: a0 = a1 + 0x2\n  5899: a1 = a0 <u a1\n  5902: a3 = u64 [s1 + 0xd0]\n  5906: a2 = a3 + a1\n  5909: a3 = a2 <u a3\n  5912: a3 = a1 if a1 == 0\n  5915: a1 = u64 [a4 + 0x118]\n  5919: u64 [s1 + 0xd0] = a1\n  5923: a1 = u64 [s1 + 0xc0]\n  5927: a3 = a3 + a1\n  5930: a1 = a3 <u a1\n  5933: a5 = u64 [s1 + 0xd8]\n  5937: a1 = a1 + a5\n  5940: a5 = u64 [a4 + 0x120]\n  5944: u64 [s1 + 0xc8] = a5\n  5948: a4 = s1 + 0x2058\n  5952: a5 = a4 + 0x500\n  5956: u64 [a5 + 0x40] = a1\n  5959: u64 [a5 + 0x38] = a3\n  5962: u64 [a5 + 0x30] = a2\n  5965: u64 [a5 + 0x28] = a0\n  5968: a0 = s1 + 0x7ff\n  5972: a0 = a0 + 0x141\n  5976: a1 = s1 + 0x2580\n  5980: ra = 228, jump @6\n      : @259 [@dyn 114] (gas: 8)\n  5986: a0 = s1 + 0x7ff\n  5990: a0 = a0 + 0x59\n  5993: a0 = u8 [a0 + 0xe8]\n  5997: u64 [s1 + 0xc0] = a0\n  6001: a0 = s1 + 0x7ff\n  6005: a0 = a0 + 0x121\n  6009: a1 = 0x40\n  6012: ra = 230, jump @2\n      : @260 [@dyn 115] (gas: 47)\n  6018: a0 = s1 + 0x7ff\n  6022: a0 = a0 + 0x59\n  6025: a3 = u64 [a0 + 0xe0]\n  6029: u64 [s1 + 0xd8] = a3\n  6033: a2 = u64 [a0 + 0xd8]\n  6037: u64 [s1 + 0x88] = a2\n  6041: a4 = u64 [a0 + 0xd0]\n  6045: u64 [s1 + 0x80] = a4\n  6049: a5 = u64 [a0 + 0xc8]\n  6053: u64 [s1 + 0x78] = a5\n  6056: a1 = u64 [s1 + 0xc0]\n  6060: u64 [a0 + 0x28] = a1\n  6063: a1 = u64 [s1 + 0xc8]\n  6067: u64 [a0 + 0x60] = a1\n  6070: a1 = u64 [s1 + 0xd0]\n  6074: u64 [a0 + 0x58] = a1\n  6077: a1 = u64 [s1 + 0x90]\n  6081: u64 [a0 + 0x50] = a1\n  6084: u64 [a0 + 64] = 0\n  6087: u64 [a0 + 56] = 0\n  6090: u64 [a0 + 48] = 0\n  6093: a1 = u64 [s1 + 0x98]\n  6097: u64 [a0 + 0x48] = a1\n  6100: a1 = u64 [s1 + 0xa0]\n  6104: u64 [a0 + 0x80] = a1\n  6108: a1 = u64 [s1 + 0xa8]\n  6112: u64 [a0 + 0x78] = a1\n  6115: a1 = u64 [s1 + 0xb0]\n  6119: u64 [a0 + 0x70] = a1\n  6122: a1 = u64 [s1 + 0xb8]\n  6126: u64 [a0 + 0x68] = a1\n  6129: u64 [a0 + 0xa0] = a3\n  6133: u64 [a0 + 0x98] = a2\n  6137: u64 [a0 + 0x90] = a4\n  6141: t0 = a0\n  6143: a0 = s1 + 0x7ff\n  6147: a0 = a0 + 0x101\n  6151: a1 = s1 + 0x7ff\n  6155: a1 = a1 + 0xe1\n  6159: a2 = s1 + 0x7ff\n  6163: a2 = a2 + 0xc1\n  6167: a3 = s1 + 0x7ff\n  6171: a3 = a3 + 0xa1\n  6175: a4 = s1 + 0x7ff\n  6179: a4 = a4 + 0x81\n  6183: u64 [t0 + 0x88] = a5\n  6187: ra = 232, jump @915\n      : @261 [@dyn 116] (gas: 12)\n  6193: a4 = u64 [s1 + 0x80]\n  6197: a2 = u64 [s1 + 0x78]\n  6200: a0 = u64 [s1 + 0xd8]\n  6204: a0 = a0 | a4\n  6207: a3 = u64 [s1 + 0x88]\n  6211: a1 = a2 | a3\n  6214: a1 = a1 | a0\n  6217: a1 = a1 >> 0x20\n  6220: a0 = a0 | a3\n  6223: a0 = a0 << 0x20\n  6226: a0 = a0 | a1\n  6229: jump @263 if a0 == 0\n      : @262 (gas: 1)\n  6232: jump @533\n      : @263 (gas: 9)\n  6235: t0 = a3\n  6237: a1 = s1 + 0x7ff\n  6241: a1 = a1 + 0x59\n  6244: a0 = u64 [a1 + 0xb0]\n  6248: a3 = u64 [a1 + 0xc0]\n  6252: u64 [s1 + 0xd0] = a3\n  6256: t1 = u64 [a1 + 0xa8]\n  6260: a3 = u64 [a1 + 0xb8]\n  6264: fallthrough\n      : @264 (gas: 26)\n  6265: t2 = a0 ^ a4\n  6268: a5 = a0 <u a4\n  6271: ra = t1 <u a2\n  6274: a5 = ra if t2 == 0\n  6277: a1 = a3 - t0\n  6280: t2 = a1 - a5\n  6283: a1 = a1 <u a5\n  6286: u64 [s1 + 0xc8] = a1\n  6290: a3 = a3 <u t0\n  6293: a5 = u64 [s1 + 0xd8]\n  6297: a1 = u64 [s1 + 0xd0]\n  6301: a5 = a1 - a5\n  6304: a5 = a5 - a3\n  6307: a1 = u64 [s1 + 0xc8]\n  6311: a5 = a5 - a1\n  6314: a0 = a0 - a4\n  6317: a0 = a0 - ra\n  6320: a1 = t1 - a2\n  6323: a0 = a0 | a5\n  6326: a3 = a1 | t2\n  6329: a3 = a3 | a0\n  6332: a0 = a0 | t2\n  6335: a3 = a3 >> 0x20\n  6338: a0 = a0 << 0x20\n  6341: a0 = a0 | a3\n  6344: jump @266 if a0 == 0\n      : @265 (gas: 1)\n  6347: jump @533\n      : @266 (gas: 3)\n  6350: a0 = a2\n  6352: u64 [s1 + 0xd8] = a1\n  6356: ra = 234, jump @16\n      : @267 [@dyn 117] (gas: 5)\n  6362: i32 a1 = a0 + 0\n  6364: a2 = i32 [s1 + 0xd8]\n  6368: a0 = 0\n  6370: ecalli 12 // 'seal_return'\n  6372: jump @381\n      : @268 (gas: 10)\n  6375: u64 [a3 + 384] = 0\n  6379: u64 [a3 + 376] = 0\n  6383: u64 [a3 + 368] = 0\n  6387: u64 [a3 + 360] = 0\n  6391: a0 = s1 + 0x3000\n  6395: i32 a0 = a0 + 0xfffffffffffff9c0\n  6399: ra = 0xec\n  6403: ecalli 15 // 'value_transferred'\n  6405: t0 = 0xee\n  6409: jump @1024\n      : @269 [@dyn 118] (gas: 1)\n  6412: t0 = 238, jump @1024\n      : @270 [@dyn 119] (gas: 8)\n  6418: a0 = u64 [a4 + 0x78]\n  6421: a1 = u64 [a4 + 0x80]\n  6425: a2 = u64 [a4 + 0x70]\n  6428: a3 = u64 [a4 + 0x68]\n  6431: a1 = a1 | a2\n  6434: a0 = a0 | a3\n  6437: a0 = a0 | a1\n  6440: jump @272 if a0 == 0\n      : @271 (gas: 1)\n  6443: jump @840\n      : @272 (gas: 3)\n  6446: a0 = u64 [s1 + 0xd8]\n  6450: a0 = i32 [a0]\n  6452: jump @274 if a0 >u 35\n      : @273 (gas: 1)\n  6456: jump @841\n      : @274 (gas: 24)\n  6459: a0 = sp + 0xffffffffffffffe0\n  6462: a0 = a0 & 0xffffffffffffffe0\n  6465: u64 [s1 + 0xd8] = a0\n  6469: sp = a0\n  6471: a0 = s1 + 0x3000\n  6475: i32 a0 = a0 + 0xfffffffffffff9e0\n  6479: a1 = 0x4\n  6482: ecalli 3 // 'call_data_load'\n  6484: a0 = s1 + 0x2858\n  6488: a5 = a0 + 0x100\n  6492: a1 = u64 [a5 + 0xa0]\n  6496: u64 [s1 + 0xd0] = a1\n  6500: a2 = u64 [a5 + 0x98]\n  6504: u64 [s1 + 0xc8] = a2\n  6508: a3 = u64 [a5 + 0x90]\n  6512: u64 [s1 + 0xc0] = a3\n  6516: a4 = u64 [a5 + 0x88]\n  6520: u64 [s1 + 0xb8] = a4\n  6524: a0 = u64 [s1 + 0xd8]\n  6528: u64 [a0 + 0x18] = a1\n  6531: u64 [a0 + 0x10] = a2\n  6534: u64 [a0 + 0x8] = a3\n  6537: u64 [a0] = a4\n  6539: ra = 240, jump @979\n      : @275 [@dyn 120] (gas: 8)\n  6545: a5 = u64 [s1 + 0xb8]\n  6549: a4 = u64 [s1 + 0xc0]\n  6553: a3 = u64 [s1 + 0xc8]\n  6557: a2 = u64 [s1 + 0xd0]\n  6561: a0 = a4 | a2\n  6564: a1 = a5 | a3\n  6567: a0 = a0 | a1\n  6570: jump @277 if a0 == 0\n      : @276 (gas: 1)\n  6573: jump @488\n      : @277 (gas: 3)\n  6576: a0 = s1 + 0x1a80\n  6580: a1 = 0x40\n  6583: ra = 242, jump @2\n      : @278 [@dyn 121] (gas: 14)\n  6589: a2 = s1 + 0x1858\n  6593: t0 = u64 [a2 + 0x240]\n  6597: a1 = a2 + 0x200\n  6601: a5 = u64 [a1 + 0x38]\n  6604: a4 = u64 [a1 + 0x30]\n  6607: a0 = u64 [a1 + 0x28]\n  6610: a3 = a4 | t0\n  6613: a1 = a0 | a5\n  6616: a1 = a1 | a3\n  6619: a1 = a1 >> 0x20\n  6622: a3 = a3 | a5\n  6625: a3 = a3 << 0x20\n  6628: a1 = a1 | a3\n  6631: jump @280 if a1 == 0\n      : @279 (gas: 1)\n  6634: jump @533\n      : @280 (gas: 11)\n  6637: u64 [a2 + 536] = 0\n  6641: u64 [a2 + 528] = 0\n  6645: u64 [a2 + 520] = 0\n  6649: a3 = 0x8c379a000000000\n  6659: a1 = s1 + 0x1a60\n  6663: u64 [a2 + 0x220] = a3\n  6667: u64 [s1 + 0xd8] = a0\n  6671: u64 [s1 + 0xd0] = a4\n  6675: u64 [s1 + 0xc0] = t0\n  6679: u64 [s1 + 0xc8] = a5\n  6683: ra = 244, jump @4\n      : @281 [@dyn 122] (gas: 1)\n  6689: t0 = 246, jump @992\n      : @282 [@dyn 123] (gas: 1)\n  6695: jump @284 if a0 != 0\n      : @283 (gas: 1)\n  6698: jump @533\n      : @284 (gas: 1)\n  6701: t0 = 248, jump @1032\n      : @285 [@dyn 124] (gas: 8)\n  6707: u64 [a2 + 512] = 0\n  6711: u64 [a2 + 504] = 0\n  6715: u64 [a2 + 488] = 0x20\n  6720: a1 = s1 + 0x1a40\n  6724: u64 [a2 + 496] = 0\n  6728: u64 [s1 + 0xc8] = a3\n  6732: u64 [s1 + 0xc0] = a4\n  6736: ra = 250, jump @4\n      : @286 [@dyn 125] (gas: 1)\n  6742: t0 = 252, jump @994\n      : @287 [@dyn 126] (gas: 1)\n  6748: jump @289 if a0 != 0\n      : @288 (gas: 1)\n  6751: jump @533\n      : @289 (gas: 1)\n  6754: t0 = 254, jump @1030\n      : @290 [@dyn 127] (gas: 6)\n  6760: u64 [a2 + 480] = 0\n  6764: u64 [a2 + 472] = 0\n  6768: u64 [a2 + 456] = 0x2b\n  6773: a1 = s1 + 0x1a20\n  6777: u64 [a2 + 464] = 0\n  6781: ra = 256, jump @4\n      : @291 [@dyn 128] (gas: 1)\n  6787: t0 = 258, jump @996\n      : @292 [@dyn 129] (gas: 1)\n  6793: jump @294 if a0 != 0\n      : @293 (gas: 1)\n  6796: jump @533\n      : @294 (gas: 14)\n  6799: i32 a0 = a1 + 0x44\n  6802: a1 = u64 [0x200a8]\n  6807: u64 [s1 + 0xc0] = a2\n  6811: a5 = s1 + 0x1858\n  6815: a4 = a5 + 0x100\n  6819: u64 [a4 + 0xc0] = a1\n  6823: a1 = u64 [0x200b0]\n  6828: a2 = u64 [0x200d0]\n  6833: a3 = u64 [0x200d8]\n  6838: u64 [a4 + 0xb8] = a1\n  6842: u64 [a4 + 0xb0] = a2\n  6846: a1 = s1 + 0x1a00\n  6850: u64 [a4 + 0xa8] = a3\n  6854: ra = 260, jump @4\n      : @295 [@dyn 130] (gas: 1)\n  6860: t0 = 262, jump @995\n      : @296 [@dyn 131] (gas: 1)\n  6866: jump @298 if a0 != 0\n      : @297 (gas: 1)\n  6869: jump @533\n      : @298 (gas: 11)\n  6872: i32 a0 = a2 + 0x64\n  6875: a1 = u64 [0x200e0]\n  6880: a3 = s1 + 0x1858\n  6884: u64 [a3 + 400] = 0\n  6888: u64 [a3 + 0x1a0] = a1\n  6892: a1 = 0x65726f0000000000\n  6902: u64 [a3 + 0x198] = a1\n  6906: a1 = s1 + 0x19e0\n  6910: u64 [a3 + 392] = 0\n  6914: ra = 0x216\n  6918: jump @4\n      : @299 (gas: 10)\n  6921: u64 [a3 + 320] = 0\n  6925: u64 [a3 + 312] = 0\n  6929: u64 [a3 + 304] = 0\n  6933: u64 [a3 + 296] = 0\n  6937: a0 = s1 + 0x3000\n  6941: i32 a0 = a0 + 0xfffffffffffff980\n  6945: ra = 0x108\n  6949: ecalli 15 // 'value_transferred'\n  6951: t0 = 0x10a\n  6955: jump @1024\n      : @300 [@dyn 132] (gas: 1)\n  6958: t0 = 266, jump @1024\n      : @301 [@dyn 133] (gas: 8)\n  6964: a0 = u64 [a4 + 0x38]\n  6967: a1 = u64 [a4 + 0x40]\n  6970: a2 = u64 [a4 + 0x30]\n  6973: a3 = u64 [a4 + 0x28]\n  6976: a1 = a1 | a2\n  6979: a0 = a0 | a3\n  6982: a0 = a0 | a1\n  6985: jump @303 if a0 == 0\n      : @302 (gas: 1)\n  6988: jump @842\n      : @303 (gas: 3)\n  6991: a0 = u64 [s1 + 0xd8]\n  6995: a0 = i32 [a0]\n  6997: jump @305 if a0 >u 3\n      : @304 (gas: 1)\n  7001: jump @843\n      : @305 (gas: 8)\n  7004: a1 = s1 + 0x2858\n  7008: u64 [a1 + 352] = 0\n  7012: u64 [a1 + 344] = 0\n  7016: u64 [a1 + 336] = 0\n  7020: u64 [a1 + 328] = 0x1\n  7025: a0 = s1 + 0x19c0\n  7029: a1 = s1 + 0x29a0\n  7033: ra = 268, jump @6\n      : @306 [@dyn 134] (gas: 3)\n  7039: t0 = 0x10e\n  7043: a1 = s1 + 0x1858\n  7047: fallthrough\n      : @307 [@dyn 135] (gas: 10)\n  7048: a2 = a1 + 0x100\n  7052: a0 = u64 [a2 + 0x78]\n  7055: u64 [s1 + 0xc8] = a0\n  7059: a0 = u64 [a2 + 0x70]\n  7062: u64 [s1 + 0xd8] = a0\n  7066: a0 = u64 [a2 + 0x68]\n  7069: u64 [s1 + 0xd0] = a0\n  7073: a0 = s1 + 0x19a0\n  7077: a1 = 0x40\n  7080: ra = 272, jump @2\n      : @308 [@dyn 136] (gas: 7)\n  7086: a3 = s1 + 0x1858\n  7090: a5 = a3 + 0x100\n  7094: a4 = u64 [a5 + 0x60]\n  7097: a1 = u64 [a5 + 0x58]\n  7100: a2 = u64 [a5 + 0x50]\n  7103: a0 = u64 [a5 + 0x48]\n  7106: t0 = 274, jump @1017\n      : @309 [@dyn 137] (gas: 1)\n  7112: jump @311 if a1 == 0\n      : @310 (gas: 1)\n  7115: jump @533\n      : @311 (gas: 14)\n  7118: a1 = u64 [s1 + 0xc8]\n  7122: a1 = a1 << 0x20\n  7125: a2 = a1 >> 0x20\n  7128: u64 [a3 + 320] = 0\n  7132: a1 = u64 [s1 + 0xd0]\n  7136: a4 = a3 + 0x100\n  7140: u64 [a4 + 0x28] = a1\n  7143: a1 = u64 [s1 + 0xd8]\n  7147: u64 [a4 + 0x30] = a1\n  7150: a1 = s1 + 0x1980\n  7154: u64 [a4 + 0x38] = a2\n  7157: u64 [s1 + 0xd8] = a0\n  7161: ra = 0x154\n  7165: jump @4\n      : @312 (gas: 8)\n  7168: u64 [a2 + 1376] = 0\n  7172: u64 [a2 + 1368] = 0\n  7176: u64 [a2 + 1360] = 0\n  7180: u64 [a2 + 1352] = 0\n  7184: a0 = s1 + 0x2000\n  7188: i32 a0 = a0 + 0x5a0\n  7192: ecalli 15 // 'value_transferred'\n  7194: fallthrough\n      : @313 (gas: 10)\n  7195: a3 = s1 + 0x2058\n  7199: a4 = a3 + 0x500\n  7203: a0 = u64 [a4 + 0x58]\n  7206: a1 = u64 [a4 + 0x60]\n  7209: a2 = u64 [a4 + 0x50]\n  7212: a3 = u64 [a4 + 0x48]\n  7215: a1 = a1 | a2\n  7218: a0 = a0 | a3\n  7221: a0 = a0 | a1\n  7224: jump @315 if a0 == 0\n      : @314 (gas: 1)\n  7227: jump @844\n      : @315 (gas: 3)\n  7230: a0 = u64 [s1 + 0xd8]\n  7234: a0 = i32 [a0]\n  7236: jump @317 if a0 >u 35\n      : @316 (gas: 1)\n  7240: jump @845\n      : @317 (gas: 22)\n  7243: a0 = s1 + 0x2000\n  7247: i32 a0 = a0 + 0x5c0\n  7251: a1 = 0x4\n  7254: ecalli 3 // 'call_data_load'\n  7256: a0 = s1 + 0x2058\n  7260: a2 = a0 + 0x500\n  7264: a1 = u64 [a2 + 0x80]\n  7268: u64 [s1 + 0x58] = a1\n  7271: a1 = u64 [a2 + 0x78]\n  7274: u64 [s1 + 0x50] = a1\n  7277: a1 = u64 [a2 + 0x70]\n  7280: u64 [s1 + 0x48] = a1\n  7283: a0 = u64 [a2 + 0x68]\n  7286: u64 [s1 + 0x40] = a0\n  7289: a0 = 0x30250\n  7294: u64 [s1 + 0x60] = a0\n  7297: i32 a0 = a0 + 0\n  7299: u64 [s1 + 0x38] = a0\n  7302: ra = 0x114\n  7306: ecalli 5 // 'caller'\n  7308: t0 = 0x116\n  7312: jump @998\n      : @318 [@dyn 138] (gas: 1)\n  7315: t0 = 278, jump @998\n      : @319 [@dyn 139] (gas: 8)\n  7321: u64 [a2 + 576] = 0\n  7325: a4 = a2 + 0x200\n  7329: u64 [a4 + 0x38] = a1\n  7332: u64 [a4 + 0x30] = a0\n  7335: a1 = s1 + 0x1280\n  7339: u64 [a4 + 0x28] = a3\n  7342: a0 = 0\n  7344: ra = 280, jump @4\n      : @320 [@dyn 140] (gas: 9)\n  7350: a1 = s1 + 0x1058\n  7354: u64 [a1 + 544] = 0\n  7358: u64 [a1 + 536] = 0\n  7362: u64 [a1 + 520] = 0x5\n  7367: a2 = a1\n  7369: a0 = 0x20\n  7372: a1 = s1 + 0x1260\n  7376: u64 [a2 + 528] = 0\n  7380: ra = 282, jump @4\n      : @321 [@dyn 141] (gas: 8)\n  7386: a0 = sp + 0xffffffffffffffe0\n  7389: a0 = a0 & 0xffffffffffffffe0\n  7392: u64 [s1 + 0xd0] = a0\n  7396: sp = a0\n  7398: a2 = 0x2023c\n  7403: a0 = i32 [0x2023c]\n  7408: a1 = 0x3f\n  7411: jump @323 if a1 <u a0\n      : @322 (gas: 4)\n  7414: u32 [0x2023c] = 0x40\n  7420: u64 [s1 + 0x28] = a2\n  7423: t0 = 0x11c\n  7427: jump @1027\n      : @323 (gas: 2)\n  7430: u64 [s1 + 0x28] = a2\n  7433: t0 = 284, jump @1027\n      : @324 [@dyn 142] (gas: 9)\n  7439: a0 = 0x20250\n  7444: i32 a0 = a0 + 0\n  7446: i32 a2 = a2 + 0\n  7448: a1 = 0x40\n  7451: u64 [s1 + 0x30] = a0\n  7454: ra = 0x11e\n  7458: ecalli 8 // 'hash_keccak_256'\n  7460: t0 = 0x120\n  7464: jump @1006\n      : @325 [@dyn 143] (gas: 1)\n  7467: t0 = 288, jump @1006\n      : @326 [@dyn 144] (gas: 3)\n  7473: a0 = s1 + 0x1240\n  7477: a1 = 0x40\n  7480: ra = 290, jump @2\n      : @327 [@dyn 145] (gas: 16)\n  7486: a1 = s1 + 0x1058\n  7490: a0 = u64 [a1 + 0x200]\n  7494: u64 [s1 + 0xc0] = a0\n  7498: a5 = a1 + 0x100\n  7502: a2 = u64 [a5 + 0xf8]\n  7506: u64 [s1 + 0xb8] = a2\n  7510: a4 = u64 [a5 + 0xf0]\n  7514: u64 [s1 + 0xc8] = a4\n  7518: a3 = u64 [a5 + 0xe8]\n  7522: u64 [s1 + 0xd8] = a3\n  7526: u64 [a5 + 0xe0] = a0\n  7530: u64 [a5 + 0xd8] = a2\n  7534: u64 [a5 + 0xd0] = a4\n  7538: a0 = s1 + 0x1220\n  7542: u64 [a5 + 0xc8] = a3\n  7546: ra = 292, jump @923\n      : @328 [@dyn 146] (gas: 3)\n  7552: a0 = s1 + 0x1200\n  7556: a1 = u64 [s1 + 0xd0]\n  7560: ra = 294, jump @6\n      : @329 [@dyn 147] (gas: 1)\n  7566: t0 = 296, jump @1011\n      : @330 [@dyn 148] (gas: 1)\n  7572: jump @332 if a0 == 0\n      : @331 (gas: 1)\n  7575: jump @533\n      : @332 (gas: 13)\n  7578: a4 = s1 + 0x1058\n  7582: a5 = a4 + 0x100\n  7586: a0 = u64 [a5 + 0xc0]\n  7590: a1 = u64 [a5 + 0xb8]\n  7594: a2 = u64 [a5 + 0xb0]\n  7598: a3 = u64 [a5 + 0xa8]\n  7602: u64 [a5 + 0x88] = a3\n  7606: u64 [a5 + 0x90] = a2\n  7610: u64 [a5 + 0x98] = a1\n  7614: a1 = s1 + 0x11e0\n  7618: u64 [a5 + 0xa0] = a0\n  7622: a0 = u64 [s1 + 0xd8]\n  7626: ra = 298, jump @4\n      : @333 [@dyn 149] (gas: 1)\n  7632: t0 = 300, jump @1012\n      : @334 [@dyn 150] (gas: 9)\n  7638: a4 = s1 + 0x2058\n  7642: a5 = a4 + 0x500\n  7646: u64 [a5 + 0x90] = a1\n  7650: u64 [a5 + 0x88] = a0\n  7654: u64 [a5 + 0x98] = a2\n  7658: u64 [a5 + 0xa0] = a3\n  7662: a0 = s1 + 0x11c0\n  7666: a1 = s1 + 0x25e0\n  7670: ra = 302, jump @6\n      : @335 [@dyn 151] (gas: 1)\n  7676: t0 = 304, jump @1003\n      : @336 [@dyn 152] (gas: 1)\n  7682: jump @338 if a0 != 0\n      : @337 (gas: 1)\n  7685: jump @533\n      : @338 (gas: 16)\n  7688: a5 = s1 + 0x1058\n  7692: u64 [s1 + 0xd0] = a2\n  7696: t0 = u64 [a5 + 0x180]\n  7700: a2 = a5 + 0x100\n  7704: a1 = u64 [a2 + 0x78]\n  7707: u64 [s1 + 0xc0] = a3\n  7711: a3 = u64 [a2 + 0x70]\n  7714: a4 = u64 [a2 + 0x68]\n  7717: a0 = u64 [s1 + 0xd8]\n  7721: i32 a0 = a0 + 0x20\n  7724: u64 [a2 + 0x48] = a4\n  7727: u64 [a2 + 0x50] = a3\n  7730: u64 [a2 + 0x58] = a1\n  7733: a1 = s1 + 0x11a0\n  7737: u64 [a5 + 0x160] = t0\n  7741: ra = 306, jump @4\n      : @339 [@dyn 153] (gas: 1)\n  7747: t0 = 308, jump @1009\n      : @340 [@dyn 154] (gas: 9)\n  7753: a4 = s1 + 0x2058\n  7757: a5 = a4 + 0x500\n  7761: u64 [a5 + 0xb0] = a2\n  7765: u64 [a5 + 0xa8] = a0\n  7769: u64 [a5 + 0xb8] = a3\n  7773: u64 [a5 + 0xc0] = a1\n  7777: a0 = s1 + 0x1180\n  7781: a1 = s1 + 0x2600\n  7785: ra = 310, jump @6\n      : @341 [@dyn 155] (gas: 1)\n  7791: t0 = 312, jump @1019\n      : @342 [@dyn 156] (gas: 1)\n  7797: jump @344 if a0 != 0\n      : @343 (gas: 1)\n  7800: jump @533\n      : @344 (gas: 13)\n  7803: a2 = s1 + 0x1058\n  7807: a0 = u64 [a2 + 0x128]\n  7811: a0 = a0 & 0xff\n  7815: u64 [s1 + 0xd0] = a0\n  7819: a1 = a0 >u 0\n  7821: a0 = u64 [s1 + 0xd8]\n  7825: i32 a0 = a0 + 0x40\n  7828: u64 [a2 + 288] = 0\n  7832: u64 [a2 + 280] = 0\n  7836: u64 [a2 + 0x108] = a1\n  7840: a1 = s1 + 0x1160\n  7844: u64 [a2 + 272] = 0\n  7848: ra = 314, jump @4\n      : @345 [@dyn 157] (gas: 2)\n  7854: a0 = u64 [s1 + 0xd0]\n  7858: jump @347 if a0 != 0\n      : @346 (gas: 1)\n  7861: jump @593\n      : @347 (gas: 4)\n  7864: a0 = s1 + 0x7ff\n  7868: a0 = a0 + 0x281\n  7872: a1 = 0x40\n  7875: ra = 316, jump @2\n      : @348 [@dyn 158] (gas: 15)\n  7881: a2 = s1 + 0x7ff\n  7885: a2 = a2 + 0x59\n  7888: t0 = u64 [a2 + 0x240]\n  7892: a1 = a2 + 0x200\n  7896: a5 = u64 [a1 + 0x38]\n  7899: a4 = u64 [a1 + 0x30]\n  7902: a0 = u64 [a1 + 0x28]\n  7905: a3 = a4 | t0\n  7908: a1 = a0 | a5\n  7911: a1 = a1 | a3\n  7914: a1 = a1 >> 0x20\n  7917: a3 = a3 | a5\n  7920: a3 = a3 << 0x20\n  7923: a1 = a1 | a3\n  7926: jump @350 if a1 == 0\n      : @349 (gas: 1)\n  7929: jump @533\n      : @350 (gas: 12)\n  7932: u64 [a2 + 536] = 0\n  7936: u64 [a2 + 528] = 0\n  7940: u64 [a2 + 520] = 0\n  7944: a3 = 0x8c379a000000000\n  7954: a1 = s1 + 0x7ff\n  7958: a1 = a1 + 0x261\n  7962: u64 [a2 + 0x220] = a3\n  7966: u64 [s1 + 0xd8] = a0\n  7970: u64 [s1 + 0xd0] = a4\n  7974: u64 [s1 + 0xc0] = t0\n  7978: u64 [s1 + 0xc8] = a5\n  7982: ra = 318, jump @4\n      : @351 [@dyn 159] (gas: 1)\n  7988: t0 = 320, jump @992\n      : @352 [@dyn 160] (gas: 1)\n  7994: jump @354 if a0 != 0\n      : @353 (gas: 1)\n  7997: jump @533\n      : @354 (gas: 12)\n  8000: i32 a0 = a1 + 0x4\n  8003: a2 = s1 + 0x7ff\n  8007: a2 = a2 + 0x59\n  8010: u64 [a2 + 512] = 0\n  8014: u64 [a2 + 504] = 0\n  8018: u64 [a2 + 488] = 0x20\n  8023: a1 = s1 + 0x7ff\n  8027: a1 = a1 + 0x241\n  8031: u64 [a2 + 496] = 0\n  8035: u64 [s1 + 0xc8] = a3\n  8039: u64 [s1 + 0xc0] = a4\n  8043: ra = 322, jump @4\n      : @355 [@dyn 161] (gas: 1)\n  8049: t0 = 324, jump @994\n      : @356 [@dyn 162] (gas: 1)\n  8055: jump @358 if a0 != 0\n      : @357 (gas: 1)\n  8058: jump @533\n      : @358 (gas: 10)\n  8061: i32 a0 = a1 + 0x24\n  8064: a2 = s1 + 0x7ff\n  8068: a2 = a2 + 0x59\n  8071: u64 [a2 + 480] = 0\n  8075: u64 [a2 + 472] = 0\n  8079: u64 [a2 + 456] = 0x22\n  8084: a1 = s1 + 0x7ff\n  8088: a1 = a1 + 0x221\n  8092: u64 [a2 + 464] = 0\n  8096: ra = 326, jump @4\n      : @359 [@dyn 163] (gas: 1)\n  8102: t0 = 328, jump @996\n      : @360 [@dyn 164] (gas: 1)\n  8108: jump @362 if a0 != 0\n      : @361 (gas: 1)\n  8111: jump @533\n      : @362 (gas: 16)\n  8114: i32 a0 = a1 + 0x44\n  8117: a1 = u64 [0x201b8]\n  8122: u64 [s1 + 0xc0] = a2\n  8126: a5 = s1 + 0x7ff\n  8130: a5 = a5 + 0x59\n  8133: a4 = a5 + 0x100\n  8137: u64 [a4 + 0xc0] = a1\n  8141: a1 = u64 [0x201c0]\n  8146: a2 = u64 [0x201c8]\n  8151: a3 = u64 [0x201d0]\n  8156: u64 [a4 + 0xb8] = a1\n  8160: u64 [a4 + 0xb0] = a2\n  8164: a1 = s1 + 0x7ff\n  8168: a1 = a1 + 0x201\n  8172: u64 [a4 + 0xa8] = a3\n  8176: ra = 330, jump @4\n      : @363 [@dyn 165] (gas: 1)\n  8182: t0 = 332, jump @995\n      : @364 [@dyn 166] (gas: 1)\n  8188: jump @366 if a0 != 0\n      : @365 (gas: 1)\n  8191: jump @533\n      : @366 (gas: 12)\n  8194: i32 a0 = a2 + 0x64\n  8197: a3 = s1 + 0x7ff\n  8201: a3 = a3 + 0x59\n  8204: u64 [a3 + 408] = 0\n  8208: u64 [a3 + 400] = 0\n  8212: a1 = 0x7374000000000000\n  8222: u64 [a3 + 0x1a0] = a1\n  8226: a1 = s1 + 0x7ff\n  8230: a1 = a1 + 0x1e1\n  8234: u64 [a3 + 392] = 0\n  8238: ra = 0x216\n  8242: jump @4\n      : @367 (gas: 8)\n  8245: u64 [a2 + 1984] = 0\n  8249: u64 [a2 + 1976] = 0\n  8253: u64 [a2 + 1968] = 0\n  8257: u64 [a2 + 1960] = 0\n  8261: a0 = s1 + 0x3000\n  8265: i32 a0 = a0 + 0xfffffffffffff800\n  8269: ecalli 15 // 'value_transferred'\n  8271: fallthrough\n      : @368 (gas: 11)\n  8272: a3 = s1 + 0x2058\n  8276: a5 = a3 + 0x700\n  8280: a0 = u64 [a5 + 0xb8]\n  8284: a1 = u64 [a5 + 0xc0]\n  8288: a2 = u64 [a5 + 0xb0]\n  8292: a4 = a3\n  8294: a3 = u64 [a5 + 0xa8]\n  8298: a1 = a1 | a2\n  8301: a0 = a0 | a3\n  8304: a0 = a0 | a1\n  8307: jump @370 if a0 == 0\n      : @369 (gas: 1)\n  8310: jump @846\n      : @370 (gas: 3)\n  8313: a0 = u64 [s1 + 0xd8]\n  8317: a0 = i32 [a0]\n  8319: jump @372 if a0 >u 3\n      : @371 (gas: 1)\n  8323: jump @847\n      : @372 (gas: 7)\n  8326: u64 [a4 + 2016] = 0\n  8330: u64 [a4 + 2008] = 0\n  8334: u64 [a4 + 2000] = 0\n  8338: u64 [a4 + 1992] = 0x2\n  8343: a0 = s1 + 0x1340\n  8347: a1 = s1 + 0x2820\n  8351: ra = 334, jump @6\n      : @373 [@dyn 167] (gas: 11)\n  8357: a1 = s1 + 0x1058\n  8361: a2 = a1 + 0x200\n  8365: a0 = u64 [a2 + 0xf8]\n  8369: u64 [s1 + 0xc8] = a0\n  8373: a0 = u64 [a2 + 0xf0]\n  8377: u64 [s1 + 0xd8] = a0\n  8381: a0 = u64 [a2 + 0xe8]\n  8385: u64 [s1 + 0xd0] = a0\n  8389: a0 = s1 + 0x1320\n  8393: a1 = 0x40\n  8396: ra = 336, jump @2\n      : @374 [@dyn 168] (gas: 7)\n  8402: a3 = s1 + 0x1058\n  8406: a5 = a3 + 0x200\n  8410: a4 = u64 [a5 + 0xe0]\n  8414: a1 = u64 [a5 + 0xd8]\n  8418: a2 = u64 [a5 + 0xd0]\n  8422: a0 = u64 [a5 + 0xc8]\n  8426: t0 = 338, jump @1017\n      : @375 [@dyn 169] (gas: 1)\n  8432: jump @377 if a1 == 0\n      : @376 (gas: 1)\n  8435: jump @533\n      : @377 (gas: 13)\n  8438: a1 = u64 [s1 + 0xc8]\n  8442: a1 = a1 << 0x20\n  8445: a2 = a1 >> 0x20\n  8448: u64 [a3 + 704] = 0\n  8452: a1 = u64 [s1 + 0xd0]\n  8456: a4 = a3 + 0x200\n  8460: u64 [a4 + 0xa8] = a1\n  8464: a1 = u64 [s1 + 0xd8]\n  8468: u64 [a4 + 0xb0] = a1\n  8472: a1 = s1 + 0x1300\n  8476: u64 [a4 + 0xb8] = a2\n  8480: u64 [s1 + 0xd8] = a0\n  8484: ra = 340, jump @4\n      : @378 [@dyn 170] (gas: 3)\n  8490: a1 = 0x20\n  8493: a0 = u64 [s1 + 0xd8]\n  8497: ra = 342, jump @16\n      : @379 [@dyn 171] (gas: 5)\n  8503: i32 a1 = a0 + 0\n  8505: a2 = 0x20\n  8508: a0 = 0\n  8510: ecalli 12 // 'seal_return'\n  8512: jump @381\n      : @380 (gas: 4)\n  8514: a2 = 0x20\n  8517: a0 = 0\n  8519: ecalli 12 // 'seal_return'\n  8521: fallthrough\n      : @381 (gas: 13)\n  8522: u64 [s1 + 0xb0] = a5\n  8526: u64 [s1 + 0xb8] = a4\n  8530: u64 [s1 + 0xc0] = a3\n  8534: u64 [s1 + 0xc8] = a2\n  8538: a0 = 0x30250\n  8543: u64 [s1 + 0xd8] = a0\n  8547: i32 a0 = a0 + 0\n  8549: u64 [s1 + 0xa8] = a0\n  8553: ra = 0x158\n  8557: ecalli 5 // 'caller'\n  8559: a2 = u64 [s1 + 0xd8]\n  8563: t0 = 0x15a\n  8567: jump @999\n      : @382 [@dyn 172] (gas: 2)\n  8570: a2 = u64 [s1 + 0xd8]\n  8574: t0 = 346, jump @999\n      : @383 [@dyn 173] (gas: 8)\n  8580: u64 [a2 + 1824] = 0\n  8584: a4 = a2 + 0x700\n  8588: u64 [a4 + 0x18] = a1\n  8591: u64 [a4 + 0x10] = a0\n  8594: a1 = s1 + 0x1f60\n  8598: u64 [a4 + 0x8] = a3\n  8601: a0 = 0\n  8603: ra = 348, jump @4\n      : @384 [@dyn 174] (gas: 3)\n  8609: t0 = 0x15e\n  8613: a1 = s1 + 0x1858\n  8617: fallthrough\n      : @385 [@dyn 175] (gas: 8)\n  8618: u64 [a1 + 1792] = 0\n  8622: u64 [a1 + 1784] = 0\n  8626: u64 [a1 + 1768] = 0x4\n  8631: a2 = a1\n  8633: a0 = 0x20\n  8636: a1 = s1 + 0x1f40\n  8640: u64 [a2 + 1776] = 0\n  8644: ra = 352, jump @4\n      : @386 [@dyn 176] (gas: 6)\n  8650: a0 = sp + 0xffffffffffffffe0\n  8653: a0 = a0 & 0xffffffffffffffe0\n  8656: u64 [s1 + 0xd0] = a0\n  8660: sp = a0\n  8662: a1 = i32 [0x2023c]\n  8667: jump @388 if a1 >u 63\n      : @387 (gas: 2)\n  8671: u32 [0x2023c] = 0x40\n  8677: fallthrough\n      : @388 (gas: 26)\n  8678: a0 = sp + 0xffffffffffffffe0\n  8681: a2 = a0 & 0xffffffffffffffe0\n  8684: u64 [s1 + 0xa0] = a2\n  8688: sp = a2\n  8690: a0 = 0x20250\n  8695: i32 a0 = a0 + 0\n  8697: i32 a2 = a2 + 0\n  8699: a1 = 0x40\n  8702: u64 [s1 + 0x68] = a0\n  8705: ecalli 8 // 'hash_keccak_256'\n  8707: a3 = u64 [s1 + 0xa0]\n  8711: a0 = u64 [a3 + 0x18]\n  8714: a1 = u64 [a3 + 0x10]\n  8717: a2 = u64 [a3 + 0x8]\n  8720: a3 = u64 [a3]\n  8722: a0 = reverse a0\n  8724: a4 = reverse a1\n  8726: a2 = reverse a2\n  8728: a3 = reverse a3\n  8730: a1 = u64 [s1 + 0xd0]\n  8734: u64 [a1 + 0x18] = a3\n  8737: u64 [a1 + 0x10] = a2\n  8740: u64 [a1 + 0x8] = a4\n  8743: u64 [a1] = a0\n  8745: a0 = s1 + 0x1f20\n  8749: ra = 354, jump @6\n      : @389 [@dyn 177] (gas: 22)\n  8755: a5 = s1 + 0x1858\n  8759: a3 = u64 [a5 + 0x6c8]\n  8763: a0 = u64 [a5 + 0x6d0]\n  8767: a1 = u64 [a5 + 0x6d8]\n  8771: a2 = u64 [a5 + 0x6e0]\n  8775: a4 = u64 [s1 + 0xc8]\n  8779: u64 [a5 + 0x680] = a4\n  8783: a4 = u64 [s1 + 0xc0]\n  8787: u64 [a5 + 0x678] = a4\n  8791: a4 = u64 [s1 + 0xb8]\n  8795: u64 [a5 + 0x670] = a4\n  8799: a4 = u64 [s1 + 0xb0]\n  8803: u64 [a5 + 0x668] = a4\n  8807: a4 = a5 + 0x600\n  8811: u64 [a4 + 0xa0] = a2\n  8815: u64 [a4 + 0x98] = a1\n  8819: u64 [a4 + 0x90] = a0\n  8823: a0 = s1 + 0x1f00\n  8827: a1 = s1 + 0x1ee0\n  8831: a2 = s1 + 0x1ec0\n  8835: u64 [a4 + 0x88] = a3\n  8839: ra = 356, jump @963\n      : @390 [@dyn 178] (gas: 15)\n  8845: a3 = s1 + 0x1858\n  8849: a4 = a3 + 0x600\n  8853: a0 = u64 [a4 + 0xc0]\n  8857: a1 = u64 [a4 + 0xb8]\n  8861: a2 = u64 [a4 + 0xb0]\n  8865: a3 = u64 [a4 + 0xa8]\n  8869: a4 = s1 + 0x2858\n  8873: a5 = a4 + 0x200\n  8877: u64 [a5 + 0x20] = a0\n  8880: u64 [a5 + 0x18] = a1\n  8883: u64 [a5 + 0x10] = a2\n  8886: u64 [a5 + 0x8] = a3\n  8889: a1 = s1 + 0x2a60\n  8893: a0 = u64 [s1 + 0xd0]\n  8897: ra = 358, jump @7\n      : @391 [@dyn 179] (gas: 9)\n  8903: a0 = s1 + 0x2858\n  8907: u64 [a0 + 576] = 0\n  8911: u64 [a0 + 568] = 0\n  8915: u64 [a0 + 560] = 0\n  8919: a1 = a0\n  8921: u64 [a1 + 552] = 0x1\n  8926: a0 = s1 + 0x1ea0\n  8930: a1 = s1 + 0x2a80\n  8934: ra = 360, jump @6\n      : @392 [@dyn 180] (gas: 3)\n  8940: t0 = 0x16a\n  8944: a1 = s1 + 0x1858\n  8948: fallthrough\n      : @393 [@dyn 181] (gas: 10)\n  8949: a2 = a1 + 0x600\n  8953: a0 = u64 [a2 + 0x58]\n  8956: u64 [s1 + 0x80] = a0\n  8960: a0 = u64 [a2 + 0x50]\n  8963: u64 [s1 + 0x78] = a0\n  8966: a0 = u64 [a2 + 0x48]\n  8969: u64 [s1 + 0x88] = a0\n  8973: a0 = s1 + 0x1e80\n  8977: a1 = 0x40\n  8980: ra = 364, jump @2\n      : @394 [@dyn 182] (gas: 14)\n  8986: a2 = s1 + 0x1858\n  8990: t0 = u64 [a2 + 0x640]\n  8994: a1 = a2 + 0x600\n  8998: a5 = u64 [a1 + 0x38]\n  9001: a4 = u64 [a1 + 0x30]\n  9004: a0 = u64 [a1 + 0x28]\n  9007: a3 = a4 | t0\n  9010: a1 = a0 | a5\n  9013: a1 = a1 | a3\n  9016: a1 = a1 >> 0x20\n  9019: a3 = a3 | a5\n  9022: a3 = a3 << 0x20\n  9025: a1 = a1 | a3\n  9028: jump @396 if a1 == 0\n      : @395 (gas: 1)\n  9031: jump @533\n      : @396 (gas: 11)\n  9034: u64 [a2 + 1560] = 0\n  9038: u64 [a2 + 1552] = 0\n  9042: u64 [a2 + 1544] = 0\n  9046: a3 = 0x23b872dd00000000\n  9056: a1 = s1 + 0x1e60\n  9060: u64 [a2 + 0x620] = a3\n  9064: u64 [s1 + 0xd0] = a0\n  9068: u64 [s1 + 0xa0] = a4\n  9072: u64 [s1 + 0x98] = a5\n  9076: u64 [s1 + 0x90] = t0\n  9080: ra = 366, jump @4\n      : @397 [@dyn 183] (gas: 6)\n  9086: a0 = u64 [s1 + 0xa8]\n  9090: ra = 0x170\n  9094: ecalli 0 // 'address'\n  9095: a2 = u64 [s1 + 0xd8]\n  9099: t0 = 0x172\n  9103: jump @1010\n      : @398 [@dyn 184] (gas: 2)\n  9106: a2 = u64 [s1 + 0xd8]\n  9110: t0 = 370, jump @1010\n      : @399 [@dyn 185] (gas: 14)\n  9116: u64 [s1 + 0x70] = a1\n  9119: a0 = a0 >> 0x20\n  9122: a1 = reverse a2\n  9124: a2 = a1 << 0x20\n  9127: a0 = a0 | a2\n  9130: u64 [s1 + 0x60] = a0\n  9133: a1 = a1 >> 0x20\n  9136: u64 [s1 + 0x58] = a1\n  9139: a0 = u64 [s1 + 0xa8]\n  9143: ra = 0x174\n  9147: ecalli 5 // 'caller'\n  9149: a2 = u64 [s1 + 0xd8]\n  9153: t0 = 0x176\n  9157: jump @997\n      : @400 [@dyn 186] (gas: 2)\n  9160: a2 = u64 [s1 + 0xd8]\n  9164: t0 = 374, jump @997\n      : @401 [@dyn 187] (gas: 50)\n  9170: t0 = a1 | a0\n  9173: a3 = a3 >> 0x20\n  9176: a2 = reverse a2\n  9178: a1 = a2 << 0x20\n  9181: t1 = a1 | a3\n  9184: t2 = a2 >> 0x20\n  9187: a0 = u64 [s1 + 0xd0]\n  9191: a3 = a0 + 0x4\n  9194: a5 = a3 <u a0\n  9197: a0 = u64 [s1 + 0xa0]\n  9201: a4 = a0 + a5\n  9204: a0 = a4 <u a0\n  9207: a0 = a5 if a5 == 0\n  9210: a1 = u64 [s1 + 0x98]\n  9214: a0 = a0 + a1\n  9217: a5 = a0 <u a1\n  9220: a1 = u64 [s1 + 0x90]\n  9224: a5 = a5 + a1\n  9227: a1 = s1 + 0x1858\n  9231: a2 = u64 [s1 + 0x58]\n  9234: u64 [a1 + 0x598] = a2\n  9238: a2 = u64 [s1 + 0x60]\n  9241: u64 [a1 + 0x590] = a2\n  9245: a2 = u64 [s1 + 0x70]\n  9248: u64 [a1 + 0x588] = a2\n  9252: a2 = a1 + 0x500\n  9256: u64 [a2 + 0xe0] = a5\n  9260: u64 [a2 + 0xd8] = a0\n  9264: a0 = u64 [s1 + 0xc8]\n  9268: u64 [a2 + 0x80] = a0\n  9272: a0 = u64 [s1 + 0xc0]\n  9276: u64 [a2 + 0x78] = a0\n  9279: a0 = u64 [s1 + 0xb8]\n  9283: u64 [a2 + 0x70] = a0\n  9286: a0 = u64 [s1 + 0xb0]\n  9290: u64 [a2 + 0x68] = a0\n  9293: u64 [a1 + 1440] = 0\n  9297: u64 [a2 + 0xd0] = a4\n  9301: u64 [a2 + 0xc8] = a3\n  9305: u64 [a1 + 0x5b8] = t2\n  9309: u64 [a1 + 0x5b0] = t1\n  9313: u64 [a1 + 0x5a8] = t0\n  9317: a5 = a1\n  9319: a0 = s1 + 0x1e40\n  9323: a1 = s1 + 0x1e20\n  9327: a2 = s1 + 0x1e00\n  9331: a3 = s1 + 0x1de0\n  9335: a4 = s1 + 0x1dc0\n  9339: u64 [a5 + 1472] = 0\n  9343: ra = 376, jump @971\n      : @402 [@dyn 188] (gas: 17)\n  9349: a1 = s1 + 0x1858\n  9353: a0 = u64 [a1 + 0x5f0]\n  9357: t0 = u64 [a1 + 0x600]\n  9361: t1 = u64 [a1 + 0x5e8]\n  9365: a3 = u64 [a1 + 0x5f8]\n  9369: a1 = u64 [s1 + 0xa0]\n  9373: a4 = a0 ^ a1\n  9376: a5 = a0 <u a1\n  9379: ra = u64 [s1 + 0xd0]\n  9383: t2 = t1 <u ra\n  9386: a5 = t2 if a4 == 0\n  9389: a2 = u64 [s1 + 0x98]\n  9393: a4 = a3 - a2\n  9396: a3 = a3 <u a2\n  9399: a2 = u64 [s1 + 0x90]\n  9403: a2 = t0 - a2\n  9406: t0 = 378, jump @1016\n      : @403 [@dyn 189] (gas: 3)\n  9412: u64 [s1 + 0x70] = a0\n  9415: ecalli 9 // 'ref_time_left'\n  9417: fallthrough\n      : @404 (gas: 35)\n  9418: a0 = u64 [s1 + 0x78]\n  9421: a0 = reverse a0\n  9423: a1 = a0 << 0x20\n  9426: a2 = u64 [s1 + 0x80]\n  9430: a2 = reverse a2\n  9432: a2 = a2 >> 0x20\n  9435: a1 = a1 | a2\n  9438: a2 = u64 [s1 + 0x88]\n  9442: a2 = reverse a2\n  9444: a3 = a2 << 0x20\n  9447: a0 = a0 >> 0x20\n  9450: a0 = a0 | a3\n  9453: a3 = u64 [s1 + 0xd8]\n  9457: a2 = a2 >> 0x20\n  9460: u64 [a3 + 0x8] = a0\n  9463: u64 [a3] = a1\n  9465: u32 [a3 + 0x10] = a2\n  9468: a2 = s1 + 0x2858\n  9472: u64 [a2 + 608] = 0\n  9476: u64 [a2 + 600] = 0\n  9480: u64 [a2 + 592] = 0\n  9484: a0 = u64 [s1 + 0x70]\n  9487: t0 = a0\n  9489: a5 = u64 [s1 + 0x58]\n  9492: a0 = a0 | a5\n  9495: a1 = u64 [s1 + 0x60]\n  9498: a4 = u64 [s1 + 0x50]\n  9501: a1 = a1 | a4\n  9504: a0 = a0 | a1\n  9507: a0 = a0 >> 0x20\n  9510: a1 = a1 | a5\n  9513: a1 = a1 << 0x20\n  9516: a0 = a0 | a1\n  9519: u64 [a2 + 584] = 0\n  9523: jump @533 if a0 != 0\n      : @405 (gas: 3)\n  9527: a0 = u64 [s1 + 0xd0]\n  9531: a1 = t0\n  9533: ra = 380, jump @16\n      : @406 [@dyn 190] (gas: 4)\n  9539: u64 [s1 + 0x88] = a0\n  9543: a1 = 0x20\n  9546: a0 = u64 [s1 + 0xd0]\n  9550: ra = 382, jump @16\n      : @407 [@dyn 191] (gas: 34)\n  9556: a2 = s1 + 0x2858\n  9560: a3 = a2 + 0x200\n  9564: u32 [a3 + 104] = 0x20\n  9568: u64 [a3 + 160] = 0xffffffffffffffff\n  9573: u64 [a3 + 152] = 0xffffffffffffffff\n  9578: u64 [a3 + 144] = 0xffffffffffffffff\n  9583: u64 [a3 + 136] = 0xffffffffffffffff\n  9588: a1 = u64 [s1 + 0xd8]\n  9592: a1 = a1 << 0x20\n  9595: a1 = a1 >> 0x20\n  9598: a2 = 0x800000000\n  9608: t0 = a1 | a2\n  9611: a1 = s1 + 0x2aa0\n  9615: a1 = a1 << 0x20\n  9618: a1 = a1 >> 0x20\n  9621: a2 = s1 + 0x2ae0\n  9625: a2 = a2 << 0x20\n  9628: a3 = a2 | a1\n  9631: a1 = u64 [s1 + 0x88]\n  9635: a1 = a1 << 0x20\n  9638: a1 = a1 >> 0x20\n  9641: a4 = u64 [s1 + 0x70]\n  9644: a4 = a4 << 0x20\n  9647: a4 = a4 | a1\n  9650: a0 = a0 << 0x20\n  9653: a0 = a0 >> 0x20\n  9656: a1 = s1 + 0x2ac0\n  9660: a1 = a1 << 0x20\n  9663: a5 = a1 | a0\n  9666: a1 = 0xffffffffffffffff\n  9669: a2 = 0xffffffffffffffff\n  9672: a0 = t0\n  9674: ecalli 1 // 'call'\n  9676: fallthrough\n      : @408 (gas: 1)\n  9677: jump @410 if a0 == 0\n      : @409 (gas: 1)\n  9680: jump @581\n      : @410 (gas: 2)\n  9683: ecalli 11 // 'return_data_size'\n  9685: fallthrough\n      : @411 (gas: 2)\n  9686: a1 = 0x20\n  9689: jump @413 if a0 >=u a1\n      : @412 (gas: 3)\n  9692: ecalli 11 // 'return_data_size'\n  9694: a1 = a0\n  9696: fallthrough\n      : @413 (gas: 18)\n  9697: a2 = s1 + 0x1858\n  9701: t0 = u64 [s1 + 0xd0]\n  9705: a4 = u64 [s1 + 0xa0]\n  9709: a5 = u64 [s1 + 0x98]\n  9713: a3 = u64 [s1 + 0x90]\n  9717: u64 [s1 + 0x80] = a1\n  9721: u64 [s1 + 136] = 0\n  9725: u64 [a2 + 0x508] = a1\n  9729: u64 [a2 + 0x528] = t0\n  9733: u64 [a2 + 1296] = 0\n  9737: u64 [a2 + 0x530] = a4\n  9741: u64 [a2 + 1304] = 0\n  9745: u64 [a2 + 0x538] = a5\n  9749: u64 [a2 + 1312] = 0\n  9753: a0 = s1 + 0x1d80\n  9757: a1 = s1 + 0x1d60\n  9761: u64 [a2 + 0x540] = a3\n  9765: ra = 384, jump @931\n      : @414 [@dyn 192] (gas: 40)\n  9771: t0 = u64 [s1 + 0xd0]\n  9775: a1 = u64 [s1 + 0x80]\n  9779: a0 = a1 + t0\n  9782: a1 = a0 <u a1\n  9785: t1 = u64 [s1 + 0xa0]\n  9789: a5 = u64 [s1 + 0x88]\n  9793: a2 = a5 + t1\n  9796: a2 = a2 + a1\n  9799: a3 = a2 ^ a5\n  9802: a4 = a2 <u a5\n  9805: a4 = a1 if a3 == 0\n  9808: ra = u64 [s1 + 0x98]\n  9812: a1 = a5 + ra\n  9815: a4 = a4 + a1\n  9818: t2 = a4 <u a1\n  9821: a1 = a1 <u a5\n  9824: a3 = u64 [s1 + 0x90]\n  9828: a5 = a5 + a3\n  9831: a1 = a1 + a5\n  9834: t2 = t2 + a1\n  9837: a1 = s1 + 0x1858\n  9841: u64 [a1 + 0x4b8] = a4\n  9845: a1 = s1 + 0x1858\n  9849: u64 [a1 + 0x4b0] = a2\n  9853: a1 = s1 + 0x1858\n  9857: u64 [a1 + 0x4a8] = a0\n  9861: a0 = s1 + 0x1858\n  9865: u64 [a0 + 0x4e0] = a3\n  9869: a0 = s1 + 0x1858\n  9873: u64 [a0 + 0x4d8] = ra\n  9877: a0 = s1 + 0x1858\n  9881: u64 [a0 + 0x4d0] = t1\n  9885: a0 = s1 + 0x1858\n  9889: u64 [a0 + 0x4c8] = t0\n  9893: a0 = s1 + 0x1d40\n  9897: a1 = s1 + 0x1d20\n  9901: a2 = s1 + 0x1d00\n  9905: a4 = s1 + 0x1858\n  9909: u64 [a4 + 0x4c0] = t2\n  9913: ra = 386, jump @948\n      : @415 [@dyn 193] (gas: 3)\n  9919: a0 = s1 + 0x1ce0\n  9923: a1 = 0x40\n  9926: ra = 388, jump @2\n      : @416 [@dyn 194] (gas: 7)\n  9932: a3 = s1 + 0x1858\n  9936: a5 = a3 + 0x400\n  9940: a0 = u64 [a5 + 0xa0]\n  9944: a1 = u64 [a5 + 0x98]\n  9948: a2 = u64 [a5 + 0x90]\n  9952: a4 = u64 [a5 + 0x88]\n  9956: t0 = 390, jump @1008\n      : @417 [@dyn 195] (gas: 1)\n  9962: jump @533 if a0 != 0\n      : @418 (gas: 13)\n  9966: a0 = u64 [s1 + 0xb0]\n  9970: a2 = a3 + 0x400\n  9974: u64 [a2 + 0x68] = a0\n  9977: a0 = u64 [s1 + 0xb8]\n  9981: u64 [a2 + 0x70] = a0\n  9984: a0 = u64 [s1 + 0xc0]\n  9988: u64 [a2 + 0x78] = a0\n  9991: a1 = s1 + 0x1cc0\n  9995: a0 = u64 [s1 + 0xc8]\n  9999: u64 [a2 + 0x80] = a0\n 10003: a0 = a4\n 10005: u64 [s1 + 0xd0] = a4\n 10009: ra = 392, jump @4\n      : @419 [@dyn 196] (gas: 6)\n 10015: a0 = u64 [s1 + 0xa8]\n 10019: ra = 0x18a\n 10023: ecalli 5 // 'caller'\n 10025: a2 = u64 [s1 + 0xd8]\n 10029: t0 = 0x18c\n 10033: jump @997\n      : @420 [@dyn 197] (gas: 2)\n 10036: a2 = u64 [s1 + 0xd8]\n 10040: t0 = 396, jump @997\n      : @421 [@dyn 198] (gas: 25)\n 10046: t0 = a1 | a0\n 10049: a3 = a3 >> 0x20\n 10052: a2 = reverse a2\n 10054: a1 = a2 << 0x20\n 10057: a1 = a1 | a3\n 10060: a2 = a2 >> 0x20\n 10063: a3 = u64 [0x20040]\n 10068: a0 = s1 + 0x1858\n 10072: u64 [a0 + 0x460] = a3\n 10076: a3 = u64 [0x20048]\n 10081: a4 = u64 [0x20050]\n 10086: a5 = u64 [0x20058]\n 10091: u64 [a0 + 0x458] = a3\n 10095: a3 = a0 + 0x400\n 10099: u64 [a3 + 0x50] = a4\n 10102: u64 [a0 + 1088] = 0\n 10106: u64 [a3 + 0x48] = a5\n 10109: u64 [a3 + 0x38] = a2\n 10112: u64 [a3 + 0x30] = a1\n 10115: a1 = 0x20\n 10118: a2 = s1 + 0x1ca0\n 10122: a3 = s1 + 0x1c80\n 10126: u64 [a0 + 0x428] = t0\n 10130: a0 = u64 [s1 + 0xd0]\n 10134: ra = 398, jump @10\n      : @422 [@dyn 199] (gas: 5)\n 10140: a0 = 0\n 10142: a1 = u64 [s1 + 0x68]\n 10145: a2 = 0\n 10147: ecalli 12 // 'seal_return'\n 10149: jump @863\n      : @423 (gas: 13)\n 10152: u64 [s1 + 0xc0] = a5\n 10156: u64 [s1 + 0xa8] = a4\n 10160: u64 [s1 + 0xb0] = a3\n 10164: u64 [s1 + 0xb8] = a2\n 10168: a0 = 0x30250\n 10173: u64 [s1 + 0xd0] = a0\n 10177: i32 a0 = a0 + 0\n 10179: u64 [s1 + 0xa0] = a0\n 10183: ra = 0x190\n 10187: ecalli 5 // 'caller'\n 10189: a2 = u64 [s1 + 0xd0]\n 10193: t0 = 0x192\n 10197: jump @999\n      : @424 [@dyn 200] (gas: 2)\n 10200: a2 = u64 [s1 + 0xd0]\n 10204: t0 = 402, jump @999\n      : @425 [@dyn 201] (gas: 8)\n 10210: u64 [a2 + 288] = 0\n 10214: a4 = a2 + 0x100\n 10218: u64 [a4 + 0x18] = a1\n 10221: u64 [a4 + 0x10] = a0\n 10224: a1 = s1 + 0x1960\n 10228: u64 [a4 + 0x8] = a3\n 10231: a0 = 0\n 10233: ra = 404, jump @4\n      : @426 [@dyn 202] (gas: 3)\n 10239: t0 = 0x196\n 10243: a1 = s1 + 0x1858\n 10247: fallthrough\n      : @427 [@dyn 203] (gas: 8)\n 10248: u64 [a1 + 256] = 0\n 10252: u64 [a1 + 248] = 0\n 10256: u64 [a1 + 232] = 0x5\n 10261: a2 = a1\n 10263: a0 = 0x20\n 10266: a1 = s1 + 0x1940\n 10270: u64 [a2 + 240] = 0\n 10274: ra = 408, jump @4\n      : @428 [@dyn 204] (gas: 7)\n 10280: a0 = sp + 0xffffffffffffffe0\n 10283: a0 = a0 & 0xffffffffffffffe0\n 10286: u64 [s1 + 0xd8] = a0\n 10290: sp = a0\n 10292: a2 = 0x2023c\n 10297: a0 = i32 [0x2023c]\n 10302: jump @430 if a0 >u 63\n      : @429 (gas: 2)\n 10306: u32 [0x2023c] = 0x40\n 10312: fallthrough\n      : @430 (gas: 47)\n 10313: u64 [s1 + 0x90] = a2\n 10317: a0 = sp + 0xffffffffffffffe0\n 10320: a2 = a0 & 0xffffffffffffffe0\n 10323: u64 [s1 + 0xc8] = a2\n 10327: sp = a2\n 10329: a0 = 0x20250\n 10334: i32 a0 = a0 + 0\n 10336: i32 a2 = a2 + 0\n 10338: a1 = 0x40\n 10341: u64 [s1 + 0x98] = a0\n 10345: ecalli 8 // 'hash_keccak_256'\n 10347: a1 = u64 [s1 + 0xc8]\n 10351: a0 = u64 [a1 + 0x18]\n 10354: a2 = u64 [a1 + 0x10]\n 10357: a4 = u64 [a1 + 0x8]\n 10360: a1 = u64 [a1]\n 10362: a3 = reverse a0\n 10364: a2 = reverse a2\n 10366: a4 = reverse a4\n 10368: a5 = reverse a1\n 10370: a0 = u64 [s1 + 0xd8]\n 10374: u64 [a0 + 0x18] = a5\n 10377: u64 [a0 + 0x10] = a4\n 10380: u64 [a0 + 0x8] = a2\n 10383: u64 [a0] = a3\n 10385: a0 = sp + 0xffffffffffffffe0\n 10388: a1 = a0 & 0xffffffffffffffe0\n 10391: sp = a1\n 10393: t0 = a3 + 0x2\n 10396: u64 [s1 + 0x78] = a3\n 10399: a0 = t0 <u a3\n 10402: t1 = a2 + a0\n 10405: u64 [s1 + 0x80] = a2\n 10409: a3 = t1 <u a2\n 10412: a3 = a0 if a0 == 0\n 10415: a3 = a3 + a4\n 10418: u64 [s1 + 0xc8] = a4\n 10422: a0 = a3 <u a4\n 10425: u64 [s1 + 0x88] = a5\n 10429: a0 = a0 + a5\n 10432: u64 [a1 + 0x10] = a3\n 10435: u64 [a1 + 0x8] = t1\n 10438: u64 [a1] = t0\n 10440: u64 [a1 + 0x18] = a0\n 10443: a0 = s1 + 0x1920\n 10447: u64 [s1 + 0x70] = a1\n 10450: ra = 410, jump @6\n      : @431 [@dyn 205] (gas: 4)\n 10456: a2 = s1 + 0x1858\n 10460: a1 = u64 [a2 + 0xc8]\n 10464: a0 = a1 & 0xff\n 10468: jump @506 if a0 != 0\n      : @432 (gas: 3)\n 10472: a0 = s1 + 0x14a0\n 10476: a1 = 0x40\n 10479: ra = 412, jump @2\n      : @433 [@dyn 206] (gas: 14)\n 10485: a2 = s1 + 0x1058\n 10489: t0 = u64 [a2 + 0x460]\n 10493: a1 = a2 + 0x400\n 10497: a5 = u64 [a1 + 0x58]\n 10500: a4 = u64 [a1 + 0x50]\n 10503: a0 = u64 [a1 + 0x48]\n 10506: a3 = a4 | t0\n 10509: a1 = a0 | a5\n 10512: a1 = a1 | a3\n 10515: a1 = a1 >> 0x20\n 10518: a3 = a3 | a5\n 10521: a3 = a3 << 0x20\n 10524: a1 = a1 | a3\n 10527: jump @533 if a1 != 0\n      : @434 (gas: 11)\n 10531: u64 [a2 + 1080] = 0\n 10535: u64 [a2 + 1072] = 0\n 10539: u64 [a2 + 1064] = 0\n 10543: a3 = 0x8c379a000000000\n 10553: a1 = s1 + 0x1480\n 10557: u64 [a2 + 0x440] = a3\n 10561: u64 [s1 + 0xd8] = a0\n 10565: u64 [s1 + 0xd0] = a4\n 10569: u64 [s1 + 0xc0] = t0\n 10573: u64 [s1 + 0xc8] = a5\n 10577: ra = 414, jump @4\n      : @435 [@dyn 207] (gas: 1)\n 10583: t0 = 416, jump @992\n      : @436 [@dyn 208] (gas: 1)\n 10589: jump @533 if a0 == 0\n      : @437 (gas: 1)\n 10593: t0 = 418, jump @1033\n      : @438 [@dyn 209] (gas: 8)\n 10599: u64 [a2 + 1056] = 0\n 10603: u64 [a2 + 1048] = 0\n 10607: u64 [a2 + 1032] = 0x20\n 10612: a1 = s1 + 0x1460\n 10616: u64 [a2 + 1040] = 0\n 10620: u64 [s1 + 0xc8] = a3\n 10624: u64 [s1 + 0xc0] = a4\n 10628: ra = 420, jump @4\n      : @439 [@dyn 210] (gas: 1)\n 10634: t0 = 422, jump @1018\n      : @440 [@dyn 211] (gas: 1)\n 10640: jump @533 if a0 == 0\n      : @441 (gas: 1)\n 10644: t0 = 424, jump @1031\n      : @442 [@dyn 212] (gas: 6)\n 10650: u64 [a2 + 1024] = 0\n 10654: u64 [a2 + 1016] = 0\n 10658: u64 [a2 + 1000] = 0x1d\n 10663: a1 = s1 + 0x1440\n 10667: u64 [a2 + 1008] = 0\n 10671: ra = 426, jump @4\n      : @443 [@dyn 213] (gas: 1)\n 10677: t0 = 428, jump @1015\n      : @444 [@dyn 214] (gas: 1)\n 10683: jump @533 if a0 == 0\n      : @445 (gas: 13)\n 10687: i32 a0 = a3 + 0x44\n 10690: a1 = u64 [0x20128]\n 10695: a2 = u64 [0x20130]\n 10700: a3 = u64 [0x20138]\n 10705: a4 = s1 + 0x1058\n 10709: a5 = a4 + 0x300\n 10713: u64 [a5 + 0xe0] = a1\n 10717: u64 [a5 + 0xd8] = a2\n 10721: u64 [a5 + 0xd0] = a3\n 10725: a2 = 0x2075736572000000\n 10735: a1 = s1 + 0x1420\n 10739: u64 [a5 + 0xc8] = a2\n 10743: ra = 430, jump @4\n      : @446 [@dyn 215] (gas: 3)\n 10749: a1 = 0x64\n 10752: a0 = u64 [s1 + 0xd8]\n 10756: ra = 432, jump @16\n      : @447 [@dyn 216] (gas: 5)\n 10762: i32 a1 = a0 + 0\n 10764: a0 = 0x1\n 10767: a2 = 0x64\n 10770: ecalli 12 // 'seal_return'\n 10772: fallthrough\n      : @448 (gas: 11)\n 10773: u64 [s1 + 0x68] = a5\n 10776: u64 [s1 + 0x78] = a4\n 10779: u64 [s1 + 0x80] = a3\n 10783: u64 [s1 + 0x88] = a2\n 10787: a0 = 0x30250\n 10792: u64 [s1 + 0xb0] = a0\n 10796: i32 a0 = a0 + 0\n 10798: u64 [s1 + 0x70] = a0\n 10801: ra = 0x1b2\n 10805: ecalli 5 // 'caller'\n 10807: fallthrough\n      : @449 [@dyn 217] (gas: 5)\n 10808: a2 = u64 [s1 + 0xb0]\n 10812: a0 = u64 [a2 + 0x8]\n 10815: a1 = i32 [a2 + 0x10]\n 10818: a2 = u64 [a2]\n 10820: t0 = 436, jump @1001\n      : @450 [@dyn 218] (gas: 7)\n 10826: u64 [s1 + 2040] = 0\n 10830: u64 [s1 + 0x7f0] = a1\n 10834: u64 [s1 + 0x7e8] = a0\n 10838: a1 = s1 + 0x7e0\n 10842: u64 [s1 + 0x7e0] = a3\n 10846: a0 = 0\n 10848: ra = 438, jump @4\n      : @451 [@dyn 219] (gas: 7)\n 10854: u64 [s1 + 2008] = 0\n 10858: u64 [s1 + 2000] = 0\n 10862: u64 [s1 + 1984] = 0x5\n 10867: a0 = 0x20\n 10870: a1 = s1 + 0x7c0\n 10874: u64 [s1 + 1992] = 0\n 10878: ra = 440, jump @4\n      : @452 [@dyn 220] (gas: 8)\n 10884: a0 = sp + 0xffffffffffffffe0\n 10887: a0 = a0 & 0xffffffffffffffe0\n 10890: u64 [s1 + 0xd0] = a0\n 10894: sp = a0\n 10896: a2 = 0x2023c\n 10901: a0 = i32 [0x2023c]\n 10906: a1 = 0x3f\n 10909: jump @454 if a1 <u a0\n      : @453 (gas: 4)\n 10912: u32 [0x2023c] = 0x40\n 10918: u64 [s1 + 0x58] = a2\n 10921: t0 = 0x1ba\n 10925: jump @1027\n      : @454 (gas: 2)\n 10928: u64 [s1 + 0x58] = a2\n 10931: t0 = 442, jump @1027\n      : @455 [@dyn 221] (gas: 27)\n 10937: a0 = 0x20250\n 10942: i32 a0 = a0 + 0\n 10944: i32 a2 = a2 + 0\n 10946: a1 = 0x40\n 10949: u64 [s1 + 0x60] = a0\n 10952: ecalli 8 // 'hash_keccak_256'\n 10954: a3 = u64 [s1 + 0xd8]\n 10958: a0 = u64 [a3 + 0x18]\n 10961: a1 = u64 [a3 + 0x10]\n 10964: a2 = u64 [a3 + 0x8]\n 10967: a3 = u64 [a3]\n 10969: a5 = reverse a0\n 10971: a4 = reverse a1\n 10973: a0 = reverse a2\n 10975: a1 = reverse a3\n 10977: u64 [s1 + 0xa0] = a1\n 10981: a2 = u64 [s1 + 0xd0]\n 10985: u64 [a2 + 0x18] = a1\n 10988: u64 [s1 + 0xa8] = a0\n 10992: u64 [a2 + 0x10] = a0\n 10995: u64 [s1 + 0x98] = a4\n 10999: u64 [a2 + 0x8] = a4\n 11002: u64 [s1 + 0x90] = a5\n 11006: u64 [a2] = a5\n 11008: a0 = s1 + 0x7a0\n 11012: a1 = 0x40\n 11015: ra = 444, jump @2\n      : @456 [@dyn 222] (gas: 15)\n 11021: a4 = s1 + 0x700\n 11025: a0 = u64 [a4 + 0xb8]\n 11029: u64 [s1 + 0xc0] = a0\n 11033: a1 = u64 [a4 + 0xb0]\n 11037: u64 [s1 + 0xb8] = a1\n 11041: a3 = u64 [a4 + 0xa8]\n 11045: u64 [s1 + 0xc8] = a3\n 11049: a2 = u64 [a4 + 0xa0]\n 11053: u64 [s1 + 0xd8] = a2\n 11057: u64 [a4 + 0x98] = a0\n 11061: u64 [a4 + 0x90] = a1\n 11065: u64 [a4 + 0x88] = a3\n 11069: a0 = s1 + 0x780\n 11073: u64 [a4 + 0x80] = a2\n 11077: ra = 446, jump @923\n      : @457 [@dyn 223] (gas: 3)\n 11083: a0 = s1 + 0x760\n 11087: a1 = u64 [s1 + 0xd0]\n 11091: ra = 448, jump @6\n      : @458 [@dyn 224] (gas: 1)\n 11097: t0 = 450, jump @1011\n      : @459 [@dyn 225] (gas: 1)\n 11103: jump @533 if a0 != 0\n      : @460 (gas: 12)\n 11107: a4 = s1 + 0x700\n 11111: a0 = u64 [a4 + 0x78]\n 11114: a1 = u64 [a4 + 0x70]\n 11117: a2 = u64 [a4 + 0x68]\n 11120: a3 = u64 [a4 + 0x60]\n 11123: u64 [a4 + 0x40] = a3\n 11126: u64 [a4 + 0x48] = a2\n 11129: u64 [a4 + 0x50] = a1\n 11132: a1 = s1 + 0x740\n 11136: u64 [a4 + 0x58] = a0\n 11139: a0 = u64 [s1 + 0xd8]\n 11143: ra = 452, jump @4\n      : @461 [@dyn 226] (gas: 21)\n 11149: a0 = u64 [s1 + 0x90]\n 11153: a0 = a0 + 0x1\n 11156: a1 = a0 <u 0x1\n 11159: a2 = u64 [s1 + 0x98]\n 11163: a1 = a1 + a2\n 11166: a2 = a0 | a1\n 11169: a2 = a2 <u 0x1\n 11172: a3 = u64 [s1 + 0xa8]\n 11176: a2 = a2 + a3\n 11179: a3 = a2 <u a3\n 11182: a4 = u64 [s1 + 0xa0]\n 11186: a3 = a3 + a4\n 11189: a4 = s1 + 0x2058\n 11193: a5 = a4 + 0x300\n 11197: u64 [a5 + 0x30] = a1\n 11200: u64 [a5 + 0x28] = a0\n 11203: u64 [a5 + 0x38] = a2\n 11206: u64 [a5 + 0x40] = a3\n 11209: a0 = s1 + 0x720\n 11213: a1 = s1 + 0x2380\n 11217: ra = 454, jump @6\n      : @462 [@dyn 227] (gas: 1)\n 11223: t0 = 456, jump @1003\n      : @463 [@dyn 228] (gas: 1)\n 11229: jump @533 if a0 == 0\n      : @464 (gas: 15)\n 11233: u64 [s1 + 0xd0] = a2\n 11237: a5 = s1 + 0x700\n 11241: a2 = u64 [a5 + 0x38]\n 11244: a1 = u64 [a5 + 0x30]\n 11247: u64 [s1 + 0xc0] = a3\n 11251: a3 = u64 [a5 + 0x28]\n 11254: a4 = u64 [a5 + 0x20]\n 11257: a0 = u64 [s1 + 0xd8]\n 11261: i32 a0 = a0 + 0x20\n 11264: u64 [a5] = a4\n 11266: u64 [a5 + 0x8] = a3\n 11269: u64 [a5 + 0x10] = a1\n 11272: a1 = s1 + 0x700\n 11276: u64 [a5 + 0x18] = a2\n 11279: ra = 458, jump @4\n      : @465 [@dyn 229] (gas: 5)\n 11285: a1 = u64 [s1 + 0x90]\n 11289: a0 = a1 + 0x2\n 11292: a1 = a0 <u a1\n 11295: a3 = u64 [s1 + 0x98]\n 11299: t0 = 460, jump @1025\n      : @466 [@dyn 230] (gas: 11)\n 11305: a4 = u64 [s1 + 0xa0]\n 11309: a1 = a1 + a4\n 11312: a4 = s1 + 0x2058\n 11316: a5 = a4 + 0x300\n 11320: u64 [a5 + 0x50] = a2\n 11323: u64 [a5 + 0x48] = a0\n 11326: u64 [a5 + 0x58] = a3\n 11329: u64 [a5 + 0x60] = a1\n 11332: a0 = s1 + 0x6e0\n 11336: a1 = s1 + 0x23a0\n 11340: ra = 462, jump @6\n      : @467 [@dyn 231] (gas: 1)\n 11346: t0 = 464, jump @1019\n      : @468 [@dyn 232] (gas: 1)\n 11352: jump @533 if a0 == 0\n      : @469 (gas: 12)\n 11356: a0 = u64 [s1 + 0x6e0]\n 11360: a0 = a0 & 0xff\n 11364: u64 [s1 + 0xd0] = a0\n 11368: a1 = a0 >u 0\n 11370: a0 = u64 [s1 + 0xd8]\n 11374: i32 a0 = a0 + 0x40\n 11377: u64 [s1 + 1752] = 0\n 11381: u64 [s1 + 1744] = 0\n 11385: u64 [s1 + 0x6c0] = a1\n 11389: a1 = s1 + 0x6c0\n 11393: u64 [s1 + 1736] = 0\n 11397: ra = 466, jump @4\n      : @470 [@dyn 233] (gas: 2)\n 11403: a0 = u64 [s1 + 0xd0]\n 11407: jump @472 if a0 != 0\n      : @471 (gas: 1)\n 11410: jump @609\n      : @472 (gas: 3)\n 11413: a0 = s1 + 0x2c0\n 11417: a1 = 0x40\n 11420: ra = 468, jump @2\n      : @473 [@dyn 234] (gas: 6)\n 11426: a1 = s1 + 0x200\n 11430: a4 = u64 [a1 + 0xd8]\n 11434: a5 = u64 [a1 + 0xd0]\n 11438: a3 = u64 [a1 + 0xc8]\n 11442: a0 = u64 [a1 + 0xc0]\n 11446: t0 = 470, jump @1013\n      : @474 [@dyn 235] (gas: 1)\n 11452: jump @533 if a1 != 0\n      : @475 (gas: 11)\n 11456: u64 [s1 + 688] = 0\n 11460: u64 [s1 + 680] = 0\n 11464: u64 [s1 + 672] = 0\n 11468: a2 = 0x8c379a000000000\n 11478: a1 = s1 + 0x2a0\n 11482: u64 [s1 + 0x2b8] = a2\n 11486: u64 [s1 + 0xd8] = a0\n 11490: u64 [s1 + 0xd0] = a3\n 11494: u64 [s1 + 0xc8] = a4\n 11498: u64 [s1 + 0xc0] = a5\n 11502: ra = 472, jump @4\n      : @476 [@dyn 236] (gas: 5)\n 11508: a1 = u64 [s1 + 0xd8]\n 11512: a0 = u64 [s1 + 0xc8]\n 11516: a3 = u64 [s1 + 0xc0]\n 11520: a3 = a3 | a0\n 11523: t0 = 474, jump @993\n      : @477 [@dyn 237] (gas: 1)\n 11529: jump @533 if a0 == 0\n      : @478 (gas: 9)\n 11533: i32 a0 = a1 + 0x4\n 11536: u64 [s1 + 664] = 0\n 11540: u64 [s1 + 656] = 0\n 11544: u64 [s1 + 640] = 0x20\n 11549: a1 = s1 + 0x280\n 11553: u64 [s1 + 648] = 0\n 11557: u64 [s1 + 0xc8] = a3\n 11561: u64 [s1 + 0xc0] = a4\n 11565: ra = 476, jump @4\n      : @479 [@dyn 238] (gas: 1)\n 11571: t0 = 478, jump @994\n      : @480 [@dyn 239] (gas: 1)\n 11577: jump @533 if a0 == 0\n      : @481 (gas: 7)\n 11581: i32 a0 = a1 + 0x24\n 11584: u64 [s1 + 632] = 0\n 11588: u64 [s1 + 624] = 0\n 11592: u64 [s1 + 608] = 0x21\n 11597: a1 = s1 + 0x260\n 11601: u64 [s1 + 616] = 0\n 11605: ra = 480, jump @4\n      : @482 [@dyn 240] (gas: 1)\n 11611: t0 = 482, jump @1014\n      : @483 [@dyn 241] (gas: 1)\n 11617: jump @533 if a0 == 0\n      : @484 (gas: 13)\n 11621: i32 a0 = a1 + 0x44\n 11624: a1 = u64 [0x20200]\n 11629: a4 = s1 + 0x200\n 11633: u64 [a4 + 0x58] = a1\n 11636: a1 = u64 [0x20208]\n 11641: u64 [s1 + 0xc0] = a2\n 11645: a2 = u64 [0x20210]\n 11650: a3 = u64 [0x20218]\n 11655: u64 [a4 + 0x50] = a1\n 11658: u64 [a4 + 0x48] = a2\n 11661: a1 = s1 + 0x240\n 11665: u64 [a4 + 0x40] = a3\n 11668: ra = 484, jump @4\n      : @485 [@dyn 242] (gas: 1)\n 11674: t0 = 486, jump @995\n      : @486 [@dyn 243] (gas: 1)\n 11680: jump @533 if a0 == 0\n      : @487 (gas: 9)\n 11684: i32 a0 = a2 + 0x64\n 11687: u64 [s1 + 560] = 0\n 11691: u64 [s1 + 552] = 0\n 11695: a1 = 0x6c00000000000000\n 11705: u64 [s1 + 0x238] = a1\n 11709: a1 = s1 + 0x220\n 11713: u64 [s1 + 544] = 0\n 11717: ra = 0x216\n 11721: jump @4\n      : @488 (gas: 5)\n 11724: a0 = a5 <u 0x65\n 11727: a0 = 0 if a4 != 0\n 11729: a1 = a3 | a2\n 11732: a0 = 0 if a1 != 0\n 11734: jump @528 if a0 != 0\n      : @489 (gas: 3)\n 11738: a0 = s1 + 0x1b40\n 11742: a1 = 0x40\n 11745: ra = 488, jump @2\n      : @490 [@dyn 244] (gas: 14)\n 11751: a2 = s1 + 0x1858\n 11755: t0 = u64 [a2 + 0x300]\n 11759: a1 = a2 + 0x200\n 11763: a5 = u64 [a1 + 0xf8]\n 11767: a4 = u64 [a1 + 0xf0]\n 11771: a0 = u64 [a1 + 0xe8]\n 11775: a3 = a4 | t0\n 11778: a1 = a0 | a5\n 11781: a1 = a1 | a3\n 11784: a1 = a1 >> 0x20\n 11787: a3 = a3 | a5\n 11790: a3 = a3 << 0x20\n 11793: a1 = a1 | a3\n 11796: jump @533 if a1 != 0\n      : @491 (gas: 11)\n 11800: u64 [a2 + 728] = 0\n 11804: u64 [a2 + 720] = 0\n 11808: u64 [a2 + 712] = 0\n 11812: a3 = 0x8c379a000000000\n 11822: a1 = s1 + 0x1b20\n 11826: u64 [a2 + 0x2e0] = a3\n 11830: u64 [s1 + 0xd8] = a0\n 11834: u64 [s1 + 0xd0] = a4\n 11838: u64 [s1 + 0xc0] = t0\n 11842: u64 [s1 + 0xc8] = a5\n 11846: ra = 490, jump @4\n      : @492 [@dyn 245] (gas: 1)\n 11852: t0 = 492, jump @992\n      : @493 [@dyn 246] (gas: 1)\n 11858: jump @533 if a0 == 0\n      : @494 (gas: 1)\n 11862: t0 = 494, jump @1032\n      : @495 [@dyn 247] (gas: 8)\n 11868: u64 [a2 + 704] = 0\n 11872: u64 [a2 + 696] = 0\n 11876: u64 [a2 + 680] = 0x20\n 11881: a1 = s1 + 0x1b00\n 11885: u64 [a2 + 688] = 0\n 11889: u64 [s1 + 0xc8] = a3\n 11893: u64 [s1 + 0xc0] = a4\n 11897: ra = 496, jump @4\n      : @496 [@dyn 248] (gas: 1)\n 11903: t0 = 498, jump @994\n      : @497 [@dyn 249] (gas: 1)\n 11909: jump @533 if a0 == 0\n      : @498 (gas: 1)\n 11913: t0 = 500, jump @1030\n      : @499 [@dyn 250] (gas: 6)\n 11919: u64 [a2 + 672] = 0\n 11923: u64 [a2 + 664] = 0\n 11927: u64 [a2 + 648] = 0x26\n 11932: a1 = s1 + 0x1ae0\n 11936: u64 [a2 + 656] = 0\n 11940: ra = 502, jump @4\n      : @500 [@dyn 251] (gas: 1)\n 11946: t0 = 504, jump @996\n      : @501 [@dyn 252] (gas: 1)\n 11952: jump @533 if a0 == 0\n      : @502 (gas: 14)\n 11956: i32 a0 = a1 + 0x44\n 11959: a1 = u64 [0x200a8]\n 11964: u64 [s1 + 0xc0] = a2\n 11968: a5 = s1 + 0x1858\n 11972: a4 = a5 + 0x200\n 11976: u64 [a4 + 0x80] = a1\n 11980: a1 = u64 [0x200b0]\n 11985: a2 = u64 [0x200b8]\n 11990: a3 = u64 [0x200c0]\n 11995: u64 [a4 + 0x78] = a1\n 11998: u64 [a4 + 0x70] = a2\n 12001: a1 = s1 + 0x1ac0\n 12005: u64 [a4 + 0x68] = a3\n 12008: ra = 506, jump @4\n      : @503 [@dyn 253] (gas: 1)\n 12014: t0 = 508, jump @995\n      : @504 [@dyn 254] (gas: 1)\n 12020: jump @533 if a0 == 0\n      : @505 (gas: 10)\n 12024: i32 a0 = a2 + 0x64\n 12027: a1 = u64 [0x200c8]\n 12032: a3 = s1 + 0x1858\n 12036: u64 [a3 + 600] = 0\n 12040: u64 [a3 + 592] = 0\n 12044: u64 [a3 + 0x260] = a1\n 12048: a1 = s1 + 0x1aa0\n 12052: u64 [a3 + 584] = 0\n 12056: ra = 0x216\n 12060: jump @4\n      : @506 (gas: 10)\n 12063: u64 [s1 + 0x60] = a1\n 12066: a0 = u64 [a2 + 0xe0]\n 12070: u64 [s1 + 0x58] = a0\n 12073: a0 = u64 [a2 + 0xd8]\n 12077: u64 [s1 + 0x50] = a0\n 12080: a0 = u64 [a2 + 0xd0]\n 12084: u64 [s1 + 0x48] = a0\n 12087: a0 = s1 + 0x1900\n 12091: a1 = u64 [s1 + 0xd8]\n 12095: ra = 510, jump @6\n      : @507 [@dyn 255] (gas: 2)\n 12101: a1 = s1 + 0x1858\n 12105: fallthrough\n      : @508 (gas: 21)\n 12106: t1 = u64 [a1 + 0xb0]\n 12110: t2 = u64 [a1 + 0xc0]\n 12114: a0 = u64 [a1 + 0xa8]\n 12118: ra = u64 [a1 + 0xb8]\n 12122: t0 = u64 [s1 + 0xa8]\n 12126: a4 = t0 ^ t1\n 12129: a5 = t1 <u t0\n 12132: u64 [s1 + 0x68] = a0\n 12135: a1 = u64 [s1 + 0xc0]\n 12139: a3 = a0 <u a1\n 12142: a3 = a5 if a4 != 0\n 12145: a2 = u64 [s1 + 0xb0]\n 12149: a4 = ra <u a2\n 12152: a1 = u64 [s1 + 0xb8]\n 12156: a5 = a1 ^ t2\n 12159: a0 = t2 <u a1\n 12162: a0 = a4 if a5 == 0\n 12165: a4 = a2 ^ ra\n 12168: a4 = a4 | a5\n 12171: a0 = a3 if a4 == 0\n 12174: jump @534 if a0 == 0\n      : @509 (gas: 3)\n 12178: a0 = s1 + 0x1560\n 12182: a1 = 0x40\n 12185: ra = 512, jump @2\n      : @510 [@dyn 256] (gas: 14)\n 12191: a2 = s1 + 0x1058\n 12195: t0 = u64 [a2 + 0x520]\n 12199: a1 = a2 + 0x500\n 12203: a5 = u64 [a1 + 0x18]\n 12206: a4 = u64 [a1 + 0x10]\n 12209: a0 = u64 [a1 + 0x8]\n 12212: a3 = a4 | t0\n 12215: a1 = a0 | a5\n 12218: a1 = a1 | a3\n 12221: a1 = a1 >> 0x20\n 12224: a3 = a3 | a5\n 12227: a3 = a3 << 0x20\n 12230: a1 = a1 | a3\n 12233: jump @533 if a1 != 0\n      : @511 (gas: 11)\n 12237: u64 [a2 + 1272] = 0\n 12241: u64 [a2 + 1264] = 0\n 12245: u64 [a2 + 1256] = 0\n 12249: a3 = 0x8c379a000000000\n 12259: a1 = s1 + 0x1540\n 12263: u64 [a2 + 0x500] = a3\n 12267: u64 [s1 + 0xd8] = a0\n 12271: u64 [s1 + 0xd0] = a4\n 12275: u64 [s1 + 0xc0] = t0\n 12279: u64 [s1 + 0xc8] = a5\n 12283: ra = 514, jump @4\n      : @512 [@dyn 257] (gas: 1)\n 12289: t0 = 516, jump @992\n      : @513 [@dyn 258] (gas: 1)\n 12295: jump @533 if a0 == 0\n      : @514 (gas: 1)\n 12299: t0 = 518, jump @1033\n      : @515 [@dyn 259] (gas: 8)\n 12305: u64 [a2 + 1248] = 0\n 12309: u64 [a2 + 1240] = 0\n 12313: u64 [a2 + 1224] = 0x20\n 12318: a1 = s1 + 0x1520\n 12322: u64 [a2 + 1232] = 0\n 12326: u64 [s1 + 0xc8] = a3\n 12330: u64 [s1 + 0xc0] = a4\n 12334: ra = 520, jump @4\n      : @516 [@dyn 260] (gas: 1)\n 12340: t0 = 522, jump @994\n      : @517 [@dyn 261] (gas: 1)\n 12346: jump @533 if a0 == 0\n      : @518 (gas: 1)\n 12350: t0 = 524, jump @1031\n      : @519 [@dyn 262] (gas: 6)\n 12356: u64 [a2 + 1216] = 0\n 12360: u64 [a2 + 1208] = 0\n 12364: u64 [a2 + 1192] = 0x24\n 12369: a1 = s1 + 0x1500\n 12373: u64 [a2 + 1200] = 0\n 12377: ra = 526, jump @4\n      : @520 [@dyn 263] (gas: 1)\n 12383: t0 = 528, jump @996\n      : @521 [@dyn 264] (gas: 1)\n 12389: jump @533 if a0 == 0\n      : @522 (gas: 14)\n 12393: i32 a0 = a1 + 0x44\n 12396: a1 = u64 [0x20108]\n 12401: u64 [s1 + 0xc0] = a2\n 12405: a5 = s1 + 0x1058\n 12409: a4 = a5 + 0x400\n 12413: u64 [a4 + 0xa0] = a1\n 12417: a1 = u64 [0x20110]\n 12422: a2 = u64 [0x20118]\n 12427: a3 = u64 [0x20120]\n 12432: u64 [a4 + 0x98] = a1\n 12436: u64 [a4 + 0x90] = a2\n 12440: a1 = s1 + 0x14e0\n 12444: u64 [a4 + 0x88] = a3\n 12448: ra = 530, jump @4\n      : @523 [@dyn 265] (gas: 1)\n 12454: t0 = 532, jump @995\n      : @524 [@dyn 266] (gas: 1)\n 12460: jump @533 if a0 == 0\n      : @525 (gas: 9)\n 12464: i32 a0 = a2 + 0x64\n 12467: a3 = s1 + 0x1058\n 12471: u64 [a3 + 1144] = 0\n 12475: u64 [a3 + 1136] = 0\n 12479: a1 = 0x6f756e7400000000\n 12489: u64 [a3 + 0x480] = a1\n 12493: a1 = s1 + 0x14c0\n 12497: u64 [a3 + 1128] = 0\n 12501: ra = 534, jump @4\n      : @526 [@dyn 267] (gas: 3)\n 12507: a1 = 0x84\n 12511: a0 = u64 [s1 + 0xd8]\n 12515: ra = 536, jump @16\n      : @527 [@dyn 268] (gas: 5)\n 12521: i32 a1 = a0 + 0\n 12523: a0 = 0x1\n 12526: a2 = 0x84\n 12530: ecalli 12 // 'seal_return'\n 12532: fallthrough\n      : @528 (gas: 8)\n 12533: a1 = s1 + 0x2858\n 12537: u64 [a1 + 448] = 0\n 12541: u64 [a1 + 440] = 0\n 12545: u64 [a1 + 432] = 0\n 12549: u64 [a1 + 424] = 0x3\n 12554: a0 = s1 + 0x2a00\n 12558: a1 = u64 [s1 + 0xd8]\n 12562: ra = 538, jump @7\n      : @529 [@dyn 269] (gas: 3)\n 12568: a0 = s1 + 0x1ba0\n 12572: a1 = 0x40\n 12575: ra = 540, jump @2\n      : @530 [@dyn 270] (gas: 7)\n 12581: a3 = s1 + 0x1858\n 12585: a5 = a3 + 0x300\n 12589: a0 = u64 [a5 + 0x60]\n 12592: a1 = u64 [a5 + 0x58]\n 12595: a2 = u64 [a5 + 0x50]\n 12598: a4 = u64 [a5 + 0x48]\n 12601: t0 = 542, jump @1008\n      : @531 [@dyn 271] (gas: 1)\n 12607: jump @533 if a0 != 0\n      : @532 (gas: 1)\n 12610: jump @853\n      : @533 (gas: 1)\n 12613: trap\n      : @534 (gas: 20)\n 12614: a0 = sp + 0xffffffffffffffe0\n 12617: a0 = a0 & 0xffffffffffffffe0\n 12620: u64 [s1 + 0x40] = a0\n 12623: sp = a0\n 12625: a3 = s1 + 0x1858\n 12629: u64 [a3 + 0x60] = a1\n 12632: u64 [a3 + 0x58] = a2\n 12635: u64 [a3 + 0x50] = t0\n 12638: a0 = u64 [s1 + 0xc0]\n 12642: u64 [a3 + 0x48] = a0\n 12645: u64 [a3 + 0x80] = t2\n 12649: u64 [a3 + 0x78] = ra\n 12652: u64 [a3 + 0x70] = t1\n 12655: a4 = a3\n 12657: a0 = s1 + 0x18e0\n 12661: a1 = s1 + 0x18c0\n 12665: a2 = s1 + 0x18a0\n 12669: a3 = u64 [s1 + 0x68]\n 12672: u64 [a4 + 0x68] = a3\n 12675: ra = 544, jump @941\n      : @535 [@dyn 272] (gas: 16)\n 12681: a0 = s1 + 0x1858\n 12685: a2 = u64 [a0 + 0x98]\n 12689: u64 [s1 + 0x68] = a2\n 12692: a4 = u64 [a0 + 0xa0]\n 12696: u64 [s1 + 0x30] = a4\n 12699: a3 = u64 [a0 + 0x88]\n 12703: u64 [s1 + 0x38] = a3\n 12706: a0 = u64 [a0 + 0x90]\n 12710: u64 [s1 + 0x28] = a0\n 12713: a1 = u64 [s1 + 0x40]\n 12716: u64 [a1 + 0x10] = a2\n 12719: u64 [a1 + 0x18] = a4\n 12722: u64 [a1] = a3\n 12724: u64 [a1 + 0x8] = a0\n 12727: a0 = u64 [s1 + 0xd8]\n 12731: ra = 546, jump @7\n      : @536 [@dyn 273] (gas: 8)\n 12737: a0 = u64 [s1 + 0x30]\n 12740: a1 = u64 [s1 + 0x28]\n 12743: a0 = a0 | a1\n 12746: a1 = u64 [s1 + 0x68]\n 12749: a2 = u64 [s1 + 0x38]\n 12752: a1 = a1 | a2\n 12755: a0 = a0 | a1\n 12758: jump @552 if a0 != 0\n      : @537 (gas: 13)\n 12762: a0 = u64 [s1 + 0x60]\n 12765: a0 = a0 & 0xffffffffffffff00\n 12769: a1 = s1 + 0x2858\n 12773: a2 = u64 [s1 + 0x48]\n 12776: u64 [a1 + 0x30] = a2\n 12779: u64 [a1 + 0x28] = a0\n 12782: a0 = u64 [s1 + 0x50]\n 12785: u64 [a1 + 0x38] = a0\n 12788: a0 = u64 [s1 + 0x58]\n 12791: u64 [a1 + 0x40] = a0\n 12794: a1 = s1 + 0x2880\n 12798: a0 = u64 [s1 + 0x70]\n 12801: ra = 548, jump @7\n      : @538 [@dyn 274] (gas: 22)\n 12807: a0 = sp + 0xffffffffffffffe0\n 12810: a1 = a0 & 0xffffffffffffffe0\n 12813: sp = a1\n 12815: a0 = u64 [s1 + 0x78]\n 12818: a0 = a0 + 0x1\n 12821: a2 = a0 <u 0x1\n 12824: a4 = u64 [s1 + 0x80]\n 12828: a4 = a4 + a2\n 12831: a2 = a0 | a4\n 12834: a2 = a2 <u 0x1\n 12837: a3 = u64 [s1 + 0xc8]\n 12841: a2 = a2 + a3\n 12844: a3 = a2 <u a3\n 12847: a5 = u64 [s1 + 0x88]\n 12851: a3 = a3 + a5\n 12854: u64 [a1 + 0x18] = a3\n 12857: u64 [a1 + 0x10] = a2\n 12860: u64 [a1 + 0x8] = a4\n 12863: u64 [a1] = a0\n 12865: a0 = s1 + 0x1880\n 12869: u64 [s1 + 0xc8] = a1\n 12873: ra = 550, jump @6\n      : @539 [@dyn 275] (gas: 15)\n 12879: a1 = s1 + 0x1858\n 12883: a0 = u64 [a1 + 0x40]\n 12886: u64 [s1 + 0x70] = a0\n 12889: a0 = u64 [a1 + 0x38]\n 12892: u64 [s1 + 0x78] = a0\n 12895: a0 = u64 [a1 + 0x30]\n 12898: u64 [s1 + 0x80] = a0\n 12902: a0 = u64 [a1 + 0x28]\n 12905: u64 [s1 + 0x88] = a0\n 12909: a0 = u64 [s1 + 0xa0]\n 12913: ra = 0x228\n 12917: ecalli 5 // 'caller'\n 12919: a2 = u64 [s1 + 0xd0]\n 12923: t0 = 0x22a\n 12927: jump @999\n      : @540 [@dyn 276] (gas: 2)\n 12930: a2 = u64 [s1 + 0xd0]\n 12934: t0 = 554, jump @999\n      : @541 [@dyn 277] (gas: 7)\n 12940: u64 [a2 + 32] = 0\n 12943: u64 [a2 + 0x18] = a1\n 12946: u64 [a2 + 0x10] = a0\n 12949: a1 = s1 + 0x1860\n 12953: u64 [a2 + 0x8] = a3\n 12956: a0 = 0\n 12958: ra = 556, jump @4\n      : @542 [@dyn 278] (gas: 3)\n 12964: t0 = 0x22e\n 12968: a1 = s1 + 0x1858\n 12972: fallthrough\n      : @543 [@dyn 279] (gas: 8)\n 12973: u64 [a1 + 0] = 0\n 12975: u64 [a1 + 4294967288] = 0\n 12978: u64 [a1 + 4294967272] = 0x4\n 12982: a2 = a1\n 12984: a0 = 0x20\n 12987: a1 = s1 + 0x1840\n 12991: u64 [a2 + 4294967280] = 0\n 12994: ra = 560, jump @4\n      : @544 [@dyn 280] (gas: 7)\n 13000: a0 = sp + 0xffffffffffffffe0\n 13003: a0 = a0 & 0xffffffffffffffe0\n 13006: u64 [s1 + 0xd8] = a0\n 13010: sp = a0\n 13012: a2 = u64 [s1 + 0x90]\n 13016: a0 = i32 [a2]\n 13018: jump @546 if a0 >u 63\n      : @545 (gas: 2)\n 13022: u32 [a2 + 0] = 0x40\n 13025: fallthrough\n      : @546 (gas: 12)\n 13026: a0 = sp + 0xffffffffffffffe0\n 13029: a0 = a0 & 0xffffffffffffffe0\n 13032: u64 [s1 + 0x90] = a0\n 13036: sp = a0\n 13038: i32 a2 = a0 + 0\n 13040: a1 = 0x40\n 13043: a0 = u64 [s1 + 0x98]\n 13047: ra = 0x232\n 13051: ecalli 8 // 'hash_keccak_256'\n 13053: a3 = u64 [s1 + 0x90]\n 13057: t0 = 0x234\n 13061: jump @1002\n      : @547 [@dyn 281] (gas: 2)\n 13064: a3 = u64 [s1 + 0x90]\n 13068: t0 = 564, jump @1002\n      : @548 [@dyn 282] (gas: 2)\n 13074: a0 = s1 + 0x1820\n 13078: ra = 566, jump @6\n      : @549 [@dyn 283] (gas: 22)\n 13084: a5 = s1 + 0x1058\n 13088: a3 = u64 [a5 + 0x7c8]\n 13092: a0 = u64 [a5 + 0x7d0]\n 13096: a1 = u64 [a5 + 0x7d8]\n 13100: a2 = u64 [a5 + 0x7e0]\n 13104: a4 = u64 [s1 + 0x70]\n 13107: u64 [a5 + 0x780] = a4\n 13111: a4 = u64 [s1 + 0x78]\n 13114: u64 [a5 + 0x778] = a4\n 13118: a4 = u64 [s1 + 0x80]\n 13122: u64 [a5 + 0x770] = a4\n 13126: a4 = u64 [s1 + 0x88]\n 13130: u64 [a5 + 0x768] = a4\n 13134: a4 = a5 + 0x700\n 13138: u64 [a4 + 0xa0] = a2\n 13142: u64 [a4 + 0x98] = a1\n 13146: u64 [a4 + 0x90] = a0\n 13150: a0 = s1 + 0x1800\n 13154: a1 = s1 + 0x17e0\n 13158: a2 = s1 + 0x17c0\n 13162: u64 [a4 + 0x88] = a3\n 13166: ra = 568, jump @963\n      : @550 [@dyn 284] (gas: 14)\n 13172: a3 = s1 + 0x1058\n 13176: a4 = a3 + 0x700\n 13180: a0 = u64 [a4 + 0xc0]\n 13184: a1 = u64 [a4 + 0xb8]\n 13188: a2 = u64 [a4 + 0xb0]\n 13192: a3 = u64 [a4 + 0xa8]\n 13196: a4 = s1 + 0x2858\n 13200: u64 [a4 + 0x60] = a0\n 13203: u64 [a4 + 0x58] = a1\n 13206: u64 [a4 + 0x50] = a2\n 13209: u64 [a4 + 0x48] = a3\n 13212: a1 = s1 + 0x28a0\n 13216: a0 = u64 [s1 + 0xd8]\n 13220: ra = 570, jump @7\n      : @551 [@dyn 285] (gas: 8)\n 13226: a0 = s1 + 0x2858\n 13230: u64 [a0 + 128] = 0\n 13234: u64 [a0 + 120] = 0\n 13237: u64 [a0 + 112] = 0\n 13240: u64 [a0 + 104] = 0\n 13243: a1 = s1 + 0x28c0\n 13247: a0 = u64 [s1 + 0xc8]\n 13251: ra = 572, jump @7\n      : @552 [@dyn 286] (gas: 8)\n 13257: a1 = s1 + 0x2858\n 13261: u64 [a1 + 160] = 0\n 13265: u64 [a1 + 152] = 0\n 13269: u64 [a1 + 144] = 0\n 13273: u64 [a1 + 136] = 0x2\n 13278: a0 = s1 + 0x17a0\n 13282: a1 = s1 + 0x28e0\n 13286: ra = 574, jump @6\n      : @553 [@dyn 287] (gas: 11)\n 13292: a1 = s1 + 0x1058\n 13296: a2 = a1 + 0x700\n 13300: a0 = u64 [a2 + 0x58]\n 13303: u64 [s1 + 0x78] = a0\n 13306: a0 = u64 [a2 + 0x50]\n 13309: u64 [s1 + 0x70] = a0\n 13312: a0 = u64 [a2 + 0x48]\n 13315: u64 [s1 + 0x80] = a0\n 13319: a0 = s1 + 0x1780\n 13323: a1 = 0x40\n 13326: ra = 576, jump @2\n      : @554 [@dyn 288] (gas: 14)\n 13332: a2 = s1 + 0x1058\n 13336: t0 = u64 [a2 + 0x740]\n 13340: a1 = a2 + 0x700\n 13344: a5 = u64 [a1 + 0x38]\n 13347: a4 = u64 [a1 + 0x30]\n 13350: a0 = u64 [a1 + 0x28]\n 13353: a3 = a4 | t0\n 13356: a1 = a0 | a5\n 13359: a1 = a1 | a3\n 13362: a1 = a1 >> 0x20\n 13365: a3 = a3 | a5\n 13368: a3 = a3 << 0x20\n 13371: a1 = a1 | a3\n 13374: jump @533 if a1 != 0\n      : @555 (gas: 11)\n 13378: u64 [a2 + 1816] = 0\n 13382: u64 [a2 + 1808] = 0\n 13386: u64 [a2 + 1800] = 0\n 13390: a3 = 0x23b872dd00000000\n 13400: a1 = s1 + 0x1760\n 13404: u64 [a2 + 0x720] = a3\n 13408: u64 [s1 + 0xd8] = a0\n 13412: u64 [s1 + 0xc8] = a4\n 13416: u64 [s1 + 0x90] = a5\n 13420: u64 [s1 + 0x88] = t0\n 13424: ra = 578, jump @4\n      : @556 [@dyn 289] (gas: 6)\n 13430: a0 = u64 [s1 + 0xa0]\n 13434: ra = 0x244\n 13438: ecalli 0 // 'address'\n 13439: a2 = u64 [s1 + 0xd0]\n 13443: t0 = 0x246\n 13447: jump @1010\n      : @557 [@dyn 290] (gas: 2)\n 13450: a2 = u64 [s1 + 0xd0]\n 13454: t0 = 582, jump @1010\n      : @558 [@dyn 291] (gas: 14)\n 13460: u64 [s1 + 0x68] = a1\n 13463: a0 = a0 >> 0x20\n 13466: a1 = reverse a2\n 13468: a2 = a1 << 0x20\n 13471: a0 = a0 | a2\n 13474: u64 [s1 + 0x60] = a0\n 13477: a1 = a1 >> 0x20\n 13480: u64 [s1 + 0x58] = a1\n 13483: a0 = u64 [s1 + 0xa0]\n 13487: ra = 0x248\n 13491: ecalli 5 // 'caller'\n 13493: a2 = u64 [s1 + 0xd0]\n 13497: t0 = 0x24a\n 13501: jump @997\n      : @559 [@dyn 292] (gas: 2)\n 13504: a2 = u64 [s1 + 0xd0]\n 13508: t0 = 586, jump @997\n      : @560 [@dyn 293] (gas: 50)\n 13514: t0 = a1 | a0\n 13517: a3 = a3 >> 0x20\n 13520: a2 = reverse a2\n 13522: a1 = a2 << 0x20\n 13525: t1 = a1 | a3\n 13528: t2 = a2 >> 0x20\n 13531: a0 = u64 [s1 + 0xd8]\n 13535: a3 = a0 + 0x4\n 13538: a5 = a3 <u a0\n 13541: a0 = u64 [s1 + 0xc8]\n 13545: a4 = a0 + a5\n 13548: a0 = a4 <u a0\n 13551: a0 = a5 if a5 == 0\n 13554: a1 = u64 [s1 + 0x90]\n 13558: a0 = a0 + a1\n 13561: a5 = a0 <u a1\n 13564: a1 = u64 [s1 + 0x88]\n 13568: a5 = a5 + a1\n 13571: a1 = s1 + 0x1058\n 13575: a2 = u64 [s1 + 0x58]\n 13578: u64 [a1 + 0x698] = a2\n 13582: a2 = u64 [s1 + 0x60]\n 13585: u64 [a1 + 0x690] = a2\n 13589: a2 = u64 [s1 + 0x68]\n 13592: u64 [a1 + 0x688] = a2\n 13596: a2 = a1 + 0x600\n 13600: u64 [a2 + 0xe0] = a5\n 13604: u64 [a2 + 0xd8] = a0\n 13608: a0 = u64 [s1 + 0xb8]\n 13612: u64 [a2 + 0x80] = a0\n 13616: a0 = u64 [s1 + 0xb0]\n 13620: u64 [a2 + 0x78] = a0\n 13623: a0 = u64 [s1 + 0xa8]\n 13627: u64 [a2 + 0x70] = a0\n 13630: a0 = u64 [s1 + 0xc0]\n 13634: u64 [a2 + 0x68] = a0\n 13637: u64 [a1 + 1696] = 0\n 13641: u64 [a2 + 0xd0] = a4\n 13645: u64 [a2 + 0xc8] = a3\n 13649: u64 [a1 + 0x6b8] = t2\n 13653: u64 [a1 + 0x6b0] = t1\n 13657: u64 [a1 + 0x6a8] = t0\n 13661: a5 = a1\n 13663: a0 = s1 + 0x1740\n 13667: a1 = s1 + 0x1720\n 13671: a2 = s1 + 0x1700\n 13675: a3 = s1 + 0x16e0\n 13679: a4 = s1 + 0x16c0\n 13683: u64 [a5 + 1728] = 0\n 13687: ra = 588, jump @971\n      : @561 [@dyn 294] (gas: 17)\n 13693: a1 = s1 + 0x1058\n 13697: a0 = u64 [a1 + 0x6f0]\n 13701: t0 = u64 [a1 + 0x700]\n 13705: t1 = u64 [a1 + 0x6e8]\n 13709: a3 = u64 [a1 + 0x6f8]\n 13713: a1 = u64 [s1 + 0xc8]\n 13717: a4 = a0 ^ a1\n 13720: a5 = a0 <u a1\n 13723: ra = u64 [s1 + 0xd8]\n 13727: t2 = t1 <u ra\n 13730: a5 = t2 if a4 == 0\n 13733: a2 = u64 [s1 + 0x90]\n 13737: a4 = a3 - a2\n 13740: a3 = a3 <u a2\n 13743: a2 = u64 [s1 + 0x88]\n 13747: a2 = t0 - a2\n 13750: t0 = 590, jump @1016\n      : @562 [@dyn 295] (gas: 3)\n 13756: u64 [s1 + 0x68] = a0\n 13759: ecalli 9 // 'ref_time_left'\n 13761: fallthrough\n      : @563 (gas: 35)\n 13762: a0 = u64 [s1 + 0x70]\n 13765: a0 = reverse a0\n 13767: a1 = a0 << 0x20\n 13770: a2 = u64 [s1 + 0x78]\n 13773: a2 = reverse a2\n 13775: a2 = a2 >> 0x20\n 13778: a1 = a1 | a2\n 13781: a2 = u64 [s1 + 0x80]\n 13785: a2 = reverse a2\n 13787: a3 = a2 << 0x20\n 13790: a0 = a0 >> 0x20\n 13793: a0 = a0 | a3\n 13796: a3 = u64 [s1 + 0xd0]\n 13800: a2 = a2 >> 0x20\n 13803: u64 [a3 + 0x8] = a0\n 13806: u64 [a3] = a1\n 13808: u32 [a3 + 0x10] = a2\n 13811: a2 = s1 + 0x2858\n 13815: u64 [a2 + 192] = 0\n 13819: u64 [a2 + 184] = 0\n 13823: u64 [a2 + 176] = 0\n 13827: a0 = u64 [s1 + 0x68]\n 13830: t0 = a0\n 13832: a5 = u64 [s1 + 0x58]\n 13835: a0 = a0 | a5\n 13838: a1 = u64 [s1 + 0x60]\n 13841: a4 = u64 [s1 + 0x50]\n 13844: a1 = a1 | a4\n 13847: a0 = a0 | a1\n 13850: a0 = a0 >> 0x20\n 13853: a1 = a1 | a5\n 13856: a1 = a1 << 0x20\n 13859: a0 = a0 | a1\n 13862: u64 [a2 + 168] = 0\n 13866: jump @533 if a0 != 0\n      : @564 (gas: 3)\n 13870: a0 = u64 [s1 + 0xd8]\n 13874: a1 = t0\n 13876: ra = 592, jump @16\n      : @565 [@dyn 296] (gas: 4)\n 13882: u64 [s1 + 0x80] = a0\n 13886: a1 = 0x20\n 13889: a0 = u64 [s1 + 0xd8]\n 13893: ra = 594, jump @16\n      : @566 [@dyn 297] (gas: 33)\n 13899: a2 = s1 + 0x2858\n 13903: u32 [a2 + 200] = 0x20\n 13908: u64 [a2 + 256] = 0xffffffffffffffff\n 13913: u64 [a2 + 248] = 0xffffffffffffffff\n 13918: u64 [a2 + 240] = 0xffffffffffffffff\n 13923: u64 [a2 + 232] = 0xffffffffffffffff\n 13928: a1 = u64 [s1 + 0xd0]\n 13932: a1 = a1 << 0x20\n 13935: a1 = a1 >> 0x20\n 13938: a2 = 0x800000000\n 13948: t0 = a1 | a2\n 13951: a1 = s1 + 0x2900\n 13955: a1 = a1 << 0x20\n 13958: a1 = a1 >> 0x20\n 13961: a2 = s1 + 0x2940\n 13965: a2 = a2 << 0x20\n 13968: a3 = a2 | a1\n 13971: a1 = u64 [s1 + 0x80]\n 13975: a1 = a1 << 0x20\n 13978: a1 = a1 >> 0x20\n 13981: a4 = u64 [s1 + 0x68]\n 13984: a4 = a4 << 0x20\n 13987: a4 = a4 | a1\n 13990: a0 = a0 << 0x20\n 13993: a0 = a0 >> 0x20\n 13996: a1 = s1 + 0x2920\n 14000: a1 = a1 << 0x20\n 14003: a5 = a1 | a0\n 14006: a1 = 0xffffffffffffffff\n 14009: a2 = 0xffffffffffffffff\n 14012: a0 = t0\n 14014: ecalli 1 // 'call'\n 14016: fallthrough\n      : @567 (gas: 1)\n 14017: jump @652 if a0 != 0\n      : @568 (gas: 2)\n 14021: ecalli 11 // 'return_data_size'\n 14023: fallthrough\n      : @569 (gas: 2)\n 14024: a1 = 0x20\n 14027: jump @571 if a0 >=u a1\n      : @570 (gas: 3)\n 14030: ecalli 11 // 'return_data_size'\n 14032: a1 = a0\n 14034: fallthrough\n      : @571 (gas: 18)\n 14035: a2 = s1 + 0x1058\n 14039: t0 = u64 [s1 + 0xd8]\n 14043: a4 = u64 [s1 + 0xc8]\n 14047: a5 = u64 [s1 + 0x90]\n 14051: a3 = u64 [s1 + 0x88]\n 14055: u64 [s1 + 0x78] = a1\n 14058: u64 [s1 + 128] = 0\n 14062: u64 [a2 + 0x608] = a1\n 14066: u64 [a2 + 0x628] = t0\n 14070: u64 [a2 + 1552] = 0\n 14074: u64 [a2 + 0x630] = a4\n 14078: u64 [a2 + 1560] = 0\n 14082: u64 [a2 + 0x638] = a5\n 14086: u64 [a2 + 1568] = 0\n 14090: a0 = s1 + 0x1680\n 14094: a1 = s1 + 0x1660\n 14098: u64 [a2 + 0x640] = a3\n 14102: ra = 596, jump @931\n      : @572 [@dyn 298] (gas: 40)\n 14108: t0 = u64 [s1 + 0xd8]\n 14112: a1 = u64 [s1 + 0x78]\n 14115: a0 = a1 + t0\n 14118: a1 = a0 <u a1\n 14121: t1 = u64 [s1 + 0xc8]\n 14125: a5 = u64 [s1 + 0x80]\n 14129: a2 = a5 + t1\n 14132: a2 = a2 + a1\n 14135: a3 = a2 ^ a5\n 14138: a4 = a2 <u a5\n 14141: a4 = a1 if a3 == 0\n 14144: ra = u64 [s1 + 0x90]\n 14148: a1 = a5 + ra\n 14151: a4 = a4 + a1\n 14154: t2 = a4 <u a1\n 14157: a1 = a1 <u a5\n 14160: a3 = u64 [s1 + 0x88]\n 14164: a5 = a5 + a3\n 14167: a1 = a1 + a5\n 14170: t2 = t2 + a1\n 14173: a1 = s1 + 0x1058\n 14177: u64 [a1 + 0x5b8] = a4\n 14181: a1 = s1 + 0x1058\n 14185: u64 [a1 + 0x5b0] = a2\n 14189: a1 = s1 + 0x1058\n 14193: u64 [a1 + 0x5a8] = a0\n 14197: a0 = s1 + 0x1058\n 14201: u64 [a0 + 0x5e0] = a3\n 14205: a0 = s1 + 0x1058\n 14209: u64 [a0 + 0x5d8] = ra\n 14213: a0 = s1 + 0x1058\n 14217: u64 [a0 + 0x5d0] = t1\n 14221: a0 = s1 + 0x1058\n 14225: u64 [a0 + 0x5c8] = t0\n 14229: a0 = s1 + 0x1640\n 14233: a1 = s1 + 0x1620\n 14237: a2 = s1 + 0x1600\n 14241: a4 = s1 + 0x1058\n 14245: u64 [a4 + 0x5c0] = t2\n 14249: ra = 598, jump @948\n      : @573 [@dyn 299] (gas: 3)\n 14255: a0 = s1 + 0x15e0\n 14259: a1 = 0x40\n 14262: ra = 600, jump @2\n      : @574 [@dyn 300] (gas: 7)\n 14268: a3 = s1 + 0x1058\n 14272: a5 = a3 + 0x500\n 14276: a0 = u64 [a5 + 0xa0]\n 14280: a1 = u64 [a5 + 0x98]\n 14284: a2 = u64 [a5 + 0x90]\n 14288: a4 = u64 [a5 + 0x88]\n 14292: t0 = 602, jump @1008\n      : @575 [@dyn 301] (gas: 1)\n 14298: jump @533 if a0 != 0\n      : @576 (gas: 13)\n 14302: a0 = u64 [s1 + 0xc0]\n 14306: a2 = a3 + 0x500\n 14310: u64 [a2 + 0x68] = a0\n 14313: a0 = u64 [s1 + 0xa8]\n 14317: u64 [a2 + 0x70] = a0\n 14320: a0 = u64 [s1 + 0xb0]\n 14324: u64 [a2 + 0x78] = a0\n 14327: a1 = s1 + 0x15c0\n 14331: a0 = u64 [s1 + 0xb8]\n 14335: u64 [a2 + 0x80] = a0\n 14339: a0 = a4\n 14341: u64 [s1 + 0xd8] = a4\n 14345: ra = 604, jump @4\n      : @577 [@dyn 302] (gas: 6)\n 14351: a0 = u64 [s1 + 0xa0]\n 14355: ra = 0x25e\n 14359: ecalli 5 // 'caller'\n 14361: a2 = u64 [s1 + 0xd0]\n 14365: t0 = 0x260\n 14369: jump @997\n      : @578 [@dyn 303] (gas: 2)\n 14372: a2 = u64 [s1 + 0xd0]\n 14376: t0 = 608, jump @997\n      : @579 [@dyn 304] (gas: 25)\n 14382: t0 = a1 | a0\n 14385: a3 = a3 >> 0x20\n 14388: a2 = reverse a2\n 14390: a1 = a2 << 0x20\n 14393: a1 = a1 | a3\n 14396: a2 = a2 >> 0x20\n 14399: a3 = u64 [0x200e8]\n 14404: a0 = s1 + 0x1058\n 14408: u64 [a0 + 0x560] = a3\n 14412: a3 = u64 [0x200f0]\n 14417: a4 = u64 [0x200f8]\n 14422: a5 = u64 [0x20100]\n 14427: u64 [a0 + 0x558] = a3\n 14431: a3 = a0 + 0x500\n 14435: u64 [a3 + 0x50] = a4\n 14438: u64 [a0 + 1344] = 0\n 14442: u64 [a3 + 0x48] = a5\n 14445: u64 [a3 + 0x38] = a2\n 14448: u64 [a3 + 0x30] = a1\n 14451: a1 = 0x20\n 14454: a2 = s1 + 0x15a0\n 14458: a3 = s1 + 0x1580\n 14462: u64 [a0 + 0x528] = t0\n 14466: a0 = u64 [s1 + 0xd8]\n 14470: ra = 610, jump @10\n      : @580 [@dyn 305] (gas: 5)\n 14476: a0 = 0\n 14478: a1 = u64 [s1 + 0x98]\n 14482: a2 = 0\n 14484: ecalli 12 // 'seal_return'\n 14486: jump @863\n      : @581 (gas: 3)\n 14489: a0 = s1 + 0x1da0\n 14493: a1 = 0x40\n 14496: ra = 612, jump @2\n      : @582 [@dyn 306] (gas: 14)\n 14502: a0 = s1 + 0x1858\n 14506: a2 = a0 + 0x500\n 14510: a1 = u64 [a2 + 0x60]\n 14513: u64 [s1 + 0xd0] = a1\n 14517: a1 = u64 [a2 + 0x58]\n 14520: u64 [s1 + 0xc8] = a1\n 14524: a1 = u64 [a2 + 0x50]\n 14527: u64 [s1 + 0xc0] = a1\n 14531: a0 = u64 [a2 + 0x48]\n 14534: u64 [s1 + 0xd8] = a0\n 14538: ra = 0x266\n 14542: ecalli 11 // 'return_data_size'\n 14544: t0 = 0x268\n 14548: jump @1004\n      : @583 [@dyn 307] (gas: 1)\n 14551: t0 = 616, jump @1004\n      : @584 [@dyn 308] (gas: 1)\n 14557: jump @533 if a1 != 0\n      : @585 (gas: 3)\n 14561: a2 = a0\n 14563: a0 = a0 >> 0x20\n 14566: jump @533 if a0 != 0\n      : @586 (gas: 6)\n 14570: i32 a0 = a2 + 0\n 14572: u64 [s1 + 0xd0] = a0\n 14576: a0 = u64 [s1 + 0xd8]\n 14580: a1 = a2\n 14582: u64 [s1 + 0xc8] = a2\n 14586: ra = 618, jump @16\n      : @587 [@dyn 309] (gas: 11)\n 14592: a1 = s1 + 0x2858\n 14596: a2 = u64 [s1 + 0xc8]\n 14600: u32 [a1 + 0x2a8] = a2\n 14604: i32 a0 = a0 + 0\n 14606: a1 = s1 + 0x3000\n 14610: i32 a1 = a1 + 0xfffffffffffffb00\n 14614: a2 = 0\n 14616: ecalli 10 // 'return_data_copy'\n 14618: a0 = s1 + 0x2858\n 14622: a0 = i32 [a0 + 0x2a8]\n 14626: fallthrough\n      : @588 (gas: 2)\n 14627: a1 = u64 [s1 + 0xd0]\n 14631: jump @533 if a0 <u a1\n      : @589 (gas: 2)\n 14635: ecalli 11 // 'return_data_size'\n 14637: fallthrough\n      : @590 (gas: 3)\n 14638: a1 = a0\n 14640: a0 = a0 >> 0x20\n 14643: jump @533 if a0 != 0\n      : @591 (gas: 3)\n 14647: a0 = u64 [s1 + 0xd8]\n 14651: u64 [s1 + 0xd0] = a1\n 14655: ra = 620, jump @16\n      : @592 [@dyn 310] (gas: 5)\n 14661: i32 a1 = a0 + 0\n 14663: a2 = i32 [s1 + 0xd0]\n 14667: a0 = 0x1\n 14670: ecalli 12 // 'seal_return'\n 14672: fallthrough\n      : @593 (gas: 8)\n 14673: a0 = u64 [s1 + 0x50]\n 14676: a1 = u64 [s1 + 0x40]\n 14679: a0 = a0 | a1\n 14682: a1 = u64 [s1 + 0x58]\n 14685: a2 = u64 [s1 + 0x48]\n 14688: a1 = a1 | a2\n 14691: a0 = a0 | a1\n 14694: jump @630 if a0 != 0\n      : @594 (gas: 4)\n 14698: a0 = s1 + 0x7ff\n 14702: a0 = a0 + 0x341\n 14706: a1 = 0x40\n 14709: ra = 622, jump @2\n      : @595 [@dyn 311] (gas: 15)\n 14715: a2 = s1 + 0x7ff\n 14719: a2 = a2 + 0x59\n 14722: t0 = u64 [a2 + 0x300]\n 14726: a1 = a2 + 0x200\n 14730: a5 = u64 [a1 + 0xf8]\n 14734: a4 = u64 [a1 + 0xf0]\n 14738: a0 = u64 [a1 + 0xe8]\n 14742: a3 = a4 | t0\n 14745: a1 = a0 | a5\n 14748: a1 = a1 | a3\n 14751: a1 = a1 >> 0x20\n 14754: a3 = a3 | a5\n 14757: a3 = a3 << 0x20\n 14760: a1 = a1 | a3\n 14763: jump @533 if a1 != 0\n      : @596 (gas: 12)\n 14767: u64 [a2 + 728] = 0\n 14771: u64 [a2 + 720] = 0\n 14775: u64 [a2 + 712] = 0\n 14779: a3 = 0x8c379a000000000\n 14789: a1 = s1 + 0x7ff\n 14793: a1 = a1 + 0x321\n 14797: u64 [a2 + 0x2e0] = a3\n 14801: u64 [s1 + 0xd8] = a0\n 14805: u64 [s1 + 0xd0] = a4\n 14809: u64 [s1 + 0xc0] = t0\n 14813: u64 [s1 + 0xc8] = a5\n 14817: ra = 624, jump @4\n      : @597 [@dyn 312] (gas: 1)\n 14823: t0 = 626, jump @992\n      : @598 [@dyn 313] (gas: 1)\n 14829: jump @533 if a0 == 0\n      : @599 (gas: 12)\n 14833: i32 a0 = a1 + 0x4\n 14836: a2 = s1 + 0x7ff\n 14840: a2 = a2 + 0x59\n 14843: u64 [a2 + 704] = 0\n 14847: u64 [a2 + 696] = 0\n 14851: u64 [a2 + 680] = 0x20\n 14856: a1 = s1 + 0x7ff\n 14860: a1 = a1 + 0x301\n 14864: u64 [a2 + 688] = 0\n 14868: u64 [s1 + 0xc8] = a3\n 14872: u64 [s1 + 0xc0] = a4\n 14876: ra = 628, jump @4\n      : @600 [@dyn 314] (gas: 1)\n 14882: t0 = 630, jump @994\n      : @601 [@dyn 315] (gas: 1)\n 14888: jump @533 if a0 == 0\n      : @602 (gas: 10)\n 14892: i32 a0 = a1 + 0x24\n 14895: a2 = s1 + 0x7ff\n 14899: a2 = a2 + 0x59\n 14902: u64 [a2 + 672] = 0\n 14906: u64 [a2 + 664] = 0\n 14910: u64 [a2 + 648] = 0x25\n 14915: a1 = s1 + 0x7ff\n 14919: a1 = a1 + 0x2e1\n 14923: u64 [a2 + 656] = 0\n 14927: ra = 632, jump @4\n      : @603 [@dyn 316] (gas: 1)\n 14933: t0 = 634, jump @996\n      : @604 [@dyn 317] (gas: 1)\n 14939: jump @533 if a0 == 0\n      : @605 (gas: 16)\n 14943: i32 a0 = a1 + 0x44\n 14946: a1 = u64 [0x20198]\n 14951: u64 [s1 + 0xc0] = a2\n 14955: a5 = s1 + 0x7ff\n 14959: a5 = a5 + 0x59\n 14962: a4 = a5 + 0x200\n 14966: u64 [a4 + 0x80] = a1\n 14970: a1 = u64 [0x201a0]\n 14975: a2 = u64 [0x201a8]\n 14980: a3 = u64 [0x201b0]\n 14985: u64 [a4 + 0x78] = a1\n 14988: u64 [a4 + 0x70] = a2\n 14991: a1 = s1 + 0x7ff\n 14995: a1 = a1 + 0x2c1\n 14999: u64 [a4 + 0x68] = a3\n 15002: ra = 636, jump @4\n      : @606 [@dyn 318] (gas: 1)\n 15008: t0 = 638, jump @995\n      : @607 [@dyn 319] (gas: 1)\n 15014: jump @533 if a0 == 0\n      : @608 (gas: 12)\n 15018: i32 a0 = a2 + 0x64\n 15021: a3 = s1 + 0x7ff\n 15025: a3 = a3 + 0x59\n 15028: u64 [a3 + 600] = 0\n 15032: u64 [a3 + 592] = 0\n 15036: a1 = 0x207a65726f000000\n 15046: u64 [a3 + 0x260] = a1\n 15050: a1 = s1 + 0x7ff\n 15054: a1 = a1 + 0x2a1\n 15058: u64 [a3 + 584] = 0\n 15062: ra = 0x216\n 15066: jump @4\n      : @609 (gas: 4)\n 15069: a0 = u64 [s1 + 0x70]\n 15072: ra = 0x280\n 15076: ecalli 5 // 'caller'\n 15078: fallthrough\n      : @610 [@dyn 320] (gas: 5)\n 15079: a2 = u64 [s1 + 0xb0]\n 15083: a0 = u64 [a2 + 0x8]\n 15086: a1 = i32 [a2 + 0x10]\n 15089: a2 = u64 [a2]\n 15091: t0 = 642, jump @1001\n      : @611 [@dyn 321] (gas: 7)\n 15097: u64 [s1 + 1720] = 0\n 15101: u64 [s1 + 0x6b0] = a1\n 15105: u64 [s1 + 0x6a8] = a0\n 15109: a1 = s1 + 0x6a0\n 15113: u64 [s1 + 0x6a0] = a3\n 15117: a0 = 0\n 15119: ra = 644, jump @4\n      : @612 [@dyn 322] (gas: 7)\n 15125: u64 [s1 + 1688] = 0\n 15129: u64 [s1 + 1680] = 0\n 15133: u64 [s1 + 1664] = 0x4\n 15138: a0 = 0x20\n 15141: a1 = s1 + 0x680\n 15145: u64 [s1 + 1672] = 0\n 15149: ra = 646, jump @4\n      : @613 [@dyn 323] (gas: 3)\n 15155: a2 = u64 [s1 + 0x58]\n 15158: a0 = i32 [a2]\n 15160: jump @615 if a0 >u 63\n      : @614 (gas: 2)\n 15164: u32 [a2 + 0] = 0x40\n 15167: fallthrough\n      : @615 (gas: 12)\n 15168: a0 = sp + 0xffffffffffffffe0\n 15171: a0 = a0 & 0xffffffffffffffe0\n 15174: u64 [s1 + 0xd8] = a0\n 15178: sp = a0\n 15180: i32 a2 = a0 + 0\n 15182: a1 = 0x40\n 15185: a0 = u64 [s1 + 0x60]\n 15188: ra = 0x288\n 15192: ecalli 8 // 'hash_keccak_256'\n 15194: a3 = u64 [s1 + 0xd8]\n 15198: t0 = 0x28a\n 15202: jump @1000\n      : @616 [@dyn 324] (gas: 2)\n 15205: a3 = u64 [s1 + 0xd8]\n 15209: t0 = 650, jump @1000\n      : @617 [@dyn 325] (gas: 8)\n 15215: a5 = a4 + 0x300\n 15219: u64 [a5 + 0x80] = a3\n 15223: u64 [a5 + 0x78] = a2\n 15226: u64 [a5 + 0x70] = a1\n 15229: u64 [a5 + 0x68] = a0\n 15232: a0 = s1 + 0x660\n 15236: a1 = s1 + 0x23c0\n 15240: ra = 652, jump @6\n      : @618 [@dyn 326] (gas: 21)\n 15246: a1 = s1 + 0x600\n 15250: a0 = u64 [a1 + 0x78]\n 15253: t0 = u64 [s1 + 0x660]\n 15257: a2 = u64 [a1 + 0x70]\n 15260: a3 = u64 [a1 + 0x68]\n 15263: a5 = u64 [s1 + 0x88]\n 15267: a4 = a0 ^ a5\n 15270: a1 = a0 <u a5\n 15273: a0 = u64 [s1 + 0x80]\n 15277: a5 = a2 <u a0\n 15280: a5 = a1 if a4 != 0\n 15283: a1 = u64 [s1 + 0x78]\n 15286: t1 = a3 ^ a1\n 15289: a3 = a3 <u a1\n 15292: a1 = u64 [s1 + 0x68]\n 15295: a1 = t0 <u a1\n 15298: a1 = a3 if t1 != 0\n 15301: a0 = a0 ^ a2\n 15304: a0 = a0 | a4\n 15307: a1 = a5 if a0 != 0\n 15310: jump @661 if a1 == 0\n      : @619 (gas: 3)\n 15314: a0 = s1 + 0x360\n 15318: a1 = 0x40\n 15321: ra = 654, jump @2\n      : @620 [@dyn 327] (gas: 6)\n 15327: a1 = s1 + 0x300\n 15331: a4 = u64 [a1 + 0x78]\n 15334: a5 = u64 [a1 + 0x70]\n 15337: a3 = u64 [a1 + 0x68]\n 15340: a0 = u64 [a1 + 0x60]\n 15343: t0 = 656, jump @1013\n      : @621 [@dyn 328] (gas: 1)\n 15349: jump @533 if a1 != 0\n      : @622 (gas: 11)\n 15353: u64 [s1 + 848] = 0\n 15357: u64 [s1 + 840] = 0\n 15361: u64 [s1 + 832] = 0\n 15365: a2 = 0x8c379a000000000\n 15375: a1 = s1 + 0x340\n 15379: u64 [s1 + 0x358] = a2\n 15383: u64 [s1 + 0xd8] = a0\n 15387: u64 [s1 + 0xd0] = a3\n 15391: u64 [s1 + 0xc8] = a4\n 15395: u64 [s1 + 0xc0] = a5\n 15399: ra = 658, jump @4\n      : @623 [@dyn 329] (gas: 5)\n 15405: a1 = u64 [s1 + 0xd8]\n 15409: a0 = u64 [s1 + 0xc8]\n 15413: a3 = u64 [s1 + 0xc0]\n 15417: a3 = a3 | a0\n 15420: t0 = 660, jump @993\n      : @624 [@dyn 330] (gas: 1)\n 15426: jump @533 if a0 == 0\n      : @625 (gas: 9)\n 15430: i32 a0 = a1 + 0x4\n 15433: u64 [s1 + 824] = 0\n 15437: u64 [s1 + 816] = 0\n 15441: u64 [s1 + 800] = 0x20\n 15446: a1 = s1 + 0x320\n 15450: u64 [s1 + 808] = 0\n 15454: u64 [s1 + 0xc8] = a3\n 15458: u64 [s1 + 0xc0] = a4\n 15462: ra = 662, jump @4\n      : @626 [@dyn 331] (gas: 9)\n 15468: a3 = u64 [s1 + 0xc8]\n 15472: a2 = u64 [s1 + 0xd0]\n 15476: a1 = u64 [s1 + 0xd8]\n 15480: a0 = u64 [s1 + 0xc0]\n 15484: a0 = a0 + 0xffffffffffffffdc\n 15487: a0 = a1 <u a0\n 15490: a0 = 0 if a2 != 0\n 15492: a0 = 0 if a3 != 0\n 15494: jump @533 if a0 == 0\n      : @627 (gas: 7)\n 15498: i32 a0 = a1 + 0x24\n 15501: u64 [s1 + 792] = 0\n 15505: u64 [s1 + 784] = 0\n 15509: u64 [s1 + 768] = 0x1f\n 15514: a1 = s1 + 0x300\n 15518: u64 [s1 + 776] = 0\n 15522: ra = 664, jump @4\n      : @628 [@dyn 332] (gas: 8)\n 15528: a2 = u64 [s1 + 0xd8]\n 15532: a0 = 0xffffffbc\n 15542: a0 = a2 <u a0\n 15545: a1 = u64 [s1 + 0xd0]\n 15549: a0 = 0 if a1 != 0\n 15551: a1 = u64 [s1 + 0xc8]\n 15555: a0 = 0 if a1 != 0\n 15557: jump @533 if a0 == 0\n      : @629 (gas: 13)\n 15561: i32 a0 = a2 + 0x44\n 15564: a1 = u64 [0x20178]\n 15569: a4 = s1 + 0x200\n 15573: u64 [a4 + 0xf8] = a1\n 15577: a1 = u64 [0x20180]\n 15582: a2 = u64 [0x20188]\n 15587: a3 = u64 [0x201f8]\n 15592: u64 [a4 + 0xf0] = a1\n 15596: u64 [a4 + 0xe8] = a2\n 15600: a1 = s1 + 0x2e0\n 15604: u64 [a4 + 0xe0] = a3\n 15608: ra = 0x1ae\n 15612: jump @4\n      : @630 (gas: 5)\n 15615: a0 = u64 [s1 + 0x38]\n 15618: ra = 0x29a\n 15622: ecalli 5 // 'caller'\n 15624: t0 = 0x29c\n 15628: jump @998\n      : @631 [@dyn 333] (gas: 1)\n 15631: t0 = 668, jump @998\n      : @632 [@dyn 334] (gas: 7)\n 15637: u64 [a2 + 256] = 0\n 15641: u64 [a2 + 0xf8] = a1\n 15645: u64 [a2 + 0xf0] = a0\n 15649: a1 = s1 + 0x1140\n 15653: u64 [a2 + 0xe8] = a3\n 15657: a0 = 0\n 15659: ra = 670, jump @4\n      : @633 [@dyn 335] (gas: 9)\n 15665: a1 = s1 + 0x1058\n 15669: u64 [a1 + 224] = 0\n 15673: u64 [a1 + 216] = 0\n 15677: u64 [a1 + 200] = 0x4\n 15682: a2 = a1\n 15684: a0 = 0x20\n 15687: a1 = s1 + 0x1120\n 15691: u64 [a2 + 208] = 0\n 15695: ra = 672, jump @4\n      : @634 [@dyn 336] (gas: 3)\n 15701: a2 = u64 [s1 + 0x28]\n 15704: a0 = i32 [a2]\n 15706: jump @636 if a0 >u 63\n      : @635 (gas: 2)\n 15710: u32 [a2 + 0] = 0x40\n 15713: fallthrough\n      : @636 (gas: 4)\n 15714: a0 = sp + 0xffffffffffffffe0\n 15717: a0 = a0 & 0xffffffffffffffe0\n 15720: u64 [s1 + 0xd8] = a0\n 15724: t0 = 674, jump @1026\n      : @637 [@dyn 337] (gas: 5)\n 15730: ra = 0x2a4\n 15734: ecalli 8 // 'hash_keccak_256'\n 15736: a3 = u64 [s1 + 0xd8]\n 15740: t0 = 0x2a6\n 15744: jump @1000\n      : @638 [@dyn 338] (gas: 2)\n 15747: a3 = u64 [s1 + 0xd8]\n 15751: t0 = 678, jump @1000\n      : @639 [@dyn 339] (gas: 8)\n 15757: a5 = a4 + 0x500\n 15761: u64 [a5 + 0xe0] = a3\n 15765: u64 [a5 + 0xd8] = a2\n 15769: u64 [a5 + 0xd0] = a1\n 15773: u64 [a5 + 0xc8] = a0\n 15777: a0 = s1 + 0x1100\n 15781: a1 = s1 + 0x2620\n 15785: ra = 680, jump @6\n      : @640 [@dyn 340] (gas: 18)\n 15791: a1 = s1 + 0x1058\n 15795: a0 = u64 [a1 + 0xc0]\n 15799: u64 [s1 + 0xd0] = a0\n 15803: a0 = u64 [a1 + 0xb8]\n 15807: u64 [s1 + 0xc8] = a0\n 15811: a0 = u64 [a1 + 0xb0]\n 15815: u64 [s1 + 0xc0] = a0\n 15819: a0 = u64 [a1 + 0xa8]\n 15823: u64 [s1 + 0xd8] = a0\n 15827: a0 = s1 + 0x2058\n 15831: u64 [a0 + 1536] = 0\n 15835: u64 [a0 + 1528] = 0\n 15839: u64 [a0 + 1520] = 0\n 15843: a1 = a0\n 15845: u64 [a1 + 1512] = 0x3\n 15850: a0 = s1 + 0x10e0\n 15854: a1 = s1 + 0x2640\n 15858: ra = 682, jump @6\n      : @641 [@dyn 341] (gas: 67)\n 15864: a1 = s1 + 0x1058\n 15868: t2 = u64 [a1 + 0x88]\n 15872: a0 = u64 [a1 + 0xa0]\n 15876: u64 [s1 + 0xb8] = a0\n 15880: a3 = u64 [a1 + 0x98]\n 15884: a5 = u64 [a1 + 0x90]\n 15888: ra = u64 [s1 + 0xd8]\n 15892: a1 = ra mulhu t2\n 15895: a0 = u64 [s1 + 0xc0]\n 15899: a2 = a0 * t2\n 15902: a1 = a1 + a2\n 15905: a2 = a1 <u a2\n 15908: a4 = a0 mulhu t2\n 15911: t1 = a4 + a2\n 15914: a4 = ra * a5\n 15917: a1 = a1 + a4\n 15920: u64 [s1 + 0x98] = a1\n 15924: a1 = a1 <u a4\n 15927: a4 = ra mulhu a5\n 15930: a1 = a1 + a4\n 15933: t0 = t1 + a1\n 15936: a2 = a0 * a5\n 15939: a1 = a2 + t0\n 15942: u64 [s1 + 0xb0] = a1\n 15946: a4 = a1 <u a2\n 15949: a1 = t0 <u t1\n 15952: a2 = a0 mulhu a5\n 15955: a1 = a1 + a2\n 15958: a1 = a1 + a4\n 15961: u64 [s1 + 0xa8] = a1\n 15965: a1 = a0 * a3\n 15968: a2 = u64 [s1 + 0xb8]\n 15972: a2 = a2 * ra\n 15975: a1 = a1 + a2\n 15978: u64 [s1 + 0xa0] = a1\n 15982: t0 = u64 [s1 + 0xc8]\n 15986: u64 [s1 + 0x78] = a5\n 15989: a2 = a5 * t0\n 15992: a4 = u64 [s1 + 0xd0]\n 15996: a5 = a4 * t2\n 15999: a5 = a5 + a2\n 16002: a2 = a3 * ra\n 16005: t1 = t0 * t2\n 16008: a2 = a2 + t1\n 16011: u64 [s1 + 0x88] = a3\n 16015: a3 = a3 mulhu ra\n 16018: u64 [s1 + 0x68] = a3\n 16021: a1 = u64 [s1 + 0xa0]\n 16025: a3 = a3 + a1\n 16028: a1 = t0 mulhu t2\n 16031: u64 [s1 + 0xa0] = a1\n 16035: a1 = a1 + a5\n 16038: a5 = a2 <u t1\n 16041: u64 [s1 + 0x70] = a1\n 16044: a1 = a1 + a3\n 16047: t1 = a1 + a5\n 16050: a5 = a0 | a4\n 16053: a1 = ra | t0\n 16056: a1 = a1 | a5\n 16059: a0 = u64 [s1 + 0xb0]\n 16063: a2 = a2 + a0\n 16066: a4 = a2 <u a0\n 16069: a0 = u64 [s1 + 0xa8]\n 16073: t1 = t1 + a0\n 16076: a5 = t1 + a4\n 16079: u64 [s1 + 0x80] = a2\n 16083: jump @644 if a1 == 0\n      : @642 (gas: 52)\n 16087: a1 = a5 ^ a0\n 16090: a2 = a5 <u a0\n 16093: a4 = a2 if a1 != 0\n 16096: a0 = u64 [s1 + 0x68]\n 16099: a3 = a3 <u a0\n 16102: a1 = u64 [s1 + 0xc0]\n 16106: a2 = a1 >u 0\n 16108: ra = a5\n 16110: t0 = u64 [s1 + 0xb8]\n 16114: a5 = t0 >u 0\n 16116: a2 = a2 & a5\n 16119: a5 = u64 [s1 + 0xd8]\n 16123: a5 = t0 mulhu a5\n 16126: a5 = a5 >u 0\n 16128: a2 = a2 | a5\n 16131: t1 = u64 [s1 + 0x88]\n 16135: a5 = a1 mulhu t1\n 16138: a5 = a5 >u 0\n 16140: a2 = a2 | a5\n 16143: a2 = a2 | a3\n 16146: u64 [s1 + 0xc0] = a2\n 16150: a0 = u64 [s1 + 0xa0]\n 16154: a1 = u64 [s1 + 0x70]\n 16157: a0 = a1 <u a0\n 16160: u64 [s1 + 0xb0] = a0\n 16164: a2 = u64 [s1 + 0xd0]\n 16168: a5 = a2 >u 0\n 16170: a0 = u64 [s1 + 0x78]\n 16173: a1 = a0 >u 0\n 16175: a1 = a1 & a5\n 16178: a5 = a2 mulhu t2\n 16181: a5 = a5 >u 0\n 16183: a1 = a1 | a5\n 16186: a5 = ra\n 16188: ra = u64 [s1 + 0xc8]\n 16192: a3 = a0 mulhu ra\n 16195: a3 = a3 >u 0\n 16197: a1 = a1 | a3\n 16200: a0 = u64 [s1 + 0xb0]\n 16204: a1 = a1 | a0\n 16207: a2 = ra | a2\n 16210: a3 = t1 | t0\n 16213: a2 = a2 >u 0\n 16215: a3 = a3 >u 0\n 16217: a2 = a2 & a3\n 16220: a1 = a1 | a2\n 16223: a2 = u64 [s1 + 0x80]\n 16227: a0 = u64 [s1 + 0xc0]\n 16231: a1 = a1 | a0\n 16234: a1 = a1 | a4\n 16237: a1 = a1 & 0x1\n 16240: jump @644 if a1 == 0\n      : @643 (gas: 1)\n 16243: jump @904\n      : @644 (gas: 56)\n 16246: u64 [s1 + 0x90] = a5\n 16250: a1 = u64 [s1 + 0xd8]\n 16254: t0 = a1 * t2\n 16257: a0 = t0 | a2\n 16260: a1 = u64 [s1 + 0x98]\n 16264: t2 = a2\n 16266: a2 = a1 | a5\n 16269: a0 = a0 | a2\n 16272: a0 = a0 <u 0x1\n 16275: u64 [s1 + 0xd8] = a0\n 16279: a0 = clz t2\n 16281: a0 = a0 + 0x40\n 16284: a2 = clz a5\n 16286: a2 = a0 if a5 == 0\n 16289: a0 = clz t0\n 16291: a0 = a0 + 0x40\n 16294: a3 = clz a1\n 16296: a3 = a0 if a1 == 0\n 16299: a0 = a3 + 0x80\n 16303: a4 = t2 | a5\n 16306: a2 = a0 if a4 == 0\n 16309: a5 = a0 <u a3\n 16312: a5 = 0 if a4 != 0\n 16314: a3 = a5 >u 0\n 16316: a0 = a2 <u 0xfa\n 16320: a4 = a0 ^ 0x1\n 16323: a3 = a4 if a5 == 0\n 16326: a0 = a3 <u 0x1\n 16329: a0 = a0 + 0xffffffffffffffff\n 16332: ra = -a3\n 16334: a5 = -a5\n 16336: t1 = a5 - a4\n 16339: a2 = 0xf9 - a2\n 16343: u64 [s1 + 0xc0] = ra\n 16347: a4 = ra >u 0\n 16349: a5 = a0 >u 0\n 16351: u64 [s1 + 0xc8] = a0\n 16355: a5 = a4 if a0 == 0\n 16358: a0 = t1 >u 0\n 16360: u64 [s1 + 0xd0] = a2\n 16364: a2 = a2 <u 0x100\n 16368: a2 = a2 ^ 0x1\n 16371: a2 = a0 if t1 != 0\n 16374: a2 = a5 if a3 != 0\n 16377: a0 = u64 [s1 + 0xd8]\n 16381: a0 = a0 | a2\n 16384: a2 = u64 [s1 + 0x90]\n 16388: a2 = 0 if a0 != 0\n 16390: a3 = t2\n 16392: a3 = 0 if a0 != 0\n 16394: a5 = a1\n 16396: a5 = 0 if a0 != 0\n 16398: u64 [s1 + 0x88] = t0\n 16402: a4 = t0\n 16404: a4 = 0 if a0 != 0\n 16406: jump @707 if a0 != 0\n      : @645 (gas: 8)\n 16410: a0 = u64 [s1 + 0xd0]\n 16414: a0 = a0 ^ 0xff\n 16418: t2 = u64 [s1 + 0xc0]\n 16422: t0 = a0 | t2\n 16425: ra = u64 [s1 + 0xc8]\n 16429: a0 = t1 | ra\n 16432: a0 = t0 | a0\n 16435: jump @707 if a0 == 0\n      : @646 (gas: 18)\n 16439: a3 = u64 [s1 + 0xd0]\n 16443: a2 = a3 + 0x1\n 16446: u64 [s1 + 0xd8] = a2\n 16450: a0 = a2 <u 0x1\n 16453: a0 = a0 + t1\n 16456: u64 [s1 + 0xb0] = a0\n 16460: a0 = a0 | a2\n 16463: a0 = a0 <u 0x1\n 16466: a0 = a0 + t2\n 16469: u64 [s1 + 0xa0] = a0\n 16473: a0 = a0 <u t2\n 16476: a0 = a0 + ra\n 16479: u64 [s1 + 0xa8] = a0\n 16483: a2 = 0xff - a3\n 16487: u64 [s1 + 0xb8] = a2\n 16491: a2 = 0x80 - a2\n 16495: a0 = u64 [s1 + 0x88]\n 16499: ra = 684, jump @1034\n      : @647 [@dyn 342] (gas: 6)\n 16505: u64 [s1 + 0xc8] = a0\n 16509: u64 [s1 + 0xc0] = a1\n 16513: a0 = u64 [s1 + 0x80]\n 16517: a1 = u64 [s1 + 0x90]\n 16521: a2 = u64 [s1 + 0xb8]\n 16525: ra = 686, jump @1039\n      : @648 [@dyn 343] (gas: 9)\n 16531: u64 [s1 + 0x78] = a0\n 16534: a0 = u64 [s1 + 0xc0]\n 16538: a0 = a0 | a1\n 16541: u64 [s1 + 0xc0] = a0\n 16545: a1 = u64 [s1 + 0xd0]\n 16549: a2 = 0x7f - a1\n 16552: a0 = u64 [s1 + 0x88]\n 16556: a1 = u64 [s1 + 0x98]\n 16560: ra = 688, jump @1039\n      : @649 [@dyn 344] (gas: 18)\n 16566: a2 = u64 [s1 + 0xb8]\n 16570: a3 = a2 <u 0x80\n 16574: u64 [s1 + 0xd0] = a3\n 16578: a4 = u64 [s1 + 0xc0]\n 16582: a1 = a4 if a3 != 0\n 16585: a4 = u64 [s1 + 0x90]\n 16589: a1 = a4 if a2 == 0\n 16592: u64 [s1 + 0xc0] = a1\n 16596: a1 = u64 [s1 + 0xc8]\n 16600: a4 = u64 [s1 + 0x78]\n 16603: a1 = a1 | a4\n 16606: a1 = a0 if a3 == 0\n 16609: a0 = u64 [s1 + 0x80]\n 16613: a1 = a0 if a2 == 0\n 16616: u64 [s1 + 0xc8] = a1\n 16620: a0 = u64 [s1 + 0x88]\n 16624: a1 = u64 [s1 + 0x98]\n 16628: ra = 690, jump @1039\n      : @650 [@dyn 345] (gas: 13)\n 16634: a3 = u64 [s1 + 0xa0]\n 16638: a4 = u64 [s1 + 0xa8]\n 16642: a2 = u64 [s1 + 0xb0]\n 16646: a2 = a2 | a4\n 16649: a5 = u64 [s1 + 0xd8]\n 16653: a5 = a5 | a3\n 16656: a2 = a2 | a5\n 16659: a3 = u64 [s1 + 0xd0]\n 16663: a1 = 0 if a3 == 0\n 16665: u64 [s1 + 0xb8] = a1\n 16669: a0 = 0 if a3 == 0\n 16671: u64 [s1 + 0xd0] = a0\n 16675: jump @700 if a2 != 0\n      : @651 (gas: 3)\n 16679: a5 = 0\n 16681: u64 [s1 + 120] = 0\n 16684: jump @706\n      : @652 (gas: 3)\n 16687: a0 = s1 + 0x16a0\n 16691: a1 = 0x40\n 16694: ra = 692, jump @2\n      : @653 [@dyn 346] (gas: 14)\n 16700: a0 = s1 + 0x1058\n 16704: a2 = a0 + 0x600\n 16708: a1 = u64 [a2 + 0x60]\n 16711: u64 [s1 + 0xd0] = a1\n 16715: a1 = u64 [a2 + 0x58]\n 16718: u64 [s1 + 0xc8] = a1\n 16722: a1 = u64 [a2 + 0x50]\n 16725: u64 [s1 + 0xc0] = a1\n 16729: a0 = u64 [a2 + 0x48]\n 16732: u64 [s1 + 0xd8] = a0\n 16736: ra = 0x2b6\n 16740: ecalli 11 // 'return_data_size'\n 16742: t0 = 0x2b8\n 16746: jump @1004\n      : @654 [@dyn 347] (gas: 1)\n 16749: t0 = 696, jump @1004\n      : @655 [@dyn 348] (gas: 1)\n 16755: jump @657 if a1 == 0\n      : @656 (gas: 1)\n 16758: jump @533\n      : @657 (gas: 3)\n 16761: a2 = a0\n 16763: a0 = a0 >> 0x20\n 16766: jump @659 if a0 == 0\n      : @658 (gas: 1)\n 16769: jump @533\n      : @659 (gas: 6)\n 16772: i32 a0 = a2 + 0\n 16774: u64 [s1 + 0xd0] = a0\n 16778: a0 = u64 [s1 + 0xd8]\n 16782: a1 = a2\n 16784: u64 [s1 + 0xc8] = a2\n 16788: ra = 698, jump @16\n      : @660 [@dyn 349] (gas: 11)\n 16794: a1 = s1 + 0x2858\n 16798: a2 = u64 [s1 + 0xc8]\n 16802: u32 [a1 + 0x108] = a2\n 16806: i32 a0 = a0 + 0\n 16808: a1 = s1 + 0x3000\n 16812: i32 a1 = a1 + 0xfffffffffffff960\n 16816: a2 = 0\n 16818: ecalli 10 // 'return_data_copy'\n 16820: a0 = s1 + 0x2858\n 16824: a0 = i32 [a0 + 0x108]\n 16828: jump @588\n      : @661 (gas: 4)\n 16831: a0 = u64 [s1 + 0x70]\n 16834: ra = 0x2bc\n 16838: ecalli 5 // 'caller'\n 16840: fallthrough\n      : @662 [@dyn 350] (gas: 5)\n 16841: a2 = u64 [s1 + 0xb0]\n 16845: a0 = u64 [a2 + 0x8]\n 16848: a1 = i32 [a2 + 0x10]\n 16851: a2 = u64 [a2]\n 16853: t0 = 702, jump @1001\n      : @663 [@dyn 351] (gas: 7)\n 16859: u64 [s1 + 1624] = 0\n 16863: u64 [s1 + 0x650] = a1\n 16867: u64 [s1 + 0x648] = a0\n 16871: a1 = s1 + 0x640\n 16875: u64 [s1 + 0x640] = a3\n 16879: a0 = 0\n 16881: ra = 704, jump @4\n      : @664 [@dyn 352] (gas: 7)\n 16887: u64 [s1 + 1592] = 0\n 16891: u64 [s1 + 1584] = 0\n 16895: u64 [s1 + 1568] = 0x4\n 16900: a0 = 0x20\n 16903: a1 = s1 + 0x620\n 16907: u64 [s1 + 1576] = 0\n 16911: ra = 706, jump @4\n      : @665 [@dyn 353] (gas: 7)\n 16917: a0 = sp + 0xffffffffffffffe0\n 16920: a0 = a0 & 0xffffffffffffffe0\n 16923: u64 [s1 + 0xd8] = a0\n 16927: sp = a0\n 16929: a2 = u64 [s1 + 0x58]\n 16932: a0 = i32 [a2]\n 16934: jump @667 if a0 >u 63\n      : @666 (gas: 2)\n 16938: u32 [a2 + 0] = 0x40\n 16941: fallthrough\n      : @667 (gas: 12)\n 16942: a0 = sp + 0xffffffffffffffe0\n 16945: a0 = a0 & 0xffffffffffffffe0\n 16948: u64 [s1 + 0xd0] = a0\n 16952: sp = a0\n 16954: i32 a2 = a0 + 0\n 16956: a1 = 0x40\n 16959: a0 = u64 [s1 + 0x60]\n 16962: ra = 0x2c4\n 16966: ecalli 8 // 'hash_keccak_256'\n 16968: a3 = u64 [s1 + 0xd0]\n 16972: t0 = 0x2c6\n 16976: jump @1002\n      : @668 [@dyn 354] (gas: 2)\n 16979: a3 = u64 [s1 + 0xd0]\n 16983: t0 = 710, jump @1002\n      : @669 [@dyn 355] (gas: 2)\n 16989: a0 = s1 + 0x600\n 16993: ra = 712, jump @6\n      : @670 [@dyn 356] (gas: 21)\n 16999: a4 = s1 + 0x600\n 17003: a3 = u64 [a4]\n 17005: a0 = u64 [a4 + 0x8]\n 17008: a1 = u64 [a4 + 0x10]\n 17011: a2 = u64 [a4 + 0x18]\n 17014: a4 = u64 [s1 + 0x88]\n 17018: u64 [s1 + 0x5b8] = a4\n 17022: a4 = u64 [s1 + 0x80]\n 17026: u64 [s1 + 0x5b0] = a4\n 17030: a4 = u64 [s1 + 0x78]\n 17033: u64 [s1 + 0x5a8] = a4\n 17037: a4 = u64 [s1 + 0x68]\n 17040: u64 [s1 + 0x5a0] = a4\n 17044: u64 [s1 + 0x5d8] = a2\n 17048: u64 [s1 + 0x5d0] = a1\n 17052: u64 [s1 + 0x5c8] = a0\n 17056: a0 = s1 + 0x5e0\n 17060: a1 = s1 + 0x5c0\n 17064: a2 = s1 + 0x5a0\n 17068: u64 [s1 + 0x5c0] = a3\n 17072: ra = 714, jump @941\n      : @671 [@dyn 357] (gas: 13)\n 17078: a0 = u64 [s1 + 0x5f8]\n 17082: a1 = u64 [s1 + 0x5f0]\n 17086: a2 = u64 [s1 + 0x5e8]\n 17090: a3 = u64 [s1 + 0x5e0]\n 17094: a4 = s1 + 0x2058\n 17098: a5 = a4 + 0x300\n 17102: u64 [a5 + 0xa0] = a0\n 17106: u64 [a5 + 0x98] = a1\n 17110: u64 [a5 + 0x90] = a2\n 17114: u64 [a5 + 0x88] = a3\n 17118: a1 = s1 + 0x23e0\n 17122: a0 = u64 [s1 + 0xd8]\n 17126: ra = 716, jump @7\n      : @672 [@dyn 358] (gas: 9)\n 17132: a0 = s1 + 0x2058\n 17136: u64 [a0 + 960] = 0\n 17140: u64 [a0 + 952] = 0\n 17144: u64 [a0 + 944] = 0\n 17148: a1 = a0\n 17150: u64 [a1 + 936] = 0x1\n 17155: a0 = s1 + 0x580\n 17159: a1 = s1 + 0x2400\n 17163: ra = 718, jump @6\n      : @673 [@dyn 359] (gas: 9)\n 17169: a0 = u64 [s1 + 0x590]\n 17173: u64 [s1 + 0xa8] = a0\n 17177: a0 = u64 [s1 + 0x588]\n 17181: u64 [s1 + 0xa0] = a0\n 17185: a0 = u64 [s1 + 0x580]\n 17189: u64 [s1 + 0xb8] = a0\n 17193: a0 = s1 + 0x560\n 17197: a1 = 0x40\n 17200: ra = 720, jump @2\n      : @674 [@dyn 360] (gas: 13)\n 17206: a1 = s1 + 0x500\n 17210: a5 = u64 [a1 + 0x78]\n 17213: a4 = u64 [a1 + 0x70]\n 17216: a3 = u64 [a1 + 0x68]\n 17219: a0 = u64 [a1 + 0x60]\n 17222: a2 = a3 | a5\n 17225: a1 = a0 | a4\n 17228: a1 = a1 | a2\n 17231: a1 = a1 >> 0x20\n 17234: a2 = a2 | a4\n 17237: a2 = a2 << 0x20\n 17240: a1 = a1 | a2\n 17243: jump @676 if a1 == 0\n      : @675 (gas: 1)\n 17246: jump @533\n      : @676 (gas: 11)\n 17249: u64 [s1 + 1360] = 0\n 17253: u64 [s1 + 1352] = 0\n 17257: u64 [s1 + 1344] = 0\n 17261: a2 = 0xa9059cbb00000000\n 17271: a1 = s1 + 0x540\n 17275: u64 [s1 + 0x558] = a2\n 17279: u64 [s1 + 0xd8] = a0\n 17283: u64 [s1 + 0xd0] = a3\n 17287: u64 [s1 + 0xc8] = a4\n 17291: u64 [s1 + 0xc0] = a5\n 17295: ra = 722, jump @4\n      : @677 [@dyn 361] (gas: 49)\n 17301: a0 = u64 [s1 + 0x70]\n 17304: ecalli 5 // 'caller'\n 17306: a2 = u64 [s1 + 0xb0]\n 17310: a0 = u64 [a2 + 0x8]\n 17313: a1 = i32 [a2 + 0x10]\n 17316: a2 = u64 [a2]\n 17318: a0 = reverse a0\n 17320: a3 = a0 << 0x20\n 17323: a1 = reverse a1\n 17325: a1 = a1 >> 0x20\n 17328: t0 = a1 | a3\n 17331: a0 = a0 >> 0x20\n 17334: a1 = reverse a2\n 17336: a2 = a1 << 0x20\n 17339: t1 = a2 | a0\n 17342: a1 = a1 >> 0x20\n 17345: a0 = u64 [s1 + 0xd8]\n 17349: a2 = a0 + 0x4\n 17352: a3 = a2 <u a0\n 17355: a0 = u64 [s1 + 0xd0]\n 17359: a5 = a0 + a3\n 17362: a4 = a5 <u a0\n 17365: a4 = a3 if a3 == 0\n 17368: a0 = u64 [s1 + 0xc8]\n 17372: a4 = a4 + a0\n 17375: a3 = a4 <u a0\n 17378: a0 = u64 [s1 + 0xc0]\n 17382: a3 = a3 + a0\n 17385: a0 = u64 [s1 + 0x88]\n 17389: u64 [s1 + 0x4d8] = a0\n 17393: a0 = u64 [s1 + 0x80]\n 17397: u64 [s1 + 0x4d0] = a0\n 17401: a0 = u64 [s1 + 0x78]\n 17404: u64 [s1 + 0x4c8] = a0\n 17408: a0 = u64 [s1 + 0x68]\n 17411: u64 [s1 + 0x4c0] = a0\n 17415: u64 [s1 + 1272] = 0\n 17419: u64 [s1 + 0x518] = a3\n 17423: u64 [s1 + 0x510] = a4\n 17427: u64 [s1 + 0x508] = a5\n 17431: u64 [s1 + 0x500] = a2\n 17435: u64 [s1 + 0x4f0] = a1\n 17439: u64 [s1 + 0x4e8] = t1\n 17443: a0 = s1 + 0x520\n 17447: a1 = s1 + 0x500\n 17451: a2 = s1 + 0x4e0\n 17455: a3 = s1 + 0x4c0\n 17459: u64 [s1 + 0x4e0] = t0\n 17463: ra = 724, jump @957\n      : @678 [@dyn 362] (gas: 29)\n 17469: a0 = u64 [s1 + 0x528]\n 17473: t0 = u64 [s1 + 0x538]\n 17477: t1 = u64 [s1 + 0x520]\n 17481: a3 = u64 [s1 + 0x530]\n 17485: a1 = u64 [s1 + 0xd0]\n 17489: a4 = a0 ^ a1\n 17492: a5 = a0 <u a1\n 17495: ra = u64 [s1 + 0xd8]\n 17499: t2 = t1 <u ra\n 17502: a5 = t2 if a4 == 0\n 17505: a2 = u64 [s1 + 0xc8]\n 17509: a4 = a3 - a2\n 17512: a3 = a3 <u a2\n 17515: a2 = u64 [s1 + 0xc0]\n 17519: a2 = t0 - a2\n 17522: a2 = a2 - a3\n 17525: a3 = a4 <u a5\n 17528: a2 = a2 - a3\n 17531: u64 [s1 + 0x90] = a2\n 17535: a4 = a4 - a5\n 17538: u64 [s1 + 0x58] = a4\n 17541: a0 = a0 - a1\n 17544: a0 = a0 - t2\n 17547: u64 [s1 + 0x50] = a0\n 17550: a0 = t1 - ra\n 17553: u64 [s1 + 0x98] = a0\n 17557: ra = 0x2d6\n 17561: ecalli 9 // 'ref_time_left'\n 17563: fallthrough\n      : @679 [@dyn 363] (gas: 5)\n 17564: a0 = u64 [s1 + 0xa0]\n 17568: a0 = reverse a0\n 17570: a1 = a0 << 0x20\n 17573: a2 = u64 [s1 + 0xa8]\n 17577: t0 = 728, jump @1021\n      : @680 [@dyn 364] (gas: 23)\n 17583: a3 = u64 [s1 + 0xb0]\n 17587: a2 = a2 >> 0x20\n 17590: u64 [a3 + 0x8] = a0\n 17593: u64 [a3] = a1\n 17595: u32 [a3 + 0x10] = a2\n 17598: a2 = s1 + 0x2058\n 17602: u64 [a2 + 992] = 0\n 17606: u64 [a2 + 984] = 0\n 17610: u64 [a2 + 976] = 0\n 17614: a0 = u64 [s1 + 0x98]\n 17618: t0 = a0\n 17620: a5 = u64 [s1 + 0x58]\n 17623: a0 = a0 | a5\n 17626: a1 = u64 [s1 + 0x90]\n 17630: a4 = u64 [s1 + 0x50]\n 17633: a1 = a1 | a4\n 17636: a0 = a0 | a1\n 17639: a0 = a0 >> 0x20\n 17642: a1 = a1 | a5\n 17645: a1 = a1 << 0x20\n 17648: a0 = a0 | a1\n 17651: u64 [a2 + 968] = 0\n 17655: jump @682 if a0 == 0\n      : @681 (gas: 1)\n 17658: jump @533\n      : @682 (gas: 3)\n 17661: a0 = u64 [s1 + 0xd8]\n 17665: a1 = t0\n 17667: ra = 730, jump @16\n      : @683 [@dyn 365] (gas: 4)\n 17673: u64 [s1 + 0xb8] = a0\n 17677: a1 = 0x20\n 17680: a0 = u64 [s1 + 0xd8]\n 17684: ra = 732, jump @16\n      : @684 [@dyn 366] (gas: 34)\n 17690: a2 = s1 + 0x2058\n 17694: u32 [a2 + 1000] = 0x20\n 17699: a3 = a2 + 0x400\n 17703: u64 [a3 + 32] = 0xffffffffffffffff\n 17707: u64 [a3 + 24] = 0xffffffffffffffff\n 17711: u64 [a3 + 16] = 0xffffffffffffffff\n 17715: u64 [a3 + 8] = 0xffffffffffffffff\n 17719: a1 = u64 [s1 + 0xb0]\n 17723: a1 = a1 << 0x20\n 17726: a1 = a1 >> 0x20\n 17729: a2 = 0x800000000\n 17739: t0 = a1 | a2\n 17742: a1 = s1 + 0x2420\n 17746: a1 = a1 << 0x20\n 17749: a1 = a1 >> 0x20\n 17752: a2 = s1 + 0x2460\n 17756: a2 = a2 << 0x20\n 17759: a3 = a2 | a1\n 17762: a1 = u64 [s1 + 0xb8]\n 17766: a1 = a1 << 0x20\n 17769: a1 = a1 >> 0x20\n 17772: a4 = u64 [s1 + 0x98]\n 17776: a4 = a4 << 0x20\n 17779: a4 = a4 | a1\n 17782: a0 = a0 << 0x20\n 17785: a0 = a0 >> 0x20\n 17788: a1 = s1 + 0x2440\n 17792: a1 = a1 << 0x20\n 17795: a5 = a1 | a0\n 17798: a1 = 0xffffffffffffffff\n 17801: a2 = 0xffffffffffffffff\n 17804: a0 = t0\n 17806: ecalli 1 // 'call'\n 17808: fallthrough\n      : @685 (gas: 1)\n 17809: jump @687 if a0 == 0\n      : @686 (gas: 1)\n 17812: jump @802\n      : @687 (gas: 2)\n 17815: ecalli 11 // 'return_data_size'\n 17817: fallthrough\n      : @688 (gas: 2)\n 17818: a1 = 0x20\n 17821: jump @690 if a0 >=u a1\n      : @689 (gas: 3)\n 17824: ecalli 11 // 'return_data_size'\n 17826: a1 = a0\n 17828: fallthrough\n      : @690 (gas: 17)\n 17829: u64 [s1 + 0xa8] = a1\n 17833: u64 [s1 + 184] = 0\n 17837: u64 [s1 + 0x460] = a1\n 17841: a0 = u64 [s1 + 0xd8]\n 17845: u64 [s1 + 0x480] = a0\n 17849: u64 [s1 + 1128] = 0\n 17853: a0 = u64 [s1 + 0xd0]\n 17857: u64 [s1 + 0x488] = a0\n 17861: u64 [s1 + 1136] = 0\n 17865: a0 = u64 [s1 + 0xc8]\n 17869: u64 [s1 + 0x490] = a0\n 17873: u64 [s1 + 1144] = 0\n 17877: a0 = s1 + 0x480\n 17881: a1 = s1 + 0x460\n 17885: a3 = u64 [s1 + 0xc0]\n 17889: u64 [s1 + 0x498] = a3\n 17893: ra = 734, jump @931\n      : @691 [@dyn 367] (gas: 34)\n 17899: t0 = u64 [s1 + 0xd8]\n 17903: a0 = u64 [s1 + 0xa8]\n 17907: ra = a0 + t0\n 17910: a1 = ra <u a0\n 17913: t1 = u64 [s1 + 0xd0]\n 17917: a0 = u64 [s1 + 0xb8]\n 17921: a2 = a0 + t1\n 17924: a2 = a2 + a1\n 17927: a3 = a2 ^ a0\n 17930: a4 = a2 <u a0\n 17933: a4 = a1 if a3 == 0\n 17936: a3 = u64 [s1 + 0xc8]\n 17940: a1 = a0 + a3\n 17943: a4 = a4 + a1\n 17946: t2 = a4 <u a1\n 17949: a1 = a1 <u a0\n 17952: a5 = a0\n 17954: a0 = u64 [s1 + 0xc0]\n 17958: a5 = a5 + a0\n 17961: a1 = a1 + a5\n 17964: t2 = t2 + a1\n 17967: a1 = s1 + 0x400\n 17971: u64 [a1 + 0x10] = a4\n 17974: u64 [a1 + 0x8] = a2\n 17977: u64 [s1 + 0x400] = ra\n 17981: u64 [a1 + 0x38] = a0\n 17984: u64 [a1 + 0x30] = a3\n 17987: u64 [s1 + 0x428] = t1\n 17991: u64 [s1 + 0x420] = t0\n 17995: a0 = s1 + 0x440\n 17999: a1 = s1 + 0x420\n 18003: a2 = s1 + 0x400\n 18007: u64 [s1 + 0x418] = t2\n 18011: ra = 736, jump @948\n      : @692 [@dyn 368] (gas: 3)\n 18017: a0 = s1 + 0x3e0\n 18021: a1 = 0x40\n 18024: ra = 738, jump @2\n      : @693 [@dyn 369] (gas: 13)\n 18030: a4 = s1 + 0x300\n 18034: a0 = u64 [a4 + 0xf8]\n 18038: a1 = u64 [a4 + 0xf0]\n 18042: a2 = u64 [a4 + 0xe8]\n 18046: a3 = u64 [a4 + 0xe0]\n 18050: a0 = a0 | a2\n 18053: a2 = a3 | a1\n 18056: a2 = a2 | a0\n 18059: a2 = a2 >> 0x20\n 18062: a0 = a0 | a1\n 18065: a0 = a0 << 0x20\n 18068: a0 = a0 | a2\n 18071: jump @695 if a0 == 0\n      : @694 (gas: 1)\n 18074: jump @533\n      : @695 (gas: 12)\n 18077: a0 = u64 [s1 + 0x68]\n 18080: u64 [s1 + 0x3c0] = a0\n 18084: a0 = u64 [s1 + 0x78]\n 18087: u64 [s1 + 0x3c8] = a0\n 18091: a0 = u64 [s1 + 0x80]\n 18095: u64 [s1 + 0x3d0] = a0\n 18099: a1 = s1 + 0x3c0\n 18103: a0 = u64 [s1 + 0x88]\n 18107: u64 [s1 + 0x3d8] = a0\n 18111: a0 = a3\n 18113: u64 [s1 + 0xd8] = a3\n 18117: ra = 740, jump @4\n      : @696 [@dyn 370] (gas: 6)\n 18123: a0 = u64 [s1 + 0x70]\n 18126: ra = 0x2e6\n 18130: ecalli 5 // 'caller'\n 18132: a2 = u64 [s1 + 0xb0]\n 18136: t0 = 0x2e8\n 18140: jump @997\n      : @697 [@dyn 371] (gas: 2)\n 18143: a2 = u64 [s1 + 0xb0]\n 18147: t0 = 744, jump @997\n      : @698 [@dyn 372] (gas: 24)\n 18153: t0 = a1 | a0\n 18156: a3 = a3 >> 0x20\n 18159: a2 = reverse a2\n 18161: a1 = a2 << 0x20\n 18164: a1 = a1 | a3\n 18167: a2 = a2 >> 0x20\n 18170: u64 [s1 + 920] = 0\n 18174: a3 = u64 [0x201d8]\n 18179: a4 = u64 [0x201e0]\n 18184: a5 = u64 [0x201e8]\n 18189: a0 = u64 [0x201f0]\n 18194: u64 [s1 + 0x3b8] = a3\n 18198: a3 = s1 + 0x300\n 18202: u64 [a3 + 0xb0] = a4\n 18206: u64 [a3 + 0xa8] = a5\n 18210: u64 [a3 + 0xa0] = a0\n 18214: u64 [a3 + 0x90] = a2\n 18218: u64 [a3 + 0x88] = a1\n 18222: a1 = 0x20\n 18225: a2 = s1 + 0x3a0\n 18229: a3 = s1 + 0x380\n 18233: u64 [s1 + 0x380] = t0\n 18237: a0 = u64 [s1 + 0xd8]\n 18241: ra = 746, jump @10\n      : @699 [@dyn 373] (gas: 5)\n 18247: a0 = 0\n 18249: a1 = u64 [s1 + 0x60]\n 18252: a2 = 0\n 18254: ecalli 12 // 'seal_return'\n 18256: jump @863\n      : @700 (gas: 5)\n 18259: a0 = u64 [s1 + 0xd8]\n 18263: a2 = a0 + 0xffffffffffffff80\n 18266: a0 = u64 [s1 + 0x80]\n 18270: a1 = u64 [s1 + 0x90]\n 18274: ra = 748, jump @1034\n      : @701 [@dyn 374] (gas: 6)\n 18280: u64 [s1 + 0x78] = a0\n 18283: u64 [s1 + 0x68] = a1\n 18286: a0 = u64 [s1 + 0x88]\n 18290: a1 = u64 [s1 + 0x98]\n 18294: a2 = u64 [s1 + 0xd8]\n 18298: ra = 750, jump @1034\n      : @702 [@dyn 375] (gas: 7)\n 18304: u64 [s1 + 0x20] = a0\n 18307: u64 [s1 + 0x70] = a1\n 18310: a1 = u64 [s1 + 0xd8]\n 18314: a2 = 0x80 - a1\n 18318: a0 = u64 [s1 + 0x80]\n 18322: a1 = u64 [s1 + 0x90]\n 18326: ra = 752, jump @1039\n      : @703 [@dyn 376] (gas: 21)\n 18332: a2 = u64 [s1 + 0x70]\n 18335: a1 = a1 | a2\n 18338: a3 = u64 [s1 + 0xd8]\n 18342: a4 = a3 <u 0x80\n 18346: u64 [s1 + 0x70] = a4\n 18349: a2 = u64 [s1 + 0x68]\n 18352: a1 = a2 if a4 == 0\n 18355: a2 = u64 [s1 + 0x98]\n 18359: a2 = a1 if a3 != 0\n 18362: u64 [s1 + 0x98] = a2\n 18366: a1 = u64 [s1 + 0x20]\n 18369: a0 = a0 | a1\n 18372: a1 = u64 [s1 + 0x78]\n 18375: a0 = a1 if a4 == 0\n 18378: a1 = u64 [s1 + 0x88]\n 18382: a1 = a0 if a3 != 0\n 18385: a2 = a3\n 18387: u64 [s1 + 0x88] = a1\n 18391: a0 = u64 [s1 + 0x80]\n 18395: a1 = u64 [s1 + 0x90]\n 18399: ra = 754, jump @1034\n      : @704 [@dyn 377] (gas: 9)\n 18405: a5 = 0\n 18407: a2 = u64 [s1 + 0x70]\n 18410: a1 = 0 if a2 == 0\n 18412: a0 = 0 if a2 == 0\n 18414: u64 [s1 + 112] = 0x63\n 18418: u64 [s1 + 104] = 0\n 18421: t2 = u64 [s1 + 0x98]\n 18425: t0 = u64 [s1 + 0x88]\n 18429: fallthrough\n      : @705 (gas: 90)\n 18430: u64 [s1 + 0x88] = a1\n 18434: u64 [s1 + 0x90] = a5\n 18438: u64 [s1 + 120] = 0\n 18441: a2 = t0 >> 0x3f\n 18444: a3 = t2 << 0x1\n 18447: a3 = a3 | a2\n 18450: a2 = t0 << 0x1\n 18453: ra = u64 [s1 + 0xc0]\n 18457: a4 = ra >> 0x3f\n 18460: a4 = a4 | a2\n 18463: u64 [s1 + 0x98] = a4\n 18467: a2 = u64 [s1 + 0x68]\n 18470: a1 = a2 ^ a3\n 18473: u64 [s1 + 0x80] = a1\n 18477: a1 = a2 <u a3\n 18480: a5 = u64 [s1 + 0x70]\n 18483: t0 = a5 <u a4\n 18486: a4 = u64 [s1 + 0x80]\n 18490: t0 = a1 if a4 != 0\n 18493: a1 = u64 [s1 + 0x88]\n 18497: a1 = a1 << 0x1\n 18500: a4 = a0 >> 0x3f\n 18503: a1 = a1 | a4\n 18506: u64 [s1 + 0x88] = a1\n 18510: a4 = t2 >> 0x3f\n 18513: a0 = a0 << 0x1\n 18516: a4 = a4 | a0\n 18519: a0 = ra << 0x1\n 18522: a1 = u64 [s1 + 0xc8]\n 18526: a5 = a1 >> 0x3f\n 18529: a0 = a0 | a5\n 18532: u64 [s1 + 0xc0] = a0\n 18536: a5 = a1 << 0x1\n 18539: a0 = u64 [s1 + 0xb8]\n 18543: a1 = a0 >> 0x3f\n 18546: t2 = a5 | a1\n 18549: a5 = a0 << 0x1\n 18552: a0 = u64 [s1 + 0xd0]\n 18556: ra = a0 >> 0x3f\n 18559: a5 = a5 | ra\n 18562: a0 = a0 << 0x1\n 18565: a1 = u64 [s1 + 0x90]\n 18569: a0 = a0 | a1\n 18572: u64 [s1 + 0xd0] = a0\n 18576: a0 = a5 | 0\n 18578: u64 [s1 + 0xb8] = a0\n 18582: a0 = t2 | 0\n 18584: u64 [s1 + 0xc8] = a0\n 18588: a0 = u64 [s1 + 0xc0]\n 18592: a0 = a0 | 0\n 18594: u64 [s1 + 0xc0] = a0\n 18598: a0 = a2 - a4\n 18601: a0 = a0 <u t0\n 18604: a1 = a2 <u a4\n 18607: t1 = u64 [s1 + 0x88]\n 18611: a5 = a2 - t1\n 18614: a5 = a5 - a1\n 18617: a5 = a5 - a0\n 18620: ra = a5 >>a 0x3f\n 18623: a0 = ra & 0x64\n 18626: a1 = u64 [s1 + 0x98]\n 18630: t0 = a1 - a0\n 18633: a1 = a1 <u a0\n 18636: t2 = a3 - a1\n 18639: a1 = 0 if a3 != 0\n 18641: a0 = a4 - a1\n 18644: a1 = a4 <u a1\n 18647: a1 = t1 - a1\n 18650: a3 = u64 [s1 + 0xd8]\n 18654: a5 = u64 [s1 + 0xb0]\n 18658: a2 = a3 | a5\n 18661: a2 = a2 <u 0x1\n 18664: a4 = u64 [s1 + 0xa0]\n 18668: t1 = a4 <u a2\n 18671: a4 = a4 - a2\n 18674: a2 = a3 <u 0x1\n 18677: a5 = a5 - a2\n 18680: a2 = u64 [s1 + 0xa8]\n 18684: a2 = a2 - t1\n 18687: a3 = a3 + 0xffffffffffffffff\n 18690: u64 [s1 + 0xb0] = a5\n 18694: u64 [s1 + 0xa8] = a2\n 18698: a2 = a2 | a5\n 18701: u64 [s1 + 0xd8] = a3\n 18705: a3 = a3 | a4\n 18708: a2 = a2 | a3\n 18711: a5 = ra & 0x1\n 18714: u64 [s1 + 0xa0] = a4\n 18718: t1 = 0\n 18720: jump @705 if a2 != 0\n      : @706 (gas: 20)\n 18724: a2 = u64 [s1 + 0xc8]\n 18728: a0 = a2 >> 0x3f\n 18731: a1 = u64 [s1 + 0xc0]\n 18735: a1 = a1 << 0x1\n 18738: t0 = a1 | a0\n 18741: a0 = u64 [s1 + 0xb8]\n 18745: a1 = a0 >> 0x3f\n 18748: a2 = a2 << 0x1\n 18751: a2 = a2 | a1\n 18754: a1 = u64 [s1 + 0xd0]\n 18758: a3 = a1 >> 0x3f\n 18761: a0 = a0 << 0x1\n 18764: a1 = a1 << 0x1\n 18767: a4 = a5 | a1\n 18770: a1 = u64 [s1 + 0x78]\n 18773: a5 = a1 | a3\n 18776: a5 = a5 | a0\n 18779: a3 = a1 | a2\n 18782: a2 = a1 | t0\n 18785: fallthrough\n      : @707 (gas: 16)\n 18786: a0 = u64 [s1 + 0x40]\n 18789: a0 = a4 <u a0\n 18792: a4 = u64 [s1 + 0x48]\n 18795: a1 = a5 ^ a4\n 18798: a4 = a5 <u a4\n 18801: a4 = a0 if a1 == 0\n 18804: a0 = u64 [s1 + 0x50]\n 18807: t0 = a3 <u a0\n 18810: a5 = u64 [s1 + 0x58]\n 18813: a1 = a2 ^ a5\n 18816: a2 = a2 <u a5\n 18819: a2 = t0 if a1 == 0\n 18822: a0 = a0 ^ a3\n 18825: a0 = a0 | a1\n 18828: a2 = a4 if a0 == 0\n 18831: jump @724 if a2 == 0\n      : @708 (gas: 4)\n 18835: a0 = s1 + 0x7ff\n 18839: a0 = a0 + 0x3e1\n 18843: a1 = 0x40\n 18846: ra = 756, jump @2\n      : @709 [@dyn 378] (gas: 15)\n 18852: a2 = s1 + 0x7ff\n 18856: a2 = a2 + 0x59\n 18859: t0 = u64 [a2 + 0x3a0]\n 18863: a1 = a2 + 0x300\n 18867: a5 = u64 [a1 + 0x98]\n 18871: a4 = u64 [a1 + 0x90]\n 18875: a0 = u64 [a1 + 0x88]\n 18879: a3 = a4 | t0\n 18882: a1 = a0 | a5\n 18885: a1 = a1 | a3\n 18888: a1 = a1 >> 0x20\n 18891: a3 = a3 | a5\n 18894: a3 = a3 << 0x20\n 18897: a1 = a1 | a3\n 18900: jump @711 if a1 == 0\n      : @710 (gas: 1)\n 18903: jump @533\n      : @711 (gas: 12)\n 18906: u64 [a2 + 888] = 0\n 18910: u64 [a2 + 880] = 0\n 18914: u64 [a2 + 872] = 0\n 18918: a3 = 0x8c379a000000000\n 18928: a1 = s1 + 0x7ff\n 18932: a1 = a1 + 0x3c1\n 18936: u64 [a2 + 0x380] = a3\n 18940: u64 [s1 + 0xd8] = a0\n 18944: u64 [s1 + 0xd0] = a4\n 18948: u64 [s1 + 0xc0] = t0\n 18952: u64 [s1 + 0xc8] = a5\n 18956: ra = 758, jump @4\n      : @712 [@dyn 379] (gas: 1)\n 18962: t0 = 760, jump @992\n      : @713 [@dyn 380] (gas: 1)\n 18968: jump @715 if a0 != 0\n      : @714 (gas: 1)\n 18971: jump @533\n      : @715 (gas: 13)\n 18974: i32 a0 = a1 + 0x4\n 18977: a2 = s1 + 0x7ff\n 18981: a2 = a2 + 0x59\n 18984: u64 [a2 + 864] = 0\n 18988: u64 [a2 + 856] = 0\n 18992: u64 [a2 + 848] = 0\n 18996: a5 = 0x20\n 18999: a1 = s1 + 0x7ff\n 19003: a1 = a1 + 0x3a1\n 19007: u64 [a2 + 0x348] = a5\n 19011: u64 [s1 + 0xc8] = a3\n 19015: u64 [s1 + 0xc0] = a4\n 19019: ra = 762, jump @4\n      : @716 [@dyn 381] (gas: 1)\n 19025: t0 = 764, jump @1018\n      : @717 [@dyn 382] (gas: 1)\n 19031: jump @719 if a0 != 0\n      : @718 (gas: 1)\n 19034: jump @533\n      : @719 (gas: 10)\n 19037: i32 a0 = a1 + 0x24\n 19040: a2 = s1 + 0x7ff\n 19044: a2 = a2 + 0x59\n 19047: u64 [a2 + 832] = 0\n 19051: u64 [a2 + 824] = 0\n 19055: u64 [a2 + 808] = 0x20\n 19060: a1 = s1 + 0x7ff\n 19064: a1 = a1 + 0x381\n 19068: u64 [a2 + 816] = 0\n 19072: ra = 766, jump @4\n      : @720 [@dyn 383] (gas: 1)\n 19078: t0 = 768, jump @1015\n      : @721 [@dyn 384] (gas: 1)\n 19084: jump @723 if a0 != 0\n      : @722 (gas: 1)\n 19087: jump @533\n      : @723 (gas: 16)\n 19090: i32 a0 = a3 + 0x44\n 19093: a1 = u64 [0x20178]\n 19098: a4 = s1 + 0x7ff\n 19102: a4 = a4 + 0x59\n 19105: a5 = a4 + 0x300\n 19109: u64 [a5 + 0x20] = a1\n 19112: a1 = u64 [0x20180]\n 19117: a2 = u64 [0x20188]\n 19122: a3 = u64 [0x20190]\n 19127: u64 [a5 + 0x18] = a1\n 19130: u64 [a5 + 0x10] = a2\n 19133: a1 = s1 + 0x7ff\n 19137: a1 = a1 + 0x361\n 19141: u64 [a5 + 0x8] = a3\n 19144: ra = 0x1ae\n 19148: jump @4\n      : @724 (gas: 5)\n 19151: a0 = u64 [s1 + 0x38]\n 19154: ra = 0x302\n 19158: ecalli 5 // 'caller'\n 19160: t0 = 0x304\n 19164: jump @998\n      : @725 [@dyn 385] (gas: 1)\n 19167: t0 = 772, jump @998\n      : @726 [@dyn 386] (gas: 7)\n 19173: u64 [a2 + 64] = 0\n 19176: u64 [a2 + 0x38] = a1\n 19179: u64 [a2 + 0x30] = a0\n 19182: a1 = s1 + 0x1080\n 19186: u64 [a2 + 0x28] = a3\n 19189: a0 = 0\n 19191: ra = 774, jump @4\n      : @727 [@dyn 387] (gas: 9)\n 19197: a0 = s1 + 0x1058\n 19201: u64 [a0 + 32] = 0\n 19204: u64 [a0 + 24] = 0\n 19207: u64 [a0 + 16] = 0\n 19210: a3 = a0\n 19212: a0 = 0x20\n 19215: a1 = s1 + 0x1060\n 19219: u64 [a3 + 8] = 0x4\n 19223: ra = 776, jump @4\n      : @728 [@dyn 388] (gas: 3)\n 19229: a1 = u64 [s1 + 0x28]\n 19232: a0 = i32 [a1]\n 19234: jump @730 if a0 >u 63\n      : @729 (gas: 2)\n 19238: u32 [a1 + 0] = 0x40\n 19241: fallthrough\n      : @730 (gas: 4)\n 19242: a0 = sp + 0xffffffffffffffe0\n 19245: a0 = a0 & 0xffffffffffffffe0\n 19248: u64 [s1 + 0xd8] = a0\n 19252: t0 = 778, jump @1026\n      : @731 [@dyn 389] (gas: 5)\n 19258: ra = 0x30c\n 19262: ecalli 8 // 'hash_keccak_256'\n 19264: a3 = u64 [s1 + 0xd8]\n 19268: t0 = 0x30e\n 19272: jump @1000\n      : @732 [@dyn 390] (gas: 2)\n 19275: a3 = u64 [s1 + 0xd8]\n 19279: t0 = 782, jump @1000\n      : @733 [@dyn 391] (gas: 8)\n 19285: a5 = a4 + 0x600\n 19289: u64 [a5 + 0x20] = a3\n 19292: u64 [a5 + 0x18] = a2\n 19295: u64 [a5 + 0x10] = a1\n 19298: u64 [a5 + 0x8] = a0\n 19301: a0 = s1 + 0x1040\n 19305: a1 = s1 + 0x2660\n 19309: ra = 784, jump @6\n      : @734 [@dyn 392] (gas: 15)\n 19315: a0 = s1 + 0x1058\n 19319: a1 = u64 [a0]\n 19321: u64 [s1 + 0xb8] = a1\n 19325: a2 = a0 + 0xffffffffffffff00\n 19329: a1 = u64 [a2 + 0xf8]\n 19333: u64 [s1 + 0xb0] = a1\n 19337: a1 = u64 [a2 + 0xf0]\n 19341: u64 [s1 + 0xa8] = a1\n 19345: a0 = u64 [a2 + 0xe8]\n 19349: u64 [s1 + 0xa0] = a0\n 19353: a0 = u64 [s1 + 0x38]\n 19356: ra = 0x312\n 19360: ecalli 5 // 'caller'\n 19362: t0 = 0x314\n 19366: jump @1005\n      : @735 [@dyn 393] (gas: 1)\n 19369: t0 = 788, jump @1005\n      : @736 [@dyn 394] (gas: 8)\n 19375: u64 [a2 + 2016] = 0\n 19379: a4 = a2 + 0x700\n 19383: u64 [a4 + 0xd8] = a1\n 19387: u64 [a4 + 0xd0] = a0\n 19391: a1 = s1 + 0x1020\n 19395: u64 [a4 + 0xc8] = a3\n 19399: a0 = 0\n 19401: ra = 790, jump @4\n      : @737 [@dyn 395] (gas: 10)\n 19407: a1 = s1 + 0x7ff\n 19411: a1 = a1 + 0x59\n 19414: u64 [a1 + 1984] = 0\n 19418: u64 [a1 + 1976] = 0\n 19422: u64 [a1 + 1960] = 0x4\n 19427: a2 = a1\n 19429: a0 = 0x20\n 19432: a1 = s1 + 0x1000\n 19436: u64 [a2 + 1968] = 0\n 19440: ra = 792, jump @4\n      : @738 [@dyn 396] (gas: 7)\n 19446: a1 = u64 [s1 + 0x28]\n 19449: a0 = sp + 0xffffffffffffffe0\n 19452: a0 = a0 & 0xffffffffffffffe0\n 19455: u64 [s1 + 0xd8] = a0\n 19459: sp = a0\n 19461: a0 = i32 [a1]\n 19463: jump @740 if a0 >u 63\n      : @739 (gas: 2)\n 19467: u32 [a1 + 0] = 0x40\n 19470: fallthrough\n      : @740 (gas: 4)\n 19471: a0 = sp + 0xffffffffffffffe0\n 19474: a0 = a0 & 0xffffffffffffffe0\n 19477: u64 [s1 + 0xd0] = a0\n 19481: t0 = 794, jump @1026\n      : @741 [@dyn 397] (gas: 5)\n 19487: ra = 0x31c\n 19491: ecalli 8 // 'hash_keccak_256'\n 19493: a3 = u64 [s1 + 0xd0]\n 19497: t0 = 0x31e\n 19501: jump @1002\n      : @742 [@dyn 398] (gas: 2)\n 19504: a3 = u64 [s1 + 0xd0]\n 19508: t0 = 798, jump @1002\n      : @743 [@dyn 399] (gas: 3)\n 19514: a0 = s1 + 0x7ff\n 19518: a0 = a0 + 0x7e1\n 19522: ra = 800, jump @6\n      : @744 [@dyn 400] (gas: 26)\n 19528: a5 = s1 + 0x7ff\n 19532: a5 = a5 + 0x59\n 19535: a3 = u64 [a5 + 0x788]\n 19539: a0 = u64 [a5 + 0x790]\n 19543: a1 = u64 [a5 + 0x798]\n 19547: a2 = u64 [a5 + 0x7a0]\n 19551: a4 = u64 [s1 + 0xb8]\n 19555: u64 [a5 + 0x740] = a4\n 19559: a4 = u64 [s1 + 0xb0]\n 19563: u64 [a5 + 0x738] = a4\n 19567: a4 = u64 [s1 + 0xa8]\n 19571: u64 [a5 + 0x730] = a4\n 19575: a4 = u64 [s1 + 0xa0]\n 19579: u64 [a5 + 0x728] = a4\n 19583: a4 = a5 + 0x700\n 19587: u64 [a4 + 0x60] = a2\n 19590: u64 [a4 + 0x58] = a1\n 19593: u64 [a4 + 0x50] = a0\n 19596: a0 = s1 + 0x7ff\n 19600: a0 = a0 + 0x7c1\n 19604: a1 = s1 + 0x7ff\n 19608: a1 = a1 + 0x7a1\n 19612: a2 = s1 + 0x7ff\n 19616: a2 = a2 + 0x781\n 19620: u64 [a4 + 0x48] = a3\n 19623: ra = 802, jump @941\n      : @745 [@dyn 401] (gas: 16)\n 19629: a3 = s1 + 0x7ff\n 19633: a3 = a3 + 0x59\n 19636: a4 = a3 + 0x700\n 19640: a0 = u64 [a4 + 0x80]\n 19644: a1 = u64 [a4 + 0x78]\n 19647: a2 = u64 [a4 + 0x70]\n 19650: a3 = u64 [a4 + 0x68]\n 19653: a4 = s1 + 0x2058\n 19657: a5 = a4 + 0x600\n 19661: u64 [a5 + 0x40] = a0\n 19664: u64 [a5 + 0x38] = a1\n 19667: u64 [a5 + 0x30] = a2\n 19670: u64 [a5 + 0x28] = a3\n 19673: a1 = s1 + 0x2680\n 19677: a0 = u64 [s1 + 0xd8]\n 19681: ra = 804, jump @7\n      : @746 [@dyn 402] (gas: 4)\n 19687: a0 = s1 + 0x7ff\n 19691: a0 = a0 + 0x761\n 19695: a1 = 0x40\n 19698: ra = 806, jump @2\n      : @747 [@dyn 403] (gas: 19)\n 19704: a0 = s1 + 0x7ff\n 19708: a0 = a0 + 0x59\n 19711: a5 = a0 + 0x700\n 19715: a1 = u64 [a5 + 0x20]\n 19718: u64 [s1 + 0xc8] = a1\n 19722: a2 = u64 [a5 + 0x18]\n 19725: u64 [s1 + 0xc0] = a2\n 19729: a4 = u64 [a5 + 0x10]\n 19732: u64 [s1 + 0xd0] = a4\n 19736: a3 = u64 [a5 + 0x8]\n 19739: u64 [s1 + 0xd8] = a3\n 19743: u64 [a5] = a1\n 19745: u64 [a0 + 0x6f8] = a2\n 19749: u64 [a0 + 0x6f0] = a4\n 19753: a1 = a0\n 19755: a0 = s1 + 0x7ff\n 19759: a0 = a0 + 0x741\n 19763: u64 [a1 + 0x6e8] = a3\n 19767: ra = 808, jump @923\n      : @748 [@dyn 404] (gas: 13)\n 19773: a0 = u64 [s1 + 0xc8]\n 19777: a1 = u64 [s1 + 0xd0]\n 19781: a0 = a0 | a1\n 19784: a1 = u64 [s1 + 0xd8]\n 19788: a3 = a1\n 19790: a2 = u64 [s1 + 0xc0]\n 19794: a1 = a1 | a2\n 19797: a1 = a1 | a0\n 19800: a1 = a1 >> 0x20\n 19803: a0 = a0 | a2\n 19806: a0 = a0 << 0x20\n 19809: a0 = a0 | a1\n 19812: jump @750 if a0 == 0\n      : @749 (gas: 1)\n 19815: jump @533\n      : @750 (gas: 15)\n 19818: a0 = u64 [s1 + 0x40]\n 19821: a2 = s1 + 0x7ff\n 19825: a2 = a2 + 0x59\n 19828: a4 = a2 + 0x600\n 19832: u64 [a4 + 0xc8] = a0\n 19836: a0 = u64 [s1 + 0x48]\n 19839: u64 [a4 + 0xd0] = a0\n 19843: a0 = u64 [s1 + 0x50]\n 19846: u64 [a4 + 0xd8] = a0\n 19850: a1 = s1 + 0x7ff\n 19854: a1 = a1 + 0x721\n 19858: a0 = u64 [s1 + 0x58]\n 19861: u64 [a4 + 0xe0] = a0\n 19865: a0 = a3\n 19867: ra = 810, jump @4\n      : @751 [@dyn 405] (gas: 11)\n 19873: a0 = u64 [s1 + 0xc8]\n 19877: a1 = u64 [s1 + 0xc0]\n 19881: a2 = a1 | a0\n 19884: a3 = 0x100000000\n 19894: a0 = 0xffffffe0\n 19904: a4 = u64 [s1 + 0xd8]\n 19908: a0 = a4 <u a0\n 19911: a1 = u64 [s1 + 0xd0]\n 19915: a0 = 0 if a1 != 0\n 19917: a0 = 0 if a2 != 0\n 19919: jump @753 if a0 != 0\n      : @752 (gas: 1)\n 19922: jump @533\n      : @753 (gas: 19)\n 19925: u64 [s1 + 0xc0] = a3\n 19929: i32 a3 = a4 + 0x20\n 19932: a0 = u64 [s1 + 0xa0]\n 19936: u64 [s1 + 0xc8] = a2\n 19940: a2 = s1 + 0x7ff\n 19944: a2 = a2 + 0x59\n 19947: a4 = a2 + 0x600\n 19951: u64 [a4 + 0xa8] = a0\n 19955: a0 = u64 [s1 + 0xa8]\n 19959: u64 [a4 + 0xb0] = a0\n 19963: a0 = u64 [s1 + 0xb0]\n 19967: u64 [a4 + 0xb8] = a0\n 19971: a1 = s1 + 0x7ff\n 19975: a1 = a1 + 0x701\n 19979: a0 = u64 [s1 + 0xb8]\n 19983: u64 [a4 + 0xc0] = a0\n 19987: u64 [s1 + 0xb8] = a3\n 19991: a0 = a3\n 19993: ra = 812, jump @4\n      : @754 [@dyn 406] (gas: 9)\n 19999: a1 = u64 [s1 + 0xd8]\n 20003: a0 = u64 [s1 + 0xc0]\n 20007: a0 = a0 + 0xffffffffffffffc0\n 20010: a0 = a1 <u a0\n 20013: a2 = u64 [s1 + 0xd0]\n 20017: a0 = 0 if a2 != 0\n 20019: a2 = u64 [s1 + 0xc8]\n 20023: a0 = 0 if a2 != 0\n 20025: jump @756 if a0 != 0\n      : @755 (gas: 1)\n 20028: jump @533\n      : @756 (gas: 11)\n 20031: i32 a0 = a1 + 0x40\n 20034: a3 = s1 + 0x7ff\n 20038: a3 = a3 + 0x59\n 20041: u64 [a3 + 1696] = 0\n 20045: u64 [a3 + 1688] = 0\n 20049: u64 [a3 + 1680] = 0\n 20053: a1 = s1 + 0x7ff\n 20057: a1 = a1 + 0x6e1\n 20061: u64 [a3 + 1672] = 0x1\n 20066: u64 [s1 + 0xa0] = a0\n 20070: ra = 814, jump @4\n      : @757 [@dyn 407] (gas: 5)\n 20076: a0 = u64 [s1 + 0x38]\n 20079: ra = 0x330\n 20083: ecalli 5 // 'caller'\n 20085: t0 = 0x332\n 20089: jump @1005\n      : @758 [@dyn 408] (gas: 1)\n 20092: t0 = 818, jump @1005\n      : @759 [@dyn 409] (gas: 9)\n 20098: u64 [a2 + 1664] = 0\n 20102: a4 = a2 + 0x600\n 20106: u64 [a4 + 0x78] = a1\n 20109: u64 [a4 + 0x70] = a0\n 20112: a1 = s1 + 0x7ff\n 20116: a1 = a1 + 0x6c1\n 20120: u64 [a4 + 0x68] = a3\n 20123: a0 = 0\n 20125: ra = 820, jump @4\n      : @760 [@dyn 410] (gas: 11)\n 20131: a1 = s1 + 0x7ff\n 20135: a1 = a1 + 0x59\n 20138: u64 [a1 + 1632] = 0\n 20142: u64 [a1 + 1624] = 0\n 20146: u64 [a1 + 1608] = 0x5\n 20151: a2 = a1\n 20153: a0 = 0x20\n 20156: a1 = s1 + 0x7ff\n 20160: a1 = a1 + 0x6a1\n 20164: u64 [a2 + 1616] = 0\n 20168: ra = 822, jump @4\n      : @761 [@dyn 411] (gas: 7)\n 20174: a0 = sp + 0xffffffffffffffe0\n 20177: a0 = a0 & 0xffffffffffffffe0\n 20180: u64 [s1 + 0xb0] = a0\n 20184: sp = a0\n 20186: a2 = u64 [s1 + 0x28]\n 20189: a0 = i32 [a2]\n 20191: jump @763 if a0 >u 63\n      : @762 (gas: 2)\n 20195: u32 [a2 + 0] = 0x40\n 20198: fallthrough\n      : @763 (gas: 4)\n 20199: a0 = sp + 0xffffffffffffffe0\n 20202: a0 = a0 & 0xffffffffffffffe0\n 20205: u64 [s1 + 0xd0] = a0\n 20209: t0 = 824, jump @1026\n      : @764 [@dyn 412] (gas: 23)\n 20215: ecalli 8 // 'hash_keccak_256'\n 20217: a3 = u64 [s1 + 0xd0]\n 20221: a0 = u64 [a3 + 0x18]\n 20224: a1 = u64 [a3 + 0x10]\n 20227: a2 = u64 [a3 + 0x8]\n 20230: a3 = u64 [a3]\n 20232: a4 = reverse a0\n 20234: u64 [s1 + 0xc0] = a4\n 20238: a1 = reverse a1\n 20240: u64 [s1 + 0xc8] = a1\n 20244: a2 = reverse a2\n 20246: u64 [s1 + 0xa8] = a2\n 20250: a0 = reverse a3\n 20252: u64 [s1 + 0xd0] = a0\n 20256: a3 = u64 [s1 + 0xb0]\n 20260: u64 [a3 + 0x18] = a0\n 20263: u64 [a3 + 0x10] = a2\n 20266: u64 [a3 + 0x8] = a1\n 20269: u64 [a3] = a4\n 20271: a0 = s1 + 0x7ff\n 20275: a0 = a0 + 0x681\n 20279: a1 = u64 [s1 + 0xd8]\n 20283: ra = 826, jump @2\n      : @765 [@dyn 413] (gas: 16)\n 20289: a3 = s1 + 0x7ff\n 20293: a3 = a3 + 0x59\n 20296: a4 = a3 + 0x600\n 20300: a0 = u64 [a4 + 0x40]\n 20303: a1 = u64 [a4 + 0x38]\n 20306: a2 = u64 [a4 + 0x30]\n 20309: a3 = u64 [a4 + 0x28]\n 20312: a4 = s1 + 0x2058\n 20316: a5 = a4 + 0x600\n 20320: u64 [a5 + 0x60] = a0\n 20323: u64 [a5 + 0x58] = a1\n 20326: u64 [a5 + 0x50] = a2\n 20329: u64 [a5 + 0x48] = a3\n 20332: a1 = s1 + 0x26a0\n 20336: a0 = u64 [s1 + 0xb0]\n 20340: ra = 828, jump @7\n      : @766 [@dyn 414] (gas: 4)\n 20346: a0 = s1 + 0x7ff\n 20350: a0 = a0 + 0x661\n 20354: a1 = u64 [s1 + 0xb8]\n 20358: ra = 830, jump @2\n      : @767 [@dyn 415] (gas: 31)\n 20364: a0 = s1 + 0x7ff\n 20368: a0 = a0 + 0x59\n 20371: t0 = u64 [a0 + 0x608]\n 20375: t1 = u64 [a0 + 0x610]\n 20379: t2 = u64 [a0 + 0x618]\n 20383: a3 = u64 [a0 + 0x620]\n 20387: a0 = u64 [s1 + 0xc0]\n 20391: a0 = a0 + 0x1\n 20394: a5 = a0 <u 0x1\n 20397: a1 = u64 [s1 + 0xc8]\n 20401: a5 = a5 + a1\n 20404: a4 = a0 | a5\n 20407: a4 = a4 <u 0x1\n 20410: a1 = u64 [s1 + 0xa8]\n 20414: a4 = a4 + a1\n 20417: a1 = a4 <u a1\n 20420: a2 = u64 [s1 + 0xd0]\n 20424: a1 = a1 + a2\n 20427: a2 = s1 + 0x2058\n 20431: u64 [a2 + 0x680] = a1\n 20435: a1 = a2 + 0x600\n 20439: u64 [a1 + 0x78] = a4\n 20442: u64 [a1 + 0x70] = a5\n 20445: u64 [a1 + 0x68] = a0\n 20448: u64 [a1 + 0xa0] = a3\n 20452: u64 [a2 + 0x698] = t2\n 20456: u64 [a2 + 0x690] = t1\n 20460: u64 [a2 + 0x688] = t0\n 20464: a0 = s1 + 0x26c0\n 20468: a1 = s1 + 0x26e0\n 20472: ra = 832, jump @7\n      : @768 [@dyn 416] (gas: 8)\n 20478: a0 = sp + 0xffffffffffffffe0\n 20481: a5 = a0 & 0xffffffffffffffe0\n 20484: sp = a5\n 20486: a1 = u64 [s1 + 0xc0]\n 20490: a0 = a1 + 0x2\n 20493: a1 = a0 <u a1\n 20496: a3 = u64 [s1 + 0xc8]\n 20500: t0 = 834, jump @1025\n      : @769 [@dyn 417] (gas: 11)\n 20506: a4 = u64 [s1 + 0xd0]\n 20510: a1 = a1 + a4\n 20513: u64 [s1 + 0xd8] = a5\n 20517: u64 [a5 + 0x18] = a1\n 20520: u64 [a5 + 0x10] = a3\n 20523: u64 [a5 + 0x8] = a2\n 20526: u64 [a5] = a0\n 20528: a0 = s1 + 0x7ff\n 20532: a0 = a0 + 0x641\n 20536: a1 = u64 [s1 + 0xa0]\n 20540: ra = 836, jump @2\n      : @770 [@dyn 418] (gas: 16)\n 20546: a3 = s1 + 0x7ff\n 20550: a3 = a3 + 0x59\n 20553: a4 = a3 + 0x500\n 20557: a0 = u64 [a4 + 0xf8]\n 20561: a1 = u64 [a3 + 0x600]\n 20565: a2 = u64 [a4 + 0xf0]\n 20569: a3 = u64 [a4 + 0xe8]\n 20573: a1 = a1 | a2\n 20576: a0 = a0 | a3\n 20579: a0 = a0 | a1\n 20582: a0 = a0 >u 0\n 20584: u64 [s1 + 0xd0] = a0\n 20588: a0 = s1 + 0x7ff\n 20592: a0 = a0 + 0x621\n 20596: a1 = u64 [s1 + 0xd8]\n 20600: ra = 838, jump @6\n      : @771 [@dyn 419] (gas: 19)\n 20606: a3 = s1 + 0x7ff\n 20610: a3 = a3 + 0x59\n 20613: a4 = a3 + 0x500\n 20617: a0 = u64 [a4 + 0xc8]\n 20621: a1 = u64 [a4 + 0xd0]\n 20625: a2 = u64 [a4 + 0xe0]\n 20629: a3 = u64 [a4 + 0xd8]\n 20633: a0 = a0 & 0xffffffffffffff00\n 20637: a4 = u64 [s1 + 0xd0]\n 20641: a0 = a0 | a4\n 20644: a4 = s1 + 0x2058\n 20648: a5 = a4 + 0x600\n 20652: u64 [a5 + 0xc0] = a2\n 20656: u64 [a5 + 0xb8] = a3\n 20660: u64 [a5 + 0xb0] = a1\n 20664: u64 [a5 + 0xa8] = a0\n 20668: a1 = s1 + 0x2700\n 20672: a0 = u64 [s1 + 0xd8]\n 20676: ra = 840, jump @7\n      : @772 [@dyn 420] (gas: 10)\n 20682: a0 = s1 + 0x2058\n 20686: u64 [a0 + 1760] = 0\n 20690: u64 [a0 + 1752] = 0\n 20694: u64 [a0 + 1744] = 0\n 20698: a1 = a0\n 20700: u64 [a1 + 1736] = 0x2\n 20705: a0 = s1 + 0x7ff\n 20709: a0 = a0 + 0x601\n 20713: a1 = s1 + 0x2720\n 20717: ra = 842, jump @6\n      : @773 [@dyn 421] (gas: 13)\n 20723: a1 = s1 + 0x7ff\n 20727: a1 = a1 + 0x59\n 20730: a2 = a1 + 0x500\n 20734: a0 = u64 [a2 + 0xb8]\n 20738: u64 [s1 + 0xb0] = a0\n 20742: a0 = u64 [a2 + 0xb0]\n 20746: u64 [s1 + 0xa8] = a0\n 20750: a0 = u64 [a2 + 0xa8]\n 20754: u64 [s1 + 0xb8] = a0\n 20758: a0 = s1 + 0x7ff\n 20762: a0 = a0 + 0x5e1\n 20766: a1 = 0x40\n 20769: ra = 844, jump @2\n      : @774 [@dyn 422] (gas: 18)\n 20775: a2 = s1 + 0x7ff\n 20779: a2 = a2 + 0x59\n 20782: a5 = a2 + 0x500\n 20786: a3 = u64 [a5 + 0xa0]\n 20790: a4 = u64 [a5 + 0x98]\n 20794: a1 = u64 [a5 + 0x90]\n 20798: a0 = u64 [a5 + 0x88]\n 20802: u64 [s1 + 0xd0] = a1\n 20806: u64 [s1 + 0xc0] = a3\n 20810: a3 = a3 | a1\n 20813: a1 = a0 | a4\n 20816: a1 = a1 | a3\n 20819: a1 = a1 >> 0x20\n 20822: u64 [s1 + 0xc8] = a4\n 20826: a3 = a3 | a4\n 20829: a3 = a3 << 0x20\n 20832: a1 = a1 | a3\n 20835: jump @776 if a1 == 0\n      : @775 (gas: 1)\n 20838: jump @533\n      : @776 (gas: 9)\n 20841: u64 [a2 + 1400] = 0\n 20845: u64 [a2 + 1392] = 0\n 20849: u64 [a2 + 1384] = 0\n 20853: a3 = 0xa9059cbb00000000\n 20863: a1 = s1 + 0x7ff\n 20867: a1 = a1 + 0x5c1\n 20871: u64 [a2 + 0x580] = a3\n 20875: u64 [s1 + 0xd8] = a0\n 20879: ra = 846, jump @4\n      : @777 [@dyn 423] (gas: 6)\n 20885: a0 = u64 [s1 + 0x38]\n 20888: ra = 0x350\n 20892: ecalli 5 // 'caller'\n 20894: a2 = u64 [s1 + 0x60]\n 20897: t0 = 0x352\n 20901: jump @997\n      : @778 [@dyn 424] (gas: 2)\n 20904: a2 = u64 [s1 + 0x60]\n 20907: t0 = 850, jump @997\n      : @779 [@dyn 425] (gas: 48)\n 20913: t0 = a1 | a0\n 20916: a3 = a3 >> 0x20\n 20919: a2 = reverse a2\n 20921: a1 = a2 << 0x20\n 20924: t1 = a1 | a3\n 20927: a2 = a2 >> 0x20\n 20930: a0 = u64 [s1 + 0xd8]\n 20934: a3 = a0 + 0x4\n 20937: a4 = a3 <u a0\n 20940: a0 = u64 [s1 + 0xd0]\n 20944: a5 = a0 + a4\n 20947: a0 = a5 <u a0\n 20950: a0 = a4 if a4 == 0\n 20953: a1 = u64 [s1 + 0xc8]\n 20957: a0 = a0 + a1\n 20960: a4 = a0 <u a1\n 20963: a1 = u64 [s1 + 0xc0]\n 20967: a4 = a4 + a1\n 20970: a1 = s1 + 0x7ff\n 20974: a1 = a1 + 0x59\n 20977: u64 [a1 + 0x540] = a4\n 20981: a4 = a1 + 0x500\n 20985: u64 [a4 + 0x38] = a0\n 20988: u64 [a4 + 0x30] = a5\n 20991: a0 = u64 [s1 + 0x58]\n 20994: u64 [a4] = a0\n 20996: a0 = u64 [s1 + 0x50]\n 20999: a5 = a1 + 0x400\n 21003: u64 [a5 + 0xf8] = a0\n 21007: a0 = u64 [s1 + 0x48]\n 21010: u64 [a5 + 0xf0] = a0\n 21014: a0 = u64 [s1 + 0x40]\n 21017: u64 [a5 + 0xe8] = a0\n 21021: u64 [a4 + 0x28] = a3\n 21024: u64 [a4 + 0x18] = a2\n 21027: u64 [a1 + 0x510] = t1\n 21031: u64 [a1 + 0x508] = t0\n 21035: a4 = a1\n 21037: a0 = s1 + 0x7ff\n 21041: a0 = a0 + 0x5a1\n 21045: a1 = s1 + 0x7ff\n 21049: a1 = a1 + 0x581\n 21053: a2 = s1 + 0x7ff\n 21057: a2 = a2 + 0x561\n 21061: a3 = s1 + 0x7ff\n 21065: a3 = a3 + 0x541\n 21069: u64 [a4 + 1312] = 0\n 21073: ra = 852, jump @957\n      : @780 [@dyn 426] (gas: 32)\n 21079: a1 = s1 + 0x7ff\n 21083: a1 = a1 + 0x59\n 21086: a0 = u64 [a1 + 0x550]\n 21090: t0 = u64 [a1 + 0x560]\n 21094: t1 = u64 [a1 + 0x548]\n 21098: a3 = u64 [a1 + 0x558]\n 21102: a1 = u64 [s1 + 0xd0]\n 21106: a4 = a0 ^ a1\n 21109: a5 = a0 <u a1\n 21112: ra = a1\n 21114: t2 = u64 [s1 + 0xd8]\n 21118: a1 = t1 <u t2\n 21121: a5 = a1 if a4 == 0\n 21124: a2 = u64 [s1 + 0xc8]\n 21128: a4 = a3 - a2\n 21131: a3 = a3 <u a2\n 21134: a2 = u64 [s1 + 0xc0]\n 21138: a2 = t0 - a2\n 21141: a2 = a2 - a3\n 21144: a3 = a4 <u a5\n 21147: a2 = a2 - a3\n 21150: u64 [s1 + 0x98] = a2\n 21154: a4 = a4 - a5\n 21157: u64 [s1 + 0x90] = a4\n 21161: a0 = a0 - ra\n 21164: a0 = a0 - a1\n 21167: u64 [s1 + 0x88] = a0\n 21171: a0 = t1 - t2\n 21174: u64 [s1 + 0xa0] = a0\n 21178: ra = 0x356\n 21182: ecalli 9 // 'ref_time_left'\n 21184: fallthrough\n      : @781 [@dyn 427] (gas: 5)\n 21185: a0 = u64 [s1 + 0xa8]\n 21189: a0 = reverse a0\n 21191: a1 = a0 << 0x20\n 21194: a2 = u64 [s1 + 0xb0]\n 21198: t0 = 856, jump @1021\n      : @782 [@dyn 428] (gas: 23)\n 21204: a2 = a2 >> 0x20\n 21207: a3 = u64 [s1 + 0x60]\n 21210: u64 [a3 + 0x8] = a0\n 21213: u64 [a3] = a1\n 21215: u32 [a3 + 0x10] = a2\n 21218: a2 = s1 + 0x2058\n 21222: u64 [a2 + 1792] = 0\n 21226: u64 [a2 + 1784] = 0\n 21230: u64 [a2 + 1776] = 0\n 21234: a0 = u64 [s1 + 0xa0]\n 21238: a3 = a0\n 21240: a4 = u64 [s1 + 0x90]\n 21244: a0 = a0 | a4\n 21247: a1 = u64 [s1 + 0x98]\n 21251: a5 = u64 [s1 + 0x88]\n 21255: a1 = a1 | a5\n 21258: a0 = a0 | a1\n 21261: a0 = a0 >> 0x20\n 21264: a1 = a1 | a4\n 21267: a1 = a1 << 0x20\n 21270: a0 = a0 | a1\n 21273: u64 [a2 + 1768] = 0\n 21277: jump @784 if a0 == 0\n      : @783 (gas: 1)\n 21280: jump @533\n      : @784 (gas: 3)\n 21283: a0 = u64 [s1 + 0xd8]\n 21287: a1 = a3\n 21289: ra = 858, jump @16\n      : @785 [@dyn 429] (gas: 4)\n 21295: u64 [s1 + 0xb0] = a0\n 21299: a1 = 0x20\n 21302: a0 = u64 [s1 + 0xd8]\n 21306: ra = 860, jump @16\n      : @786 [@dyn 430] (gas: 35)\n 21312: a2 = s1 + 0x2058\n 21316: u64 [s1 + 184] = 0x20\n 21321: a3 = a2 + 0x700\n 21325: u32 [a3 + 8] = 0x20\n 21329: u64 [a3 + 64] = 0xffffffffffffffff\n 21333: u64 [a3 + 56] = 0xffffffffffffffff\n 21337: u64 [a3 + 48] = 0xffffffffffffffff\n 21341: u64 [a3 + 40] = 0xffffffffffffffff\n 21345: a1 = u64 [s1 + 0x60]\n 21348: a1 = a1 << 0x20\n 21351: a1 = a1 >> 0x20\n 21354: a2 = 0x800000000\n 21364: t0 = a1 | a2\n 21367: a1 = s1 + 0x2740\n 21371: a1 = a1 << 0x20\n 21374: a1 = a1 >> 0x20\n 21377: a2 = s1 + 0x2780\n 21381: a2 = a2 << 0x20\n 21384: a3 = a2 | a1\n 21387: a1 = u64 [s1 + 0xb0]\n 21391: a1 = a1 << 0x20\n 21394: a1 = a1 >> 0x20\n 21397: a4 = u64 [s1 + 0xa0]\n 21401: a4 = a4 << 0x20\n 21404: a4 = a4 | a1\n 21407: a0 = a0 << 0x20\n 21410: a0 = a0 >> 0x20\n 21413: a1 = s1 + 0x2760\n 21417: a1 = a1 << 0x20\n 21420: a5 = a1 | a0\n 21423: a1 = 0xffffffffffffffff\n 21426: a2 = 0xffffffffffffffff\n 21429: a0 = t0\n 21431: ecalli 1 // 'call'\n 21433: fallthrough\n      : @787 (gas: 1)\n 21434: jump @811 if a0 != 0\n      : @788 (gas: 2)\n 21438: ecalli 11 // 'return_data_size'\n 21440: fallthrough\n      : @789 (gas: 1)\n 21441: jump @791 if a0 >=u 32\n      : @790 (gas: 3)\n 21445: ecalli 11 // 'return_data_size'\n 21447: u64 [s1 + 0xb8] = a0\n 21451: fallthrough\n      : @791 (gas: 22)\n 21452: a2 = s1 + 0x7ff\n 21456: a2 = a2 + 0x59\n 21459: a0 = u64 [s1 + 0xb8]\n 21463: a4 = a2 + 0x400\n 21467: u64 [a4 + 0x88] = a0\n 21471: a0 = u64 [s1 + 0xd8]\n 21475: u64 [a4 + 0xa8] = a0\n 21479: u64 [s1 + 176] = 0\n 21483: u64 [a2 + 1168] = 0\n 21487: a0 = u64 [s1 + 0xd0]\n 21491: u64 [a4 + 0xb0] = a0\n 21495: u64 [a2 + 1176] = 0\n 21499: a0 = u64 [s1 + 0xc8]\n 21503: u64 [a4 + 0xb8] = a0\n 21507: u64 [a2 + 1184] = 0\n 21511: a0 = s1 + 0x7ff\n 21515: a0 = a0 + 0x501\n 21519: a1 = s1 + 0x7ff\n 21523: a1 = a1 + 0x4e1\n 21527: a3 = u64 [s1 + 0xc0]\n 21531: u64 [a4 + 0xc0] = a3\n 21535: ra = 862, jump @931\n      : @792 [@dyn 431] (gas: 39)\n 21541: t0 = u64 [s1 + 0xd8]\n 21545: a0 = u64 [s1 + 0xb8]\n 21549: ra = a0 + t0\n 21552: a1 = ra <u a0\n 21555: t1 = u64 [s1 + 0xd0]\n 21559: a5 = u64 [s1 + 0xb0]\n 21563: a2 = a5 + t1\n 21566: a2 = a2 + a1\n 21569: a3 = a2 ^ a5\n 21572: a4 = a2 <u a5\n 21575: a4 = a1 if a3 == 0\n 21578: a3 = u64 [s1 + 0xc8]\n 21582: a1 = a5 + a3\n 21585: a4 = a4 + a1\n 21588: t2 = a4 <u a1\n 21591: a1 = a1 <u a5\n 21594: a0 = u64 [s1 + 0xc0]\n 21598: a5 = a5 + a0\n 21601: a1 = a1 + a5\n 21604: t2 = t2 + a1\n 21607: a1 = s1 + 0x7ff\n 21611: a1 = a1 + 0x59\n 21614: a5 = a1 + 0x400\n 21618: u64 [a5 + 0x38] = a4\n 21621: u64 [a5 + 0x30] = a2\n 21624: u64 [a1 + 0x428] = ra\n 21628: u64 [a5 + 0x60] = a0\n 21631: u64 [a5 + 0x58] = a3\n 21634: u64 [a1 + 0x450] = t1\n 21638: u64 [a1 + 0x448] = t0\n 21642: a3 = a1\n 21644: a0 = s1 + 0x7ff\n 21648: a0 = a0 + 0x4c1\n 21652: a1 = s1 + 0x7ff\n 21656: a1 = a1 + 0x4a1\n 21660: a2 = s1 + 0x7ff\n 21664: a2 = a2 + 0x481\n 21668: u64 [a3 + 0x440] = t2\n 21672: ra = 864, jump @948\n      : @793 [@dyn 432] (gas: 4)\n 21678: a0 = s1 + 0x7ff\n 21682: a0 = a0 + 0x461\n 21686: a1 = 0x40\n 21689: ra = 866, jump @2\n      : @794 [@dyn 433] (gas: 8)\n 21695: a3 = s1 + 0x7ff\n 21699: a3 = a3 + 0x59\n 21702: a5 = a3 + 0x400\n 21706: a0 = u64 [a5 + 0x20]\n 21709: a1 = u64 [a5 + 0x18]\n 21712: a2 = u64 [a5 + 0x10]\n 21715: a4 = u64 [a5 + 0x8]\n 21718: t0 = 868, jump @1008\n      : @795 [@dyn 434] (gas: 1)\n 21724: jump @797 if a0 == 0\n      : @796 (gas: 1)\n 21727: jump @533\n      : @797 (gas: 17)\n 21730: a3 = a4\n 21732: a2 = s1 + 0x7ff\n 21736: a2 = a2 + 0x59\n 21739: a0 = u64 [s1 + 0x40]\n 21742: a1 = a2 + 0x300\n 21746: u64 [a1 + 0xe8] = a0\n 21750: a0 = u64 [s1 + 0x48]\n 21753: u64 [a1 + 0xf0] = a0\n 21757: a0 = u64 [s1 + 0x50]\n 21760: u64 [a1 + 0xf8] = a0\n 21764: a1 = s1 + 0x7ff\n 21768: a1 = a1 + 0x441\n 21772: a0 = u64 [s1 + 0x58]\n 21775: u64 [a2 + 0x400] = a0\n 21779: a0 = a4\n 21781: u64 [s1 + 0xd8] = a3\n 21785: ra = 870, jump @4\n      : @798 [@dyn 435] (gas: 6)\n 21791: a0 = u64 [s1 + 0x38]\n 21794: ra = 0x368\n 21798: ecalli 5 // 'caller'\n 21800: a2 = u64 [s1 + 0x60]\n 21803: t0 = 0x36a\n 21807: jump @997\n      : @799 [@dyn 436] (gas: 2)\n 21810: a2 = u64 [s1 + 0x60]\n 21813: t0 = 874, jump @997\n      : @800 [@dyn 437] (gas: 28)\n 21819: t0 = a1 | a0\n 21822: a3 = a3 >> 0x20\n 21825: a2 = reverse a2\n 21827: a1 = a2 << 0x20\n 21830: a1 = a1 | a3\n 21833: a2 = a2 >> 0x20\n 21836: a3 = u64 [0x20158]\n 21841: a0 = s1 + 0x7ff\n 21845: a0 = a0 + 0x59\n 21848: u64 [a0 + 0x3e0] = a3\n 21852: a3 = u64 [0x20160]\n 21857: a4 = u64 [0x20168]\n 21862: a5 = u64 [0x20170]\n 21867: u64 [a0 + 0x3d8] = a3\n 21871: a3 = a0 + 0x300\n 21875: u64 [a3 + 0xd0] = a4\n 21879: u64 [a0 + 960] = 0\n 21883: u64 [a3 + 0xc8] = a5\n 21887: u64 [a3 + 0xb8] = a2\n 21891: u64 [a3 + 0xb0] = a1\n 21895: a1 = 0x20\n 21898: a2 = s1 + 0x7ff\n 21902: a2 = a2 + 0x421\n 21906: a3 = s1 + 0x7ff\n 21910: a3 = a3 + 0x401\n 21914: u64 [a0 + 0x3a8] = t0\n 21918: a0 = u64 [s1 + 0xd8]\n 21922: ra = 876, jump @10\n      : @801 [@dyn 438] (gas: 5)\n 21928: a0 = 0\n 21930: a1 = u64 [s1 + 0x30]\n 21933: a2 = 0\n 21935: ecalli 12 // 'seal_return'\n 21937: jump @863\n      : @802 (gas: 3)\n 21940: a0 = s1 + 0x4a0\n 21944: a1 = 0x40\n 21947: ra = 878, jump @2\n      : @803 [@dyn 439] (gas: 13)\n 21953: a1 = s1 + 0x400\n 21957: a0 = u64 [a1 + 0xb8]\n 21961: u64 [s1 + 0xd0] = a0\n 21965: a0 = u64 [a1 + 0xb0]\n 21969: u64 [s1 + 0xc8] = a0\n 21973: a0 = u64 [a1 + 0xa8]\n 21977: u64 [s1 + 0xc0] = a0\n 21981: a0 = u64 [a1 + 0xa0]\n 21985: u64 [s1 + 0xd8] = a0\n 21989: ra = 0x370\n 21993: ecalli 11 // 'return_data_size'\n 21995: t0 = 0x372\n 21999: jump @1004\n      : @804 [@dyn 440] (gas: 1)\n 22002: t0 = 882, jump @1004\n      : @805 [@dyn 441] (gas: 1)\n 22008: jump @807 if a1 == 0\n      : @806 (gas: 1)\n 22011: jump @533\n      : @807 (gas: 3)\n 22014: a2 = a0\n 22016: a0 = a0 >> 0x20\n 22019: jump @809 if a0 == 0\n      : @808 (gas: 1)\n 22022: jump @533\n      : @809 (gas: 6)\n 22025: i32 a0 = a2 + 0\n 22027: u64 [s1 + 0xd0] = a0\n 22031: a0 = u64 [s1 + 0xd8]\n 22035: a1 = a2\n 22037: u64 [s1 + 0xc8] = a2\n 22041: ra = 884, jump @16\n      : @810 [@dyn 442] (gas: 11)\n 22047: a1 = s1 + 0x2058\n 22051: a2 = u64 [s1 + 0xc8]\n 22055: u32 [a1 + 0x428] = a2\n 22059: i32 a0 = a0 + 0\n 22061: a1 = s1 + 0x2000\n 22065: i32 a1 = a1 + 0x480\n 22069: a2 = 0\n 22071: ecalli 10 // 'return_data_copy'\n 22073: a0 = s1 + 0x2058\n 22077: a0 = i32 [a0 + 0x428]\n 22081: jump @588\n      : @811 (gas: 4)\n 22084: a0 = s1 + 0x7ff\n 22088: a0 = a0 + 0x521\n 22092: a1 = 0x40\n 22095: ra = 886, jump @2\n      : @812 [@dyn 443] (gas: 15)\n 22101: a0 = s1 + 0x7ff\n 22105: a0 = a0 + 0x59\n 22108: a2 = a0 + 0x400\n 22112: a1 = u64 [a2 + 0xe0]\n 22116: u64 [s1 + 0xd0] = a1\n 22120: a1 = u64 [a2 + 0xd8]\n 22124: u64 [s1 + 0xc8] = a1\n 22128: a1 = u64 [a2 + 0xd0]\n 22132: u64 [s1 + 0xc0] = a1\n 22136: a0 = u64 [a2 + 0xc8]\n 22140: u64 [s1 + 0xd8] = a0\n 22144: ra = 0x378\n 22148: ecalli 11 // 'return_data_size'\n 22150: t0 = 0x37a\n 22154: jump @1004\n      : @813 [@dyn 444] (gas: 1)\n 22157: t0 = 890, jump @1004\n      : @814 [@dyn 445] (gas: 1)\n 22163: jump @816 if a1 == 0\n      : @815 (gas: 1)\n 22166: jump @533\n      : @816 (gas: 2)\n 22169: a1 = a0 >> 0x20\n 22172: jump @818 if a1 == 0\n      : @817 (gas: 1)\n 22175: jump @533\n      : @818 (gas: 6)\n 22178: a1 = a0\n 22180: u64 [s1 + 0xc8] = a0\n 22184: i32 a0 = a0 + 0\n 22186: u64 [s1 + 0xd0] = a0\n 22190: a0 = u64 [s1 + 0xd8]\n 22194: ra = 892, jump @16\n      : @819 [@dyn 446] (gas: 11)\n 22200: a1 = s1 + 0x2058\n 22204: a2 = u64 [s1 + 0xc8]\n 22208: u32 [a1 + 0x748] = a2\n 22212: i32 a0 = a0 + 0\n 22214: a1 = s1 + 0x2000\n 22218: i32 a1 = a1 + 0x7a0\n 22222: a2 = 0\n 22224: ecalli 10 // 'return_data_copy'\n 22226: a0 = s1 + 0x2058\n 22230: a0 = i32 [a0 + 0x748]\n 22234: jump @588\n      : @820 (gas: 6)\n 22237: a1 = 0x20250\n 22242: i32 a1 = a1 + 0\n 22244: a0 = 0x1\n 22247: a2 = 0\n 22249: ecalli 12 // 'seal_return'\n 22251: jump @863\n      : @821 (gas: 6)\n 22254: a1 = 0x20250\n 22259: i32 a1 = a1 + 0\n 22261: a0 = 0x1\n 22264: a2 = 0\n 22266: ecalli 12 // 'seal_return'\n 22268: jump @863\n      : @822 (gas: 6)\n 22271: a1 = 0x20250\n 22276: i32 a1 = a1 + 0\n 22278: a0 = 0x1\n 22281: a2 = 0\n 22283: ecalli 12 // 'seal_return'\n 22285: jump @863\n      : @823 (gas: 6)\n 22288: a1 = 0x20250\n 22293: i32 a1 = a1 + 0\n 22295: a0 = 0x1\n 22298: a2 = 0\n 22300: ecalli 12 // 'seal_return'\n 22302: jump @863\n      : @824 (gas: 6)\n 22305: a1 = 0x20250\n 22310: i32 a1 = a1 + 0\n 22312: a0 = 0x1\n 22315: a2 = 0\n 22317: ecalli 12 // 'seal_return'\n 22319: jump @863\n      : @825 (gas: 6)\n 22322: a1 = 0x20250\n 22327: i32 a1 = a1 + 0\n 22329: a0 = 0x1\n 22332: a2 = 0\n 22334: ecalli 12 // 'seal_return'\n 22336: jump @863\n      : @826 (gas: 6)\n 22339: a1 = 0x20250\n 22344: i32 a1 = a1 + 0\n 22346: a0 = 0x1\n 22349: a2 = 0\n 22351: ecalli 12 // 'seal_return'\n 22353: jump @863\n      : @827 (gas: 6)\n 22356: a1 = 0x20250\n 22361: i32 a1 = a1 + 0\n 22363: a0 = 0x1\n 22366: a2 = 0\n 22368: ecalli 12 // 'seal_return'\n 22370: jump @863\n      : @828 (gas: 6)\n 22373: a1 = 0x20250\n 22378: i32 a1 = a1 + 0\n 22380: a0 = 0x1\n 22383: a2 = 0\n 22385: ecalli 12 // 'seal_return'\n 22387: jump @863\n      : @829 (gas: 6)\n 22390: a1 = 0x20250\n 22395: i32 a1 = a1 + 0\n 22397: a0 = 0x1\n 22400: a2 = 0\n 22402: ecalli 12 // 'seal_return'\n 22404: jump @863\n      : @830 (gas: 6)\n 22407: a1 = 0x20250\n 22412: i32 a1 = a1 + 0\n 22414: a0 = 0x1\n 22417: a2 = 0\n 22419: ecalli 12 // 'seal_return'\n 22421: jump @863\n      : @831 (gas: 6)\n 22424: a1 = 0x20250\n 22429: i32 a1 = a1 + 0\n 22431: a0 = 0x1\n 22434: a2 = 0\n 22436: ecalli 12 // 'seal_return'\n 22438: jump @863\n      : @832 (gas: 6)\n 22441: a1 = 0x20250\n 22446: i32 a1 = a1 + 0\n 22448: a0 = 0x1\n 22451: a2 = 0\n 22453: ecalli 12 // 'seal_return'\n 22455: jump @863\n      : @833 (gas: 1)\n 22458: jump @848 if a0 != 4076725131\n      : @834 (gas: 9)\n 22466: a0 = s1 + 0x2858\n 22470: u64 [a0 + 928] = 0\n 22474: u64 [a0 + 920] = 0\n 22478: u64 [a0 + 912] = 0\n 22482: u64 [a0 + 904] = 0\n 22486: a0 = s1 + 0x3000\n 22490: i32 a0 = a0 + 0xfffffffffffffbe0\n 22494: ecalli 15 // 'value_transferred'\n 22496: fallthrough\n      : @835 (gas: 10)\n 22497: a3 = s1 + 0x2858\n 22501: a4 = a3 + 0x300\n 22505: a0 = u64 [a4 + 0x98]\n 22509: a1 = u64 [a4 + 0xa0]\n 22513: a2 = u64 [a4 + 0x90]\n 22517: a3 = u64 [a4 + 0x88]\n 22521: a1 = a1 | a2\n 22524: a0 = a0 | a3\n 22527: a0 = a0 | a1\n 22530: jump @863 if a0 == 0\n      : @836 (gas: 6)\n 22534: a1 = 0x20250\n 22539: i32 a1 = a1 + 0\n 22541: a0 = 0x1\n 22544: a2 = 0\n 22546: ecalli 12 // 'seal_return'\n 22548: jump @863\n      : @837 (gas: 6)\n 22551: a1 = 0x20250\n 22556: i32 a1 = a1 + 0\n 22558: a0 = 0x1\n 22561: a2 = 0\n 22563: ecalli 12 // 'seal_return'\n 22565: jump @863\n      : @838 (gas: 6)\n 22568: a1 = 0x20250\n 22573: i32 a1 = a1 + 0\n 22575: a0 = 0x1\n 22578: a2 = 0\n 22580: ecalli 12 // 'seal_return'\n 22582: jump @863\n      : @839 (gas: 6)\n 22585: a1 = 0x20250\n 22590: i32 a1 = a1 + 0\n 22592: a0 = 0x1\n 22595: a2 = 0\n 22597: ecalli 12 // 'seal_return'\n 22599: jump @863\n      : @840 (gas: 6)\n 22602: a1 = 0x20250\n 22607: i32 a1 = a1 + 0\n 22609: a0 = 0x1\n 22612: a2 = 0\n 22614: ecalli 12 // 'seal_return'\n 22616: jump @863\n      : @841 (gas: 6)\n 22619: a1 = 0x20250\n 22624: i32 a1 = a1 + 0\n 22626: a0 = 0x1\n 22629: a2 = 0\n 22631: ecalli 12 // 'seal_return'\n 22633: jump @863\n      : @842 (gas: 6)\n 22636: a1 = 0x20250\n 22641: i32 a1 = a1 + 0\n 22643: a0 = 0x1\n 22646: a2 = 0\n 22648: ecalli 12 // 'seal_return'\n 22650: jump @863\n      : @843 (gas: 6)\n 22653: a1 = 0x20250\n 22658: i32 a1 = a1 + 0\n 22660: a0 = 0x1\n 22663: a2 = 0\n 22665: ecalli 12 // 'seal_return'\n 22667: jump @863\n      : @844 (gas: 6)\n 22670: a1 = 0x20250\n 22675: i32 a1 = a1 + 0\n 22677: a0 = 0x1\n 22680: a2 = 0\n 22682: ecalli 12 // 'seal_return'\n 22684: jump @863\n      : @845 (gas: 6)\n 22687: a1 = 0x20250\n 22692: i32 a1 = a1 + 0\n 22694: a0 = 0x1\n 22697: a2 = 0\n 22699: ecalli 12 // 'seal_return'\n 22701: jump @863\n      : @846 (gas: 6)\n 22704: a1 = 0x20250\n 22709: i32 a1 = a1 + 0\n 22711: a0 = 0x1\n 22714: a2 = 0\n 22716: ecalli 12 // 'seal_return'\n 22718: jump @863\n      : @847 (gas: 6)\n 22721: a1 = 0x20250\n 22726: i32 a1 = a1 + 0\n 22728: a0 = 0x1\n 22731: a2 = 0\n 22733: ecalli 12 // 'seal_return'\n 22735: jump @863\n      : @848 (gas: 1)\n 22738: jump @857 if a0 != 700225181\n      : @849 (gas: 11)\n 22746: a0 = s1 + 0x2058\n 22750: u64 [a0 + 672] = 0\n 22754: u64 [a0 + 664] = 0\n 22758: u64 [a0 + 656] = 0\n 22762: u64 [a0 + 648] = 0\n 22766: a0 = s1 + 0x2000\n 22770: i32 a0 = a0 + 0x2e0\n 22774: ra = 0x37e\n 22778: ecalli 15 // 'value_transferred'\n 22780: t0 = 0x380\n 22784: jump @1023\n      : @850 [@dyn 447] (gas: 1)\n 22787: t0 = 896, jump @1023\n      : @851 [@dyn 448] (gas: 8)\n 22793: a0 = u64 [a4 + 0x98]\n 22797: a1 = u64 [a4 + 0xa0]\n 22801: a2 = u64 [a4 + 0x90]\n 22805: a3 = u64 [a4 + 0x88]\n 22809: a1 = a1 | a2\n 22812: a0 = a0 | a3\n 22815: a0 = a0 | a1\n 22818: jump @865 if a0 == 0\n      : @852 (gas: 6)\n 22822: a1 = 0x20250\n 22827: i32 a1 = a1 + 0\n 22829: a0 = 0x1\n 22832: a2 = 0\n 22834: ecalli 12 // 'seal_return'\n 22836: jump @863\n      : @853 (gas: 13)\n 22839: a0 = u64 [s1 + 0xb8]\n 22843: a2 = a3 + 0x300\n 22847: u64 [a2 + 0x28] = a0\n 22850: a0 = u64 [s1 + 0xc0]\n 22854: u64 [a2 + 0x30] = a0\n 22857: a0 = u64 [s1 + 0xc8]\n 22861: u64 [a2 + 0x38] = a0\n 22864: a1 = s1 + 0x1b80\n 22868: a0 = u64 [s1 + 0xd0]\n 22872: u64 [a2 + 0x40] = a0\n 22875: a0 = a4\n 22877: u64 [s1 + 0xd8] = a4\n 22881: ra = 898, jump @4\n      : @854 [@dyn 449] (gas: 32)\n 22887: a0 = u64 [0x20088]\n 22892: a1 = u64 [0x20090]\n 22897: a2 = s1 + 0x1858\n 22901: a4 = a2 + 0x300\n 22905: u64 [a4 + 0x20] = a0\n 22908: a0 = u64 [0x20098]\n 22913: u64 [a4 + 0x18] = a1\n 22916: a3 = u64 [0x200a0]\n 22921: u64 [a4 + 0x10] = a0\n 22924: a0 = a2\n 22926: a1 = 0x20\n 22929: a2 = s1 + 0x1b60\n 22933: u64 [a0 + 0x308] = a3\n 22937: a0 = u64 [s1 + 0xd8]\n 22941: ra = 0x384\n 22945: sp = sp + 0xffffffffffffffa0\n 22948: u64 [sp + 0x58] = ra\n 22951: u64 [sp + 0x50] = s0\n 22954: u64 [sp + 0x48] = s1\n 22957: s0 = sp + 0x60\n 22960: sp = sp & 0xffffffffffffffe0\n 22963: a3 = u64 [a2]\n 22965: u64 [sp + 0x18] = a3\n 22968: a3 = u64 [a2 + 0x8]\n 22971: u64 [sp + 0x10] = a3\n 22974: a3 = u64 [a2 + 0x10]\n 22977: u64 [sp + 0x8] = a3\n 22980: a2 = u64 [a2 + 0x18]\n 22983: u64 [sp] = a2\n 22985: s1 = a1\n 22987: ra = 0x6\n 22990: jump @16\n      : @855 [@dyn 450] (gas: 6)\n 22993: a1 = 0x20250\n 22998: i32 a1 = a1 + 0\n 23000: a0 = 0\n 23002: a2 = 0\n 23004: ecalli 12 // 'seal_return'\n 23006: jump @863\n      : @856 (gas: 5)\n 23008: i32 a1 = a1 + 0\n 23010: a0 = 0\n 23012: a2 = 0\n 23014: ecalli 12 // 'seal_return'\n 23016: jump @863\n      : @857 (gas: 2)\n 23018: a2 = s1 + 0x2058\n 23022: jump @861 if a0 != 1901074598\n      : @858 (gas: 8)\n 23029: u64 [a2 + 1120] = 0\n 23033: u64 [a2 + 1112] = 0\n 23037: u64 [a2 + 1104] = 0\n 23041: u64 [a2 + 1096] = 0\n 23045: a0 = s1 + 0x2000\n 23049: i32 a0 = a0 + 0x4a0\n 23053: ecalli 15 // 'value_transferred'\n 23055: fallthrough\n      : @859 (gas: 10)\n 23056: a3 = s1 + 0x2058\n 23060: a4 = a3 + 0x400\n 23064: a0 = u64 [a4 + 0x58]\n 23067: a1 = u64 [a4 + 0x60]\n 23070: a2 = u64 [a4 + 0x50]\n 23073: a3 = u64 [a4 + 0x48]\n 23076: a1 = a1 | a2\n 23079: a0 = a0 | a3\n 23082: a0 = a0 | a1\n 23085: jump @870 if a0 == 0\n      : @860 (gas: 6)\n 23089: a1 = 0x20250\n 23094: i32 a1 = a1 + 0\n 23096: a0 = 0x1\n 23099: a2 = 0\n 23101: ecalli 12 // 'seal_return'\n 23103: jump @863\n      : @861 (gas: 6)\n 23105: a1 = 0x20250\n 23110: i32 a1 = a1 + 0\n 23112: a0 = 0x1\n 23115: a2 = 0\n 23117: ecalli 12 // 'seal_return'\n 23119: jump @863\n      : @862 (gas: 5)\n 23121: i32 a1 = a1 + 0\n 23123: a0 = 0x1\n 23126: a2 = 0\n 23128: ecalli 12 // 'seal_return'\n 23130: fallthrough\n      : @863 (gas: 3)\n 23131: a0 = u64 [s1 + 0xd8]\n 23135: a0 = i32 [a0]\n 23137: jump @867 if a0 >u 35\n      : @864 (gas: 2)\n 23141: a1 = 0x20250\n 23146: jump @862\n      : @865 (gas: 3)\n 23148: a0 = u64 [s1 + 0xd8]\n 23152: a0 = i32 [a0]\n 23154: jump @872 if a0 >u 35\n      : @866 (gas: 2)\n 23158: a1 = 0x20250\n 23163: jump @862\n      : @867 (gas: 5)\n 23165: a0 = s1 + 0x3000\n 23169: i32 a0 = a0 + 0xfffffffffffffc00\n 23173: a1 = 0x4\n 23176: ecalli 3 // 'call_data_load'\n 23178: fallthrough\n      : @868 (gas: 13)\n 23179: a0 = s1 + 0x2858\n 23183: a1 = u64 [a0 + 0x3b8]\n 23187: a2 = u64 [a0 + 0x3c0]\n 23191: a0 = 0x100000000\n 23201: a0 = a0 ^ a1\n 23204: a0 = a0 | a2\n 23207: u64 [s1 + 0xd8] = a1\n 23211: a1 = a1 >> 0x20\n 23214: a1 = a1 <u 0x1\n 23217: u64 [s1 + 0xb8] = a2\n 23221: a1 = 0 if a2 != 0\n 23223: a1 = 0 if a0 == 0\n 23225: jump @876 if a1 != 0\n      : @869 (gas: 2)\n 23228: a1 = 0x20250\n 23233: jump @862\n      : @870 (gas: 3)\n 23235: a0 = u64 [s1 + 0xd8]\n 23239: a0 = i32 [a0]\n 23241: jump @883 if a0 >u 3\n      : @871 (gas: 2)\n 23246: a1 = 0x20250\n 23251: jump @862\n      : @872 (gas: 6)\n 23254: a0 = s1 + 0x2000\n 23258: i32 a0 = a0 + 0x300\n 23262: a1 = 0x4\n 23265: ra = 0x386\n 23269: ecalli 3 // 'call_data_load'\n 23271: fallthrough\n      : @873 [@dyn 451] (gas: 4)\n 23272: a0 = s1 + 0x2058\n 23276: a1 = u64 [a0 + 0x2b8]\n 23280: a0 = u64 [a0 + 0x2c0]\n 23284: t0 = 904, jump @1007\n      : @874 [@dyn 452] (gas: 1)\n 23290: jump @888 if a3 != 0\n      : @875 (gas: 2)\n 23294: a1 = 0x20250\n 23299: jump @862\n      : @876 (gas: 10)\n 23302: a0 = s1 + 0x2858\n 23306: a1 = u64 [a0 + 0x3b0]\n 23310: u64 [s1 + 0xc8] = a1\n 23314: a0 = u64 [a0 + 0x3a8]\n 23318: u64 [s1 + 0xd0] = a0\n 23322: a0 = u64 [s1 + 0xd8]\n 23326: a0 = a0 << 0x20\n 23329: a0 = a0 >> 0x20\n 23332: u64 [s1 + 0xc0] = a0\n 23336: ra = 906, jump @979\n      : @877 [@dyn 453] (gas: 6)\n 23342: a0 = u64 [s1 + 0xc8]\n 23346: a1 = u64 [s1 + 0xd0]\n 23350: a0 = a0 | a1\n 23353: a1 = u64 [s1 + 0xc0]\n 23357: a0 = a0 | a1\n 23360: jump @899 if a0 == 0\n      : @878 (gas: 10)\n 23364: a0 = 0xffffffff\n 23374: u64 [s1 + 0xb0] = a0\n 23378: a0 = s1 + 0x2858\n 23382: u64 [a0 + 992] = 0\n 23386: u64 [a0 + 984] = 0\n 23390: u64 [a0 + 976] = 0\n 23394: u64 [a0 + 968] = 0\n 23398: a0 = s1 + 0x2280\n 23402: a1 = s1 + 0x2c20\n 23406: ra = 908, jump @6\n      : @879 [@dyn 454] (gas: 1)\n 23412: t0 = 910, jump @1023\n      : @880 [@dyn 455] (gas: 28)\n 23418: a1 = u64 [a4 + 0x38]\n 23421: u64 [s1 + 0xa8] = a1\n 23425: a0 = u64 [a4 + 0x40]\n 23428: a1 = a1 >> 0x20\n 23431: a1 = a1 << 0x20\n 23434: a2 = u64 [s1 + 0xd8]\n 23438: a1 = a1 | a2\n 23441: a2 = u64 [a4 + 0x30]\n 23444: u64 [s1 + 0xd8] = a2\n 23448: a2 = u64 [s1 + 0xb8]\n 23452: a0 = a0 | a2\n 23455: a2 = u64 [a4 + 0x28]\n 23458: u64 [s1 + 0xb8] = a2\n 23462: a2 = s1 + 0x2858\n 23466: a3 = a2 + 0x400\n 23470: u64 [a3 + 0x20] = a0\n 23473: u64 [a3 + 0x18] = a1\n 23476: u64 [a2 + 1024] = 0\n 23480: u64 [a2 + 1016] = 0\n 23484: u64 [a2 + 1008] = 0\n 23488: u64 [a2 + 1000] = 0\n 23492: a0 = u64 [s1 + 0xc8]\n 23496: u64 [a3 + 0x10] = a0\n 23499: a0 = u64 [s1 + 0xd0]\n 23503: u64 [a3 + 0x8] = a0\n 23506: a0 = s1 + 0x2c40\n 23510: a1 = s1 + 0x2c60\n 23514: ra = 912, jump @7\n      : @881 [@dyn 456] (gas: 36)\n 23520: a0 = u64 [s1 + 0xb8]\n 23524: a0 = a0 & 0xffffffffffffffff\n 23527: a2 = u64 [s1 + 0xd8]\n 23531: a1 = a2 & 0xffffffffffffffff\n 23534: a2 = u64 [s1 + 0xb0]\n 23538: a3 = u64 [s1 + 0xa8]\n 23542: a2 = a2 & a3\n 23545: a4 = s1 + 0x2058\n 23549: u64 [a4 + 480] = 0\n 23553: a3 = u64 [s1 + 0xc0]\n 23557: a5 = a4 + 0x100\n 23561: u64 [a5 + 0xd8] = a3\n 23565: a3 = u64 [s1 + 0xc8]\n 23569: u64 [a5 + 0xd0] = a3\n 23573: a3 = u64 [s1 + 0xd0]\n 23577: u64 [a5 + 0xc8] = a3\n 23581: u64 [a4 + 512] = 0\n 23585: u64 [a5 + 0xf8] = a2\n 23589: u64 [a5 + 0xf0] = a1\n 23593: a1 = u64 [0x20020]\n 23598: a2 = u64 [0x20028]\n 23603: a3 = u64 [0x20030]\n 23608: u64 [a5 + 0xe8] = a0\n 23612: a0 = a4 + 0x200\n 23616: u64 [a0 + 0x20] = a1\n 23619: u64 [a0 + 0x18] = a2\n 23622: u64 [a0 + 0x10] = a3\n 23625: a1 = a4\n 23627: a0 = u64 [0x20038]\n 23632: a2 = s1 + 0x2260\n 23636: a3 = s1 + 0x2240\n 23640: a4 = s1 + 0x2220\n 23644: u64 [a1 + 0x208] = a0\n 23648: a0 = 0\n 23650: a1 = 0\n 23652: ra = 914, jump @13\n      : @882 [@dyn 457] (gas: 2)\n 23658: a1 = 0x20250\n 23663: jump @856\n      : @883 (gas: 1)\n 23666: ra = 916, jump @979\n      : @884 [@dyn 458] (gas: 9)\n 23672: a0 = s1 + 0x2058\n 23676: u64 [a0 + 1152] = 0\n 23680: u64 [a0 + 1144] = 0\n 23684: u64 [a0 + 1136] = 0\n 23688: u64 [a0 + 1128] = 0\n 23692: a0 = s1 + 0x7ff\n 23696: a0 = a0 + 0x61\n 23699: a1 = s1 + 0x24c0\n 23703: ra = 918, jump @6\n      : @885 [@dyn 459] (gas: 23)\n 23709: a1 = s1 + 0x7ff\n 23713: a1 = a1 + 0x59\n 23716: a2 = u64 [a1 + 0x18]\n 23719: u64 [s1 + 0xc8] = a2\n 23723: a0 = u64 [a1 + 0x8]\n 23726: u64 [s1 + 0xd8] = a0\n 23730: a0 = u64 [a1 + 0x10]\n 23733: u64 [s1 + 0xd0] = a0\n 23737: a0 = u64 [a1 + 0x20]\n 23740: a1 = a2 >> 0x20\n 23743: a1 = a1 << 0x20\n 23746: a2 = s1 + 0x2058\n 23750: u64 [a2 + 1184] = 0\n 23754: u64 [a2 + 1176] = 0\n 23758: u64 [a2 + 1168] = 0\n 23762: u64 [a2 + 1160] = 0\n 23766: u64 [a2 + 1200] = 0\n 23770: u64 [a2 + 1192] = 0\n 23774: u64 [a2 + 0x4c0] = a0\n 23778: u64 [a2 + 0x4b8] = a1\n 23782: a0 = s1 + 0x24e0\n 23786: a1 = s1 + 0x2500\n 23790: ra = 920, jump @7\n      : @886 [@dyn 460] (gas: 42)\n 23796: a0 = u64 [s1 + 0xc8]\n 23800: a0 = a0 << 0x20\n 23803: a0 = a0 >> 0x20\n 23806: a1 = s1 + 0x1000\n 23810: u64 [a1 + 4294965272] = 0\n 23814: a1 = s1 + 0x1000\n 23818: u64 [a1 + 4294965264] = 0\n 23822: a1 = s1 + 0x1000\n 23826: u64 [a1 + 4294965256] = 0\n 23830: a1 = s1 + 0x1000\n 23834: u64 [a1 + 4294965248] = 0\n 23838: a1 = s1 + 0x1000\n 23842: u64 [a1 + 4294965304] = 0\n 23846: a1 = s1 + 0x1000\n 23850: u64 [a1 + 0xfffffffffffff830] = a0\n 23854: a0 = u64 [s1 + 0xd0]\n 23858: a1 = s1 + 0x1000\n 23862: u64 [a1 + 0xfffffffffffff828] = a0\n 23866: a0 = u64 [0x20020]\n 23871: a1 = u64 [0x20028]\n 23876: a2 = u64 [0x20030]\n 23881: a3 = u64 [s1 + 0xd8]\n 23885: a4 = s1 + 0x1000\n 23889: u64 [a4 + 0xfffffffffffff820] = a3\n 23893: a3 = s1 + 0x7ff\n 23897: a3 = a3 + 0x59\n 23900: u64 [a3] = a0\n 23902: u64 [a3 + 0xfffffffffffffff8] = a1\n 23905: a0 = s1 + 0x1000\n 23909: u64 [a0 + 0xfffffffffffff848] = a2\n 23913: a0 = u64 [0x20038]\n 23918: a2 = s1 + 0x7ff\n 23922: a2 = a2 + 0x41\n 23925: a3 = s1 + 0x7ff\n 23929: a3 = a3 + 0x21\n 23932: a4 = s1 + 0x7ff\n 23936: a4 = a4 + 0x1\n 23939: a1 = s1 + 0x1000\n 23943: u64 [a1 + 0xfffffffffffff840] = a0\n 23947: a0 = 0\n 23949: a1 = 0\n 23951: ra = 922, jump @13\n      : @887 [@dyn 461] (gas: 2)\n 23957: a1 = 0x20250\n 23962: jump @856\n      : @888 (gas: 10)\n 23965: a3 = s1 + 0x2058\n 23969: a2 = u64 [a3 + 0x2b0]\n 23973: a3 = u64 [a3 + 0x2a8]\n 23977: u64 [s1 + 0x140] = a3\n 23981: u64 [s1 + 0x148] = a2\n 23985: u64 [s1 + 0x150] = a1\n 23989: a1 = s1 + 0x140\n 23993: u64 [s1 + 0x158] = a0\n 23997: a0 = 0\n 23999: ra = 924, jump @4\n      : @889 [@dyn 462] (gas: 7)\n 24005: u64 [s1 + 312] = 0\n 24009: u64 [s1 + 304] = 0\n 24013: u64 [s1 + 288] = 0x4\n 24018: a0 = 0x20\n 24021: a1 = s1 + 0x120\n 24025: u64 [s1 + 296] = 0\n 24029: ra = 926, jump @4\n      : @890 [@dyn 463] (gas: 4)\n 24035: a0 = 0x2023c\n 24040: u64 [s1 + 0xd8] = a0\n 24044: a0 = i32 [0x2023c]\n 24049: jump @892 if a0 >u 63\n      : @891 (gas: 3)\n 24053: a1 = u64 [s1 + 0xd8]\n 24057: u32 [a1 + 0] = 0x40\n 24060: fallthrough\n      : @892 (gas: 14)\n 24061: a0 = sp + 0xffffffffffffffe0\n 24064: a2 = a0 & 0xffffffffffffffe0\n 24067: u64 [s1 + 0xc8] = a2\n 24071: sp = a2\n 24073: a0 = 0x20250\n 24078: u64 [s1 + 0xd0] = a0\n 24082: i32 a0 = a0 + 0\n 24084: i32 a2 = a2 + 0\n 24086: a1 = 0x40\n 24089: ra = 0x3a0\n 24093: ecalli 8 // 'hash_keccak_256'\n 24095: a3 = u64 [s1 + 0xc8]\n 24099: t0 = 0x3a2\n 24103: jump @1000\n      : @893 [@dyn 464] (gas: 2)\n 24106: a3 = u64 [s1 + 0xc8]\n 24110: t0 = 930, jump @1000\n      : @894 [@dyn 465] (gas: 8)\n 24116: a5 = a4 + 0x200\n 24120: u64 [a5 + 0xe0] = a3\n 24124: u64 [a5 + 0xd8] = a2\n 24128: u64 [a5 + 0xd0] = a1\n 24132: u64 [a5 + 0xc8] = a0\n 24136: a0 = s1 + 0x100\n 24140: a1 = s1 + 0x2320\n 24144: ra = 932, jump @6\n      : @895 [@dyn 466] (gas: 12)\n 24150: a4 = s1 + 0x100\n 24154: a2 = u64 [a4]\n 24156: a0 = u64 [a4 + 0x8]\n 24159: a1 = u64 [a4 + 0x10]\n 24162: a3 = u64 [a4 + 0x18]\n 24165: u64 [s1 + 0xf8] = a3\n 24169: u64 [s1 + 0xf0] = a1\n 24173: u64 [s1 + 0xe8] = a0\n 24177: a0 = 0x80\n 24181: a1 = s1 + 0xe0\n 24185: u64 [s1 + 0xe0] = a2\n 24189: ra = 934, jump @4\n      : @896 [@dyn 467] (gas: 3)\n 24195: a0 = u64 [s1 + 0xd8]\n 24199: a0 = i32 [a0]\n 24201: jump @898 if a0 >u 159\n      : @897 (gas: 5)\n 24206: a1 = u64 [s1 + 0xd8]\n 24210: u32 [a1 + 0] = 0xa0\n 24214: a0 = u64 [s1 + 0xd0]\n 24218: i32 a1 = a0 + 0x80\n 24222: jump @380\n      : @898 (gas: 3)\n 24225: a0 = u64 [s1 + 0xd0]\n 24229: i32 a1 = a0 + 0x80\n 24233: jump @380\n      : @899 (gas: 10)\n 24236: a0 = s1 + 0x2058\n 24240: u64 [a0 + 440] = 0\n 24244: u64 [a0 + 432] = 0\n 24248: u64 [a0 + 424] = 0\n 24252: a2 = a0\n 24254: a0 = 0x1e4fbdf700000000\n 24264: a1 = s1 + 0x2200\n 24268: u64 [a2 + 0x1c0] = a0\n 24272: a0 = 0\n 24274: ra = 936, jump @4\n      : @900 [@dyn 468] (gas: 9)\n 24280: a0 = s1 + 0x2058\n 24284: u64 [a0 + 416] = 0\n 24288: u64 [a0 + 408] = 0\n 24292: u64 [a0 + 400] = 0\n 24296: a2 = a0\n 24298: a0 = 0x4\n 24301: a1 = s1 + 0x21e0\n 24305: u64 [a2 + 392] = 0\n 24309: ra = 938, jump @4\n      : @901 [@dyn 469] (gas: 2)\n 24315: a1 = i32 [0x2023c]\n 24320: jump @903 if a1 >u 63\n      : @902 (gas: 2)\n 24324: u32 [0x2023c] = 0x40\n 24330: fallthrough\n      : @903 (gas: 6)\n 24331: a1 = 0x20250\n 24336: i32 a1 = a1 + 0\n 24338: a0 = 0x1\n 24341: a2 = 0x24\n 24344: ecalli 12 // 'seal_return'\n 24346: fallthrough\n      : @904 (gas: 10)\n 24347: a0 = s1 + 0x1058\n 24351: u64 [a0 + 120] = 0\n 24354: u64 [a0 + 112] = 0\n 24357: u64 [a0 + 104] = 0\n 24360: a2 = a0\n 24362: a0 = 0x4e487b7100000000\n 24372: a1 = s1 + 0x10c0\n 24376: u64 [a2 + 0x80] = a0\n 24380: a0 = 0\n 24382: ra = 940, jump @4\n      : @905 [@dyn 470] (gas: 9)\n 24388: a1 = s1 + 0x1058\n 24392: u64 [a1 + 96] = 0\n 24395: u64 [a1 + 88] = 0\n 24398: u64 [a1 + 72] = 0x11\n 24402: a2 = a1\n 24404: a0 = 0x4\n 24407: a1 = s1 + 0x10a0\n 24411: u64 [a2 + 80] = 0\n 24414: ra = 942, jump @4\n      : @906 [@dyn 471] (gas: 3)\n 24420: a0 = u64 [s1 + 0x28]\n 24423: a0 = i32 [a0]\n 24425: jump @908 if a0 >u 63\n      : @907 (gas: 3)\n 24429: a1 = u64 [s1 + 0x28]\n 24432: u32 [a1 + 0] = 0x40\n 24435: fallthrough\n      : @908 (gas: 6)\n 24436: a0 = 0x1\n 24439: a2 = 0x24\n 24442: a1 = u64 [s1 + 0x30]\n 24445: ra = 0x3b0\n 24449: ecalli 12 // 'seal_return'\n 24451: fallthrough\n      : @909 [@dyn 472] (gas: 18)\n 24452: sp = sp + 0xffffffffffffffc0\n 24455: u64 [sp + 0x38] = ra\n 24458: u64 [sp + 0x30] = s0\n 24461: u64 [sp + 0x28] = s1\n 24464: s0 = sp + 0x40\n 24467: sp = sp & 0xfffffffffffffff0\n 24470: a2 = u64 [a1 + 0x10]\n 24473: a3 = u64 [a1 + 0x18]\n 24476: a4 = u64 [a1 + 0x8]\n 24479: a1 = u64 [a1]\n 24481: a3 = a3 | a4\n 24484: a4 = a1 | a2\n 24487: a4 = a4 | a3\n 24490: a4 = a4 >> 0x20\n 24493: a2 = a2 | a3\n 24496: a2 = a2 << 0x20\n 24499: a2 = a2 | a4\n 24502: jump @913 if a2 != 0\n      : @910 (gas: 3)\n 24505: s1 = a0\n 24507: a0 = sp\n 24509: ra = 946, jump @2\n      : @911 [@dyn 473] (gas: 10)\n 24515: a0 = u64 [sp + 0x10]\n 24518: a1 = u64 [sp + 0x18]\n 24521: a2 = 0x100000000\n 24531: a2 = a2 ^ a0\n 24534: a2 = a2 | a1\n 24537: a3 = a0 >> 0x20\n 24540: a3 = a3 <u 0x1\n 24543: a3 = 0 if a1 != 0\n 24545: a3 = 0 if a2 == 0\n 24547: jump @914 if a3 == 0\n      : @912 (gas: 12)\n 24550: a2 = u64 [sp]\n 24552: a3 = u64 [sp + 0x8]\n 24555: u64 [s1] = a2\n 24557: u64 [s1 + 0x8] = a3\n 24560: u64 [s1 + 0x10] = a0\n 24563: u64 [s1 + 0x18] = a1\n 24566: sp = s0 + 0xffffffffffffffc0\n 24569: ra = u64 [sp + 0x38]\n 24572: s0 = u64 [sp + 0x30]\n 24575: s1 = u64 [sp + 0x28]\n 24578: sp = sp + 0x40\n 24581: ret\n      : @913 (gas: 1)\n 24583: trap\n      : @914 (gas: 7)\n 24584: a1 = 0x20250\n 24589: i32 a1 = a1 + 0\n 24591: a0 = 0x1\n 24594: a2 = 0\n 24596: ra = 0x3b4\n 24600: ecalli 12 // 'seal_return'\n 24602: fallthrough\n      : @915 [@dyn 474] (gas: 23)\n 24603: sp = sp + 0xffffffffffffff10\n 24607: u64 [sp + 0xe8] = ra\n 24611: u64 [sp + 0xe0] = s0\n 24615: u64 [sp + 0xd8] = s1\n 24619: s0 = sp + 0xf0\n 24623: sp = sp & 0xfffffffffffffff0\n 24626: s1 = u64 [a1 + 0x10]\n 24629: t0 = u64 [a1 + 0x18]\n 24632: a5 = u64 [a1 + 0x8]\n 24635: a1 = u64 [a1]\n 24637: u64 [sp + 0x68] = a5\n 24640: u64 [sp + 0x58] = t0\n 24643: t1 = a5 | t0\n 24646: t0 = a1\n 24648: a5 = a1 | s1\n 24651: a5 = a5 | t1\n 24654: a5 = a5 >> 0x20\n 24657: u64 [sp + 0x60] = s1\n 24660: a1 = t1 | s1\n 24663: a1 = a1 << 0x20\n 24666: a1 = a1 | a5\n 24669: u64 [sp + 0x50] = a0\n 24672: jump @922 if a1 != 0\n      : @916 (gas: 28)\n 24676: a0 = u64 [a4 + 0x18]\n 24679: u64 [sp + 0x18] = a0\n 24682: a0 = u64 [a4 + 0x10]\n 24685: u64 [sp + 0x8] = a0\n 24688: a0 = u64 [a4 + 0x8]\n 24691: u64 [sp + 0x10] = a0\n 24694: a0 = u64 [a4]\n 24696: u64 [sp] = a0\n 24698: a0 = u64 [a3 + 0x18]\n 24701: u64 [sp + 0x48] = a0\n 24704: a0 = u64 [a3 + 0x10]\n 24707: u64 [sp + 0x40] = a0\n 24710: a0 = u64 [a3 + 0x8]\n 24713: u64 [sp + 0x38] = a0\n 24716: a0 = u64 [a3]\n 24718: u64 [sp + 0x30] = a0\n 24721: a0 = u64 [a2 + 0x18]\n 24724: a1 = u64 [a2 + 0x10]\n 24727: a3 = u64 [a2 + 0x8]\n 24730: a2 = u64 [a2]\n 24732: u64 [sp + 0xb0] = a2\n 24736: u64 [sp + 0xb8] = a3\n 24740: u64 [sp + 0xc0] = a1\n 24744: a1 = sp + 0xb0\n 24748: u64 [sp + 0xc8] = a0\n 24752: s1 = t0\n 24754: a0 = t0\n 24756: ra = 950, jump @4\n      : @917 [@dyn 475] (gas: 12)\n 24762: a0 = u64 [sp + 0x60]\n 24765: a1 = u64 [sp + 0x58]\n 24768: a2 = a0 | a1\n 24771: a0 = 0x100000000\n 24781: u64 [sp + 0x20] = a0\n 24784: a0 = 0xffffffe0\n 24794: a0 = s1 <u a0\n 24797: a1 = u64 [sp + 0x68]\n 24800: a0 = 0 if a1 != 0\n 24802: u64 [sp + 0x28] = a2\n 24805: a0 = 0 if a2 != 0\n 24807: jump @922 if a0 == 0\n      : @918 (gas: 11)\n 24811: i32 a0 = s1 + 0x20\n 24814: a1 = u64 [sp + 0x30]\n 24817: u64 [sp + 0x90] = a1\n 24821: a1 = u64 [sp + 0x38]\n 24824: u64 [sp + 0x98] = a1\n 24828: a1 = u64 [sp + 0x40]\n 24831: u64 [sp + 0xa0] = a1\n 24835: a1 = sp + 0x90\n 24839: a2 = u64 [sp + 0x48]\n 24842: u64 [sp + 0xa8] = a2\n 24846: ra = 952, jump @4\n      : @919 [@dyn 476] (gas: 8)\n 24852: a0 = u64 [sp + 0x20]\n 24855: a0 = a0 + 0xffffffffffffffc0\n 24858: a0 = s1 <u a0\n 24861: a1 = u64 [sp + 0x68]\n 24864: a0 = 0 if a1 != 0\n 24866: a1 = u64 [sp + 0x28]\n 24869: a0 = 0 if a1 != 0\n 24871: jump @922 if a0 == 0\n      : @920 (gas: 30)\n 24875: a0 = u64 [sp + 0x8]\n 24878: a1 = u64 [sp]\n 24880: a0 = a0 | a1\n 24883: a1 = u64 [sp + 0x18]\n 24886: a2 = u64 [sp + 0x10]\n 24889: a1 = a1 | a2\n 24892: a0 = a0 | a1\n 24895: a1 = a0 >u 0\n 24897: a0 = s1 + 0x60\n 24900: u64 [sp + 0x48] = a0\n 24903: a0 = a0 <u s1\n 24906: a2 = u64 [sp + 0x68]\n 24909: a3 = a2 + a0\n 24912: u64 [sp + 0x40] = a3\n 24915: a2 = a3 <u a2\n 24918: a2 = a0 if a0 == 0\n 24921: a0 = u64 [sp + 0x60]\n 24924: a2 = a2 + a0\n 24927: u64 [sp + 0x68] = a2\n 24930: a0 = a2 <u a0\n 24933: a2 = u64 [sp + 0x58]\n 24936: a0 = a0 + a2\n 24939: u64 [sp + 0x60] = a0\n 24942: i32 a0 = s1 + 0x40\n 24945: u64 [sp + 136] = 0\n 24949: u64 [sp + 128] = 0\n 24953: u64 [sp + 0x70] = a1\n 24956: a1 = sp + 0x70\n 24959: u64 [sp + 120] = 0\n 24962: ra = 954, jump @4\n      : @921 [@dyn 477] (gas: 15)\n 24968: a0 = u64 [sp + 0x50]\n 24971: a1 = u64 [sp + 0x60]\n 24974: u64 [a0 + 0x18] = a1\n 24977: a1 = u64 [sp + 0x68]\n 24980: u64 [a0 + 0x10] = a1\n 24983: a1 = u64 [sp + 0x40]\n 24986: u64 [a0 + 0x8] = a1\n 24989: a1 = u64 [sp + 0x48]\n 24992: u64 [a0] = a1\n 24994: sp = s0 + 0xffffffffffffff10\n 24998: ra = u64 [sp + 0xe8]\n 25002: s0 = u64 [sp + 0xe0]\n 25006: s1 = u64 [sp + 0xd8]\n 25010: sp = sp + 0xf0\n 25014: ret\n      : @922 (gas: 1)\n 25016: trap\n      : @923 (gas: 19)\n 25017: sp = sp + 0xffffffffffffff90\n 25020: u64 [sp + 0x68] = ra\n 25023: u64 [sp + 0x60] = s0\n 25026: s0 = sp + 0x70\n 25029: sp = sp & 0xfffffffffffffff0\n 25032: a3 = u64 [a0 + 0x18]\n 25035: a2 = u64 [a0 + 0x10]\n 25038: t1 = u64 [a0]\n 25040: a0 = u64 [a0 + 0x8]\n 25043: a4 = a3 >u 0\n 25045: a5 = a2 >u 0\n 25047: a5 = a4 if a3 != 0\n 25050: t0 = a0 >u 0\n 25052: a4 = t1 <u 0xffffffffffffffa0\n 25055: a4 = a4 ^ 0x1\n 25058: a4 = t0 if a0 != 0\n 25061: a1 = a2 | a3\n 25064: a4 = a5 if a1 != 0\n 25067: jump @926 if a4 != 0\n      : @924 (gas: 15)\n 25070: a1 = t1 + 0x60\n 25073: a4 = a1 <u t1\n 25076: a5 = a0 + a4\n 25079: a0 = a5 <u a0\n 25082: a0 = a4 if a4 == 0\n 25085: a0 = a0 + a2\n 25088: a2 = a0 <u a2\n 25091: a2 = a2 + a3\n 25094: u64 [sp + 0x40] = a1\n 25097: u64 [sp + 0x48] = a5\n 25100: u64 [sp + 0x50] = a0\n 25103: a0 = 0x40\n 25106: a1 = sp + a0\n 25109: u64 [sp + 0x58] = a2\n 25112: ra = 956, jump @4\n      : @925 [@dyn 478] (gas: 5)\n 25118: sp = s0 + 0xffffffffffffff90\n 25121: ra = u64 [sp + 0x68]\n 25124: s0 = u64 [sp + 0x60]\n 25127: sp = sp + 0x70\n 25130: ret\n      : @926 (gas: 8)\n 25132: u64 [sp + 48] = 0\n 25135: u64 [sp + 40] = 0\n 25138: u64 [sp + 32] = 0\n 25141: a0 = 0x4e487b7100000000\n 25151: a1 = sp + 0x20\n 25154: u64 [sp + 0x38] = a0\n 25157: a0 = 0\n 25159: ra = 958, jump @4\n      : @927 [@dyn 479] (gas: 7)\n 25165: u64 [sp + 24] = 0\n 25168: u64 [sp + 16] = 0\n 25171: u64 [sp + 0] = 0x41\n 25174: a0 = 0x4\n 25177: a1 = sp\n 25179: u64 [sp + 8] = 0\n 25182: ra = 960, jump @4\n      : @928 [@dyn 480] (gas: 2)\n 25188: a1 = i32 [0x2023c]\n 25193: jump @930 if a1 >u 63\n      : @929 (gas: 2)\n 25197: u32 [0x2023c] = 0x40\n 25203: fallthrough\n      : @930 (gas: 7)\n 25204: a1 = 0x20250\n 25209: i32 a1 = a1 + 0\n 25211: a0 = 0x1\n 25214: a2 = 0x24\n 25217: ra = 0x3c2\n 25221: ecalli 12 // 'seal_return'\n 25223: fallthrough\n      : @931 [@dyn 481] (gas: 46)\n 25224: sp = sp + 0xffffffffffffff70\n 25228: u64 [sp + 0x88] = ra\n 25232: u64 [sp + 0x80] = s0\n 25236: u64 [sp + 0x78] = s1\n 25239: s0 = sp + 0x90\n 25243: sp = sp & 0xfffffffffffffff0\n 25246: t0 = a0\n 25248: a2 = u64 [a1]\n 25250: t2 = u64 [a0 + 0x8]\n 25253: a5 = u64 [a1 + 0x8]\n 25256: t1 = u64 [a0]\n 25258: a3 = a2 + 0x1f\n 25261: ra = a3 <u a2\n 25264: a2 = a5 + ra\n 25267: a3 = a3 & 0xffffffffffffffe0\n 25270: u64 [sp + 0x8] = t1\n 25273: t1 = t1 + a3\n 25276: a4 = t1 <u a3\n 25279: a3 = a2 + t2\n 25282: a3 = a3 + a4\n 25285: s1 = a3 ^ a2\n 25288: a0 = a3 <u a2\n 25291: a0 = a4 if s1 == 0\n 25294: a4 = u64 [t0 + 0x18]\n 25297: a5 = a2 <u a5\n 25300: s1 = u64 [a1 + 0x10]\n 25303: t0 = u64 [t0 + 0x10]\n 25306: a1 = u64 [a1 + 0x18]\n 25309: a5 = ra if ra == 0\n 25312: a5 = a5 + s1\n 25315: s1 = a5 <u s1\n 25318: a2 = a5 + t0\n 25321: a0 = a0 + a2\n 25324: a5 = a2 <u a5\n 25327: a2 = a0 <u a2\n 25330: a1 = a1 + a4\n 25333: a1 = a1 + s1\n 25336: a1 = a1 + a5\n 25339: a5 = a1 + a2\n 25342: a1 = a5 >u 0\n 25344: a2 = a0 >u 0\n 25346: a2 = a1 if a5 != 0\n 25349: a1 = a0 | a5\n 25352: s1 = a3 >u 0\n 25354: s1 = a2 if a1 != 0\n 25357: jump @935 if s1 != 0\n      : @932 (gas: 13)\n 25360: a1 = u64 [sp + 0x8]\n 25363: a1 = t1 <u a1\n 25366: a2 = a3 ^ t2\n 25369: s1 = a3 <u t2\n 25372: s1 = a1 if a2 == 0\n 25375: a1 = a0 <u t0\n 25378: a2 = a5 ^ a4\n 25381: a4 = a5 <u a4\n 25384: a4 = a1 if a2 == 0\n 25387: a1 = a0 ^ t0\n 25390: a1 = a1 | a2\n 25393: a4 = s1 if a1 == 0\n 25396: jump @935 if a4 != 0\n      : @933 (gas: 7)\n 25399: u64 [sp + 0x50] = t1\n 25402: u64 [sp + 0x58] = a3\n 25405: u64 [sp + 0x60] = a0\n 25408: a0 = 0x40\n 25411: a1 = sp + 0x50\n 25414: u64 [sp + 0x68] = a5\n 25417: ra = 964, jump @4\n      : @934 [@dyn 482] (gas: 6)\n 25423: sp = s0 + 0xffffffffffffff70\n 25427: ra = u64 [sp + 0x88]\n 25431: s0 = u64 [sp + 0x80]\n 25435: s1 = u64 [sp + 0x78]\n 25438: sp = sp + 0x90\n 25442: ret\n      : @935 (gas: 1)\n 25444: t0 = 966, jump @1022\n      : @936 [@dyn 483] (gas: 1)\n 25450: ra = 968, jump @4\n      : @937 [@dyn 484] (gas: 7)\n 25456: u64 [sp + 40] = 0\n 25459: u64 [sp + 32] = 0\n 25462: u64 [sp + 16] = 0x41\n 25466: a0 = 0x4\n 25469: a1 = sp + 0x10\n 25472: u64 [sp + 24] = 0\n 25475: ra = 970, jump @4\n      : @938 [@dyn 485] (gas: 2)\n 25481: a1 = i32 [0x2023c]\n 25486: jump @940 if a1 >u 63\n      : @939 (gas: 2)\n 25490: u32 [0x2023c] = 0x40\n 25496: fallthrough\n      : @940 (gas: 7)\n 25497: a1 = 0x20250\n 25502: i32 a1 = a1 + 0\n 25504: a0 = 0x1\n 25507: a2 = 0x24\n 25510: ra = 0x3cc\n 25514: ecalli 12 // 'seal_return'\n 25516: fallthrough\n      : @941 [@dyn 486] (gas: 30)\n 25517: sp = sp + 0xffffffffffffff80\n 25520: u64 [sp + 0x78] = ra\n 25523: u64 [sp + 0x70] = s0\n 25526: u64 [sp + 0x68] = s1\n 25529: s0 = sp + 0x80\n 25533: sp = sp & 0xfffffffffffffff0\n 25536: a4 = u64 [a2]\n 25538: a3 = u64 [a1]\n 25540: s1 = u64 [a2 + 0x8]\n 25543: t1 = u64 [a1 + 0x8]\n 25546: t2 = u64 [a2 + 0x10]\n 25549: a5 = u64 [a1 + 0x10]\n 25552: a2 = u64 [a2 + 0x18]\n 25555: a1 = u64 [a1 + 0x18]\n 25558: t0 = t1 ^ s1\n 25561: u64 [sp + 0x8] = s1\n 25564: s1 = t1 <u s1\n 25567: u64 [sp + 0x18] = a4\n 25570: u64 [sp + 0x10] = a3\n 25573: a3 = a3 <u a4\n 25576: u64 [sp] = a3\n 25578: s1 = a3 if t0 == 0\n 25581: a3 = a1 ^ a2\n 25584: ra = a1 <u a2\n 25587: t0 = a5 <u t2\n 25590: ra = t0 if a3 == 0\n 25593: a4 = a5 ^ t2\n 25596: a3 = a3 | a4\n 25599: ra = s1 if a3 == 0\n 25602: jump @943 if ra != 0\n      : @942 (gas: 23)\n 25605: a3 = a5 - t2\n 25608: a1 = a1 - a2\n 25611: a1 = a1 - t0\n 25614: a2 = a3 <u s1\n 25617: a1 = a1 - a2\n 25620: a3 = a3 - s1\n 25623: a2 = u64 [sp + 0x8]\n 25626: a2 = t1 - a2\n 25629: a4 = u64 [sp]\n 25631: a2 = a2 - a4\n 25634: a4 = u64 [sp + 0x18]\n 25637: a5 = u64 [sp + 0x10]\n 25640: a4 = a5 - a4\n 25643: u64 [a0] = a4\n 25645: u64 [a0 + 0x8] = a2\n 25648: u64 [a0 + 0x10] = a3\n 25651: u64 [a0 + 0x18] = a1\n 25654: sp = s0 + 0xffffffffffffff80\n 25657: ra = u64 [sp + 0x78]\n 25660: s0 = u64 [sp + 0x70]\n 25663: s1 = u64 [sp + 0x68]\n 25666: sp = sp + 0x80\n 25670: ret\n      : @943 (gas: 8)\n 25672: u64 [sp + 80] = 0\n 25675: u64 [sp + 72] = 0\n 25678: u64 [sp + 64] = 0\n 25681: a0 = 0x4e487b7100000000\n 25691: a1 = sp + 0x40\n 25694: u64 [sp + 0x58] = a0\n 25697: a0 = 0\n 25699: ra = 974, jump @4\n      : @944 [@dyn 487] (gas: 7)\n 25705: u64 [sp + 56] = 0\n 25708: u64 [sp + 48] = 0\n 25711: u64 [sp + 32] = 0x11\n 25715: a0 = 0x4\n 25718: a1 = sp + 0x20\n 25721: u64 [sp + 40] = 0\n 25724: ra = 976, jump @4\n      : @945 [@dyn 488] (gas: 2)\n 25730: a1 = i32 [0x2023c]\n 25735: jump @947 if a1 >u 63\n      : @946 (gas: 2)\n 25739: u32 [0x2023c] = 0x40\n 25745: fallthrough\n      : @947 (gas: 7)\n 25746: a1 = 0x20250\n 25751: i32 a1 = a1 + 0\n 25753: a0 = 0x1\n 25756: a2 = 0x24\n 25759: ra = 0x3d2\n 25763: ecalli 12 // 'seal_return'\n 25765: fallthrough\n      : @948 [@dyn 489] (gas: 53)\n 25766: sp = sp + 0xffffffffffffff90\n 25769: u64 [sp + 0x68] = ra\n 25772: u64 [sp + 0x60] = s0\n 25775: u64 [sp + 0x58] = s1\n 25778: s0 = sp + 0x70\n 25781: sp = sp & 0xfffffffffffffff0\n 25784: a3 = a1\n 25786: t2 = u64 [a1 + 0x10]\n 25789: a1 = u64 [a1 + 0x8]\n 25792: t0 = u64 [a2 + 0x8]\n 25795: s1 = u64 [a3]\n 25797: u64 [sp] = s1\n 25799: a4 = u64 [a2]\n 25801: u64 [sp + 0x8] = a4\n 25804: ra = u64 [a2 + 0x10]\n 25807: a5 = t0 ^ a1\n 25810: u64 [sp + 0x28] = a5\n 25813: a5 = t0 <u a1\n 25816: a4 = a4 <u s1\n 25819: t1 = u64 [sp + 0x28]\n 25822: a5 = a4 if t1 == 0\n 25825: s1 = a4\n 25827: a3 = u64 [a3 + 0x18]\n 25830: u64 [sp + 0x18] = a3\n 25833: a2 = u64 [a2 + 0x18]\n 25836: u64 [sp + 0x10] = a2\n 25839: a3 = ra - t2\n 25842: a2 = a3 - a5\n 25845: u64 [sp + 0x20] = a2\n 25848: a2 = a3 <u a5\n 25851: u64 [sp + 0x28] = t2\n 25854: a4 = ra <u t2\n 25857: t2 = u64 [sp + 0x18]\n 25860: a3 = u64 [sp + 0x10]\n 25863: a3 = a3 - t2\n 25866: a3 = a3 - a4\n 25869: a3 = a3 - a2\n 25872: a2 = t0 - a1\n 25875: a2 = a2 - s1\n 25878: t0 = u64 [sp]\n 25880: a4 = u64 [sp + 0x8]\n 25883: a4 = a4 - t0\n 25886: a5 = a2 >u 0\n 25888: a4 = a4 <u 0x20\n 25891: a4 = a4 ^ 0x1\n 25894: a4 = a5 if a2 != 0\n 25897: s1 = a3 >s 0\n 25899: a2 = u64 [sp + 0x20]\n 25902: a5 = a2 >u 0\n 25904: a5 = s1 if a3 != 0\n 25907: a2 = a2 | a3\n 25910: a4 = a5 if a2 != 0\n 25913: jump @954 if a4 == 0\n      : @949 (gas: 10)\n 25916: s1 = a0\n 25918: a3 = u64 [sp + 0x28]\n 25921: a0 = t0 | a3\n 25924: a2 = a1 | t2\n 25927: a0 = a0 | a2\n 25930: a0 = a0 >> 0x20\n 25933: a2 = a2 | a3\n 25936: a2 = a2 << 0x20\n 25939: a0 = a0 | a2\n 25942: jump @953 if a0 != 0\n      : @950 (gas: 3)\n 25945: a0 = sp + 0x30\n 25948: a1 = t0\n 25950: ra = 980, jump @2\n      : @951 [@dyn 490] (gas: 9)\n 25956: a0 = u64 [sp + 0x48]\n 25959: a1 = u64 [sp + 0x40]\n 25962: a2 = u64 [sp + 0x30]\n 25965: a3 = u64 [sp + 0x38]\n 25968: a4 = a1 | a0\n 25971: a5 = a2 <u 0x2\n 25974: a5 = 0 if a3 != 0\n 25976: a5 = 0 if a4 != 0\n 25978: jump @955 if a5 == 0\n      : @952 (gas: 10)\n 25981: u64 [s1] = a2\n 25983: u64 [s1 + 0x8] = a3\n 25986: u64 [s1 + 0x10] = a1\n 25989: u64 [s1 + 0x18] = a0\n 25992: sp = s0 + 0xffffffffffffff90\n 25995: ra = u64 [sp + 0x68]\n 25998: s0 = u64 [sp + 0x60]\n 26001: s1 = u64 [sp + 0x58]\n 26004: sp = sp + 0x70\n 26007: ret\n      : @953 (gas: 1)\n 26009: trap\n      : @954 (gas: 2)\n 26010: a1 = 0x20250\n 26015: jump @956\n      : @955 (gas: 2)\n 26017: a1 = 0x20250\n 26022: fallthrough\n      : @956 (gas: 6)\n 26023: i32 a1 = a1 + 0\n 26025: a0 = 0x1\n 26028: a2 = 0\n 26030: ra = 0x3d6\n 26034: ecalli 12 // 'seal_return'\n 26036: fallthrough\n      : @957 [@dyn 491] (gas: 22)\n 26037: sp = sp + 0xffffffffffffff50\n 26041: u64 [sp + 0xa8] = ra\n 26045: u64 [sp + 0xa0] = s0\n 26049: u64 [sp + 0x98] = s1\n 26053: s0 = sp + 0xb0\n 26057: sp = sp & 0xfffffffffffffff0\n 26060: a5 = u64 [a1 + 0x10]\n 26063: a4 = u64 [a1 + 0x18]\n 26066: s1 = u64 [a1 + 0x8]\n 26069: t0 = u64 [a1]\n 26071: u64 [sp + 0x40] = a4\n 26074: u64 [sp + 0x38] = s1\n 26077: a1 = s1 | a4\n 26080: a4 = t0 | a5\n 26083: a4 = a4 | a1\n 26086: a4 = a4 >> 0x20\n 26089: u64 [sp + 0x48] = a5\n 26092: a1 = a1 | a5\n 26095: a1 = a1 << 0x20\n 26098: a1 = a1 | a4\n 26101: u64 [sp + 0x30] = a0\n 26104: jump @962 if a1 != 0\n      : @958 (gas: 21)\n 26108: s1 = t0\n 26110: a0 = u64 [a3 + 0x18]\n 26113: u64 [sp + 0x28] = a0\n 26116: a0 = u64 [a3 + 0x10]\n 26119: u64 [sp + 0x20] = a0\n 26122: a0 = u64 [a3 + 0x8]\n 26125: u64 [sp + 0x18] = a0\n 26128: a0 = u64 [a3]\n 26130: u64 [sp + 0x10] = a0\n 26133: a0 = u64 [a2 + 0x10]\n 26136: a1 = u64 [a2 + 0x8]\n 26139: a2 = u64 [a2]\n 26141: a0 = a0 << 0x20\n 26144: a0 = a0 >> 0x20\n 26147: u64 [sp + 136] = 0\n 26151: u64 [sp + 0x70] = a2\n 26154: u64 [sp + 0x78] = a1\n 26157: a1 = sp + 0x70\n 26160: u64 [sp + 0x80] = a0\n 26164: a0 = t0\n 26166: ra = 984, jump @4\n      : @959 [@dyn 492] (gas: 9)\n 26172: a2 = u64 [sp + 0x48]\n 26175: a3 = u64 [sp + 0x40]\n 26178: a0 = a2 | a3\n 26181: a1 = 0xffffffe0\n 26191: a1 = s1 <u a1\n 26194: a4 = u64 [sp + 0x38]\n 26197: a1 = 0 if a4 != 0\n 26199: a1 = 0 if a0 != 0\n 26201: jump @962 if a1 == 0\n      : @960 (gas: 23)\n 26204: a0 = s1 + 0x40\n 26207: u64 [sp + 0x8] = a0\n 26210: a0 = a0 <u s1\n 26213: a1 = a4 + a0\n 26216: u64 [sp] = a1\n 26218: a1 = a1 <u a4\n 26221: a1 = a0 if a0 == 0\n 26224: a1 = a1 + a2\n 26227: u64 [sp + 0x38] = a1\n 26230: a0 = a1 <u a2\n 26233: a0 = a0 + a3\n 26236: u64 [sp + 0x48] = a0\n 26239: i32 a0 = s1 + 0x20\n 26242: a1 = u64 [sp + 0x10]\n 26245: u64 [sp + 0x50] = a1\n 26248: a1 = u64 [sp + 0x18]\n 26251: u64 [sp + 0x58] = a1\n 26254: a1 = u64 [sp + 0x20]\n 26257: u64 [sp + 0x60] = a1\n 26260: a1 = sp + 0x50\n 26263: a2 = u64 [sp + 0x28]\n 26266: u64 [sp + 0x68] = a2\n 26269: ra = 986, jump @4\n      : @961 [@dyn 493] (gas: 15)\n 26275: a0 = u64 [sp + 0x30]\n 26278: a1 = u64 [sp + 0x38]\n 26281: u64 [a0 + 0x10] = a1\n 26284: a1 = u64 [sp]\n 26286: u64 [a0 + 0x8] = a1\n 26289: a1 = u64 [sp + 0x8]\n 26292: u64 [a0] = a1\n 26294: a1 = u64 [sp + 0x48]\n 26297: u64 [a0 + 0x18] = a1\n 26300: sp = s0 + 0xffffffffffffff50\n 26304: ra = u64 [sp + 0xa8]\n 26308: s0 = u64 [sp + 0xa0]\n 26312: s1 = u64 [sp + 0x98]\n 26316: sp = sp + 0xb0\n 26320: ret\n      : @962 (gas: 1)\n 26322: trap\n      : @963 (gas: 45)\n 26323: sp = sp + 0xffffffffffffff90\n 26326: u64 [sp + 0x68] = ra\n 26329: u64 [sp + 0x60] = s0\n 26332: u64 [sp + 0x58] = s1\n 26335: s0 = sp + 0x70\n 26338: sp = sp & 0xfffffffffffffff0\n 26341: a3 = u64 [a1 + 0x18]\n 26344: u64 [sp + 0x8] = a3\n 26347: a4 = u64 [a2 + 0x18]\n 26350: t2 = u64 [a1]\n 26352: u64 [sp] = t2\n 26354: a3 = u64 [a1 + 0x8]\n 26357: s1 = u64 [a2 + 0x8]\n 26360: a5 = u64 [a2]\n 26362: t1 = u64 [a1 + 0x10]\n 26365: t0 = u64 [a2 + 0x10]\n 26368: a2 = s1 + a3\n 26371: t2 = t2 + a5\n 26374: a5 = t2 <u a5\n 26377: a2 = a2 + a5\n 26380: ra = a2 ^ s1\n 26383: s1 = a2 <u s1\n 26386: s1 = a5 if ra == 0\n 26389: a1 = t0 + t1\n 26392: a5 = u64 [sp + 0x8]\n 26395: a5 = a5 + a4\n 26398: a4 = a1 <u t0\n 26401: a4 = a4 + a5\n 26404: a5 = a1 + s1\n 26407: a1 = a5 <u a1\n 26410: ra = a4 + a1\n 26413: a4 = a2 ^ a3\n 26416: a3 = a2 <u a3\n 26419: a1 = u64 [sp]\n 26421: s1 = t2 <u a1\n 26424: s1 = a3 if a4 != 0\n 26427: t0 = a5 <u t1\n 26430: a1 = u64 [sp + 0x8]\n 26433: a4 = ra ^ a1\n 26436: a3 = ra <u a1\n 26439: a3 = t0 if a4 == 0\n 26442: a1 = a5 ^ t1\n 26445: a1 = a1 | a4\n 26448: s1 = a3 if a1 != 0\n 26451: jump @965 if s1 != 0\n      : @964 (gas: 10)\n 26454: u64 [a0] = t2\n 26456: u64 [a0 + 0x8] = a2\n 26459: u64 [a0 + 0x10] = a5\n 26462: u64 [a0 + 0x18] = ra\n 26465: sp = s0 + 0xffffffffffffff90\n 26468: ra = u64 [sp + 0x68]\n 26471: s0 = u64 [sp + 0x60]\n 26474: s1 = u64 [sp + 0x58]\n 26477: sp = sp + 0x70\n 26480: ret\n      : @965 (gas: 1)\n 26482: t0 = 988, jump @1022\n      : @966 [@dyn 494] (gas: 1)\n 26488: ra = 990, jump @4\n      : @967 [@dyn 495] (gas: 7)\n 26494: u64 [sp + 40] = 0\n 26497: u64 [sp + 32] = 0\n 26500: u64 [sp + 16] = 0x11\n 26504: a0 = 0x4\n 26507: a1 = sp + 0x10\n 26510: u64 [sp + 24] = 0\n 26513: ra = 992, jump @4\n      : @968 [@dyn 496] (gas: 2)\n 26519: a1 = i32 [0x2023c]\n 26524: jump @970 if a1 >u 63\n      : @969 (gas: 2)\n 26528: u32 [0x2023c] = 0x40\n 26534: fallthrough\n      : @970 (gas: 7)\n 26535: a1 = 0x20250\n 26540: i32 a1 = a1 + 0\n 26542: a0 = 0x1\n 26545: a2 = 0x24\n 26548: ra = 0x3e2\n 26552: ecalli 12 // 'seal_return'\n 26554: fallthrough\n      : @971 [@dyn 497] (gas: 23)\n 26555: sp = sp + 0xffffffffffffff10\n 26559: u64 [sp + 0xe8] = ra\n 26563: u64 [sp + 0xe0] = s0\n 26567: u64 [sp + 0xd8] = s1\n 26571: s0 = sp + 0xf0\n 26575: sp = sp & 0xfffffffffffffff0\n 26578: s1 = u64 [a1 + 0x10]\n 26581: t0 = u64 [a1 + 0x18]\n 26584: a5 = u64 [a1 + 0x8]\n 26587: a1 = u64 [a1]\n 26589: u64 [sp + 0x68] = a5\n 26592: u64 [sp + 0x58] = t0\n 26595: t1 = a5 | t0\n 26598: t0 = a1\n 26600: a5 = a1 | s1\n 26603: a5 = a5 | t1\n 26606: a5 = a5 >> 0x20\n 26609: u64 [sp + 0x60] = s1\n 26612: a1 = t1 | s1\n 26615: a1 = a1 << 0x20\n 26618: a1 = a1 | a5\n 26621: u64 [sp + 0x50] = a0\n 26624: jump @978 if a1 != 0\n      : @972 (gas: 27)\n 26628: a0 = u64 [a4 + 0x18]\n 26631: u64 [sp + 0x20] = a0\n 26634: a0 = u64 [a4 + 0x10]\n 26637: u64 [sp + 0x18] = a0\n 26640: a0 = u64 [a4 + 0x8]\n 26643: u64 [sp + 0x10] = a0\n 26646: a0 = u64 [a4]\n 26648: u64 [sp + 0x8] = a0\n 26651: a0 = u64 [a3 + 0x10]\n 26654: u64 [sp + 0x30] = a0\n 26657: a0 = u64 [a3 + 0x8]\n 26660: u64 [sp + 0x38] = a0\n 26663: a0 = u64 [a3]\n 26665: u64 [sp + 0x40] = a0\n 26668: a0 = u64 [a2 + 0x10]\n 26671: a1 = u64 [a2 + 0x8]\n 26674: a2 = u64 [a2]\n 26676: a0 = a0 << 0x20\n 26679: a0 = a0 >> 0x20\n 26682: u64 [sp + 200] = 0\n 26686: u64 [sp + 0xb0] = a2\n 26690: u64 [sp + 0xb8] = a1\n 26694: a1 = sp + 0xb0\n 26698: u64 [sp + 0xc0] = a0\n 26702: s1 = t0\n 26704: a0 = t0\n 26706: ra = 996, jump @4\n      : @973 [@dyn 498] (gas: 12)\n 26712: a0 = u64 [sp + 0x60]\n 26715: a1 = u64 [sp + 0x58]\n 26718: a2 = a0 | a1\n 26721: a0 = 0x100000000\n 26731: u64 [sp + 0x28] = a0\n 26734: a0 = 0xffffffe0\n 26744: a0 = s1 <u a0\n 26747: a1 = u64 [sp + 0x68]\n 26750: a0 = 0 if a1 != 0\n 26752: u64 [sp + 0x48] = a2\n 26755: a0 = 0 if a2 != 0\n 26757: jump @978 if a0 == 0\n      : @974 (gas: 14)\n 26761: a1 = 0xffffffff\n 26771: a2 = u64 [sp + 0x30]\n 26774: a2 = a2 & a1\n 26777: a1 = u64 [sp + 0x38]\n 26780: a1 = a1 & 0xffffffffffffffff\n 26783: a3 = u64 [sp + 0x40]\n 26786: a3 = a3 & 0xffffffffffffffff\n 26789: i32 a0 = s1 + 0x20\n 26792: u64 [sp + 168] = 0\n 26796: u64 [sp + 0x90] = a3\n 26800: u64 [sp + 0x98] = a1\n 26804: a1 = sp + 0x90\n 26808: u64 [sp + 0xa0] = a2\n 26812: ra = 998, jump @4\n      : @975 [@dyn 499] (gas: 8)\n 26818: a0 = u64 [sp + 0x28]\n 26821: a0 = a0 + 0xffffffffffffffc0\n 26824: a0 = s1 <u a0\n 26827: a1 = u64 [sp + 0x68]\n 26830: a0 = 0 if a1 != 0\n 26832: a1 = u64 [sp + 0x48]\n 26835: a0 = 0 if a1 != 0\n 26837: jump @978 if a0 == 0\n      : @976 (gas: 26)\n 26841: a0 = s1 + 0x60\n 26844: u64 [sp + 0x48] = a0\n 26847: a0 = a0 <u s1\n 26850: a1 = u64 [sp + 0x68]\n 26853: a2 = a1 + a0\n 26856: u64 [sp + 0x40] = a2\n 26859: a1 = a2 <u a1\n 26862: a1 = a0 if a0 == 0\n 26865: a0 = u64 [sp + 0x60]\n 26868: a1 = a1 + a0\n 26871: u64 [sp + 0x38] = a1\n 26874: a0 = a1 <u a0\n 26877: a1 = u64 [sp + 0x58]\n 26880: a0 = a0 + a1\n 26883: u64 [sp + 0x68] = a0\n 26886: i32 a0 = s1 + 0x40\n 26889: a1 = u64 [sp + 0x8]\n 26892: u64 [sp + 0x70] = a1\n 26895: a1 = u64 [sp + 0x10]\n 26898: u64 [sp + 0x78] = a1\n 26901: a1 = u64 [sp + 0x18]\n 26904: u64 [sp + 0x80] = a1\n 26908: a1 = sp + 0x70\n 26911: a2 = u64 [sp + 0x20]\n 26914: u64 [sp + 0x88] = a2\n 26918: ra = 1000, jump @4\n      : @977 [@dyn 500] (gas: 15)\n 26924: a0 = u64 [sp + 0x50]\n 26927: a1 = u64 [sp + 0x38]\n 26930: u64 [a0 + 0x10] = a1\n 26933: a1 = u64 [sp + 0x40]\n 26936: u64 [a0 + 0x8] = a1\n 26939: a1 = u64 [sp + 0x48]\n 26942: u64 [a0] = a1\n 26944: a1 = u64 [sp + 0x68]\n 26947: u64 [a0 + 0x18] = a1\n 26950: sp = s0 + 0xffffffffffffff10\n 26954: ra = u64 [sp + 0xe8]\n 26958: s0 = u64 [sp + 0xe0]\n 26962: s1 = u64 [sp + 0xd8]\n 26966: sp = sp + 0xf0\n 26970: ret\n      : @978 (gas: 1)\n 26972: trap\n      : @979 (gas: 13)\n 26973: sp = sp + 0xffffffffffffff40\n 26977: u64 [sp + 0xb8] = ra\n 26981: u64 [sp + 0xb0] = s0\n 26985: u64 [sp + 0xa8] = s1\n 26989: s0 = sp + 0xc0\n 26993: sp = sp & 0xffffffffffffffe0\n 26996: u64 [sp + 152] = 0\n 27000: u64 [sp + 144] = 0\n 27004: u64 [sp + 136] = 0\n 27008: u64 [sp + 128] = 0\n 27012: a0 = sp + 0x60\n 27015: a1 = sp + 0x80\n 27019: ra = 1002, jump @6\n      : @980 [@dyn 501] (gas: 11)\n 27025: a0 = u64 [sp + 0x68]\n 27028: u64 [sp + 0x18] = a0\n 27031: a0 = u64 [sp + 0x60]\n 27034: u64 [sp + 0x10] = a0\n 27037: a0 = u32 [sp + 0x70]\n 27040: u64 [sp + 0x8] = a0\n 27043: s1 = 0x30250\n 27048: i32 a0 = s1 + 0\n 27050: u64 [sp] = a0\n 27052: ecalli 5 // 'caller'\n 27054: fallthrough\n      : @981 (gas: 22)\n 27055: a0 = u64 [0x30258]\n 27060: a1 = u64 [0x30250]\n 27065: a2 = i32 [0x30260]\n 27070: a0 = reverse a0\n 27072: a3 = a0 >> 0x20\n 27075: a1 = reverse a1\n 27077: a4 = a1 << 0x20\n 27080: a3 = a3 | a4\n 27083: a0 = a0 << 0x20\n 27086: a2 = reverse a2\n 27088: a2 = a2 >> 0x20\n 27091: a0 = a0 | a2\n 27094: a1 = a1 >> 0x20\n 27097: a2 = u64 [sp + 0x8]\n 27100: a1 = a1 ^ a2\n 27103: a2 = u64 [sp + 0x10]\n 27106: a0 = a0 ^ a2\n 27109: a0 = a0 | a1\n 27112: a1 = u64 [sp + 0x18]\n 27115: a1 = a1 ^ a3\n 27118: a0 = a0 | a1\n 27121: jump @983 if a0 != 0\n      : @982 (gas: 6)\n 27124: sp = s0 + 0xffffffffffffff40\n 27128: ra = u64 [sp + 0xb8]\n 27132: s0 = u64 [sp + 0xb0]\n 27136: s1 = u64 [sp + 0xa8]\n 27140: sp = sp + 0xc0\n 27144: ret\n      : @983 (gas: 8)\n 27146: u64 [sp + 80] = 0\n 27149: u64 [sp + 72] = 0\n 27152: u64 [sp + 64] = 0\n 27155: a0 = 0x118cdaa700000000\n 27165: a1 = sp + 0x40\n 27168: u64 [sp + 0x58] = a0\n 27171: a0 = 0\n 27173: ra = 1004, jump @4\n      : @984 [@dyn 502] (gas: 4)\n 27179: a0 = u64 [sp]\n 27181: ra = 0x3ee\n 27185: ecalli 5 // 'caller'\n 27187: fallthrough\n      : @985 [@dyn 503] (gas: 4)\n 27188: a0 = u64 [s1 + 0x8]\n 27191: a1 = i32 [s1 + 0x10]\n 27194: a2 = u64 [s1]\n 27196: t0 = 1008, jump @1001\n      : @986 [@dyn 504] (gas: 7)\n 27202: u64 [sp + 56] = 0\n 27205: u64 [sp + 0x30] = a1\n 27208: u64 [sp + 0x28] = a0\n 27211: a0 = 0x4\n 27214: a1 = sp + 0x20\n 27217: u64 [sp + 0x20] = a3\n 27220: ra = 1010, jump @4\n      : @987 [@dyn 505] (gas: 2)\n 27226: a1 = i32 [0x2023c]\n 27231: jump @989 if a1 >u 63\n      : @988 (gas: 2)\n 27235: u32 [0x2023c] = 0x40\n 27241: fallthrough\n      : @989 (gas: 8)\n 27242: a1 = 0x20250\n 27247: i32 a1 = a1 + 0\n 27249: a0 = 0x1\n 27252: a2 = 0x24\n 27255: ecalli 12 // 'seal_return'\n 27257: a0 = 0\n 27259: ra = 0x3f4\n 27263: jump @22\n      : @990 [export #0: 'call'] (gas: 2)\n 27266: a0 = 0\n 27268: ra = 1012, jump @22\n      : @991 [@dyn 506] [export #1: 'deploy'] (gas: 2)\n 27274: a0 = 0x1\n 27277: ra = 1014, jump @22\n      : @992 [@dyn 507] (gas: 11)\n 27283: a1 = u64 [s1 + 0xd8]\n 27287: a0 = u64 [s1 + 0xc8]\n 27291: a3 = u64 [s1 + 0xc0]\n 27295: a3 = a3 | a0\n 27298: a4 = 0x100000000\n 27308: a0 = 0xfffffffc\n 27318: a0 = a1 <u a0\n 27321: a2 = u64 [s1 + 0xd0]\n 27325: a0 = 0 if a2 != 0\n 27327: a0 = 0 if a3 != 0\n 27329: jump [t0]\n      : @993 (gas: 7)\n 27331: a4 = 0x100000000\n 27341: a0 = 0xfffffffc\n 27351: a0 = a1 <u a0\n 27354: a2 = u64 [s1 + 0xd0]\n 27358: a0 = 0 if a2 != 0\n 27360: a0 = 0 if a3 != 0\n 27362: jump [t0]\n      : @994 (gas: 9)\n 27364: a1 = u64 [s1 + 0xd8]\n 27368: a0 = u64 [s1 + 0xc0]\n 27372: a0 = a0 + 0xffffffffffffffdc\n 27375: a0 = a1 <u a0\n 27378: a2 = u64 [s1 + 0xd0]\n 27382: a0 = 0 if a2 != 0\n 27384: a2 = u64 [s1 + 0xc8]\n 27388: a0 = 0 if a2 != 0\n 27390: jump [t0]\n      : @995 (gas: 9)\n 27392: a2 = u64 [s1 + 0xd8]\n 27396: a0 = u64 [s1 + 0xc0]\n 27400: a0 = a0 + 0xffffffffffffff9c\n 27403: a0 = a2 <u a0\n 27406: a1 = u64 [s1 + 0xd0]\n 27410: a0 = 0 if a1 != 0\n 27412: a1 = u64 [s1 + 0xc8]\n 27416: a0 = 0 if a1 != 0\n 27418: jump [t0]\n      : @996 (gas: 9)\n 27420: a3 = u64 [s1 + 0xc8]\n 27424: a4 = u64 [s1 + 0xd0]\n 27428: a1 = u64 [s1 + 0xd8]\n 27432: a2 = 0x100000000\n 27442: a0 = 0xffffffbc\n 27452: a0 = a1 <u a0\n 27455: a0 = 0 if a4 != 0\n 27457: a0 = 0 if a3 != 0\n 27459: jump [t0]\n      : @997 (gas: 8)\n 27461: a0 = u64 [a2 + 0x8]\n 27464: a1 = i32 [a2 + 0x10]\n 27467: a2 = u64 [a2]\n 27469: a3 = reverse a0\n 27471: a0 = a3 << 0x20\n 27474: a1 = reverse a1\n 27476: a1 = a1 >> 0x20\n 27479: jump [t0]\n      : @998 (gas: 16)\n 27481: a2 = u64 [s1 + 0x60]\n 27484: a0 = u64 [a2 + 0x8]\n 27487: a1 = i32 [a2 + 0x10]\n 27490: a2 = u64 [a2]\n 27492: a0 = reverse a0\n 27494: a3 = a0 << 0x20\n 27497: a1 = reverse a1\n 27499: a1 = a1 >> 0x20\n 27502: a3 = a3 | a1\n 27505: a0 = a0 >> 0x20\n 27508: a1 = reverse a2\n 27510: a2 = a1 << 0x20\n 27513: a0 = a0 | a2\n 27516: a1 = a1 >> 0x20\n 27519: a2 = s1 + 0x1058\n 27523: jump [t0]\n      : @999 (gas: 15)\n 27525: a0 = u64 [a2 + 0x8]\n 27528: a1 = i32 [a2 + 0x10]\n 27531: a2 = u64 [a2]\n 27533: a0 = reverse a0\n 27535: a3 = a0 << 0x20\n 27538: a1 = reverse a1\n 27540: a1 = a1 >> 0x20\n 27543: a3 = a3 | a1\n 27546: a0 = a0 >> 0x20\n 27549: a1 = reverse a2\n 27551: a2 = a1 << 0x20\n 27554: a0 = a0 | a2\n 27557: a1 = a1 >> 0x20\n 27560: a2 = s1 + 0x1858\n 27564: jump [t0]\n      : @1000 (gas: 10)\n 27566: a0 = u64 [a3 + 0x18]\n 27569: a1 = u64 [a3 + 0x10]\n 27572: a2 = u64 [a3 + 0x8]\n 27575: a3 = u64 [a3]\n 27577: a0 = reverse a0\n 27579: a1 = reverse a1\n 27581: a2 = reverse a2\n 27583: a3 = reverse a3\n 27585: a4 = s1 + 0x2058\n 27589: jump [t0]\n      : @1001 (gas: 11)\n 27591: a0 = reverse a0\n 27593: a3 = a0 << 0x20\n 27596: a1 = reverse a1\n 27598: a1 = a1 >> 0x20\n 27601: a3 = a3 | a1\n 27604: a0 = a0 >> 0x20\n 27607: a1 = reverse a2\n 27609: a2 = a1 << 0x20\n 27612: a0 = a0 | a2\n 27615: a1 = a1 >> 0x20\n 27618: jump [t0]\n      : @1002 (gas: 14)\n 27620: a0 = u64 [a3 + 0x18]\n 27623: a1 = u64 [a3 + 0x10]\n 27626: a2 = u64 [a3 + 0x8]\n 27629: a3 = u64 [a3]\n 27631: a0 = reverse a0\n 27633: a4 = reverse a1\n 27635: a2 = reverse a2\n 27637: a3 = reverse a3\n 27639: a1 = u64 [s1 + 0xd8]\n 27643: u64 [a1 + 0x18] = a3\n 27646: u64 [a1 + 0x10] = a2\n 27649: u64 [a1 + 0x8] = a4\n 27652: u64 [a1] = a0\n 27654: jump [t0]\n      : @1003 (gas: 11)\n 27656: a0 = u64 [s1 + 0xc0]\n 27660: a1 = u64 [s1 + 0xb8]\n 27664: a2 = a1 | a0\n 27667: a3 = 0x100000000\n 27677: a0 = 0xffffffe0\n 27687: a1 = u64 [s1 + 0xd8]\n 27691: a0 = a1 <u a0\n 27694: a1 = u64 [s1 + 0xc8]\n 27698: a0 = 0 if a1 != 0\n 27700: a0 = 0 if a2 != 0\n 27702: jump [t0]\n      : @1004 (gas: 12)\n 27704: a1 = u64 [s1 + 0xd0]\n 27708: a2 = u64 [s1 + 0xc0]\n 27712: a1 = a1 | a2\n 27715: a3 = u64 [s1 + 0xc8]\n 27719: a2 = u64 [s1 + 0xd8]\n 27723: a2 = a2 | a3\n 27726: a2 = a2 | a1\n 27729: a2 = a2 >> 0x20\n 27732: a1 = a1 | a3\n 27735: a1 = a1 << 0x20\n 27738: a1 = a1 | a2\n 27741: jump [t0]\n      : @1005 (gas: 17)\n 27743: a2 = u64 [s1 + 0x60]\n 27746: a0 = u64 [a2 + 0x8]\n 27749: a1 = i32 [a2 + 0x10]\n 27752: a2 = u64 [a2]\n 27754: a0 = reverse a0\n 27756: a3 = a0 << 0x20\n 27759: a1 = reverse a1\n 27761: a1 = a1 >> 0x20\n 27764: a3 = a3 | a1\n 27767: a0 = a0 >> 0x20\n 27770: a1 = reverse a2\n 27772: a2 = a1 << 0x20\n 27775: a0 = a0 | a2\n 27778: a1 = a1 >> 0x20\n 27781: a2 = s1 + 0x7ff\n 27785: a2 = a2 + 0x59\n 27788: jump [t0]\n      : @1006 (gas: 19)\n 27790: a3 = u64 [s1 + 0xd8]\n 27794: a0 = u64 [a3 + 0x18]\n 27797: a1 = u64 [a3 + 0x10]\n 27800: a2 = u64 [a3 + 0x8]\n 27803: a3 = u64 [a3]\n 27805: a5 = reverse a0\n 27807: a4 = reverse a1\n 27809: a0 = reverse a2\n 27811: a1 = reverse a3\n 27813: u64 [s1 + 0xa8] = a1\n 27817: a2 = u64 [s1 + 0xd0]\n 27821: u64 [a2 + 0x18] = a1\n 27824: u64 [s1 + 0xb0] = a0\n 27828: u64 [a2 + 0x10] = a0\n 27831: u64 [s1 + 0xa0] = a4\n 27835: u64 [a2 + 0x8] = a4\n 27838: u64 [s1 + 0x98] = a5\n 27842: u64 [a2] = a5\n 27844: jump [t0]\n      : @1007 (gas: 8)\n 27846: a2 = 0x100000000\n 27856: a2 = a2 ^ a1\n 27859: a2 = a2 | a0\n 27862: a3 = a1 >> 0x20\n 27865: a3 = a3 <u 0x1\n 27868: a3 = 0 if a0 != 0\n 27870: a3 = 0 if a2 == 0\n 27872: jump [t0]\n      : @1008 (gas: 8)\n 27874: a0 = a0 | a2\n 27877: a2 = a4 | a1\n 27880: a2 = a2 | a0\n 27883: a2 = a2 >> 0x20\n 27886: a0 = a0 | a1\n 27889: a0 = a0 << 0x20\n 27892: a0 = a0 | a2\n 27895: jump [t0]\n      : @1009 (gas: 13)\n 27897: a1 = u64 [s1 + 0x98]\n 27901: a0 = a1 + 0x2\n 27904: a1 = a0 <u a1\n 27907: a3 = u64 [s1 + 0xa0]\n 27911: a2 = a3 + a1\n 27914: a3 = a2 <u a3\n 27917: a3 = a1 if a1 == 0\n 27920: a1 = u64 [s1 + 0xb0]\n 27924: a3 = a3 + a1\n 27927: a1 = a3 <u a1\n 27930: a4 = u64 [s1 + 0xa8]\n 27934: a1 = a1 + a4\n 27937: jump [t0]\n      : @1010 (gas: 9)\n 27939: a0 = u64 [a2 + 0x8]\n 27942: a1 = i32 [a2 + 0x10]\n 27945: a2 = u64 [a2]\n 27947: a0 = reverse a0\n 27949: a3 = a0 << 0x20\n 27952: a1 = reverse a1\n 27954: a1 = a1 >> 0x20\n 27957: a1 = a1 | a3\n 27960: jump [t0]\n      : @1011 (gas: 12)\n 27962: a0 = u64 [s1 + 0xc0]\n 27966: a1 = u64 [s1 + 0xc8]\n 27970: a0 = a0 | a1\n 27973: a2 = u64 [s1 + 0xb8]\n 27977: a1 = u64 [s1 + 0xd8]\n 27981: a1 = a1 | a2\n 27984: a1 = a1 | a0\n 27987: a1 = a1 >> 0x20\n 27990: a0 = a0 | a2\n 27993: a0 = a0 << 0x20\n 27996: a0 = a0 | a1\n 27999: jump [t0]\n      : @1012 (gas: 13)\n 28001: a0 = u64 [s1 + 0x98]\n 28005: a0 = a0 + 0x1\n 28008: a1 = a0 <u 0x1\n 28011: a2 = u64 [s1 + 0xa0]\n 28015: a1 = a1 + a2\n 28018: a2 = a0 | a1\n 28021: a2 = a2 <u 0x1\n 28024: a3 = u64 [s1 + 0xb0]\n 28028: a2 = a2 + a3\n 28031: a3 = a2 <u a3\n 28034: a4 = u64 [s1 + 0xa8]\n 28038: a3 = a3 + a4\n 28041: jump [t0]\n      : @1013 (gas: 8)\n 28043: a2 = a3 | a4\n 28046: a1 = a0 | a5\n 28049: a1 = a1 | a2\n 28052: a1 = a1 >> 0x20\n 28055: a2 = a2 | a5\n 28058: a2 = a2 << 0x20\n 28061: a1 = a1 | a2\n 28064: jump [t0]\n      : @1014 (gas: 9)\n 28066: a4 = u64 [s1 + 0xc8]\n 28070: a3 = u64 [s1 + 0xd0]\n 28074: a1 = u64 [s1 + 0xd8]\n 28078: a2 = 0x100000000\n 28088: a0 = 0xffffffbc\n 28098: a0 = a1 <u a0\n 28101: a0 = 0 if a3 != 0\n 28103: a0 = 0 if a4 != 0\n 28105: jump [t0]\n      : @1015 (gas: 8)\n 28107: a3 = u64 [s1 + 0xd8]\n 28111: a0 = 0xffffffbc\n 28121: a0 = a3 <u a0\n 28124: a1 = u64 [s1 + 0xd0]\n 28128: a0 = 0 if a1 != 0\n 28130: a1 = u64 [s1 + 0xc8]\n 28134: a0 = 0 if a1 != 0\n 28136: jump [t0]\n      : @1016 (gas: 11)\n 28138: a2 = a2 - a3\n 28141: a3 = a4 <u a5\n 28144: a2 = a2 - a3\n 28147: u64 [s1 + 0x60] = a2\n 28150: a4 = a4 - a5\n 28153: u64 [s1 + 0x58] = a4\n 28156: a0 = a0 - a1\n 28159: a0 = a0 - t2\n 28162: u64 [s1 + 0x50] = a0\n 28165: a0 = t1 - ra\n 28168: jump [t0]\n      : @1017 (gas: 8)\n 28170: a4 = a4 | a2\n 28173: a2 = a0 | a1\n 28176: a2 = a2 | a4\n 28179: a2 = a2 >> 0x20\n 28182: a1 = a1 | a4\n 28185: a1 = a1 << 0x20\n 28188: a1 = a1 | a2\n 28191: jump [t0]\n      : @1018 (gas: 9)\n 28193: a4 = u64 [s1 + 0xc8]\n 28197: a3 = u64 [s1 + 0xd0]\n 28201: a1 = u64 [s1 + 0xd8]\n 28205: a0 = u64 [s1 + 0xc0]\n 28209: a0 = a0 + 0xffffffffffffffdc\n 28212: a0 = a1 <u a0\n 28215: a0 = 0 if a3 != 0\n 28217: a0 = 0 if a4 != 0\n 28219: jump [t0]\n      : @1019 (gas: 9)\n 28221: a0 = u64 [s1 + 0xc0]\n 28225: a0 = a0 + 0xffffffffffffffc0\n 28228: a1 = u64 [s1 + 0xd8]\n 28232: a0 = a1 <u a0\n 28235: a1 = u64 [s1 + 0xc8]\n 28239: a0 = 0 if a1 != 0\n 28241: a1 = u64 [s1 + 0xd0]\n 28245: a0 = 0 if a1 != 0\n 28247: jump [t0]\n      : @1020 (gas: 9)\n 28249: a1 = u64 [sp]\n 28251: a1 = reverse a1\n 28253: a2 = u64 [sp + 0x8]\n 28256: a2 = reverse a2\n 28258: a3 = u64 [sp + 0x10]\n 28261: a3 = reverse a3\n 28263: a4 = u64 [sp + 0x18]\n 28266: a4 = reverse a4\n 28268: jump [t0]\n      : @1021 (gas: 9)\n 28270: a2 = reverse a2\n 28272: a2 = a2 >> 0x20\n 28275: a1 = a1 | a2\n 28278: a2 = u64 [s1 + 0xb8]\n 28282: a2 = reverse a2\n 28284: a3 = a2 << 0x20\n 28287: a0 = a0 >> 0x20\n 28290: a0 = a0 | a3\n 28293: jump [t0]\n      : @1022 (gas: 8)\n 28295: u64 [sp + 64] = 0\n 28298: u64 [sp + 56] = 0\n 28301: u64 [sp + 48] = 0\n 28304: a0 = 0x4e487b7100000000\n 28314: a1 = sp + 0x30\n 28317: u64 [sp + 0x48] = a0\n 28320: a0 = 0\n 28322: jump [t0]\n      : @1023 (gas: 4)\n 28324: a0 = 0x2058\n 28328: a3 = s1 + a0\n 28331: a4 = a3 + 0x200\n 28335: jump [t0]\n      : @1024 (gas: 4)\n 28337: a0 = 0x2858\n 28341: a3 = s1 + a0\n 28344: a4 = a3 + 0x100\n 28348: jump [t0]\n      : @1025 (gas: 7)\n 28350: a2 = a3 + a1\n 28353: a3 = a2 <u a3\n 28356: a3 = a1 if a1 == 0\n 28359: a1 = u64 [s1 + 0xa8]\n 28363: a3 = a3 + a1\n 28366: a1 = a3 <u a1\n 28369: jump [t0]\n      : @1026 (gas: 5)\n 28371: sp = a0\n 28373: i32 a2 = a0 + 0\n 28375: a1 = 0x40\n 28378: a0 = u64 [s1 + 0x30]\n 28381: jump [t0]\n      : @1027 (gas: 5)\n 28383: a0 = sp + 0xffffffffffffffe0\n 28386: a2 = a0 & 0xffffffffffffffe0\n 28389: u64 [s1 + 0xd8] = a2\n 28393: sp = a2\n 28395: jump [t0]\n      : @1028 (gas: 6)\n 28397: u64 [a1 + 352] = 0\n 28401: u64 [a1 + 344] = 0\n 28405: u64 [a1 + 328] = 0x5\n 28410: a2 = a1\n 28412: a0 = 0x20\n 28415: jump [t0]\n      : @1029 (gas: 8)\n 28417: a0 = u64 [a4 + 0xd8]\n 28421: a1 = u64 [a4 + 0xe0]\n 28425: a2 = u64 [a4 + 0xd0]\n 28429: a3 = u64 [a4 + 0xc8]\n 28433: a1 = a1 | a2\n 28436: a0 = a0 | a3\n 28439: a0 = a0 | a1\n 28442: jump [t0]\n      : @1030 (gas: 4)\n 28444: i32 a0 = a1 + 0x24\n 28447: a1 = 0x1858\n 28451: a2 = s1 + a1\n 28454: jump [t0]\n      : @1031 (gas: 4)\n 28456: i32 a0 = a1 + 0x24\n 28459: a1 = 0x1058\n 28463: a2 = s1 + a1\n 28466: jump [t0]\n      : @1032 (gas: 4)\n 28468: i32 a0 = a1 + 0x4\n 28471: a1 = 0x1858\n 28475: a2 = s1 + a1\n 28478: jump [t0]\n      : @1033 (gas: 4)\n 28480: i32 a0 = a1 + 0x4\n 28483: a1 = 0x1058\n 28487: a2 = s1 + a1\n 28490: jump [t0]\n      : @1034 (gas: 2)\n 28492: a3 = a2 & 0x40\n 28495: jump @1038 if a3 != 0\n      : @1035 (gas: 1)\n 28498: jump @1037 if a2 == 0\n      : @1036 (gas: 6)\n 28501: i32 a3 = 0x40 - a2\n 28504: a3 = a1 << a3\n 28507: a1 = a1 >> a2\n 28510: a0 = a0 >> a2\n 28513: a0 = a0 | a3\n 28516: ret\n      : @1037 (gas: 1)\n 28518: ret\n      : @1038 (gas: 4)\n 28520: a0 = a2 + 0xffffffffffffffc0\n 28523: a0 = a1 >> a0\n 28526: a1 = 0\n 28528: ret\n      : @1039 (gas: 2)\n 28530: a3 = a2 & 0x40\n 28533: jump @1043 if a3 != 0\n      : @1040 (gas: 1)\n 28536: jump @1042 if a2 == 0\n      : @1041 (gas: 6)\n 28539: i32 a3 = 0x40 - a2\n 28542: a3 = a0 >> a3\n 28545: a0 = a0 << a2\n 28548: a1 = a1 << a2\n 28551: a1 = a1 | a3\n 28554: ret\n      : @1042 (gas: 1)\n 28556: ret\n      : @1043 (gas: 4)\n 28558: a1 = a2 + 0xffffffffffffffc0\n 28561: a1 = a0 << a1\n 28564: a0 = 0\n 28566: ret\n",
        "bytecode": {
          "object": "50564d0000fe84000000000000010700c17002c00080038238145916539c07e08b84f2a4d01fcd4413afdaa322977f4919e057646b6f18b4e3145916539c07e08b84f2a4d01fcd4413afdaa322977f4919e057646b6f18b4e318d512826f3f24d789eaf61c1454d08fafc3b8ac1fd9c0cf42014858138af8e2207469736f7065446d20746e756f6d61672065622074737574207265746165726f72657a206e61688e28b01049e48c4166b4df5d7f8900a6fc61cce37c7641bd0c81f87fc1a92984726574616c6c6f436f74636166206c616e207473756d2072656563786520746f000025303031206462207473756d207265746165726720657a206e6168742072e359d61df3a100c2e25825c812f1e056693844f8b0f7495f238855b35c6fd91c6e656d7961706552746e756f6d61207473646565637865206d61206e616f6c207669746361206f4e66206e616f6c2065726f6620646e756f6562207473756d207265746165726720657a206e61687420898d41b9ea76c7d50d31f259eeff40c0ce1b1982f65f5f223548fda713049be56369666675736e496c6f6320746e6569206c61726574616c6e616f6c20726f666f6d61206e616f4c7473756d20746e7561657267206562206e61687420726574676e697473697845756d206e616f6c2065722065622074737269662064696170dee0c9aabccf0fc33982aa4e7119a7ffbeeed0d0a006f56f5d718872173008170065636e616c61627720746f6e6e61432077617264687469632064656b636f6c61726574616c6c6f77617264687469576e756f6d61206c6162207473756d20740481091000000000070000000b0000001900000027000000350000003b0000004800000053000000620000006f0000007f0000008f0000009a000000ac000000b70000006164647265737363616c6c63616c6c5f646174615f636f707963616c6c5f646174615f6c6f616463616c6c5f646174615f73697a6563616c6c65726465706f7369745f6576656e746765745f73746f72616765686173685f6b656363616b5f3235367265665f74696d655f6c65667472657475726e5f646174615f636f707972657475726e5f646174615f73697a657365616c5f72657475726e7365745f696d6d757461626c655f646174617365745f73746f7261676576616c75655f7472616e73666572726564051302c0826a0463616c6cc08a6a066465706c6f7906c0878181fb02c0986f2b0073012b033003a403a9035b04630439053e05c905d50506063b066806cc06f80600074a07560783078b0702082c0871089b08e008fd0863097f09a809bd09d209110a360abd0ac20a2b0b3f0b780b8c0bb70bbc0bdf0be40b220c270c7d0c820c870cdb0c3e0d430d4e0d700d750d800d9a0d9f0de10de60d7e0eaa0ec50e5a0f6c0f9b0fa50fb30fdd0ff60ffc0f09104310511057109f10a510c710cd102011261149119711a4113d12a012ae12e412ed121b133513ee1355145b1467148a1490149c14b714bd14fc140215621570159515a715dd15ea15fc1526167816ed16621782173118da180c1912199119bd19211a271a331a561a5c1a681a831a891acc1ad21a2e1b341b7f1b881bae1bc81b931c991cb61cda1c0f1d2b1d311d3e1d801d8e1d941dd01dd61dfc1d021e431e491e6f1e751eae1ec91e341f3a1f711f771fa61fac1ff61ffc1fa520d220f0202a2137217a218421a121aa21ca2133228d22c722ec22f5221a237e2392239c23c823d2238524c424432554252b26bf26cc26ea261f2734273e279c27d827e227ff2708282828d828f52857295d2967298a2990299a29b529bb29fd290a2a382a4a2a662a842ab92a0d2b4b2b592b5f2b8d2bd72bdd2b152c292c522c582c8b2ca22cbc2cf42c092d332d392d5b2d612d9a2da02de72d4c2e522e5c2e7f2e852e8f2eaa2eb02eee2ef42e452f9f2f01300730113034303a3044305f306530a630ac30db30e930183125313f318931c13107324f3282328c32a432ad32c832083312331c337433aa33c933ec33143476348a349434c034ca347d35bc353a364b361c37af37bc37da370f3824382e388c38a638d738dd38003945397b39e739ed39223a283a553a5b3aa03aa63ae73af93a153b333b653b6f3b8e3bdf3bf53b2d3c423c6c3ca83c0f3d153d313d553d723d833d8d3daf3df83d79409340b640fa403c416d4173419a41c941db41f741154253425d426742b642ec421143364395433d449c44af4409451a45eb4561466e46cb46df46e9464747684780479c47e547a449124a184a514a574a864a8c4adf4ae54afd4a1d4b3a4b4b4b554b734ba94baf4bcf4bf64b1f4c304c3a4c484cad4ce74cf84c3d4da14d1f4e6c4e7c4e824ea34ece4ef74e414f7a4f8c4ffe4f1a5042507e50ca50f35027519551a851b1515752c152d4522f5340532554ae54bf54dc541f5532553b55a855c155f255f8551f5655568d569356b856035909596759d159e85afa5a2e5b745b7a5be05b6a5c785c9d5cf45c955dc55de35d2a5e345e565e835ed85efb5e445f645f845fc35f1b60ba60146188611e624d62646288624f636a6370638963ad6369648264a6646465b5653c66a36678677e679767bb675868c2682c6991692b6a346a426a5a6a8a6a936a39084002025108ae09330770020383770a0d28a1099511f07b10087b15648964753308206497501002c4047c78017c797c7a027c7b03978808d4980897aa1097bb18d4ba0ad4a8087c79057c7a047c7b067c7c07979908d4a90997bb1097cc18d4cb0bd4b909979920d489027c79097c7a087c7b0a7c7c0b979908d4a90997bb1097cc18d4cb0bd4b9097c7a0d7c7b0c7c7c0e7c780f97aa08d4ba0a97cc10978818d4c808d4a808978820d498037c78117c7a107c7b127c7c13978808d4a80897bb1097cc18d4cb0bd4b8087c7a157c7b147c7c167c791797aa08d4ba0a97cc10979918d4c909d4a909979920d4890a7c78197c79187c7b1a7c7c1b978808d4980897bb1097cc18d4cb0bd4b8087c791d7c7b1c7c7c1e7c771f979908d4b90997cc10977718d4c707d49707977720d487076f776fa86f396f2a7b5a187b59107b58087b57821008821595111032009511d87b10207b15187b161082897b19088289087b198285108286183308205010047c036f686f59821a6faa821b086fbb787b18787a10787908787898bc38787c1f98bc30787c1e98bc28787c1d98bc20787c1c98bc18787c1b98bc10787c1a98bb08787b1998ab38787b1798ab30787b1698ab28787b1598ab20787b1498ab18787b1398ab10787b1298aa08787a11989a38787a0f989a30787a0e989a28787a0d989a20787a0c989a18787a0b989a10787a0a98990878790998893878790798893078790698892878790598892078790498891878790398891078790298880878780182102082151882161095112832009511a07b10587b15507b16489515608411e06476828718828910828a0882886f776f996faa6f887b18187b1a107b19087b17491138491130491128491120481140208318831a20831b403309ff33070a07821738821830821928821a206f776f886f996faa7b6a187b69107b68087b679551a082105882155082164895116032009511a07b10587b15509515608411e08272827a08827b108277188283828908828c108288186f746fbb6faa6f276f826fcc6f996f387b17187b1a107b1b087b147b18387b19307b1c287b12208318831a203309ff330b2033070a0e9551a082105882155095116032005012082e6b7b1b387b1a307b19287b18208379836a8317203308010a069551a08210588215508216489511603200951160ff7b1098007b1590007b1688009515a0008411e082ab7b1b3882ab087b1b3082ab107b1b2882aa187b1a20829a7b1a18829a087b1a10829a107b1a088299187b19648650100a4b0150120cb56a7b1b587b1a507b19487b18408218206f888219286f99821a306faa821b386fbb7b1b787b1a707b19687b18608379836a8317403308020a06955160ff8210980082159000821688009511a0003200951120ff7b10d8007b15d0007b16c8009515e0008411e082bc7b1c4082bc087b1c4882bc107b1c5082bb187b1b5833020e82ab7b1b1882ab087b1b2082ab107b1b2882aa187b1a308296829a087b1a829a107b1a088299187b19104911383300102892007b18385010108c006f687b187882186f887b18708218086f887b18688218106f887b18608218186f887b1898008218206f887b1890008218286f887b1888008218306f887b1880008218406f887b18b8008218486f887b18b0008218506f887b18a8008218586f887b18a0008379811a388317603308030a06955120ff8210d8008215d0008216c8009511e00032008b7910520931c8780883881f8488e056380000012533093c0202390a3c0202ae8a093d083c02020133085002028377c887073200009511f07b10087b158475010a04013d07380202510507501012095010149904951120fc951700037b70d8007b75d0007b76c8009515e0038411e0641649267802492670024926680249266002836760020a0f01956b000282b77082b87882b96882ba60d49808d4a707d487075207990339073802027b677897772098772095771f8477e095788000d87807956900027b98407b974894777b975033074095684002492658025010168bfb330780008268785010181aff837782687833090a020182687854185f4f03492618024926100249260002800095672002956800024926080250101a8359956800028287307b67308287287b67408287207b67484926d8014926d0014926c001a0009567e0019568c0014926c80150101c4e598267f0017b67388267e8017b67508267e0017b67589517e08477e07b677064719567a0013308c00050101eb2f9956b000182b7b00082b8b80082b9a00082baa800826b707bb7107bb8187bb97bba0833075002037b677883777b67680a05018269788097108298829908d48707d49707510793024926980249269002492688024926800295678001956880025010207afb826780017b6708826788017b67826798017b6728826790017b67608267683300220a05826978330224282e6682697850122428669877206f99979a20d4a707989920826a6098aa2097aa20d4a9094926b8024926b0024926a8024926a002826a287b6ad8027b69d0027b67c8027b68c0029567a0029568c0025010267dfb95676001330840501028c4f8826778017b6728826770017b6720826768017b6718826760017b671082676833002a0a0582697833022c28c56382697850122cbf63d4780298aa206f99979820d4a808989920826a6097aa2098aa2049261801492638017b6a300182677b6728018267087b6720013a0a0000023a0b0800023a0c1000023a071800027b6a5801956a00017bab507bac487ba7407ba9107ba80895694001956a2001956b00017b6200013307330850102efafb8267309777209877207b67784926f8024926f0024926e8024926e002019567e0009568e0025010301afa8067f4009777208268f800826978d4970749261803492610034926080349260003018269407b6928038269487b6920037b6838037b673003956700039568200350103256fa8267389777209877207b677849265803492650034926480349264003029567c00095684003501034abf98067d4009777208268d800826978d4970749267803492670034926680349266003028269507b6988038269587b6980037b6898037b6790039567600395688003501036e7f94926b8034926b0034926a8034926a003039567a003826870501038caf9826728826818d487078268106489826a20d4a808d47808988820d4a707977720d4870751077f0033085002028388330701289c0033085002028388330701288f004926b0004926a8004926a000140700000000f7bd4f1e9568a0007b67b800330750103af1f7492698004926900049268800330704956880004926800050103cd5f739083c020256183f0b20033c02024001330850020283883307013309240a0c016497330850103e47fb8377330833090a022850f6826710330850104032fb8378330733093300420a0c280a33093300420a0c01951110fe7b10e8017b15e0017b16d8019515f001951150d58411e064169569582049296002492958024929480280003307409568a0224929500250104443f733073802027b67d800390738020255170407281e50956700208377c00233083300460a030195695820819784025247c23f808c0a28bb1151475bcba58dcb03524758a5acaa0a28de15956a58285147891c7bab0e095247d46b01b20a289c1052475721c2b50a28700e51471fa0d4bae0015147411c01dfff0751478edaa7e8730452472efe1261a70a492900034929f8024929f0024929e80295670020837740033300480a0f33024a28ea6350124ae76382b7f80082a8000382b9f00082bae800d49808d4a707d4870751070628ff4b8267d80081775617230728034c95670020837760033308040a03019567582095780003828920828a18828b10828c08d49b07d4ac08d4870751070628f91e9567000233084050104ceff495680002828b18828c10828a08828750124e51625108062803264926f0014926e8014926e001140900000000a079c3089568e0017b69f8017b67d8007b6ad0007b6bc8007b6cc000501050dcf58268d8008267c800826ac000d47a0a5012523c5f52070628b6258387044926d8014926d0014926c001209568c0014926c8017b6ac8007b6bc0005010549df55012562d5f5207062886258387244926b8014926b0014926a0012b9568a0014926a80150105875f550125ac361520706285e258387443a08200202956b00017bb898003a082802027b69c0003a093002023a0ad800027bb890007bb98800956880017bba800050105c32f550125ede5e520706281b258397643a08e00002492668017b687801140800000000006f72657b68700195686001492660013300160228f8f4492ae001492ad801492ad001492ac80195670030837720fa3300600a0f33026228376250126234625012647f6251070628754a8267d80081775617230728794a95670030837740fa3308040a0301956758288279000295780001828af800828bf000828ce800d49b07d4ac08d48707510706287e149567601c3308405010663ff3956958188292200495980004828c18828b10828708d42b0ad4c708d4a808988820d4ca0a97aa20d4a808510806283d244929f8034929f0034929e803140a00000000a079c3089568401c7b9a00047b67d8007b6bd0007b62c0007b6cc80050106816f450126a555d52070628ff2350126ceb614929e0034929d8034929c803209568201c4929d0037b6ac8007b6bc00050106ee4f3501270745d52070628cd23501272a1614929c0034929b8034929a803289568001c4929b003501074baf3501276825d52070628a3238387443a086000027b69c000956c581895cb00037bb8a0003a086800023a097000023a0a7800027bb898007bb990009568e01b7bba880050107873f350127a1f5d520706285c238397643a08800002956a5818492a7803492a70037ba880039568c01b492a680333001602283ff349298007492978074929700749296807956700208377c0070a0f01956a582095ac000782c77882c8800082c97064ab82ca68d49808d4a707d4870751070628d0488267d80081775617030728d448492ba007492b9807492b9007492b88079567e0129568e02750107cc8f39568581095890002829798007b67c800829790007b67d800829788007b67d0009567c01233084050107e70f1956a581095ac000282cb800082c87882c97082c768502280004b5f510806287d228268c800978820988920492a60028268d00095ab00027bb8488268d8007bb8509568a0127bb9587b67d800330054012855f2492a2003492a1803492a1003492a080395670030837760fb0a0f01956a582895ab000382b71882b82082b91082ba08d49808d4a707d48707510706280b488267d800817756172307280f4895670030837780fb330804330082000a0301956b582882b8380382b7400350228400605d520a0628f64782b9300382ba2803956b582095bc00017bca687bc9707bc8789568c0217bc78000330750208600baf195685820502288004e5f9568a0214929500150208a00a2f19517e08477e07b67d000647139083c020256183f133308403d083c020233028c00280b5f50228c00085f33075002028377839933084033008e000a0833029000289b5c50229000985c956780213308405020920012f095685820958c000182c7407b67c00082c9387b69b80082cb307b6bc80082ca287b6ad8007bc7207bc9187bcb10956760217bca08502094007c51956740218268d00050209600f6f150229800e95c51070628eb2095675820827b0001827af8008279f0008278e8007b68d0007b78c8007b6990007b79d0007b6a88007b7ad800956820217b6b80007b7be0008267d80050209a00b6f050229c00c25c956b582895bc00037bc8507bc7487bc9587bca60956700219568a02b50209e0080f15022a000415b520706287520956758207b69c00064798272c000827bb8007b6ab800827ab0008278a8008267d8008377207b68787b9888007b6a707b9a90007b6b687b9b98009568e020642a7b6a607b9aa0005020a20035f05022a400d95b956b582895bc00037bc9707bc7687bca787bc880009567c0209568c02b5020a600fef08267b8009577c08268d800d878078268c80094878268c000948752070628df1f956a582082a7688477ff008e797b69c8008267d800837740491a60491a58491a509568a0207ba9485020a800beef956780203308405020aa0077ee956c582082ca407b6ad80082c9387b69c00082cb307b6bb80082c2287b62b000956758188268c8007b7888078268607b78c0078268687b78b8078268707b78b0078268787b78a8074927a0074927980749279007826880007b78e007826888007b78d807826890007b78d0078268d0007b78c8077bca7bc9f87bcbf0956760209568402095692020956a0020956be01f7bc2e85020ac00e44d826bb8008269b0008267d800d4b707826ac000d4a908d47808988820d4a707977720d4870751070628e01e64a295685820828710828a207b6ad000828308828a1828fb05492ae002492ad802492ad002492ac80295670030837720fb3300ae000a0f01956a582895ab00025022b000595c51070628c5448267d80081785618030728c94495685828492800034928f8024928f0024928e802039567c01f9568402b5020b20063ef3302b400956858180195890007829780007b67d8008297787b67d0008297707b67c8008297687b67c0009567a01f3308405020b60000ed956a581895ac000782c76082c85882c95082cb485022b800b359510706280d1e8267c00095a900077b97288267c8007b97308267d0007b97389568801f8267d8007b974064b77b6bd8003300540128e6ed490a491af8491af0491ae895670030837740f80a0f01956a582895ab00ff82b7f80082a882b9f00082bae800d49808d4a707d4870751070628f4438267d80081775617230728f84395670030837760f83308040a030195675828827920827a18827b10827c08d49b07d4ac08d4870751070628ca13956700143308405020ba002dec956958108292c00395980003828cb800828bb0008287a800d42b0ad4c708d4a808988820d4ca0a97aa20d4a80851080628271d492998034929900349298803140a00000000a079c3089568e0137b9aa0037b67d8007b6bd0007b62c0007b6cc8005020bc0000ed5022be003e5652070628e71c5022c000df5a492980034929780349296803209568c013492970037b6ac8007b6bc0005020c200cbec5022c4005a5652070628b21c5022c600925a4929600349295803492948032a9568a013492950035020c8009eec5022ca00655652070628851c8387443a080801027b69c000956c581095cb00037bb8403a081001023a094001023a0a4801027bb8387bb930956880137bba285020cc0059ec5022ce00045652070628401c8397643a08500102956a5810492a10037ba8200314080000000000006f727ba8180395686013492a0803330016022819ec51476b08b4730a287a424929e0044929d8044929d0044929c80495670020837720053300d0000a0f01956a582095ab00045022d200975951070628a4428267d80081775617230728a84295670020837740053308043300d4000a0301956b582082b8f80482b700055022d6002557520a06288f4282b9f00482bae804956bff0795bb5995bc00017bca687bc9707bc8789568ff079588c1017bc7800033075020d80078eb9568ff079588595022da0009599568ff079588a101492950015020dc0059eb9517e08477e07b67b800647139083c020256183f133308403d083c02023302de0028c2585022de00bf583307500202837783993308400a08826ad80082a71882a81082a90882aa6f7c7b6cc8006f8b7b6bd0006f997b69c0006fa77b67d8008268b8007b87187b89107b8b087b8c9567ff07957781015020e000cfeb9568ff07958859958900018297287b67b8008297307b67b0008297387b67a8008297407b67a0008267c8009577018878018269d000c8980895695820959a00057ba810d478087ba7088887018268c000c887077ba718d887078268d800c887077ba7209567ff0795776101956860255020e2005aeb956bff0795bb5982b708017b67980082b710017b6790008268c800958702d88708826ad000c88a09d8a90ada880a82b818017b68d0008268c000c88a0ad88a08826cd800c8c80882bc20017b6cc800956b582095bc00057bc8407bca387bc9307bc7289567ff0795774101956880255020e400e5ea9567ff079577597c77e8007b67c0009567ff07957721013308405020e60099e89567ff07957759827ae0007b6ad8008279d8007b698800827bd0007b6b8000827cc8007b6c788268c0007b78288268c8007b78608268d0007b7858826890007b7850491740491738491730826898007b78488268a0007b7880008268a8007b78788268b0007b78708268b8007b78687b7aa0007b7998007b7b900064729567ff07957701019568ff079588e1009569ff079599c100956aff0795aaa100956bff0795bb81007b2c88005020e800f047826b80008269788267d800d4b707826a8800d4a908d47808988820d4a707977720d4870751070628ed1864a29568ff079588598287b000828ac0007b6ad0008283a800828ab80001d3b704d8b70cd89300da400cc92a08c9c804d8c8087b68c800d82a0a826cd8008268d000c9c80cc9ac0c8268c800c98c0cc9b707c90707c99308d4c707d4480ad47a0ad4470798aa20977720d4a707510706287a1864977b68d8005020ea0016ec83788169d80033070a0c286608492a8001492a7801492a7001492a6801956700308377c0f93300ec000a0f3302ee0028a8555022ee00a55582b77882b8800082b97082ba68d49808d4a707d48707510706281f3f8267d80081775617230728233f9517e08477e07b67d8006471956700308377e0f93308040a0395675828957c000182c8a0007b68d00082c998007b69c80082ca90007b6ac00082cb88007b6bb8008267d8007b78187b79107b7a087b7b5020f000d24f826cb800826bc000826ac8008269d000d49b07d4ac08d48707510706281f149567801a3308405020f2005ee6956958188292400295980002828c38828b30828728d42b0ad4c708d4a808988820d4ca0a97aa20d4a808510806285b17492918024929100249290802140a00000000a079c3089568601a7b9a20027b67d8007b6bd0007b62c0007b6cc8005020f40034e75022f6007250520706281b175022f8000755492900024929f8014929e801209568401a4929f0017b6ac8007b6bc0005020fa00ffe65022fc008e5052070628e6165022fe00ba544929e0014929d8014929c8012b9568201a4929d00150200001d2e650220201995052070628b9168387443a08a800027b69c000956c581895cb00017bb8c0003a08b000023a09d000023a0ad800027bb8b8007bb9b0009568001a7bbaa8005020040189e65022060134505207062870168397643a08e00002956a5818492a90017ba8a001140800000000006f72657ba898019568e019492a8801330016022849e6492a4001492a3801492a3001492a280195670030837780f9330008010a0f33020a0128865350220a01835382b73882b84082b93082ba28d49808d4a707d4870751070628203d8267d80081775617030728243d9568582849286001492858014928500149284801019567c0199568a02950200c01c8e633020e019568581801958900018297787b67c8008297707b67d8008297687b67d0009567a019330840502010016de4956a581895ac000182cb6082c85882c95082c748502212014852510806287a158268c800978820988920492a40018268d00095ab00017bb8288268d8007bb830956880197bb9387b67d800330054012852e549296005492958054929500549294805956700208377a0050a0f01956a582095ab000582b75882b86082b95082ba48d49808d4a707d4870751070628533c8267d80081775617230728573c956700208377c0053308040a039567582095790005829880007b68588298787b68508298707b68488297687b674033075002037b676083777b6738330014010a053302160128c94e50221601c64e49294002959b00027bb8387bb730956880127bba283307502018019fe495685810492820024928180249280802056489330720956860124929100250201a017be49517e08477e07b67d000647133093c020239073c020233083fac781320033c0202407b692833021c0128dc517b692850221c01d6513307500202837783993308407b673033001e010a083302200128664f50222001634f9567401233084050202201dde295685810828700027b67c000958c000182c9f8007b69b80082cbf0007b6bc80082cae8007b6ad8007bc7e0007bc9d8007bcbd000956720127bcac800502024013f44956700128268d00050202601b9e450222801ac4f51070628ae13956b581095bc000182c7c00082c8b80082c9b00082caa8007bca88007bc990007bc898009568e0117bc7a0008267d80050202a0185e350222c01914f956b582095bc00057bc890007bc788007bc998007bcaa0009567c0119568e02550202e014be4502230010c4e520706284013956c58107b69d00082c2800195c900018298787b6ac000829a70829b688267d8008377207b9b487b9a507b98589568a0117bc260015020320112e350223401b64e956b582095bc00057bc9b0007bc7a8007bcab8007bc8c000956780119568002650203601d8e350223801ce4f52070628cd1295695810829728018477ff007b67d0008e788267d80083774049292001492918017b980801956860114929100150203a01a7e28267d000520706289c1a9567ff079577810233084050203c0152e19569ff079599598292400295980002828c38828b30828728d42b0ad4c708d4a808988820d4ca0a97aa20d4a808510806284c12492918024929100249290802140a00000000a079c3089568ff07958861027b9a20027b67d8007b6bd0007b62c0007b6cc80050203e0121e2502240015f4b5207062808128387049569ff07959959492900024929f8014929e801209568ff07958841024929f0017b6ac8007b6bc00050204201e4e150224401734b52070628cb118387249569ff079599594929e0014929d8014929c801229568ff07958821024929d00150204601afe150224801764b5207062896118387443a08b801027b69c000956cff0795cc5995cb00017bb8c0003a08c001023a09c801023a0ad001027bb8b8007bb9b0009568ff07958801027bbaa80050204a015fe150224c010a4b520706284611839764956aff0795aa59492a9801492a9001140800000000000074737ba8a0019568ff079588e101492a880133001602281de14929c0074929b8074929b0074929a80795670030837700f80a0f01956a582095ac000782c7b80082c8c00082c9b00064ab82caa800d49808d4a707d48707510706283a388267d800817756170307283e38492be007492bd807492bd007492bc80702956740139568202850204e01a2e195685810958900028297f8007b67c8008297f0007b67d8008297e8007b67d000956720133308405020500149df956a581095ac000282cbe00082c8d80082c9d00082c7c80050225201204d5108062852108268c800978820988920492ac0028268d00095ab00027bb8a8008268d8007bb8b000956800137bb9b8007b67d800502054012be03308208267d80050205601b9e3837833092033070a0c280a33092033070a0c017b6cb0007b6bb8007b6ac0007b69c80033075002037b67d80083777b67a800330058010a058269d80033025a01280e4a8269d80050225a01074a49292007959b00077bb8187bb7109568601f7bba08330750205c01b4df33025e019568581801492800074928f8064928e8060464893307209568401f4929f006502060018bdf9517e08477e07b67d000647139083c020256183f0b20033c020240019517e08479e07b69a00064913307500202837783993308407b67680a08826aa00082a71882a81082a90882aa6f776f8b6f996faa8268d0007b8a187b89107b8b087b879567201f5020620114e0956c581882cac80682c7d00682c8d80682c9e006826bc8007bcb8006826bc0007bcb7806826bb8007bcb7006826bb0007bcb680695cb00067bb9a0007bb898007bb790009567001f9568e01e9569c01e7bba8800502064014c44956a581895ab000682b7c00082b8b80082b9b00082baa800956b582895bc00027bc7207bc8187bc9107bca089568602a8267d0005020660101e095675828492740024927380249273002647849282802019567a01e9568802a502068015bdf33026a019568581801958900068297587b6780008297507b67788297487b6788009567801e33084050206c0101dd956958188292400695980006828c38828b30828728d42b0ad4c708d4a808988820d4ca0a97aa20d4a80851080628fe0d492918064929100649290806140a00000000dd72b8239568601e7b9a20067b67d0007b6ba0007b6c98007b62900050206e01d7dd8267a800330070010a8269d800330272012894498269d800502272018d497b68709877206f98978920d497077b67609888207b68588267a800330074010a058269d800330276012880478269d800502276017947d4780298aa206f99979820d4a8039894208267d000957a04d87a0c8267a000c8c70bd87b07dacc0782689800c88707d8870c82689000c88c0c956858188269587b8998058269607b8990058269707b898805958900057b9ce0007b97d8008267c8007b9780008267c0007b97788267b8007b97708267b0007b97684928a0057b9bd0007b9ac8007b84b8057b83b0057b82a805648c9567401e9568201e9569001e956ae01d956bc01d492cc005502078013c43956858188287f005828200068283e805828af8058268a000d3870bd8870c8260d000d80304dab40c82699800c99a0bd89a0a82699000c9920950227a012c497b67700a09018267786f77977820826980006f99989920d49808826988006f99979a20987720d4a707826ad8009899207ba7087ba87aa910956958284929600249295802492950028267706472826c58d4c707826860826b50d4b808d48707987720d4c808978820d48707492948025207120c8267d000642850207c01addf7b6788003308208267d00050207e019cdf95695828959a0002481a6820492aa000ff492a9800ff492a9000ff492a8800ff8268d80097882098882014090000000008000000d498029568a02a9788209888209569e02a979920d4890a82688800978820988820826b7097bb20d48b0b9777209877209568c02a978820d4780c3308ff3309ff64270a010151070628c9120a0b01330820ae87080a0b647801956958188262d000826ba000826c9800826a90007b688000492688007b9808057b922805492910057b9b3005492918057b9c3805492920059567801d9568601d7b9a400550208001633c8262d00082688000c82807d887088263a000826c8800c83c09c88909d3c90ad8c90bdaa80b82609800c80c08c88b0bd88b04d8c808826a9000c8ac0cc8c808c88404956858187b8bb804956858187b89b004956858187b87a804956758187b7ae004956758187b70d804956758187b73d004956758187b72c8049567401d9568201d9569001d956b58187bb4c00450208201ed3d9567e01c330840502084014fd9956a581895ac000482c7a00082c8980082c9900082cb880050228601fe4552075b0a8267b00095a900047b97688267b8007b97708267c0007b97789568c01c8267c8007b97800064b77b6bd0005020880136da8267a80033008a010a058269d80033028c012814448269d80050228c010d44d4780298aa206f99979820d4a8089899203a0a400002956758187b7a60043a0a4800023a0b5000023a0c5800027b7a5804957a00047bab50492740047bac487ba9387ba8303308209569a01c956a801c7b7228048267d00050208e01c3db330782686833090a0c28b6327b6cc0007b6ba8007b6ab0007b69b80033075002037b67d00083777b67a000330090010a058269d0003302920128b0438269d00050229201a94349292001959b00017bb8187bb710956860197bba0833075020940156d9330296019568581801492800014928f8004928e800056489330720956840194929f000502098012dd99517e08477e07b67d800647133093c020239073c020256173f0b20033c020240017b6990009517e08479e07b69c80064913307500202837783993308407b6798000a088268c800828718828910828b0882886f7a6f996fbb6f8c8267d8007b7c187b7b107b79087b7a9517e08478e0648195a2027b6a78d8a207c879037b698000d8930ada770ac8ba0a7b6bc800d8ba077b6c8800c8c7077b8a107b83087b827b8718956720197b687050209a016fd9956958188298c8008487ff0052073b069567a01433084050209c0126d7956958108292600495980004828c58828b50828748d42b0ad4c708d4a808988820d4ca0a97aa20d4a80852082608492938044929300449292804140a00000000a079c308956880147b9a40047b67d8007b6bd0007b62c0007b6cc80050209e01fed75022a0013c415107e8075022a201df454929200449291804492908042095686014492910047b6ac8007b6bc0005020a401cbd75022a60197445107b5075022a8019445492900044929f8034929e8031d956840144929f0035020aa01a0d75022ac01164451078a0783a7443a082801023a093001023a0a380102956b581095bc00037bc8e0007bc9d8007bcad00014090000007265737520956820147bc9c8005020ae0158d73308648267d8005020b001e6da83783307013309640a0c017b6c687b6b787b6a80007b69880033075002037b67b00083777b67703300b2010a05018269b00082970881981082995022b40183414926f8077b68f0077b67e8079568e0077b6ae00733075020b601efd64926d8074926d0074926c007053307209568c0074926c8075020b801d1d69517e08477e07b67d000647133093c020239073c020233083fac781320033c0202407b69583302ba012832447b69585022ba012c443307500202837783993308407b67600a08826ad80082a71882a81082a90882aa6f7c6f8b6f976fa87b68a0008269d0007b98187b67a8007b97107b6b98007b9b087b6c90007b9c9567a0073308405020bc010ed5956b000782b7b8007b67c00082b8b0007b68b80082baa8007b6ac80082b9a0007b69d8007bb798007bb890007bba8800956780077bb980005020be017436956760078268d0005020c001eed65022c201e1415207e605956b000782b77882b87082b96882ba607bba407bb9487bb850956840077bb7588267d8005020c401c8d58267900095770188780182699800c89808d48709889901826aa800c8a909d8a90a826ba000c8ba0a956b582095bc00037bc8307bc7287bc9387bca4095672007956880235020c60170d65022c8013140510768057b69d000956c000782c93882c8307b6ac00082ca2882cb208267d8008377207bcb7bca087bc810956800077bc9185020ca0140d582689000958702d88708826a98005022cc019b42826ba000c8b808956b582095bc00037bc9507bc7487bca587bc8609567e0069568a0235020ce01f5d55022d001eb415107ed048267e0068477ff007b67d0008e788267d8008377404926d8064926d0067b68c0069568c0064926c8065020d201cad48267d000520706284b0e9567c0023308405020d40179d395680002828bd800828cd000828ac8008287c0005022d601d540520889044926b0024926a8024926a002140900000000a079c3089568a0027b69b8027b67d8007b6ad0007b6bc8007b6cc0005020d80161d48268d8008267c800826ac000d47a0a5022da01c03d51073c048387044926980249269002492680022095688002492688027b6ac8007b6bc0005020dc0122d45022de01b13d51070c048387244926780249267002492660022195686002492668025020e001fad35022e20147405107e4038387443a08000202956b00027bb8583a080802027b69c0003a091002023a0a1802027bb8507bb948956840027bba405020e401bbd35022e601663d5107a50383976449263002492628021408000000000000006c7b6838029568200249262002330016022886d388c76594b7d49a08948752071f039567401b3308405020e80134d2956958188292000395980002828cf800828bf0008287e800d42b0ad4c708d4a808988820d4ca0a97aa20d4a808520831034929d8024929d0024929c802140a00000000a079c3089568201b7b9ae0027b67d8007b6bd0007b62c0007b6cc8005020ea0109d35022ec01473c5107f3025022ee01de404929c0024929b8024929a802209568001b4929b0027b6ac8007b6bc0005020f001d6d25022f201653c5107c0025022f40193404929a0024929980249298802269568e01a492990025020f601abd25022f801723c510795028387443a08a800027b69c000956c581895cb00027bb880003a08b000023a09b800023a0ac000027bb8787bb9709568c01a7bba685020fa0167d25022fc01123c510751028397643a08c80002956a5818492a5802492a50027ba860029568a01a492a4802330016022833d27b68608297e0007b67588297d8007b67508297d0007b6748956700198268d8005020fe0102d395685818018283b0008284c0008287a8008280b8008262a800d3320bd8230c7b67688268c000d8870adbbc0a8269b000d8900b8268b800d3480cd88407dacb07d3090bd4cb0bdaba075107b80195676015330840502000027cd0956958108292200595980005828c18828b10828708d42b0ad4c708d4a808988820d4ca0a97aa20d4a80852087c014929f8044929f0044929e804140a00000000a079c308956840157b9a00057b67d8007b6bd0007b62c0007b6cc8005020020254d150220402923a51073e0150220602353f4929e0044929d8044929c80420956820154929d0047b6ac8007b6bc0005020080221d150220a02b03a51070b0150220c02ea3e4929c0044929b8044929a80424956800154929b00450200e02f6d050221002bd3a5107e0008387443a080801027b69c000956c581095cb00047bb8a0003a081001023a091801023a0a2001027bb898007bb990009568e0147bba880050201202afd0502214025a3a51079900839764956a5810492a7804492a7004140800000000746e756f7ba880049568c014492a6804502016027ad0330884008267d8005020180207d48378330701330984000a0c01956858284928c0014928b8014928b0014928a801039567002a8268d80050201a02b0d19567a01b33084050201c02f6ce956a581895ac000382c76082c85882c95082cb4850221e02a93b52070628f527009517e08477e07b67406471956a58187ba8607ba9587ba2508267c0007ba7487ba480007ba0787ba37064ab9567e0189568c0189569a018826a687bba68502020022a3295675818827998007b6968827ba0007b6b30827a88007b6a38827790007b67288268407b89107b8b187b8a7b87088267d8005020220207d1826730826828d48707826868826938d49808d487075207f301826760847700ff956858288269487b89307b87288267507b87388267587b87409568802882677050202402c1d09517e08478e06481826778957701887901826b8000c89b0bd4b709889901826ac800c8a909d8a90a826c8800c8ca0a7b8a187b89107b8b087b87956780187b68c80050202602f8cf956858188287407b67708287387b67788287307b6780008287287b6788008267a000330028020a058269d00033022a022806398269d00050222a02ff384919207b98187b9710956860187b9a08330750202c02b1ce33022e02956858180149084918f84918e8046489330720956840184919f0502030028dce9517e08477e07b67d800647182699000819756173f08480940019517e08477e07b6790006471837933084082679800330032020a08826a90003302340228df38826a900050223402d83895672018502036022bcf956c581082cac80782c7d00782c8d80782c9e007826b707bcb8007826b787bcb7807826b80007bcb7007826b88007bcb680795cb00077bb9a0007bb898007bb79000956700189568e0179569c0177bba8800502038026533956a581095ab000782b7c00082b8b80082b9b00082baa800956b58287bb7607bb8587bb9507bba489568a0288267d80050203a021ecf95675828492780004917784917704917689568c0288267c80050203c02ffce956858284928a000492898004928900049288800029567a0179568e02850203e025bce95685810958900078297587b67788297507b67708297487b678000956780173308405020400207cc956958108292400795980007828c38828b30828728d42b0ad4c708d4a808988820d4ca0a97aa20d4a808520807fd492918074929100749290807140a00000000dd72b823956860177b9a20077b67d8007b6bc8007b6c90007b62880050204202dfcc8267a000330044020a8269d00033024602289c388269d0005022460295387b68689877206f98978920d497077b67609888207b68588267a000330048020a058269d00033024a022888368269d00050224a028136d4780298aa206f99979820d4a8039894208267d800957a04d87a0c8267c800c8c70bd87b07dacc0782689000c88707d8870c82688800c88c0c956858108269587b8998068269607b8990068269687b898806958900067b9ce0007b97d8008267b8007b9780008267b0007b97788267a8007b97708267c0007b97684928a0067b9bd0007b9ac8007b84b8067b83b0067b82a806648c956740179568201795690017956ae016956bc016492cc00650204c024432956858108287f006828200078283e806828af8068268c800d3870bd8870c8260d800d80304dab40c82699000c99a0bd89a0a82698800c9920950224e0234387b67680a09018267706f779778208269786f99989920d49808826980006f99979a20987720d4a707826ad0009899207ba7087ba87aa910956958284929c0004929b8004929b0008267686472826c58d4c707826860826b50d4b808d48707987720d4c808978820d487074929a80052071bfb8267d800642850205002b6ce7b6780003308208267d80050205202a5ce956958284829c8002049290001ff4929f800ff4929f000ff4929e800ff8268d00097882098882014090000000008000000d498029568002997882098882095694029979920d4890a82688000978820988820826b6897bb20d48b0b97772098772095682029978820d4780c3308ff3309ff64270a010152076e0a0a0b01330820ae87080a0b647801956958108262d800826bc800826c9000826a88007b6878492680007b9808067b922806492910067b9b3006492918067b9c38064929200695678016956860167b9a400650205402722b8262d800826878c82807d887088263c800826c8000c83c09c88909d3c90ad8c90bdaa80b82609000c80c08c88b0bd88b04d8c808826a8800c8ac0cc8c808c88404956858107b8bb805956858107b89b005956858107b87a805956758107b7ae005956758107b70d805956758107b73d005956758107b72c805956740169568201695690016956b58107bb4c00550205602fd2c9567e015330840502058025fc8956a581095ac000582c7a00082c8980082c9900082cb880050225a020e3552076bf98267c00095a900057b97688267a8007b97708267b0007b97789568c0158267b8007b97800064b77b6bd80050205c0246c98267a00033005e020a058269d000330260022824338269d000502260021d33d4780298aa206f99979820d4a8089899203a0ae80002956758107b7a60053a0af000023a0bf800023a0c0001027b7a5805957a00057bab50492740057bac487ba9387ba8303308209569a015956a80157b7228058267d80050206202d3ca33078268980033090a0c28c5219567a01d3308405020640275c795675818957900058298607b68d0008298587b68c8008298507b68c0008297487b67d800330066020a0b33026802286433502268026133520868f8647998772052075ff883977b67d0008267d80064987b69c80050206a02f0cb956858288269c8007a89a802837795680030838800fb33090a0a956758288177a802018268d000ac871ef80a0b016478987720520712f88267d8007b68d00050206c02abcb83788169d0003307010a0c01826750826840d48707826858826948d49808d48707520799039567ff079577410333084050206e02a0c69569ff079599598292000395980002828cf800828bf0008287e800d42b0ad4c708d4a808988820d4ca0a97aa20d4a80852089af74929d8024929d0024929c802140a00000000a079c3089568ff07958821037b9ae0027b67d8007b6bd0007b62c0007b6cc800502070026ec750227202ac30510758f78387049569ff079599594929c0024929b8024929a802209568ff07958801034929b0027b6ac8007b6bc0005020740233c750227602c23051071df78387249569ff079599594929a0024929980249298802259568ff079588e102492990025020780200c750227a02c7305107eaf68387443a089801027b69c000956cff0795cc5995cb00027bb880003a08a001023a09a801023a0ab001027bb8787bb9709568ff079588c1027bba6850207c02b5c650227e02603051079ff6839764956aff0795aa59492a5802492a500214080000006f72657a207ba860029568ff079588a102492a4802330016022875c6826770330080020a05018269b000829708819810829950228202d4304926b8067b68b0067b67a8069568a0067b6aa00633075020840240c64926980649269006492680060433072095688006492688065020860222c6826958819756173f08480940019517e08477e07b67d80064718379330840826760330088020a08826ad80033028a02284c30826ad80050228a02453095bc00037bca80007bc9787bc8707bc768956760069568c02350208c02b9c69568000682877882626006828970828a68826c8800d3c70bd8c70882678000d8790cdbb80c826878d38a03d88a0a826868d88208db3a08d39707d4b707db7c085108f1059567600333084050208e023cc495680003828b78828c70828a68828760502290029c31520850f5492650034926480349264003140900000000a079c308956840037b6958037b67d8007b6ad0007b6bc8007b6cc0005020920228c58268d8008267c800826ac000d47a0a50229402872e510703f58387044926380349263003492620032095682003492628037b6ac8007b6bc00050209602e9c4826ac8008269d0008268d8008267c0009577dcd87807949794a75107bff48387244926180349261003492600031f956800034926080350209802adc48269d8001407bcffffff00000000d879078268d00094878268c8009487510780f48397443a08780102956b00027bb8f8003a088001023a098801023a0af801027bb8f0007bb9e8009568e0027bbae0003300ae012853c482673833009a020a0533029c02284d2e50229c024a2e492900017b98f8007b97f000956840117b9ae800330750209e0224c4956858104928e0004928d8004928c800046489330720956820114929d0005020a00200c4826928819756173f08480940019517e08477e07b67d8005022a20267313300a4020a08826ad8003302a602282e2e826ad8005022a602272e95bc00057bcae0007bc9d8007bc8d0007bc7c80095670011956820265020a80298c4956858108287c0007b67d0008287b8007b67c8008287b0007b67c0008287a8007b67d80095675820492700064927f8054927f00564784928e805039567e010956840265020aa024fc495685810828488008287a0007b67b800828a9800828c90008260d800d640088267c000ca4709c89808d89809d6470bc89b03cac00bc8b8087b689800d8b808d6c00bc8b808c88302cac709c829087b68b000d8980bd83208d6c709c89808c8b8087b68a800caa7088269b800ca0909c898087b68a0008262c8007b6c78ca2c09826bd000ca4b0cc89c0cca0a09ca4203c839097b6a8800d60a0a7b6a688268a000c88a0ad642087b68a000c8c808d8390c7b6870c8a808c8c803d4b70cd42008d4c8088267b000c87909d8790b8267a800c87303c8b30c7b6980005108a300d37c08d87c09db890b826768d87a0a8268c0008e8964c08262b8008e2cd2c909826cd800d6c20c8eccd4c90982638800d6380c8eccd4c909d4a9097b69c0008267a000826870d878077b67b0008269d0008e9c8267788e78d2c808d6490c8eccd4c808640c8260c800d6070a8eaad4a8088267b000d47808d49009d4230a8e998eaad2a909d49808826980008267c000d47808d4b80884880151080628a81f7b6c90008268d800ca4802d49207826898006494d4c809d497078877017b67d800684795774068c9dac7096827957740688ada870a95a78000d4c40bdab709d8a70c94bc8eca8897fa00857b01dacb0a88a7019577ff9aa09accc9bc039a99f9007b60c0008e0b8e7c7b67c800da7b0c8e377b69d00088990001859901db3709dbac098267d800d49707826990009479644a947a648c947c7b628800642b947b52074c098267d0008577ff008264c000d447028260c800d40307d4720751072f09826ad00095a9017b69d800889701c837077b67b000d49707887701c847077b67a000d84707c807077b67a8009aa9ff007b69b8009a998000826788005020ac02d92e7b67c8007b68c00082678000826890008269b8005020ae02e52e7b67788267c000d487077b67c0008268d0009a897f82678800826898005020b002c22e8269b800889a80007b6ad000826bc000dbab08826b9000da9b087b68c0008268c800826b78d4b808daa70882678000da97087b68c80082678800826898005020b2027e2e826aa000826ba8008269b000d4b909826cd800d4ac0cd4c909826ad00093a87b68b80093a77b67d00052093006330c49167828f8079567a0163308405020b402dfbe95675810957900068298607b68d0008298587b68c8008298507b68c0008297487b67d8003300b6020a0b3302b80228ce2a5022b802cb2a51080628cfef647998772051070628c4ef83977b67d0008267d80064987b69c8005020ba0256c3956858288269c8007a890801837795680030838860f933090a0a95675828817708012867f78267703300bc020a05018269b00082970881981082995022be02f229492658067b6850067b674806956840067b6a400633075020c0025ebf4926380649263006492620060433072095682006492628065020c20240bf9517e08477e07b67d8006471826958819756173f08480940019517e08477e07b67d000647183793308408267603300c4020a08826ad0003302c602289429826ad0005022c6028d29956700065020c802e0bf956b000682ba82b70882b81082b918826b88007b6bb805826b80007b6bb005826b787b6ba805826b687b6ba0057b69d8057b68d0057b67c8059567e0059568c0059569a0057b6ac0055020ca02fd208267f8058268f0058269e805826ae005956b582095bc00037bc7a0007bc898007bc990007bca88009568e0238267d8005020cc02dcbf956758204927c0034927b8034927b00364784928a8030195678005956800245020ce0236bf826790057b67a800826788057b67a000826780057b67b800956760053308405020d002e5bc95680005828c78828b70828a68828760d4ca09d4b708d49808988820d4b909979920d4980851080628e7ed492650054926480549264005140900000000bb9c05a9956840057b6958057b67d8007b6ad0007b6bc8007b6cc0005020d202c0bd8267700a058269b00082970881981082996f77977a206f88988820d4a8029877206f98978920d479039888208267d800957904d8790a8267d000c8a70cd87c0bdaaa0b8267c800c87b0bd87b0a8267c000c87a0a826788007b67d804826780007b67d0048267787b67c8048267687b67c0044926f8047b6a18057b6b10057b6c08057b6900057b68f0047b63e80495672005956800059569e004956ac0047b62e0045020d4027e21826728058262380582632005826a30058268d000d3870bd8870c8260d800d80304dab40c8269c800c99a0bd89a0a8269c000c99209c9a909d8cb0ac9a9097b699000c9cb0b7b6b58c98707c947077b6750c903077b6798003300d6020a09018267a0006f779778208269a8005022d802c529826ab0009899207ba7087ba87aa910956958204929e0034929d8034929d003826798006472826c58d4c70782689000826b50d4b808d48707987720d4c808978820d487074929c803510706284bec8267d80064285020da02e7bf7b67b8003308208267d8005020dc02d6bf956958204829e80320959a0004491a20ff491a18ff491a10ff491a08ff8268b00097882098882014090000000008000000d498029568202497882098882095696024979920d4890a8268b800978820988820826b980097bb20d48b0b97772098772095684024978820d4780c3308ff3309ff64270a01015107062820100a0b01330820ae87080a0b6478017b68a8004926b8007b6860048267d8007b678004492668048267d0007b678804492670048267c8007b679004492678049567800495686004826ac0007b6a98045020de02a31c8262d8008267a800c82700d870088263d0008267b800c83709c88909d3790ad8790bdaa80b826ac800c8a708c88b0bd88b04d87808647c8267c000c87c0cc8c808c88404956800047b8b107b89087b6000047b87387b8a307b6328047b6220049567400495682004956900047b6418045020e0024b1e9567e0033308405020e202adb9956b000382b7f80082b8f00082b9e80082bae000d49707d48a09d47909989920d48707977720d4970751070628abea8267687b67c0038267787b67c803826780007b67d0039568c003826788007b67d80364a77b6ad8005020e4028aba8267703300e6020a058269b0003302e8022869248269b0005022e8026224d4780298aa206f99979820d4a808989920492698033a0ad801023a0be001023a0ce801023a07f001027b6ab803956a00037babb0007baca8007ba7a0007ba990007ba888003308209569a003956a80037b6280038267d8005020ea0218bc330782686033090a0c280b138267d80095798082678000826890005020ec02ea277b67787b686882678800826898008269d8005020ee02d2277b67207b68708268d8009a89800082678000826890005020f002dc27826970d49808826ad80088ab80007b6b70826968dab90882699800dba8097b699800826820d48707826878dab80782688800dba70864a97b68880082678000826890005020f2026d27330c82697093989397491670634916688264980082628800017b6888007b6c900049167898293f974a01d49a0a9729018260c000980b3fd49b0b7b6b9800826968d3a9087b688000d8a908826c70d8bc02826b8000dbb80282688800978801987b3fd4b8087b688800984b3f977701d47b0b9707018268c800988c3fd4c7077b67c000978c018267b80098783fd48c04977c018267d00098703fd40c0c97770182689000d487077b67d00086c77b67b80086477b67c8008267c00086777b67c000c9b907d82707d8b90882638800c9390cc98c0cc97c0c99c03f84076482689800c97802d87808c98a0494a8c98b07d88b08c98308826ad800826cb000d4ca09889901826ba000d89b03c99b0b88a901c99c0c8269a800c9390995aaff7b6cb0007b69a800d4c9097b6ad800d4ba0ad4a909840c017b6ba00033035209defe8269c80098973f8268c000978801d478028267b80098783f979901d489098268d000988a3f977701978801d48c0b826878d4a80cd47c0cd4980ad4280901826740d87b07826b48d3bc08d8bc0bda870b826750d87a02826c58d3c908d8c909da8209d3a707d48707da7b09510940019567ff079577e1033308405020f40277b69569ff079599598292a00395980003828c9800828b900082878800d42b0ad4c708d4a808988820d4ca0a97aa20d4a808510806286ee7492978034929700349296803140a00000000a079c3089568ff079588c1037b9a80037b67d8007b6bd0007b62c0007b6cc8005020f60243b75022f8028120520706282ae78387049569ff07959959492960034929580349295003330c209568ff079588a1037b9c48037b6ac8007b6bc0005020fa0204b75022fc02d02352070628ebe68387249569ff07959959492940034929380349292803209568ff0795888103492930035020fe02cfb650220003452352070628b6e683a7443a08780102956bff0795bb5995bc00037bc8203a088001023a098801023a0a9001027bc8187bc9109568ff07958861037bca083300ae012883b6826738330002030a0533020403287d20502204037a204919407b98387b9730956880107b9a2833075020060358b695675810491720491718491710647a33072095686010491a08045020080338b6826828818756173f08480840019517e08477e07b67d80050220a039f2333000c030a08826ad80033020e03286620826ad80050220e035f2095bc00067bca207bc9187bc8107bc708956740109568602650201003d4b69567581082787b68b800957900ff8298f8007b68b0008298f0007b68a8008297e8007b67a000826738330012030a053302140328b92050221403b6204929e007959b00077bb8d8007bb7d000956820107bbac80033075020160386b59568ff079588594928c0074928b8074928a807046489330720956800104929b007502018035fb58268289517e08477e07b67d8006471818756173f08480840019517e08477e07b67d00050221a03ba2233001c030a08826ad00033021e0328b71f826ad00050221e03b01f9567ff079577e10750202003ffb5956cff0795cc5982ca880782c7900782c8980782c9a007826bb8007bcb4007826bb0007bcb3807826ba8007bcb3007826ba0007bcb280795cb00077bb9607bb8587bb7509567ff079577c1079568ff079588a1079569ff07959981077bba48502022030617956aff0795aa5995ab000782b7800082b87882b97082ba68956b582095bc00067bc7407bc8387bc9307bca28956880268267d80050202403e1b59567ff07957761073308405020260323b39567ff07957759957c000782c8207b68c80082c9187b69c00082cb107b6bd00082ca087b6ad8007bc87b79f8067b7bf00664789567ff07957741077b8ae8065020280382148267c8008268d000d487078268d800648a8269c000d49808d47808988820d49707977720d4870751070628dee38267409569ff07959959959b00067bb7c8008267487bb7d0008267507bb7d8009568ff07958821078267587bb7e00064a750202a03b4b38267c8008268c000d47809140a00000000010000001407e0ffffff00000000826bd800d87b078268d000948794975207062873e37b6ac00083ba208267a0007b69c8009569ff07959959959b00067bb7a8008267a8007bb7b0008267b0007bb7b8009568ff07958801078267b8007bb7c0007b6ab80064a750202c0336b38268d8008267c0009577c0d878078269d00094978269c80094975207062809e3838740956aff0795aa59492aa006492a9806492a90069568ff079588e106492a8806017b67a00050202e03e9b2826738330030030a053302320328e61d50223203e31d49298006959b00067bb8787bb7709568ff079588c1067bba68330750203403b2b29568ff079588594928600649285806492848060564893307209568ff079588a106492950065020360387b29517e08477e07b67b0006471826928819756173f08480940019517e08477e07b67d00050223803e21f0a08826ad00082a71882a81082a90882aa6f7b7b6bc0006f887b68c8006f997b69a8006fa77b67d000826ab0007ba7187ba9107ba8087bab9567ff07957781068268d80050203a03dab0956aff0795aa5995ab000682b74082b83882b93082ba28956b582095bc00067bc7607bc8587bc9507bca489568a0268267b00050203c034eb39567ff07957761068268b80050203e038fb09567ff07957759827208068273100682741806827a20068267c000957701887c018268c800c88c0cd4c70b88bb018268a800c88b0bd88b088269d000c89808956958207b988006959800067b8b787b8c707b87687b8aa0007b9498067b9390067b9288069567c0269568e02650204003cab29517e0847ce064c18268c000958702d88708826ac80050224203aa1e826bd000c8b8087b6cd8007bc8187bca107bc9087bc79567ff07957741068268a00050204403d9af956aff0795aa5995ab000582b7f80082a8000682b9f00082bae800d49808d4a707d487078e777b67d0009567ff07957721068268d80050204603c9b1956aff0795aa5995ab000582b7c80082b8d00082b9e00082bad800847700ff826bd000d4b707956b582095bc00067bc9c0007bcab8007bc8b0007bc7a800956800278267d80050204803feb1956758204927e0064927d8064927d00664784928c806029567ff07957701069568202750204a0354b19568ff07958859958900058297b8007b67b0008297b0007b67a8008297a8007b67b8009567ff079577e10533084050204c03f4ae9569ff07959959959c000582caa00082cb980082c8900082c788007b68d0007b6ac000d48a0ad4b708d4a8089888207b6bc800d4ba0a97aa20d4a80851080628dfdf492978054929700549296805140a00000000bb9c05a99568ff079588c1057b9a80057b67d80050204e03c0af826738330050030a058269603302520328a019826960502252039a19d4780298aa206f99979820d4a8039899208267d800957a04d87a0b8267d000c8b70cd87c07dabb078268c800c88707d8870b8268c000c88b0b9568ff079588597b8b4005958b00057bb7387bbc308267587bb7826750958c00047bc7f8008267487bc7f0008267407bc7e8007bba287bb9187b8310057b820805648b9567ff079577a1059568ff07958881059569ff0795996105956aff0795aa4105492b20055020540364139568ff07958859828750058282600582834805828a58058268d000d3870bd8870c64808264d800d84308dab80c8269c800c99a0bd89a0a8269c000c99209c9a909d8cb0ac9a9097b699800c9cb0b7b6b9000c90707c987077b678800c943077b67a000330056030a09018267a8006f779778208269b00050225803a01b989920826a607ba7087ba87aa91095695820492900074929f8064929f0068267a000647a826b9000d4b70782689800826c8800d4c808d48707987720d4b808978820d487074929e8065107062825de8267d80064a850205a03c1b17b67b0003308208267d80050205c03b0b1956958204926b80020959a0007481a0820491a40ff491a38ff491a30ff491a28ff82686097882098882014090000000008000000d498029568402797882098882095698027979920d4890a8268b000978820988820826ba00097bb20d48b0b97772098772095686027978820d4780c3308ff3309ff64270a010152078a020a0b015517200b0a0b7b67b800019569ff079599598267b800959b00047bb788008267d8007bb7a8004926b000492990048267d0007bb7b000492998048267c8007bb7b8004929a0049567ff07957701059568ff079588e104826ac0007bbac00050205e03690e8262d8008267b800c82700d870088263d000826cb000c83c09c88909d3c90ad8c90bdaa80b826ac800c8ac08c88b0bd88b04d8c8088267c000c87c0cc8c808c884049568ff07958859958c00047bcb387bc9307b8028047bc7607bca587b8350047b824804648a9567ff079577c1049568ff079588a1049569ff07959981047ba4400450206003fe0f9567ff0795776104330840502062035cab956aff0795aa5995ac000482c72082c81882c91082cb08502264030c185107062866dc64ba9569ff07959959826740959800037b87e8008267487b87f0008267507b87f8009568ff07958841048267587b97000464b77b6ad8005020660336ac826738330068030a0582696033026a0328161682696050226a031016d4780298aa206f99979820d4a8089899203a0a5801029567ff079577597b7ae0033a0a6001023a0b6801023a0c7001027b7ad803957a00037babd0004927c0037bacc8007ba9b8007ba8b0003308209569ff0795992104956aff0795aa01047b72a8038267d80050206c03b7ad330782683033090a0c28aa049567a00433084050206e035aaa956800048287b8007b67d0008287b0007b67c8008287a8007b67c0008287a0007b67d800330070030a0b33027203284916502272034616510806284adb6479987720510706283fdb83977b67d0008267d80064987b69c80050207403d1ae956858208269c8007a8928048377956800208388800433090a0a956758208177280428e2e29567ff079577210533084050207603c6a99567ff07957759957900048298e0007b68d0008298d8007b68c8008298d0007b68c0008297c8007b67d800330078030a0b33027a0328ae1550227a03ab1551080628afda98782051080628a6da64787b67c80083777b67d0008267d80050207c0338ae956858208269c8007a8948078377956800208388a00733090a0a95675820817748072849e23308500202838833070133090a0c2870033308500202838833070133090a0c285f033308500202838833070133090a0c284e033308500202838833070133090a0c283d033308500202838833070133090a0c282c033308500202838833070133090a0c281b033308500202838833070133090a0c280a033308500202838833070133090a0c28f9023308500202838833070133090a0c28e8023308500202838833070133090a0c28d7023308500202838833070133090a0c28c6023308500202838833070133090a0c28b5023308500202838833070133090a0c28a40252478be3fdf21801956758284927a003492798034927900349278803956700308377e0fb0a0f01956a582895ab000382b7980082b8a00082b9900082ba8800d49808d4a707d48707510759023308500202838833070133090a0c2847023308500202838833070133090a0c2836023308500202838833070133090a0c2825023308500202838833070133090a0c2814023308500202838833070133090a0c2803023308500202838833070133090a0c28f2013308500202838833070133090a0c28e1013308500202838833070133090a0c28d0013308500202838833070133090a0c28bf013308500202838833070133090a0c28ae013308500202838833070133090a0c289d013308500202838833070133090a0c288c0152479d96bc291801956758204927a002492798024927900249278802956700208377e00233007e030a0f3302800328a41550228003a11582b7980082b8a00082b9900082ba8800d49808d4a707d4870751074a013308500202838833070133090a0c2827018267b80095a900037b97288267c0007b97308267c8007b97389568801b8267d0007b974064b77b6bd80050208203eea73a078800023a0890000295695818959b00037bb7203a079800027bb8183a0aa000027bb71064973308209569601b7b7a08038267d800330084039511a07b10587b15507b16489515608411e0829a7b1a18829a087b1a10829a107b1a088299187b196486330006281cab33085002028388330733090a0c287d8388330733090a0c2873956958205247a61850715349296004492958044929500449294804956700208377a0040a0f01956a582095ab000482b75882b86082b95082ba48d49808d4a707d48707510796003308500202838833070133090a0c281c3308500202838833070133090a0c280c838833070133090a0c018267d80081775617231c330850020228e78267d800817756172364330850020228d695670030837700fc3308040a0301956758288278b8038279c00314070000000001000000d38707d497077b68d8009888208888017b69b8009498937852084d330850020228908267d8008177561703a9013308500202287eff9567002083770003330804330086030a0301956758208278b8028277c00250228803d211520aa3023308500202284eff956758288278b0037b68c8008277a8037b67d0008267d8009777209877207b67c00050208a03350e8267c8008268d000d487078268c000d4870751076c031407ffffffff000000007b67b000956758284927e0034927d8034927d0034927c803956780229568202c50208c03d3a650228e03301382b8387b68a80082b7409888209788208269d800d4980882b9307b69d8008269b800d4970782b9287b69b80095695828959a00047ba7207ba818492900044929f8034929f0034929e8038267c8007ba7108267d0007ba7089567402c9568602c50209003e8a68267b8008477ff8269d8008498ff8269b000826aa800d2a909956b5820492be001826ac00095bc00017bcad800826ac8007bcad000826ad0007bcac800492b00027bc9f8007bc8f0003a082000023a092800023a0a3000027bc7e80095b700027b78207b79187b7a1064b83a0738000295696022956a4022956b20227b870802330733085020920393a733085002022871fd50209403eb0c95675820492780044927780449277004492768049567ff079577619568c02450209603aaa59568ff079588598289187b69c8008287087b67d8008287107b67d000828720989820978820956958204929a0044929980449299004492988044929b0044929a8047b97c0047b98b8049567e0249568002550209803d4a58267c80097772098772095680010492818f895680010492810f895680010492808f895680010492800f895680010492838f8956800107b8730f88267d000956800107b8728f83a072000023a082800023a09300002826ad800956b00107bba20f8956aff0795aa597ba77ba8f8956700107b7948f83a073800029569ff07959941956aff0795aa21956bff0795bb01956800107b8740f83307330850209a0368a633085002022846fc956a582082a9b00282aaa8027b6a40017b6948017b685001956840017b675801330750209c0390a349263801492630014926200104330720956820014926280150209e0372a333073c02027b67d80039073c020256173f0c8268d800480840019517e08479e07b69c800649133075002027b67d000837783993308403300a0030a08826ac8003302a20328870d826ac8005022a203800d95bc00027bcae0007bc9d8007bc8d0007bc7c80095670001956820235020a403f1a3956b000182b982b70882b81082ba187b6af8007b68f0007b67e800330780009568e0007b69e0005020a603d2a28267d800817756279f00188268d8004808a0008267d0008378800028a4c28267d000837880002899c2956758204927b8014927b0014927a8016479140700000000f7bd4f1e956800227b97c00133075020a8037da2956758204927a001492798014927900164793307049568e021492988015020aa035aa239083c020256183f0b20033c02024001330850020283883307013309240a0c01956758104917784917704917686479140700000000717b484e9568c0107b97800033075020ac0311a2956858104918604918584918481164893307049568a0104919505020ae03f1a1826728817756173f0b826828480840013307013309248268303300b0030a0c019511c07b10387b15307b16289515408411f0828910828a18828b088288d4ba0ad4980bd4ab0b98bb20d4a909979920d4b909520951647664175020b20358a082171082181814090000000001000000d37909d48909987a2088aa01948a939a510a258219821a087b697b6a087b67107b68189551c08210388215308216289511403200003308500202838833070133093300b4030a0c01951110ff7b10e8007b15e0007b16d8009515f0008411f0828610828218828c0882887b1c687b1258d42c036482d4680cd43c0c98cc207b1660d46308978820d4c8087b17505208580182b7187b171882b7107b170882b7087b171082b77b1782a7187b174882a7107b174082a7087b173882a77b1730829718829810829a0882997b19b0007b1ab8007b18c0009518b0007b17c800642664275020b6039ba0821760821858d48709140700000000010000007b17201407e0ffffff00000000d8760782186894877b192894975107d1008367208218307b1890008218387b1898008218407b18a000951890008219487b19a8005020b80341a08217209577c0d8760782186894878218289487510791008217088218d48707821818821910d49808d487078e789567607b1748d86707821968c8790a7b1a40d89a09da7709821760c879097b1968d87907821958c897077b176083674049218800492180007b18709518704911785020ba03cd9f8217508218607b78188218687b78108218407b78088218487b78955110ff8210e8008215e0008216d8009511f0003200009511907b10687b15609515708411f0827a1882791082738277088eab8e9cdbab0c8e72883ba085bb01db720bd4a908db8c0b520b41953860d8380bc8b70cd87c07dabb07c89707d89709c8a9097b18407b1c487b1750330740c871087b19585020bc03379f9551908210688215609511703200491130491128491120140700000000717b484e9518207b173833075020be03089f49111849111049014133070464184911085020c003f19e39083c020256183f0b20033c02024001330850020283883307013309243300c2030a0c01951170ff7b1088007b1580007b1678951590008411f064728289827408828c088273959a1fd89a00c80c0984aae07b1308c8a303d8a30bc8490ac8ba0ad39a06d89a07da6b07822b18d8c90c828610822210828818da000cc86c0cd86c06c82c09c89707d8c90cd89709c8b808c86808c8c808c8980c8ec88e79dbc809d4c7088ea6db8906520657821808d88308d34a09d84a06da9806d82708d3bc09d8bc0bda980bd32708d49808da860b520b307b13507b1a587b17603307409518507b1c685020c403069e955170ff82108800821580008216789511900032005022c603230b5020c803e59d491128491120491110413307049518104911185020ca03cc9d39083c020256183f0b20033c02024001330850020283883307013309243300cc030a0c019511807b10787b15707b1668951580008411f0829b828a829608828308829410828c10829918828818d363027b1608d863067b1b187b1a10d8ba0a7b1ada2a06d3980ad89800d84c02daa200d34c0bd4ba0adaa600520046c94c0ac99808c92808d86a09c99808c96a0a821908c99309821bc9b909821b18821c10c9bc0b7b7b7b79087b7a107b7818955180821078821570821668951180003200491150491148491140140700000000717b484e9518407b175833075020ce03ec9c491138491130491120113307049518204911285020d003d39c39083c020256183f0b20033c02024001330850020283883307013309243300d2030a0c019511907b10687b15607b16589515708411f0648a82841082880882920882a67b16829b7b1b08829010d3820c7b1c28d8820cd86b0b821328da3b0c64b682aa187b1a188299187b1910c9400ac9ca097b1920d8ca097b1428d8400b821418821a10c94a0ac9ba0ac99a0ac98209c969098212821b08c92b0b8e9c88bb2085bb01db9c0b8fa68219208e9cdba60cd4a909db9c0b510b616476821a28d4a207d44809d49707987720d4a909979920d4970752074395173064285020d403b79a821748821840821930821a38d4780b889c0294ac94bc510c277b697b6a087b68107b671895519082106882156082165895117032000033085002022808330850020201838833070133093300d6030a0c01951150ff7b10a8007b15a0007b1698009515b0008411f0828c10828b1882860882827b1b407b1638d4b608d4c20bd48b0b98bb207b1c48d4c808978820d4b8087b17305208da00642682a7187b172882a7107b172082a7087b171882a77b17108297108298088299977720987720492188007b19707b18789518707b17800064275020d803199b821948821a40d4a9071408e0ffffff00000000d88608821b3894b894785108799567407b1708d86707c87b087b18d8b808da7708c898087b1838d89807c8a7077b17488367208218107b18508218187b18588218207b18609518508219287b19685020da03b29a8217308218387b781082187b78088218087b788218487b7818955150ff8210a8008215a000821698009511b0003200009511907b10687b15607b16589515708411f0828a187b1a08829b1882847b14828a08829608829c828310829210c8a609c8c404d8c40cc8c909d36900d86906da0c06c83208821c08c8bc0cd8280bc8cb0bc8680cd88c08c88b00d3a90bd8a90a8218d88406dbba06d83c02821808d3800bd8800adab20ad33c08d4b808db8a0652061f7b747b79087b7c107b701895519082106882156082165895117032005022dc0315075020de03d799491128491120491110113307049518104911185020e003be9939083c020256183f0b20033c02024001330850020283883307013309243300e2030a0c01951110ff7b10e8007b15e0007b16d8009515f0008411f0828610828218828c0882887b1c687b1258d42c036482d4680cd43c0c98cc207b1660d46308978820d4c8087b175052085c0182b7187b172082b7107b171882b7087b171082b77b170882a7107b173082a7087b173882a77b174082971082980882999777209877204921c8007b19b0007b18b8009518b0007b17c000642664275020e403fd98821760821858d48709140700000000010000007b17281407e0ffffff00000000d8760782186894877b194894975107d7001408ffffffff00000000821930d289098218388488ff821a4084aaff8367204921a8007b1a90007b189800951890007b19a0005020e60393988217289577c0d8760782186894878218489487510787009567607b1748d86707821868c878097b1940d88908da7708821760c878087b1838d87807821858c887077b17688367408218087b18708218107b18788218187b1880009518708219207b1988005020e80329988217508218387b78108218407b78088218487b788218687b7818955110ff8210e8008215e0008216d8009511f000320000951140ff7b10b8007b15b0007b16a8009515c0008411e049219800492190004921880049218000951760951880005020ea03b6988217687b17188217607b17108017707b1708330650020383677b170a05013a075802033a0850020339096002036f77987a206f88978b20d4ba0a9777206f99989920d49707988820821908d39808821910d39707d48707821818d3a808d48707520719955140ff8210b8008215b0008216a8009511c0003200491150491148491140140700000000a7da8c119518407b175833075020ec032a9782173300ee030a050182670881681082695022f0038b014911387b18307b17283307049518207b1a205020f203fb9639083c020256183f0b20033c02024001330850020283883307013309240a0c33073300f40328a09a33075020f4039b9a3307015020f603929a8268d8008267c800826ac000d47a0a140b00000000010000001407fcffffff00000000d878078269d000949794a73202140b00000000010000001407fcffffff00000000d878078269d000949794a732028268d8008267c0009577dcd878078269d00094978269c800949732028269d8008267c00095779cd879078268d00094878268c80094873202826ac800826bd0008268d800140900000000010000001407bcffffff00000000d8780794b794a7320282970881981082996f7a97a7206f88988820320282696082970881981082996f77977a206f88988820d48a0a9877206f98978920d4970798882095695810320282970881981082996f77977a206f88988820d48a0a9877206f98978920d4970798882095695818320282a71882a81082a90882aa6f776f886f996faa956b582032026f77977a206f88988820d48a0a9877206f98978920d49707988820320282a71882a81082a90882aa6f776f8b6f996faa8268d8007b8a187b89107b8b087b8732028267c0008268b800d47809140a00000000010000001407e0ffffff000000008268d800d878078268c8009487949732028268d0008269c000d49808826ac8008269d800d4a909d48909989920d4a808978820d49808320282696082970881981082996f77977a206f88988820d48a0a9877206f98978920d497079888209569ff079599593202826ad80082a71882a81082a90882aa6f7c6f8b6f976fa87b68a8008269d0007b98187b67b0007b97107b6ba0007b9b087b6c98007b9c320214090000000001000000d38909d47909988a2088aa01947a939a3202d49707d48b09d47909989920d48707977720d49707320282689800958702d88708826aa000c88a09d8a90ada880a8268b000c88a0ad88a08826ba800c8b808320282970881981082996f77977a206f88988820d4a80832028267c0008268c800d487078269b8008268d800d49808d47808988820d49707977720d487073202826798009577018878018269a000c89808d48709889901826ab000c8a909d8a90a826ba800c8ba0a3202d4ba09d4c708d49808988820d4c909979920d498083202826bc800826ad0008268d800140900000000010000001407bcffffff00000000d8780794a794b73202826ad8001407bcffffff00000000d87a078268d00094878268c80094873202c9a909d8cb0ac9a9097b6960c9cb0b7b6b58c98707c947077b6750c903073202d49b0bd48709d4b909989920d4b808978820d498083202826bc800826ad0008268d8008267c0009577dcd8780794a794b732028267c0009577c08268d800d878078268c80094878268d0009487320282186f888219086f99821a106faa821b186fbb32026f99989920d498088269b8006f99979a20987720d4a7073202491140491138491130140700000000717b484e9518307b17483307320233075820c8760a95ab0002320233075828c8760a95ab00013202c88a09d8a90ada880a8268a800c88a0ad88a0832026471837933084082673032029517e08479e07b69d80064913202492860014928580149284801056489330720320282b7d80082b8e00082b9d00082bac800d49808d4a707d48707320283872433085818c88609320283872433085810c88609320283870433085818c88609320283870433085810c886093202849a40520a195109148d9a40cfa80ad09808d09707d4a707320032009597c0d0780733083200849a40520a195109148d9a40d0a70acf9707cf9808d4a808320032009598c0cf870833073200214225a952484992244992244992244992244992244992244992244992244992244992244992542529a524292949a84a494a922449922449922449922449922449922449922449929224294955494a92284925495592922425494a5292aaaa242549492a490a49524949922222222549929224a9109224a59492a4922222a28888484992242549925292244928959494142952a4489122458a92141111254982101286d2a43424424444448a8888469224899024894452121122a1d48488202242244912114444884422498a08111191a4849426258988888810892291a424092949924444242222224442241289242549484a9224228a44082144244922222a2449448488108924224222111111922422424488441211219188880811112221494a9224194a4249440410518888448410c150d20a5549a14a95464444a4880812114284484469442001814440208104040404444444a42444442449a248441a91244992488824852422028888880811919024224444849024224484902444840821222284242122808888444444a42484248a44a41111114992488888244992248988002222224248424488880821091121228424212222841011114292101111118988886844222549124522222242444444442444449220892422128944242222a21149922489221189464490444424892888202248a21009912054a24810092212894422492488088224222222222222228220224922822089282222228944224a0441449288082291284a2251449244824810894422111189442211111111111125111191202212499224451249222222a2114112452222424410312212894424884892208948241291225292884644114992281291469224492241444444922449222280888888204882881011110449101122822049888884109248102409111140444402898888884604491489483422822422124922a220124444904421122241a814492a8aa288244504914824128948221149124922898820121111492489882412119124111144222212442222222291482492241211894422a288888888880822914892242912111193244924228924499224491114958888882812249224491449a288141111111111490a2222922491202292244992242202888888088224880811114190041121220892848888104244441024091111404444222222a24890244992281211112282889148242241449204492411914824221111118d4892244914894811912449424a140922924841448412112451084990488250491409224144444444444444041141904444444444440441444444441024111189249224220822222222822089882812111141241109221149922449121101444444441024894484888808822491881011419024442422841011114190241211404444242222a21111512449a2484484882022222222124444440449241111111111248252a546448428a288441091440a22468412112451886012854a8a2455459222888888888888888888888820222222224922828888424410311249221244449224499244440011111141c4884490942489282211242589249244128944221111119148242222a2888888202222228924924890a64449942492121191922449928828884410112184104900892492489224912435695223222222222222222288482292249124912422222222222222222282481011111144442291882882882212415292101142884824494444502a1111218a282211442491828811a1440449144204238942258a2455459292922492442249890411119120229224499288880022222282208288101111041144848820888410222222808820119434890851a29114444444414448449044212441220942254592aa221289449120222222222222228808828824491289209248124924224922822022924822259120920822114912110411114522222288241244444410111140444444101109221121222208221121220822211222842412049188002222925244828888882449121111404444441044101122228220828810110491101111424822411009111111914422918820464444924822912449448288489224492222028888880882082242444410441011228220122222420811114110898800222288084a3422224404912022498264922249249222220922128944929408922449242249924482a4249124924892228248924422a2884490245210b1448904491445265189282211441011118944444444444444101111114912114424890822224244109124894810114992244944440011111141c4884490942489282211242589249244128944221111119148242222a2888888202222228924924890a6a4244a12498988484992244944144422881042089104904822892449124952a3498d88884444444444441049229224912491242222222222222222228248101111114444229188288288221241529210114288482449444450542241442291484491204a145104115144458c688988a0489324494424884444449224898808202222228220128908111111049148448888208884884484109288044124121140444424d1480a2222a22022242248914954124524828824114124924822499224494482489220222280888888202212442242444410119154242244041140a2281222420811119144912022220a222294882045261144118920222222828888888888882844041111119148922491244924492291442491248924924892248924928824495494488994442411a5a4142991a49288244944122589524a892415495289a8481149225155544444228948249124928888082222224824221141444422114922111144442289a288924810914824125124484a5244114444111591442329888888828890882089526412954411892082284944442211111111414444444444441011518808222222224124499224492222808888882045522949492289249144222212898888888888882022229248228924892449221a2582484a44449444922489240a22114488888848024824914412491249529326352222222222222222884822922491244592482289888808224144442449922491888888224814910892924408214444444422228252894404494404494444904424894492448a88a054246244922492482249249244924412892491241245114592489244929244249124914424924411892492449224492649922449928848108988882449924444001111111104492211918888088224918810114190244422218424229144912049a4209294882045261144118920922422882222222212458288888882484428114192a8c824822822114404918888888888884812111191201291242249228288049148241289228a882022512449922412914844240a2212400091a82412118988888888888288248a9244222222449028124424112988448412114112a5c82482224945511491a4880822912411491211444410898888249244128988241111114152241144224911114422222249111141242222221211111111444414222288444444444482484444442449244922228088882051220992924412492289442292948844228928222222228248444424451249244924924844a34490a44444449188244922898248041122222292049048228924922492a446a318898888888888888888882022894892449244924824914414111111414482482449901449442211912882448924484a122211428888888844444404a5120922222222228a0449498a28828828a2221291201211111111512448921445041151444524944a2895502aa15442a9845209a5124a25944a2895502aa15442a9044444444423222292442895502aa15442a9845209a5124a25944a2895502aa15442a9044444444414092222924428958844221129821022121252222292242949924a42555545202222a21149922442a942a94a8d22144528228d88009248a2128a424844a211114448444444124144221140444444441024924412914444121111894404914844222222222222420811490a111115840411111189209248249244444444444410494444444444444484102222522242241289a82024222222a22022242208112232894254a288441011111141942422222288424444221211510011051111252208110c258d2405105110499448902299249a2449929224492a480248924a294992a4a1148d888824294949922491244925495292141111152409200124a548229188449024a5484992922449922449229204499224454444932449a994244992244992244192942480a420494a1022184aa21191482525499224499224499224492525499224499224498288481404492409420443493449229524499224254992244992a424294992444902480a9248128408869268922425a99224494a92244992244949494a495292244952902449a524499286c25234222292a4244992245192242529892451902480a49224254992244992244852521211114d92244925254992244992242949922449499224054112498210c150128d88882429494992249124494992929444444405490248004929024892241111112449299224499224499224914490244949444434222212119108922409d5104229494992244912111125092029289a14244912840886928a14248888041040a20a2080441591445111491415110104902aa99492544a529228a994a4245192aaa252929294a4aa485211092080485411894892a424959294245224a92a2291485400495225499222892491444a2a25452422499222892491444a922445440001a48a001245254992242549922222922a1289a22aa5544994a4240124158922519248aaa4242a22942222929448899448899424495249254992545200"
        },
        "methodIdentifiers": {
          "collateralBalances(address)": "29bc969d",
          "collateralFactor()": "df011c41",
          "collateralToken()": "b2016bd4",
          "depositCollateral(uint256)": "bad4a01f",
          "getLoanDetails(address)": "e8a7da8e",
          "lendingToken()": "aaaca558",
          "loans(address)": "73b4086b",
          "owner()": "8da5cb5b",
          "renounceOwnership()": "715018a6",
          "repayLoan(uint256)": "ab7b1c89",
          "setCollateralFactor(uint256)": "b5c22157",
          "takeLoan(uint256)": "8c803fc2",
          "transferOwnership(address)": "f2fde38b",
          "withdrawCollateral(uint256)": "6112fe2e"
        }
      },
      "hash": "ff82eefd256b9ff06ada91f908d47447c7c941338e0c5bd5717032aa19bcb42f",
      "factoryDependencies": {}
    }
  }
}