{
  "contracts/LendingBorrowing.sol": {
    "LendingBorrowing": {
      "abi": [
        {
          "inputs": [
            {
              "internalType": "contract IERC20",
              "name": "_collateralToken",
              "type": "address"
            },
            {
              "internalType": "contract IERC20",
              "name": "_lendingToken",
              "type": "address"
            },
            {
              "internalType": "uint256",
              "name": "_collateralFactor",
              "type": "uint256"
            }
          ],
          "stateMutability": "nonpayable",
          "type": "constructor"
        },
        {
          "inputs": [
            {
              "internalType": "address",
              "name": "owner",
              "type": "address"
            }
          ],
          "name": "OwnableInvalidOwner",
          "type": "error"
        },
        {
          "inputs": [
            {
              "internalType": "address",
              "name": "account",
              "type": "address"
            }
          ],
          "name": "OwnableUnauthorizedAccount",
          "type": "error"
        },
        {
          "anonymous": false,
          "inputs": [
            {
              "indexed": true,
              "internalType": "address",
              "name": "user",
              "type": "address"
            },
            {
              "indexed": false,
              "internalType": "uint256",
              "name": "amount",
              "type": "uint256"
            }
          ],
          "name": "CollateralDeposited",
          "type": "event"
        },
        {
          "anonymous": false,
          "inputs": [
            {
              "indexed": true,
              "internalType": "address",
              "name": "user",
              "type": "address"
            },
            {
              "indexed": false,
              "internalType": "uint256",
              "name": "amount",
              "type": "uint256"
            }
          ],
          "name": "CollateralWithdrawn",
          "type": "event"
        },
        {
          "anonymous": false,
          "inputs": [
            {
              "indexed": true,
              "internalType": "address",
              "name": "user",
              "type": "address"
            },
            {
              "indexed": false,
              "internalType": "uint256",
              "name": "amount",
              "type": "uint256"
            }
          ],
          "name": "LoanRepaid",
          "type": "event"
        },
        {
          "anonymous": false,
          "inputs": [
            {
              "indexed": true,
              "internalType": "address",
              "name": "user",
              "type": "address"
            },
            {
              "indexed": false,
              "internalType": "uint256",
              "name": "amount",
              "type": "uint256"
            }
          ],
          "name": "LoanTaken",
          "type": "event"
        },
        {
          "anonymous": false,
          "inputs": [
            {
              "indexed": true,
              "internalType": "address",
              "name": "previousOwner",
              "type": "address"
            },
            {
              "indexed": true,
              "internalType": "address",
              "name": "newOwner",
              "type": "address"
            }
          ],
          "name": "OwnershipTransferred",
          "type": "event"
        },
        {
          "inputs": [
            {
              "internalType": "address",
              "name": "",
              "type": "address"
            }
          ],
          "name": "collateralBalances",
          "outputs": [
            {
              "internalType": "uint256",
              "name": "",
              "type": "uint256"
            }
          ],
          "stateMutability": "view",
          "type": "function"
        },
        {
          "inputs": [],
          "name": "collateralFactor",
          "outputs": [
            {
              "internalType": "uint256",
              "name": "",
              "type": "uint256"
            }
          ],
          "stateMutability": "view",
          "type": "function"
        },
        {
          "inputs": [],
          "name": "collateralToken",
          "outputs": [
            {
              "internalType": "address",
              "name": "",
              "type": "address"
            }
          ],
          "stateMutability": "view",
          "type": "function"
        },
        {
          "inputs": [
            {
              "internalType": "uint256",
              "name": "_amount",
              "type": "uint256"
            }
          ],
          "name": "depositCollateral",
          "outputs": [],
          "stateMutability": "nonpayable",
          "type": "function"
        },
        {
          "inputs": [
            {
              "internalType": "address",
              "name": "_user",
              "type": "address"
            }
          ],
          "name": "getLoanDetails",
          "outputs": [
            {
              "internalType": "uint256",
              "name": "amount",
              "type": "uint256"
            },
            {
              "internalType": "uint256",
              "name": "collateral",
              "type": "uint256"
            },
            {
              "internalType": "bool",
              "name": "isActive",
              "type": "bool"
            }
          ],
          "stateMutability": "view",
          "type": "function"
        },
        {
          "inputs": [],
          "name": "lendingToken",
          "outputs": [
            {
              "internalType": "address",
              "name": "",
              "type": "address"
            }
          ],
          "stateMutability": "view",
          "type": "function"
        },
        {
          "inputs": [
            {
              "internalType": "address",
              "name": "",
              "type": "address"
            }
          ],
          "name": "loans",
          "outputs": [
            {
              "internalType": "uint256",
              "name": "amount",
              "type": "uint256"
            },
            {
              "internalType": "uint256",
              "name": "collateral",
              "type": "uint256"
            },
            {
              "internalType": "bool",
              "name": "isActive",
              "type": "bool"
            }
          ],
          "stateMutability": "view",
          "type": "function"
        },
        {
          "inputs": [],
          "name": "owner",
          "outputs": [
            {
              "internalType": "address",
              "name": "",
              "type": "address"
            }
          ],
          "stateMutability": "view",
          "type": "function"
        },
        {
          "inputs": [],
          "name": "renounceOwnership",
          "outputs": [],
          "stateMutability": "nonpayable",
          "type": "function"
        },
        {
          "inputs": [
            {
              "internalType": "uint256",
              "name": "_amount",
              "type": "uint256"
            }
          ],
          "name": "repayLoan",
          "outputs": [],
          "stateMutability": "nonpayable",
          "type": "function"
        },
        {
          "inputs": [
            {
              "internalType": "uint256",
              "name": "_newFactor",
              "type": "uint256"
            }
          ],
          "name": "setCollateralFactor",
          "outputs": [],
          "stateMutability": "nonpayable",
          "type": "function"
        },
        {
          "inputs": [
            {
              "internalType": "uint256",
              "name": "_amount",
              "type": "uint256"
            }
          ],
          "name": "takeLoan",
          "outputs": [],
          "stateMutability": "nonpayable",
          "type": "function"
        },
        {
          "inputs": [
            {
              "internalType": "address",
              "name": "newOwner",
              "type": "address"
            }
          ],
          "name": "transferOwnership",
          "outputs": [],
          "stateMutability": "nonpayable",
          "type": "function"
        },
        {
          "inputs": [
            {
              "internalType": "uint256",
              "name": "_amount",
              "type": "uint256"
            }
          ],
          "name": "withdrawCollateral",
          "outputs": [],
          "stateMutability": "nonpayable",
          "type": "function"
        }
      ],
      "evm": {
        "assembly": "// RO data = 0/0 bytes\n// RW data = 448/66032 bytes\n// Stack size = 32768 bytes\n\n// Instructions = 8163\n// Code size = 28566 bytes\n\n      : @0 (gas: 2)\n     0: a1 = i32 [0x201c8]\n     5: jump @72 if a1 == 0\n      : @1 (gas: 4)\n     9: a0 = 0x301f0\n    14: i32 a0 = a0 + 0\n    16: ecalli 13 // 'set_immutable_data'\n    18: jump @72\n      : @2 (gas: 8)\n    21: sp = sp + 0xfffffffffffffff0\n    24: u64 [sp + 0x8] = ra\n    27: u64 [sp] = s0\n    29: a2 = a1\n    31: s0 = a0\n    33: a1 = 0x20\n    36: a0 = a2\n    38: ra = 2, jump @13\n      : @3 [@dyn 1] (gas: 100)\n    43: a1 = u8 [a0 + 0x1]\n    46: a2 = u8 [a0]\n    48: a3 = u8 [a0 + 0x2]\n    51: a4 = u8 [a0 + 0x3]\n    54: a1 = a1 << 0x8\n    57: a1 = a1 | a2\n    60: a3 = a3 << 0x10\n    63: a4 = a4 << 0x18\n    66: a3 = a3 | a4\n    69: a1 = a1 | a3\n    72: a2 = u8 [a0 + 0x5]\n    75: a3 = u8 [a0 + 0x4]\n    78: a4 = u8 [a0 + 0x6]\n    81: a5 = u8 [a0 + 0x7]\n    84: a2 = a2 << 0x8\n    87: a2 = a2 | a3\n    90: a4 = a4 << 0x10\n    93: a5 = a5 << 0x18\n    96: a4 = a4 | a5\n    99: a2 = a2 | a4\n   102: a2 = a2 << 0x20\n   105: t0 = a2 | a1\n   108: a2 = u8 [a0 + 0x9]\n   111: a3 = u8 [a0 + 0x8]\n   114: a4 = u8 [a0 + 0xa]\n   117: a5 = u8 [a0 + 0xb]\n   120: a2 = a2 << 0x8\n   123: a2 = a2 | a3\n   126: a4 = a4 << 0x10\n   129: a5 = a5 << 0x18\n   132: a4 = a4 | a5\n   135: a2 = a2 | a4\n   138: a3 = u8 [a0 + 0xd]\n   141: a4 = u8 [a0 + 0xc]\n   144: a5 = u8 [a0 + 0xe]\n   147: a1 = u8 [a0 + 0xf]\n   150: a3 = a3 << 0x8\n   153: a3 = a3 | a4\n   156: a5 = a5 << 0x10\n   159: a1 = a1 << 0x18\n   162: a1 = a1 | a5\n   165: a1 = a1 | a3\n   168: a1 = a1 << 0x20\n   171: t1 = a1 | a2\n   174: a1 = u8 [a0 + 0x11]\n   177: a3 = u8 [a0 + 0x10]\n   180: a4 = u8 [a0 + 0x12]\n   183: a5 = u8 [a0 + 0x13]\n   186: a1 = a1 << 0x8\n   189: a1 = a1 | a3\n   192: a4 = a4 << 0x10\n   195: a5 = a5 << 0x18\n   198: a4 = a4 | a5\n   201: a1 = a1 | a4\n   204: a3 = u8 [a0 + 0x15]\n   207: a4 = u8 [a0 + 0x14]\n   210: a5 = u8 [a0 + 0x16]\n   213: a2 = u8 [a0 + 0x17]\n   216: a3 = a3 << 0x8\n   219: a3 = a3 | a4\n   222: a5 = a5 << 0x10\n   225: a2 = a2 << 0x18\n   228: a2 = a2 | a5\n   231: a2 = a2 | a3\n   234: a2 = a2 << 0x20\n   237: a3 = a2 | a1\n   240: a1 = u8 [a0 + 0x19]\n   243: a2 = u8 [a0 + 0x18]\n   246: a4 = u8 [a0 + 0x1a]\n   249: a5 = u8 [a0 + 0x1b]\n   252: a1 = a1 << 0x8\n   255: a1 = a1 | a2\n   258: a4 = a4 << 0x10\n   261: a5 = a5 << 0x18\n   264: a4 = a4 | a5\n   267: a1 = a1 | a4\n   270: a2 = u8 [a0 + 0x1d]\n   273: a4 = u8 [a0 + 0x1c]\n   276: a5 = u8 [a0 + 0x1e]\n   279: a0 = u8 [a0 + 0x1f]\n   282: a2 = a2 << 0x8\n   285: a2 = a2 | a4\n   288: a5 = a5 << 0x10\n   291: a0 = a0 << 0x18\n   294: a0 = a0 | a5\n   297: a0 = a0 | a2\n   300: a0 = a0 << 0x20\n   303: a0 = a0 | a1\n   306: a0 = reverse a0\n   308: a1 = reverse a3\n   310: a2 = reverse t1\n   312: a3 = reverse t0\n   314: u64 [s0 + 0x18] = a3\n   317: u64 [s0 + 0x10] = a2\n   320: u64 [s0 + 0x8] = a1\n   323: u64 [s0] = a0\n   325: ra = u64 [sp + 0x8]\n   328: s0 = u64 [sp]\n   330: sp = sp + 0x10\n   333: ret\n      : @4 (gas: 12)\n   335: sp = sp + 0xffffffffffffffd8\n   338: u64 [sp + 0x20] = ra\n   341: u64 [sp + 0x18] = s0\n   344: u64 [sp + 0x10] = s1\n   347: a2 = u64 [a1]\n   349: u64 [sp + 0x8] = a2\n   352: a2 = u64 [a1 + 0x8]\n   355: u64 [sp] = a2\n   357: s0 = u64 [a1 + 0x10]\n   360: s1 = u64 [a1 + 0x18]\n   363: a1 = 0x20\n   366: ra = 4, jump @13\n      : @5 [@dyn 2] (gas: 71)\n   371: a1 = reverse s1\n   373: a2 = reverse s0\n   375: a3 = u64 [sp]\n   377: a3 = reverse a3\n   379: a4 = u64 [sp + 0x8]\n   382: a4 = reverse a4\n   384: u8 [a0 + 0x18] = a4\n   387: u8 [a0 + 0x10] = a3\n   390: u8 [a0 + 0x8] = a2\n   393: u8 [a0] = a1\n   395: a5 = a4 >> 0x38\n   398: u8 [a0 + 0x1f] = a5\n   401: a5 = a4 >> 0x30\n   404: u8 [a0 + 0x1e] = a5\n   407: a5 = a4 >> 0x28\n   410: u8 [a0 + 0x1d] = a5\n   413: a5 = a4 >> 0x20\n   416: u8 [a0 + 0x1c] = a5\n   419: a5 = a4 >> 0x18\n   422: u8 [a0 + 0x1b] = a5\n   425: a5 = a4 >> 0x10\n   428: u8 [a0 + 0x1a] = a5\n   431: a4 = a4 >> 0x8\n   434: u8 [a0 + 0x19] = a4\n   437: a4 = a3 >> 0x38\n   440: u8 [a0 + 0x17] = a4\n   443: a4 = a3 >> 0x30\n   446: u8 [a0 + 0x16] = a4\n   449: a4 = a3 >> 0x28\n   452: u8 [a0 + 0x15] = a4\n   455: a4 = a3 >> 0x20\n   458: u8 [a0 + 0x14] = a4\n   461: a4 = a3 >> 0x18\n   464: u8 [a0 + 0x13] = a4\n   467: a4 = a3 >> 0x10\n   470: u8 [a0 + 0x12] = a4\n   473: a3 = a3 >> 0x8\n   476: u8 [a0 + 0x11] = a3\n   479: a3 = a2 >> 0x38\n   482: u8 [a0 + 0xf] = a3\n   485: a3 = a2 >> 0x30\n   488: u8 [a0 + 0xe] = a3\n   491: a3 = a2 >> 0x28\n   494: u8 [a0 + 0xd] = a3\n   497: a3 = a2 >> 0x20\n   500: u8 [a0 + 0xc] = a3\n   503: a3 = a2 >> 0x18\n   506: u8 [a0 + 0xb] = a3\n   509: a3 = a2 >> 0x10\n   512: u8 [a0 + 0xa] = a3\n   515: a2 = a2 >> 0x8\n   518: u8 [a0 + 0x9] = a2\n   521: a2 = a1 >> 0x38\n   524: u8 [a0 + 0x7] = a2\n   527: a2 = a1 >> 0x30\n   530: u8 [a0 + 0x6] = a2\n   533: a2 = a1 >> 0x28\n   536: u8 [a0 + 0x5] = a2\n   539: a2 = a1 >> 0x20\n   542: u8 [a0 + 0x4] = a2\n   545: a2 = a1 >> 0x18\n   548: u8 [a0 + 0x3] = a2\n   551: a2 = a1 >> 0x10\n   554: u8 [a0 + 0x2] = a2\n   557: a1 = a1 >> 0x8\n   560: u8 [a0 + 0x1] = a1\n   563: ra = u64 [sp + 0x20]\n   566: s0 = u64 [sp + 0x18]\n   569: s1 = u64 [sp + 0x10]\n   572: sp = sp + 0x28\n   575: ret\n      : @6 (gas: 48)\n   577: sp = sp + 0xffffffffffffffa0\n   580: u64 [sp + 0x58] = ra\n   583: u64 [sp + 0x50] = s0\n   586: u64 [sp + 0x48] = s1\n   589: s0 = sp + 0x60\n   592: sp = sp & 0xffffffffffffffe0\n   595: s1 = a0\n   597: a0 = u64 [a1 + 0x18]\n   600: a2 = u64 [a1 + 0x10]\n   603: a3 = u64 [a1 + 0x8]\n   606: a1 = u64 [a1]\n   608: a0 = reverse a0\n   610: a2 = reverse a2\n   612: a3 = reverse a3\n   614: a1 = reverse a1\n   616: u64 [sp + 0x18] = a1\n   619: u64 [sp + 0x10] = a3\n   622: u64 [sp + 0x8] = a2\n   625: u64 [sp] = a0\n   627: u64 [sp + 56] = 0\n   630: u64 [sp + 48] = 0\n   633: u64 [sp + 40] = 0\n   636: u64 [sp + 32] = 0\n   639: u32 [sp + 64] = 0x20\n   643: i32 a1 = sp + 0\n   645: i32 a3 = sp + 0x20\n   648: i32 a4 = sp + 0x40\n   651: a2 = 0xffffffffffffffff\n   654: a0 = 0\n   656: ecalli 7 // 'get_storage'\n   658: a0 = u64 [sp + 0x38]\n   661: a1 = u64 [sp + 0x30]\n   664: a2 = u64 [sp + 0x28]\n   667: a3 = u64 [sp + 0x20]\n   670: a0 = reverse a0\n   672: a1 = reverse a1\n   674: a2 = reverse a2\n   676: a3 = reverse a3\n   678: u64 [s1 + 0x18] = a3\n   681: u64 [s1 + 0x10] = a2\n   684: u64 [s1 + 0x8] = a1\n   687: u64 [s1] = a0\n   689: sp = s0 + 0xffffffffffffffa0\n   692: ra = u64 [sp + 0x58]\n   695: s0 = u64 [sp + 0x50]\n   698: s1 = u64 [sp + 0x48]\n   701: sp = sp + 0x60\n   704: ret\n      : @7 (gas: 40)\n   706: sp = sp + 0xffffffffffffffa0\n   709: u64 [sp + 0x58] = ra\n   712: u64 [sp + 0x50] = s0\n   715: s0 = sp + 0x60\n   718: sp = sp & 0xffffffffffffffe0\n   721: t0 = u64 [a0]\n   723: a3 = u64 [a0 + 0x8]\n   726: a4 = u64 [a0 + 0x10]\n   729: a0 = u64 [a0 + 0x18]\n   732: t1 = u64 [a1]\n   734: a2 = u64 [a1 + 0x8]\n   737: a5 = u64 [a1 + 0x10]\n   740: a1 = u64 [a1 + 0x18]\n   743: t2 = reverse a0\n   745: a4 = reverse a4\n   747: a3 = reverse a3\n   749: a0 = reverse t0\n   751: t0 = reverse a1\n   753: a5 = reverse a5\n   755: a2 = reverse a2\n   757: a1 = reverse t1\n   759: u64 [sp + 0x18] = a0\n   762: u64 [sp + 0x10] = a3\n   765: u64 [sp + 0x8] = a4\n   768: u64 [sp] = t2\n   770: u64 [sp + 0x38] = a1\n   773: u64 [sp + 0x30] = a2\n   776: u64 [sp + 0x28] = a5\n   779: u64 [sp + 0x20] = t0\n   782: i32 a1 = sp + 0\n   784: i32 a3 = sp + 0x20\n   787: a2 = 0xffffffffffffffff\n   790: a4 = 0x20\n   793: a0 = 0\n   795: ecalli 14 // 'set_storage'\n   797: sp = s0 + 0xffffffffffffffa0\n   800: ra = u64 [sp + 0x58]\n   803: s0 = u64 [sp + 0x50]\n   806: sp = sp + 0x60\n   809: ret\n      : @8 (gas: 24)\n   811: sp = sp + 0xffffffffffffff60\n   815: u64 [sp + 0x98] = ra\n   819: u64 [sp + 0x90] = s0\n   823: u64 [sp + 0x88] = s1\n   827: s0 = sp + 0xa0\n   831: sp = sp & 0xffffffffffffffe0\n   834: a4 = u64 [a3]\n   836: u64 [sp + 0x38] = a4\n   839: a4 = u64 [a3 + 0x8]\n   842: u64 [sp + 0x30] = a4\n   845: a4 = u64 [a3 + 0x10]\n   848: u64 [sp + 0x28] = a4\n   851: a3 = u64 [a3 + 0x18]\n   854: u64 [sp + 0x20] = a3\n   857: a3 = u64 [a2]\n   859: u64 [sp + 0x18] = a3\n   862: a3 = u64 [a2 + 0x8]\n   865: u64 [sp + 0x10] = a3\n   868: a3 = u64 [a2 + 0x10]\n   871: u64 [sp + 0x8] = a3\n   874: a2 = u64 [a2 + 0x18]\n   877: u64 [sp] = a2\n   879: s1 = a1\n   881: ra = 6, jump @13\n      : @9 [@dyn 3] (gas: 35)\n   886: a1 = u64 [sp]\n   888: a1 = reverse a1\n   890: a2 = u64 [sp + 0x8]\n   893: a2 = reverse a2\n   895: a3 = u64 [sp + 0x10]\n   898: a3 = reverse a3\n   900: a4 = u64 [sp + 0x18]\n   903: a4 = reverse a4\n   905: u64 [sp + 0x58] = a4\n   908: u64 [sp + 0x50] = a3\n   911: u64 [sp + 0x48] = a2\n   914: u64 [sp + 0x40] = a1\n   917: a1 = u64 [sp + 0x20]\n   920: a1 = reverse a1\n   922: a2 = u64 [sp + 0x28]\n   925: a2 = reverse a2\n   927: a3 = u64 [sp + 0x30]\n   930: a3 = reverse a3\n   932: a4 = u64 [sp + 0x38]\n   935: a4 = reverse a4\n   937: u64 [sp + 0x78] = a4\n   940: u64 [sp + 0x70] = a3\n   943: u64 [sp + 0x68] = a2\n   946: u64 [sp + 0x60] = a1\n   949: i32 a2 = a0 + 0\n   951: i32 a3 = s1 + 0\n   953: i32 a0 = sp + 0x40\n   956: a1 = 0x2\n   959: ecalli 6 // 'deposit_event'\n   961: sp = s0 + 0xffffffffffffff60\n   965: ra = u64 [sp + 0x98]\n   969: s0 = u64 [sp + 0x90]\n   973: s1 = u64 [sp + 0x88]\n   977: sp = sp + 0xa0\n   981: ret\n      : @10 (gas: 33)\n   983: sp = sp + 0xffffffffffffff20\n   987: u64 [sp + 0xd8] = ra\n   991: u64 [sp + 0xd0] = s0\n   995: u64 [sp + 0xc8] = s1\n   999: s0 = sp + 0xe0\n  1003: sp = sp & 0xffffffffffffffe0\n  1006: a5 = u64 [a4]\n  1008: u64 [sp + 0x40] = a5\n  1011: a5 = u64 [a4 + 0x8]\n  1014: u64 [sp + 0x48] = a5\n  1017: a5 = u64 [a4 + 0x10]\n  1020: u64 [sp + 0x50] = a5\n  1023: a4 = u64 [a4 + 0x18]\n  1026: u64 [sp + 0x58] = a4\n  1029: t0 = 0x8\n  1032: a4 = u64 [a3]\n  1034: u64 [sp + 0x18] = a4\n  1037: a4 = u64 [a3 + 0x8]\n  1040: u64 [sp + 0x20] = a4\n  1043: a4 = u64 [a3 + 0x10]\n  1046: u64 [sp + 0x28] = a4\n  1049: a3 = u64 [a3 + 0x18]\n  1052: u64 [sp + 0x30] = a3\n  1055: s1 = u64 [a2]\n  1057: a3 = u64 [a2 + 0x8]\n  1060: u64 [sp] = a3\n  1062: a3 = u64 [a2 + 0x10]\n  1065: u64 [sp + 0x8] = a3\n  1068: a2 = u64 [a2 + 0x18]\n  1071: u64 [sp + 0x10] = a2\n  1074: u64 [sp + 56] = 0\n  1077: ra = 0xa\n  1080: jump @13\n      : @11 [@dyn 4] (gas: 2)\n  1083: u64 [sp + 0x38] = a1\n  1086: ra = 10, jump @13\n      : @12 [@dyn 5] (gas: 46)\n  1091: a1 = reverse s1\n  1093: u64 [sp + 0x78] = a1\n  1096: a1 = u64 [sp]\n  1098: a1 = reverse a1\n  1100: u64 [sp + 0x70] = a1\n  1103: a1 = u64 [sp + 0x8]\n  1106: a1 = reverse a1\n  1108: u64 [sp + 0x68] = a1\n  1111: a1 = u64 [sp + 0x10]\n  1114: a1 = reverse a1\n  1116: u64 [sp + 0x60] = a1\n  1119: a1 = u64 [sp + 0x18]\n  1122: a1 = reverse a1\n  1124: u64 [sp + 0x98] = a1\n  1128: a1 = u64 [sp + 0x20]\n  1131: a1 = reverse a1\n  1133: u64 [sp + 0x90] = a1\n  1137: a1 = u64 [sp + 0x28]\n  1140: a1 = reverse a1\n  1142: u64 [sp + 0x88] = a1\n  1146: a1 = u64 [sp + 0x30]\n  1149: a1 = reverse a1\n  1151: u64 [sp + 0x80] = a1\n  1155: a1 = u64 [sp + 0x40]\n  1158: a1 = reverse a1\n  1160: u64 [sp + 0xb8] = a1\n  1164: a1 = u64 [sp + 0x48]\n  1167: a1 = reverse a1\n  1169: u64 [sp + 0xb0] = a1\n  1173: a1 = u64 [sp + 0x50]\n  1176: a1 = reverse a1\n  1178: u64 [sp + 0xa8] = a1\n  1182: a1 = u64 [sp + 0x58]\n  1185: a1 = reverse a1\n  1187: u64 [sp + 0xa0] = a1\n  1191: i32 a2 = a0 + 0\n  1193: a3 = i32 [sp + 0x38]\n  1196: i32 a0 = sp + 0x60\n  1199: a1 = 0x3\n  1202: ecalli 6 // 'deposit_event'\n  1204: sp = s0 + 0xffffffffffffff20\n  1208: ra = u64 [sp + 0xd8]\n  1212: s0 = u64 [sp + 0xd0]\n  1216: s1 = u64 [sp + 0xc8]\n  1220: sp = sp + 0xe0\n  1224: ret\n      : @13 (gas: 2)\n  1226: i32 a2 = a0 >> 0x10\n  1229: jump @18 if a2 != 0\n      : @14 (gas: 4)\n  1232: a1 = a1 + a0\n  1235: i32 a1 = a1 + 0x1f\n  1238: a1 = a1 & 0xffffffffffffffe0\n  1241: jump @18 if a1 >u 65536\n      : @15 (gas: 3)\n  1247: a2 = 0x201c4\n  1252: a3 = i32 [0x201c4]\n  1257: jump @17 if a3 >=u a1\n      : @16 (gas: 2)\n  1260: u32 [0x201c4] = a1\n  1265: fallthrough\n      : @17 (gas: 4)\n  1266: a1 = 0x201d0\n  1271: i32 a0 = a0 + 0\n  1273: a0 = a0 + a1\n  1276: ret\n      : @18 (gas: 1)\n  1278: trap\n      : @19 (gas: 6)\n  1279: sp = sp + 0xfffffffffffffff0\n  1282: u64 [sp + 0x8] = ra\n  1285: u64 [sp] = s0\n  1287: s0 = a0 & 0x1\n  1290: ecalli 4 // 'call_data_size'\n  1292: fallthrough\n      : @20 (gas: 2)\n  1293: u32 [0x201c0] = a0\n  1298: jump @22 if s0 == 0\n      : @21 (gas: 1)\n  1301: ra = 12, jump @23\n      : @22 [@dyn 6] (gas: 18)\n  1305: ra = 0xe\n  1308: sp = sp + 0xfffffffffffffe10\n  1312: u64 [sp + 0x1e8] = ra\n  1316: u64 [sp + 0x1e0] = s0\n  1320: u64 [sp + 0x1d8] = s1\n  1324: s0 = sp + 0x1f0\n  1328: sp = sp + 0xffffffffffffdc90\n  1332: sp = sp & 0xffffffffffffffe0\n  1335: s1 = sp\n  1337: a2 = s1 + 0x1878\n  1341: u64 [a2 + 960] = 0\n  1345: u64 [a2 + 952] = 0\n  1349: u64 [a2 + 936] = 0x80\n  1355: a0 = 0x40\n  1358: a1 = s1 + 0x1c20\n  1362: u64 [a2 + 944] = 0\n  1366: ra = 0x4a\n  1369: jump @4\n      : @23 [@dyn 7] (gas: 15)\n  1372: sp = sp + 0xfffffffffffffb20\n  1376: a0 = sp + 0x400\n  1380: u64 [a0 + 0xd8] = ra\n  1384: u64 [a0 + 0xd0] = s0\n  1388: u64 [a0 + 0xc8] = s1\n  1392: s0 = sp + 0x4e0\n  1396: sp = sp & 0xffffffffffffffe0\n  1399: s1 = sp\n  1401: u64 [s1 + 888] = 0\n  1405: u64 [s1 + 880] = 0\n  1409: u64 [s1 + 872] = 0\n  1413: u64 [s1 + 864] = 0\n  1417: i32 a0 = s1 + 0x360\n  1421: ecalli 15 // 'value_transferred'\n  1423: fallthrough\n      : @24 (gas: 9)\n  1424: a4 = s1 + 0x300\n  1428: a0 = u64 [a4 + 0x70]\n  1431: a1 = u64 [a4 + 0x78]\n  1434: a2 = u64 [a4 + 0x68]\n  1437: a3 = u64 [a4 + 0x60]\n  1440: a1 = a1 | a2\n  1443: a0 = a0 | a3\n  1446: a0 = a0 | a1\n  1449: jump @63 if a0 != 0\n      : @25 (gas: 17)\n  1453: a0 = i32 [0x201c0]\n  1458: u64 [s1 + 0xb8] = a0\n  1462: a0 = a0 << 0x20\n  1465: a0 = a0 >> 0x20\n  1468: a0 = a0 + 0x1f\n  1471: a0 = a0 & 0xffffffffffffffe0\n  1474: a1 = a0 + 0x80\n  1478: a0 = a1 <u a0\n  1481: a2 = s1 + 0x300\n  1485: u64 [a2 + 0x40] = a1\n  1488: u64 [a2 + 0x48] = a0\n  1491: a0 = 0 if a0 != 0\n  1493: u64 [a2 + 0x50] = a0\n  1496: a0 = 0x40\n  1499: a1 = s1 + 0x340\n  1503: u64 [s1 + 856] = 0\n  1507: ra = 16, jump @4\n      : @26 [@dyn 8] (gas: 3)\n  1512: a0 = 0x80\n  1516: a1 = u64 [s1 + 0xb8]\n  1520: ra = 18, jump @13\n      : @27 [@dyn 9] (gas: 5)\n  1525: i32 a0 = a0 + 0\n  1527: a1 = u64 [s1 + 0xb8]\n  1531: a2 = 0\n  1533: ecalli 2 // 'call_data_copy'\n  1535: fallthrough\n      : @28 (gas: 2)\n  1536: a1 = u64 [s1 + 0xb8]\n  1540: jump @64 if a1 <=u 95\n      : @29 (gas: 7)\n  1545: u64 [s1 + 792] = 0\n  1549: u64 [s1 + 784] = 0\n  1553: u64 [s1 + 768] = 0x80\n  1559: a0 = s1 + 0x320\n  1563: a1 = s1 + 0x300\n  1567: u64 [s1 + 776] = 0\n  1571: ra = 20, jump @760\n      : @30 [@dyn 10] (gas: 14)\n  1576: a1 = s1 + 0x300\n  1580: a0 = u64 [a1 + 0x30]\n  1583: u64 [s1 + 0x30] = a0\n  1586: a0 = u64 [a1 + 0x28]\n  1589: u64 [s1 + 0x28] = a0\n  1592: a0 = u64 [a1 + 0x20]\n  1595: u64 [s1 + 0x20] = a0\n  1598: u64 [s1 + 728] = 0\n  1602: u64 [s1 + 720] = 0\n  1606: u64 [s1 + 704] = 0xa0\n  1612: a0 = s1 + 0x2e0\n  1616: a1 = s1 + 0x2c0\n  1620: u64 [s1 + 712] = 0\n  1624: ra = 22, jump @760\n      : @31 [@dyn 11] (gas: 13)\n  1629: a0 = u64 [s1 + 0x2f0]\n  1633: u64 [s1 + 0x48] = a0\n  1636: a0 = u64 [s1 + 0x2e8]\n  1640: u64 [s1 + 0x40] = a0\n  1643: a0 = u64 [s1 + 0x2e0]\n  1647: u64 [s1 + 0x38] = a0\n  1650: a0 = sp + 0xffffffffffffffe0\n  1653: a0 = a0 & 0xffffffffffffffe0\n  1656: u64 [s1 + 0xa0] = a0\n  1660: sp = a0\n  1662: a0 = s1 + 0x2a0\n  1666: a1 = 0xc0\n  1670: ra = 24, jump @2\n      : @32 [@dyn 12] (gas: 20)\n  1675: a4 = s1 + 0x200\n  1679: a0 = u64 [a4 + 0xb0]\n  1683: a1 = u64 [a4 + 0xb8]\n  1687: a3 = u64 [a4 + 0xa0]\n  1691: a2 = u64 [a4 + 0xa8]\n  1695: u64 [s1 + 0x90] = a0\n  1699: a4 = u64 [s1 + 0xa0]\n  1703: u64 [a4 + 0x10] = a0\n  1706: u64 [s1 + 0x88] = a1\n  1710: u64 [a4 + 0x18] = a1\n  1713: u64 [s1 + 0x78] = a3\n  1716: u64 [a4] = a3\n  1718: u64 [s1 + 0x80] = a2\n  1722: u64 [a4 + 0x8] = a2\n  1725: a0 = 0x301d0\n  1730: u64 [s1 + 0xb8] = a0\n  1734: i32 a0 = a0 + 0\n  1736: u64 [s1 + 0xb0] = a0\n  1740: ecalli 5 // 'caller'\n  1742: fallthrough\n      : @33 (gas: 7)\n  1743: a2 = u64 [s1 + 0xb8]\n  1747: a0 = u32 [a2 + 0x10]\n  1750: a1 = u64 [a2]\n  1752: a2 = u64 [a2 + 0x8]\n  1755: a0 = a0 | a1\n  1758: a0 = a0 | a2\n  1761: jump @65 if a0 == 0\n      : @34 (gas: 7)\n  1765: u64 [s1 + 920] = 0\n  1769: u64 [s1 + 912] = 0\n  1773: u64 [s1 + 904] = 0\n  1777: u64 [s1 + 896] = 0\n  1781: a0 = s1 + 0x280\n  1785: a1 = s1 + 0x380\n  1789: ra = 26, jump @6\n      : @35 [@dyn 13] (gas: 14)\n  1794: a0 = u64 [s1 + 0x280]\n  1798: u64 [s1 + 0x70] = a0\n  1801: a0 = u64 [s1 + 0x288]\n  1805: u64 [s1 + 0x68] = a0\n  1808: a0 = u64 [s1 + 0x298]\n  1812: u64 [s1 + 0x98] = a0\n  1816: a0 = u64 [s1 + 0x290]\n  1820: u64 [s1 + 0xa8] = a0\n  1824: a0 = u64 [s1 + 0xb0]\n  1828: ra = 0x1c\n  1831: ecalli 5 // 'caller'\n  1833: a2 = u64 [s1 + 0xb8]\n  1837: t0 = 0x1e\n  1840: jump @933\n      : @36 [@dyn 14] (gas: 2)\n  1843: a2 = u64 [s1 + 0xb8]\n  1847: t0 = 30, jump @933\n      : @37 [@dyn 15] (gas: 22)\n  1852: a0 = a0 >> 0x20\n  1855: a2 = reverse a2\n  1857: a3 = a2 << 0x20\n  1860: a0 = a0 | a3\n  1863: a2 = a2 >> 0x20\n  1866: a3 = u64 [s1 + 0xa8]\n  1870: a3 = a3 >> 0x20\n  1873: a3 = a3 << 0x20\n  1876: a2 = a2 | a3\n  1879: u64 [s1 + 952] = 0\n  1883: u64 [s1 + 944] = 0\n  1887: u64 [s1 + 936] = 0\n  1891: u64 [s1 + 928] = 0\n  1895: a3 = u64 [s1 + 0x98]\n  1899: a4 = s1 + 0x300\n  1903: u64 [a4 + 0xd8] = a3\n  1907: u64 [a4 + 0xd0] = a2\n  1911: u64 [a4 + 0xc8] = a0\n  1915: u64 [a4 + 0xc0] = a1\n  1919: a0 = s1 + 0x3a0\n  1923: a1 = s1 + 0x3c0\n  1927: ra = 32, jump @7\n      : @38 [@dyn 16] (gas: 3)\n  1932: a0 = s1 + 0x260\n  1936: a1 = 0x40\n  1939: ra = 34, jump @2\n      : @39 [@dyn 17] (gas: 14)\n  1944: a0 = u64 [s1 + 0x278]\n  1948: u64 [s1 + 0x58] = a0\n  1951: a0 = u64 [s1 + 0x270]\n  1955: u64 [s1 + 0x50] = a0\n  1958: a0 = u64 [s1 + 0x268]\n  1962: u64 [s1 + 0x60] = a0\n  1965: a0 = u64 [s1 + 0x260]\n  1969: u64 [s1 + 0x98] = a0\n  1973: a0 = u64 [s1 + 0xb0]\n  1977: ra = 0x24\n  1980: ecalli 5 // 'caller'\n  1982: a2 = u64 [s1 + 0xb8]\n  1986: t0 = 0x26\n  1989: jump @926\n      : @40 [@dyn 18] (gas: 2)\n  1992: a2 = u64 [s1 + 0xb8]\n  1996: t0 = 38, jump @926\n      : @41 [@dyn 19] (gas: 34)\n  2001: t0 = a1 | a0\n  2004: a3 = a3 >> 0x20\n  2007: a2 = reverse a2\n  2009: a1 = a2 << 0x20\n  2012: a1 = a1 | a3\n  2015: a2 = a2 >> 0x20\n  2018: a3 = u64 [s1 + 0xa8]\n  2022: a3 = a3 << 0x20\n  2025: a3 = a3 >> 0x20\n  2028: u64 [s1 + 536] = 0\n  2032: u64 [s1 + 568] = 0\n  2036: u64 [s1 + 0x230] = a3\n  2040: a0 = u64 [s1 + 0x68]\n  2043: u64 [s1 + 0x228] = a0\n  2047: a0 = u64 [s1 + 0x70]\n  2050: u64 [s1 + 0x220] = a0\n  2054: a3 = u64 [0x20000]\n  2059: a4 = u64 [0x20008]\n  2064: a5 = u64 [0x20010]\n  2069: a0 = u64 [0x20018]\n  2074: u64 [s1 + 0x258] = a3\n  2078: a3 = s1 + 0x200\n  2082: u64 [a3 + 0x50] = a4\n  2085: u64 [a3 + 0x48] = a5\n  2088: u64 [a3 + 0x40] = a0\n  2091: u64 [a3 + 0x10] = a2\n  2094: u64 [a3 + 0x8] = a1\n  2097: a2 = s1 + 0x240\n  2101: a3 = s1 + 0x220\n  2105: a4 = s1 + 0x200\n  2109: u64 [s1 + 0x200] = t0\n  2113: a0 = 0\n  2115: a1 = 0\n  2117: ra = 40, jump @10\n      : @42 [@dyn 20] (gas: 14)\n  2122: a2 = u64 [s1 + 0x80]\n  2126: a0 = a2 >u 0\n  2128: a1 = u64 [s1 + 0x78]\n  2131: a1 = a1 <u 0x65\n  2134: a1 = a1 ^ 0x1\n  2137: a1 = a0 if a2 != 0\n  2140: a3 = u64 [s1 + 0x90]\n  2144: a0 = a3 >u 0\n  2146: a4 = u64 [s1 + 0x88]\n  2150: a2 = a4 >u 0\n  2152: a2 = a0 if a4 == 0\n  2155: a0 = a3 | a4\n  2158: a2 = a1 if a0 == 0\n  2161: jump @55 if a2 == 0\n      : @43 (gas: 12)\n  2165: a0 = u64 [s1 + 0x98]\n  2169: a3 = u64 [s1 + 0x50]\n  2172: a0 = a0 | a3\n  2175: a1 = u64 [s1 + 0x60]\n  2178: a2 = u64 [s1 + 0x58]\n  2181: a1 = a1 | a2\n  2184: a0 = a0 | a1\n  2187: a0 = a0 >> 0x20\n  2190: a1 = a1 | a3\n  2193: a1 = a1 << 0x20\n  2196: a0 = a0 | a1\n  2199: jump @62 if a0 != 0\n      : @44 (gas: 8)\n  2203: u64 [s1 + 400] = 0\n  2207: u64 [s1 + 392] = 0\n  2211: u64 [s1 + 384] = 0\n  2215: a0 = 0x8c379a000000000\n  2225: a1 = s1 + 0x180\n  2229: u64 [s1 + 0x198] = a0\n  2233: a0 = u64 [s1 + 0x98]\n  2237: ra = 42, jump @4\n      : @45 [@dyn 21] (gas: 11)\n  2242: a0 = u64 [s1 + 0x58]\n  2245: a1 = u64 [s1 + 0x50]\n  2248: a2 = a1 | a0\n  2251: a3 = 0x100000000\n  2261: a0 = 0xfffffffc\n  2271: a1 = u64 [s1 + 0x98]\n  2275: a0 = a1 <u a0\n  2278: a1 = u64 [s1 + 0x60]\n  2281: a0 = 0 if a1 != 0\n  2283: a0 = 0 if a2 != 0\n  2285: jump @62 if a0 == 0\n      : @46 (gas: 10)\n  2289: a0 = u64 [s1 + 0x98]\n  2293: i32 a0 = a0 + 0x4\n  2296: u64 [s1 + 376] = 0\n  2300: u64 [s1 + 368] = 0\n  2304: u64 [s1 + 352] = 0x20\n  2309: a1 = s1 + 0x160\n  2313: u64 [s1 + 360] = 0\n  2317: u64 [s1 + 0xb8] = a2\n  2321: u64 [s1 + 0xb0] = a3\n  2325: ra = 44, jump @4\n      : @47 [@dyn 22] (gas: 9)\n  2330: a0 = u64 [s1 + 0xb0]\n  2334: a0 = a0 + 0xffffffffffffffdc\n  2337: a1 = u64 [s1 + 0x98]\n  2341: a0 = a1 <u a0\n  2344: a1 = u64 [s1 + 0x60]\n  2347: a0 = 0 if a1 != 0\n  2349: a1 = u64 [s1 + 0xb8]\n  2353: a0 = 0 if a1 != 0\n  2355: jump @62 if a0 == 0\n      : @48 (gas: 8)\n  2359: a0 = u64 [s1 + 0x98]\n  2363: i32 a0 = a0 + 0x24\n  2366: u64 [s1 + 344] = 0\n  2370: u64 [s1 + 336] = 0\n  2374: u64 [s1 + 320] = 0x21\n  2379: a1 = s1 + 0x140\n  2383: u64 [s1 + 328] = 0\n  2387: ra = 46, jump @4\n      : @49 [@dyn 23] (gas: 9)\n  2392: a2 = u64 [s1 + 0xb8]\n  2396: a3 = 0x100000000\n  2406: a0 = 0xffffffbc\n  2416: a1 = u64 [s1 + 0x98]\n  2420: a0 = a1 <u a0\n  2423: a1 = u64 [s1 + 0x60]\n  2426: a0 = 0 if a1 != 0\n  2428: a0 = 0 if a2 != 0\n  2430: jump @62 if a0 == 0\n      : @50 (gas: 14)\n  2434: a0 = u64 [s1 + 0x98]\n  2438: i32 a0 = a0 + 0x44\n  2441: a1 = u64 [0x20020]\n  2446: a4 = s1 + 0x100\n  2450: u64 [a4 + 0x38] = a1\n  2453: a1 = u64 [0x20028]\n  2458: a2 = u64 [0x20030]\n  2463: u64 [s1 + 0xb0] = a3\n  2467: a3 = u64 [0x20038]\n  2472: u64 [a4 + 0x30] = a1\n  2475: u64 [a4 + 0x28] = a2\n  2478: a1 = s1 + 0x120\n  2482: u64 [a4 + 0x20] = a3\n  2485: ra = 48, jump @4\n      : @51 [@dyn 24] (gas: 9)\n  2490: a0 = u64 [s1 + 0xb0]\n  2494: a0 = a0 + 0xffffffffffffff9c\n  2497: a1 = u64 [s1 + 0x98]\n  2501: a0 = a1 <u a0\n  2504: a1 = u64 [s1 + 0x60]\n  2507: a0 = 0 if a1 != 0\n  2509: a1 = u64 [s1 + 0xb8]\n  2513: a0 = 0 if a1 != 0\n  2515: jump @62 if a0 == 0\n      : @52 (gas: 9)\n  2519: a0 = u64 [s1 + 0x98]\n  2523: i32 a0 = a0 + 0x64\n  2526: u64 [s1 + 272] = 0\n  2530: u64 [s1 + 264] = 0\n  2534: a1 = 0x3000000000000000\n  2544: u64 [s1 + 0x118] = a1\n  2548: a1 = s1 + 0x100\n  2552: u64 [s1 + 256] = 0\n  2556: ra = 50, jump @4\n      : @53 [@dyn 25] (gas: 3)\n  2561: a1 = 0x84\n  2565: a0 = u64 [s1 + 0x98]\n  2569: ra = 52, jump @13\n      : @54 [@dyn 26] (gas: 5)\n  2574: i32 a1 = a0 + 0\n  2576: a0 = 0x1\n  2579: a2 = 0x84\n  2583: ecalli 12 // 'seal_return'\n  2585: fallthrough\n      : @55 (gas: 20)\n  2586: a0 = 0xffffffff00000000\n  2596: u64 [s1 + 0xb8] = a0\n  2600: a2 = 0xffffffff\n  2610: u64 [s1 + 0xb0] = a2\n  2614: a0 = u64 [s1 + 0x20]\n  2617: a0 = a0 & 0xffffffffffffffff\n  2620: u64 [s1 + 0xa8] = a0\n  2624: a0 = u64 [s1 + 0x28]\n  2627: a0 = a0 & 0xffffffffffffffff\n  2630: u64 [s1 + 0x98] = a0\n  2634: a0 = u64 [s1 + 0x30]\n  2637: a0 = a0 & a2\n  2640: u64 [s1 + 0x90] = a0\n  2644: u64 [s1 + 1016] = 0\n  2648: u64 [s1 + 1008] = 0\n  2652: u64 [s1 + 1000] = 0\n  2656: u64 [s1 + 992] = 0x1\n  2661: a0 = s1 + 0x1e0\n  2665: a1 = s1 + 0x3e0\n  2669: ra = 54, jump @6\n      : @56 [@dyn 27] (gas: 20)\n  2674: a0 = u64 [s1 + 0x1f8]\n  2678: a1 = u64 [s1 + 0x1f0]\n  2682: a0 = a0 & 0xffffffffffffffff\n  2685: a2 = u64 [s1 + 0xb8]\n  2689: a1 = a1 & a2\n  2692: a2 = u64 [s1 + 0x90]\n  2696: a1 = a1 | a2\n  2699: u64 [s1 + 1048] = 0\n  2703: u64 [s1 + 1040] = 0\n  2707: u64 [s1 + 1032] = 0\n  2711: u64 [s1 + 1024] = 0x1\n  2716: a2 = u64 [s1 + 0x98]\n  2720: u64 [s1 + 0x428] = a2\n  2724: a2 = u64 [s1 + 0xa8]\n  2728: u64 [s1 + 0x420] = a2\n  2732: u64 [s1 + 0x438] = a0\n  2736: u64 [s1 + 0x430] = a1\n  2740: a0 = s1 + 0x400\n  2744: a1 = s1 + 0x420\n  2748: ra = 56, jump @7\n      : @57 [@dyn 28] (gas: 17)\n  2753: a0 = u64 [s1 + 0x38]\n  2756: a0 = a0 & 0xffffffffffffffff\n  2759: u64 [s1 + 0xa8] = a0\n  2763: a0 = u64 [s1 + 0x40]\n  2766: a0 = a0 & 0xffffffffffffffff\n  2769: u64 [s1 + 0x98] = a0\n  2773: a0 = u64 [s1 + 0x48]\n  2776: a1 = u64 [s1 + 0xb0]\n  2780: a0 = a0 & a1\n  2783: u64 [s1 + 0xb0] = a0\n  2787: u64 [s1 + 1112] = 0\n  2791: u64 [s1 + 1104] = 0\n  2795: u64 [s1 + 1096] = 0\n  2799: u64 [s1 + 1088] = 0x2\n  2804: a0 = s1 + 0x1c0\n  2808: a1 = s1 + 0x440\n  2812: ra = 58, jump @6\n      : @58 [@dyn 29] (gas: 20)\n  2817: a0 = u64 [s1 + 0x1d8]\n  2821: a1 = u64 [s1 + 0x1d0]\n  2825: a0 = a0 & 0xffffffffffffffff\n  2828: a2 = u64 [s1 + 0xb8]\n  2832: a1 = a1 & a2\n  2835: a2 = u64 [s1 + 0xb0]\n  2839: a1 = a1 | a2\n  2842: u64 [s1 + 1144] = 0\n  2846: u64 [s1 + 1136] = 0\n  2850: u64 [s1 + 1128] = 0\n  2854: u64 [s1 + 1120] = 0x2\n  2859: a2 = u64 [s1 + 0x98]\n  2863: u64 [s1 + 0x488] = a2\n  2867: a2 = u64 [s1 + 0xa8]\n  2871: u64 [s1 + 0x480] = a2\n  2875: u64 [s1 + 0x498] = a0\n  2879: u64 [s1 + 0x490] = a1\n  2883: a0 = s1 + 0x460\n  2887: a1 = s1 + 0x480\n  2891: ra = 60, jump @7\n      : @59 [@dyn 30] (gas: 7)\n  2896: u64 [s1 + 1208] = 0\n  2900: u64 [s1 + 1200] = 0\n  2904: u64 [s1 + 1192] = 0\n  2908: u64 [s1 + 1184] = 0x3\n  2913: a0 = s1 + 0x4a0\n  2917: a1 = u64 [s1 + 0xa0]\n  2921: ra = 62, jump @7\n      : @60 [@dyn 31] (gas: 3)\n  2926: a0 = s1 + 0x1a0\n  2930: a1 = 0x40\n  2933: ra = 64, jump @2\n      : @61 [@dyn 32] (gas: 13)\n  2938: a4 = s1 + 0x100\n  2942: a3 = u64 [a4 + 0xb8]\n  2946: a1 = u64 [a4 + 0xb0]\n  2950: a2 = u64 [a4 + 0xa8]\n  2954: a0 = u64 [a4 + 0xa0]\n  2958: a3 = a3 | a2\n  2961: a2 = a0 | a1\n  2964: a2 = a2 | a3\n  2967: a2 = a2 >> 0x20\n  2970: a1 = a1 | a3\n  2973: a1 = a1 << 0x20\n  2976: a1 = a1 | a2\n  2979: jump @70 if a1 == 0\n      : @62 (gas: 1)\n  2983: trap\n      : @63 (gas: 6)\n  2984: a1 = 0x201d0\n  2989: i32 a1 = a1 + 0\n  2991: a0 = 0x1\n  2994: a2 = 0\n  2996: ecalli 12 // 'seal_return'\n  2998: jump @65\n      : @64 (gas: 6)\n  3000: a1 = 0x201d0\n  3005: i32 a1 = a1 + 0\n  3007: a0 = 0x1\n  3010: a2 = 0\n  3012: ecalli 12 // 'seal_return'\n  3014: fallthrough\n      : @65 (gas: 8)\n  3015: u64 [s1 + 240] = 0\n  3019: u64 [s1 + 232] = 0\n  3023: u64 [s1 + 224] = 0\n  3027: a0 = 0x1e4fbdf700000000\n  3037: a1 = s1 + 0xe0\n  3041: u64 [s1 + 0xf8] = a0\n  3045: a0 = 0\n  3047: ra = 66, jump @4\n      : @66 [@dyn 33] (gas: 7)\n  3052: u64 [s1 + 216] = 0\n  3056: u64 [s1 + 208] = 0\n  3060: u64 [s1 + 200] = 0\n  3064: a0 = 0x4\n  3067: a1 = s1 + 0xc0\n  3071: u64 [s1 + 192] = 0\n  3075: ra = 68, jump @4\n      : @67 [@dyn 34] (gas: 2)\n  3080: a1 = i32 [0x201c4]\n  3085: jump @69 if a1 >u 63\n      : @68 (gas: 2)\n  3089: u32 [0x201c4] = 0x40\n  3095: fallthrough\n      : @69 (gas: 8)\n  3096: a1 = 0x201d0\n  3101: i32 a1 = a1 + 0\n  3103: a0 = 0x1\n  3106: a2 = 0x24\n  3109: ecalli 12 // 'seal_return'\n  3111: u64 [s1 + 0xb8] = a0\n  3115: ra = 0x46\n  3118: jump @13\n      : @70 (gas: 2)\n  3121: u64 [s1 + 0xb8] = a0\n  3125: ra = 70, jump @13\n      : @71 [@dyn 35] (gas: 5)\n  3130: i32 a0 = a0 + 0\n  3132: a1 = 0\n  3134: a2 = 0\n  3136: ecalli 2 // 'call_data_copy'\n  3138: jump @0\n      : @72 (gas: 3)\n  3141: a0 = u64 [s1 + 0xb8]\n  3145: a1 = 0\n  3147: ra = 72, jump @13\n      : @73 [@dyn 36] (gas: 5)\n  3152: i32 a1 = a0 + 0\n  3154: a0 = 0\n  3156: a2 = 0\n  3158: ecalli 12 // 'seal_return'\n  3160: jump @65\n      : @74 [@dyn 37] (gas: 4)\n  3163: a0 = 0x201c0\n  3168: u64 [s1 + 0xd8] = a0\n  3172: a0 = i32 [0x201c0]\n  3177: jump @76 if a0 >=u 4\n      : @75 (gas: 1)\n  3181: jump @718\n      : @76 (gas: 6)\n  3184: a0 = s1 + 0x2000\n  3188: i32 a0 = a0 + 0xfffffffffffffc40\n  3192: a1 = 0\n  3194: ra = 0x4c\n  3197: ecalli 3 // 'call_data_load'\n  3199: fallthrough\n      : @77 [@dyn 38] (gas: 3)\n  3200: a3 = s1 + 0x1878\n  3204: a0 = i32 [a3 + 0x3e4]\n  3208: jump @79 if a0 != 2357215170\n      : @78 (gas: 1)\n  3215: jump @333\n      : @79 (gas: 1)\n  3218: jump @184 if a0 == 2376452955\n      : @80 (gas: 2)\n  3226: a2 = s1 + 0x2078\n  3230: jump @82 if a0 != 2863441240\n      : @81 (gas: 1)\n  3237: jump @375\n      : @82 (gas: 1)\n  3240: jump @84 if a0 != 2876972169\n      : @83 (gas: 1)\n  3247: jump @243\n      : @84 (gas: 1)\n  3250: jump @86 if a0 != 2986437588\n      : @85 (gas: 1)\n  3257: jump @323\n      : @86 (gas: 1)\n  3260: jump @88 if a0 != 3049398615\n      : @87 (gas: 1)\n  3267: jump @300\n      : @88 (gas: 1)\n  3270: jump @128 if a0 == 3134496799\n      : @89 (gas: 1)\n  3278: jump @91 if a0 != 3741391937\n      : @90 (gas: 1)\n  3285: jump @231\n      : @91 (gas: 1)\n  3288: jump @195 if a0 == 3903314574\n      : @92 (gas: 1)\n  3296: jump @94 if a0 == 1628634670\n      : @93 (gas: 1)\n  3303: jump @273\n      : @94 (gas: 8)\n  3306: u64 [a3 + 1120] = 0\n  3310: u64 [a3 + 1112] = 0\n  3314: u64 [a3 + 1104] = 0\n  3318: u64 [a3 + 1096] = 0\n  3322: a0 = s1 + 0x2000\n  3326: i32 a0 = a0 + 0xfffffffffffffcc0\n  3330: ecalli 15 // 'value_transferred'\n  3332: fallthrough\n      : @95 (gas: 10)\n  3333: a3 = s1 + 0x1878\n  3337: a4 = a3 + 0x400\n  3341: a0 = u64 [a4 + 0x58]\n  3344: a1 = u64 [a4 + 0x60]\n  3347: a2 = u64 [a4 + 0x50]\n  3350: a3 = u64 [a4 + 0x48]\n  3353: a1 = a1 | a2\n  3356: a0 = a0 | a3\n  3359: a0 = a0 | a1\n  3362: jump @97 if a0 == 0\n      : @96 (gas: 1)\n  3365: jump @662\n      : @97 (gas: 3)\n  3368: a0 = u64 [s1 + 0xd8]\n  3372: a0 = i32 [a0]\n  3374: jump @99 if a0 >u 35\n      : @98 (gas: 1)\n  3378: jump @663\n      : @99 (gas: 26)\n  3381: a0 = s1 + 0x2000\n  3385: i32 a0 = a0 + 0xfffffffffffffce0\n  3389: a1 = 0x4\n  3392: ecalli 3 // 'call_data_load'\n  3394: a0 = s1 + 0x1878\n  3398: a5 = a0 + 0x400\n  3402: a1 = u64 [a5 + 0x80]\n  3406: a2 = u64 [a5 + 0x78]\n  3409: a3 = u64 [a5 + 0x70]\n  3412: a4 = u64 [a5 + 0x68]\n  3415: u64 [s1 + 0xd0] = a1\n  3419: u64 [s1 + 0xc0] = a3\n  3423: a0 = a3 | a1\n  3426: u64 [s1 + 0xc8] = a2\n  3430: u64 [s1 + 0xb8] = a4\n  3434: a1 = a4 | a2\n  3437: a0 = a0 | a1\n  3440: a0 = a0 >u 0\n  3442: u64 [s1 + 1784] = 0\n  3446: u64 [s1 + 1776] = 0\n  3450: u64 [s1 + 0x6e0] = a0\n  3454: a0 = s1 + 0x6e0\n  3458: u64 [s1 + 1768] = 0\n  3462: ra = 0x4e\n  3465: t0 = 0x2fa\n  3469: jump @941\n      : @100 [@dyn 39] (gas: 9)\n  3472: a0 = 0x301d0\n  3477: u64 [s1 + 0xd8] = a0\n  3481: i32 a0 = a0 + 0\n  3483: u64 [s1 + 0xb0] = a0\n  3487: ra = 0x50\n  3490: ecalli 5 // 'caller'\n  3492: a2 = u64 [s1 + 0xd8]\n  3496: t0 = 0x52\n  3499: jump @923\n      : @101 [@dyn 40] (gas: 2)\n  3502: a2 = u64 [s1 + 0xd8]\n  3506: t0 = 82, jump @923\n      : @102 [@dyn 41] (gas: 7)\n  3511: u64 [s1 + 1752] = 0\n  3515: u64 [s1 + 0x6d0] = a1\n  3519: u64 [s1 + 0x6c8] = a0\n  3523: a1 = s1 + 0x6c0\n  3527: u64 [s1 + 0x6c0] = a3\n  3531: a0 = 0\n  3533: ra = 84, jump @4\n      : @103 [@dyn 42] (gas: 7)\n  3538: u64 [s1 + 1720] = 0\n  3542: u64 [s1 + 1712] = 0\n  3546: u64 [s1 + 1696] = 0x4\n  3551: a0 = 0x20\n  3554: a1 = s1 + 0x6a0\n  3558: u64 [s1 + 1704] = 0\n  3562: ra = 86, jump @4\n      : @104 [@dyn 43] (gas: 3)\n  3567: a2 = 0x201c4\n  3572: a0 = i32 [0x201c4]\n  3577: jump @106 if a0 >u 63\n      : @105 (gas: 2)\n  3581: u32 [0x201c4] = 0x40\n  3587: fallthrough\n      : @106 (gas: 15)\n  3588: u64 [s1 + 0x98] = a2\n  3592: a0 = sp + 0xffffffffffffffe0\n  3595: a2 = a0 & 0xffffffffffffffe0\n  3598: u64 [s1 + 0xa8] = a2\n  3602: sp = a2\n  3604: a0 = 0x201d0\n  3609: i32 a0 = a0 + 0\n  3611: i32 a2 = a2 + 0\n  3613: a1 = 0x40\n  3616: u64 [s1 + 0xa0] = a0\n  3620: ra = 0x58\n  3623: ecalli 8 // 'hash_keccak_256'\n  3625: a3 = u64 [s1 + 0xa8]\n  3629: t0 = 0x5a\n  3632: jump @927\n      : @107 [@dyn 44] (gas: 2)\n  3635: a3 = u64 [s1 + 0xa8]\n  3639: t0 = 90, jump @927\n      : @108 [@dyn 45] (gas: 7)\n  3644: u64 [a5 + 0xa0] = a3\n  3648: u64 [a5 + 0x98] = a2\n  3652: u64 [a5 + 0x90] = a1\n  3656: u64 [a5 + 0x88] = a0\n  3660: a0 = s1 + 0x680\n  3664: a1 = s1 + 0x1d00\n  3668: ra = 92, jump @6\n      : @109 [@dyn 46] (gas: 21)\n  3673: a1 = s1 + 0x600\n  3677: a0 = u64 [a1 + 0x98]\n  3681: t0 = u64 [s1 + 0x680]\n  3685: a2 = u64 [a1 + 0x90]\n  3689: a3 = u64 [a1 + 0x88]\n  3693: a5 = u64 [s1 + 0xd0]\n  3697: a4 = a0 ^ a5\n  3700: a1 = a0 <u a5\n  3703: a0 = u64 [s1 + 0xc8]\n  3707: a5 = a2 <u a0\n  3710: a5 = a1 if a4 != 0\n  3713: a1 = u64 [s1 + 0xc0]\n  3717: t1 = a3 ^ a1\n  3720: a3 = a3 <u a1\n  3723: a1 = u64 [s1 + 0xb8]\n  3727: a1 = t0 <u a1\n  3730: a1 = a3 if t1 != 0\n  3733: a0 = a0 ^ a2\n  3736: a0 = a0 | a4\n  3739: a1 = a5 if a0 != 0\n  3742: jump @111 if a1 != 0\n      : @110 (gas: 1)\n  3745: jump @403\n      : @111 (gas: 3)\n  3748: a0 = s1 + 0x1e0\n  3752: a1 = 0x40\n  3755: ra = 94, jump @2\n      : @112 [@dyn 47] (gas: 6)\n  3760: a1 = s1 + 0x100\n  3764: a4 = u64 [a1 + 0xf8]\n  3768: a5 = u64 [a1 + 0xf0]\n  3772: a3 = u64 [a1 + 0xe8]\n  3776: a0 = u64 [a1 + 0xe0]\n  3780: t0 = 96, jump @939\n      : @113 [@dyn 48] (gas: 1)\n  3785: jump @115 if a1 == 0\n      : @114 (gas: 1)\n  3788: jump @385\n      : @115 (gas: 11)\n  3791: u64 [s1 + 464] = 0\n  3795: u64 [s1 + 456] = 0\n  3799: u64 [s1 + 448] = 0\n  3803: a2 = 0x8c379a000000000\n  3813: a1 = s1 + 0x1c0\n  3817: u64 [s1 + 0x1d8] = a2\n  3821: u64 [s1 + 0xd8] = a0\n  3825: u64 [s1 + 0xd0] = a3\n  3829: u64 [s1 + 0xc8] = a4\n  3833: u64 [s1 + 0xc0] = a5\n  3837: ra = 98, jump @4\n      : @116 [@dyn 49] (gas: 5)\n  3842: a1 = u64 [s1 + 0xd8]\n  3846: a0 = u64 [s1 + 0xc8]\n  3850: a3 = u64 [s1 + 0xc0]\n  3854: a3 = a3 | a0\n  3857: t0 = 100, jump @925\n      : @117 [@dyn 50] (gas: 1)\n  3862: jump @119 if a0 != 0\n      : @118 (gas: 1)\n  3865: jump @385\n      : @119 (gas: 9)\n  3868: i32 a0 = a1 + 0x4\n  3871: u64 [s1 + 440] = 0\n  3875: u64 [s1 + 432] = 0\n  3879: u64 [s1 + 416] = 0x20\n  3884: a1 = s1 + 0x1a0\n  3888: u64 [s1 + 424] = 0\n  3892: u64 [s1 + 0xc8] = a3\n  3896: u64 [s1 + 0xc0] = a4\n  3900: ra = 102, jump @4\n      : @120 [@dyn 51] (gas: 1)\n  3905: t0 = 104, jump @931\n      : @121 [@dyn 52] (gas: 1)\n  3910: jump @123 if a0 != 0\n      : @122 (gas: 1)\n  3913: jump @385\n      : @123 (gas: 7)\n  3916: i32 a0 = a1 + 0x24\n  3919: u64 [s1 + 408] = 0\n  3923: u64 [s1 + 400] = 0\n  3927: u64 [s1 + 384] = 0x17\n  3932: a1 = s1 + 0x180\n  3936: u64 [s1 + 392] = 0\n  3940: ra = 106, jump @4\n      : @124 [@dyn 53] (gas: 4)\n  3945: a2 = u64 [s1 + 0xd8]\n  3949: a0 = 0xffffffbc\n  3959: a0 = a2 <u a0\n  3962: t0 = 108, jump @935\n      : @125 [@dyn 54] (gas: 1)\n  3967: jump @127 if a0 != 0\n      : @126 (gas: 1)\n  3970: jump @385\n      : @127 (gas: 12)\n  3973: i32 a0 = a2 + 0x44\n  3976: a1 = u64 [0x20178]\n  3981: a2 = u64 [0x20180]\n  3986: a3 = u64 [0x20188]\n  3991: a4 = s1 + 0x100\n  3995: u64 [a4 + 0x78] = a1\n  3998: u64 [a4 + 0x70] = a2\n  4001: u64 [a4 + 0x68] = a3\n  4004: a1 = s1 + 0x160\n  4008: u64 [s1 + 352] = 0\n  4012: ra = 0x236\n  4016: jump @4\n      : @128 (gas: 9)\n  4019: u64 [a2 + 672] = 0\n  4023: u64 [a2 + 664] = 0\n  4027: u64 [a2 + 656] = 0\n  4031: u64 [a2 + 648] = 0\n  4035: a0 = s1 + 0x2000\n  4039: i32 a0 = a0 + 0x300\n  4043: ra = 0x6e\n  4046: ecalli 15 // 'value_transferred'\n  4048: fallthrough\n      : @129 [@dyn 55] (gas: 3)\n  4049: a3 = s1 + 0x2078\n  4053: a4 = a3 + 0x200\n  4057: t0 = 112, jump @953\n      : @130 [@dyn 56] (gas: 1)\n  4062: jump @132 if a0 == 0\n      : @131 (gas: 1)\n  4065: jump @664\n      : @132 (gas: 3)\n  4068: a0 = u64 [s1 + 0xd8]\n  4072: a0 = i32 [a0]\n  4074: jump @134 if a0 >u 35\n      : @133 (gas: 1)\n  4078: jump @665\n      : @134 (gas: 27)\n  4081: a0 = s1 + 0x2000\n  4085: i32 a0 = a0 + 0x320\n  4089: a1 = 0x4\n  4092: ecalli 3 // 'call_data_load'\n  4094: a0 = s1 + 0x2078\n  4098: a5 = a0 + 0x200\n  4102: a1 = u64 [a5 + 0xc0]\n  4106: a2 = u64 [a5 + 0xb8]\n  4110: a3 = u64 [a5 + 0xb0]\n  4114: a4 = u64 [a5 + 0xa8]\n  4118: u64 [s1 + 0xc8] = a1\n  4122: u64 [s1 + 0xb8] = a3\n  4126: a0 = a3 | a1\n  4129: u64 [s1 + 0xc0] = a2\n  4133: u64 [s1 + 0xb0] = a4\n  4137: a1 = a4 | a2\n  4140: a0 = a0 | a1\n  4143: a0 = a0 >u 0\n  4145: a1 = s1 + 0x1878\n  4149: u64 [a1 + 128] = 0\n  4153: u64 [a1 + 120] = 0\n  4156: u64 [a1 + 0x68] = a0\n  4159: a0 = s1 + 0x18e0\n  4163: u64 [a1 + 112] = 0\n  4166: ra = 0x72\n  4169: t0 = 0x2fa\n  4173: jump @941\n      : @135 [@dyn 57] (gas: 9)\n  4176: a0 = 0x301d0\n  4181: u64 [s1 + 0xd8] = a0\n  4185: i32 a0 = a0 + 0\n  4187: u64 [s1 + 0xa8] = a0\n  4191: ra = 0x74\n  4194: ecalli 5 // 'caller'\n  4196: a2 = u64 [s1 + 0xd8]\n  4200: t0 = 0x76\n  4203: jump @923\n      : @136 [@dyn 58] (gas: 2)\n  4206: a2 = u64 [s1 + 0xd8]\n  4210: t0 = 118, jump @923\n      : @137 [@dyn 59] (gas: 8)\n  4215: a2 = s1 + 0x1878\n  4219: u64 [a2 + 96] = 0\n  4222: u64 [a2 + 0x58] = a1\n  4225: u64 [a2 + 0x50] = a0\n  4228: a1 = s1 + 0x18c0\n  4232: u64 [a2 + 0x48] = a3\n  4235: a0 = 0\n  4237: ra = 120, jump @4\n      : @138 [@dyn 60] (gas: 3)\n  4242: t0 = 0x7a\n  4245: a1 = s1 + 0x1878\n  4249: fallthrough\n      : @139 [@dyn 61] (gas: 8)\n  4250: u64 [a1 + 64] = 0\n  4253: u64 [a1 + 56] = 0\n  4256: u64 [a1 + 40] = 0x4\n  4260: a2 = a1\n  4262: a0 = 0x20\n  4265: a1 = s1 + 0x18a0\n  4269: u64 [a2 + 48] = 0\n  4272: ra = 124, jump @4\n      : @140 [@dyn 62] (gas: 7)\n  4277: a0 = sp + 0xffffffffffffffe0\n  4280: a0 = a0 & 0xffffffffffffffe0\n  4283: u64 [s1 + 0xd0] = a0\n  4287: sp = a0\n  4289: a2 = 0x201c4\n  4294: a0 = i32 [0x201c4]\n  4299: jump @142 if a0 >u 63\n      : @141 (gas: 2)\n  4303: u32 [0x201c4] = 0x40\n  4309: fallthrough\n      : @142 (gas: 15)\n  4310: u64 [s1 + 0x98] = a2\n  4314: a0 = sp + 0xffffffffffffffe0\n  4317: a2 = a0 & 0xffffffffffffffe0\n  4320: u64 [s1 + 0xa0] = a2\n  4324: sp = a2\n  4326: a0 = 0x201d0\n  4331: i32 a0 = a0 + 0\n  4333: i32 a2 = a2 + 0\n  4335: a1 = 0x40\n  4338: u64 [s1 + 0x68] = a0\n  4341: ra = 0x7e\n  4344: ecalli 8 // 'hash_keccak_256'\n  4346: a3 = u64 [s1 + 0xa0]\n  4350: t0 = 0x80\n  4354: jump @946\n      : @143 [@dyn 63] (gas: 2)\n  4357: a3 = u64 [s1 + 0xa0]\n  4361: t0 = 128, jump @946\n      : @144 [@dyn 64] (gas: 7)\n  4367: a1 = u64 [s1 + 0xd0]\n  4371: u64 [a1 + 0x18] = a3\n  4374: u64 [a1 + 0x10] = a2\n  4377: u64 [a1 + 0x8] = a4\n  4380: u64 [a1] = a0\n  4382: a0 = s1 + 0x1880\n  4386: ra = 130, jump @6\n      : @145 [@dyn 65] (gas: 2)\n  4392: a1 = s1 + 0x1878\n  4396: fallthrough\n      : @146 (gas: 37)\n  4397: t2 = u64 [a1 + 0x20]\n  4400: a0 = u64 [a1 + 0x18]\n  4403: a4 = u64 [a1 + 0x8]\n  4406: a5 = u64 [a1 + 0x10]\n  4409: a1 = sp + 0xffffffffffffffe0\n  4412: a1 = a1 & 0xffffffffffffffe0\n  4415: sp = a1\n  4417: a3 = u64 [s1 + 0xb8]\n  4421: a3 = a3 + a5\n  4424: t0 = u64 [s1 + 0xb0]\n  4428: t0 = t0 + a4\n  4431: a4 = t0 <u a4\n  4434: a3 = a3 + a4\n  4437: t1 = a3 ^ a5\n  4440: a2 = a3 <u a5\n  4443: a2 = a4 if t1 == 0\n  4446: a4 = u64 [s1 + 0xc0]\n  4450: a4 = a4 + a0\n  4453: a5 = a4 + a2\n  4456: t1 = a5 <u a4\n  4459: ra = u64 [s1 + 0xc8]\n  4463: ra = ra + t2\n  4466: a4 = a4 <u a0\n  4469: a4 = a4 + ra\n  4472: ra = a4 + t1\n  4475: t1 = a5 <u a0\n  4478: a4 = t2 ^ ra\n  4481: t2 = ra <u t2\n  4484: t2 = t1 if a4 == 0\n  4487: a0 = a0 ^ a5\n  4490: a0 = a0 | a4\n  4493: t2 = a2 if a0 == 0\n  4496: u64 [a1 + 0x10] = a5\n  4499: u64 [a1 + 0x8] = a3\n  4502: u64 [a1] = t0\n  4504: u64 [a1 + 0x18] = ra\n  4507: jump @148 if t2 == 0\n      : @147 (gas: 1)\n  4510: jump @666\n      : @148 (gas: 2)\n  4513: a0 = u64 [s1 + 0xd0]\n  4517: ra = 132, jump @7\n      : @149 [@dyn 66] (gas: 8)\n  4523: a1 = s1 + 0x2078\n  4527: u64 [a1 + 736] = 0\n  4531: u64 [a1 + 728] = 0\n  4535: u64 [a1 + 720] = 0\n  4539: u64 [a1 + 712] = 0x1\n  4544: a0 = s1 + 0x1860\n  4548: a1 = s1 + 0x2340\n  4552: ra = 134, jump @6\n      : @150 [@dyn 67] (gas: 3)\n  4558: t0 = 0x88\n  4562: a1 = s1 + 0x1878\n  4566: fallthrough\n      : @151 [@dyn 68] (gas: 10)\n  4567: a2 = a1 + 0xffffffffffffff00\n  4571: a0 = u64 [a2 + 0xf8]\n  4575: u64 [s1 + 0x80] = a0\n  4579: a0 = u64 [a2 + 0xf0]\n  4583: u64 [s1 + 0x78] = a0\n  4586: a0 = u64 [a2 + 0xe8]\n  4590: u64 [s1 + 0x88] = a0\n  4594: a0 = s1 + 0x1840\n  4598: a1 = 0x40\n  4601: ra = 138, jump @2\n      : @152 [@dyn 69] (gas: 14)\n  4607: a2 = s1 + 0x1078\n  4611: t0 = u64 [a2 + 0x7e0]\n  4615: a1 = a2 + 0x700\n  4619: a5 = u64 [a1 + 0xd8]\n  4623: a4 = u64 [a1 + 0xd0]\n  4627: a0 = u64 [a1 + 0xc8]\n  4631: a3 = a4 | t0\n  4634: a1 = a0 | a5\n  4637: a1 = a1 | a3\n  4640: a1 = a1 >> 0x20\n  4643: a3 = a3 | a5\n  4646: a3 = a3 << 0x20\n  4649: a1 = a1 | a3\n  4652: jump @154 if a1 == 0\n      : @153 (gas: 1)\n  4655: jump @385\n      : @154 (gas: 11)\n  4658: u64 [a2 + 1976] = 0\n  4662: u64 [a2 + 1968] = 0\n  4666: u64 [a2 + 1960] = 0\n  4670: a3 = 0x23b872dd00000000\n  4680: a1 = s1 + 0x1820\n  4684: u64 [a2 + 0x7c0] = a3\n  4688: u64 [s1 + 0xd0] = a0\n  4692: u64 [s1 + 0xa0] = a4\n  4696: u64 [s1 + 0x98] = a5\n  4700: u64 [s1 + 0x90] = t0\n  4704: ra = 140, jump @4\n      : @155 [@dyn 70] (gas: 6)\n  4710: a0 = u64 [s1 + 0xa8]\n  4714: ra = 0x8e\n  4718: ecalli 0 // 'address'\n  4719: a2 = u64 [s1 + 0xd8]\n  4723: t0 = 0x90\n  4727: jump @933\n      : @156 [@dyn 71] (gas: 2)\n  4730: a2 = u64 [s1 + 0xd8]\n  4734: t0 = 144, jump @933\n      : @157 [@dyn 72] (gas: 14)\n  4740: u64 [s1 + 0x70] = a1\n  4743: a0 = a0 >> 0x20\n  4746: a1 = reverse a2\n  4748: a2 = a1 << 0x20\n  4751: a0 = a0 | a2\n  4754: u64 [s1 + 0x60] = a0\n  4757: a1 = a1 >> 0x20\n  4760: u64 [s1 + 0x58] = a1\n  4763: a0 = u64 [s1 + 0xa8]\n  4767: ra = 0x92\n  4771: ecalli 5 // 'caller'\n  4773: a2 = u64 [s1 + 0xd8]\n  4777: t0 = 0x94\n  4781: jump @926\n      : @158 [@dyn 73] (gas: 2)\n  4784: a2 = u64 [s1 + 0xd8]\n  4788: t0 = 148, jump @926\n      : @159 [@dyn 74] (gas: 50)\n  4794: t0 = a1 | a0\n  4797: a3 = a3 >> 0x20\n  4800: a2 = reverse a2\n  4802: a1 = a2 << 0x20\n  4805: t1 = a1 | a3\n  4808: t2 = a2 >> 0x20\n  4811: a0 = u64 [s1 + 0xd0]\n  4815: a3 = a0 + 0x4\n  4818: a5 = a3 <u a0\n  4821: a0 = u64 [s1 + 0xa0]\n  4825: a4 = a0 + a5\n  4828: a0 = a4 <u a0\n  4831: a0 = a5 if a5 == 0\n  4834: a1 = u64 [s1 + 0x98]\n  4838: a0 = a0 + a1\n  4841: a5 = a0 <u a1\n  4844: a1 = u64 [s1 + 0x90]\n  4848: a5 = a5 + a1\n  4851: a1 = s1 + 0x1078\n  4855: a2 = u64 [s1 + 0x58]\n  4858: u64 [a1 + 0x738] = a2\n  4862: a2 = u64 [s1 + 0x60]\n  4865: u64 [a1 + 0x730] = a2\n  4869: a2 = u64 [s1 + 0x70]\n  4872: u64 [a1 + 0x728] = a2\n  4876: a2 = a1 + 0x700\n  4880: u64 [a2 + 0x80] = a5\n  4884: u64 [a2 + 0x78] = a0\n  4887: a0 = u64 [s1 + 0xc8]\n  4891: u64 [a2 + 0x20] = a0\n  4894: a0 = u64 [s1 + 0xc0]\n  4898: u64 [a2 + 0x18] = a0\n  4901: a0 = u64 [s1 + 0xb8]\n  4905: u64 [a2 + 0x10] = a0\n  4908: a0 = u64 [s1 + 0xb0]\n  4912: u64 [a2 + 0x8] = a0\n  4915: u64 [a1 + 1856] = 0\n  4919: u64 [a2 + 0x70] = a4\n  4922: u64 [a2 + 0x68] = a3\n  4925: u64 [a1 + 0x758] = t2\n  4929: u64 [a1 + 0x750] = t1\n  4933: u64 [a1 + 0x748] = t0\n  4937: a5 = a1\n  4939: a0 = s1 + 0x1800\n  4943: a1 = s1 + 0x17e0\n  4947: a2 = s1 + 0x17c0\n  4951: a3 = s1 + 0x17a0\n  4955: a4 = s1 + 0x1780\n  4959: u64 [a5 + 1888] = 0\n  4963: ra = 150, jump @854\n      : @160 [@dyn 75] (gas: 17)\n  4969: a1 = s1 + 0x1078\n  4973: a0 = u64 [a1 + 0x790]\n  4977: t0 = u64 [a1 + 0x7a0]\n  4981: t1 = u64 [a1 + 0x788]\n  4985: a3 = u64 [a1 + 0x798]\n  4989: a1 = u64 [s1 + 0xa0]\n  4993: a4 = a0 ^ a1\n  4996: a5 = a0 <u a1\n  4999: ra = u64 [s1 + 0xd0]\n  5003: t2 = t1 <u ra\n  5006: a5 = t2 if a4 == 0\n  5009: a2 = u64 [s1 + 0x98]\n  5013: a4 = a3 - a2\n  5016: a3 = a3 <u a2\n  5019: a2 = u64 [s1 + 0x90]\n  5023: a2 = t0 - a2\n  5026: t0 = 152, jump @942\n      : @161 [@dyn 76] (gas: 4)\n  5032: u64 [s1 + 0x70] = a0\n  5035: ra = 0x9a\n  5039: ecalli 9 // 'ref_time_left'\n  5041: fallthrough\n      : @162 [@dyn 77] (gas: 14)\n  5042: a0 = u64 [s1 + 0x78]\n  5045: a0 = reverse a0\n  5047: a1 = a0 << 0x20\n  5050: a2 = u64 [s1 + 0x80]\n  5054: a2 = reverse a2\n  5056: a2 = a2 >> 0x20\n  5059: a1 = a1 | a2\n  5062: a2 = u64 [s1 + 0x88]\n  5066: a2 = reverse a2\n  5068: a3 = a2 << 0x20\n  5071: a0 = a0 >> 0x20\n  5074: a0 = a0 | a3\n  5077: a3 = u64 [s1 + 0xd8]\n  5081: t0 = 156, jump @938\n      : @163 [@dyn 78] (gas: 17)\n  5087: u64 [a2 + 768] = 0\n  5091: u64 [a2 + 760] = 0\n  5095: u64 [a2 + 752] = 0\n  5099: a0 = u64 [s1 + 0x70]\n  5102: t0 = a0\n  5104: a5 = u64 [s1 + 0x58]\n  5107: a0 = a0 | a5\n  5110: a1 = u64 [s1 + 0x60]\n  5113: a4 = u64 [s1 + 0x50]\n  5116: a1 = a1 | a4\n  5119: a0 = a0 | a1\n  5122: a0 = a0 >> 0x20\n  5125: a1 = a1 | a5\n  5128: a1 = a1 << 0x20\n  5131: a0 = a0 | a1\n  5134: u64 [a2 + 744] = 0\n  5138: jump @165 if a0 == 0\n      : @164 (gas: 1)\n  5141: jump @385\n      : @165 (gas: 3)\n  5144: a0 = u64 [s1 + 0xd0]\n  5148: a1 = t0\n  5150: ra = 158, jump @13\n      : @166 [@dyn 79] (gas: 4)\n  5156: u64 [s1 + 0x88] = a0\n  5160: a1 = 0x20\n  5163: a0 = u64 [s1 + 0xd0]\n  5167: ra = 160, jump @13\n      : @167 [@dyn 80] (gas: 34)\n  5173: a2 = s1 + 0x2078\n  5177: a3 = a2 + 0x300\n  5181: u32 [a3 + 8] = 0x20\n  5185: u64 [a3 + 64] = 0xffffffffffffffff\n  5189: u64 [a3 + 56] = 0xffffffffffffffff\n  5193: u64 [a3 + 48] = 0xffffffffffffffff\n  5197: u64 [a3 + 40] = 0xffffffffffffffff\n  5201: a1 = u64 [s1 + 0xd8]\n  5205: a1 = a1 << 0x20\n  5208: a1 = a1 >> 0x20\n  5211: a2 = 0x800000000\n  5221: t0 = a1 | a2\n  5224: a1 = s1 + 0x2360\n  5228: a1 = a1 << 0x20\n  5231: a1 = a1 >> 0x20\n  5234: a2 = s1 + 0x23a0\n  5238: a2 = a2 << 0x20\n  5241: a3 = a2 | a1\n  5244: a1 = u64 [s1 + 0x88]\n  5248: a1 = a1 << 0x20\n  5251: a1 = a1 >> 0x20\n  5254: a4 = u64 [s1 + 0x70]\n  5257: a4 = a4 << 0x20\n  5260: a4 = a4 | a1\n  5263: a0 = a0 << 0x20\n  5266: a0 = a0 >> 0x20\n  5269: a1 = s1 + 0x2380\n  5273: a1 = a1 << 0x20\n  5276: a5 = a1 | a0\n  5279: a1 = 0xffffffffffffffff\n  5282: a2 = 0xffffffffffffffff\n  5285: a0 = t0\n  5287: ecalli 1 // 'call'\n  5289: fallthrough\n      : @168 (gas: 1)\n  5290: jump @170 if a0 == 0\n      : @169 (gas: 1)\n  5293: jump @521\n      : @170 (gas: 2)\n  5296: ecalli 11 // 'return_data_size'\n  5298: fallthrough\n      : @171 (gas: 2)\n  5299: a1 = 0x20\n  5302: jump @173 if a0 >=u a1\n      : @172 (gas: 3)\n  5305: ecalli 11 // 'return_data_size'\n  5307: a1 = a0\n  5309: fallthrough\n      : @173 (gas: 18)\n  5310: a2 = s1 + 0x1078\n  5314: t0 = u64 [s1 + 0xd0]\n  5318: a4 = u64 [s1 + 0xa0]\n  5322: a5 = u64 [s1 + 0x98]\n  5326: a3 = u64 [s1 + 0x90]\n  5330: u64 [s1 + 0x80] = a1\n  5334: u64 [s1 + 136] = 0\n  5338: u64 [a2 + 0x6a8] = a1\n  5342: u64 [a2 + 0x6c8] = t0\n  5346: u64 [a2 + 1712] = 0\n  5350: u64 [a2 + 0x6d0] = a4\n  5354: u64 [a2 + 1720] = 0\n  5358: u64 [a2 + 0x6d8] = a5\n  5362: u64 [a2 + 1728] = 0\n  5366: a0 = s1 + 0x1740\n  5370: a1 = s1 + 0x1720\n  5374: u64 [a2 + 0x6e0] = a3\n  5378: ra = 162, jump @810\n      : @174 [@dyn 81] (gas: 40)\n  5384: t0 = u64 [s1 + 0xd0]\n  5388: a1 = u64 [s1 + 0x80]\n  5392: a0 = a1 + t0\n  5395: a1 = a0 <u a1\n  5398: t1 = u64 [s1 + 0xa0]\n  5402: a5 = u64 [s1 + 0x88]\n  5406: a2 = a5 + t1\n  5409: a2 = a2 + a1\n  5412: a3 = a2 ^ a5\n  5415: a4 = a2 <u a5\n  5418: a4 = a1 if a3 == 0\n  5421: ra = u64 [s1 + 0x98]\n  5425: a1 = a5 + ra\n  5428: a4 = a4 + a1\n  5431: t2 = a4 <u a1\n  5434: a1 = a1 <u a5\n  5437: a3 = u64 [s1 + 0x90]\n  5441: a5 = a5 + a3\n  5444: a1 = a1 + a5\n  5447: t2 = t2 + a1\n  5450: a1 = s1 + 0x1078\n  5454: u64 [a1 + 0x658] = a4\n  5458: a1 = s1 + 0x1078\n  5462: u64 [a1 + 0x650] = a2\n  5466: a1 = s1 + 0x1078\n  5470: u64 [a1 + 0x648] = a0\n  5474: a0 = s1 + 0x1078\n  5478: u64 [a0 + 0x680] = a3\n  5482: a0 = s1 + 0x1078\n  5486: u64 [a0 + 0x678] = ra\n  5490: a0 = s1 + 0x1078\n  5494: u64 [a0 + 0x670] = t1\n  5498: a0 = s1 + 0x1078\n  5502: u64 [a0 + 0x668] = t0\n  5506: a0 = s1 + 0x1700\n  5510: a1 = s1 + 0x16e0\n  5514: a2 = s1 + 0x16c0\n  5518: a4 = s1 + 0x1078\n  5522: u64 [a4 + 0x660] = t2\n  5526: ra = 164, jump @820\n      : @175 [@dyn 82] (gas: 3)\n  5532: a0 = s1 + 0x16a0\n  5536: a1 = 0x40\n  5539: ra = 166, jump @2\n      : @176 [@dyn 83] (gas: 7)\n  5545: a3 = s1 + 0x1078\n  5549: a5 = a3 + 0x600\n  5553: a0 = u64 [a5 + 0x40]\n  5556: a1 = u64 [a5 + 0x38]\n  5559: a2 = u64 [a5 + 0x30]\n  5562: a4 = u64 [a5 + 0x28]\n  5565: t0 = 168, jump @936\n      : @177 [@dyn 84] (gas: 1)\n  5571: jump @179 if a0 == 0\n      : @178 (gas: 1)\n  5574: jump @385\n      : @179 (gas: 13)\n  5577: a0 = u64 [s1 + 0xb0]\n  5581: a2 = a3 + 0x600\n  5585: u64 [a2 + 0x8] = a0\n  5588: a0 = u64 [s1 + 0xb8]\n  5592: u64 [a2 + 0x10] = a0\n  5595: a0 = u64 [s1 + 0xc0]\n  5599: u64 [a2 + 0x18] = a0\n  5602: a1 = s1 + 0x1680\n  5606: a0 = u64 [s1 + 0xc8]\n  5610: u64 [a2 + 0x20] = a0\n  5613: a0 = a4\n  5615: u64 [s1 + 0xd0] = a4\n  5619: ra = 170, jump @4\n      : @180 [@dyn 85] (gas: 6)\n  5625: a0 = u64 [s1 + 0xa8]\n  5629: ra = 0xac\n  5633: ecalli 5 // 'caller'\n  5635: a2 = u64 [s1 + 0xd8]\n  5639: t0 = 0xae\n  5643: jump @926\n      : @181 [@dyn 86] (gas: 2)\n  5646: a2 = u64 [s1 + 0xd8]\n  5650: t0 = 174, jump @926\n      : @182 [@dyn 87] (gas: 25)\n  5656: t0 = a1 | a0\n  5659: a3 = a3 >> 0x20\n  5662: a2 = reverse a2\n  5664: a1 = a2 << 0x20\n  5667: a1 = a1 | a3\n  5670: a2 = a2 >> 0x20\n  5673: a3 = u64 [0x20060]\n  5678: a0 = s1 + 0x1078\n  5682: u64 [a0 + 0x600] = a3\n  5686: a3 = u64 [0x20068]\n  5691: a4 = u64 [0x20070]\n  5696: a5 = u64 [0x20078]\n  5701: u64 [a0 + 0x5f8] = a3\n  5705: a3 = a0 + 0x500\n  5709: u64 [a3 + 0xf0] = a4\n  5713: u64 [a0 + 1504] = 0\n  5717: u64 [a3 + 0xe8] = a5\n  5721: u64 [a3 + 0xd8] = a2\n  5725: u64 [a3 + 0xd0] = a1\n  5729: a1 = 0x20\n  5732: a2 = s1 + 0x1660\n  5736: a3 = s1 + 0x1640\n  5740: u64 [a0 + 0x5c8] = t0\n  5744: a0 = u64 [s1 + 0xd0]\n  5748: ra = 176, jump @8\n      : @183 [@dyn 88] (gas: 5)\n  5754: a0 = 0\n  5756: a1 = u64 [s1 + 0x68]\n  5759: a2 = 0\n  5761: ecalli 12 // 'seal_return'\n  5763: jump @720\n      : @184 (gas: 9)\n  5766: a0 = s1 + 0x2078\n  5770: u64 [a0 + 128] = 0\n  5774: u64 [a0 + 120] = 0\n  5777: u64 [a0 + 112] = 0\n  5780: u64 [a0 + 104] = 0\n  5783: a0 = s1 + 0x2000\n  5787: i32 a0 = a0 + 0xe0\n  5791: ecalli 15 // 'value_transferred'\n  5793: fallthrough\n      : @185 (gas: 9)\n  5794: a4 = s1 + 0x2078\n  5798: a0 = u64 [a4 + 0x78]\n  5801: a1 = u64 [a4 + 0x80]\n  5805: a2 = u64 [a4 + 0x70]\n  5808: a3 = u64 [a4 + 0x68]\n  5811: a1 = a1 | a2\n  5814: a0 = a0 | a3\n  5817: a0 = a0 | a1\n  5820: jump @187 if a0 == 0\n      : @186 (gas: 1)\n  5823: jump @672\n      : @187 (gas: 3)\n  5826: a0 = u64 [s1 + 0xd8]\n  5830: a0 = i32 [a0]\n  5832: jump @189 if a0 >u 3\n      : @188 (gas: 1)\n  5836: jump @673\n      : @189 (gas: 8)\n  5839: u64 [a4 + 160] = 0\n  5843: u64 [a4 + 152] = 0\n  5847: u64 [a4 + 144] = 0\n  5851: u64 [a4 + 136] = 0\n  5855: a0 = s1 + 0x7ff\n  5859: a0 = a0 + 0x7a1\n  5863: a1 = s1 + 0x2100\n  5867: ra = 178, jump @6\n      : @190 [@dyn 89] (gas: 13)\n  5873: a0 = s1 + 0x7ff\n  5877: a0 = a0 + 0x61\n  5880: a2 = a0 + 0x700\n  5884: a1 = u64 [a2 + 0x50]\n  5887: u64 [s1 + 0xc8] = a1\n  5891: a1 = u64 [a2 + 0x48]\n  5894: u64 [s1 + 0xd8] = a1\n  5898: a0 = u64 [a2 + 0x40]\n  5901: u64 [s1 + 0xd0] = a0\n  5905: a0 = s1 + 0x7ff\n  5909: a0 = a0 + 0x781\n  5913: a1 = 0x40\n  5916: ra = 180, jump @2\n      : @191 [@dyn 90] (gas: 8)\n  5922: a3 = s1 + 0x7ff\n  5926: a3 = a3 + 0x61\n  5929: a5 = a3 + 0x700\n  5933: a4 = u64 [a5 + 0x38]\n  5936: a1 = u64 [a5 + 0x30]\n  5939: a2 = u64 [a5 + 0x28]\n  5942: a0 = u64 [a5 + 0x20]\n  5945: t0 = 182, jump @948\n      : @192 [@dyn 91] (gas: 1)\n  5951: jump @194 if a1 == 0\n      : @193 (gas: 1)\n  5954: jump @385\n      : @194 (gas: 15)\n  5957: a1 = u64 [s1 + 0xc8]\n  5961: a1 = a1 << 0x20\n  5964: a2 = a1 >> 0x20\n  5967: u64 [a3 + 1816] = 0\n  5971: a1 = u64 [s1 + 0xd0]\n  5975: a4 = a3 + 0x700\n  5979: u64 [a4] = a1\n  5981: a1 = u64 [s1 + 0xd8]\n  5985: u64 [a4 + 0x8] = a1\n  5988: a1 = s1 + 0x7ff\n  5992: a1 = a1 + 0x761\n  5996: u64 [a4 + 0x10] = a2\n  5999: u64 [s1 + 0xd8] = a0\n  6003: ra = 0x2bc\n  6007: jump @4\n      : @195 (gas: 8)\n  6010: u64 [a2 + 960] = 0\n  6014: u64 [a2 + 952] = 0\n  6018: u64 [a2 + 944] = 0\n  6022: u64 [a2 + 936] = 0\n  6026: a0 = s1 + 0x2000\n  6030: i32 a0 = a0 + 0x420\n  6034: ecalli 15 // 'value_transferred'\n  6036: fallthrough\n      : @196 (gas: 10)\n  6037: a3 = s1 + 0x2078\n  6041: a4 = a3 + 0x300\n  6045: a0 = u64 [a4 + 0xb8]\n  6049: a1 = u64 [a4 + 0xc0]\n  6053: a2 = u64 [a4 + 0xb0]\n  6057: a3 = u64 [a4 + 0xa8]\n  6061: a1 = a1 | a2\n  6064: a0 = a0 | a3\n  6067: a0 = a0 | a1\n  6070: jump @198 if a0 == 0\n      : @197 (gas: 1)\n  6073: jump @674\n      : @198 (gas: 3)\n  6076: a0 = u64 [s1 + 0xd8]\n  6080: a0 = i32 [a0]\n  6082: jump @200 if a0 >u 35\n      : @199 (gas: 1)\n  6086: jump @675\n      : @200 (gas: 6)\n  6089: a0 = s1 + 0x2000\n  6093: i32 a0 = a0 + 0x440\n  6097: a1 = 0x4\n  6100: ra = 0xb8\n  6104: ecalli 3 // 'call_data_load'\n  6106: fallthrough\n      : @201 [@dyn 92] (gas: 4)\n  6107: a4 = s1 + 0x2078\n  6111: a1 = u64 [a4 + 0x3d8]\n  6115: a0 = u64 [a4 + 0x3e0]\n  6119: t0 = 186, jump @932\n      : @202 [@dyn 93] (gas: 1)\n  6125: jump @204 if a3 != 0\n      : @203 (gas: 1)\n  6128: jump @676\n      : @204 (gas: 11)\n  6131: a2 = u64 [a4 + 0x3d0]\n  6135: a3 = u64 [a4 + 0x3c8]\n  6139: a4 = s1 + 0x1878\n  6143: a5 = a4 + 0x200\n  6147: u64 [a5 + 0xc8] = a3\n  6151: u64 [a5 + 0xd0] = a2\n  6155: u64 [a5 + 0xd8] = a1\n  6159: a1 = s1 + 0x1b40\n  6163: u64 [a5 + 0xe0] = a0\n  6167: a0 = 0\n  6169: ra = 188, jump @4\n      : @205 [@dyn 94] (gas: 3)\n  6175: t0 = 0xbe\n  6179: a1 = s1 + 0x1878\n  6183: fallthrough\n      : @206 [@dyn 95] (gas: 8)\n  6184: u64 [a1 + 704] = 0\n  6188: u64 [a1 + 696] = 0\n  6192: u64 [a1 + 680] = 0x5\n  6197: a2 = a1\n  6199: a0 = 0x20\n  6202: a1 = s1 + 0x1b20\n  6206: u64 [a2 + 688] = 0\n  6210: ra = 192, jump @4\n      : @207 [@dyn 96] (gas: 6)\n  6216: a0 = sp + 0xffffffffffffffe0\n  6219: a0 = a0 & 0xffffffffffffffe0\n  6222: u64 [s1 + 0xd0] = a0\n  6226: sp = a0\n  6228: a1 = i32 [0x201c4]\n  6233: jump @209 if a1 >u 63\n      : @208 (gas: 2)\n  6237: u32 [0x201c4] = 0x40\n  6243: fallthrough\n      : @209 (gas: 13)\n  6244: a0 = sp + 0xffffffffffffffe0\n  6247: a2 = a0 & 0xffffffffffffffe0\n  6250: u64 [s1 + 0xd8] = a2\n  6254: sp = a2\n  6256: a0 = 0x201d0\n  6261: i32 a0 = a0 + 0\n  6263: i32 a2 = a2 + 0\n  6265: a1 = 0x40\n  6268: ra = 0xc2\n  6272: ecalli 8 // 'hash_keccak_256'\n  6274: a3 = u64 [s1 + 0xd8]\n  6278: t0 = 0xc4\n  6282: jump @947\n      : @210 [@dyn 97] (gas: 2)\n  6285: a3 = u64 [s1 + 0xd8]\n  6289: t0 = 196, jump @947\n      : @211 [@dyn 98] (gas: 12)\n  6295: u64 [s1 + 0xa8] = a1\n  6299: a2 = u64 [s1 + 0xd0]\n  6303: u64 [a2 + 0x18] = a1\n  6306: u64 [s1 + 0xb0] = a0\n  6310: u64 [a2 + 0x10] = a0\n  6313: u64 [s1 + 0xa0] = a4\n  6317: u64 [a2 + 0x8] = a4\n  6320: u64 [s1 + 0x98] = a5\n  6324: u64 [a2] = a5\n  6326: a0 = s1 + 0x1b00\n  6330: a1 = 0x40\n  6333: ra = 198, jump @2\n      : @212 [@dyn 99] (gas: 16)\n  6339: a1 = s1 + 0x1878\n  6343: a5 = a1 + 0x200\n  6347: a0 = u64 [a5 + 0xa0]\n  6351: u64 [s1 + 0xc0] = a0\n  6355: a2 = u64 [a5 + 0x98]\n  6359: u64 [s1 + 0xb8] = a2\n  6363: a4 = u64 [a5 + 0x90]\n  6367: u64 [s1 + 0xc8] = a4\n  6371: a3 = u64 [a5 + 0x88]\n  6375: u64 [s1 + 0xd8] = a3\n  6379: u64 [a5 + 0x80] = a0\n  6383: u64 [a5 + 0x78] = a2\n  6386: u64 [a5 + 0x70] = a4\n  6389: a0 = s1 + 0x1ae0\n  6393: u64 [a5 + 0x68] = a3\n  6396: ra = 200, jump @801\n      : @213 [@dyn 100] (gas: 3)\n  6402: a0 = s1 + 0x1ac0\n  6406: a1 = u64 [s1 + 0xd0]\n  6410: ra = 202, jump @6\n      : @214 [@dyn 101] (gas: 12)\n  6416: a0 = u64 [s1 + 0xc0]\n  6420: a1 = u64 [s1 + 0xc8]\n  6424: a0 = a0 | a1\n  6427: a2 = u64 [s1 + 0xb8]\n  6431: a1 = u64 [s1 + 0xd8]\n  6435: a1 = a1 | a2\n  6438: a1 = a1 | a0\n  6441: a1 = a1 >> 0x20\n  6444: a0 = a0 | a2\n  6447: a0 = a0 << 0x20\n  6450: a0 = a0 | a1\n  6453: jump @216 if a0 == 0\n      : @215 (gas: 1)\n  6456: jump @385\n      : @216 (gas: 17)\n  6459: a0 = s1 + 0x1878\n  6463: a5 = a0 + 0x200\n  6467: a4 = u64 [a5 + 0x60]\n  6470: a3 = u64 [a5 + 0x58]\n  6473: a2 = u64 [a5 + 0x50]\n  6476: a1 = u64 [a5 + 0x48]\n  6479: u64 [s1 + 0xd0] = a1\n  6483: u64 [a5 + 0x28] = a1\n  6486: u64 [s1 + 0x90] = a2\n  6490: u64 [a5 + 0x30] = a2\n  6493: u64 [s1 + 0x88] = a3\n  6497: u64 [a5 + 0x38] = a3\n  6500: a1 = s1 + 0x1aa0\n  6504: u64 [s1 + 0x80] = a4\n  6508: u64 [a5 + 0x40] = a4\n  6511: a0 = u64 [s1 + 0xd8]\n  6515: ra = 204, jump @4\n      : @217 [@dyn 102] (gas: 21)\n  6521: a0 = u64 [s1 + 0x98]\n  6525: a0 = a0 + 0x1\n  6528: a1 = a0 <u 0x1\n  6531: a2 = u64 [s1 + 0xa0]\n  6535: a1 = a1 + a2\n  6538: a2 = a0 | a1\n  6541: a2 = a2 <u 0x1\n  6544: a3 = u64 [s1 + 0xb0]\n  6548: a2 = a2 + a3\n  6551: a3 = a2 <u a3\n  6554: a4 = u64 [s1 + 0xa8]\n  6558: a3 = a3 + a4\n  6561: a4 = s1 + 0x2078\n  6565: a5 = a4 + 0x300\n  6569: u64 [a5 + 0xf0] = a1\n  6573: u64 [a5 + 0xe8] = a0\n  6577: u64 [a5 + 0xf8] = a2\n  6581: u64 [a4 + 0x400] = a3\n  6585: a0 = s1 + 0x1a80\n  6589: a1 = s1 + 0x2460\n  6593: ra = 206, jump @6\n      : @218 [@dyn 103] (gas: 11)\n  6599: a0 = u64 [s1 + 0xc0]\n  6603: a1 = u64 [s1 + 0xb8]\n  6607: a2 = a1 | a0\n  6610: a3 = 0x100000000\n  6620: a0 = 0xffffffe0\n  6630: a1 = u64 [s1 + 0xd8]\n  6634: a0 = a1 <u a0\n  6637: a1 = u64 [s1 + 0xc8]\n  6641: a0 = 0 if a1 != 0\n  6643: a0 = 0 if a2 != 0\n  6645: jump @220 if a0 != 0\n      : @219 (gas: 1)\n  6648: jump @385\n      : @220 (gas: 22)\n  6651: a0 = s1 + 0x1878\n  6655: u64 [s1 + 0xc0] = a2\n  6659: a2 = a0\n  6661: t0 = u64 [a0 + 0x220]\n  6665: a5 = a0 + 0x200\n  6669: a4 = u64 [a5 + 0x18]\n  6672: u64 [s1 + 0xb8] = a3\n  6676: a3 = u64 [a5 + 0x10]\n  6679: a1 = u64 [a5 + 0x8]\n  6682: a0 = u64 [s1 + 0xd8]\n  6686: i32 a0 = a0 + 0x20\n  6689: u64 [s1 + 0x78] = a1\n  6692: a5 = a2 + 0x100\n  6696: u64 [a5 + 0xe8] = a1\n  6700: u64 [s1 + 0x70] = a3\n  6703: u64 [a5 + 0xf0] = a3\n  6707: u64 [s1 + 0x68] = a4\n  6710: u64 [a5 + 0xf8] = a4\n  6714: a1 = s1 + 0x1a60\n  6718: u64 [s1 + 0x60] = t0\n  6721: u64 [a2 + 0x200] = t0\n  6725: ra = 208, jump @4\n      : @221 [@dyn 104] (gas: 5)\n  6731: a1 = u64 [s1 + 0x98]\n  6735: a0 = a1 + 0x2\n  6738: a1 = a0 <u a1\n  6741: a3 = u64 [s1 + 0xa0]\n  6745: t0 = 210, jump @955\n      : @222 [@dyn 105] (gas: 14)\n  6751: a1 = u64 [s1 + 0xb0]\n  6755: a3 = a3 + a1\n  6758: a1 = a3 <u a1\n  6761: a4 = u64 [s1 + 0xa8]\n  6765: a1 = a1 + a4\n  6768: a4 = s1 + 0x2078\n  6772: a5 = a4 + 0x400\n  6776: u64 [a5 + 0x10] = a2\n  6779: u64 [a5 + 0x8] = a0\n  6782: u64 [a5 + 0x18] = a3\n  6785: u64 [a5 + 0x20] = a1\n  6788: a0 = s1 + 0x1a40\n  6792: a1 = s1 + 0x2480\n  6796: ra = 212, jump @6\n      : @223 [@dyn 106] (gas: 9)\n  6802: a0 = u64 [s1 + 0xb8]\n  6806: a0 = a0 + 0xffffffffffffffc0\n  6809: a1 = u64 [s1 + 0xd8]\n  6813: a0 = a1 <u a0\n  6816: a1 = u64 [s1 + 0xc8]\n  6820: a0 = 0 if a1 != 0\n  6822: a1 = u64 [s1 + 0xc0]\n  6826: a0 = 0 if a1 != 0\n  6828: jump @225 if a0 != 0\n      : @224 (gas: 1)\n  6831: jump @385\n      : @225 (gas: 13)\n  6834: a3 = s1 + 0x1878\n  6838: a0 = u64 [a3 + 0x1c8]\n  6842: a0 = a0 & 0xff\n  6846: a2 = a0 >u 0\n  6848: u64 [s1 + 0xc8] = a2\n  6852: a0 = u64 [s1 + 0xd8]\n  6856: i32 a0 = a0 + 0x40\n  6859: u64 [a3 + 448] = 0\n  6863: u64 [a3 + 440] = 0\n  6867: u64 [a3 + 432] = 0\n  6871: a1 = s1 + 0x1a20\n  6875: u64 [a3 + 0x1a8] = a2\n  6879: ra = 214, jump @4\n      : @226 [@dyn 107] (gas: 3)\n  6885: a0 = s1 + 0x1a00\n  6889: a1 = 0x40\n  6892: ra = 216, jump @2\n      : @227 [@dyn 108] (gas: 42)\n  6898: a1 = s1 + 0x1878\n  6902: a3 = u64 [a1 + 0x1a0]\n  6906: u64 [s1 + 0xd8] = a3\n  6910: a2 = u64 [a1 + 0x198]\n  6914: u64 [s1 + 0xc0] = a2\n  6918: a4 = u64 [a1 + 0x190]\n  6922: u64 [s1 + 0xb8] = a4\n  6926: a5 = u64 [a1 + 0x188]\n  6930: u64 [s1 + 0xb0] = a5\n  6934: a0 = u64 [s1 + 0xc8]\n  6938: u64 [a1 + 0xe8] = a0\n  6942: a0 = u64 [s1 + 0x60]\n  6945: u64 [a1 + 0x120] = a0\n  6949: a0 = u64 [s1 + 0x68]\n  6952: u64 [a1 + 0x118] = a0\n  6956: a0 = u64 [s1 + 0x70]\n  6959: u64 [a1 + 0x110] = a0\n  6963: u64 [a1 + 256] = 0\n  6967: u64 [a1 + 248] = 0\n  6971: u64 [a1 + 240] = 0\n  6975: a0 = u64 [s1 + 0x78]\n  6978: u64 [a1 + 0x108] = a0\n  6982: a0 = u64 [s1 + 0x80]\n  6986: u64 [a1 + 0x140] = a0\n  6990: a0 = u64 [s1 + 0x88]\n  6994: u64 [a1 + 0x138] = a0\n  6998: a0 = u64 [s1 + 0x90]\n  7002: u64 [a1 + 0x130] = a0\n  7006: a0 = u64 [s1 + 0xd0]\n  7010: u64 [a1 + 0x128] = a0\n  7014: a0 = a1 + 0x100\n  7018: u64 [a0 + 0x60] = a3\n  7021: u64 [a0 + 0x58] = a2\n  7024: u64 [a0 + 0x50] = a4\n  7027: t0 = a1\n  7029: a0 = s1 + 0x19e0\n  7033: a1 = s1 + 0x19c0\n  7037: a2 = s1 + 0x19a0\n  7041: a3 = s1 + 0x1980\n  7045: a4 = s1 + 0x1960\n  7049: u64 [t0 + 0x148] = a5\n  7053: ra = 218, jump @766\n      : @228 [@dyn 109] (gas: 12)\n  7059: a4 = u64 [s1 + 0xb8]\n  7063: a2 = u64 [s1 + 0xb0]\n  7067: a0 = u64 [s1 + 0xd8]\n  7071: a0 = a0 | a4\n  7074: a3 = u64 [s1 + 0xc0]\n  7078: a1 = a2 | a3\n  7081: a1 = a1 | a0\n  7084: a1 = a1 >> 0x20\n  7087: a0 = a0 | a3\n  7090: a0 = a0 << 0x20\n  7093: a0 = a0 | a1\n  7096: jump @230 if a0 == 0\n      : @229 (gas: 1)\n  7099: jump @385\n      : @230 (gas: 9)\n  7102: t0 = a3\n  7104: a1 = s1 + 0x1878\n  7108: a5 = a1 + 0x100\n  7112: a0 = u64 [a5 + 0x70]\n  7115: a3 = u64 [a5 + 0x80]\n  7119: u64 [s1 + 0xd0] = a3\n  7123: t1 = u64 [a1 + 0x168]\n  7127: a3 = u64 [a5 + 0x78]\n  7130: jump @297\n      : @231 (gas: 8)\n  7133: u64 [a2 + 896] = 0\n  7137: u64 [a2 + 888] = 0\n  7141: u64 [a2 + 880] = 0\n  7145: u64 [a2 + 872] = 0\n  7149: a0 = s1 + 0x2000\n  7153: i32 a0 = a0 + 0x3e0\n  7157: ecalli 15 // 'value_transferred'\n  7159: fallthrough\n      : @232 (gas: 10)\n  7160: a4 = s1 + 0x2078\n  7164: a5 = a4 + 0x300\n  7168: a0 = u64 [a5 + 0x78]\n  7171: a1 = u64 [a5 + 0x80]\n  7175: a2 = u64 [a5 + 0x70]\n  7178: a3 = u64 [a5 + 0x68]\n  7181: a1 = a1 | a2\n  7184: a0 = a0 | a3\n  7187: a0 = a0 | a1\n  7190: jump @234 if a0 == 0\n      : @233 (gas: 1)\n  7193: jump @677\n      : @234 (gas: 3)\n  7196: a0 = u64 [s1 + 0xd8]\n  7200: a1 = i32 [a0]\n  7202: jump @236 if a1 >u 3\n      : @235 (gas: 1)\n  7206: jump @678\n      : @236 (gas: 7)\n  7209: u64 [a4 + 928] = 0\n  7213: u64 [a4 + 920] = 0\n  7217: u64 [a4 + 912] = 0\n  7221: u64 [a4 + 904] = 0x3\n  7226: a0 = s1 + 0x1940\n  7230: a1 = s1 + 0x2400\n  7234: ra = 220, jump @6\n      : @237 [@dyn 110] (gas: 3)\n  7240: t0 = 0xde\n  7244: a1 = s1 + 0x1878\n  7248: fallthrough\n      : @238 [@dyn 111] (gas: 11)\n  7249: a0 = u64 [a1 + 0xe0]\n  7253: u64 [s1 + 0xd8] = a0\n  7257: a0 = u64 [a1 + 0xd8]\n  7261: u64 [s1 + 0xd0] = a0\n  7265: a0 = u64 [a1 + 0xd0]\n  7269: u64 [s1 + 0xc8] = a0\n  7273: a0 = u64 [a1 + 0xc8]\n  7277: u64 [s1 + 0xc0] = a0\n  7281: a0 = s1 + 0x1920\n  7285: a1 = 0x40\n  7288: ra = 224, jump @2\n      : @239 [@dyn 112] (gas: 6)\n  7294: a3 = s1 + 0x1878\n  7298: a0 = u64 [a3 + 0xc0]\n  7302: a1 = u64 [a3 + 0xb8]\n  7306: a2 = u64 [a3 + 0xb0]\n  7310: a4 = u64 [a3 + 0xa8]\n  7314: t0 = 226, jump @936\n      : @240 [@dyn 113] (gas: 1)\n  7320: jump @242 if a0 == 0\n      : @241 (gas: 1)\n  7323: jump @385\n      : @242 (gas: 13)\n  7326: a0 = u64 [s1 + 0xc0]\n  7330: u64 [a3 + 0x88] = a0\n  7334: a0 = u64 [s1 + 0xc8]\n  7338: u64 [a3 + 0x90] = a0\n  7342: a0 = u64 [s1 + 0xd0]\n  7346: u64 [a3 + 0x98] = a0\n  7350: a1 = s1 + 0x1900\n  7354: a0 = u64 [s1 + 0xd8]\n  7358: u64 [a3 + 0xa0] = a0\n  7362: a0 = a4\n  7364: u64 [s1 + 0xd8] = a4\n  7368: ra = 0x2bc\n  7372: jump @4\n      : @243 (gas: 8)\n  7375: u64 [a2 + 256] = 0\n  7379: u64 [a2 + 248] = 0\n  7383: u64 [a2 + 240] = 0\n  7387: u64 [a2 + 232] = 0\n  7391: a0 = s1 + 0x2000\n  7395: i32 a0 = a0 + 0x160\n  7399: ecalli 15 // 'value_transferred'\n  7401: fallthrough\n      : @244 (gas: 9)\n  7402: a3 = s1 + 0x2078\n  7406: a0 = u64 [a3 + 0xf8]\n  7410: a1 = u64 [a3 + 0x100]\n  7414: a2 = u64 [a3 + 0xf0]\n  7418: a3 = u64 [a3 + 0xe8]\n  7422: a1 = a1 | a2\n  7425: a0 = a0 | a3\n  7428: a0 = a0 | a1\n  7431: jump @246 if a0 == 0\n      : @245 (gas: 1)\n  7434: jump @679\n      : @246 (gas: 3)\n  7437: a0 = u64 [s1 + 0xd8]\n  7441: a0 = i32 [a0]\n  7443: jump @248 if a0 >u 35\n      : @247 (gas: 1)\n  7447: jump @680\n      : @248 (gas: 27)\n  7450: a0 = s1 + 0x2000\n  7454: i32 a0 = a0 + 0x180\n  7458: a1 = 0x4\n  7461: ecalli 3 // 'call_data_load'\n  7463: a0 = s1 + 0x2078\n  7467: a5 = a0 + 0x100\n  7471: a1 = u64 [a5 + 0x20]\n  7474: a2 = u64 [a5 + 0x18]\n  7477: a3 = u64 [a5 + 0x10]\n  7480: a4 = u64 [a5 + 0x8]\n  7483: u64 [s1 + 0xc0] = a1\n  7487: u64 [s1 + 0xb0] = a3\n  7491: a0 = a3 | a1\n  7494: u64 [s1 + 0xb8] = a2\n  7498: u64 [s1 + 0xa8] = a4\n  7502: a1 = a4 | a2\n  7505: a0 = a0 | a1\n  7508: a0 = a0 >u 0\n  7510: a1 = s1 + 0x1078\n  7514: u64 [a1 + 1120] = 0\n  7518: u64 [a1 + 1112] = 0\n  7522: u64 [a1 + 0x448] = a0\n  7526: a0 = s1 + 0x14c0\n  7530: u64 [a1 + 1104] = 0\n  7534: ra = 0xe4\n  7538: t0 = 0x338\n  7542: jump @941\n      : @249 [@dyn 114] (gas: 9)\n  7545: a0 = 0x301d0\n  7550: u64 [s1 + 0xd0] = a0\n  7554: i32 a0 = a0 + 0\n  7556: u64 [s1 + 0xa0] = a0\n  7560: ra = 0xe6\n  7564: ecalli 5 // 'caller'\n  7566: a2 = u64 [s1 + 0xd0]\n  7570: t0 = 0xe8\n  7574: jump @923\n      : @250 [@dyn 115] (gas: 2)\n  7577: a2 = u64 [s1 + 0xd0]\n  7581: t0 = 232, jump @923\n      : @251 [@dyn 116] (gas: 9)\n  7587: a2 = s1 + 0x1078\n  7591: u64 [a2 + 1088] = 0\n  7595: a4 = a2 + 0x400\n  7599: u64 [a4 + 0x38] = a1\n  7602: u64 [a4 + 0x30] = a0\n  7605: a1 = s1 + 0x14a0\n  7609: u64 [a4 + 0x28] = a3\n  7612: a0 = 0\n  7614: ra = 234, jump @4\n      : @252 [@dyn 117] (gas: 9)\n  7620: a1 = s1 + 0x1078\n  7624: u64 [a1 + 1056] = 0\n  7628: u64 [a1 + 1048] = 0\n  7632: u64 [a1 + 1032] = 0x5\n  7637: a2 = a1\n  7639: a0 = 0x20\n  7642: a1 = s1 + 0x1480\n  7646: u64 [a2 + 1040] = 0\n  7650: ra = 236, jump @4\n      : @253 [@dyn 118] (gas: 6)\n  7656: a0 = sp + 0xffffffffffffffe0\n  7659: a0 = a0 & 0xffffffffffffffe0\n  7662: u64 [s1 + 0xd8] = a0\n  7666: sp = a0\n  7668: a1 = i32 [0x201c4]\n  7673: jump @255 if a1 >u 63\n      : @254 (gas: 2)\n  7677: u32 [0x201c4] = 0x40\n  7683: fallthrough\n      : @255 (gas: 42)\n  7684: a0 = sp + 0xffffffffffffffe0\n  7687: a2 = a0 & 0xffffffffffffffe0\n  7690: u64 [s1 + 0xc8] = a2\n  7694: sp = a2\n  7696: a0 = 0x201d0\n  7701: i32 a0 = a0 + 0\n  7703: i32 a2 = a2 + 0\n  7705: a1 = 0x40\n  7708: u64 [s1 + 0x98] = a0\n  7712: ecalli 8 // 'hash_keccak_256'\n  7714: a3 = u64 [s1 + 0xc8]\n  7718: a0 = u64 [a3 + 0x18]\n  7721: a1 = u64 [a3 + 0x10]\n  7724: a2 = u64 [a3 + 0x8]\n  7727: a3 = u64 [a3]\n  7729: a0 = reverse a0\n  7731: a5 = reverse a1\n  7733: a2 = reverse a2\n  7735: t0 = reverse a3\n  7737: a1 = u64 [s1 + 0xd8]\n  7741: u64 [a1 + 0x18] = t0\n  7744: u64 [a1 + 0x10] = a2\n  7747: u64 [a1 + 0x8] = a5\n  7750: u64 [a1] = a0\n  7752: a4 = sp + 0xffffffffffffffe0\n  7755: a1 = a4 & 0xffffffffffffffe0\n  7758: sp = a1\n  7760: a4 = a0 + 0x2\n  7763: a0 = a4 <u a0\n  7766: a3 = a5 + a0\n  7769: a5 = a3 <u a5\n  7772: a5 = a0 if a0 == 0\n  7775: a5 = a5 + a2\n  7778: a0 = a5 <u a2\n  7781: a0 = a0 + t0\n  7784: u64 [a1 + 0x10] = a5\n  7787: u64 [a1 + 0x8] = a3\n  7790: u64 [a1] = a4\n  7792: u64 [a1 + 0x18] = a0\n  7795: a0 = s1 + 0x1460\n  7799: u64 [s1 + 0xc8] = a1\n  7803: ra = 238, jump @6\n      : @256 [@dyn 119] (gas: 3)\n  7809: a0 = s1 + 0x1078\n  7813: a0 = u8 [a0 + 0x3e8]\n  7817: jump @258 if a0 == 0\n      : @257 (gas: 1)\n  7820: jump @386\n      : @258 (gas: 3)\n  7823: a0 = s1 + 0x10a0\n  7827: a1 = 0x40\n  7830: ra = 240, jump @2\n      : @259 [@dyn 120] (gas: 2)\n  7836: a3 = s1 + 0x1078\n  7840: fallthrough\n      : @260 (gas: 12)\n  7841: t0 = u64 [a3 + 0x40]\n  7844: a5 = u64 [a3 + 0x38]\n  7847: a4 = u64 [a3 + 0x30]\n  7850: a0 = u64 [a3 + 0x28]\n  7853: a2 = a4 | t0\n  7856: a1 = a0 | a5\n  7859: a1 = a1 | a2\n  7862: a1 = a1 >> 0x20\n  7865: a2 = a2 | a5\n  7868: a2 = a2 << 0x20\n  7871: a1 = a1 | a2\n  7874: jump @262 if a1 == 0\n      : @261 (gas: 1)\n  7877: jump @385\n      : @262 (gas: 12)\n  7880: a2 = a3\n  7882: u64 [a3 + 24] = 0\n  7885: u64 [a3 + 16] = 0\n  7888: u64 [a3 + 8] = 0\n  7891: a3 = 0x8c379a000000000\n  7901: a1 = s1 + 0x1080\n  7905: u64 [a2 + 0x20] = a3\n  7908: u64 [s1 + 0xd8] = a0\n  7912: u64 [s1 + 0xd0] = a4\n  7916: u64 [s1 + 0xc0] = t0\n  7920: u64 [s1 + 0xc8] = a5\n  7924: ra = 242, jump @4\n      : @263 [@dyn 121] (gas: 5)\n  7930: a1 = u64 [s1 + 0xd8]\n  7934: a0 = u64 [s1 + 0xc8]\n  7938: a3 = u64 [s1 + 0xc0]\n  7942: a3 = a3 | a0\n  7945: t0 = 244, jump @925\n      : @264 [@dyn 122] (gas: 1)\n  7951: jump @385 if a0 == 0\n      : @265 (gas: 1)\n  7955: t0 = 246, jump @954\n      : @266 [@dyn 123] (gas: 8)\n  7961: u64 [a2 + 0] = 0\n  7963: u64 [a2 + 4294967288] = 0\n  7966: u64 [a2 + 4294967272] = 0x20\n  7970: a1 = s1 + 0x1060\n  7974: u64 [a2 + 4294967280] = 0\n  7977: u64 [s1 + 0xc8] = a3\n  7981: u64 [s1 + 0xc0] = a4\n  7985: ra = 248, jump @4\n      : @267 [@dyn 124] (gas: 1)\n  7991: t0 = 250, jump @931\n      : @268 [@dyn 125] (gas: 1)\n  7997: jump @385 if a0 == 0\n      : @269 (gas: 9)\n  8001: i32 a0 = a1 + 0x24\n  8004: a4 = s1 + 0x7ff\n  8008: a4 = a4 + 0x61\n  8011: u64 [a4 + 2040] = 0\n  8015: u64 [a4 + 2032] = 0\n  8019: u64 [a4 + 2016] = 0xe\n  8024: a1 = s1 + 0x1040\n  8028: u64 [a4 + 2024] = 0\n  8032: ra = 252, jump @4\n      : @270 [@dyn 126] (gas: 1)\n  8038: t0 = 254, jump @929\n      : @271 [@dyn 127] (gas: 1)\n  8044: jump @385 if a0 == 0\n      : @272 (gas: 12)\n  8048: i32 a0 = a3 + 0x44\n  8051: a1 = u64 [0x200d8]\n  8056: a2 = u64 [0x200e0]\n  8061: a4 = s1 + 0x7ff\n  8065: a4 = a4 + 0x61\n  8068: u64 [a4 + 0x7d8] = a1\n  8072: u64 [a4 + 1992] = 0\n  8076: u64 [a4 + 0x7d0] = a2\n  8080: a1 = s1 + 0x1020\n  8084: u64 [a4 + 1984] = 0\n  8088: ra = 0x236\n  8092: jump @4\n      : @273 (gas: 1)\n  8095: jump @275 if a0 == 1941178475\n      : @274 (gas: 1)\n  8102: jump @681\n      : @275 (gas: 8)\n  8105: u64 [a3 + 1568] = 0\n  8109: u64 [a3 + 1560] = 0\n  8113: u64 [a3 + 1552] = 0\n  8117: u64 [a3 + 1544] = 0\n  8121: a0 = s1 + 0x2000\n  8125: i32 a0 = a0 + 0xfffffffffffffe80\n  8129: ecalli 15 // 'value_transferred'\n  8131: fallthrough\n      : @276 (gas: 10)\n  8132: a3 = s1 + 0x1878\n  8136: a4 = a3 + 0x600\n  8140: a0 = u64 [a4 + 0x18]\n  8143: a1 = u64 [a4 + 0x20]\n  8146: a2 = u64 [a4 + 0x10]\n  8149: a3 = u64 [a4 + 0x8]\n  8152: a1 = a1 | a2\n  8155: a0 = a0 | a3\n  8158: a0 = a0 | a1\n  8161: jump @278 if a0 == 0\n      : @277 (gas: 1)\n  8164: jump @685\n      : @278 (gas: 3)\n  8167: a0 = u64 [s1 + 0xd8]\n  8171: a0 = i32 [a0]\n  8173: jump @280 if a0 >u 35\n      : @279 (gas: 1)\n  8177: jump @686\n      : @280 (gas: 6)\n  8180: a0 = s1 + 0x2000\n  8184: i32 a0 = a0 + 0xfffffffffffffea0\n  8188: a1 = 0x4\n  8191: ra = 0x100\n  8195: ecalli 3 // 'call_data_load'\n  8197: fallthrough\n      : @281 [@dyn 128] (gas: 4)\n  8198: a4 = s1 + 0x1878\n  8202: a1 = u64 [a4 + 0x638]\n  8206: a0 = u64 [a4 + 0x640]\n  8210: t0 = 258, jump @932\n      : @282 [@dyn 129] (gas: 1)\n  8216: jump @284 if a3 != 0\n      : @283 (gas: 1)\n  8219: jump @687\n      : @284 (gas: 12)\n  8222: a2 = u64 [a4 + 0x630]\n  8226: a3 = u64 [a4 + 0x628]\n  8230: a4 = s1 + 0x7ff\n  8234: a4 = a4 + 0x61\n  8237: u64 [a4 + 0x60] = a3\n  8240: u64 [a4 + 0x68] = a2\n  8243: u64 [a4 + 0x70] = a1\n  8246: a1 = s1 + 0x7ff\n  8250: a1 = a1 + 0xc1\n  8254: u64 [a4 + 0x78] = a0\n  8257: a0 = 0\n  8259: ra = 260, jump @4\n      : @285 [@dyn 130] (gas: 7)\n  8265: a1 = s1 + 0x7ff\n  8269: a1 = a1 + 0x61\n  8272: a3 = 0\n  8274: u64 [a1 + 88] = 0\n  8277: u64 [a1 + 80] = 0\n  8280: u64 [a1 + 64] = 0x5\n  8284: t0 = 262, jump @930\n      : @286 [@dyn 131] (gas: 3)\n  8290: a1 = a1 + 0xa1\n  8294: u64 [a2 + 0x48] = a3\n  8297: ra = 264, jump @4\n      : @287 [@dyn 132] (gas: 6)\n  8303: a0 = sp + 0xffffffffffffffe0\n  8306: a0 = a0 & 0xffffffffffffffe0\n  8309: u64 [s1 + 0xb8] = a0\n  8313: sp = a0\n  8315: a1 = i32 [0x201c4]\n  8320: jump @289 if a1 >u 63\n      : @288 (gas: 2)\n  8324: u32 [0x201c4] = 0x40\n  8330: fallthrough\n      : @289 (gas: 30)\n  8331: a0 = sp + 0xffffffffffffffe0\n  8334: a2 = a0 & 0xffffffffffffffe0\n  8337: u64 [s1 + 0xd8] = a2\n  8341: sp = a2\n  8343: a0 = 0x201d0\n  8348: i32 a0 = a0 + 0\n  8350: i32 a2 = a2 + 0\n  8352: a1 = 0x40\n  8355: ecalli 8 // 'hash_keccak_256'\n  8357: a3 = u64 [s1 + 0xd8]\n  8361: a0 = u64 [a3 + 0x18]\n  8364: a1 = u64 [a3 + 0x10]\n  8367: a2 = u64 [a3 + 0x8]\n  8370: a3 = u64 [a3]\n  8372: a5 = reverse a0\n  8374: u64 [s1 + 0xc8] = a5\n  8378: a4 = reverse a1\n  8380: u64 [s1 + 0xd0] = a4\n  8384: a2 = reverse a2\n  8386: u64 [s1 + 0xc0] = a2\n  8390: a0 = reverse a3\n  8392: u64 [s1 + 0xd8] = a0\n  8396: a1 = u64 [s1 + 0xb8]\n  8400: u64 [a1 + 0x18] = a0\n  8403: u64 [a1 + 0x10] = a2\n  8406: u64 [a1 + 0x8] = a4\n  8409: u64 [a1] = a5\n  8411: a0 = s1 + 0x7ff\n  8415: a0 = a0 + 0x81\n  8419: ra = 266, jump @6\n      : @290 [@dyn 133] (gas: 32)\n  8425: a1 = s1 + 0x7ff\n  8429: a1 = a1 + 0x61\n  8432: a0 = u64 [a1 + 0x20]\n  8435: u64 [s1 + 0xb8] = a0\n  8439: a0 = u64 [a1 + 0x28]\n  8442: u64 [s1 + 0xb0] = a0\n  8446: a0 = u64 [a1 + 0x30]\n  8449: u64 [s1 + 0xa8] = a0\n  8453: a0 = u64 [a1 + 0x38]\n  8456: u64 [s1 + 0xa0] = a0\n  8460: a0 = u64 [s1 + 0xc8]\n  8464: a0 = a0 + 0x1\n  8467: a1 = a0 <u 0x1\n  8470: a2 = u64 [s1 + 0xd0]\n  8474: a1 = a1 + a2\n  8477: a2 = s1 + 0x1878\n  8481: a3 = a2 + 0x600\n  8485: u64 [a3 + 0x50] = a1\n  8488: a1 = a1 | a0\n  8491: u64 [a3 + 0x48] = a0\n  8494: a0 = a1 <u 0x1\n  8497: a1 = u64 [s1 + 0xc0]\n  8501: a0 = a0 + a1\n  8504: u64 [a3 + 0x58] = a0\n  8507: a0 = a0 <u a1\n  8510: a1 = u64 [s1 + 0xd8]\n  8514: a0 = a0 + a1\n  8517: u64 [a3 + 0x60] = a0\n  8520: a0 = s1 + 0x7ff\n  8524: a0 = a0 + 0x61\n  8527: a1 = s1 + 0x1ec0\n  8531: ra = 268, jump @6\n      : @291 [@dyn 134] (gas: 9)\n  8537: a5 = s1 + 0x7ff\n  8541: a5 = a5 + 0x61\n  8544: a0 = u64 [a5]\n  8546: u64 [s1 + 0x98] = a0\n  8550: a1 = u64 [s1 + 0xc8]\n  8554: a0 = a1 + 0x2\n  8557: a1 = a0 <u a1\n  8560: a3 = u64 [s1 + 0xd0]\n  8564: t0 = 270, jump @955\n      : @292 [@dyn 135] (gas: 21)\n  8570: a1 = u64 [a5 + 0x8]\n  8573: u64 [s1 + 0xd0] = a1\n  8577: a1 = u64 [s1 + 0xc0]\n  8581: a3 = a3 + a1\n  8584: a1 = a3 <u a1\n  8587: a4 = u64 [s1 + 0xd8]\n  8591: a1 = a1 + a4\n  8594: a4 = u64 [a5 + 0x10]\n  8597: u64 [s1 + 0xc8] = a4\n  8601: a4 = u64 [a5 + 0x18]\n  8604: u64 [s1 + 0xc0] = a4\n  8608: a4 = s1 + 0x1878\n  8612: a5 = a4 + 0x600\n  8616: u64 [a5 + 0x80] = a1\n  8620: u64 [a5 + 0x78] = a3\n  8623: u64 [a5 + 0x70] = a2\n  8626: u64 [a5 + 0x68] = a0\n  8629: a0 = s1 + 0x7ff\n  8633: a0 = a0 + 0x41\n  8636: a1 = s1 + 0x1ee0\n  8640: ra = 272, jump @6\n      : @293 [@dyn 136] (gas: 7)\n  8646: a0 = s1 + 0x1000\n  8650: a0 = u8 [a0 + 0xfffffffffffff840]\n  8654: u64 [s1 + 0x90] = a0\n  8658: a0 = s1 + 0x7ff\n  8662: a0 = a0 + 0x21\n  8665: a1 = 0x40\n  8668: ra = 274, jump @2\n      : @294 [@dyn 137] (gas: 44)\n  8674: a0 = s1 + 0x1000\n  8678: a2 = u64 [a0 + 0xfffffffffffff838]\n  8682: u64 [s1 + 0xd8] = a2\n  8686: a0 = s1 + 0x1000\n  8690: a1 = u64 [a0 + 0xfffffffffffff830]\n  8694: u64 [s1 + 0x88] = a1\n  8698: a0 = s1 + 0x1000\n  8702: a3 = u64 [a0 + 0xfffffffffffff828]\n  8706: u64 [s1 + 0x80] = a3\n  8710: a0 = s1 + 0x1000\n  8714: a5 = u64 [a0 + 0xfffffffffffff820]\n  8718: u64 [s1 + 0x78] = a5\n  8721: a0 = u64 [s1 + 0x90]\n  8725: u64 [s1 + 0x780] = a0\n  8729: u64 [s1 + 1944] = 0\n  8733: u64 [s1 + 1936] = 0\n  8737: u64 [s1 + 1928] = 0\n  8741: a0 = u64 [s1 + 0xc0]\n  8745: u64 [s1 + 0x7b8] = a0\n  8749: a0 = u64 [s1 + 0xc8]\n  8753: u64 [s1 + 0x7b0] = a0\n  8757: a0 = u64 [s1 + 0xd0]\n  8761: u64 [s1 + 0x7a8] = a0\n  8765: a0 = u64 [s1 + 0x98]\n  8769: u64 [s1 + 0x7a0] = a0\n  8773: a0 = u64 [s1 + 0xa0]\n  8777: u64 [s1 + 0x7d8] = a0\n  8781: a0 = u64 [s1 + 0xa8]\n  8785: u64 [s1 + 0x7d0] = a0\n  8789: a0 = u64 [s1 + 0xb0]\n  8793: u64 [s1 + 0x7c8] = a0\n  8797: a0 = u64 [s1 + 0xb8]\n  8801: u64 [s1 + 0x7c0] = a0\n  8805: u64 [s1 + 0x7f8] = a2\n  8809: u64 [s1 + 0x7f0] = a1\n  8813: u64 [s1 + 0x7e8] = a3\n  8817: a0 = s1 + 0x7ff\n  8821: a0 = a0 + 0x1\n  8824: a1 = s1 + 0x7e0\n  8828: a2 = s1 + 0x7c0\n  8832: a3 = s1 + 0x7a0\n  8836: a4 = s1 + 0x780\n  8840: u64 [s1 + 0x7e0] = a5\n  8844: ra = 276, jump @766\n      : @295 [@dyn 138] (gas: 12)\n  8850: a4 = u64 [s1 + 0x80]\n  8854: a2 = u64 [s1 + 0x78]\n  8857: a0 = u64 [s1 + 0xd8]\n  8861: a0 = a0 | a4\n  8864: a3 = u64 [s1 + 0x88]\n  8868: a1 = a2 | a3\n  8871: a1 = a1 | a0\n  8874: a1 = a1 >> 0x20\n  8877: a0 = a0 | a3\n  8880: a0 = a0 << 0x20\n  8883: a0 = a0 | a1\n  8886: jump @385 if a0 != 0\n      : @296 (gas: 11)\n  8890: t0 = a3\n  8892: a0 = s1 + 0x1000\n  8896: a0 = u64 [a0 + 0xfffffffffffff808]\n  8900: a1 = s1 + 0x1000\n  8904: a1 = u64 [a1 + 0xfffffffffffff818]\n  8908: u64 [s1 + 0xd0] = a1\n  8912: a1 = s1 + 0x1000\n  8916: t1 = u64 [a1 + 0xfffffffffffff800]\n  8920: a1 = s1 + 0x1000\n  8924: a3 = u64 [a1 + 0xfffffffffffff810]\n  8928: fallthrough\n      : @297 (gas: 26)\n  8929: t2 = a0 ^ a4\n  8932: a5 = a0 <u a4\n  8935: ra = t1 <u a2\n  8938: a5 = ra if t2 == 0\n  8941: a1 = a3 - t0\n  8944: t2 = a1 - a5\n  8947: a1 = a1 <u a5\n  8950: u64 [s1 + 0xc8] = a1\n  8954: a3 = a3 <u t0\n  8957: a5 = u64 [s1 + 0xd8]\n  8961: a1 = u64 [s1 + 0xd0]\n  8965: a5 = a1 - a5\n  8968: a5 = a5 - a3\n  8971: a1 = u64 [s1 + 0xc8]\n  8975: a5 = a5 - a1\n  8978: a0 = a0 - a4\n  8981: a0 = a0 - ra\n  8984: a1 = t1 - a2\n  8987: a0 = a0 | a5\n  8990: a3 = a1 | t2\n  8993: a3 = a3 | a0\n  8996: a0 = a0 | t2\n  8999: a3 = a3 >> 0x20\n  9002: a0 = a0 << 0x20\n  9005: a0 = a0 | a3\n  9008: jump @385 if a0 != 0\n      : @298 (gas: 3)\n  9012: a0 = a2\n  9014: u64 [s1 + 0xd8] = a1\n  9018: ra = 278, jump @13\n      : @299 [@dyn 139] (gas: 5)\n  9024: i32 a1 = a0 + 0\n  9026: a2 = i32 [s1 + 0xd8]\n  9030: a0 = 0\n  9032: ecalli 12 // 'seal_return'\n  9034: jump @703\n      : @300 (gas: 8)\n  9037: u64 [a2 + 576] = 0\n  9041: u64 [a2 + 568] = 0\n  9045: u64 [a2 + 560] = 0\n  9049: u64 [a2 + 552] = 0\n  9053: a0 = s1 + 0x2000\n  9057: i32 a0 = a0 + 0x2a0\n  9061: ecalli 15 // 'value_transferred'\n  9063: fallthrough\n      : @301 (gas: 10)\n  9064: a3 = s1 + 0x2078\n  9068: a4 = a3 + 0x200\n  9072: a0 = u64 [a4 + 0x38]\n  9075: a1 = u64 [a4 + 0x40]\n  9078: a2 = u64 [a4 + 0x30]\n  9081: a3 = u64 [a4 + 0x28]\n  9084: a1 = a1 | a2\n  9087: a0 = a0 | a3\n  9090: a0 = a0 | a1\n  9093: jump @303 if a0 == 0\n      : @302 (gas: 1)\n  9096: jump @688\n      : @303 (gas: 3)\n  9099: a0 = u64 [s1 + 0xd8]\n  9103: a0 = i32 [a0]\n  9105: jump @305 if a0 >u 35\n      : @304 (gas: 1)\n  9109: jump @689\n      : @305 (gas: 24)\n  9112: a0 = sp + 0xffffffffffffffe0\n  9115: a0 = a0 & 0xffffffffffffffe0\n  9118: u64 [s1 + 0xd8] = a0\n  9122: sp = a0\n  9124: a0 = s1 + 0x2000\n  9128: i32 a0 = a0 + 0x2c0\n  9132: a1 = 0x4\n  9135: ecalli 3 // 'call_data_load'\n  9137: a0 = s1 + 0x2078\n  9141: a5 = a0 + 0x200\n  9145: a2 = u64 [a5 + 0x60]\n  9148: u64 [s1 + 0xc8] = a2\n  9152: a3 = u64 [a5 + 0x58]\n  9155: u64 [s1 + 0xc0] = a3\n  9159: a1 = u64 [a5 + 0x50]\n  9162: u64 [s1 + 0xd0] = a1\n  9166: a4 = u64 [a5 + 0x48]\n  9169: u64 [s1 + 0xb8] = a4\n  9173: a0 = u64 [s1 + 0xd8]\n  9177: u64 [a0 + 0x18] = a2\n  9180: u64 [a0 + 0x10] = a3\n  9183: u64 [a0 + 0x8] = a1\n  9186: u64 [a0] = a4\n  9188: ra = 280, jump @912\n      : @306 [@dyn 140] (gas: 9)\n  9194: a0 = u64 [s1 + 0xc8]\n  9198: a1 = u64 [s1 + 0xc0]\n  9202: a0 = a0 | a1\n  9205: a1 = u64 [s1 + 0xb8]\n  9209: a1 = a1 <u 0x65\n  9212: a2 = u64 [s1 + 0xd0]\n  9216: a1 = 0 if a2 != 0\n  9218: a1 = 0 if a0 != 0\n  9220: jump @308 if a1 == 0\n      : @307 (gas: 1)\n  9223: jump @690\n      : @308 (gas: 3)\n  9226: a0 = s1 + 0x15e0\n  9230: a1 = 0x40\n  9233: ra = 282, jump @2\n      : @309 [@dyn 141] (gas: 14)\n  9239: a2 = s1 + 0x1078\n  9243: t0 = u64 [a2 + 0x580]\n  9247: a1 = a2 + 0x500\n  9251: a5 = u64 [a1 + 0x78]\n  9254: a4 = u64 [a1 + 0x70]\n  9257: a0 = u64 [a1 + 0x68]\n  9260: a3 = a4 | t0\n  9263: a1 = a0 | a5\n  9266: a1 = a1 | a3\n  9269: a1 = a1 >> 0x20\n  9272: a3 = a3 | a5\n  9275: a3 = a3 << 0x20\n  9278: a1 = a1 | a3\n  9281: jump @385 if a1 != 0\n      : @310 (gas: 11)\n  9285: u64 [a2 + 1368] = 0\n  9289: u64 [a2 + 1360] = 0\n  9293: u64 [a2 + 1352] = 0\n  9297: a3 = 0x8c379a000000000\n  9307: a1 = s1 + 0x15c0\n  9311: u64 [a2 + 0x560] = a3\n  9315: u64 [s1 + 0xd8] = a0\n  9319: u64 [s1 + 0xd0] = a4\n  9323: u64 [s1 + 0xc0] = t0\n  9327: u64 [s1 + 0xc8] = a5\n  9331: ra = 284, jump @4\n      : @311 [@dyn 142] (gas: 5)\n  9337: a1 = u64 [s1 + 0xd8]\n  9341: a0 = u64 [s1 + 0xc8]\n  9345: a3 = u64 [s1 + 0xc0]\n  9349: a3 = a3 | a0\n  9352: t0 = 286, jump @925\n      : @312 [@dyn 143] (gas: 1)\n  9358: jump @385 if a0 == 0\n      : @313 (gas: 1)\n  9362: t0 = 288, jump @954\n      : @314 [@dyn 144] (gas: 8)\n  9368: u64 [a2 + 1344] = 0\n  9372: u64 [a2 + 1336] = 0\n  9376: u64 [a2 + 1320] = 0x20\n  9381: a1 = s1 + 0x15a0\n  9385: u64 [a2 + 1328] = 0\n  9389: u64 [s1 + 0xc8] = a3\n  9393: u64 [s1 + 0xc0] = a4\n  9397: ra = 290, jump @4\n      : @315 [@dyn 145] (gas: 4)\n  9403: a1 = u64 [s1 + 0xd8]\n  9407: a0 = u64 [s1 + 0xc0]\n  9411: a0 = a0 + 0xffffffffffffffdc\n  9414: t0 = 292, jump @943\n      : @316 [@dyn 146] (gas: 1)\n  9420: jump @385 if a0 == 0\n      : @317 (gas: 8)\n  9424: i32 a0 = a1 + 0x24\n  9427: a2 = s1 + 0x1078\n  9431: u64 [a2 + 1312] = 0\n  9435: u64 [a2 + 1304] = 0\n  9439: u64 [a2 + 1288] = 0x21\n  9444: a1 = s1 + 0x1580\n  9448: u64 [a2 + 1296] = 0\n  9452: ra = 294, jump @4\n      : @318 [@dyn 147] (gas: 9)\n  9458: a3 = u64 [s1 + 0xc8]\n  9462: a4 = u64 [s1 + 0xd0]\n  9466: a1 = u64 [s1 + 0xd8]\n  9470: a2 = 0x100000000\n  9480: a0 = 0xffffffbc\n  9490: a0 = a1 <u a0\n  9493: a0 = 0 if a4 != 0\n  9495: a0 = 0 if a3 != 0\n  9497: jump @385 if a0 == 0\n      : @319 (gas: 14)\n  9501: i32 a0 = a1 + 0x44\n  9504: a1 = u64 [0x20080]\n  9509: u64 [s1 + 0xc0] = a2\n  9513: a5 = s1 + 0x1078\n  9517: u64 [a5 + 0x500] = a1\n  9521: a1 = u64 [0x20088]\n  9526: a2 = u64 [0x20090]\n  9531: a3 = u64 [0x20098]\n  9536: a4 = a5 + 0x400\n  9540: u64 [a4 + 0xf8] = a1\n  9544: u64 [a4 + 0xf0] = a2\n  9548: a1 = s1 + 0x1560\n  9552: u64 [a4 + 0xe8] = a3\n  9556: ra = 296, jump @4\n      : @320 [@dyn 148] (gas: 5)\n  9562: a2 = u64 [s1 + 0xd8]\n  9566: a0 = u64 [s1 + 0xc0]\n  9570: a0 = a0 + 0xffffffffffffff9c\n  9573: a0 = a2 <u a0\n  9576: t0 = 298, jump @935\n      : @321 [@dyn 149] (gas: 1)\n  9582: jump @385 if a0 == 0\n      : @322 (gas: 10)\n  9586: i32 a0 = a2 + 0x64\n  9589: a3 = s1 + 0x1078\n  9593: u64 [a3 + 1240] = 0\n  9597: u64 [a3 + 1232] = 0\n  9601: a1 = 0x3000000000000000\n  9611: u64 [a3 + 0x4e0] = a1\n  9615: a1 = s1 + 0x1540\n  9619: u64 [a3 + 1224] = 0\n  9623: ra = 0x1b0\n  9627: jump @4\n      : @323 (gas: 8)\n  9630: u64 [a2 + 512] = 0\n  9634: u64 [a2 + 504] = 0\n  9638: u64 [a2 + 496] = 0\n  9642: u64 [a2 + 488] = 0\n  9646: a0 = s1 + 0x2000\n  9650: i32 a0 = a0 + 0x260\n  9654: ecalli 15 // 'value_transferred'\n  9656: fallthrough\n      : @324 (gas: 10)\n  9657: a4 = s1 + 0x2078\n  9661: a5 = a4 + 0x100\n  9665: a0 = u64 [a5 + 0xf8]\n  9669: a1 = u64 [a4 + 0x200]\n  9673: a2 = u64 [a5 + 0xf0]\n  9677: a3 = u64 [a5 + 0xe8]\n  9681: a1 = a1 | a2\n  9684: a0 = a0 | a3\n  9687: a0 = a0 | a1\n  9690: jump @326 if a0 == 0\n      : @325 (gas: 1)\n  9693: jump @693\n      : @326 (gas: 3)\n  9696: a0 = u64 [s1 + 0xd8]\n  9700: a0 = i32 [a0]\n  9702: jump @328 if a0 >u 3\n      : @327 (gas: 1)\n  9706: jump @694\n      : @328 (gas: 7)\n  9709: u64 [a4 + 544] = 0\n  9713: u64 [a4 + 536] = 0\n  9717: u64 [a4 + 528] = 0\n  9721: u64 [a4 + 520] = 0x1\n  9726: a0 = s1 + 0x1520\n  9730: a1 = s1 + 0x2280\n  9734: ra = 300, jump @6\n      : @329 [@dyn 150] (gas: 11)\n  9740: a1 = s1 + 0x1078\n  9744: a2 = a1 + 0x400\n  9748: a0 = u64 [a2 + 0xb8]\n  9752: u64 [s1 + 0xc8] = a0\n  9756: a0 = u64 [a2 + 0xb0]\n  9760: u64 [s1 + 0xd8] = a0\n  9764: a0 = u64 [a2 + 0xa8]\n  9768: u64 [s1 + 0xd0] = a0\n  9772: a0 = s1 + 0x1500\n  9776: a1 = 0x40\n  9779: ra = 302, jump @2\n      : @330 [@dyn 151] (gas: 7)\n  9785: a3 = s1 + 0x1078\n  9789: a5 = a3 + 0x400\n  9793: a4 = u64 [a5 + 0xa0]\n  9797: a1 = u64 [a5 + 0x98]\n  9801: a2 = u64 [a5 + 0x90]\n  9805: a0 = u64 [a5 + 0x88]\n  9809: t0 = 304, jump @948\n      : @331 [@dyn 152] (gas: 1)\n  9815: jump @385 if a1 != 0\n      : @332 (gas: 14)\n  9819: a1 = u64 [s1 + 0xc8]\n  9823: a1 = a1 << 0x20\n  9826: a2 = a1 >> 0x20\n  9829: u64 [a3 + 1152] = 0\n  9833: a1 = u64 [s1 + 0xd0]\n  9837: a4 = a3 + 0x400\n  9841: u64 [a4 + 0x68] = a1\n  9844: a1 = u64 [s1 + 0xd8]\n  9848: u64 [a4 + 0x70] = a1\n  9851: a1 = s1 + 0x14e0\n  9855: u64 [a4 + 0x78] = a2\n  9858: u64 [s1 + 0xd8] = a0\n  9862: ra = 0x2bc\n  9866: jump @4\n      : @333 (gas: 9)\n  9869: u64 [a3 + 1696] = 0\n  9873: u64 [a3 + 1688] = 0\n  9877: u64 [a3 + 1680] = 0\n  9881: u64 [a3 + 1672] = 0\n  9885: a0 = s1 + 0x2000\n  9889: i32 a0 = a0 + 0xffffffffffffff00\n  9893: ra = 0x132\n  9897: ecalli 15 // 'value_transferred'\n  9899: fallthrough\n      : @334 [@dyn 153] (gas: 3)\n  9900: a3 = s1 + 0x1878\n  9904: a4 = a3 + 0x600\n  9908: t0 = 308, jump @953\n      : @335 [@dyn 154] (gas: 1)\n  9914: jump @337 if a0 == 0\n      : @336 (gas: 1)\n  9917: jump @695\n      : @337 (gas: 3)\n  9920: a0 = u64 [s1 + 0xd8]\n  9924: a0 = i32 [a0]\n  9926: jump @339 if a0 >u 35\n      : @338 (gas: 1)\n  9930: jump @696\n      : @339 (gas: 29)\n  9933: a0 = s1 + 0x2000\n  9937: i32 a0 = a0 + 0xffffffffffffff20\n  9941: a1 = 0x4\n  9944: ecalli 3 // 'call_data_load'\n  9946: a0 = s1 + 0x1878\n  9950: a5 = a0 + 0x600\n  9954: a1 = u64 [a5 + 0xc0]\n  9958: a2 = u64 [a5 + 0xb8]\n  9962: a3 = u64 [a5 + 0xb0]\n  9966: a4 = u64 [a5 + 0xa8]\n  9970: u64 [s1 + 0x40] = a1\n  9973: u64 [s1 + 0x30] = a3\n  9976: a0 = a3 | a1\n  9979: u64 [s1 + 0x38] = a2\n  9982: u64 [s1 + 0x28] = a4\n  9985: a1 = a4 | a2\n  9988: a0 = a0 | a1\n  9991: a0 = a0 >u 0\n  9993: a1 = s1 + 0x7ff\n  9997: a1 = a1 + 0x61\n 10000: u64 [a1 + 1784] = 0\n 10004: u64 [a1 + 1776] = 0\n 10008: u64 [a1 + 0x6e0] = a0\n 10012: a0 = s1 + 0x7ff\n 10016: a0 = a0 + 0x741\n 10020: u64 [a1 + 1768] = 0\n 10024: ra = 0x136\n 10028: t0 = 0x338\n 10032: jump @941\n      : @340 [@dyn 155] (gas: 8)\n 10035: a0 = 0x301d0\n 10040: u64 [s1 + 0x60] = a0\n 10043: i32 a0 = a0 + 0\n 10045: u64 [s1 + 0x58] = a0\n 10048: ra = 0x138\n 10052: ecalli 5 // 'caller'\n 10054: t0 = 0x13a\n 10058: jump @924\n      : @341 [@dyn 156] (gas: 1)\n 10061: t0 = 314, jump @924\n      : @342 [@dyn 157] (gas: 9)\n 10067: u64 [a2 + 1752] = 0\n 10071: a4 = a2 + 0x600\n 10075: u64 [a4 + 0xd0] = a1\n 10079: u64 [a4 + 0xc8] = a0\n 10083: a1 = s1 + 0x7ff\n 10087: a1 = a1 + 0x721\n 10091: u64 [a4 + 0xc0] = a3\n 10095: a0 = 0\n 10097: ra = 316, jump @4\n      : @343 [@dyn 158] (gas: 6)\n 10103: a1 = s1 + 0x7ff\n 10107: a1 = a1 + 0x61\n 10110: u64 [a1 + 1720] = 0\n 10114: u64 [a1 + 1712] = 0\n 10118: u64 [a1 + 1696] = 0x5\n 10123: t0 = 318, jump @930\n      : @344 [@dyn 159] (gas: 3)\n 10129: a1 = a1 + 0x701\n 10133: u64 [a2 + 1704] = 0\n 10137: ra = 320, jump @4\n      : @345 [@dyn 160] (gas: 3)\n 10143: a2 = 0x201c4\n 10148: a0 = i32 [0x201c4]\n 10153: jump @347 if a0 >u 63\n      : @346 (gas: 2)\n 10157: u32 [0x201c4] = 0x40\n 10163: fallthrough\n      : @347 (gas: 38)\n 10164: u64 [s1 + 0x48] = a2\n 10167: a0 = sp + 0xffffffffffffffe0\n 10170: a2 = a0 & 0xffffffffffffffe0\n 10173: u64 [s1 + 0xd8] = a2\n 10177: sp = a2\n 10179: a0 = 0x201d0\n 10184: i32 a0 = a0 + 0\n 10186: i32 a2 = a2 + 0\n 10188: a1 = 0x40\n 10191: u64 [s1 + 0x50] = a0\n 10194: ecalli 8 // 'hash_keccak_256'\n 10196: a3 = u64 [s1 + 0xd8]\n 10200: a0 = u64 [a3]\n 10202: a1 = u64 [a3 + 0x8]\n 10205: a2 = u64 [a3 + 0x10]\n 10208: a3 = u64 [a3 + 0x18]\n 10211: a0 = reverse a0\n 10213: a1 = reverse a1\n 10215: a2 = reverse a2\n 10217: a3 = reverse a3\n 10219: a4 = a3 + 0x2\n 10222: a3 = a4 <u a3\n 10225: a5 = a2 + a3\n 10228: a2 = a5 <u a2\n 10231: a2 = a3 if a3 == 0\n 10234: a2 = a2 + a1\n 10237: a1 = a2 <u a1\n 10240: a0 = a0 + a1\n 10243: a1 = s1 + 0x1878\n 10247: a3 = a1 + 0x600\n 10251: u64 [a3 + 0xc8] = a4\n 10255: u64 [a3 + 0xd0] = a5\n 10259: u64 [a3 + 0xd8] = a2\n 10263: u64 [a3 + 0xe0] = a0\n 10267: a0 = s1 + 0x7ff\n 10271: a0 = a0 + 0x6e1\n 10275: a1 = s1 + 0x1f40\n 10279: ra = 322, jump @6\n      : @348 [@dyn 161] (gas: 4)\n 10285: a0 = s1 + 0x7ff\n 10289: a0 = a0 + 0x61\n 10292: a0 = u8 [a0 + 0x680]\n 10296: jump @430 if a0 != 0\n      : @349 (gas: 5)\n 10300: a0 = u64 [s1 + 0x58]\n 10303: ra = 0x144\n 10307: ecalli 5 // 'caller'\n 10309: t0 = 0x146\n 10313: jump @924\n      : @350 [@dyn 162] (gas: 1)\n 10316: t0 = 326, jump @924\n      : @351 [@dyn 163] (gas: 9)\n 10322: u64 [a2 + 1464] = 0\n 10326: a4 = a2 + 0x500\n 10330: u64 [a4 + 0xb0] = a1\n 10334: u64 [a4 + 0xa8] = a0\n 10338: a1 = s1 + 0x7ff\n 10342: a1 = a1 + 0x601\n 10346: u64 [a4 + 0xa0] = a3\n 10350: a0 = 0\n 10352: ra = 328, jump @4\n      : @352 [@dyn 164] (gas: 6)\n 10358: a1 = s1 + 0x7ff\n 10362: a1 = a1 + 0x61\n 10365: u64 [a1 + 1432] = 0\n 10369: u64 [a1 + 1424] = 0\n 10373: u64 [a1 + 1408] = 0x4\n 10378: t0 = 330, jump @930\n      : @353 [@dyn 165] (gas: 3)\n 10384: a1 = a1 + 0x5e1\n 10388: u64 [a2 + 1416] = 0\n 10392: ra = 332, jump @4\n      : @354 [@dyn 166] (gas: 3)\n 10398: a2 = u64 [s1 + 0x48]\n 10401: a0 = i32 [a2]\n 10403: jump @356 if a0 >u 63\n      : @355 (gas: 3)\n 10407: u32 [a2 + 0] = 0x40\n 10410: t0 = 0x14e\n 10414: jump @952\n      : @356 (gas: 1)\n 10417: t0 = 334, jump @952\n      : @357 [@dyn 167] (gas: 4)\n 10423: ra = 0x150\n 10427: ecalli 8 // 'hash_keccak_256'\n 10429: t0 = 0x152\n 10433: jump @934\n      : @358 [@dyn 168] (gas: 1)\n 10436: t0 = 338, jump @934\n      : @359 [@dyn 169] (gas: 9)\n 10442: u64 [a4 + 0x700] = a3\n 10446: a3 = a4 + 0x600\n 10450: u64 [a3 + 0xf8] = a2\n 10454: u64 [a3 + 0xf0] = a1\n 10458: u64 [a3 + 0xe8] = a0\n 10462: a0 = s1 + 0x7ff\n 10466: a0 = a0 + 0x5c1\n 10470: a1 = s1 + 0x1f60\n 10474: ra = 340, jump @6\n      : @360 [@dyn 170] (gas: 21)\n 10480: a1 = s1 + 0x7ff\n 10484: a1 = a1 + 0x61\n 10487: a2 = a1 + 0x500\n 10491: a0 = u64 [a2 + 0x78]\n 10494: u64 [s1 + 0xd0] = a0\n 10498: a0 = u64 [a2 + 0x70]\n 10501: u64 [s1 + 0xc8] = a0\n 10505: a0 = u64 [a2 + 0x68]\n 10508: u64 [s1 + 0xc0] = a0\n 10512: a0 = u64 [a2 + 0x60]\n 10515: u64 [s1 + 0xd8] = a0\n 10519: a0 = s1 + 0x1878\n 10523: u64 [a0 + 1824] = 0\n 10527: u64 [a0 + 1816] = 0\n 10531: u64 [a0 + 1808] = 0\n 10535: a1 = a0\n 10537: u64 [a1 + 1800] = 0x3\n 10542: a0 = s1 + 0x7ff\n 10546: a0 = a0 + 0x5a1\n 10550: a1 = s1 + 0x1f80\n 10554: ra = 342, jump @6\n      : @361 [@dyn 171] (gas: 69)\n 10560: a1 = s1 + 0x7ff\n 10564: a1 = a1 + 0x61\n 10567: t2 = u64 [a1 + 0x540]\n 10571: a2 = a1 + 0x500\n 10575: a0 = u64 [a2 + 0x58]\n 10578: u64 [s1 + 0xb8] = a0\n 10582: a3 = u64 [a2 + 0x50]\n 10585: a5 = u64 [a2 + 0x48]\n 10588: ra = u64 [s1 + 0xd8]\n 10592: a1 = ra mulhu t2\n 10595: a0 = u64 [s1 + 0xc0]\n 10599: a2 = a0 * t2\n 10602: a1 = a1 + a2\n 10605: a2 = a1 <u a2\n 10608: a4 = a0 mulhu t2\n 10611: t1 = a4 + a2\n 10614: a4 = ra * a5\n 10617: a1 = a1 + a4\n 10620: u64 [s1 + 0x98] = a1\n 10624: a1 = a1 <u a4\n 10627: a4 = ra mulhu a5\n 10630: a1 = a1 + a4\n 10633: t0 = t1 + a1\n 10636: a2 = a0 * a5\n 10639: a1 = a2 + t0\n 10642: u64 [s1 + 0xb0] = a1\n 10646: a4 = a1 <u a2\n 10649: a1 = t0 <u t1\n 10652: a2 = a0 mulhu a5\n 10655: a1 = a1 + a2\n 10658: a1 = a1 + a4\n 10661: u64 [s1 + 0xa8] = a1\n 10665: a1 = a0 * a3\n 10668: a2 = u64 [s1 + 0xb8]\n 10672: a2 = a2 * ra\n 10675: a1 = a1 + a2\n 10678: u64 [s1 + 0xa0] = a1\n 10682: t0 = u64 [s1 + 0xc8]\n 10686: u64 [s1 + 0x78] = a5\n 10689: a2 = a5 * t0\n 10692: a4 = u64 [s1 + 0xd0]\n 10696: a5 = a4 * t2\n 10699: a5 = a5 + a2\n 10702: a2 = a3 * ra\n 10705: t1 = t0 * t2\n 10708: a2 = a2 + t1\n 10711: u64 [s1 + 0x88] = a3\n 10715: a3 = a3 mulhu ra\n 10718: u64 [s1 + 0x68] = a3\n 10721: a1 = u64 [s1 + 0xa0]\n 10725: a3 = a3 + a1\n 10728: a1 = t0 mulhu t2\n 10731: u64 [s1 + 0xa0] = a1\n 10735: a1 = a1 + a5\n 10738: a5 = a2 <u t1\n 10741: u64 [s1 + 0x70] = a1\n 10744: a1 = a1 + a3\n 10747: t1 = a1 + a5\n 10750: a5 = a0 | a4\n 10753: a1 = ra | t0\n 10756: a1 = a1 | a5\n 10759: a0 = u64 [s1 + 0xb0]\n 10763: a2 = a2 + a0\n 10766: a4 = a2 <u a0\n 10769: a0 = u64 [s1 + 0xa8]\n 10773: t1 = t1 + a0\n 10776: a5 = t1 + a4\n 10779: u64 [s1 + 0x80] = a2\n 10783: jump @364 if a1 == 0\n      : @362 (gas: 52)\n 10787: a1 = a5 ^ a0\n 10790: a2 = a5 <u a0\n 10793: a4 = a2 if a1 != 0\n 10796: a0 = u64 [s1 + 0x68]\n 10799: a3 = a3 <u a0\n 10802: a1 = u64 [s1 + 0xc0]\n 10806: a2 = a1 >u 0\n 10808: ra = a5\n 10810: t0 = u64 [s1 + 0xb8]\n 10814: a5 = t0 >u 0\n 10816: a2 = a2 & a5\n 10819: a5 = u64 [s1 + 0xd8]\n 10823: a5 = t0 mulhu a5\n 10826: a5 = a5 >u 0\n 10828: a2 = a2 | a5\n 10831: t1 = u64 [s1 + 0x88]\n 10835: a5 = a1 mulhu t1\n 10838: a5 = a5 >u 0\n 10840: a2 = a2 | a5\n 10843: a2 = a2 | a3\n 10846: u64 [s1 + 0xc0] = a2\n 10850: a0 = u64 [s1 + 0xa0]\n 10854: a1 = u64 [s1 + 0x70]\n 10857: a0 = a1 <u a0\n 10860: u64 [s1 + 0xb0] = a0\n 10864: a2 = u64 [s1 + 0xd0]\n 10868: a5 = a2 >u 0\n 10870: a0 = u64 [s1 + 0x78]\n 10873: a1 = a0 >u 0\n 10875: a1 = a1 & a5\n 10878: a5 = a2 mulhu t2\n 10881: a5 = a5 >u 0\n 10883: a1 = a1 | a5\n 10886: a5 = ra\n 10888: ra = u64 [s1 + 0xc8]\n 10892: a3 = a0 mulhu ra\n 10895: a3 = a3 >u 0\n 10897: a1 = a1 | a3\n 10900: a0 = u64 [s1 + 0xb0]\n 10904: a1 = a1 | a0\n 10907: a2 = ra | a2\n 10910: a3 = t1 | t0\n 10913: a2 = a2 >u 0\n 10915: a3 = a3 >u 0\n 10917: a2 = a2 & a3\n 10920: a1 = a1 | a2\n 10923: a2 = u64 [s1 + 0x80]\n 10927: a0 = u64 [s1 + 0xc0]\n 10931: a1 = a1 | a0\n 10934: a1 = a1 | a4\n 10937: a1 = a1 & 0x1\n 10940: jump @364 if a1 == 0\n      : @363 (gas: 1)\n 10943: jump @707\n      : @364 (gas: 56)\n 10946: u64 [s1 + 0x90] = a5\n 10950: a1 = u64 [s1 + 0xd8]\n 10954: t0 = a1 * t2\n 10957: a0 = t0 | a2\n 10960: a1 = u64 [s1 + 0x98]\n 10964: t2 = a2\n 10966: a2 = a1 | a5\n 10969: a0 = a0 | a2\n 10972: a0 = a0 <u 0x1\n 10975: u64 [s1 + 0xd8] = a0\n 10979: a0 = clz t2\n 10981: a0 = a0 + 0x40\n 10984: a2 = clz a5\n 10986: a2 = a0 if a5 == 0\n 10989: a0 = clz t0\n 10991: a0 = a0 + 0x40\n 10994: a3 = clz a1\n 10996: a3 = a0 if a1 == 0\n 10999: a0 = a3 + 0x80\n 11003: a4 = t2 | a5\n 11006: a2 = a0 if a4 == 0\n 11009: a5 = a0 <u a3\n 11012: a5 = 0 if a4 != 0\n 11014: a3 = a5 >u 0\n 11016: a0 = a2 <u 0xfa\n 11020: a4 = a0 ^ 0x1\n 11023: a3 = a4 if a5 == 0\n 11026: a0 = a3 <u 0x1\n 11029: a0 = a0 + 0xffffffffffffffff\n 11032: ra = -a3\n 11034: a5 = -a5\n 11036: t1 = a5 - a4\n 11039: a2 = 0xf9 - a2\n 11043: u64 [s1 + 0xc0] = ra\n 11047: a4 = ra >u 0\n 11049: a5 = a0 >u 0\n 11051: u64 [s1 + 0xc8] = a0\n 11055: a5 = a4 if a0 == 0\n 11058: a0 = t1 >u 0\n 11060: u64 [s1 + 0xd0] = a2\n 11064: a2 = a2 <u 0x100\n 11068: a2 = a2 ^ 0x1\n 11071: a2 = a0 if t1 != 0\n 11074: a2 = a5 if a3 != 0\n 11077: a0 = u64 [s1 + 0xd8]\n 11081: a0 = a0 | a2\n 11084: a2 = u64 [s1 + 0x90]\n 11088: a2 = 0 if a0 != 0\n 11090: a3 = t2\n 11092: a3 = 0 if a0 != 0\n 11094: a5 = a1\n 11096: a5 = 0 if a0 != 0\n 11098: u64 [s1 + 0x88] = t0\n 11102: a4 = t0\n 11104: a4 = 0 if a0 != 0\n 11106: jump @366 if a0 == 0\n      : @365 (gas: 1)\n 11109: jump @545\n      : @366 (gas: 8)\n 11112: a0 = u64 [s1 + 0xd0]\n 11116: a0 = a0 ^ 0xff\n 11120: t2 = u64 [s1 + 0xc0]\n 11124: t0 = a0 | t2\n 11127: ra = u64 [s1 + 0xc8]\n 11131: a0 = t1 | ra\n 11134: a0 = t0 | a0\n 11137: jump @368 if a0 != 0\n      : @367 (gas: 1)\n 11140: jump @545\n      : @368 (gas: 18)\n 11143: a3 = u64 [s1 + 0xd0]\n 11147: a2 = a3 + 0x1\n 11150: u64 [s1 + 0xd8] = a2\n 11154: a0 = a2 <u 0x1\n 11157: a0 = a0 + t1\n 11160: u64 [s1 + 0xb0] = a0\n 11164: a0 = a0 | a2\n 11167: a0 = a0 <u 0x1\n 11170: a0 = a0 + t2\n 11173: u64 [s1 + 0xa0] = a0\n 11177: a0 = a0 <u t2\n 11180: a0 = a0 + ra\n 11183: u64 [s1 + 0xa8] = a0\n 11187: a2 = 0xff - a3\n 11191: u64 [s1 + 0xb8] = a2\n 11195: a2 = 0x80 - a2\n 11199: a0 = u64 [s1 + 0x88]\n 11203: ra = 344, jump @956\n      : @369 [@dyn 172] (gas: 6)\n 11209: u64 [s1 + 0xc8] = a0\n 11213: u64 [s1 + 0xc0] = a1\n 11217: a0 = u64 [s1 + 0x80]\n 11221: a1 = u64 [s1 + 0x90]\n 11225: a2 = u64 [s1 + 0xb8]\n 11229: ra = 346, jump @961\n      : @370 [@dyn 173] (gas: 9)\n 11235: u64 [s1 + 0x78] = a0\n 11238: a0 = u64 [s1 + 0xc0]\n 11242: a0 = a0 | a1\n 11245: u64 [s1 + 0xc0] = a0\n 11249: a1 = u64 [s1 + 0xd0]\n 11253: a2 = 0x7f - a1\n 11256: a0 = u64 [s1 + 0x88]\n 11260: a1 = u64 [s1 + 0x98]\n 11264: ra = 348, jump @961\n      : @371 [@dyn 174] (gas: 18)\n 11270: a2 = u64 [s1 + 0xb8]\n 11274: a3 = a2 <u 0x80\n 11278: u64 [s1 + 0xd0] = a3\n 11282: a4 = u64 [s1 + 0xc0]\n 11286: a1 = a4 if a3 != 0\n 11289: a4 = u64 [s1 + 0x90]\n 11293: a1 = a4 if a2 == 0\n 11296: u64 [s1 + 0xc0] = a1\n 11300: a1 = u64 [s1 + 0xc8]\n 11304: a4 = u64 [s1 + 0x78]\n 11307: a1 = a1 | a4\n 11310: a1 = a0 if a3 == 0\n 11313: a0 = u64 [s1 + 0x80]\n 11317: a1 = a0 if a2 == 0\n 11320: u64 [s1 + 0xc8] = a1\n 11324: a0 = u64 [s1 + 0x88]\n 11328: a1 = u64 [s1 + 0x98]\n 11332: ra = 350, jump @961\n      : @372 [@dyn 175] (gas: 13)\n 11338: a3 = u64 [s1 + 0xa0]\n 11342: a4 = u64 [s1 + 0xa8]\n 11346: a2 = u64 [s1 + 0xb0]\n 11350: a2 = a2 | a4\n 11353: a5 = u64 [s1 + 0xd8]\n 11357: a5 = a5 | a3\n 11360: a2 = a2 | a5\n 11363: a3 = u64 [s1 + 0xd0]\n 11367: a1 = 0 if a3 == 0\n 11369: u64 [s1 + 0xb8] = a1\n 11373: a0 = 0 if a3 == 0\n 11375: u64 [s1 + 0xd0] = a0\n 11379: jump @374 if a2 == 0\n      : @373 (gas: 1)\n 11382: jump @538\n      : @374 (gas: 3)\n 11385: a5 = 0\n 11387: u64 [s1 + 120] = 0\n 11390: jump @544\n      : @375 (gas: 8)\n 11393: u64 [a2 + 192] = 0\n 11397: u64 [a2 + 184] = 0\n 11401: u64 [a2 + 176] = 0\n 11405: u64 [a2 + 168] = 0\n 11409: a0 = s1 + 0x2000\n 11413: i32 a0 = a0 + 0x120\n 11417: ecalli 15 // 'value_transferred'\n 11419: fallthrough\n      : @376 (gas: 9)\n 11420: a4 = s1 + 0x2078\n 11424: a0 = u64 [a4 + 0xb8]\n 11428: a1 = u64 [a4 + 0xc0]\n 11432: a2 = u64 [a4 + 0xb0]\n 11436: a3 = u64 [a4 + 0xa8]\n 11440: a1 = a1 | a2\n 11443: a0 = a0 | a3\n 11446: a0 = a0 | a1\n 11449: jump @378 if a0 == 0\n      : @377 (gas: 1)\n 11452: jump @697\n      : @378 (gas: 3)\n 11455: a0 = u64 [s1 + 0xd8]\n 11459: a0 = i32 [a0]\n 11461: jump @380 if a0 >u 3\n      : @379 (gas: 1)\n 11465: jump @698\n      : @380 (gas: 7)\n 11468: u64 [a4 + 224] = 0\n 11472: u64 [a4 + 216] = 0\n 11476: u64 [a4 + 208] = 0\n 11480: u64 [a4 + 200] = 0x2\n 11485: a0 = s1 + 0x1000\n 11489: a1 = s1 + 0x2140\n 11493: ra = 352, jump @6\n      : @381 [@dyn 176] (gas: 13)\n 11499: a0 = s1 + 0x7ff\n 11503: a0 = a0 + 0x61\n 11506: a2 = a0 + 0x700\n 11510: a1 = u64 [a2 + 0xb0]\n 11514: u64 [s1 + 0xc8] = a1\n 11518: a1 = u64 [a2 + 0xa8]\n 11522: u64 [s1 + 0xd8] = a1\n 11526: a0 = u64 [a2 + 0xa0]\n 11530: u64 [s1 + 0xd0] = a0\n 11534: a0 = s1 + 0x7ff\n 11538: a0 = a0 + 0x7e1\n 11542: a1 = 0x40\n 11545: ra = 354, jump @2\n      : @382 [@dyn 177] (gas: 8)\n 11551: a3 = s1 + 0x7ff\n 11555: a3 = a3 + 0x61\n 11558: a5 = a3 + 0x700\n 11562: a4 = u64 [a5 + 0x98]\n 11566: a1 = u64 [a5 + 0x90]\n 11570: a2 = u64 [a5 + 0x88]\n 11574: a0 = u64 [a5 + 0x80]\n 11578: t0 = 356, jump @948\n      : @383 [@dyn 178] (gas: 1)\n 11584: jump @385 if a1 != 0\n      : @384 (gas: 1)\n 11587: jump @699\n      : @385 (gas: 1)\n 11590: trap\n      : @386 (gas: 3)\n 11591: a0 = s1 + 0x1440\n 11595: a1 = u64 [s1 + 0xd8]\n 11599: ra = 358, jump @6\n      : @387 [@dyn 179] (gas: 2)\n 11605: a3 = s1 + 0x1078\n 11609: fallthrough\n      : @388 (gas: 21)\n 11610: a4 = a3 + 0x300\n 11614: a0 = u64 [a4 + 0xd0]\n 11618: a1 = u64 [a4 + 0xe0]\n 11622: a2 = u64 [a4 + 0xc8]\n 11626: a3 = u64 [a4 + 0xd8]\n 11630: a5 = u64 [s1 + 0xb0]\n 11634: a4 = a5 ^ a0\n 11637: a0 = a0 <u a5\n 11640: a5 = u64 [s1 + 0xa8]\n 11644: a2 = a2 <u a5\n 11647: a2 = a0 if a4 != 0\n 11650: a0 = u64 [s1 + 0xb8]\n 11654: t0 = a3 <u a0\n 11657: a5 = u64 [s1 + 0xc0]\n 11661: a4 = a5 ^ a1\n 11664: a1 = a1 <u a5\n 11667: a1 = t0 if a4 == 0\n 11670: a0 = a0 ^ a3\n 11673: a0 = a0 | a4\n 11676: a1 = a2 if a0 == 0\n 11679: jump @447 if a1 == 0\n      : @389 (gas: 3)\n 11683: a0 = s1 + 0x1140\n 11687: a1 = 0x40\n 11690: ra = 360, jump @2\n      : @390 [@dyn 180] (gas: 2)\n 11696: a3 = s1 + 0x1078\n 11700: fallthrough\n      : @391 (gas: 12)\n 11701: t0 = u64 [a3 + 0xe0]\n 11705: a5 = u64 [a3 + 0xd8]\n 11709: a4 = u64 [a3 + 0xd0]\n 11713: a0 = u64 [a3 + 0xc8]\n 11717: a2 = a4 | t0\n 11720: a1 = a0 | a5\n 11723: a1 = a1 | a2\n 11726: a1 = a1 >> 0x20\n 11729: a2 = a2 | a5\n 11732: a2 = a2 << 0x20\n 11735: a1 = a1 | a2\n 11738: jump @385 if a1 != 0\n      : @392 (gas: 12)\n 11742: a2 = a3\n 11744: u64 [a3 + 184] = 0\n 11748: u64 [a3 + 176] = 0\n 11752: u64 [a3 + 168] = 0\n 11756: a3 = 0x8c379a000000000\n 11766: a1 = s1 + 0x1120\n 11770: u64 [a2 + 0xc0] = a3\n 11774: u64 [s1 + 0xd8] = a0\n 11778: u64 [s1 + 0xd0] = a4\n 11782: u64 [s1 + 0xc0] = t0\n 11786: u64 [s1 + 0xc8] = a5\n 11790: ra = 362, jump @4\n      : @393 [@dyn 181] (gas: 5)\n 11796: a1 = u64 [s1 + 0xd8]\n 11800: a0 = u64 [s1 + 0xc8]\n 11804: a3 = u64 [s1 + 0xc0]\n 11808: a3 = a3 | a0\n 11811: t0 = 364, jump @925\n      : @394 [@dyn 182] (gas: 1)\n 11817: jump @385 if a0 == 0\n      : @395 (gas: 1)\n 11821: t0 = 366, jump @954\n      : @396 [@dyn 183] (gas: 9)\n 11827: a5 = 0\n 11829: u64 [a2 + 160] = 0\n 11833: u64 [a2 + 152] = 0\n 11837: u64 [a2 + 136] = 0x20\n 11842: a1 = s1 + 0x1100\n 11846: u64 [a2 + 144] = 0\n 11850: u64 [s1 + 0xc8] = a3\n 11854: u64 [s1 + 0xc0] = a4\n 11858: ra = 368, jump @4\n      : @397 [@dyn 184] (gas: 1)\n 11864: t0 = 370, jump @944\n      : @398 [@dyn 185] (gas: 1)\n 11870: jump @385 if a0 == 0\n      : @399 (gas: 8)\n 11874: i32 a0 = a1 + 0x24\n 11877: a2 = s1 + 0x1078\n 11881: u64 [a2 + 128] = 0\n 11885: u64 [a2 + 120] = 0\n 11888: u64 [a2 + 104] = 0x19\n 11892: a1 = s1 + 0x10e0\n 11896: u64 [a2 + 112] = 0\n 11899: ra = 372, jump @4\n      : @400 [@dyn 186] (gas: 1)\n 11905: t0 = 374, jump @929\n      : @401 [@dyn 187] (gas: 1)\n 11911: jump @385 if a0 == 0\n      : @402 (gas: 13)\n 11915: i32 a0 = a3 + 0x44\n 11918: a1 = u64 [0x200c0]\n 11923: a2 = u64 [0x200c8]\n 11928: a3 = u64 [0x200d0]\n 11933: a4 = s1 + 0x1078\n 11937: u64 [a4 + 0x60] = a1\n 11940: u64 [a4 + 0x58] = a2\n 11943: u64 [a4 + 0x50] = a3\n 11946: a2 = 0x6e00000000000000\n 11956: a1 = s1 + 0x10c0\n 11960: u64 [a4 + 0x48] = a2\n 11963: ra = 0x236\n 11967: jump @4\n      : @403 (gas: 6)\n 11970: a0 = u64 [s1 + 0xb0]\n 11974: ra = 0x178\n 11978: ecalli 5 // 'caller'\n 11980: a2 = u64 [s1 + 0xd8]\n 11984: t0 = 0x17a\n 11988: jump @923\n      : @404 [@dyn 188] (gas: 2)\n 11991: a2 = u64 [s1 + 0xd8]\n 11995: t0 = 378, jump @923\n      : @405 [@dyn 189] (gas: 7)\n 12001: u64 [s1 + 1656] = 0\n 12005: u64 [s1 + 0x670] = a1\n 12009: u64 [s1 + 0x668] = a0\n 12013: a1 = s1 + 0x660\n 12017: u64 [s1 + 0x660] = a3\n 12021: a0 = 0\n 12023: ra = 380, jump @4\n      : @406 [@dyn 190] (gas: 7)\n 12029: u64 [s1 + 1624] = 0\n 12033: u64 [s1 + 1616] = 0\n 12037: u64 [s1 + 1600] = 0x4\n 12042: a0 = 0x20\n 12045: a1 = s1 + 0x640\n 12049: u64 [s1 + 1608] = 0\n 12053: ra = 382, jump @4\n      : @407 [@dyn 191] (gas: 3)\n 12059: a2 = u64 [s1 + 0x98]\n 12063: a0 = i32 [a2]\n 12065: jump @409 if a0 >u 63\n      : @408 (gas: 2)\n 12069: u32 [a2 + 0] = 0x40\n 12072: fallthrough\n      : @409 (gas: 12)\n 12073: a0 = sp + 0xffffffffffffffe0\n 12076: a0 = a0 & 0xffffffffffffffe0\n 12079: u64 [s1 + 0xa8] = a0\n 12083: sp = a0\n 12085: i32 a2 = a0 + 0\n 12087: a1 = 0x40\n 12090: a0 = u64 [s1 + 0xa0]\n 12094: ra = 0x180\n 12098: ecalli 8 // 'hash_keccak_256'\n 12100: a3 = u64 [s1 + 0xa8]\n 12104: t0 = 0x182\n 12108: jump @927\n      : @410 [@dyn 192] (gas: 2)\n 12111: a3 = u64 [s1 + 0xa8]\n 12115: t0 = 386, jump @927\n      : @411 [@dyn 193] (gas: 7)\n 12121: u64 [a5 + 0xc0] = a3\n 12125: u64 [a5 + 0xb8] = a2\n 12129: u64 [a5 + 0xb0] = a1\n 12133: u64 [a5 + 0xa8] = a0\n 12137: a0 = s1 + 0x620\n 12141: a1 = s1 + 0x1d20\n 12145: ra = 388, jump @6\n      : @412 [@dyn 194] (gas: 14)\n 12151: a0 = u64 [s1 + 0x620]\n 12155: u64 [s1 + 0xa8] = a0\n 12159: a0 = u64 [s1 + 0x628]\n 12163: u64 [s1 + 0x90] = a0\n 12167: a0 = u64 [s1 + 0x630]\n 12171: u64 [s1 + 0x88] = a0\n 12175: a0 = u64 [s1 + 0x638]\n 12179: u64 [s1 + 0x80] = a0\n 12183: a0 = u64 [s1 + 0xb0]\n 12187: ra = 0x186\n 12191: ecalli 5 // 'caller'\n 12193: a2 = u64 [s1 + 0xd8]\n 12197: t0 = 0x188\n 12201: jump @923\n      : @413 [@dyn 195] (gas: 2)\n 12204: a2 = u64 [s1 + 0xd8]\n 12208: t0 = 392, jump @923\n      : @414 [@dyn 196] (gas: 27)\n 12214: u64 [s1 + 1528] = 0\n 12218: u64 [s1 + 0x5f0] = a1\n 12222: u64 [s1 + 0x5e8] = a0\n 12226: a0 = s1 + 0x600\n 12230: a1 = s1 + 0x5e0\n 12234: u64 [s1 + 0x5e0] = a3\n 12238: ra = 0x18a\n 12242: sp = sp + 0xfffffffffffffcc0\n 12246: a2 = sp + 0x300\n 12250: u64 [a2 + 0x38] = ra\n 12253: u64 [a2 + 0x30] = s0\n 12256: u64 [a2 + 0x28] = s1\n 12259: s0 = sp + 0x340\n 12263: sp = sp & 0xffffffffffffffe0\n 12266: s1 = sp\n 12268: a2 = u64 [a1]\n 12270: a3 = u64 [a1 + 0x8]\n 12273: a1 = u32 [a1 + 0x10]\n 12276: u64 [s1 + 0x8] = a0\n 12279: u64 [s1 + 664] = 0\n 12283: u64 [s1 + 0x290] = a1\n 12287: u64 [s1 + 0x288] = a3\n 12291: a1 = s1 + 0x280\n 12295: u64 [s1 + 0x280] = a2\n 12299: a0 = 0\n 12301: ra = 0x358\n 12305: jump @4\n      : @415 [@dyn 197] (gas: 21)\n 12308: a4 = s1 + 0x600\n 12312: a0 = u64 [a4]\n 12314: a1 = u64 [a4 + 0x8]\n 12317: a2 = u64 [a4 + 0x10]\n 12320: a3 = u64 [a4 + 0x18]\n 12323: u64 [s1 + 0x598] = a3\n 12327: u64 [s1 + 0x590] = a2\n 12331: u64 [s1 + 0x588] = a1\n 12335: u64 [s1 + 0x580] = a0\n 12339: a0 = u64 [s1 + 0x80]\n 12343: u64 [s1 + 0x5b8] = a0\n 12347: a0 = u64 [s1 + 0x88]\n 12351: u64 [s1 + 0x5b0] = a0\n 12355: a0 = u64 [s1 + 0x90]\n 12359: u64 [s1 + 0x5a8] = a0\n 12363: a0 = s1 + 0x5c0\n 12367: a1 = s1 + 0x5a0\n 12371: a2 = s1 + 0x580\n 12375: a3 = u64 [s1 + 0xa8]\n 12379: u64 [s1 + 0x5a0] = a3\n 12383: ra = 396, jump @793\n      : @416 [@dyn 198] (gas: 21)\n 12389: a1 = s1 + 0x500\n 12393: a0 = u64 [a1 + 0xd8]\n 12397: t0 = u64 [s1 + 0x5c0]\n 12401: a2 = u64 [a1 + 0xd0]\n 12405: a3 = u64 [a1 + 0xc8]\n 12409: a5 = u64 [s1 + 0xd0]\n 12413: a4 = a5 ^ a0\n 12416: a1 = a0 <u a5\n 12419: a0 = u64 [s1 + 0xc8]\n 12423: a5 = a2 <u a0\n 12426: a5 = a1 if a4 != 0\n 12429: a1 = u64 [s1 + 0xc0]\n 12433: t1 = a1 ^ a3\n 12436: a3 = a3 <u a1\n 12439: a1 = u64 [s1 + 0xb8]\n 12443: a1 = t0 <u a1\n 12446: a1 = a3 if t1 != 0\n 12449: a0 = a0 ^ a2\n 12452: a0 = a0 | a4\n 12455: a1 = a5 if a0 != 0\n 12458: jump @483 if a1 == 0\n      : @417 (gas: 3)\n 12462: a0 = s1 + 0x280\n 12466: a1 = 0x40\n 12469: ra = 398, jump @2\n      : @418 [@dyn 199] (gas: 6)\n 12475: a1 = s1 + 0x200\n 12479: a4 = u64 [a1 + 0x98]\n 12483: a5 = u64 [a1 + 0x90]\n 12487: a3 = u64 [a1 + 0x88]\n 12491: a0 = u64 [a1 + 0x80]\n 12495: t0 = 400, jump @939\n      : @419 [@dyn 200] (gas: 1)\n 12501: jump @385 if a1 != 0\n      : @420 (gas: 11)\n 12505: u64 [s1 + 624] = 0\n 12509: u64 [s1 + 616] = 0\n 12513: u64 [s1 + 608] = 0\n 12517: a2 = 0x8c379a000000000\n 12527: a1 = s1 + 0x260\n 12531: u64 [s1 + 0x278] = a2\n 12535: u64 [s1 + 0xd8] = a0\n 12539: u64 [s1 + 0xd0] = a3\n 12543: u64 [s1 + 0xc8] = a4\n 12547: u64 [s1 + 0xc0] = a5\n 12551: ra = 402, jump @4\n      : @421 [@dyn 201] (gas: 5)\n 12557: a1 = u64 [s1 + 0xd8]\n 12561: a0 = u64 [s1 + 0xc8]\n 12565: a3 = u64 [s1 + 0xc0]\n 12569: a3 = a3 | a0\n 12572: t0 = 404, jump @925\n      : @422 [@dyn 202] (gas: 1)\n 12578: jump @385 if a0 == 0\n      : @423 (gas: 9)\n 12582: i32 a0 = a1 + 0x4\n 12585: u64 [s1 + 600] = 0\n 12589: u64 [s1 + 592] = 0\n 12593: u64 [s1 + 576] = 0x20\n 12598: a1 = s1 + 0x240\n 12602: u64 [s1 + 584] = 0\n 12606: u64 [s1 + 0xc8] = a3\n 12610: u64 [s1 + 0xc0] = a4\n 12614: ra = 406, jump @4\n      : @424 [@dyn 203] (gas: 1)\n 12620: t0 = 408, jump @931\n      : @425 [@dyn 204] (gas: 1)\n 12626: jump @385 if a0 == 0\n      : @426 (gas: 7)\n 12630: i32 a0 = a1 + 0x24\n 12633: u64 [s1 + 568] = 0\n 12637: u64 [s1 + 560] = 0\n 12641: u64 [s1 + 544] = 0x18\n 12646: a1 = s1 + 0x220\n 12650: u64 [s1 + 552] = 0\n 12654: ra = 410, jump @4\n      : @427 [@dyn 205] (gas: 4)\n 12660: a2 = u64 [s1 + 0xd8]\n 12664: a0 = 0xffffffbc\n 12674: a0 = a2 <u a0\n 12677: t0 = 412, jump @935\n      : @428 [@dyn 206] (gas: 1)\n 12683: jump @385 if a0 == 0\n      : @429 (gas: 12)\n 12687: i32 a0 = a2 + 0x44\n 12690: a1 = u64 [0x20160]\n 12695: a2 = u64 [0x20168]\n 12700: a3 = u64 [0x20170]\n 12705: a4 = s1 + 0x200\n 12709: u64 [a4 + 0x18] = a1\n 12712: u64 [a4 + 0x10] = a2\n 12715: u64 [a4 + 0x8] = a3\n 12718: a1 = s1 + 0x200\n 12722: u64 [s1 + 512] = 0\n 12726: ra = 0x236\n 12730: jump @4\n      : @430 (gas: 4)\n 12733: a0 = s1 + 0x7ff\n 12737: a0 = a0 + 0x6c1\n 12741: a1 = 0x40\n 12744: ra = 414, jump @2\n      : @431 [@dyn 207] (gas: 8)\n 12750: a0 = s1 + 0x7ff\n 12754: a0 = a0 + 0x61\n 12757: a1 = a0 + 0x600\n 12761: a4 = u64 [a1 + 0x78]\n 12764: a5 = u64 [a1 + 0x70]\n 12767: a3 = u64 [a1 + 0x68]\n 12770: a0 = u64 [a1 + 0x60]\n 12773: t0 = 416, jump @939\n      : @432 [@dyn 208] (gas: 3)\n 12779: a2 = s1 + 0x7ff\n 12783: a2 = a2 + 0x61\n 12786: jump @385 if a1 != 0\n      : @433 (gas: 12)\n 12790: u64 [a2 + 1616] = 0\n 12794: u64 [a2 + 1608] = 0\n 12798: u64 [a2 + 1600] = 0\n 12802: u64 [s1 + 0xd0] = a3\n 12806: a3 = 0x8c379a000000000\n 12816: a1 = s1 + 0x7ff\n 12820: a1 = a1 + 0x6a1\n 12824: u64 [a2 + 0x658] = a3\n 12828: u64 [s1 + 0xd8] = a0\n 12832: u64 [s1 + 0xc8] = a4\n 12836: u64 [s1 + 0xc0] = a5\n 12840: ra = 418, jump @4\n      : @434 [@dyn 209] (gas: 5)\n 12846: a1 = u64 [s1 + 0xd8]\n 12850: a0 = u64 [s1 + 0xc8]\n 12854: a3 = u64 [s1 + 0xc0]\n 12858: a3 = a3 | a0\n 12861: t0 = 420, jump @925\n      : @435 [@dyn 210] (gas: 1)\n 12867: jump @385 if a0 == 0\n      : @436 (gas: 12)\n 12871: i32 a0 = a1 + 0x4\n 12874: a2 = s1 + 0x7ff\n 12878: a2 = a2 + 0x61\n 12881: u64 [a2 + 1592] = 0\n 12885: u64 [a2 + 1584] = 0\n 12889: u64 [a2 + 1568] = 0x20\n 12894: a1 = s1 + 0x7ff\n 12898: a1 = a1 + 0x681\n 12902: u64 [a2 + 1576] = 0\n 12906: u64 [s1 + 0xc8] = a3\n 12910: u64 [s1 + 0xc0] = a4\n 12914: ra = 422, jump @4\n      : @437 [@dyn 211] (gas: 4)\n 12920: a1 = u64 [s1 + 0xd8]\n 12924: a0 = u64 [s1 + 0xc0]\n 12928: a0 = a0 + 0xffffffffffffffdc\n 12931: t0 = 424, jump @943\n      : @438 [@dyn 212] (gas: 1)\n 12937: jump @385 if a0 == 0\n      : @439 (gas: 10)\n 12941: i32 a0 = a1 + 0x24\n 12944: a2 = s1 + 0x7ff\n 12948: a2 = a2 + 0x61\n 12951: u64 [a2 + 1560] = 0\n 12955: u64 [a2 + 1552] = 0\n 12959: u64 [a2 + 1536] = 0x22\n 12964: a1 = s1 + 0x7ff\n 12968: a1 = a1 + 0x661\n 12972: u64 [a2 + 1544] = 0\n 12976: ra = 426, jump @4\n      : @440 [@dyn 213] (gas: 9)\n 12982: a2 = u64 [s1 + 0xc8]\n 12986: a3 = u64 [s1 + 0xd0]\n 12990: a1 = u64 [s1 + 0xd8]\n 12994: a4 = 0x100000000\n 13004: a0 = 0xffffffbc\n 13014: a0 = a1 <u a0\n 13017: a0 = 0 if a3 != 0\n 13019: a0 = 0 if a2 != 0\n 13021: jump @385 if a0 == 0\n      : @441 (gas: 16)\n 13025: i32 a0 = a1 + 0x44\n 13028: a1 = u64 [0x200e8]\n 13033: u64 [s1 + 0xc0] = a4\n 13037: a4 = s1 + 0x7ff\n 13041: a4 = a4 + 0x61\n 13044: a5 = a4 + 0x500\n 13048: u64 [a5 + 0xf8] = a1\n 13052: a1 = u64 [0x200f0]\n 13057: a2 = u64 [0x200f8]\n 13062: a3 = u64 [0x20100]\n 13067: u64 [a5 + 0xf0] = a1\n 13071: u64 [a5 + 0xe8] = a2\n 13075: a1 = s1 + 0x7ff\n 13079: a1 = a1 + 0x641\n 13083: u64 [a5 + 0xe0] = a3\n 13087: ra = 428, jump @4\n      : @442 [@dyn 214] (gas: 5)\n 13093: a2 = u64 [s1 + 0xd8]\n 13097: a0 = u64 [s1 + 0xc0]\n 13101: a0 = a0 + 0xffffffffffffff9c\n 13104: a0 = a2 <u a0\n 13107: t0 = 430, jump @935\n      : @443 [@dyn 215] (gas: 1)\n 13113: jump @385 if a0 == 0\n      : @444 (gas: 11)\n 13117: i32 a0 = a2 + 0x64\n 13120: a3 = s1 + 0x7ff\n 13124: a3 = a3 + 0x61\n 13127: u64 [a3 + 1488] = 0\n 13131: u64 [a3 + 1480] = 0\n 13135: a1 = 0x7374000000000000\n 13145: u64 [a3 + 0x5d8] = a1\n 13149: a1 = s1 + 0x7ff\n 13153: a1 = a1 + 0x621\n 13157: u64 [a3 + 1472] = 0\n 13161: ra = 432, jump @4\n      : @445 [@dyn 216] (gas: 3)\n 13167: a1 = 0x84\n 13171: a0 = u64 [s1 + 0xd8]\n 13175: ra = 434, jump @13\n      : @446 [@dyn 217] (gas: 5)\n 13181: i32 a1 = a0 + 0\n 13183: a0 = 0x1\n 13186: a2 = 0x84\n 13190: ecalli 12 // 'seal_return'\n 13192: fallthrough\n      : @447 (gas: 8)\n 13193: a1 = s1 + 0x2078\n 13197: u64 [a1 + 320] = 0\n 13201: u64 [a1 + 312] = 0\n 13205: u64 [a1 + 304] = 0\n 13209: u64 [a1 + 296] = 0x2\n 13214: a0 = s1 + 0x1420\n 13218: a1 = s1 + 0x21a0\n 13222: ra = 436, jump @6\n      : @448 [@dyn 218] (gas: 11)\n 13228: a1 = s1 + 0x1078\n 13232: a2 = a1 + 0x300\n 13236: a0 = u64 [a2 + 0xb8]\n 13240: u64 [s1 + 0x68] = a0\n 13243: a0 = u64 [a2 + 0xb0]\n 13247: u64 [s1 + 0x60] = a0\n 13250: a0 = u64 [a2 + 0xa8]\n 13254: u64 [s1 + 0x70] = a0\n 13257: a0 = s1 + 0x1400\n 13261: a1 = 0x40\n 13264: ra = 438, jump @2\n      : @449 [@dyn 219] (gas: 14)\n 13270: t0 = s1 + 0x1078\n 13274: a1 = t0 + 0x300\n 13278: a5 = u64 [a1 + 0xa0]\n 13282: a4 = u64 [a1 + 0x98]\n 13286: a3 = u64 [a1 + 0x90]\n 13290: a0 = u64 [a1 + 0x88]\n 13294: a2 = a3 | a5\n 13297: a1 = a0 | a4\n 13300: a1 = a1 | a2\n 13303: a1 = a1 >> 0x20\n 13306: a2 = a2 | a4\n 13309: a2 = a2 << 0x20\n 13312: a1 = a1 | a2\n 13315: jump @385 if a1 != 0\n      : @450 (gas: 11)\n 13319: u64 [t0 + 888] = 0\n 13323: u64 [t0 + 880] = 0\n 13327: u64 [t0 + 872] = 0\n 13331: u64 [s1 + 0x88] = a3\n 13335: a3 = 0x23b872dd00000000\n 13345: a1 = s1 + 0x13e0\n 13349: u64 [t0 + 0x380] = a3\n 13353: u64 [s1 + 0x90] = a0\n 13357: u64 [s1 + 0x80] = a4\n 13361: u64 [s1 + 0x78] = a5\n 13364: ra = 440, jump @4\n      : @451 [@dyn 220] (gas: 6)\n 13370: a0 = u64 [s1 + 0xa0]\n 13374: ra = 0x1ba\n 13378: ecalli 0 // 'address'\n 13379: a2 = u64 [s1 + 0xd0]\n 13383: t0 = 0x1bc\n 13387: jump @933\n      : @452 [@dyn 221] (gas: 2)\n 13390: a2 = u64 [s1 + 0xd0]\n 13394: t0 = 444, jump @933\n      : @453 [@dyn 222] (gas: 14)\n 13400: u64 [s1 + 0x58] = a1\n 13403: a0 = a0 >> 0x20\n 13406: a1 = reverse a2\n 13408: a2 = a1 << 0x20\n 13411: a0 = a0 | a2\n 13414: u64 [s1 + 0x50] = a0\n 13417: a1 = a1 >> 0x20\n 13420: u64 [s1 + 0x48] = a1\n 13423: a0 = u64 [s1 + 0xa0]\n 13427: ra = 0x1be\n 13431: ecalli 5 // 'caller'\n 13433: a2 = u64 [s1 + 0xd0]\n 13437: t0 = 0x1c0\n 13441: jump @926\n      : @454 [@dyn 223] (gas: 2)\n 13444: a2 = u64 [s1 + 0xd0]\n 13448: t0 = 448, jump @926\n      : @455 [@dyn 224] (gas: 51)\n 13454: t0 = a1 | a0\n 13457: a3 = a3 >> 0x20\n 13460: a2 = reverse a2\n 13462: a1 = a2 << 0x20\n 13465: t1 = a1 | a3\n 13468: t2 = a2 >> 0x20\n 13471: a0 = u64 [s1 + 0x90]\n 13475: a3 = a0 + 0x4\n 13478: a5 = a3 <u a0\n 13481: a0 = u64 [s1 + 0x88]\n 13485: a1 = a0 + a5\n 13488: a0 = a1 <u a0\n 13491: a0 = a5 if a5 == 0\n 13494: a4 = u64 [s1 + 0x80]\n 13498: a0 = a0 + a4\n 13501: a5 = a0 <u a4\n 13504: a4 = u64 [s1 + 0x78]\n 13507: a5 = a5 + a4\n 13510: a4 = s1 + 0x1078\n 13514: a2 = u64 [s1 + 0x48]\n 13517: u64 [a4 + 0x2f8] = a2\n 13521: a2 = u64 [s1 + 0x50]\n 13524: u64 [a4 + 0x2f0] = a2\n 13528: a2 = u64 [s1 + 0x58]\n 13531: u64 [a4 + 0x2e8] = a2\n 13535: a2 = a4 + 0x300\n 13539: u64 [a2 + 0x40] = a5\n 13542: u64 [a2 + 0x38] = a0\n 13545: a0 = u64 [s1 + 0xc0]\n 13549: a5 = a4 + 0x200\n 13553: u64 [a5 + 0xe0] = a0\n 13557: a0 = u64 [s1 + 0xb8]\n 13561: u64 [a5 + 0xd8] = a0\n 13565: a0 = u64 [s1 + 0xb0]\n 13569: u64 [a5 + 0xd0] = a0\n 13573: a0 = u64 [s1 + 0xa8]\n 13577: u64 [a5 + 0xc8] = a0\n 13581: u64 [a4 + 768] = 0\n 13585: u64 [a2 + 0x30] = a1\n 13588: u64 [a2 + 0x28] = a3\n 13591: u64 [a4 + 0x318] = t2\n 13595: u64 [a4 + 0x310] = t1\n 13599: u64 [a4 + 0x308] = t0\n 13603: a5 = a4\n 13605: a0 = s1 + 0x13c0\n 13609: a1 = s1 + 0x13a0\n 13613: a2 = s1 + 0x1380\n 13617: a3 = s1 + 0x1360\n 13621: a4 = s1 + 0x1340\n 13625: u64 [a5 + 800] = 0\n 13629: ra = 450, jump @854\n      : @456 [@dyn 225] (gas: 30)\n 13635: a1 = s1 + 0x1078\n 13639: a0 = u64 [a1 + 0x350]\n 13643: t0 = u64 [a1 + 0x360]\n 13647: t1 = u64 [a1 + 0x348]\n 13651: a3 = u64 [a1 + 0x358]\n 13655: a1 = u64 [s1 + 0x88]\n 13659: a4 = a0 ^ a1\n 13662: a5 = a0 <u a1\n 13665: ra = u64 [s1 + 0x90]\n 13669: t2 = t1 <u ra\n 13672: a5 = t2 if a4 == 0\n 13675: a2 = u64 [s1 + 0x80]\n 13679: a4 = a3 - a2\n 13682: a3 = a3 <u a2\n 13685: a2 = u64 [s1 + 0x78]\n 13688: a2 = t0 - a2\n 13691: a2 = a2 - a3\n 13694: a3 = a4 <u a5\n 13697: a2 = a2 - a3\n 13700: u64 [s1 + 0x50] = a2\n 13703: a4 = a4 - a5\n 13706: u64 [s1 + 0x48] = a4\n 13709: a0 = a0 - a1\n 13712: a0 = a0 - t2\n 13715: u64 [s1 + 0x40] = a0\n 13718: a0 = t1 - ra\n 13721: u64 [s1 + 0x58] = a0\n 13724: ra = 0x1c4\n 13728: ecalli 9 // 'ref_time_left'\n 13730: fallthrough\n      : @457 [@dyn 226] (gas: 14)\n 13731: a0 = u64 [s1 + 0x60]\n 13734: a0 = reverse a0\n 13736: a1 = a0 << 0x20\n 13739: a2 = u64 [s1 + 0x68]\n 13742: a2 = reverse a2\n 13744: a2 = a2 >> 0x20\n 13747: a1 = a1 | a2\n 13750: a2 = u64 [s1 + 0x70]\n 13753: a2 = reverse a2\n 13755: a3 = a2 << 0x20\n 13758: a0 = a0 >> 0x20\n 13761: a0 = a0 | a3\n 13764: a3 = u64 [s1 + 0xd0]\n 13768: t0 = 454, jump @938\n      : @458 [@dyn 227] (gas: 17)\n 13774: u64 [a2 + 352] = 0\n 13778: u64 [a2 + 344] = 0\n 13782: u64 [a2 + 336] = 0\n 13786: a0 = u64 [s1 + 0x58]\n 13789: t0 = a0\n 13791: a5 = u64 [s1 + 0x48]\n 13794: a0 = a0 | a5\n 13797: a1 = u64 [s1 + 0x50]\n 13800: a4 = u64 [s1 + 0x40]\n 13803: a1 = a1 | a4\n 13806: a0 = a0 | a1\n 13809: a0 = a0 >> 0x20\n 13812: a1 = a1 | a5\n 13815: a1 = a1 << 0x20\n 13818: a0 = a0 | a1\n 13821: u64 [a2 + 328] = 0\n 13825: jump @385 if a0 != 0\n      : @459 (gas: 3)\n 13829: a0 = u64 [s1 + 0x90]\n 13833: a1 = t0\n 13835: ra = 456, jump @13\n      : @460 [@dyn 228] (gas: 4)\n 13841: u64 [s1 + 0x70] = a0\n 13844: a1 = 0x20\n 13847: a0 = u64 [s1 + 0x90]\n 13851: ra = 458, jump @13\n      : @461 [@dyn 229] (gas: 34)\n 13857: a2 = s1 + 0x2078\n 13861: a3 = a2 + 0x100\n 13865: u32 [a3 + 104] = 0x20\n 13869: u64 [a3 + 160] = 0xffffffffffffffff\n 13874: u64 [a3 + 152] = 0xffffffffffffffff\n 13879: u64 [a3 + 144] = 0xffffffffffffffff\n 13884: u64 [a3 + 136] = 0xffffffffffffffff\n 13889: a1 = u64 [s1 + 0xd0]\n 13893: a1 = a1 << 0x20\n 13896: a1 = a1 >> 0x20\n 13899: a2 = 0x800000000\n 13909: t0 = a1 | a2\n 13912: a1 = s1 + 0x21c0\n 13916: a1 = a1 << 0x20\n 13919: a1 = a1 >> 0x20\n 13922: a2 = s1 + 0x2200\n 13926: a2 = a2 << 0x20\n 13929: a3 = a2 | a1\n 13932: a1 = u64 [s1 + 0x70]\n 13935: a1 = a1 << 0x20\n 13938: a1 = a1 >> 0x20\n 13941: a4 = u64 [s1 + 0x58]\n 13944: a4 = a4 << 0x20\n 13947: a4 = a4 | a1\n 13950: a0 = a0 << 0x20\n 13953: a0 = a0 >> 0x20\n 13956: a1 = s1 + 0x21e0\n 13960: a1 = a1 << 0x20\n 13963: a5 = a1 | a0\n 13966: a1 = 0xffffffffffffffff\n 13969: a2 = 0xffffffffffffffff\n 13972: a0 = t0\n 13974: ecalli 1 // 'call'\n 13976: fallthrough\n      : @462 (gas: 1)\n 13977: jump @464 if a0 == 0\n      : @463 (gas: 1)\n 13980: jump @632\n      : @464 (gas: 2)\n 13983: ecalli 11 // 'return_data_size'\n 13985: fallthrough\n      : @465 (gas: 2)\n 13986: a1 = 0x20\n 13989: jump @467 if a0 >=u a1\n      : @466 (gas: 3)\n 13992: ecalli 11 // 'return_data_size'\n 13994: a1 = a0\n 13996: fallthrough\n      : @467 (gas: 18)\n 13997: a2 = s1 + 0x1078\n 14001: a3 = u64 [s1 + 0x90]\n 14005: a4 = u64 [s1 + 0x80]\n 14009: a5 = u64 [s1 + 0x78]\n 14012: u64 [s1 + 0x68] = a1\n 14015: u64 [s1 + 112] = 0\n 14018: u64 [a2 + 0x268] = a1\n 14022: u64 [a2 + 0x288] = a3\n 14026: u64 [a2 + 624] = 0\n 14030: a3 = u64 [s1 + 0x88]\n 14034: u64 [a2 + 0x290] = a3\n 14038: u64 [a2 + 632] = 0\n 14042: u64 [a2 + 0x298] = a4\n 14046: u64 [a2 + 640] = 0\n 14050: a0 = s1 + 0x1300\n 14054: a1 = s1 + 0x12e0\n 14058: u64 [a2 + 0x2a0] = a5\n 14062: ra = 460, jump @810\n      : @468 [@dyn 230] (gas: 35)\n 14068: t1 = u64 [s1 + 0x90]\n 14072: a0 = u64 [s1 + 0x68]\n 14075: ra = a0 + t1\n 14078: a1 = ra <u a0\n 14081: t0 = u64 [s1 + 0x88]\n 14085: a5 = u64 [s1 + 0x70]\n 14088: a2 = a5 + t0\n 14091: a2 = a2 + a1\n 14094: a3 = a2 ^ a5\n 14097: a4 = a2 <u a5\n 14100: a4 = a1 if a3 == 0\n 14103: a3 = u64 [s1 + 0x80]\n 14107: a1 = a5 + a3\n 14110: a4 = a4 + a1\n 14113: t2 = a4 <u a1\n 14116: a1 = a1 <u a5\n 14119: a0 = u64 [s1 + 0x78]\n 14122: a5 = a5 + a0\n 14125: a1 = a1 + a5\n 14128: t2 = t2 + a1\n 14131: a1 = s1 + 0x1078\n 14135: a5 = a1 + 0x200\n 14139: u64 [a5 + 0x18] = a4\n 14142: u64 [a5 + 0x10] = a2\n 14145: u64 [a1 + 0x208] = ra\n 14149: u64 [a5 + 0x40] = a0\n 14152: u64 [a5 + 0x38] = a3\n 14155: u64 [a1 + 0x230] = t0\n 14159: u64 [a1 + 0x228] = t1\n 14163: a3 = a1\n 14165: a0 = s1 + 0x12c0\n 14169: a1 = s1 + 0x12a0\n 14173: a2 = s1 + 0x1280\n 14177: u64 [a3 + 0x220] = t2\n 14181: ra = 462, jump @820\n      : @469 [@dyn 231] (gas: 7)\n 14187: a0 = sp + 0xffffffffffffffe0\n 14190: a0 = a0 & 0xffffffffffffffe0\n 14193: u64 [s1 + 0x90] = a0\n 14197: sp = a0\n 14199: a0 = s1 + 0x1260\n 14203: a1 = u64 [s1 + 0xd8]\n 14207: ra = 464, jump @6\n      : @470 [@dyn 232] (gas: 22)\n 14213: a5 = s1 + 0x1078\n 14217: a3 = u64 [a5 + 0x1e8]\n 14221: a0 = u64 [a5 + 0x1f0]\n 14225: a1 = u64 [a5 + 0x1f8]\n 14229: a2 = u64 [a5 + 0x200]\n 14233: a4 = u64 [s1 + 0xc0]\n 14237: u64 [a5 + 0x1a0] = a4\n 14241: a4 = u64 [s1 + 0xb8]\n 14245: u64 [a5 + 0x198] = a4\n 14249: a4 = u64 [s1 + 0xb0]\n 14253: u64 [a5 + 0x190] = a4\n 14257: a4 = u64 [s1 + 0xa8]\n 14261: u64 [a5 + 0x188] = a4\n 14265: a4 = a5 + 0x100\n 14269: u64 [a4 + 0xc0] = a2\n 14273: u64 [a4 + 0xb8] = a1\n 14277: u64 [a4 + 0xb0] = a0\n 14281: a0 = s1 + 0x1240\n 14285: a1 = s1 + 0x1220\n 14289: a2 = s1 + 0x1200\n 14293: u64 [a4 + 0xa8] = a3\n 14297: ra = 466, jump @793\n      : @471 [@dyn 233] (gas: 17)\n 14303: a0 = s1 + 0x1078\n 14307: a1 = a0 + 0x100\n 14311: a2 = u64 [a1 + 0xd8]\n 14315: u64 [s1 + 0x88] = a2\n 14319: a4 = u64 [a1 + 0xe0]\n 14323: u64 [s1 + 0x78] = a4\n 14326: a3 = u64 [a1 + 0xc8]\n 14330: u64 [s1 + 0x80] = a3\n 14334: a0 = u64 [a1 + 0xd0]\n 14338: u64 [s1 + 0x70] = a0\n 14341: a1 = u64 [s1 + 0x90]\n 14345: u64 [a1 + 0x10] = a2\n 14348: u64 [a1 + 0x18] = a4\n 14351: u64 [a1] = a3\n 14353: u64 [a1 + 0x8] = a0\n 14356: a0 = u64 [s1 + 0xd8]\n 14360: ra = 468, jump @7\n      : @472 [@dyn 234] (gas: 8)\n 14366: a0 = u64 [s1 + 0x78]\n 14369: a1 = u64 [s1 + 0x70]\n 14372: a0 = a0 | a1\n 14375: a1 = u64 [s1 + 0x88]\n 14379: a2 = u64 [s1 + 0x80]\n 14383: a1 = a1 | a2\n 14386: a0 = a0 | a1\n 14389: jump @475 if a0 != 0\n      : @473 (gas: 3)\n 14392: a0 = s1 + 0x11e0\n 14396: a1 = u64 [s1 + 0xc8]\n 14400: ra = 470, jump @6\n      : @474 [@dyn 235] (gas: 16)\n 14406: a3 = s1 + 0x1078\n 14410: a4 = a3 + 0x100\n 14414: a0 = u64 [a4 + 0x68]\n 14417: a1 = u64 [a4 + 0x80]\n 14421: a2 = u64 [a4 + 0x78]\n 14424: a3 = u64 [a4 + 0x70]\n 14427: a0 = a0 & 0xffffffffffffff00\n 14431: a4 = s1 + 0x2078\n 14435: a5 = a4 + 0x100\n 14439: u64 [a5 + 0xe0] = a1\n 14443: u64 [a5 + 0xd8] = a2\n 14447: u64 [a5 + 0xd0] = a3\n 14451: u64 [a5 + 0xc8] = a0\n 14455: a1 = s1 + 0x2240\n 14459: a0 = u64 [s1 + 0xc8]\n 14463: ra = 472, jump @7\n      : @475 [@dyn 236] (gas: 3)\n 14469: a0 = s1 + 0x11c0\n 14473: a1 = 0x40\n 14476: ra = 474, jump @2\n      : @476 [@dyn 237] (gas: 7)\n 14482: a3 = s1 + 0x1078\n 14486: a5 = a3 + 0x100\n 14490: a0 = u64 [a5 + 0x60]\n 14493: a1 = u64 [a5 + 0x58]\n 14496: a2 = u64 [a5 + 0x50]\n 14499: a4 = u64 [a5 + 0x48]\n 14502: t0 = 476, jump @936\n      : @477 [@dyn 238] (gas: 1)\n 14508: jump @385 if a0 != 0\n      : @478 (gas: 13)\n 14512: a0 = u64 [s1 + 0xa8]\n 14516: a2 = a3 + 0x100\n 14520: u64 [a2 + 0x28] = a0\n 14523: a0 = u64 [s1 + 0xb0]\n 14527: u64 [a2 + 0x30] = a0\n 14530: a0 = u64 [s1 + 0xb8]\n 14534: u64 [a2 + 0x38] = a0\n 14537: a1 = s1 + 0x11a0\n 14541: a0 = u64 [s1 + 0xc0]\n 14545: u64 [a2 + 0x40] = a0\n 14548: a0 = a4\n 14550: u64 [s1 + 0xd8] = a4\n 14554: ra = 478, jump @4\n      : @479 [@dyn 239] (gas: 6)\n 14560: a0 = u64 [s1 + 0xa0]\n 14564: ra = 0x1e0\n 14568: ecalli 5 // 'caller'\n 14570: a2 = u64 [s1 + 0xd0]\n 14574: t0 = 0x1e2\n 14578: jump @926\n      : @480 [@dyn 240] (gas: 2)\n 14581: a2 = u64 [s1 + 0xd0]\n 14585: t0 = 482, jump @926\n      : @481 [@dyn 241] (gas: 24)\n 14591: t0 = a1 | a0\n 14594: a3 = a3 >> 0x20\n 14597: a2 = reverse a2\n 14599: a1 = a2 << 0x20\n 14602: a1 = a1 | a3\n 14605: a2 = a2 >> 0x20\n 14608: a3 = u64 [0x200a0]\n 14613: a0 = s1 + 0x1078\n 14617: u64 [a0 + 0x120] = a3\n 14621: a3 = u64 [0x200a8]\n 14626: a4 = u64 [0x200b0]\n 14631: a5 = u64 [0x200b8]\n 14636: u64 [a0 + 0x118] = a3\n 14640: u64 [a0 + 0x110] = a4\n 14644: u64 [a0 + 256] = 0\n 14648: u64 [a0 + 0x108] = a5\n 14652: u64 [a0 + 0xf8] = a2\n 14656: u64 [a0 + 0xf0] = a1\n 14660: a1 = 0x20\n 14663: a2 = s1 + 0x1180\n 14667: a3 = s1 + 0x1160\n 14671: u64 [a0 + 0xe8] = t0\n 14675: a0 = u64 [s1 + 0xd8]\n 14679: ra = 484, jump @8\n      : @482 [@dyn 242] (gas: 5)\n 14685: a0 = 0\n 14687: a1 = u64 [s1 + 0x98]\n 14691: a2 = 0\n 14693: ecalli 12 // 'seal_return'\n 14695: jump @720\n      : @483 (gas: 6)\n 14698: a0 = u64 [s1 + 0xb0]\n 14702: ra = 0x1e6\n 14706: ecalli 5 // 'caller'\n 14708: a2 = u64 [s1 + 0xd8]\n 14712: t0 = 0x1e8\n 14716: jump @923\n      : @484 [@dyn 243] (gas: 2)\n 14719: a2 = u64 [s1 + 0xd8]\n 14723: t0 = 488, jump @923\n      : @485 [@dyn 244] (gas: 7)\n 14729: u64 [s1 + 1400] = 0\n 14733: u64 [s1 + 0x570] = a1\n 14737: u64 [s1 + 0x568] = a0\n 14741: a1 = s1 + 0x560\n 14745: u64 [s1 + 0x560] = a3\n 14749: a0 = 0\n 14751: ra = 490, jump @4\n      : @486 [@dyn 245] (gas: 7)\n 14757: u64 [s1 + 1368] = 0\n 14761: u64 [s1 + 1360] = 0\n 14765: u64 [s1 + 1344] = 0x4\n 14770: a0 = 0x20\n 14773: a1 = s1 + 0x540\n 14777: u64 [s1 + 1352] = 0\n 14781: ra = 492, jump @4\n      : @487 [@dyn 246] (gas: 7)\n 14787: a0 = sp + 0xffffffffffffffe0\n 14790: a0 = a0 & 0xffffffffffffffe0\n 14793: u64 [s1 + 0xa8] = a0\n 14797: sp = a0\n 14799: a2 = u64 [s1 + 0x98]\n 14803: a0 = i32 [a2]\n 14805: jump @489 if a0 >u 63\n      : @488 (gas: 2)\n 14809: u32 [a2 + 0] = 0x40\n 14812: fallthrough\n      : @489 (gas: 12)\n 14813: a0 = sp + 0xffffffffffffffe0\n 14816: a0 = a0 & 0xffffffffffffffe0\n 14819: u64 [s1 + 0x98] = a0\n 14823: sp = a0\n 14825: i32 a2 = a0 + 0\n 14827: a1 = 0x40\n 14830: a0 = u64 [s1 + 0xa0]\n 14834: ra = 0x1ee\n 14838: ecalli 8 // 'hash_keccak_256'\n 14840: a3 = u64 [s1 + 0x98]\n 14844: t0 = 0x1f0\n 14848: jump @946\n      : @490 [@dyn 247] (gas: 2)\n 14851: a3 = u64 [s1 + 0x98]\n 14855: t0 = 496, jump @946\n      : @491 [@dyn 248] (gas: 7)\n 14861: a1 = u64 [s1 + 0xa8]\n 14865: u64 [a1 + 0x18] = a3\n 14868: u64 [a1 + 0x10] = a2\n 14871: u64 [a1 + 0x8] = a4\n 14874: u64 [a1] = a0\n 14876: a0 = s1 + 0x520\n 14880: ra = 498, jump @6\n      : @492 [@dyn 249] (gas: 20)\n 14886: a3 = u64 [s1 + 0x520]\n 14890: a0 = u64 [s1 + 0x528]\n 14894: a1 = u64 [s1 + 0x530]\n 14898: a2 = u64 [s1 + 0x538]\n 14902: a4 = u64 [s1 + 0xd0]\n 14906: u64 [s1 + 0x4d8] = a4\n 14910: a4 = u64 [s1 + 0xc8]\n 14914: u64 [s1 + 0x4d0] = a4\n 14918: a4 = u64 [s1 + 0xc0]\n 14922: u64 [s1 + 0x4c8] = a4\n 14926: a4 = u64 [s1 + 0xb8]\n 14930: u64 [s1 + 0x4c0] = a4\n 14934: u64 [s1 + 0x4f8] = a2\n 14938: u64 [s1 + 0x4f0] = a1\n 14942: u64 [s1 + 0x4e8] = a0\n 14946: a0 = s1 + 0x500\n 14950: a1 = s1 + 0x4e0\n 14954: a2 = s1 + 0x4c0\n 14958: u64 [s1 + 0x4e0] = a3\n 14962: ra = 500, jump @793\n      : @493 [@dyn 250] (gas: 14)\n 14968: a4 = s1 + 0x500\n 14972: a0 = u64 [a4 + 0x18]\n 14975: a1 = u64 [a4 + 0x10]\n 14978: a2 = u64 [a4 + 0x8]\n 14981: a3 = u64 [a4]\n 14983: a4 = s1 + 0x1878\n 14987: a5 = a4 + 0x400\n 14991: u64 [a5 + 0xe0] = a0\n 14995: u64 [a5 + 0xd8] = a1\n 14999: u64 [a5 + 0xd0] = a2\n 15003: u64 [a5 + 0xc8] = a3\n 15007: a1 = s1 + 0x1d40\n 15011: a0 = u64 [s1 + 0xa8]\n 15015: ra = 502, jump @7\n      : @494 [@dyn 251] (gas: 9)\n 15021: a0 = s1 + 0x1878\n 15025: u64 [a0 + 1280] = 0\n 15029: u64 [a0 + 1272] = 0\n 15033: u64 [a0 + 1264] = 0\n 15037: a1 = a0\n 15039: u64 [a1 + 1256] = 0x1\n 15044: a0 = s1 + 0x4a0\n 15048: a1 = s1 + 0x1d60\n 15052: ra = 504, jump @6\n      : @495 [@dyn 252] (gas: 9)\n 15058: a0 = u64 [s1 + 0x4b0]\n 15062: u64 [s1 + 0x78] = a0\n 15065: a0 = u64 [s1 + 0x4a8]\n 15069: u64 [s1 + 0x70] = a0\n 15072: a0 = u64 [s1 + 0x4a0]\n 15076: u64 [s1 + 0x80] = a0\n 15080: a0 = s1 + 0x480\n 15084: a1 = 0x40\n 15087: ra = 506, jump @2\n      : @496 [@dyn 253] (gas: 13)\n 15093: a1 = s1 + 0x400\n 15097: a5 = u64 [a1 + 0x98]\n 15101: a4 = u64 [a1 + 0x90]\n 15105: a3 = u64 [a1 + 0x88]\n 15109: a0 = u64 [a1 + 0x80]\n 15113: a2 = a3 | a5\n 15116: a1 = a0 | a4\n 15119: a1 = a1 | a2\n 15122: a1 = a1 >> 0x20\n 15125: a2 = a2 | a4\n 15128: a2 = a2 << 0x20\n 15131: a1 = a1 | a2\n 15134: jump @385 if a1 != 0\n      : @497 (gas: 11)\n 15138: u64 [s1 + 1136] = 0\n 15142: u64 [s1 + 1128] = 0\n 15146: u64 [s1 + 1120] = 0\n 15150: a2 = 0xa9059cbb00000000\n 15160: a1 = s1 + 0x460\n 15164: u64 [s1 + 0x478] = a2\n 15168: u64 [s1 + 0xa8] = a0\n 15172: u64 [s1 + 0x98] = a3\n 15176: u64 [s1 + 0x90] = a4\n 15180: u64 [s1 + 0x88] = a5\n 15184: ra = 508, jump @4\n      : @498 [@dyn 254] (gas: 49)\n 15190: a0 = u64 [s1 + 0xb0]\n 15194: ecalli 5 // 'caller'\n 15196: a2 = u64 [s1 + 0xd8]\n 15200: a0 = u64 [a2 + 0x8]\n 15203: a1 = i32 [a2 + 0x10]\n 15206: a2 = u64 [a2]\n 15208: a0 = reverse a0\n 15210: a3 = a0 << 0x20\n 15213: a1 = reverse a1\n 15215: a1 = a1 >> 0x20\n 15218: t0 = a1 | a3\n 15221: a0 = a0 >> 0x20\n 15224: a1 = reverse a2\n 15226: a2 = a1 << 0x20\n 15229: t1 = a2 | a0\n 15232: a1 = a1 >> 0x20\n 15235: a0 = u64 [s1 + 0xa8]\n 15239: a2 = a0 + 0x4\n 15242: a3 = a2 <u a0\n 15245: a0 = u64 [s1 + 0x98]\n 15249: a5 = a0 + a3\n 15252: a4 = a5 <u a0\n 15255: a4 = a3 if a3 == 0\n 15258: a0 = u64 [s1 + 0x90]\n 15262: a4 = a4 + a0\n 15265: a3 = a4 <u a0\n 15268: a0 = u64 [s1 + 0x88]\n 15272: a3 = a3 + a0\n 15275: a0 = u64 [s1 + 0xd0]\n 15279: u64 [s1 + 0x3f8] = a0\n 15283: a0 = u64 [s1 + 0xc8]\n 15287: u64 [s1 + 0x3f0] = a0\n 15291: a0 = u64 [s1 + 0xc0]\n 15295: u64 [s1 + 0x3e8] = a0\n 15299: a0 = u64 [s1 + 0xb8]\n 15303: u64 [s1 + 0x3e0] = a0\n 15307: u64 [s1 + 1048] = 0\n 15311: u64 [s1 + 0x438] = a3\n 15315: u64 [s1 + 0x430] = a4\n 15319: u64 [s1 + 0x428] = a5\n 15323: u64 [s1 + 0x420] = a2\n 15327: u64 [s1 + 0x410] = a1\n 15331: u64 [s1 + 0x408] = t1\n 15335: a0 = s1 + 0x440\n 15339: a1 = s1 + 0x420\n 15343: a2 = s1 + 0x400\n 15347: a3 = s1 + 0x3e0\n 15351: u64 [s1 + 0x400] = t0\n 15355: ra = 510, jump @829\n      : @499 [@dyn 255] (gas: 16)\n 15361: a0 = u64 [s1 + 0x448]\n 15365: t0 = u64 [s1 + 0x458]\n 15369: t1 = u64 [s1 + 0x440]\n 15373: a3 = u64 [s1 + 0x450]\n 15377: a1 = u64 [s1 + 0x98]\n 15381: a4 = a0 ^ a1\n 15384: a5 = a0 <u a1\n 15387: ra = u64 [s1 + 0xa8]\n 15391: t2 = t1 <u ra\n 15394: a5 = t2 if a4 == 0\n 15397: a2 = u64 [s1 + 0x90]\n 15401: a4 = a3 - a2\n 15404: a3 = a3 <u a2\n 15407: a2 = u64 [s1 + 0x88]\n 15411: a2 = t0 - a2\n 15414: t0 = 512, jump @942\n      : @500 [@dyn 256] (gas: 3)\n 15420: u64 [s1 + 0x68] = a0\n 15423: ecalli 9 // 'ref_time_left'\n 15425: fallthrough\n      : @501 (gas: 35)\n 15426: a0 = u64 [s1 + 0x70]\n 15429: a0 = reverse a0\n 15431: a1 = a0 << 0x20\n 15434: a2 = u64 [s1 + 0x78]\n 15437: a2 = reverse a2\n 15439: a2 = a2 >> 0x20\n 15442: a1 = a1 | a2\n 15445: a2 = u64 [s1 + 0x80]\n 15449: a2 = reverse a2\n 15451: a3 = a2 << 0x20\n 15454: a0 = a0 >> 0x20\n 15457: a0 = a0 | a3\n 15460: a3 = u64 [s1 + 0xd8]\n 15464: a2 = a2 >> 0x20\n 15467: u64 [a3 + 0x8] = a0\n 15470: u64 [a3] = a1\n 15472: u32 [a3 + 0x10] = a2\n 15475: a2 = s1 + 0x1878\n 15479: u64 [a2 + 1312] = 0\n 15483: u64 [a2 + 1304] = 0\n 15487: u64 [a2 + 1296] = 0\n 15491: a0 = u64 [s1 + 0x68]\n 15494: t0 = a0\n 15496: a5 = u64 [s1 + 0x58]\n 15499: a0 = a0 | a5\n 15502: a1 = u64 [s1 + 0x60]\n 15505: a4 = u64 [s1 + 0x50]\n 15508: a1 = a1 | a4\n 15511: a0 = a0 | a1\n 15514: a0 = a0 >> 0x20\n 15517: a1 = a1 | a5\n 15520: a1 = a1 << 0x20\n 15523: a0 = a0 | a1\n 15526: u64 [a2 + 1288] = 0\n 15530: jump @503 if a0 == 0\n      : @502 (gas: 1)\n 15533: jump @385\n      : @503 (gas: 3)\n 15536: a0 = u64 [s1 + 0xa8]\n 15540: a1 = t0\n 15542: ra = 514, jump @13\n      : @504 [@dyn 257] (gas: 4)\n 15548: u64 [s1 + 0x80] = a0\n 15552: a1 = 0x20\n 15555: a0 = u64 [s1 + 0xa8]\n 15559: ra = 516, jump @13\n      : @505 [@dyn 258] (gas: 34)\n 15565: a2 = s1 + 0x1878\n 15569: a3 = a2 + 0x500\n 15573: u32 [a3 + 40] = 0x20\n 15577: u64 [a3 + 96] = 0xffffffffffffffff\n 15581: u64 [a3 + 88] = 0xffffffffffffffff\n 15585: u64 [a3 + 80] = 0xffffffffffffffff\n 15589: u64 [a3 + 72] = 0xffffffffffffffff\n 15593: a1 = u64 [s1 + 0xd8]\n 15597: a1 = a1 << 0x20\n 15600: a1 = a1 >> 0x20\n 15603: a2 = 0x800000000\n 15613: t0 = a1 | a2\n 15616: a1 = s1 + 0x1d80\n 15620: a1 = a1 << 0x20\n 15623: a1 = a1 >> 0x20\n 15626: a2 = s1 + 0x1dc0\n 15630: a2 = a2 << 0x20\n 15633: a3 = a2 | a1\n 15636: a1 = u64 [s1 + 0x80]\n 15640: a1 = a1 << 0x20\n 15643: a1 = a1 >> 0x20\n 15646: a4 = u64 [s1 + 0x68]\n 15649: a4 = a4 << 0x20\n 15652: a4 = a4 | a1\n 15655: a0 = a0 << 0x20\n 15658: a0 = a0 >> 0x20\n 15661: a1 = s1 + 0x1da0\n 15665: a1 = a1 << 0x20\n 15668: a5 = a1 | a0\n 15671: a1 = 0xffffffffffffffff\n 15674: a2 = 0xffffffffffffffff\n 15677: a0 = t0\n 15679: ecalli 1 // 'call'\n 15681: fallthrough\n      : @506 (gas: 1)\n 15682: jump @508 if a0 == 0\n      : @507 (gas: 1)\n 15685: jump @642\n      : @508 (gas: 2)\n 15688: ecalli 11 // 'return_data_size'\n 15690: fallthrough\n      : @509 (gas: 2)\n 15691: a1 = 0x20\n 15694: jump @511 if a0 >=u a1\n      : @510 (gas: 3)\n 15697: ecalli 11 // 'return_data_size'\n 15699: a1 = a0\n 15701: fallthrough\n      : @511 (gas: 17)\n 15702: a2 = u64 [s1 + 0xa8]\n 15706: a3 = u64 [s1 + 0x98]\n 15710: a4 = u64 [s1 + 0x90]\n 15714: a5 = u64 [s1 + 0x88]\n 15718: u64 [s1 + 0x78] = a1\n 15721: u64 [s1 + 128] = 0\n 15725: u64 [s1 + 0x380] = a1\n 15729: u64 [s1 + 0x3a0] = a2\n 15733: u64 [s1 + 904] = 0\n 15737: u64 [s1 + 0x3a8] = a3\n 15741: u64 [s1 + 912] = 0\n 15745: u64 [s1 + 0x3b0] = a4\n 15749: u64 [s1 + 920] = 0\n 15753: a0 = s1 + 0x3a0\n 15757: a1 = s1 + 0x380\n 15761: u64 [s1 + 0x3b8] = a5\n 15765: ra = 518, jump @810\n      : @512 [@dyn 259] (gas: 32)\n 15771: t0 = u64 [s1 + 0xa8]\n 15775: a0 = u64 [s1 + 0x78]\n 15778: ra = a0 + t0\n 15781: a1 = ra <u a0\n 15784: t1 = u64 [s1 + 0x98]\n 15788: a5 = u64 [s1 + 0x80]\n 15792: a2 = a5 + t1\n 15795: a2 = a2 + a1\n 15798: a3 = a2 ^ a5\n 15801: a4 = a2 <u a5\n 15804: a4 = a1 if a3 == 0\n 15807: a3 = u64 [s1 + 0x90]\n 15811: a1 = a5 + a3\n 15814: a4 = a4 + a1\n 15817: t2 = a4 <u a1\n 15820: a1 = a1 <u a5\n 15823: a0 = u64 [s1 + 0x88]\n 15827: a5 = a5 + a0\n 15830: a1 = a1 + a5\n 15833: t2 = t2 + a1\n 15836: u64 [s1 + 0x330] = a4\n 15840: u64 [s1 + 0x328] = a2\n 15844: u64 [s1 + 0x320] = ra\n 15848: u64 [s1 + 0x358] = a0\n 15852: u64 [s1 + 0x350] = a3\n 15856: u64 [s1 + 0x348] = t1\n 15860: u64 [s1 + 0x340] = t0\n 15864: a0 = s1 + 0x360\n 15868: a1 = s1 + 0x340\n 15872: a2 = s1 + 0x320\n 15876: u64 [s1 + 0x338] = t2\n 15880: ra = 520, jump @820\n      : @513 [@dyn 260] (gas: 3)\n 15886: a0 = s1 + 0x300\n 15890: a1 = 0x40\n 15893: ra = 522, jump @2\n      : @514 [@dyn 261] (gas: 13)\n 15899: a4 = s1 + 0x300\n 15903: a0 = u64 [a4 + 0x18]\n 15906: a1 = u64 [a4 + 0x10]\n 15909: a2 = u64 [a4 + 0x8]\n 15912: a3 = u64 [a4]\n 15914: a0 = a0 | a2\n 15917: a2 = a3 | a1\n 15920: a2 = a2 | a0\n 15923: a2 = a2 >> 0x20\n 15926: a0 = a0 | a1\n 15929: a0 = a0 << 0x20\n 15932: a0 = a0 | a2\n 15935: jump @516 if a0 == 0\n      : @515 (gas: 1)\n 15938: jump @385\n      : @516 (gas: 12)\n 15941: a0 = u64 [s1 + 0xb8]\n 15945: u64 [s1 + 0x2e0] = a0\n 15949: a0 = u64 [s1 + 0xc0]\n 15953: u64 [s1 + 0x2e8] = a0\n 15957: a0 = u64 [s1 + 0xc8]\n 15961: u64 [s1 + 0x2f0] = a0\n 15965: a1 = s1 + 0x2e0\n 15969: a0 = u64 [s1 + 0xd0]\n 15973: u64 [s1 + 0x2f8] = a0\n 15977: a0 = a3\n 15979: u64 [s1 + 0xd0] = a3\n 15983: ra = 524, jump @4\n      : @517 [@dyn 262] (gas: 6)\n 15989: a0 = u64 [s1 + 0xb0]\n 15993: ra = 0x20e\n 15997: ecalli 5 // 'caller'\n 15999: a2 = u64 [s1 + 0xd8]\n 16003: t0 = 0x210\n 16007: jump @926\n      : @518 [@dyn 263] (gas: 2)\n 16010: a2 = u64 [s1 + 0xd8]\n 16014: t0 = 528, jump @926\n      : @519 [@dyn 264] (gas: 24)\n 16020: t0 = a1 | a0\n 16023: a3 = a3 >> 0x20\n 16026: a2 = reverse a2\n 16028: a1 = a2 << 0x20\n 16031: a1 = a1 | a3\n 16034: a2 = a2 >> 0x20\n 16037: u64 [s1 + 696] = 0\n 16041: a3 = u64 [0x20140]\n 16046: a4 = u64 [0x20148]\n 16051: a5 = u64 [0x20150]\n 16056: a0 = u64 [0x20158]\n 16061: u64 [s1 + 0x2d8] = a3\n 16065: a3 = s1 + 0x200\n 16069: u64 [a3 + 0xd0] = a4\n 16073: u64 [a3 + 0xc8] = a5\n 16077: u64 [a3 + 0xc0] = a0\n 16081: u64 [a3 + 0xb0] = a2\n 16085: u64 [a3 + 0xa8] = a1\n 16089: a1 = 0x20\n 16092: a2 = s1 + 0x2c0\n 16096: a3 = s1 + 0x2a0\n 16100: u64 [s1 + 0x2a0] = t0\n 16104: a0 = u64 [s1 + 0xd0]\n 16108: ra = 530, jump @8\n      : @520 [@dyn 265] (gas: 5)\n 16114: a0 = 0\n 16116: a1 = u64 [s1 + 0xa0]\n 16120: a2 = 0\n 16122: ecalli 12 // 'seal_return'\n 16124: jump @720\n      : @521 (gas: 3)\n 16127: a0 = s1 + 0x1760\n 16131: a1 = 0x40\n 16134: ra = 532, jump @2\n      : @522 [@dyn 266] (gas: 14)\n 16140: a0 = s1 + 0x1078\n 16144: a1 = u64 [a0 + 0x700]\n 16148: u64 [s1 + 0xd0] = a1\n 16152: a2 = a0 + 0x600\n 16156: a1 = u64 [a2 + 0xf8]\n 16160: u64 [s1 + 0xc8] = a1\n 16164: a1 = u64 [a2 + 0xf0]\n 16168: u64 [s1 + 0xc0] = a1\n 16172: a0 = u64 [a2 + 0xe8]\n 16176: u64 [s1 + 0xd8] = a0\n 16180: ra = 0x216\n 16184: ecalli 11 // 'return_data_size'\n 16186: t0 = 0x218\n 16190: jump @928\n      : @523 [@dyn 267] (gas: 1)\n 16193: t0 = 536, jump @928\n      : @524 [@dyn 268] (gas: 1)\n 16199: jump @526 if a1 == 0\n      : @525 (gas: 1)\n 16202: jump @385\n      : @526 (gas: 3)\n 16205: a2 = a0\n 16207: a0 = a0 >> 0x20\n 16210: jump @528 if a0 == 0\n      : @527 (gas: 1)\n 16213: jump @385\n      : @528 (gas: 1)\n 16216: t0 = 538, jump @951\n      : @529 [@dyn 269] (gas: 1)\n 16222: ra = 540, jump @13\n      : @530 [@dyn 270] (gas: 11)\n 16228: a1 = s1 + 0x2078\n 16232: a2 = u64 [s1 + 0xc8]\n 16236: u32 [a1 + 0x348] = a2\n 16240: i32 a0 = a0 + 0\n 16242: a1 = s1 + 0x2000\n 16246: i32 a1 = a1 + 0x3c0\n 16250: a2 = 0\n 16252: ecalli 10 // 'return_data_copy'\n 16254: a0 = s1 + 0x2078\n 16258: a0 = i32 [a0 + 0x348]\n 16262: fallthrough\n      : @531 (gas: 2)\n 16263: a1 = u64 [s1 + 0xd0]\n 16267: jump @533 if a0 >=u a1\n      : @532 (gas: 1)\n 16270: jump @385\n      : @533 (gas: 2)\n 16273: ecalli 11 // 'return_data_size'\n 16275: fallthrough\n      : @534 (gas: 3)\n 16276: a1 = a0\n 16278: a0 = a0 >> 0x20\n 16281: jump @536 if a0 == 0\n      : @535 (gas: 1)\n 16284: jump @385\n      : @536 (gas: 3)\n 16287: a0 = u64 [s1 + 0xd8]\n 16291: u64 [s1 + 0xd0] = a1\n 16295: ra = 542, jump @13\n      : @537 [@dyn 271] (gas: 5)\n 16301: i32 a1 = a0 + 0\n 16303: a2 = i32 [s1 + 0xd0]\n 16307: a0 = 0x1\n 16310: ecalli 12 // 'seal_return'\n 16312: fallthrough\n      : @538 (gas: 5)\n 16313: a0 = u64 [s1 + 0xd8]\n 16317: a2 = a0 + 0xffffffffffffff80\n 16320: a0 = u64 [s1 + 0x80]\n 16324: a1 = u64 [s1 + 0x90]\n 16328: ra = 544, jump @956\n      : @539 [@dyn 272] (gas: 6)\n 16334: u64 [s1 + 0x78] = a0\n 16337: u64 [s1 + 0x68] = a1\n 16340: a0 = u64 [s1 + 0x88]\n 16344: a1 = u64 [s1 + 0x98]\n 16348: a2 = u64 [s1 + 0xd8]\n 16352: ra = 546, jump @956\n      : @540 [@dyn 273] (gas: 7)\n 16358: u64 [s1 + 0x20] = a0\n 16361: u64 [s1 + 0x70] = a1\n 16364: a1 = u64 [s1 + 0xd8]\n 16368: a2 = 0x80 - a1\n 16372: a0 = u64 [s1 + 0x80]\n 16376: a1 = u64 [s1 + 0x90]\n 16380: ra = 548, jump @961\n      : @541 [@dyn 274] (gas: 21)\n 16386: a2 = u64 [s1 + 0x70]\n 16389: a1 = a1 | a2\n 16392: a3 = u64 [s1 + 0xd8]\n 16396: a4 = a3 <u 0x80\n 16400: u64 [s1 + 0x70] = a4\n 16403: a2 = u64 [s1 + 0x68]\n 16406: a1 = a2 if a4 == 0\n 16409: a2 = u64 [s1 + 0x98]\n 16413: a2 = a1 if a3 != 0\n 16416: u64 [s1 + 0x98] = a2\n 16420: a1 = u64 [s1 + 0x20]\n 16423: a0 = a0 | a1\n 16426: a1 = u64 [s1 + 0x78]\n 16429: a0 = a1 if a4 == 0\n 16432: a1 = u64 [s1 + 0x88]\n 16436: a1 = a0 if a3 != 0\n 16439: a2 = a3\n 16441: u64 [s1 + 0x88] = a1\n 16445: a0 = u64 [s1 + 0x80]\n 16449: a1 = u64 [s1 + 0x90]\n 16453: ra = 550, jump @956\n      : @542 [@dyn 275] (gas: 9)\n 16459: a5 = 0\n 16461: a2 = u64 [s1 + 0x70]\n 16464: a1 = 0 if a2 == 0\n 16466: a0 = 0 if a2 == 0\n 16468: u64 [s1 + 112] = 0x63\n 16472: u64 [s1 + 104] = 0\n 16475: t2 = u64 [s1 + 0x98]\n 16479: t0 = u64 [s1 + 0x88]\n 16483: fallthrough\n      : @543 (gas: 90)\n 16484: u64 [s1 + 0x88] = a1\n 16488: u64 [s1 + 0x90] = a5\n 16492: u64 [s1 + 120] = 0\n 16495: a2 = t0 >> 0x3f\n 16498: a3 = t2 << 0x1\n 16501: a3 = a3 | a2\n 16504: a2 = t0 << 0x1\n 16507: ra = u64 [s1 + 0xc0]\n 16511: a4 = ra >> 0x3f\n 16514: a4 = a4 | a2\n 16517: u64 [s1 + 0x98] = a4\n 16521: a2 = u64 [s1 + 0x68]\n 16524: a1 = a2 ^ a3\n 16527: u64 [s1 + 0x80] = a1\n 16531: a1 = a2 <u a3\n 16534: a5 = u64 [s1 + 0x70]\n 16537: t0 = a5 <u a4\n 16540: a4 = u64 [s1 + 0x80]\n 16544: t0 = a1 if a4 != 0\n 16547: a1 = u64 [s1 + 0x88]\n 16551: a1 = a1 << 0x1\n 16554: a4 = a0 >> 0x3f\n 16557: a1 = a1 | a4\n 16560: u64 [s1 + 0x88] = a1\n 16564: a4 = t2 >> 0x3f\n 16567: a0 = a0 << 0x1\n 16570: a4 = a4 | a0\n 16573: a0 = ra << 0x1\n 16576: a1 = u64 [s1 + 0xc8]\n 16580: a5 = a1 >> 0x3f\n 16583: a0 = a0 | a5\n 16586: u64 [s1 + 0xc0] = a0\n 16590: a5 = a1 << 0x1\n 16593: a0 = u64 [s1 + 0xb8]\n 16597: a1 = a0 >> 0x3f\n 16600: t2 = a5 | a1\n 16603: a5 = a0 << 0x1\n 16606: a0 = u64 [s1 + 0xd0]\n 16610: ra = a0 >> 0x3f\n 16613: a5 = a5 | ra\n 16616: a0 = a0 << 0x1\n 16619: a1 = u64 [s1 + 0x90]\n 16623: a0 = a0 | a1\n 16626: u64 [s1 + 0xd0] = a0\n 16630: a0 = a5 | 0\n 16632: u64 [s1 + 0xb8] = a0\n 16636: a0 = t2 | 0\n 16638: u64 [s1 + 0xc8] = a0\n 16642: a0 = u64 [s1 + 0xc0]\n 16646: a0 = a0 | 0\n 16648: u64 [s1 + 0xc0] = a0\n 16652: a0 = a2 - a4\n 16655: a0 = a0 <u t0\n 16658: a1 = a2 <u a4\n 16661: t1 = u64 [s1 + 0x88]\n 16665: a5 = a2 - t1\n 16668: a5 = a5 - a1\n 16671: a5 = a5 - a0\n 16674: ra = a5 >>a 0x3f\n 16677: a0 = ra & 0x64\n 16680: a1 = u64 [s1 + 0x98]\n 16684: t0 = a1 - a0\n 16687: a1 = a1 <u a0\n 16690: t2 = a3 - a1\n 16693: a1 = 0 if a3 != 0\n 16695: a0 = a4 - a1\n 16698: a1 = a4 <u a1\n 16701: a1 = t1 - a1\n 16704: a3 = u64 [s1 + 0xd8]\n 16708: a5 = u64 [s1 + 0xb0]\n 16712: a2 = a3 | a5\n 16715: a2 = a2 <u 0x1\n 16718: a4 = u64 [s1 + 0xa0]\n 16722: t1 = a4 <u a2\n 16725: a4 = a4 - a2\n 16728: a2 = a3 <u 0x1\n 16731: a5 = a5 - a2\n 16734: a2 = u64 [s1 + 0xa8]\n 16738: a2 = a2 - t1\n 16741: a3 = a3 + 0xffffffffffffffff\n 16744: u64 [s1 + 0xb0] = a5\n 16748: u64 [s1 + 0xa8] = a2\n 16752: a2 = a2 | a5\n 16755: u64 [s1 + 0xd8] = a3\n 16759: a3 = a3 | a4\n 16762: a2 = a2 | a3\n 16765: a5 = ra & 0x1\n 16768: u64 [s1 + 0xa0] = a4\n 16772: t1 = 0\n 16774: jump @543 if a2 != 0\n      : @544 (gas: 20)\n 16778: a2 = u64 [s1 + 0xc8]\n 16782: a0 = a2 >> 0x3f\n 16785: a1 = u64 [s1 + 0xc0]\n 16789: a1 = a1 << 0x1\n 16792: t0 = a1 | a0\n 16795: a0 = u64 [s1 + 0xb8]\n 16799: a1 = a0 >> 0x3f\n 16802: a2 = a2 << 0x1\n 16805: a2 = a2 | a1\n 16808: a1 = u64 [s1 + 0xd0]\n 16812: a3 = a1 >> 0x3f\n 16815: a0 = a0 << 0x1\n 16818: a1 = a1 << 0x1\n 16821: a4 = a5 | a1\n 16824: a1 = u64 [s1 + 0x78]\n 16827: a5 = a1 | a3\n 16830: a5 = a5 | a0\n 16833: a3 = a1 | a2\n 16836: a2 = a1 | t0\n 16839: fallthrough\n      : @545 (gas: 16)\n 16840: a0 = u64 [s1 + 0x28]\n 16843: a0 = a4 <u a0\n 16846: a4 = u64 [s1 + 0x30]\n 16849: a1 = a4 ^ a5\n 16852: a4 = a5 <u a4\n 16855: a4 = a0 if a1 == 0\n 16858: a0 = u64 [s1 + 0x38]\n 16861: t0 = a3 <u a0\n 16864: a5 = u64 [s1 + 0x40]\n 16867: a1 = a5 ^ a2\n 16870: a2 = a2 <u a5\n 16873: a2 = t0 if a1 == 0\n 16876: a0 = a0 ^ a3\n 16879: a0 = a0 | a1\n 16882: a2 = a4 if a0 == 0\n 16885: jump @564 if a2 == 0\n      : @546 (gas: 4)\n 16889: a0 = s1 + 0x7ff\n 16893: a0 = a0 + 0x161\n 16897: a1 = 0x40\n 16900: ra = 552, jump @2\n      : @547 [@dyn 276] (gas: 15)\n 16906: a2 = s1 + 0x7ff\n 16910: a2 = a2 + 0x61\n 16913: t0 = u64 [a2 + 0x118]\n 16917: a1 = a2 + 0x100\n 16921: a5 = u64 [a1 + 0x10]\n 16924: a4 = u64 [a1 + 0x8]\n 16927: a0 = u64 [a1]\n 16929: a3 = a4 | t0\n 16932: a1 = a0 | a5\n 16935: a1 = a1 | a3\n 16938: a1 = a1 >> 0x20\n 16941: a3 = a3 | a5\n 16944: a3 = a3 << 0x20\n 16947: a1 = a1 | a3\n 16950: jump @549 if a1 == 0\n      : @548 (gas: 1)\n 16953: jump @385\n      : @549 (gas: 12)\n 16956: u64 [a2 + 240] = 0\n 16960: u64 [a2 + 232] = 0\n 16964: u64 [a2 + 224] = 0\n 16968: a3 = 0x8c379a000000000\n 16978: a1 = s1 + 0x7ff\n 16982: a1 = a1 + 0x141\n 16986: u64 [a2 + 0xf8] = a3\n 16990: u64 [s1 + 0xd8] = a0\n 16994: u64 [s1 + 0xd0] = a4\n 16998: u64 [s1 + 0xc0] = t0\n 17002: u64 [s1 + 0xc8] = a5\n 17006: ra = 554, jump @4\n      : @550 [@dyn 277] (gas: 5)\n 17012: a1 = u64 [s1 + 0xd8]\n 17016: a0 = u64 [s1 + 0xc8]\n 17020: a3 = u64 [s1 + 0xc0]\n 17024: a3 = a3 | a0\n 17027: t0 = 556, jump @925\n      : @551 [@dyn 278] (gas: 1)\n 17033: jump @553 if a0 != 0\n      : @552 (gas: 1)\n 17036: jump @385\n      : @553 (gas: 13)\n 17039: i32 a0 = a1 + 0x4\n 17042: a2 = s1 + 0x7ff\n 17046: a2 = a2 + 0x61\n 17049: a5 = 0\n 17051: u64 [a2 + 216] = 0\n 17055: u64 [a2 + 208] = 0\n 17059: u64 [a2 + 192] = 0x20\n 17064: a1 = s1 + 0x7ff\n 17068: a1 = a1 + 0x121\n 17072: u64 [a2 + 200] = 0\n 17076: u64 [s1 + 0xc8] = a3\n 17080: u64 [s1 + 0xc0] = a4\n 17084: ra = 558, jump @4\n      : @554 [@dyn 279] (gas: 1)\n 17090: t0 = 560, jump @944\n      : @555 [@dyn 280] (gas: 1)\n 17096: jump @557 if a0 != 0\n      : @556 (gas: 1)\n 17099: jump @385\n      : @557 (gas: 10)\n 17102: i32 a0 = a1 + 0x24\n 17105: a2 = s1 + 0x7ff\n 17109: a2 = a2 + 0x61\n 17112: u64 [a2 + 184] = 0\n 17116: u64 [a2 + 176] = 0\n 17120: u64 [a2 + 160] = 0x1d\n 17125: a1 = s1 + 0x7ff\n 17129: a1 = a1 + 0x101\n 17133: u64 [a2 + 168] = 0\n 17137: ra = 562, jump @4\n      : @558 [@dyn 281] (gas: 1)\n 17143: t0 = 564, jump @929\n      : @559 [@dyn 282] (gas: 1)\n 17149: jump @561 if a0 != 0\n      : @560 (gas: 1)\n 17152: jump @385\n      : @561 (gas: 14)\n 17155: i32 a0 = a3 + 0x44\n 17158: a1 = u64 [0x20128]\n 17163: a2 = u64 [0x20130]\n 17168: a3 = u64 [0x20138]\n 17173: a4 = s1 + 0x7ff\n 17177: a4 = a4 + 0x61\n 17180: u64 [a4 + 0x98] = a1\n 17184: u64 [a4 + 0x90] = a2\n 17188: u64 [a4 + 0x88] = a3\n 17192: a2 = 0x6c696d6974000000\n 17202: a1 = s1 + 0x7ff\n 17206: a1 = a1 + 0xe1\n 17210: u64 [a4 + 0x80] = a2\n 17214: ra = 566, jump @4\n      : @562 [@dyn 283] (gas: 3)\n 17220: a1 = 0x64\n 17223: a0 = u64 [s1 + 0xd8]\n 17227: ra = 568, jump @13\n      : @563 [@dyn 284] (gas: 5)\n 17233: i32 a1 = a0 + 0\n 17235: a0 = 0x1\n 17238: a2 = 0x64\n 17241: ecalli 12 // 'seal_return'\n 17243: fallthrough\n      : @564 (gas: 5)\n 17244: a0 = u64 [s1 + 0x58]\n 17247: ra = 0x23a\n 17251: ecalli 5 // 'caller'\n 17253: t0 = 0x23c\n 17257: jump @924\n      : @565 [@dyn 285] (gas: 1)\n 17260: t0 = 572, jump @924\n      : @566 [@dyn 286] (gas: 9)\n 17266: u64 [a2 + 1272] = 0\n 17270: a4 = a2 + 0x400\n 17274: u64 [a4 + 0xf0] = a1\n 17278: u64 [a4 + 0xe8] = a0\n 17282: a1 = s1 + 0x7ff\n 17286: a1 = a1 + 0x541\n 17290: u64 [a4 + 0xe0] = a3\n 17294: a0 = 0\n 17296: ra = 574, jump @4\n      : @567 [@dyn 287] (gas: 6)\n 17302: a1 = s1 + 0x7ff\n 17306: a1 = a1 + 0x61\n 17309: u64 [a1 + 1240] = 0\n 17313: u64 [a1 + 1232] = 0\n 17317: u64 [a1 + 1216] = 0x4\n 17322: t0 = 576, jump @930\n      : @568 [@dyn 288] (gas: 3)\n 17328: a1 = a1 + 0x521\n 17332: u64 [a2 + 1224] = 0\n 17336: ra = 578, jump @4\n      : @569 [@dyn 289] (gas: 3)\n 17342: a2 = u64 [s1 + 0x48]\n 17345: a0 = i32 [a2]\n 17347: jump @571 if a0 >u 63\n      : @570 (gas: 3)\n 17351: u32 [a2 + 0] = 0x40\n 17354: t0 = 0x244\n 17358: jump @952\n      : @571 (gas: 1)\n 17361: t0 = 580, jump @952\n      : @572 [@dyn 290] (gas: 4)\n 17367: ra = 0x246\n 17371: ecalli 8 // 'hash_keccak_256'\n 17373: t0 = 0x248\n 17377: jump @934\n      : @573 [@dyn 291] (gas: 1)\n 17380: t0 = 584, jump @934\n      : @574 [@dyn 292] (gas: 9)\n 17386: a5 = a4 + 0x700\n 17390: u64 [a5 + 0x40] = a3\n 17393: u64 [a5 + 0x38] = a2\n 17396: u64 [a5 + 0x30] = a1\n 17399: u64 [a5 + 0x28] = a0\n 17402: a0 = s1 + 0x7ff\n 17406: a0 = a0 + 0x501\n 17410: a1 = s1 + 0x1fa0\n 17414: ra = 586, jump @6\n      : @575 [@dyn 293] (gas: 15)\n 17420: a1 = s1 + 0x7ff\n 17424: a1 = a1 + 0x61\n 17427: a2 = a1 + 0x400\n 17431: a0 = u64 [a2 + 0xb8]\n 17435: u64 [s1 + 0xb8] = a0\n 17439: a0 = u64 [a2 + 0xb0]\n 17443: u64 [s1 + 0xb0] = a0\n 17447: a0 = u64 [a2 + 0xa8]\n 17451: u64 [s1 + 0xa8] = a0\n 17455: a0 = u64 [a2 + 0xa0]\n 17459: u64 [s1 + 0xa0] = a0\n 17463: a0 = s1 + 0x7ff\n 17467: a0 = a0 + 0x4e1\n 17471: a1 = 0x40\n 17474: ra = 588, jump @2\n      : @576 [@dyn 294] (gas: 20)\n 17480: a0 = s1 + 0x7ff\n 17484: a0 = a0 + 0x61\n 17487: a5 = a0 + 0x400\n 17491: a1 = u64 [a5 + 0x98]\n 17495: u64 [s1 + 0xc8] = a1\n 17499: a2 = u64 [a5 + 0x90]\n 17503: u64 [s1 + 0xc0] = a2\n 17507: a4 = u64 [a5 + 0x88]\n 17511: u64 [s1 + 0xd0] = a4\n 17515: a3 = u64 [a5 + 0x80]\n 17519: u64 [s1 + 0xd8] = a3\n 17523: u64 [a5 + 0x78] = a1\n 17526: u64 [a5 + 0x70] = a2\n 17529: u64 [a5 + 0x68] = a4\n 17532: a1 = s1 + 0x7ff\n 17536: a1 = a1 + 0x61\n 17539: a0 = s1 + 0x7ff\n 17543: a0 = a0 + 0x4c1\n 17547: u64 [a1 + 0x460] = a3\n 17551: ra = 590, jump @801\n      : @577 [@dyn 295] (gas: 13)\n 17557: a0 = u64 [s1 + 0xc8]\n 17561: a1 = u64 [s1 + 0xd0]\n 17565: a0 = a0 | a1\n 17568: a1 = u64 [s1 + 0xd8]\n 17572: a3 = a1\n 17574: a2 = u64 [s1 + 0xc0]\n 17578: a1 = a1 | a2\n 17581: a1 = a1 | a0\n 17584: a1 = a1 >> 0x20\n 17587: a0 = a0 | a2\n 17590: a0 = a0 << 0x20\n 17593: a0 = a0 | a1\n 17596: jump @579 if a0 == 0\n      : @578 (gas: 1)\n 17599: jump @385\n      : @579 (gas: 15)\n 17602: a0 = u64 [s1 + 0x28]\n 17605: a2 = s1 + 0x7ff\n 17609: a2 = a2 + 0x61\n 17612: a4 = a2 + 0x400\n 17616: u64 [a4 + 0x40] = a0\n 17619: a0 = u64 [s1 + 0x30]\n 17622: u64 [a4 + 0x48] = a0\n 17625: a0 = u64 [s1 + 0x38]\n 17628: u64 [a4 + 0x50] = a0\n 17631: a1 = s1 + 0x7ff\n 17635: a1 = a1 + 0x4a1\n 17639: a0 = u64 [s1 + 0x40]\n 17642: u64 [a4 + 0x58] = a0\n 17645: a0 = a3\n 17647: ra = 592, jump @4\n      : @580 [@dyn 296] (gas: 11)\n 17653: a0 = u64 [s1 + 0xc8]\n 17657: a1 = u64 [s1 + 0xc0]\n 17661: a2 = a1 | a0\n 17664: a3 = 0x100000000\n 17674: a0 = 0xffffffe0\n 17684: a4 = u64 [s1 + 0xd8]\n 17688: a0 = a4 <u a0\n 17691: a1 = u64 [s1 + 0xd0]\n 17695: a0 = 0 if a1 != 0\n 17697: a0 = 0 if a2 != 0\n 17699: jump @582 if a0 != 0\n      : @581 (gas: 1)\n 17702: jump @385\n      : @582 (gas: 18)\n 17705: i32 a0 = a4 + 0x20\n 17708: u64 [s1 + 0xc8] = a2\n 17712: a2 = s1 + 0x7ff\n 17716: a2 = a2 + 0x61\n 17719: u64 [s1 + 0xc0] = a3\n 17723: a3 = u64 [s1 + 0xa0]\n 17727: a4 = a2 + 0x400\n 17731: u64 [a4 + 0x20] = a3\n 17734: a3 = u64 [s1 + 0xa8]\n 17738: u64 [a4 + 0x28] = a3\n 17741: a3 = u64 [s1 + 0xb0]\n 17745: u64 [a4 + 0x30] = a3\n 17748: a1 = s1 + 0x7ff\n 17752: a1 = a1 + 0x481\n 17756: a3 = u64 [s1 + 0xb8]\n 17760: u64 [a4 + 0x38] = a3\n 17763: u64 [s1 + 0xb8] = a0\n 17767: ra = 594, jump @4\n      : @583 [@dyn 297] (gas: 4)\n 17773: a1 = u64 [s1 + 0xd8]\n 17777: a0 = u64 [s1 + 0xc0]\n 17781: a0 = a0 + 0xffffffffffffffc0\n 17784: t0 = 596, jump @943\n      : @584 [@dyn 298] (gas: 1)\n 17790: jump @586 if a0 != 0\n      : @585 (gas: 1)\n 17793: jump @385\n      : @586 (gas: 11)\n 17796: i32 a0 = a1 + 0x40\n 17799: a3 = s1 + 0x7ff\n 17803: a3 = a3 + 0x61\n 17806: u64 [a3 + 1048] = 0\n 17810: u64 [a3 + 1040] = 0\n 17814: u64 [a3 + 1032] = 0\n 17818: a1 = s1 + 0x7ff\n 17822: a1 = a1 + 0x461\n 17826: u64 [a3 + 1024] = 0x1\n 17831: u64 [s1 + 0xa0] = a0\n 17835: ra = 598, jump @4\n      : @587 [@dyn 299] (gas: 5)\n 17841: a0 = u64 [s1 + 0x58]\n 17844: ra = 0x258\n 17848: ecalli 5 // 'caller'\n 17850: t0 = 0x25a\n 17854: jump @924\n      : @588 [@dyn 300] (gas: 1)\n 17857: t0 = 602, jump @924\n      : @589 [@dyn 301] (gas: 9)\n 17863: u64 [a2 + 1016] = 0\n 17867: a4 = a2 + 0x300\n 17871: u64 [a4 + 0xf0] = a1\n 17875: u64 [a4 + 0xe8] = a0\n 17879: a1 = s1 + 0x7ff\n 17883: a1 = a1 + 0x441\n 17887: u64 [a4 + 0xe0] = a3\n 17891: a0 = 0\n 17893: ra = 604, jump @4\n      : @590 [@dyn 302] (gas: 6)\n 17899: a1 = s1 + 0x7ff\n 17903: a1 = a1 + 0x61\n 17906: u64 [a1 + 984] = 0\n 17910: u64 [a1 + 976] = 0\n 17914: u64 [a1 + 960] = 0x5\n 17919: t0 = 606, jump @930\n      : @591 [@dyn 303] (gas: 3)\n 17925: a1 = a1 + 0x421\n 17929: u64 [a2 + 968] = 0\n 17933: ra = 608, jump @4\n      : @592 [@dyn 304] (gas: 7)\n 17939: a0 = sp + 0xffffffffffffffe0\n 17942: a0 = a0 & 0xffffffffffffffe0\n 17945: u64 [s1 + 0xb0] = a0\n 17949: sp = a0\n 17951: a2 = u64 [s1 + 0x48]\n 17954: a0 = i32 [a2]\n 17956: jump @594 if a0 >u 63\n      : @593 (gas: 2)\n 17960: u32 [a2 + 0] = 0x40\n 17963: fallthrough\n      : @594 (gas: 30)\n 17964: a0 = sp + 0xffffffffffffffe0\n 17967: a0 = a0 & 0xffffffffffffffe0\n 17970: u64 [s1 + 0xd0] = a0\n 17974: sp = a0\n 17976: i32 a2 = a0 + 0\n 17978: a1 = 0x40\n 17981: a0 = u64 [s1 + 0x50]\n 17984: ecalli 8 // 'hash_keccak_256'\n 17986: a3 = u64 [s1 + 0xd0]\n 17990: a0 = u64 [a3 + 0x18]\n 17993: a1 = u64 [a3 + 0x10]\n 17996: a2 = u64 [a3 + 0x8]\n 17999: a3 = u64 [a3]\n 18001: a4 = reverse a0\n 18003: u64 [s1 + 0xc0] = a4\n 18007: a1 = reverse a1\n 18009: u64 [s1 + 0xc8] = a1\n 18013: a2 = reverse a2\n 18015: u64 [s1 + 0xa8] = a2\n 18019: a0 = reverse a3\n 18021: u64 [s1 + 0xd0] = a0\n 18025: a3 = u64 [s1 + 0xb0]\n 18029: u64 [a3 + 0x18] = a0\n 18032: u64 [a3 + 0x10] = a2\n 18035: u64 [a3 + 0x8] = a1\n 18038: u64 [a3] = a4\n 18040: a0 = s1 + 0x7ff\n 18044: a0 = a0 + 0x401\n 18048: a1 = u64 [s1 + 0xd8]\n 18052: ra = 610, jump @2\n      : @595 [@dyn 305] (gas: 16)\n 18058: a3 = s1 + 0x7ff\n 18062: a3 = a3 + 0x61\n 18065: a4 = a3 + 0x300\n 18069: a0 = u64 [a4 + 0xb8]\n 18073: a1 = u64 [a4 + 0xb0]\n 18077: a2 = u64 [a4 + 0xa8]\n 18081: a3 = u64 [a4 + 0xa0]\n 18085: a4 = s1 + 0x1878\n 18089: a5 = a4 + 0x700\n 18093: u64 [a5 + 0x60] = a0\n 18096: u64 [a5 + 0x58] = a1\n 18099: u64 [a5 + 0x50] = a2\n 18102: u64 [a5 + 0x48] = a3\n 18105: a1 = s1 + 0x1fc0\n 18109: a0 = u64 [s1 + 0xb0]\n 18113: ra = 612, jump @7\n      : @596 [@dyn 306] (gas: 4)\n 18119: a0 = s1 + 0x7ff\n 18123: a0 = a0 + 0x3e1\n 18127: a1 = u64 [s1 + 0xb8]\n 18131: ra = 614, jump @2\n      : @597 [@dyn 307] (gas: 31)\n 18137: a0 = s1 + 0x7ff\n 18141: a0 = a0 + 0x61\n 18144: t0 = u64 [a0 + 0x380]\n 18148: t1 = u64 [a0 + 0x388]\n 18152: t2 = u64 [a0 + 0x390]\n 18156: a3 = u64 [a0 + 0x398]\n 18160: a0 = u64 [s1 + 0xc0]\n 18164: a0 = a0 + 0x1\n 18167: a5 = a0 <u 0x1\n 18170: a1 = u64 [s1 + 0xc8]\n 18174: a5 = a5 + a1\n 18177: a4 = a0 | a5\n 18180: a4 = a4 <u 0x1\n 18183: a1 = u64 [s1 + 0xa8]\n 18187: a4 = a4 + a1\n 18190: a1 = a4 <u a1\n 18193: a2 = u64 [s1 + 0xd0]\n 18197: a1 = a1 + a2\n 18200: a2 = s1 + 0x1878\n 18204: u64 [a2 + 0x780] = a1\n 18208: a1 = a2 + 0x700\n 18212: u64 [a1 + 0x78] = a4\n 18215: u64 [a1 + 0x70] = a5\n 18218: u64 [a1 + 0x68] = a0\n 18221: u64 [a1 + 0xa0] = a3\n 18225: u64 [a2 + 0x798] = t2\n 18229: u64 [a2 + 0x790] = t1\n 18233: u64 [a2 + 0x788] = t0\n 18237: a0 = s1 + 0x1fe0\n 18241: a1 = s1 + 0x2000\n 18245: ra = 616, jump @7\n      : @598 [@dyn 308] (gas: 8)\n 18251: a0 = sp + 0xffffffffffffffe0\n 18254: a5 = a0 & 0xffffffffffffffe0\n 18257: sp = a5\n 18259: a1 = u64 [s1 + 0xc0]\n 18263: a0 = a1 + 0x2\n 18266: a1 = a0 <u a1\n 18269: a3 = u64 [s1 + 0xc8]\n 18273: t0 = 618, jump @955\n      : @599 [@dyn 309] (gas: 14)\n 18279: a1 = u64 [s1 + 0xa8]\n 18283: a3 = a3 + a1\n 18286: a1 = a3 <u a1\n 18289: a4 = u64 [s1 + 0xd0]\n 18293: a1 = a1 + a4\n 18296: u64 [s1 + 0xd8] = a5\n 18300: u64 [a5 + 0x18] = a1\n 18303: u64 [a5 + 0x10] = a3\n 18306: u64 [a5 + 0x8] = a2\n 18309: u64 [a5] = a0\n 18311: a0 = s1 + 0x7ff\n 18315: a0 = a0 + 0x3c1\n 18319: a1 = u64 [s1 + 0xa0]\n 18323: ra = 620, jump @2\n      : @600 [@dyn 310] (gas: 16)\n 18329: a3 = s1 + 0x7ff\n 18333: a3 = a3 + 0x61\n 18336: a4 = a3 + 0x300\n 18340: a0 = u64 [a4 + 0x70]\n 18343: a1 = u64 [a4 + 0x78]\n 18346: a2 = u64 [a4 + 0x68]\n 18349: a3 = u64 [a4 + 0x60]\n 18352: a1 = a1 | a2\n 18355: a0 = a0 | a3\n 18358: a0 = a0 | a1\n 18361: a0 = a0 >u 0\n 18363: u64 [s1 + 0xd0] = a0\n 18367: a0 = s1 + 0x7ff\n 18371: a0 = a0 + 0x3a1\n 18375: a1 = u64 [s1 + 0xd8]\n 18379: ra = 622, jump @6\n      : @601 [@dyn 311] (gas: 19)\n 18385: a3 = s1 + 0x7ff\n 18389: a3 = a3 + 0x61\n 18392: a4 = a3 + 0x300\n 18396: a0 = u64 [a4 + 0x40]\n 18399: a1 = u64 [a4 + 0x48]\n 18402: a2 = u64 [a4 + 0x58]\n 18405: a3 = u64 [a4 + 0x50]\n 18408: a0 = a0 & 0xffffffffffffff00\n 18412: a4 = u64 [s1 + 0xd0]\n 18416: a0 = a0 | a4\n 18419: a4 = s1 + 0x1878\n 18423: a5 = a4 + 0x700\n 18427: u64 [a5 + 0xc0] = a2\n 18431: u64 [a5 + 0xb8] = a3\n 18435: u64 [a5 + 0xb0] = a1\n 18439: u64 [a5 + 0xa8] = a0\n 18443: a1 = s1 + 0x2020\n 18447: a0 = u64 [s1 + 0xd8]\n 18451: ra = 624, jump @7\n      : @602 [@dyn 312] (gas: 10)\n 18457: a0 = s1 + 0x1878\n 18461: u64 [a0 + 2016] = 0\n 18465: u64 [a0 + 2008] = 0\n 18469: u64 [a0 + 2000] = 0\n 18473: a1 = a0\n 18475: u64 [a1 + 1992] = 0x2\n 18480: a0 = s1 + 0x7ff\n 18484: a0 = a0 + 0x381\n 18488: a1 = s1 + 0x2040\n 18492: ra = 626, jump @6\n      : @603 [@dyn 313] (gas: 13)\n 18498: a1 = s1 + 0x7ff\n 18502: a1 = a1 + 0x61\n 18505: a2 = a1 + 0x300\n 18509: a0 = u64 [a2 + 0x30]\n 18512: u64 [s1 + 0xb0] = a0\n 18516: a0 = u64 [a2 + 0x28]\n 18519: u64 [s1 + 0xa8] = a0\n 18523: a0 = u64 [a2 + 0x20]\n 18526: u64 [s1 + 0xb8] = a0\n 18530: a0 = s1 + 0x7ff\n 18534: a0 = a0 + 0x361\n 18538: a1 = 0x40\n 18541: ra = 628, jump @2\n      : @604 [@dyn 314] (gas: 15)\n 18547: a2 = s1 + 0x7ff\n 18551: a2 = a2 + 0x61\n 18554: t0 = u64 [a2 + 0x318]\n 18558: a1 = a2 + 0x300\n 18562: a5 = u64 [a1 + 0x10]\n 18565: a4 = u64 [a1 + 0x8]\n 18568: a0 = u64 [a1]\n 18570: a3 = a4 | t0\n 18573: a1 = a0 | a5\n 18576: a1 = a1 | a3\n 18579: a1 = a1 >> 0x20\n 18582: a3 = a3 | a5\n 18585: a3 = a3 << 0x20\n 18588: a1 = a1 | a3\n 18591: jump @606 if a1 == 0\n      : @605 (gas: 1)\n 18594: jump @385\n      : @606 (gas: 12)\n 18597: u64 [a2 + 752] = 0\n 18601: u64 [a2 + 744] = 0\n 18605: u64 [a2 + 736] = 0\n 18609: a3 = 0xa9059cbb00000000\n 18619: a1 = s1 + 0x7ff\n 18623: a1 = a1 + 0x341\n 18627: u64 [a2 + 0x2f8] = a3\n 18631: u64 [s1 + 0xd8] = a0\n 18635: u64 [s1 + 0xd0] = a4\n 18639: u64 [s1 + 0xc8] = a5\n 18643: u64 [s1 + 0xc0] = t0\n 18647: ra = 630, jump @4\n      : @607 [@dyn 315] (gas: 6)\n 18653: a0 = u64 [s1 + 0x58]\n 18656: ra = 0x278\n 18660: ecalli 5 // 'caller'\n 18662: a2 = u64 [s1 + 0x60]\n 18665: t0 = 0x27a\n 18669: jump @926\n      : @608 [@dyn 316] (gas: 2)\n 18672: a2 = u64 [s1 + 0x60]\n 18675: t0 = 634, jump @926\n      : @609 [@dyn 317] (gas: 48)\n 18681: t0 = a1 | a0\n 18684: a3 = a3 >> 0x20\n 18687: a2 = reverse a2\n 18689: a1 = a2 << 0x20\n 18692: t1 = a1 | a3\n 18695: a2 = a2 >> 0x20\n 18698: a0 = u64 [s1 + 0xd8]\n 18702: a3 = a0 + 0x4\n 18705: a4 = a3 <u a0\n 18708: a0 = u64 [s1 + 0xd0]\n 18712: a5 = a0 + a4\n 18715: a0 = a5 <u a0\n 18718: a0 = a4 if a4 == 0\n 18721: a1 = u64 [s1 + 0xc8]\n 18725: a0 = a0 + a1\n 18728: a4 = a0 <u a1\n 18731: a1 = u64 [s1 + 0xc0]\n 18735: a4 = a4 + a1\n 18738: a1 = s1 + 0x7ff\n 18742: a1 = a1 + 0x61\n 18745: u64 [a1 + 0x2b8] = a4\n 18749: a4 = a1 + 0x200\n 18753: u64 [a4 + 0xb0] = a0\n 18757: u64 [a4 + 0xa8] = a5\n 18761: a0 = u64 [s1 + 0x40]\n 18764: u64 [a4 + 0x78] = a0\n 18767: a0 = u64 [s1 + 0x38]\n 18770: u64 [a4 + 0x70] = a0\n 18773: a0 = u64 [s1 + 0x30]\n 18776: u64 [a4 + 0x68] = a0\n 18779: a0 = u64 [s1 + 0x28]\n 18782: u64 [a4 + 0x60] = a0\n 18785: u64 [a4 + 0xa0] = a3\n 18789: u64 [a4 + 0x90] = a2\n 18793: u64 [a1 + 0x288] = t1\n 18797: u64 [a1 + 0x280] = t0\n 18801: a4 = s1 + 0x7ff\n 18805: a4 = a4 + 0x61\n 18808: a0 = s1 + 0x7ff\n 18812: a0 = a0 + 0x321\n 18816: a1 = s1 + 0x7ff\n 18820: a1 = a1 + 0x301\n 18824: a2 = s1 + 0x7ff\n 18828: a2 = a2 + 0x2e1\n 18832: a3 = s1 + 0x7ff\n 18836: a3 = a3 + 0x2c1\n 18840: u64 [a4 + 664] = 0\n 18844: ra = 636, jump @829\n      : @610 [@dyn 318] (gas: 31)\n 18850: a1 = s1 + 0x7ff\n 18854: a1 = a1 + 0x61\n 18857: a0 = u64 [a1 + 0x2c8]\n 18861: t0 = u64 [a1 + 0x2d8]\n 18865: t1 = u64 [a1 + 0x2c0]\n 18869: a3 = u64 [a1 + 0x2d0]\n 18873: a1 = u64 [s1 + 0xd0]\n 18877: a4 = a0 ^ a1\n 18880: a5 = a0 <u a1\n 18883: ra = u64 [s1 + 0xd8]\n 18887: t2 = t1 <u ra\n 18890: a5 = t2 if a4 == 0\n 18893: a2 = u64 [s1 + 0xc8]\n 18897: a4 = a3 - a2\n 18900: a3 = a3 <u a2\n 18903: a2 = u64 [s1 + 0xc0]\n 18907: a2 = t0 - a2\n 18910: a2 = a2 - a3\n 18913: a3 = a4 <u a5\n 18916: a2 = a2 - a3\n 18919: u64 [s1 + 0x98] = a2\n 18923: a4 = a4 - a5\n 18926: u64 [s1 + 0x90] = a4\n 18930: a0 = a0 - a1\n 18933: a0 = a0 - t2\n 18936: u64 [s1 + 0x88] = a0\n 18940: a0 = t1 - ra\n 18943: u64 [s1 + 0xa0] = a0\n 18947: ra = 0x27e\n 18951: ecalli 9 // 'ref_time_left'\n 18953: fallthrough\n      : @611 [@dyn 319] (gas: 14)\n 18954: a0 = u64 [s1 + 0xa8]\n 18958: a0 = reverse a0\n 18960: a1 = a0 << 0x20\n 18963: a2 = u64 [s1 + 0xb0]\n 18967: a2 = reverse a2\n 18969: a2 = a2 >> 0x20\n 18972: a1 = a1 | a2\n 18975: a2 = u64 [s1 + 0xb8]\n 18979: a2 = reverse a2\n 18981: a3 = a2 << 0x20\n 18984: a0 = a0 >> 0x20\n 18987: a0 = a0 | a3\n 18990: a3 = u64 [s1 + 0x60]\n 18993: t0 = 640, jump @938\n      : @612 [@dyn 320] (gas: 17)\n 18999: u64 [a2 + 0] = 0\n 19001: u64 [a2 + 4294967288] = 0\n 19004: u64 [a2 + 4294967280] = 0\n 19007: a0 = u64 [s1 + 0xa0]\n 19011: t0 = a0\n 19013: a5 = u64 [s1 + 0x90]\n 19017: a0 = a0 | a5\n 19020: a1 = u64 [s1 + 0x98]\n 19024: a4 = u64 [s1 + 0x88]\n 19028: a1 = a1 | a4\n 19031: a0 = a0 | a1\n 19034: a0 = a0 >> 0x20\n 19037: a1 = a1 | a5\n 19040: a1 = a1 << 0x20\n 19043: a0 = a0 | a1\n 19046: u64 [a2 + 4294967272] = 0\n 19049: jump @614 if a0 == 0\n      : @613 (gas: 1)\n 19052: jump @385\n      : @614 (gas: 3)\n 19055: a0 = u64 [s1 + 0xd8]\n 19059: a1 = t0\n 19061: ra = 642, jump @13\n      : @615 [@dyn 321] (gas: 4)\n 19067: u64 [s1 + 0xb8] = a0\n 19071: a1 = 0x20\n 19074: a0 = u64 [s1 + 0xd8]\n 19078: ra = 644, jump @13\n      : @616 [@dyn 322] (gas: 33)\n 19084: a2 = s1 + 0x2078\n 19088: u32 [a2 + 8] = 0x20\n 19092: u64 [a2 + 64] = 0xffffffffffffffff\n 19096: u64 [a2 + 56] = 0xffffffffffffffff\n 19100: u64 [a2 + 48] = 0xffffffffffffffff\n 19104: u64 [a2 + 40] = 0xffffffffffffffff\n 19108: a1 = u64 [s1 + 0x60]\n 19111: a1 = a1 << 0x20\n 19114: a1 = a1 >> 0x20\n 19117: a2 = 0x800000000\n 19127: t0 = a1 | a2\n 19130: a1 = s1 + 0x2060\n 19134: a1 = a1 << 0x20\n 19137: a1 = a1 >> 0x20\n 19140: a2 = s1 + 0x20a0\n 19144: a2 = a2 << 0x20\n 19147: a3 = a2 | a1\n 19150: a1 = u64 [s1 + 0xb8]\n 19154: a1 = a1 << 0x20\n 19157: a1 = a1 >> 0x20\n 19160: a4 = u64 [s1 + 0xa0]\n 19164: a4 = a4 << 0x20\n 19167: a4 = a4 | a1\n 19170: a0 = a0 << 0x20\n 19173: a0 = a0 >> 0x20\n 19176: a1 = s1 + 0x2080\n 19180: a1 = a1 << 0x20\n 19183: a5 = a1 | a0\n 19186: a1 = 0xffffffffffffffff\n 19189: a2 = 0xffffffffffffffff\n 19192: a0 = t0\n 19194: ecalli 1 // 'call'\n 19196: fallthrough\n      : @617 (gas: 1)\n 19197: jump @652 if a0 != 0\n      : @618 (gas: 2)\n 19201: ecalli 11 // 'return_data_size'\n 19203: fallthrough\n      : @619 (gas: 2)\n 19204: a1 = 0x20\n 19207: jump @621 if a0 >=u a1\n      : @620 (gas: 3)\n 19210: ecalli 11 // 'return_data_size'\n 19212: a1 = a0\n 19214: fallthrough\n      : @621 (gas: 21)\n 19215: a2 = s1 + 0x7ff\n 19219: a2 = a2 + 0x61\n 19222: t0 = u64 [s1 + 0xd8]\n 19226: a4 = u64 [s1 + 0xd0]\n 19230: a5 = u64 [s1 + 0xc8]\n 19234: a3 = u64 [s1 + 0xc0]\n 19238: u64 [s1 + 0xb0] = a1\n 19242: u64 [s1 + 184] = 0\n 19246: u64 [a2 + 0x200] = a1\n 19250: u64 [a2 + 0x220] = t0\n 19254: u64 [a2 + 520] = 0\n 19258: u64 [a2 + 0x228] = a4\n 19262: u64 [a2 + 528] = 0\n 19266: u64 [a2 + 0x230] = a5\n 19270: u64 [a2 + 536] = 0\n 19274: a0 = s1 + 0x7ff\n 19278: a0 = a0 + 0x281\n 19282: a1 = s1 + 0x7ff\n 19286: a1 = a1 + 0x261\n 19290: u64 [a2 + 0x238] = a3\n 19294: ra = 646, jump @810\n      : @622 [@dyn 323] (gas: 51)\n 19300: t0 = u64 [s1 + 0xd8]\n 19304: a1 = u64 [s1 + 0xb0]\n 19308: a0 = a1 + t0\n 19311: a1 = a0 <u a1\n 19314: t1 = u64 [s1 + 0xd0]\n 19318: a5 = u64 [s1 + 0xb8]\n 19322: a2 = a5 + t1\n 19325: a2 = a2 + a1\n 19328: a3 = a2 ^ a5\n 19331: a4 = a2 <u a5\n 19334: a4 = a1 if a3 == 0\n 19337: ra = u64 [s1 + 0xc8]\n 19341: a1 = a5 + ra\n 19344: a4 = a4 + a1\n 19347: t2 = a4 <u a1\n 19350: a1 = a1 <u a5\n 19353: a3 = u64 [s1 + 0xc0]\n 19357: a5 = a5 + a3\n 19360: a1 = a1 + a5\n 19363: t2 = t2 + a1\n 19366: a1 = s1 + 0x7ff\n 19370: a1 = a1 + 0x61\n 19373: u64 [a1 + 0x1b0] = a4\n 19377: a1 = s1 + 0x7ff\n 19381: a1 = a1 + 0x61\n 19384: u64 [a1 + 0x1a8] = a2\n 19388: a1 = s1 + 0x7ff\n 19392: a1 = a1 + 0x61\n 19395: u64 [a1 + 0x1a0] = a0\n 19399: a0 = s1 + 0x7ff\n 19403: a0 = a0 + 0x61\n 19406: u64 [a0 + 0x1d8] = a3\n 19410: a0 = s1 + 0x7ff\n 19414: a0 = a0 + 0x61\n 19417: u64 [a0 + 0x1d0] = ra\n 19421: a0 = s1 + 0x7ff\n 19425: a0 = a0 + 0x61\n 19428: u64 [a0 + 0x1c8] = t1\n 19432: a0 = s1 + 0x7ff\n 19436: a0 = a0 + 0x61\n 19439: u64 [a0 + 0x1c0] = t0\n 19443: a0 = s1 + 0x7ff\n 19447: a0 = a0 + 0x241\n 19451: a1 = s1 + 0x7ff\n 19455: a1 = a1 + 0x221\n 19459: a2 = s1 + 0x7ff\n 19463: a2 = a2 + 0x201\n 19467: a4 = s1 + 0x7ff\n 19471: a4 = a4 + 0x61\n 19474: u64 [a4 + 0x1b8] = t2\n 19478: ra = 648, jump @820\n      : @623 [@dyn 324] (gas: 4)\n 19484: a0 = s1 + 0x7ff\n 19488: a0 = a0 + 0x1e1\n 19492: a1 = 0x40\n 19495: ra = 650, jump @2\n      : @624 [@dyn 325] (gas: 8)\n 19501: a3 = s1 + 0x7ff\n 19505: a3 = a3 + 0x61\n 19508: a5 = a3 + 0x100\n 19512: a0 = u64 [a5 + 0x98]\n 19516: a1 = u64 [a5 + 0x90]\n 19520: a2 = u64 [a5 + 0x88]\n 19524: a4 = u64 [a5 + 0x80]\n 19528: t0 = 652, jump @936\n      : @625 [@dyn 326] (gas: 1)\n 19534: jump @627 if a0 == 0\n      : @626 (gas: 1)\n 19537: jump @385\n      : @627 (gas: 14)\n 19540: a0 = u64 [s1 + 0x28]\n 19543: a2 = a3 + 0x100\n 19547: u64 [a2 + 0x60] = a0\n 19550: a0 = u64 [s1 + 0x30]\n 19553: u64 [a2 + 0x68] = a0\n 19556: a0 = u64 [s1 + 0x38]\n 19559: u64 [a2 + 0x70] = a0\n 19562: a1 = s1 + 0x7ff\n 19566: a1 = a1 + 0x1c1\n 19570: a0 = u64 [s1 + 0x40]\n 19573: u64 [a2 + 0x78] = a0\n 19576: a0 = a4\n 19578: u64 [s1 + 0xd8] = a4\n 19582: ra = 654, jump @4\n      : @628 [@dyn 327] (gas: 6)\n 19588: a0 = u64 [s1 + 0x58]\n 19591: ra = 0x290\n 19595: ecalli 5 // 'caller'\n 19597: a2 = u64 [s1 + 0x60]\n 19600: t0 = 0x292\n 19604: jump @926\n      : @629 [@dyn 328] (gas: 2)\n 19607: a2 = u64 [s1 + 0x60]\n 19610: t0 = 658, jump @926\n      : @630 [@dyn 329] (gas: 30)\n 19616: t0 = a1 | a0\n 19619: a3 = a3 >> 0x20\n 19622: a2 = reverse a2\n 19624: a1 = a2 << 0x20\n 19627: a1 = a1 | a3\n 19630: a2 = a2 >> 0x20\n 19633: a3 = u64 [0x20108]\n 19638: a0 = s1 + 0x7ff\n 19642: a0 = a0 + 0x61\n 19645: u64 [a0 + 0x158] = a3\n 19649: a3 = u64 [0x20110]\n 19654: a4 = u64 [0x20118]\n 19659: a5 = u64 [0x20120]\n 19664: u64 [a0 + 0x150] = a3\n 19668: a3 = a0 + 0x100\n 19672: u64 [a3 + 0x48] = a4\n 19675: u64 [a0 + 312] = 0\n 19679: u64 [a3 + 0x40] = a5\n 19682: u64 [a3 + 0x30] = a2\n 19685: u64 [a3 + 0x28] = a1\n 19688: a0 = s1 + 0x7ff\n 19692: a0 = a0 + 0x61\n 19695: a1 = 0x20\n 19698: a2 = s1 + 0x7ff\n 19702: a2 = a2 + 0x1a1\n 19706: a3 = s1 + 0x7ff\n 19710: a3 = a3 + 0x181\n 19714: u64 [a0 + 0x120] = t0\n 19718: a0 = u64 [s1 + 0xd8]\n 19722: ra = 660, jump @8\n      : @631 [@dyn 330] (gas: 5)\n 19728: a0 = 0\n 19730: a1 = u64 [s1 + 0x50]\n 19733: a2 = 0\n 19735: ecalli 12 // 'seal_return'\n 19737: jump @720\n      : @632 (gas: 3)\n 19740: a0 = s1 + 0x1320\n 19744: a1 = 0x40\n 19747: ra = 662, jump @2\n      : @633 [@dyn 331] (gas: 14)\n 19753: a0 = s1 + 0x1078\n 19757: a2 = a0 + 0x200\n 19761: a1 = u64 [a2 + 0xc0]\n 19765: u64 [s1 + 0xd0] = a1\n 19769: a1 = u64 [a2 + 0xb8]\n 19773: u64 [s1 + 0xc8] = a1\n 19777: a1 = u64 [a2 + 0xb0]\n 19781: u64 [s1 + 0xc0] = a1\n 19785: a0 = u64 [a2 + 0xa8]\n 19789: u64 [s1 + 0xd8] = a0\n 19793: ra = 0x298\n 19797: ecalli 11 // 'return_data_size'\n 19799: t0 = 0x29a\n 19803: jump @928\n      : @634 [@dyn 332] (gas: 1)\n 19806: t0 = 666, jump @928\n      : @635 [@dyn 333] (gas: 1)\n 19812: jump @637 if a1 == 0\n      : @636 (gas: 1)\n 19815: jump @385\n      : @637 (gas: 3)\n 19818: a2 = a0\n 19820: a0 = a0 >> 0x20\n 19823: jump @639 if a0 == 0\n      : @638 (gas: 1)\n 19826: jump @385\n      : @639 (gas: 1)\n 19829: t0 = 668, jump @951\n      : @640 [@dyn 334] (gas: 1)\n 19835: ra = 670, jump @13\n      : @641 [@dyn 335] (gas: 11)\n 19841: a1 = s1 + 0x2078\n 19845: a2 = u64 [s1 + 0xc8]\n 19849: u32 [a1 + 0x1a8] = a2\n 19853: i32 a0 = a0 + 0\n 19855: a1 = s1 + 0x2000\n 19859: i32 a1 = a1 + 0x220\n 19863: a2 = 0\n 19865: ecalli 10 // 'return_data_copy'\n 19867: a0 = s1 + 0x2078\n 19871: a0 = i32 [a0 + 0x1a8]\n 19875: jump @531\n      : @642 (gas: 3)\n 19878: a0 = s1 + 0x3c0\n 19882: a1 = 0x40\n 19885: ra = 672, jump @2\n      : @643 [@dyn 336] (gas: 13)\n 19891: a1 = s1 + 0x300\n 19895: a0 = u64 [a1 + 0xd8]\n 19899: u64 [s1 + 0xd0] = a0\n 19903: a0 = u64 [a1 + 0xd0]\n 19907: u64 [s1 + 0xc8] = a0\n 19911: a0 = u64 [a1 + 0xc8]\n 19915: u64 [s1 + 0xc0] = a0\n 19919: a0 = u64 [a1 + 0xc0]\n 19923: u64 [s1 + 0xd8] = a0\n 19927: ra = 0x2a2\n 19931: ecalli 11 // 'return_data_size'\n 19933: t0 = 0x2a4\n 19937: jump @928\n      : @644 [@dyn 337] (gas: 1)\n 19940: t0 = 676, jump @928\n      : @645 [@dyn 338] (gas: 1)\n 19946: jump @647 if a1 == 0\n      : @646 (gas: 1)\n 19949: jump @385\n      : @647 (gas: 3)\n 19952: a2 = a0\n 19954: a0 = a0 >> 0x20\n 19957: jump @649 if a0 == 0\n      : @648 (gas: 1)\n 19960: jump @385\n      : @649 (gas: 1)\n 19963: t0 = 678, jump @951\n      : @650 [@dyn 339] (gas: 1)\n 19969: ra = 680, jump @13\n      : @651 [@dyn 340] (gas: 11)\n 19975: a1 = s1 + 0x1878\n 19979: a2 = u64 [s1 + 0xc8]\n 19983: u32 [a1 + 0x568] = a2\n 19987: i32 a0 = a0 + 0\n 19989: a1 = s1 + 0x2000\n 19993: i32 a1 = a1 + 0xfffffffffffffde0\n 19997: a2 = 0\n 19999: ecalli 10 // 'return_data_copy'\n 20001: a0 = s1 + 0x1878\n 20005: a0 = i32 [a0 + 0x568]\n 20009: jump @531\n      : @652 (gas: 4)\n 20012: a0 = s1 + 0x7ff\n 20016: a0 = a0 + 0x2a1\n 20020: a1 = 0x40\n 20023: ra = 682, jump @2\n      : @653 [@dyn 341] (gas: 15)\n 20029: a0 = s1 + 0x7ff\n 20033: a0 = a0 + 0x61\n 20036: a2 = a0 + 0x200\n 20040: a1 = u64 [a2 + 0x58]\n 20043: u64 [s1 + 0xd0] = a1\n 20047: a1 = u64 [a2 + 0x50]\n 20050: u64 [s1 + 0xc8] = a1\n 20054: a1 = u64 [a2 + 0x48]\n 20057: u64 [s1 + 0xc0] = a1\n 20061: a0 = u64 [a2 + 0x40]\n 20064: u64 [s1 + 0xd8] = a0\n 20068: ra = 0x2ac\n 20072: ecalli 11 // 'return_data_size'\n 20074: t0 = 0x2ae\n 20078: jump @928\n      : @654 [@dyn 342] (gas: 1)\n 20081: t0 = 686, jump @928\n      : @655 [@dyn 343] (gas: 1)\n 20087: jump @657 if a1 == 0\n      : @656 (gas: 1)\n 20090: jump @385\n      : @657 (gas: 3)\n 20093: a2 = a0\n 20095: a0 = a0 >> 0x20\n 20098: jump @659 if a0 == 0\n      : @658 (gas: 1)\n 20101: jump @385\n      : @659 (gas: 1)\n 20104: t0 = 688, jump @951\n      : @660 [@dyn 344] (gas: 1)\n 20110: ra = 690, jump @13\n      : @661 [@dyn 345] (gas: 11)\n 20116: a1 = s1 + 0x2078\n 20120: a2 = u64 [s1 + 0xc8]\n 20124: u32 [a1 + 0x48] = a2\n 20127: i32 a0 = a0 + 0\n 20129: a1 = s1 + 0x2000\n 20133: i32 a1 = a1 + 0xc0\n 20137: a2 = 0\n 20139: ecalli 10 // 'return_data_copy'\n 20141: a0 = s1 + 0x2078\n 20145: a0 = i32 [a0 + 0x48]\n 20148: jump @531\n      : @662 (gas: 6)\n 20151: a1 = 0x201d0\n 20156: i32 a1 = a1 + 0\n 20158: a0 = 0x1\n 20161: a2 = 0\n 20163: ecalli 12 // 'seal_return'\n 20165: jump @720\n      : @663 (gas: 6)\n 20168: a1 = 0x201d0\n 20173: i32 a1 = a1 + 0\n 20175: a0 = 0x1\n 20178: a2 = 0\n 20180: ecalli 12 // 'seal_return'\n 20182: jump @720\n      : @664 (gas: 6)\n 20185: a1 = 0x201d0\n 20190: i32 a1 = a1 + 0\n 20192: a0 = 0x1\n 20195: a2 = 0\n 20197: ecalli 12 // 'seal_return'\n 20199: jump @720\n      : @665 (gas: 6)\n 20202: a1 = 0x201d0\n 20207: i32 a1 = a1 + 0\n 20209: a0 = 0x1\n 20212: a2 = 0\n 20214: ecalli 12 // 'seal_return'\n 20216: jump @720\n      : @666 (gas: 8)\n 20219: a0 = s1 + 0x1078\n 20223: u64 [a0 + 1464] = 0\n 20227: u64 [a0 + 1456] = 0\n 20231: u64 [a0 + 1448] = 0\n 20235: a2 = a0\n 20237: t0 = 0x2b4\n 20241: a0 = 0x4e487b7100000000\n 20251: fallthrough\n      : @667 [@dyn 346] (gas: 4)\n 20252: a1 = s1 + 0x1620\n 20256: u64 [a2 + 0x5c0] = a0\n 20260: a0 = 0\n 20262: ra = 694, jump @4\n      : @668 [@dyn 347] (gas: 9)\n 20268: a1 = s1 + 0x1078\n 20272: u64 [a1 + 1440] = 0\n 20276: u64 [a1 + 1432] = 0\n 20280: u64 [a1 + 1416] = 0x11\n 20285: a2 = a1\n 20287: a0 = 0x4\n 20290: a1 = s1 + 0x1600\n 20294: u64 [a2 + 1424] = 0\n 20298: ra = 696, jump @4\n      : @669 [@dyn 348] (gas: 3)\n 20304: a0 = u64 [s1 + 0x98]\n 20308: a0 = i32 [a0]\n 20310: jump @671 if a0 >u 63\n      : @670 (gas: 3)\n 20314: a1 = u64 [s1 + 0x98]\n 20318: u32 [a1 + 0] = 0x40\n 20321: fallthrough\n      : @671 (gas: 5)\n 20322: a0 = 0x1\n 20325: a2 = 0x24\n 20328: a1 = u64 [s1 + 0x68]\n 20331: ecalli 12 // 'seal_return'\n 20333: fallthrough\n      : @672 (gas: 6)\n 20334: a1 = 0x201d0\n 20339: i32 a1 = a1 + 0\n 20341: a0 = 0x1\n 20344: a2 = 0\n 20346: ecalli 12 // 'seal_return'\n 20348: jump @720\n      : @673 (gas: 6)\n 20351: a1 = 0x201d0\n 20356: i32 a1 = a1 + 0\n 20358: a0 = 0x1\n 20361: a2 = 0\n 20363: ecalli 12 // 'seal_return'\n 20365: jump @720\n      : @674 (gas: 6)\n 20368: a1 = 0x201d0\n 20373: i32 a1 = a1 + 0\n 20375: a0 = 0x1\n 20378: a2 = 0\n 20380: ecalli 12 // 'seal_return'\n 20382: jump @720\n      : @675 (gas: 6)\n 20385: a1 = 0x201d0\n 20390: i32 a1 = a1 + 0\n 20392: a0 = 0x1\n 20395: a2 = 0\n 20397: ecalli 12 // 'seal_return'\n 20399: jump @720\n      : @676 (gas: 6)\n 20402: a1 = 0x201d0\n 20407: i32 a1 = a1 + 0\n 20409: a0 = 0x1\n 20412: a2 = 0\n 20414: ecalli 12 // 'seal_return'\n 20416: jump @720\n      : @677 (gas: 6)\n 20419: a1 = 0x201d0\n 20424: i32 a1 = a1 + 0\n 20426: a0 = 0x1\n 20429: a2 = 0\n 20431: ecalli 12 // 'seal_return'\n 20433: jump @720\n      : @678 (gas: 6)\n 20436: a1 = 0x201d0\n 20441: i32 a1 = a1 + 0\n 20443: a0 = 0x1\n 20446: a2 = 0\n 20448: ecalli 12 // 'seal_return'\n 20450: jump @720\n      : @679 (gas: 6)\n 20453: a1 = 0x201d0\n 20458: i32 a1 = a1 + 0\n 20460: a0 = 0x1\n 20463: a2 = 0\n 20465: ecalli 12 // 'seal_return'\n 20467: jump @720\n      : @680 (gas: 6)\n 20470: a1 = 0x201d0\n 20475: i32 a1 = a1 + 0\n 20477: a0 = 0x1\n 20480: a2 = 0\n 20482: ecalli 12 // 'seal_return'\n 20484: jump @720\n      : @681 (gas: 1)\n 20487: jump @703 if a0 != 4076725131\n      : @682 (gas: 9)\n 20495: a0 = s1 + 0x2078\n 20499: u64 [a0 + 1088] = 0\n 20503: u64 [a0 + 1080] = 0\n 20507: u64 [a0 + 1072] = 0\n 20511: u64 [a0 + 1064] = 0\n 20515: a0 = s1 + 0x2000\n 20519: i32 a0 = a0 + 0x4a0\n 20523: ecalli 15 // 'value_transferred'\n 20525: fallthrough\n      : @683 (gas: 10)\n 20526: a3 = s1 + 0x2078\n 20530: a4 = a3 + 0x400\n 20534: a0 = u64 [a4 + 0x38]\n 20537: a1 = u64 [a4 + 0x40]\n 20540: a2 = u64 [a4 + 0x30]\n 20543: a3 = u64 [a4 + 0x28]\n 20546: a1 = a1 | a2\n 20549: a0 = a0 | a3\n 20552: a0 = a0 | a1\n 20555: jump @720 if a0 == 0\n      : @684 (gas: 6)\n 20559: a1 = 0x201d0\n 20564: i32 a1 = a1 + 0\n 20566: a0 = 0x1\n 20569: a2 = 0\n 20571: ecalli 12 // 'seal_return'\n 20573: jump @720\n      : @685 (gas: 6)\n 20576: a1 = 0x201d0\n 20581: i32 a1 = a1 + 0\n 20583: a0 = 0x1\n 20586: a2 = 0\n 20588: ecalli 12 // 'seal_return'\n 20590: jump @720\n      : @686 (gas: 6)\n 20593: a1 = 0x201d0\n 20598: i32 a1 = a1 + 0\n 20600: a0 = 0x1\n 20603: a2 = 0\n 20605: ecalli 12 // 'seal_return'\n 20607: jump @720\n      : @687 (gas: 6)\n 20610: a1 = 0x201d0\n 20615: i32 a1 = a1 + 0\n 20617: a0 = 0x1\n 20620: a2 = 0\n 20622: ecalli 12 // 'seal_return'\n 20624: jump @720\n      : @688 (gas: 6)\n 20627: a1 = 0x201d0\n 20632: i32 a1 = a1 + 0\n 20634: a0 = 0x1\n 20637: a2 = 0\n 20639: ecalli 12 // 'seal_return'\n 20641: jump @720\n      : @689 (gas: 6)\n 20644: a1 = 0x201d0\n 20649: i32 a1 = a1 + 0\n 20651: a0 = 0x1\n 20654: a2 = 0\n 20656: ecalli 12 // 'seal_return'\n 20658: jump @720\n      : @690 (gas: 8)\n 20661: a1 = s1 + 0x2078\n 20665: u64 [a1 + 640] = 0\n 20669: u64 [a1 + 632] = 0\n 20673: u64 [a1 + 624] = 0\n 20677: u64 [a1 + 616] = 0x3\n 20682: a0 = s1 + 0x22e0\n 20686: a1 = u64 [s1 + 0xd8]\n 20690: ra = 698, jump @7\n      : @691 [@dyn 349] (gas: 6)\n 20696: a1 = 0x201d0\n 20701: i32 a1 = a1 + 0\n 20703: a0 = 0\n 20705: a2 = 0\n 20707: ecalli 12 // 'seal_return'\n 20709: jump @720\n      : @692 (gas: 5)\n 20712: i32 a1 = a1 + 0\n 20714: a0 = 0\n 20716: a2 = 0\n 20718: ecalli 12 // 'seal_return'\n 20720: jump @720\n      : @693 (gas: 6)\n 20723: a1 = 0x201d0\n 20728: i32 a1 = a1 + 0\n 20730: a0 = 0x1\n 20733: a2 = 0\n 20735: ecalli 12 // 'seal_return'\n 20737: jump @720\n      : @694 (gas: 6)\n 20740: a1 = 0x201d0\n 20745: i32 a1 = a1 + 0\n 20747: a0 = 0x1\n 20750: a2 = 0\n 20752: ecalli 12 // 'seal_return'\n 20754: jump @720\n      : @695 (gas: 6)\n 20757: a1 = 0x201d0\n 20762: i32 a1 = a1 + 0\n 20764: a0 = 0x1\n 20767: a2 = 0\n 20769: ecalli 12 // 'seal_return'\n 20771: jump @720\n      : @696 (gas: 6)\n 20774: a1 = 0x201d0\n 20779: i32 a1 = a1 + 0\n 20781: a0 = 0x1\n 20784: a2 = 0\n 20786: ecalli 12 // 'seal_return'\n 20788: jump @720\n      : @697 (gas: 6)\n 20791: a1 = 0x201d0\n 20796: i32 a1 = a1 + 0\n 20798: a0 = 0x1\n 20801: a2 = 0\n 20803: ecalli 12 // 'seal_return'\n 20805: jump @720\n      : @698 (gas: 6)\n 20808: a1 = 0x201d0\n 20813: i32 a1 = a1 + 0\n 20815: a0 = 0x1\n 20818: a2 = 0\n 20820: ecalli 12 // 'seal_return'\n 20822: jump @720\n      : @699 (gas: 14)\n 20825: a1 = u64 [s1 + 0xc8]\n 20829: a1 = a1 << 0x20\n 20832: a2 = a1 >> 0x20\n 20835: u64 [a3 + 1912] = 0\n 20839: a1 = u64 [s1 + 0xd0]\n 20843: a4 = a3 + 0x700\n 20847: u64 [a4 + 0x60] = a1\n 20850: a1 = u64 [s1 + 0xd8]\n 20854: u64 [a4 + 0x68] = a1\n 20857: a1 = s1 + 0x7ff\n 20861: a1 = a1 + 0x7c1\n 20865: u64 [a4 + 0x70] = a2\n 20868: u64 [s1 + 0xd8] = a0\n 20872: ra = 700, jump @4\n      : @700 [@dyn 350] (gas: 3)\n 20878: a1 = 0x20\n 20881: a0 = u64 [s1 + 0xd8]\n 20885: ra = 702, jump @13\n      : @701 [@dyn 351] (gas: 5)\n 20891: i32 a1 = a0 + 0\n 20893: a2 = 0x20\n 20896: a0 = 0\n 20898: ecalli 12 // 'seal_return'\n 20900: jump @703\n      : @702 (gas: 4)\n 20902: a2 = 0x20\n 20905: a0 = 0\n 20907: ecalli 12 // 'seal_return'\n 20909: fallthrough\n      : @703 (gas: 1)\n 20910: jump @713 if a0 != 700225181\n      : @704 (gas: 9)\n 20918: a0 = s1 + 0x1878\n 20922: u64 [a0 + 1024] = 0\n 20926: u64 [a0 + 1016] = 0\n 20930: u64 [a0 + 1008] = 0\n 20934: u64 [a0 + 1000] = 0\n 20938: a0 = s1 + 0x2000\n 20942: i32 a0 = a0 + 0xfffffffffffffc60\n 20946: ecalli 15 // 'value_transferred'\n 20948: fallthrough\n      : @705 (gas: 10)\n 20949: a3 = s1 + 0x1878\n 20953: a4 = a3 + 0x300\n 20957: a0 = u64 [a4 + 0xf8]\n 20961: a1 = u64 [a3 + 0x400]\n 20965: a2 = u64 [a4 + 0xf0]\n 20969: a3 = u64 [a4 + 0xe8]\n 20973: a1 = a1 | a2\n 20976: a0 = a0 | a3\n 20979: a0 = a0 | a1\n 20982: jump @722 if a0 == 0\n      : @706 (gas: 6)\n 20986: a1 = 0x201d0\n 20991: i32 a1 = a1 + 0\n 20993: a0 = 0x1\n 20996: a2 = 0\n 20998: ecalli 12 // 'seal_return'\n 21000: jump @720\n      : @707 (gas: 10)\n 21003: a0 = s1 + 0x7ff\n 21007: a0 = a0 + 0x61\n 21010: u64 [a0 + 1328] = 0\n 21014: u64 [a0 + 1320] = 0\n 21018: u64 [a0 + 1312] = 0\n 21022: a2 = s1 + 0x7ff\n 21026: a2 = a2 + 0x61\n 21029: t0 = 0x2c0\n 21033: a0 = 0x4e487b7100000000\n 21043: fallthrough\n      : @708 [@dyn 352] (gas: 5)\n 21044: a1 = s1 + 0x7ff\n 21048: a1 = a1 + 0x581\n 21052: u64 [a2 + 0x538] = a0\n 21056: a0 = 0\n 21058: ra = 706, jump @4\n      : @709 [@dyn 353] (gas: 12)\n 21064: a1 = s1 + 0x7ff\n 21068: a1 = a1 + 0x61\n 21071: u64 [a1 + 1304] = 0\n 21075: u64 [a1 + 1296] = 0\n 21079: u64 [a1 + 1280] = 0x11\n 21084: a2 = s1 + 0x7ff\n 21088: a2 = a2 + 0x61\n 21091: a0 = 0x4\n 21094: a1 = s1 + 0x7ff\n 21098: a1 = a1 + 0x561\n 21102: u64 [a2 + 1288] = 0\n 21106: ra = 708, jump @4\n      : @710 [@dyn 354] (gas: 3)\n 21112: a0 = u64 [s1 + 0x48]\n 21115: a0 = i32 [a0]\n 21117: jump @712 if a0 >u 63\n      : @711 (gas: 3)\n 21121: a1 = u64 [s1 + 0x48]\n 21124: u32 [a1 + 0] = 0x40\n 21127: fallthrough\n      : @712 (gas: 5)\n 21128: a0 = 0x1\n 21131: a2 = 0x24\n 21134: a1 = u64 [s1 + 0x50]\n 21137: ecalli 12 // 'seal_return'\n 21139: fallthrough\n      : @713 (gas: 2)\n 21140: a2 = s1 + 0x1878\n 21144: jump @718 if a0 != 1901074598\n      : @714 (gas: 9)\n 21151: u64 [a2 + 1440] = 0\n 21155: u64 [a2 + 1432] = 0\n 21159: u64 [a2 + 1424] = 0\n 21163: u64 [a2 + 1416] = 0\n 21167: a0 = s1 + 0x2000\n 21171: i32 a0 = a0 + 0xfffffffffffffe00\n 21175: ra = 0x2c6\n 21179: ecalli 15 // 'value_transferred'\n 21181: fallthrough\n      : @715 [@dyn 355] (gas: 3)\n 21182: a3 = s1 + 0x1878\n 21186: a4 = a3 + 0x500\n 21190: t0 = 712, jump @953\n      : @716 [@dyn 356] (gas: 1)\n 21196: jump @727 if a0 == 0\n      : @717 (gas: 6)\n 21200: a1 = 0x201d0\n 21205: i32 a1 = a1 + 0\n 21207: a0 = 0x1\n 21210: a2 = 0\n 21212: ecalli 12 // 'seal_return'\n 21214: jump @720\n      : @718 (gas: 6)\n 21216: a1 = 0x201d0\n 21221: i32 a1 = a1 + 0\n 21223: a0 = 0x1\n 21226: a2 = 0\n 21228: ecalli 12 // 'seal_return'\n 21230: jump @720\n      : @719 (gas: 5)\n 21232: i32 a1 = a1 + 0\n 21234: a0 = 0x1\n 21237: a2 = 0\n 21239: ecalli 12 // 'seal_return'\n 21241: fallthrough\n      : @720 (gas: 3)\n 21242: a0 = u64 [s1 + 0xd8]\n 21246: a0 = i32 [a0]\n 21248: jump @724 if a0 >u 35\n      : @721 (gas: 2)\n 21252: a1 = 0x201d0\n 21257: jump @719\n      : @722 (gas: 3)\n 21259: a0 = u64 [s1 + 0xd8]\n 21263: a0 = i32 [a0]\n 21265: jump @729 if a0 >u 35\n      : @723 (gas: 2)\n 21269: a1 = 0x201d0\n 21274: jump @719\n      : @724 (gas: 5)\n 21276: a0 = s1 + 0x2000\n 21280: i32 a0 = a0 + 0x4c0\n 21284: a1 = 0x4\n 21287: ecalli 3 // 'call_data_load'\n 21289: fallthrough\n      : @725 (gas: 13)\n 21290: a0 = s1 + 0x2078\n 21294: a1 = u64 [a0 + 0x458]\n 21298: a2 = u64 [a0 + 0x460]\n 21302: a0 = 0x100000000\n 21312: a0 = a0 ^ a1\n 21315: a0 = a0 | a2\n 21318: u64 [s1 + 0xd8] = a1\n 21322: a1 = a1 >> 0x20\n 21325: a1 = a1 <u 0x1\n 21328: u64 [s1 + 0xb8] = a2\n 21332: a1 = 0 if a2 != 0\n 21334: a1 = 0 if a0 == 0\n 21336: jump @733 if a1 != 0\n      : @726 (gas: 2)\n 21339: a1 = 0x201d0\n 21344: jump @719\n      : @727 (gas: 3)\n 21346: a0 = u64 [s1 + 0xd8]\n 21350: a0 = i32 [a0]\n 21352: jump @739 if a0 >u 3\n      : @728 (gas: 2)\n 21357: a1 = 0x201d0\n 21362: jump @719\n      : @729 (gas: 6)\n 21365: a0 = s1 + 0x2000\n 21369: i32 a0 = a0 + 0xfffffffffffffc80\n 21373: a1 = 0x4\n 21376: ra = 0x2ca\n 21380: ecalli 3 // 'call_data_load'\n 21382: fallthrough\n      : @730 [@dyn 357] (gas: 4)\n 21383: a0 = s1 + 0x1878\n 21387: a1 = u64 [a0 + 0x418]\n 21391: a0 = u64 [a0 + 0x420]\n 21395: t0 = 716, jump @932\n      : @731 [@dyn 358] (gas: 1)\n 21401: jump @744 if a3 != 0\n      : @732 (gas: 2)\n 21405: a1 = 0x201d0\n 21410: jump @719\n      : @733 (gas: 10)\n 21413: a0 = s1 + 0x2078\n 21417: a1 = u64 [a0 + 0x450]\n 21421: u64 [s1 + 0xc8] = a1\n 21425: a0 = u64 [a0 + 0x448]\n 21429: u64 [s1 + 0xd0] = a0\n 21433: a0 = u64 [s1 + 0xd8]\n 21437: a0 = a0 << 0x20\n 21440: a0 = a0 >> 0x20\n 21443: u64 [s1 + 0xc0] = a0\n 21447: ra = 718, jump @912\n      : @734 [@dyn 359] (gas: 6)\n 21453: a0 = u64 [s1 + 0xc8]\n 21457: a1 = u64 [s1 + 0xd0]\n 21461: a0 = a0 | a1\n 21464: a1 = u64 [s1 + 0xc0]\n 21468: a0 = a0 | a1\n 21471: jump @755 if a0 == 0\n      : @735 (gas: 10)\n 21475: a0 = 0xffffffff\n 21485: u64 [s1 + 0xb0] = a0\n 21489: a0 = s1 + 0x2078\n 21493: u64 [a0 + 1152] = 0\n 21497: u64 [a0 + 1144] = 0\n 21501: u64 [a0 + 1136] = 0\n 21505: u64 [a0 + 1128] = 0\n 21509: a0 = s1 + 0x1c00\n 21513: a1 = s1 + 0x24e0\n 21517: ra = 720, jump @6\n      : @736 [@dyn 360] (gas: 30)\n 21523: a3 = s1 + 0x1878\n 21527: a4 = a3 + 0x300\n 21531: a1 = u64 [a4 + 0x98]\n 21535: u64 [s1 + 0xa8] = a1\n 21539: a0 = u64 [a4 + 0xa0]\n 21543: a1 = a1 >> 0x20\n 21546: a1 = a1 << 0x20\n 21549: a2 = u64 [s1 + 0xd8]\n 21553: a1 = a1 | a2\n 21556: a2 = u64 [a4 + 0x90]\n 21560: u64 [s1 + 0xd8] = a2\n 21564: a2 = u64 [s1 + 0xb8]\n 21568: a0 = a0 | a2\n 21571: a2 = u64 [a4 + 0x88]\n 21575: u64 [s1 + 0xb8] = a2\n 21579: a2 = s1 + 0x2078\n 21583: a3 = a2 + 0x400\n 21587: u64 [a3 + 0xc0] = a0\n 21591: u64 [a3 + 0xb8] = a1\n 21595: u64 [a2 + 1184] = 0\n 21599: u64 [a2 + 1176] = 0\n 21603: u64 [a2 + 1168] = 0\n 21607: u64 [a2 + 1160] = 0\n 21611: a0 = u64 [s1 + 0xc8]\n 21615: u64 [a3 + 0xb0] = a0\n 21619: a0 = u64 [s1 + 0xd0]\n 21623: u64 [a3 + 0xa8] = a0\n 21627: a0 = s1 + 0x2500\n 21631: a1 = s1 + 0x2520\n 21635: ra = 722, jump @7\n      : @737 [@dyn 361] (gas: 35)\n 21641: a0 = u64 [s1 + 0xb8]\n 21645: a0 = a0 & 0xffffffffffffffff\n 21648: a2 = u64 [s1 + 0xd8]\n 21652: a1 = a2 & 0xffffffffffffffff\n 21655: a2 = u64 [s1 + 0xb0]\n 21659: a3 = u64 [s1 + 0xa8]\n 21663: a2 = a2 & a3\n 21666: a4 = s1 + 0x1878\n 21670: u64 [a4 + 832] = 0\n 21674: a3 = u64 [s1 + 0xc0]\n 21678: a5 = a4 + 0x300\n 21682: u64 [a5 + 0x38] = a3\n 21685: a3 = u64 [s1 + 0xc8]\n 21689: u64 [a5 + 0x30] = a3\n 21692: a3 = u64 [s1 + 0xd0]\n 21696: u64 [a5 + 0x28] = a3\n 21699: u64 [a4 + 864] = 0\n 21703: u64 [a5 + 0x58] = a2\n 21706: u64 [a5 + 0x50] = a1\n 21709: a1 = u64 [0x20040]\n 21714: a2 = u64 [0x20048]\n 21719: a3 = u64 [0x20050]\n 21724: u64 [a5 + 0x48] = a0\n 21727: u64 [a5 + 0x80] = a1\n 21731: u64 [a5 + 0x78] = a2\n 21734: u64 [a5 + 0x70] = a3\n 21737: a1 = a4\n 21739: a0 = u64 [0x20058]\n 21744: a2 = s1 + 0x1be0\n 21748: a3 = s1 + 0x1bc0\n 21752: a4 = s1 + 0x1ba0\n 21756: u64 [a1 + 0x368] = a0\n 21760: a0 = 0\n 21762: a1 = 0\n 21764: ra = 724, jump @10\n      : @738 [@dyn 362] (gas: 2)\n 21770: a1 = 0x201d0\n 21775: jump @692\n      : @739 (gas: 1)\n 21778: ra = 726, jump @912\n      : @740 [@dyn 363] (gas: 8)\n 21784: a0 = s1 + 0x1878\n 21788: u64 [a0 + 1472] = 0\n 21792: u64 [a0 + 1464] = 0\n 21796: u64 [a0 + 1456] = 0\n 21800: u64 [a0 + 1448] = 0\n 21804: a0 = s1 + 0x760\n 21808: a1 = s1 + 0x1e20\n 21812: ra = 728, jump @6\n      : @741 [@dyn 364] (gas: 21)\n 21818: a1 = u64 [s1 + 0x770]\n 21822: u64 [s1 + 0xc8] = a1\n 21826: a0 = u64 [s1 + 0x760]\n 21830: u64 [s1 + 0xd8] = a0\n 21834: a0 = u64 [s1 + 0x768]\n 21838: u64 [s1 + 0xd0] = a0\n 21842: a0 = u64 [s1 + 0x778]\n 21846: a1 = a1 >> 0x20\n 21849: a1 = a1 << 0x20\n 21852: a2 = s1 + 0x1878\n 21856: u64 [a2 + 1504] = 0\n 21860: u64 [a2 + 1496] = 0\n 21864: u64 [a2 + 1488] = 0\n 21868: u64 [a2 + 1480] = 0\n 21872: u64 [a2 + 1520] = 0\n 21876: u64 [a2 + 1512] = 0\n 21880: u64 [a2 + 0x600] = a0\n 21884: u64 [a2 + 0x5f8] = a1\n 21888: a0 = s1 + 0x1e40\n 21892: a1 = s1 + 0x1e60\n 21896: ra = 730, jump @7\n      : @742 [@dyn 365] (gas: 28)\n 21902: a0 = u64 [s1 + 0xc8]\n 21906: a0 = a0 << 0x20\n 21909: a0 = a0 >> 0x20\n 21912: u64 [s1 + 1816] = 0\n 21916: u64 [s1 + 1808] = 0\n 21920: u64 [s1 + 1800] = 0\n 21924: u64 [s1 + 1792] = 0\n 21928: u64 [s1 + 1848] = 0\n 21932: a5 = s1 + 0x700\n 21936: u64 [a5 + 0x30] = a0\n 21939: a0 = u64 [s1 + 0xd0]\n 21943: u64 [a5 + 0x28] = a0\n 21946: a0 = u64 [0x20040]\n 21951: a1 = u64 [0x20048]\n 21956: a2 = u64 [0x20050]\n 21961: a3 = u64 [s1 + 0xd8]\n 21965: u64 [a5 + 0x20] = a3\n 21968: u64 [a5 + 0x58] = a0\n 21971: u64 [a5 + 0x50] = a1\n 21974: u64 [a5 + 0x48] = a2\n 21977: a0 = u64 [0x20058]\n 21982: a2 = s1 + 0x740\n 21986: a3 = s1 + 0x720\n 21990: a4 = s1 + 0x700\n 21994: u64 [a5 + 0x40] = a0\n 21997: a0 = 0\n 21999: a1 = 0\n 22001: ra = 732, jump @10\n      : @743 [@dyn 366] (gas: 2)\n 22007: a1 = 0x201d0\n 22012: jump @692\n      : @744 (gas: 10)\n 22015: a3 = s1 + 0x1878\n 22019: a2 = u64 [a3 + 0x410]\n 22023: a3 = u64 [a3 + 0x408]\n 22027: u64 [s1 + 0x140] = a3\n 22031: u64 [s1 + 0x148] = a2\n 22035: u64 [s1 + 0x150] = a1\n 22039: a1 = s1 + 0x140\n 22043: u64 [s1 + 0x158] = a0\n 22047: a0 = 0\n 22049: ra = 734, jump @4\n      : @745 [@dyn 367] (gas: 7)\n 22055: u64 [s1 + 312] = 0\n 22059: u64 [s1 + 304] = 0\n 22063: u64 [s1 + 288] = 0x4\n 22068: a0 = 0x20\n 22071: a1 = s1 + 0x120\n 22075: u64 [s1 + 296] = 0\n 22079: ra = 736, jump @4\n      : @746 [@dyn 368] (gas: 4)\n 22085: a0 = 0x201c4\n 22090: u64 [s1 + 0xd8] = a0\n 22094: a0 = i32 [0x201c4]\n 22099: jump @748 if a0 >u 63\n      : @747 (gas: 3)\n 22103: a1 = u64 [s1 + 0xd8]\n 22107: u32 [a1 + 0] = 0x40\n 22110: fallthrough\n      : @748 (gas: 14)\n 22111: a0 = sp + 0xffffffffffffffe0\n 22114: a2 = a0 & 0xffffffffffffffe0\n 22117: u64 [s1 + 0xc8] = a2\n 22121: sp = a2\n 22123: a0 = 0x201d0\n 22128: u64 [s1 + 0xd0] = a0\n 22132: i32 a0 = a0 + 0\n 22134: i32 a2 = a2 + 0\n 22136: a1 = 0x40\n 22139: ra = 0x2e2\n 22143: ecalli 8 // 'hash_keccak_256'\n 22145: a3 = u64 [s1 + 0xc8]\n 22149: t0 = 0x2e4\n 22153: jump @927\n      : @749 [@dyn 369] (gas: 2)\n 22156: a3 = u64 [s1 + 0xc8]\n 22160: t0 = 740, jump @927\n      : @750 [@dyn 370] (gas: 7)\n 22166: u64 [a5 + 0x40] = a3\n 22169: u64 [a5 + 0x38] = a2\n 22172: u64 [a5 + 0x30] = a1\n 22175: u64 [a5 + 0x28] = a0\n 22178: a0 = s1 + 0x100\n 22182: a1 = s1 + 0x1ca0\n 22186: ra = 742, jump @6\n      : @751 [@dyn 371] (gas: 12)\n 22192: a4 = s1 + 0x100\n 22196: a2 = u64 [a4]\n 22198: a0 = u64 [a4 + 0x8]\n 22201: a1 = u64 [a4 + 0x10]\n 22204: a3 = u64 [a4 + 0x18]\n 22207: u64 [s1 + 0xf8] = a3\n 22211: u64 [s1 + 0xf0] = a1\n 22215: u64 [s1 + 0xe8] = a0\n 22219: a0 = 0x80\n 22223: a1 = s1 + 0xe0\n 22227: u64 [s1 + 0xe0] = a2\n 22231: ra = 744, jump @4\n      : @752 [@dyn 372] (gas: 3)\n 22237: a0 = u64 [s1 + 0xd8]\n 22241: a0 = i32 [a0]\n 22243: jump @754 if a0 >u 159\n      : @753 (gas: 5)\n 22248: a1 = u64 [s1 + 0xd8]\n 22252: u32 [a1 + 0] = 0xa0\n 22256: a0 = u64 [s1 + 0xd0]\n 22260: i32 a1 = a0 + 0x80\n 22264: jump @702\n      : @754 (gas: 3)\n 22267: a0 = u64 [s1 + 0xd0]\n 22271: i32 a1 = a0 + 0x80\n 22275: jump @702\n      : @755 (gas: 10)\n 22278: a0 = s1 + 0x1878\n 22282: u64 [a0 + 792] = 0\n 22286: u64 [a0 + 784] = 0\n 22290: u64 [a0 + 776] = 0\n 22294: a2 = a0\n 22296: a0 = 0x1e4fbdf700000000\n 22306: a1 = s1 + 0x1b80\n 22310: u64 [a2 + 0x320] = a0\n 22314: a0 = 0\n 22316: ra = 746, jump @4\n      : @756 [@dyn 373] (gas: 9)\n 22322: a0 = s1 + 0x1878\n 22326: u64 [a0 + 768] = 0\n 22330: u64 [a0 + 760] = 0\n 22334: u64 [a0 + 752] = 0\n 22338: a2 = a0\n 22340: a0 = 0x4\n 22343: a1 = s1 + 0x1b60\n 22347: u64 [a2 + 744] = 0\n 22351: ra = 748, jump @4\n      : @757 [@dyn 374] (gas: 2)\n 22357: a1 = i32 [0x201c4]\n 22362: jump @759 if a1 >u 63\n      : @758 (gas: 2)\n 22366: u32 [0x201c4] = 0x40\n 22372: fallthrough\n      : @759 (gas: 7)\n 22373: a1 = 0x201d0\n 22378: i32 a1 = a1 + 0\n 22380: a0 = 0x1\n 22383: a2 = 0x24\n 22386: ra = 0x2ee\n 22390: ecalli 12 // 'seal_return'\n 22392: fallthrough\n      : @760 [@dyn 375] (gas: 18)\n 22393: sp = sp + 0xffffffffffffffc0\n 22396: u64 [sp + 0x38] = ra\n 22399: u64 [sp + 0x30] = s0\n 22402: u64 [sp + 0x28] = s1\n 22405: s0 = sp + 0x40\n 22408: sp = sp & 0xfffffffffffffff0\n 22411: a2 = u64 [a1 + 0x10]\n 22414: a3 = u64 [a1 + 0x18]\n 22417: a4 = u64 [a1 + 0x8]\n 22420: a1 = u64 [a1]\n 22422: a3 = a3 | a4\n 22425: a4 = a1 | a2\n 22428: a4 = a4 | a3\n 22431: a4 = a4 >> 0x20\n 22434: a2 = a2 | a3\n 22437: a2 = a2 << 0x20\n 22440: a2 = a2 | a4\n 22443: jump @764 if a2 != 0\n      : @761 (gas: 3)\n 22446: s1 = a0\n 22448: a0 = sp\n 22450: ra = 752, jump @2\n      : @762 [@dyn 376] (gas: 10)\n 22456: a0 = u64 [sp + 0x10]\n 22459: a1 = u64 [sp + 0x18]\n 22462: a2 = 0x100000000\n 22472: a2 = a2 ^ a0\n 22475: a2 = a2 | a1\n 22478: a3 = a0 >> 0x20\n 22481: a3 = a3 <u 0x1\n 22484: a3 = 0 if a1 != 0\n 22486: a3 = 0 if a2 == 0\n 22488: jump @765 if a3 == 0\n      : @763 (gas: 12)\n 22491: a2 = u64 [sp]\n 22493: a3 = u64 [sp + 0x8]\n 22496: u64 [s1] = a2\n 22498: u64 [s1 + 0x8] = a3\n 22501: u64 [s1 + 0x10] = a0\n 22504: u64 [s1 + 0x18] = a1\n 22507: sp = s0 + 0xffffffffffffffc0\n 22510: ra = u64 [sp + 0x38]\n 22513: s0 = u64 [sp + 0x30]\n 22516: s1 = u64 [sp + 0x28]\n 22519: sp = sp + 0x40\n 22522: ret\n      : @764 (gas: 1)\n 22524: trap\n      : @765 (gas: 7)\n 22525: a1 = 0x201d0\n 22530: i32 a1 = a1 + 0\n 22532: a0 = 0x1\n 22535: a2 = 0\n 22537: ra = 0x2f2\n 22541: ecalli 12 // 'seal_return'\n 22543: fallthrough\n      : @766 [@dyn 377] (gas: 23)\n 22544: sp = sp + 0xffffffffffffff10\n 22548: u64 [sp + 0xe8] = ra\n 22552: u64 [sp + 0xe0] = s0\n 22556: u64 [sp + 0xd8] = s1\n 22560: s0 = sp + 0xf0\n 22564: sp = sp & 0xfffffffffffffff0\n 22567: s1 = u64 [a1 + 0x10]\n 22570: t0 = u64 [a1 + 0x18]\n 22573: a5 = u64 [a1 + 0x8]\n 22576: a1 = u64 [a1]\n 22578: u64 [sp + 0x68] = a5\n 22581: u64 [sp + 0x58] = t0\n 22584: t1 = a5 | t0\n 22587: t0 = a1\n 22589: a5 = a1 | s1\n 22592: a5 = a5 | t1\n 22595: a5 = a5 >> 0x20\n 22598: u64 [sp + 0x60] = s1\n 22601: a1 = t1 | s1\n 22604: a1 = a1 << 0x20\n 22607: a1 = a1 | a5\n 22610: u64 [sp + 0x50] = a0\n 22613: jump @773 if a1 != 0\n      : @767 (gas: 28)\n 22617: a0 = u64 [a4 + 0x18]\n 22620: u64 [sp + 0x18] = a0\n 22623: a0 = u64 [a4 + 0x10]\n 22626: u64 [sp + 0x8] = a0\n 22629: a0 = u64 [a4 + 0x8]\n 22632: u64 [sp + 0x10] = a0\n 22635: a0 = u64 [a4]\n 22637: u64 [sp] = a0\n 22639: a0 = u64 [a3 + 0x18]\n 22642: u64 [sp + 0x48] = a0\n 22645: a0 = u64 [a3 + 0x10]\n 22648: u64 [sp + 0x40] = a0\n 22651: a0 = u64 [a3 + 0x8]\n 22654: u64 [sp + 0x38] = a0\n 22657: a0 = u64 [a3]\n 22659: u64 [sp + 0x30] = a0\n 22662: a0 = u64 [a2 + 0x18]\n 22665: a1 = u64 [a2 + 0x10]\n 22668: a3 = u64 [a2 + 0x8]\n 22671: a2 = u64 [a2]\n 22673: u64 [sp + 0xb0] = a2\n 22677: u64 [sp + 0xb8] = a3\n 22681: u64 [sp + 0xc0] = a1\n 22685: a1 = sp + 0xb0\n 22689: u64 [sp + 0xc8] = a0\n 22693: s1 = t0\n 22695: a0 = t0\n 22697: ra = 756, jump @4\n      : @768 [@dyn 378] (gas: 12)\n 22703: a0 = u64 [sp + 0x60]\n 22706: a1 = u64 [sp + 0x58]\n 22709: a2 = a0 | a1\n 22712: a0 = 0x100000000\n 22722: u64 [sp + 0x20] = a0\n 22725: a0 = 0xffffffe0\n 22735: a0 = s1 <u a0\n 22738: a1 = u64 [sp + 0x68]\n 22741: a0 = 0 if a1 != 0\n 22743: u64 [sp + 0x28] = a2\n 22746: a0 = 0 if a2 != 0\n 22748: jump @773 if a0 == 0\n      : @769 (gas: 11)\n 22752: i32 a0 = s1 + 0x20\n 22755: a1 = u64 [sp + 0x30]\n 22758: u64 [sp + 0x90] = a1\n 22762: a1 = u64 [sp + 0x38]\n 22765: u64 [sp + 0x98] = a1\n 22769: a1 = u64 [sp + 0x40]\n 22772: u64 [sp + 0xa0] = a1\n 22776: a1 = sp + 0x90\n 22780: a2 = u64 [sp + 0x48]\n 22783: u64 [sp + 0xa8] = a2\n 22787: ra = 758, jump @4\n      : @770 [@dyn 379] (gas: 8)\n 22793: a0 = u64 [sp + 0x20]\n 22796: a0 = a0 + 0xffffffffffffffc0\n 22799: a0 = s1 <u a0\n 22802: a1 = u64 [sp + 0x68]\n 22805: a0 = 0 if a1 != 0\n 22807: a1 = u64 [sp + 0x28]\n 22810: a0 = 0 if a1 != 0\n 22812: jump @773 if a0 == 0\n      : @771 (gas: 30)\n 22816: a0 = u64 [sp + 0x8]\n 22819: a1 = u64 [sp]\n 22821: a0 = a0 | a1\n 22824: a1 = u64 [sp + 0x18]\n 22827: a2 = u64 [sp + 0x10]\n 22830: a1 = a1 | a2\n 22833: a0 = a0 | a1\n 22836: a1 = a0 >u 0\n 22838: a0 = s1 + 0x60\n 22841: u64 [sp + 0x48] = a0\n 22844: a0 = a0 <u s1\n 22847: a2 = u64 [sp + 0x68]\n 22850: a3 = a2 + a0\n 22853: u64 [sp + 0x40] = a3\n 22856: a2 = a3 <u a2\n 22859: a2 = a0 if a0 == 0\n 22862: a0 = u64 [sp + 0x60]\n 22865: a2 = a2 + a0\n 22868: u64 [sp + 0x68] = a2\n 22871: a0 = a2 <u a0\n 22874: a2 = u64 [sp + 0x58]\n 22877: a0 = a0 + a2\n 22880: u64 [sp + 0x60] = a0\n 22883: i32 a0 = s1 + 0x40\n 22886: u64 [sp + 136] = 0\n 22890: u64 [sp + 128] = 0\n 22894: u64 [sp + 0x70] = a1\n 22897: a1 = sp + 0x70\n 22900: u64 [sp + 120] = 0\n 22903: ra = 760, jump @4\n      : @772 [@dyn 380] (gas: 15)\n 22909: a0 = u64 [sp + 0x50]\n 22912: a1 = u64 [sp + 0x60]\n 22915: u64 [a0 + 0x18] = a1\n 22918: a1 = u64 [sp + 0x68]\n 22921: u64 [a0 + 0x10] = a1\n 22924: a1 = u64 [sp + 0x40]\n 22927: u64 [a0 + 0x8] = a1\n 22930: a1 = u64 [sp + 0x48]\n 22933: u64 [a0] = a1\n 22935: sp = s0 + 0xffffffffffffff10\n 22939: ra = u64 [sp + 0xe8]\n 22943: s0 = u64 [sp + 0xe0]\n 22947: s1 = u64 [sp + 0xd8]\n 22951: sp = sp + 0xf0\n 22955: ret\n      : @773 (gas: 1)\n 22957: trap\n      : @774 [@dyn 381] (gas: 1)\n 22958: jump @776 if a0 == 0\n      : @775 (gas: 6)\n 22961: sp = s0 + 0xffffffffffffff20\n 22965: ra = u64 [sp + 0xd8]\n 22969: s0 = u64 [sp + 0xd0]\n 22973: s1 = u64 [sp + 0xc8]\n 22977: sp = sp + 0xe0\n 22981: ret\n      : @776 (gas: 3)\n 22983: a0 = sp + 0xa0\n 22987: a1 = 0x40\n 22990: ra = 764, jump @2\n      : @777 [@dyn 382] (gas: 1)\n 22996: t0 = 766, jump @940\n      : @778 [@dyn 383] (gas: 1)\n 23002: jump @789 if a0 != 0\n      : @779 (gas: 1)\n 23005: t0 = 768, jump @950\n      : @780 [@dyn 384] (gas: 1)\n 23011: ra = 770, jump @4\n      : @781 [@dyn 385] (gas: 1)\n 23017: t0 = 772, jump @937\n      : @782 [@dyn 386] (gas: 1)\n 23023: jump @789 if a0 == 0\n      : @783 (gas: 8)\n 23026: a0 = u64 [sp + 0x18]\n 23029: i32 a0 = a0 + 0x4\n 23032: u64 [sp + 120] = 0\n 23035: u64 [sp + 112] = 0\n 23038: u64 [sp + 96] = 0x20\n 23042: a1 = sp + 0x60\n 23045: u64 [sp + 104] = 0\n 23048: ra = 774, jump @4\n      : @784 [@dyn 387] (gas: 1)\n 23054: t0 = 776, jump @949\n      : @785 [@dyn 388] (gas: 1)\n 23060: jump @789 if a0 == 0\n      : @786 (gas: 8)\n 23063: s1 = u64 [sp + 0x18]\n 23066: i32 a0 = s1 + 0x24\n 23069: u64 [sp + 88] = 0\n 23072: u64 [sp + 80] = 0\n 23075: u64 [sp + 64] = 0x12\n 23079: a1 = sp + 0x40\n 23082: u64 [sp + 72] = 0\n 23085: ra = 778, jump @4\n      : @787 [@dyn 389] (gas: 1)\n 23091: t0 = 780, jump @945\n      : @788 [@dyn 390] (gas: 1)\n 23097: jump @790 if a0 != 0\n      : @789 (gas: 1)\n 23100: trap\n      : @790 (gas: 11)\n 23101: s1 = u64 [sp + 0x18]\n 23104: i32 a0 = s1 + 0x44\n 23107: a1 = u64 [0x20190]\n 23112: a2 = u64 [0x20198]\n 23117: u64 [sp + 0x38] = a1\n 23120: u64 [sp + 0x30] = a2\n 23123: a1 = 0x2030000000000000\n 23133: u64 [sp + 0x28] = a1\n 23136: a1 = sp + 0x20\n 23139: u64 [sp + 32] = 0\n 23142: ra = 782, jump @4\n      : @791 [@dyn 391] (gas: 3)\n 23148: a1 = 0x64\n 23151: a0 = s1\n 23153: ra = 784, jump @13\n      : @792 [@dyn 392] (gas: 6)\n 23159: i32 a1 = a0 + 0\n 23161: a0 = 0x1\n 23164: a2 = 0x64\n 23167: ra = 0x312\n 23171: ecalli 12 // 'seal_return'\n 23173: fallthrough\n      : @793 [@dyn 393] (gas: 30)\n 23174: sp = sp + 0xffffffffffffff80\n 23177: u64 [sp + 0x78] = ra\n 23180: u64 [sp + 0x70] = s0\n 23183: u64 [sp + 0x68] = s1\n 23186: s0 = sp + 0x80\n 23190: sp = sp & 0xfffffffffffffff0\n 23193: a4 = u64 [a2]\n 23195: a3 = u64 [a1]\n 23197: s1 = u64 [a2 + 0x8]\n 23200: t1 = u64 [a1 + 0x8]\n 23203: t2 = u64 [a2 + 0x10]\n 23206: a5 = u64 [a1 + 0x10]\n 23209: a2 = u64 [a2 + 0x18]\n 23212: a1 = u64 [a1 + 0x18]\n 23215: t0 = t1 ^ s1\n 23218: u64 [sp + 0x8] = s1\n 23221: s1 = t1 <u s1\n 23224: u64 [sp + 0x18] = a4\n 23227: u64 [sp + 0x10] = a3\n 23230: a3 = a3 <u a4\n 23233: u64 [sp] = a3\n 23235: s1 = a3 if t0 == 0\n 23238: a3 = a1 ^ a2\n 23241: ra = a1 <u a2\n 23244: t0 = a5 <u t2\n 23247: ra = t0 if a3 == 0\n 23250: a4 = a5 ^ t2\n 23253: a3 = a3 | a4\n 23256: ra = s1 if a3 == 0\n 23259: jump @795 if ra != 0\n      : @794 (gas: 23)\n 23262: a3 = a5 - t2\n 23265: a1 = a1 - a2\n 23268: a1 = a1 - t0\n 23271: a2 = a3 <u s1\n 23274: a1 = a1 - a2\n 23277: a3 = a3 - s1\n 23280: a2 = u64 [sp + 0x8]\n 23283: a2 = t1 - a2\n 23286: a4 = u64 [sp]\n 23288: a2 = a2 - a4\n 23291: a4 = u64 [sp + 0x18]\n 23294: a5 = u64 [sp + 0x10]\n 23297: a4 = a5 - a4\n 23300: u64 [a0] = a4\n 23302: u64 [a0 + 0x8] = a2\n 23305: u64 [a0 + 0x10] = a3\n 23308: u64 [a0 + 0x18] = a1\n 23311: sp = s0 + 0xffffffffffffff80\n 23314: ra = u64 [sp + 0x78]\n 23317: s0 = u64 [sp + 0x70]\n 23320: s1 = u64 [sp + 0x68]\n 23323: sp = sp + 0x80\n 23327: ret\n      : @795 (gas: 6)\n 23329: u64 [sp + 80] = 0\n 23332: u64 [sp + 72] = 0\n 23335: u64 [sp + 64] = 0\n 23338: t0 = 0x314\n 23342: a0 = 0x4e487b7100000000\n 23352: fallthrough\n      : @796 [@dyn 394] (gas: 4)\n 23353: a1 = sp + 0x40\n 23356: u64 [sp + 0x58] = a0\n 23359: a0 = 0\n 23361: ra = 790, jump @4\n      : @797 [@dyn 395] (gas: 7)\n 23367: u64 [sp + 56] = 0\n 23370: u64 [sp + 48] = 0\n 23373: u64 [sp + 32] = 0x11\n 23377: a0 = 0x4\n 23380: a1 = sp + 0x20\n 23383: u64 [sp + 40] = 0\n 23386: ra = 792, jump @4\n      : @798 [@dyn 396] (gas: 2)\n 23392: a1 = i32 [0x201c4]\n 23397: jump @800 if a1 >u 63\n      : @799 (gas: 2)\n 23401: u32 [0x201c4] = 0x40\n 23407: fallthrough\n      : @800 (gas: 7)\n 23408: a1 = 0x201d0\n 23413: i32 a1 = a1 + 0\n 23415: a0 = 0x1\n 23418: a2 = 0x24\n 23421: ra = 0x31a\n 23425: ecalli 12 // 'seal_return'\n 23427: fallthrough\n      : @801 [@dyn 397] (gas: 19)\n 23428: sp = sp + 0xffffffffffffff90\n 23431: u64 [sp + 0x68] = ra\n 23434: u64 [sp + 0x60] = s0\n 23437: s0 = sp + 0x70\n 23440: sp = sp & 0xfffffffffffffff0\n 23443: a3 = u64 [a0 + 0x18]\n 23446: a2 = u64 [a0 + 0x10]\n 23449: t1 = u64 [a0]\n 23451: a0 = u64 [a0 + 0x8]\n 23454: a4 = a3 >u 0\n 23456: a5 = a2 >u 0\n 23458: a5 = a4 if a3 != 0\n 23461: t0 = a0 >u 0\n 23463: a4 = t1 <u 0xffffffffffffffa0\n 23466: a4 = a4 ^ 0x1\n 23469: a4 = t0 if a0 != 0\n 23472: a1 = a2 | a3\n 23475: a4 = a5 if a1 != 0\n 23478: jump @804 if a4 != 0\n      : @802 (gas: 15)\n 23481: a1 = t1 + 0x60\n 23484: a4 = a1 <u t1\n 23487: a5 = a0 + a4\n 23490: a0 = a5 <u a0\n 23493: a0 = a4 if a4 == 0\n 23496: a0 = a0 + a2\n 23499: a2 = a0 <u a2\n 23502: a2 = a2 + a3\n 23505: u64 [sp + 0x40] = a1\n 23508: u64 [sp + 0x48] = a5\n 23511: u64 [sp + 0x50] = a0\n 23514: a0 = 0x40\n 23517: a1 = sp + a0\n 23520: u64 [sp + 0x58] = a2\n 23523: ra = 796, jump @4\n      : @803 [@dyn 398] (gas: 5)\n 23529: sp = s0 + 0xffffffffffffff90\n 23532: ra = u64 [sp + 0x68]\n 23535: s0 = u64 [sp + 0x60]\n 23538: sp = sp + 0x70\n 23541: ret\n      : @804 (gas: 6)\n 23543: u64 [sp + 48] = 0\n 23546: u64 [sp + 40] = 0\n 23549: u64 [sp + 32] = 0\n 23552: t0 = 0x31e\n 23556: a0 = 0x4e487b7100000000\n 23566: fallthrough\n      : @805 [@dyn 399] (gas: 4)\n 23567: a1 = sp + 0x20\n 23570: u64 [sp + 0x38] = a0\n 23573: a0 = 0\n 23575: ra = 800, jump @4\n      : @806 [@dyn 400] (gas: 7)\n 23581: u64 [sp + 24] = 0\n 23584: u64 [sp + 16] = 0\n 23587: u64 [sp + 0] = 0x41\n 23590: a0 = 0x4\n 23593: a1 = sp\n 23595: u64 [sp + 8] = 0\n 23598: ra = 802, jump @4\n      : @807 [@dyn 401] (gas: 2)\n 23604: a1 = i32 [0x201c4]\n 23609: jump @809 if a1 >u 63\n      : @808 (gas: 2)\n 23613: u32 [0x201c4] = 0x40\n 23619: fallthrough\n      : @809 (gas: 7)\n 23620: a1 = 0x201d0\n 23625: i32 a1 = a1 + 0\n 23627: a0 = 0x1\n 23630: a2 = 0x24\n 23633: ra = 0x324\n 23637: ecalli 12 // 'seal_return'\n 23639: fallthrough\n      : @810 [@dyn 402] (gas: 46)\n 23640: sp = sp + 0xffffffffffffff70\n 23644: u64 [sp + 0x88] = ra\n 23648: u64 [sp + 0x80] = s0\n 23652: u64 [sp + 0x78] = s1\n 23655: s0 = sp + 0x90\n 23659: sp = sp & 0xfffffffffffffff0\n 23662: t0 = a0\n 23664: a2 = u64 [a1]\n 23666: t2 = u64 [a0 + 0x8]\n 23669: a5 = u64 [a1 + 0x8]\n 23672: t1 = u64 [a0]\n 23674: a3 = a2 + 0x1f\n 23677: ra = a3 <u a2\n 23680: a2 = a5 + ra\n 23683: a3 = a3 & 0xffffffffffffffe0\n 23686: u64 [sp + 0x8] = t1\n 23689: t1 = t1 + a3\n 23692: a4 = t1 <u a3\n 23695: a3 = a2 + t2\n 23698: a3 = a3 + a4\n 23701: s1 = a3 ^ a2\n 23704: a0 = a3 <u a2\n 23707: a0 = a4 if s1 == 0\n 23710: a4 = u64 [t0 + 0x18]\n 23713: a5 = a2 <u a5\n 23716: s1 = u64 [a1 + 0x10]\n 23719: t0 = u64 [t0 + 0x10]\n 23722: a1 = u64 [a1 + 0x18]\n 23725: a5 = ra if ra == 0\n 23728: a5 = a5 + s1\n 23731: s1 = a5 <u s1\n 23734: a2 = a5 + t0\n 23737: a0 = a0 + a2\n 23740: a5 = a2 <u a5\n 23743: a2 = a0 <u a2\n 23746: a1 = a1 + a4\n 23749: a1 = a1 + s1\n 23752: a1 = a1 + a5\n 23755: a5 = a1 + a2\n 23758: a1 = a5 >u 0\n 23760: a2 = a0 >u 0\n 23762: a2 = a1 if a5 != 0\n 23765: a1 = a0 | a5\n 23768: s1 = a3 >u 0\n 23770: s1 = a2 if a1 != 0\n 23773: jump @814 if s1 != 0\n      : @811 (gas: 13)\n 23776: a1 = u64 [sp + 0x8]\n 23779: a1 = t1 <u a1\n 23782: a2 = a3 ^ t2\n 23785: s1 = a3 <u t2\n 23788: s1 = a1 if a2 == 0\n 23791: a1 = a0 <u t0\n 23794: a2 = a5 ^ a4\n 23797: a4 = a5 <u a4\n 23800: a4 = a1 if a2 == 0\n 23803: a1 = a0 ^ t0\n 23806: a1 = a1 | a2\n 23809: a4 = s1 if a1 == 0\n 23812: jump @814 if a4 != 0\n      : @812 (gas: 7)\n 23815: u64 [sp + 0x50] = t1\n 23818: u64 [sp + 0x58] = a3\n 23821: u64 [sp + 0x60] = a0\n 23824: a0 = 0x40\n 23827: a1 = sp + 0x50\n 23830: u64 [sp + 0x68] = a5\n 23833: ra = 806, jump @4\n      : @813 [@dyn 403] (gas: 6)\n 23839: sp = s0 + 0xffffffffffffff70\n 23843: ra = u64 [sp + 0x88]\n 23847: s0 = u64 [sp + 0x80]\n 23851: s1 = u64 [sp + 0x78]\n 23854: sp = sp + 0x90\n 23858: ret\n      : @814 (gas: 6)\n 23860: u64 [sp + 64] = 0\n 23863: u64 [sp + 56] = 0\n 23866: u64 [sp + 48] = 0\n 23869: t0 = 0x328\n 23873: a0 = 0x4e487b7100000000\n 23883: fallthrough\n      : @815 [@dyn 404] (gas: 4)\n 23884: a1 = sp + 0x30\n 23887: u64 [sp + 0x48] = a0\n 23890: a0 = 0\n 23892: ra = 810, jump @4\n      : @816 [@dyn 405] (gas: 7)\n 23898: u64 [sp + 40] = 0\n 23901: u64 [sp + 32] = 0\n 23904: u64 [sp + 16] = 0x41\n 23908: a0 = 0x4\n 23911: a1 = sp + 0x10\n 23914: u64 [sp + 24] = 0\n 23917: ra = 812, jump @4\n      : @817 [@dyn 406] (gas: 2)\n 23923: a1 = i32 [0x201c4]\n 23928: jump @819 if a1 >u 63\n      : @818 (gas: 2)\n 23932: u32 [0x201c4] = 0x40\n 23938: fallthrough\n      : @819 (gas: 7)\n 23939: a1 = 0x201d0\n 23944: i32 a1 = a1 + 0\n 23946: a0 = 0x1\n 23949: a2 = 0x24\n 23952: ra = 0x32e\n 23956: ecalli 12 // 'seal_return'\n 23958: fallthrough\n      : @820 [@dyn 407] (gas: 53)\n 23959: sp = sp + 0xffffffffffffff90\n 23962: u64 [sp + 0x68] = ra\n 23965: u64 [sp + 0x60] = s0\n 23968: u64 [sp + 0x58] = s1\n 23971: s0 = sp + 0x70\n 23974: sp = sp & 0xfffffffffffffff0\n 23977: a3 = a1\n 23979: t2 = u64 [a1 + 0x10]\n 23982: a1 = u64 [a1 + 0x8]\n 23985: t0 = u64 [a2 + 0x8]\n 23988: s1 = u64 [a3]\n 23990: u64 [sp] = s1\n 23992: a4 = u64 [a2]\n 23994: u64 [sp + 0x8] = a4\n 23997: ra = u64 [a2 + 0x10]\n 24000: a5 = t0 ^ a1\n 24003: u64 [sp + 0x28] = a5\n 24006: a5 = t0 <u a1\n 24009: a4 = a4 <u s1\n 24012: t1 = u64 [sp + 0x28]\n 24015: a5 = a4 if t1 == 0\n 24018: s1 = a4\n 24020: a3 = u64 [a3 + 0x18]\n 24023: u64 [sp + 0x18] = a3\n 24026: a2 = u64 [a2 + 0x18]\n 24029: u64 [sp + 0x10] = a2\n 24032: a3 = ra - t2\n 24035: a2 = a3 - a5\n 24038: u64 [sp + 0x20] = a2\n 24041: a2 = a3 <u a5\n 24044: u64 [sp + 0x28] = t2\n 24047: a4 = ra <u t2\n 24050: t2 = u64 [sp + 0x18]\n 24053: a3 = u64 [sp + 0x10]\n 24056: a3 = a3 - t2\n 24059: a3 = a3 - a4\n 24062: a3 = a3 - a2\n 24065: a2 = t0 - a1\n 24068: a2 = a2 - s1\n 24071: t0 = u64 [sp]\n 24073: a4 = u64 [sp + 0x8]\n 24076: a4 = a4 - t0\n 24079: a5 = a2 >u 0\n 24081: a4 = a4 <u 0x20\n 24084: a4 = a4 ^ 0x1\n 24087: a4 = a5 if a2 != 0\n 24090: s1 = a3 >s 0\n 24092: a2 = u64 [sp + 0x20]\n 24095: a5 = a2 >u 0\n 24097: a5 = s1 if a3 != 0\n 24100: a2 = a2 | a3\n 24103: a4 = a5 if a2 != 0\n 24106: jump @826 if a4 == 0\n      : @821 (gas: 10)\n 24109: s1 = a0\n 24111: a3 = u64 [sp + 0x28]\n 24114: a0 = t0 | a3\n 24117: a2 = a1 | t2\n 24120: a0 = a0 | a2\n 24123: a0 = a0 >> 0x20\n 24126: a2 = a2 | a3\n 24129: a2 = a2 << 0x20\n 24132: a0 = a0 | a2\n 24135: jump @825 if a0 != 0\n      : @822 (gas: 3)\n 24138: a0 = sp + 0x30\n 24141: a1 = t0\n 24143: ra = 816, jump @2\n      : @823 [@dyn 408] (gas: 9)\n 24149: a0 = u64 [sp + 0x48]\n 24152: a1 = u64 [sp + 0x40]\n 24155: a2 = u64 [sp + 0x30]\n 24158: a3 = u64 [sp + 0x38]\n 24161: a4 = a1 | a0\n 24164: a5 = a2 <u 0x2\n 24167: a5 = 0 if a3 != 0\n 24169: a5 = 0 if a4 != 0\n 24171: jump @827 if a5 == 0\n      : @824 (gas: 10)\n 24174: u64 [s1] = a2\n 24176: u64 [s1 + 0x8] = a3\n 24179: u64 [s1 + 0x10] = a1\n 24182: u64 [s1 + 0x18] = a0\n 24185: sp = s0 + 0xffffffffffffff90\n 24188: ra = u64 [sp + 0x68]\n 24191: s0 = u64 [sp + 0x60]\n 24194: s1 = u64 [sp + 0x58]\n 24197: sp = sp + 0x70\n 24200: ret\n      : @825 (gas: 1)\n 24202: trap\n      : @826 (gas: 2)\n 24203: a1 = 0x201d0\n 24208: jump @828\n      : @827 (gas: 2)\n 24210: a1 = 0x201d0\n 24215: fallthrough\n      : @828 (gas: 6)\n 24216: i32 a1 = a1 + 0\n 24218: a0 = 0x1\n 24221: a2 = 0\n 24223: ra = 0x332\n 24227: ecalli 12 // 'seal_return'\n 24229: fallthrough\n      : @829 [@dyn 409] (gas: 22)\n 24230: sp = sp + 0xffffffffffffff50\n 24234: u64 [sp + 0xa8] = ra\n 24238: u64 [sp + 0xa0] = s0\n 24242: u64 [sp + 0x98] = s1\n 24246: s0 = sp + 0xb0\n 24250: sp = sp & 0xfffffffffffffff0\n 24253: a5 = u64 [a1 + 0x10]\n 24256: a4 = u64 [a1 + 0x18]\n 24259: s1 = u64 [a1 + 0x8]\n 24262: t0 = u64 [a1]\n 24264: u64 [sp + 0x40] = a4\n 24267: u64 [sp + 0x38] = s1\n 24270: a1 = s1 | a4\n 24273: a4 = t0 | a5\n 24276: a4 = a4 | a1\n 24279: a4 = a4 >> 0x20\n 24282: u64 [sp + 0x48] = a5\n 24285: a1 = a1 | a5\n 24288: a1 = a1 << 0x20\n 24291: a1 = a1 | a4\n 24294: u64 [sp + 0x30] = a0\n 24297: jump @834 if a1 != 0\n      : @830 (gas: 21)\n 24301: s1 = t0\n 24303: a0 = u64 [a3 + 0x18]\n 24306: u64 [sp + 0x28] = a0\n 24309: a0 = u64 [a3 + 0x10]\n 24312: u64 [sp + 0x20] = a0\n 24315: a0 = u64 [a3 + 0x8]\n 24318: u64 [sp + 0x18] = a0\n 24321: a0 = u64 [a3]\n 24323: u64 [sp + 0x10] = a0\n 24326: a0 = u64 [a2 + 0x10]\n 24329: a1 = u64 [a2 + 0x8]\n 24332: a2 = u64 [a2]\n 24334: a0 = a0 << 0x20\n 24337: a0 = a0 >> 0x20\n 24340: u64 [sp + 136] = 0\n 24344: u64 [sp + 0x70] = a2\n 24347: u64 [sp + 0x78] = a1\n 24350: a1 = sp + 0x70\n 24353: u64 [sp + 0x80] = a0\n 24357: a0 = t0\n 24359: ra = 820, jump @4\n      : @831 [@dyn 410] (gas: 9)\n 24365: a2 = u64 [sp + 0x48]\n 24368: a3 = u64 [sp + 0x40]\n 24371: a0 = a2 | a3\n 24374: a1 = 0xffffffe0\n 24384: a1 = s1 <u a1\n 24387: a4 = u64 [sp + 0x38]\n 24390: a1 = 0 if a4 != 0\n 24392: a1 = 0 if a0 != 0\n 24394: jump @834 if a1 == 0\n      : @832 (gas: 23)\n 24397: a0 = s1 + 0x40\n 24400: u64 [sp + 0x8] = a0\n 24403: a0 = a0 <u s1\n 24406: a1 = a4 + a0\n 24409: u64 [sp] = a1\n 24411: a1 = a1 <u a4\n 24414: a1 = a0 if a0 == 0\n 24417: a1 = a1 + a2\n 24420: u64 [sp + 0x38] = a1\n 24423: a0 = a1 <u a2\n 24426: a0 = a0 + a3\n 24429: u64 [sp + 0x48] = a0\n 24432: i32 a0 = s1 + 0x20\n 24435: a1 = u64 [sp + 0x10]\n 24438: u64 [sp + 0x50] = a1\n 24441: a1 = u64 [sp + 0x18]\n 24444: u64 [sp + 0x58] = a1\n 24447: a1 = u64 [sp + 0x20]\n 24450: u64 [sp + 0x60] = a1\n 24453: a1 = sp + 0x50\n 24456: a2 = u64 [sp + 0x28]\n 24459: u64 [sp + 0x68] = a2\n 24462: ra = 822, jump @4\n      : @833 [@dyn 411] (gas: 15)\n 24468: a0 = u64 [sp + 0x30]\n 24471: a1 = u64 [sp + 0x38]\n 24474: u64 [a0 + 0x10] = a1\n 24477: a1 = u64 [sp]\n 24479: u64 [a0 + 0x8] = a1\n 24482: a1 = u64 [sp + 0x8]\n 24485: u64 [a0] = a1\n 24487: a1 = u64 [sp + 0x48]\n 24490: u64 [a0 + 0x18] = a1\n 24493: sp = s0 + 0xffffffffffffff50\n 24497: ra = u64 [sp + 0xa8]\n 24501: s0 = u64 [sp + 0xa0]\n 24505: s1 = u64 [sp + 0x98]\n 24509: sp = sp + 0xb0\n 24513: ret\n      : @834 (gas: 1)\n 24515: trap\n      : @835 [@dyn 412] (gas: 1)\n 24516: jump @837 if a0 == 0\n      : @836 (gas: 6)\n 24519: sp = s0 + 0xffffffffffffff20\n 24523: ra = u64 [sp + 0xd8]\n 24527: s0 = u64 [sp + 0xd0]\n 24531: s1 = u64 [sp + 0xc8]\n 24535: sp = sp + 0xe0\n 24539: ret\n      : @837 (gas: 3)\n 24541: a0 = sp + 0xa0\n 24545: a1 = 0x40\n 24548: ra = 826, jump @2\n      : @838 [@dyn 413] (gas: 1)\n 24554: t0 = 828, jump @940\n      : @839 [@dyn 414] (gas: 1)\n 24560: jump @850 if a0 != 0\n      : @840 (gas: 1)\n 24563: t0 = 830, jump @950\n      : @841 [@dyn 415] (gas: 1)\n 24569: ra = 832, jump @4\n      : @842 [@dyn 416] (gas: 1)\n 24575: t0 = 834, jump @937\n      : @843 [@dyn 417] (gas: 1)\n 24581: jump @850 if a0 == 0\n      : @844 (gas: 8)\n 24584: a0 = u64 [sp + 0x18]\n 24587: i32 a0 = a0 + 0x4\n 24590: u64 [sp + 120] = 0\n 24593: u64 [sp + 112] = 0\n 24596: u64 [sp + 104] = 0\n 24599: a1 = sp + 0x60\n 24602: u64 [sp + 96] = 0x20\n 24606: ra = 836, jump @4\n      : @845 [@dyn 418] (gas: 1)\n 24612: t0 = 838, jump @949\n      : @846 [@dyn 419] (gas: 1)\n 24618: jump @850 if a0 == 0\n      : @847 (gas: 8)\n 24621: s1 = u64 [sp + 0x18]\n 24624: i32 a0 = s1 + 0x24\n 24627: u64 [sp + 88] = 0\n 24630: u64 [sp + 80] = 0\n 24633: u64 [sp + 64] = 0x20\n 24637: a1 = sp + 0x40\n 24640: u64 [sp + 72] = 0\n 24643: ra = 840, jump @4\n      : @848 [@dyn 420] (gas: 1)\n 24649: t0 = 842, jump @945\n      : @849 [@dyn 421] (gas: 1)\n 24655: jump @851 if a0 != 0\n      : @850 (gas: 1)\n 24658: trap\n      : @851 (gas: 12)\n 24659: s1 = u64 [sp + 0x18]\n 24662: i32 a0 = s1 + 0x44\n 24665: a1 = u64 [0x201a0]\n 24670: u64 [sp + 0x38] = a1\n 24673: a1 = u64 [0x201a8]\n 24678: a2 = u64 [0x201b0]\n 24683: a3 = u64 [0x201b8]\n 24688: u64 [sp + 0x30] = a1\n 24691: u64 [sp + 0x28] = a2\n 24694: a1 = sp + 0x20\n 24697: u64 [sp + 0x20] = a3\n 24700: ra = 844, jump @4\n      : @852 [@dyn 422] (gas: 3)\n 24706: a1 = 0x64\n 24709: a0 = s1\n 24711: ra = 846, jump @13\n      : @853 [@dyn 423] (gas: 6)\n 24717: i32 a1 = a0 + 0\n 24719: a0 = 0x1\n 24722: a2 = 0x64\n 24725: ra = 0x350\n 24729: ecalli 12 // 'seal_return'\n 24731: fallthrough\n      : @854 [@dyn 424] (gas: 23)\n 24732: sp = sp + 0xffffffffffffff10\n 24736: u64 [sp + 0xe8] = ra\n 24740: u64 [sp + 0xe0] = s0\n 24744: u64 [sp + 0xd8] = s1\n 24748: s0 = sp + 0xf0\n 24752: sp = sp & 0xfffffffffffffff0\n 24755: s1 = u64 [a1 + 0x10]\n 24758: t0 = u64 [a1 + 0x18]\n 24761: a5 = u64 [a1 + 0x8]\n 24764: a1 = u64 [a1]\n 24766: u64 [sp + 0x68] = a5\n 24769: u64 [sp + 0x58] = t0\n 24772: t1 = a5 | t0\n 24775: t0 = a1\n 24777: a5 = a1 | s1\n 24780: a5 = a5 | t1\n 24783: a5 = a5 >> 0x20\n 24786: u64 [sp + 0x60] = s1\n 24789: a1 = t1 | s1\n 24792: a1 = a1 << 0x20\n 24795: a1 = a1 | a5\n 24798: u64 [sp + 0x50] = a0\n 24801: jump @861 if a1 != 0\n      : @855 (gas: 27)\n 24805: a0 = u64 [a4 + 0x18]\n 24808: u64 [sp + 0x20] = a0\n 24811: a0 = u64 [a4 + 0x10]\n 24814: u64 [sp + 0x18] = a0\n 24817: a0 = u64 [a4 + 0x8]\n 24820: u64 [sp + 0x10] = a0\n 24823: a0 = u64 [a4]\n 24825: u64 [sp + 0x8] = a0\n 24828: a0 = u64 [a3 + 0x10]\n 24831: u64 [sp + 0x30] = a0\n 24834: a0 = u64 [a3 + 0x8]\n 24837: u64 [sp + 0x38] = a0\n 24840: a0 = u64 [a3]\n 24842: u64 [sp + 0x40] = a0\n 24845: a0 = u64 [a2 + 0x10]\n 24848: a1 = u64 [a2 + 0x8]\n 24851: a2 = u64 [a2]\n 24853: a0 = a0 << 0x20\n 24856: a0 = a0 >> 0x20\n 24859: u64 [sp + 200] = 0\n 24863: u64 [sp + 0xb0] = a2\n 24867: u64 [sp + 0xb8] = a1\n 24871: a1 = sp + 0xb0\n 24875: u64 [sp + 0xc0] = a0\n 24879: s1 = t0\n 24881: a0 = t0\n 24883: ra = 850, jump @4\n      : @856 [@dyn 425] (gas: 12)\n 24889: a0 = u64 [sp + 0x60]\n 24892: a1 = u64 [sp + 0x58]\n 24895: a2 = a0 | a1\n 24898: a0 = 0x100000000\n 24908: u64 [sp + 0x28] = a0\n 24911: a0 = 0xffffffe0\n 24921: a0 = s1 <u a0\n 24924: a1 = u64 [sp + 0x68]\n 24927: a0 = 0 if a1 != 0\n 24929: u64 [sp + 0x48] = a2\n 24932: a0 = 0 if a2 != 0\n 24934: jump @861 if a0 == 0\n      : @857 (gas: 14)\n 24938: a1 = 0xffffffff\n 24948: a2 = u64 [sp + 0x30]\n 24951: a2 = a2 & a1\n 24954: a1 = u64 [sp + 0x38]\n 24957: a1 = a1 & 0xffffffffffffffff\n 24960: a3 = u64 [sp + 0x40]\n 24963: a3 = a3 & 0xffffffffffffffff\n 24966: i32 a0 = s1 + 0x20\n 24969: u64 [sp + 168] = 0\n 24973: u64 [sp + 0x90] = a3\n 24977: u64 [sp + 0x98] = a1\n 24981: a1 = sp + 0x90\n 24985: u64 [sp + 0xa0] = a2\n 24989: ra = 852, jump @4\n      : @858 [@dyn 426] (gas: 8)\n 24995: a0 = u64 [sp + 0x28]\n 24998: a0 = a0 + 0xffffffffffffffc0\n 25001: a0 = s1 <u a0\n 25004: a1 = u64 [sp + 0x68]\n 25007: a0 = 0 if a1 != 0\n 25009: a1 = u64 [sp + 0x48]\n 25012: a0 = 0 if a1 != 0\n 25014: jump @861 if a0 == 0\n      : @859 (gas: 26)\n 25018: a0 = s1 + 0x60\n 25021: u64 [sp + 0x48] = a0\n 25024: a0 = a0 <u s1\n 25027: a1 = u64 [sp + 0x68]\n 25030: a2 = a1 + a0\n 25033: u64 [sp + 0x40] = a2\n 25036: a1 = a2 <u a1\n 25039: a1 = a0 if a0 == 0\n 25042: a0 = u64 [sp + 0x60]\n 25045: a1 = a1 + a0\n 25048: u64 [sp + 0x38] = a1\n 25051: a0 = a1 <u a0\n 25054: a1 = u64 [sp + 0x58]\n 25057: a0 = a0 + a1\n 25060: u64 [sp + 0x68] = a0\n 25063: i32 a0 = s1 + 0x40\n 25066: a1 = u64 [sp + 0x8]\n 25069: u64 [sp + 0x70] = a1\n 25072: a1 = u64 [sp + 0x10]\n 25075: u64 [sp + 0x78] = a1\n 25078: a1 = u64 [sp + 0x18]\n 25081: u64 [sp + 0x80] = a1\n 25085: a1 = sp + 0x70\n 25088: a2 = u64 [sp + 0x20]\n 25091: u64 [sp + 0x88] = a2\n 25095: ra = 854, jump @4\n      : @860 [@dyn 427] (gas: 15)\n 25101: a0 = u64 [sp + 0x50]\n 25104: a1 = u64 [sp + 0x38]\n 25107: u64 [a0 + 0x10] = a1\n 25110: a1 = u64 [sp + 0x40]\n 25113: u64 [a0 + 0x8] = a1\n 25116: a1 = u64 [sp + 0x48]\n 25119: u64 [a0] = a1\n 25121: a1 = u64 [sp + 0x68]\n 25124: u64 [a0 + 0x18] = a1\n 25127: sp = s0 + 0xffffffffffffff10\n 25131: ra = u64 [sp + 0xe8]\n 25135: s0 = u64 [sp + 0xe0]\n 25139: s1 = u64 [sp + 0xd8]\n 25143: sp = sp + 0xf0\n 25147: ret\n      : @861 (gas: 1)\n 25149: trap\n      : @862 [@dyn 428] (gas: 7)\n 25150: u64 [s1 + 632] = 0\n 25154: u64 [s1 + 624] = 0\n 25158: u64 [s1 + 608] = 0x5\n 25163: a0 = 0x20\n 25166: a1 = s1 + 0x260\n 25170: u64 [s1 + 616] = 0\n 25174: ra = 858, jump @4\n      : @863 [@dyn 429] (gas: 3)\n 25180: a2 = 0x201c4\n 25185: a0 = i32 [0x201c4]\n 25190: jump @865 if a0 >u 63\n      : @864 (gas: 2)\n 25194: u32 [0x201c4] = 0x40\n 25200: fallthrough\n      : @865 (gas: 15)\n 25201: u64 [s1 + 0x50] = a2\n 25204: a0 = sp + 0xffffffffffffffe0\n 25207: a2 = a0 & 0xffffffffffffffe0\n 25210: u64 [s1 + 0xb8] = a2\n 25214: sp = a2\n 25216: a0 = 0x201d0\n 25221: i32 a0 = a0 + 0\n 25223: i32 a2 = a2 + 0\n 25225: a1 = 0x40\n 25228: u64 [s1 + 0x30] = a0\n 25231: ra = 0x35c\n 25235: ecalli 8 // 'hash_keccak_256'\n 25237: a3 = u64 [s1 + 0xb8]\n 25241: t0 = 0x35e\n 25245: jump @947\n      : @866 [@dyn 430] (gas: 2)\n 25248: a3 = u64 [s1 + 0xb8]\n 25252: t0 = 862, jump @947\n      : @867 [@dyn 431] (gas: 11)\n 25258: u64 [s1 + 0x90] = a1\n 25262: u64 [s1 + 0x2b8] = a1\n 25266: u64 [s1 + 0x98] = a0\n 25270: u64 [s1 + 0x2b0] = a0\n 25274: u64 [s1 + 0x88] = a4\n 25278: u64 [s1 + 0x2a8] = a4\n 25282: u64 [s1 + 0x80] = a5\n 25286: u64 [s1 + 0x2a0] = a5\n 25290: a0 = s1 + 0x240\n 25294: a1 = 0x40\n 25297: ra = 864, jump @2\n      : @868 [@dyn 432] (gas: 15)\n 25303: a4 = s1 + 0x200\n 25307: a0 = u64 [a4 + 0x58]\n 25310: u64 [s1 + 0xa8] = a0\n 25314: a1 = u64 [a4 + 0x50]\n 25317: u64 [s1 + 0xa0] = a1\n 25321: a3 = u64 [a4 + 0x48]\n 25324: u64 [s1 + 0xb0] = a3\n 25328: a2 = u64 [a4 + 0x40]\n 25331: u64 [s1 + 0xb8] = a2\n 25335: u64 [a4 + 0x38] = a0\n 25338: u64 [a4 + 0x30] = a1\n 25341: u64 [a4 + 0x28] = a3\n 25344: a0 = s1 + 0x220\n 25348: u64 [a4 + 0x20] = a2\n 25351: ra = 866, jump @801\n      : @869 [@dyn 433] (gas: 3)\n 25357: a0 = s1 + 0x200\n 25361: a1 = s1 + 0x2a0\n 25365: ra = 868, jump @6\n      : @870 [@dyn 434] (gas: 12)\n 25371: a0 = u64 [s1 + 0xa8]\n 25375: a1 = u64 [s1 + 0xb0]\n 25379: a0 = a0 | a1\n 25382: a2 = u64 [s1 + 0xa0]\n 25386: a1 = u64 [s1 + 0xb8]\n 25390: a1 = a1 | a2\n 25393: a1 = a1 | a0\n 25396: a1 = a1 >> 0x20\n 25399: a0 = a0 | a2\n 25402: a0 = a0 << 0x20\n 25405: a0 = a0 | a1\n 25408: jump @902 if a0 != 0\n      : @871 (gas: 16)\n 25412: a2 = u64 [s1 + 0x218]\n 25416: a3 = u64 [s1 + 0x210]\n 25420: a1 = u64 [s1 + 0x208]\n 25424: a0 = u64 [s1 + 0x200]\n 25428: u64 [s1 + 0x78] = a0\n 25431: a4 = s1 + 0x100\n 25435: u64 [a4 + 0xe0] = a0\n 25439: u64 [s1 + 0x68] = a1\n 25442: u64 [a4 + 0xe8] = a1\n 25446: u64 [s1 + 0x58] = a3\n 25449: u64 [a4 + 0xf0] = a3\n 25453: a1 = s1 + 0x1e0\n 25457: u64 [s1 + 0x70] = a2\n 25460: u64 [a4 + 0xf8] = a2\n 25464: a0 = u64 [s1 + 0xb8]\n 25468: ra = 870, jump @4\n      : @872 [@dyn 435] (gas: 20)\n 25474: a0 = u64 [s1 + 0x80]\n 25478: a0 = a0 + 0x1\n 25481: a1 = a0 <u 0x1\n 25484: a2 = u64 [s1 + 0x88]\n 25488: a1 = a1 + a2\n 25491: a2 = a0 | a1\n 25494: a2 = a2 <u 0x1\n 25497: a3 = u64 [s1 + 0x98]\n 25501: a2 = a2 + a3\n 25504: a3 = a2 <u a3\n 25507: a4 = u64 [s1 + 0x90]\n 25511: a3 = a3 + a4\n 25514: a4 = s1 + 0x200\n 25518: u64 [a4 + 0xc8] = a1\n 25522: u64 [a4 + 0xc0] = a0\n 25526: u64 [a4 + 0xd0] = a2\n 25530: u64 [a4 + 0xd8] = a3\n 25534: a0 = s1 + 0x1c0\n 25538: a1 = s1 + 0x2c0\n 25542: ra = 872, jump @6\n      : @873 [@dyn 436] (gas: 13)\n 25548: a0 = u64 [s1 + 0xa8]\n 25552: a1 = u64 [s1 + 0xa0]\n 25556: a2 = a1 | a0\n 25559: a0 = 0x100000000\n 25569: u64 [s1 + 0xa0] = a0\n 25573: a0 = 0xffffffe0\n 25583: a1 = u64 [s1 + 0xb8]\n 25587: a0 = a1 <u a0\n 25590: a1 = u64 [s1 + 0xb0]\n 25594: a0 = 0 if a1 != 0\n 25596: u64 [s1 + 0xa8] = a2\n 25600: a0 = 0 if a2 != 0\n 25602: jump @902 if a0 == 0\n      : @874 (gas: 13)\n 25606: a5 = s1 + 0x100\n 25610: a2 = u64 [a5 + 0xd8]\n 25614: a1 = u64 [a5 + 0xd0]\n 25618: a3 = u64 [a5 + 0xc8]\n 25622: a4 = u64 [a5 + 0xc0]\n 25626: a0 = u64 [s1 + 0xb8]\n 25630: i32 a0 = a0 + 0x20\n 25633: u64 [a5 + 0xa0] = a4\n 25637: u64 [a5 + 0xa8] = a3\n 25641: u64 [a5 + 0xb0] = a1\n 25645: a1 = s1 + 0x1a0\n 25649: u64 [a5 + 0xb8] = a2\n 25653: ra = 874, jump @4\n      : @875 [@dyn 437] (gas: 5)\n 25659: a1 = u64 [s1 + 0x80]\n 25663: a0 = a1 + 0x2\n 25666: a1 = a0 <u a1\n 25669: a3 = u64 [s1 + 0x88]\n 25673: t0 = 876, jump @955\n      : @876 [@dyn 438] (gas: 13)\n 25679: a1 = u64 [s1 + 0x98]\n 25683: a3 = a3 + a1\n 25686: a1 = a3 <u a1\n 25689: a4 = u64 [s1 + 0x90]\n 25693: a1 = a1 + a4\n 25696: a4 = s1 + 0x200\n 25700: u64 [a4 + 0xe8] = a2\n 25704: u64 [a4 + 0xe0] = a0\n 25708: u64 [a4 + 0xf0] = a3\n 25712: u64 [a4 + 0xf8] = a1\n 25716: a0 = s1 + 0x180\n 25720: a1 = s1 + 0x2e0\n 25724: ra = 878, jump @6\n      : @877 [@dyn 439] (gas: 9)\n 25730: a0 = u64 [s1 + 0xa0]\n 25734: a0 = a0 + 0xffffffffffffffc0\n 25737: a1 = u64 [s1 + 0xb8]\n 25741: a0 = a1 <u a0\n 25744: a1 = u64 [s1 + 0xb0]\n 25748: a0 = 0 if a1 != 0\n 25750: a1 = u64 [s1 + 0xa8]\n 25754: a0 = 0 if a1 != 0\n 25756: jump @902 if a0 == 0\n      : @878 (gas: 12)\n 25760: a0 = u64 [s1 + 0x180]\n 25764: a0 = a0 & 0xff\n 25768: u64 [s1 + 0xb0] = a0\n 25772: a1 = a0 >u 0\n 25774: a0 = u64 [s1 + 0xb8]\n 25778: i32 a0 = a0 + 0x40\n 25781: u64 [s1 + 376] = 0\n 25785: u64 [s1 + 368] = 0\n 25789: u64 [s1 + 0x160] = a1\n 25793: a1 = s1 + 0x160\n 25797: u64 [s1 + 360] = 0\n 25801: ra = 880, jump @4\n      : @879 [@dyn 440] (gas: 2)\n 25807: a0 = u64 [s1 + 0xb0]\n 25811: jump @898 if a0 == 0\n      : @880 (gas: 24)\n 25815: t1 = 0x64\n 25818: t0 = u64 [s1 + 0x78]\n 25821: a0 = t0 mulhu t1\n 25824: a4 = u64 [s1 + 0x68]\n 25827: a1 = a4 * t1\n 25830: a0 = a0 + a1\n 25833: u64 [s1 + 0x60] = a0\n 25836: a0 = a0 <u a1\n 25839: a1 = a4 mulhu t1\n 25842: a0 = a0 + a1\n 25845: a3 = u64 [s1 + 0x58]\n 25848: a1 = a3 * t1\n 25851: a1 = a1 + a0\n 25854: u64 [s1 + 0xb8] = a1\n 25858: a0 = a1 <u a0\n 25861: a1 = a3 mulhu t1\n 25864: a5 = u64 [s1 + 0x70]\n 25867: a2 = a5 * t1\n 25870: a2 = a2 + a1\n 25873: a3 = t0 | a3\n 25876: a4 = a4 | a5\n 25879: a3 = a3 | a4\n 25882: a4 = a2 + a0\n 25885: jump @882 if a3 == 0\n      : @881 (gas: 7)\n 25888: a0 = 0 if a4 != 0\n 25890: a1 = a2 <u a1\n 25893: a2 = a5 mulhu t1\n 25896: a2 = a2 >u 0\n 25898: a1 = a1 | a2\n 25901: a0 = a0 | a1\n 25904: jump @906 if a0 != 0\n      : @882 (gas: 8)\n 25908: u64 [s1 + 0x70] = a4\n 25911: u64 [s1 + 792] = 0\n 25915: u64 [s1 + 784] = 0\n 25919: u64 [s1 + 776] = 0\n 25923: u64 [s1 + 768] = 0x3\n 25928: a0 = s1 + 0x100\n 25932: a1 = s1 + 0x300\n 25936: ra = 882, jump @6\n      : @883 [@dyn 441] (gas: 8)\n 25942: a5 = u64 [s1 + 0x118]\n 25946: t0 = u64 [s1 + 0x110]\n 25950: t2 = u64 [s1 + 0x108]\n 25954: a4 = u64 [s1 + 0x100]\n 25958: a0 = t2 | a5\n 25961: a1 = a4 | t0\n 25964: a0 = a0 | a1\n 25967: jump @903 if a0 == 0\n      : @884 (gas: 75)\n 25971: a1 = u64 [s1 + 0x78]\n 25974: a1 = a1 * 0x64\n 25977: a0 = a0 <u 0x1\n 25980: a3 = u64 [s1 + 0xb8]\n 25984: a3 = a3 | a1\n 25987: ra = a1\n 25989: u64 [s1 + 0x68] = a1\n 25992: t1 = u64 [s1 + 0x60]\n 25995: a1 = u64 [s1 + 0x70]\n 25998: a2 = t1 | a1\n 26001: a2 = a2 | a3\n 26004: a2 = a2 <u 0x1\n 26007: a0 = a0 | a2\n 26010: u64 [s1 + 0xb0] = a0\n 26014: a0 = clz t0\n 26016: a0 = a0 + 0x40\n 26019: a3 = clz a5\n 26021: a3 = a0 if a5 == 0\n 26024: u64 [s1 + 0x38] = a4\n 26027: a0 = clz a4\n 26029: a0 = a0 + 0x40\n 26032: a4 = clz t2\n 26034: u64 [s1 + 0x40] = t2\n 26037: a4 = a0 if t2 == 0\n 26040: a0 = a4 + 0x80\n 26044: u64 [s1 + 0x50] = a5\n 26047: u64 [s1 + 0x48] = t0\n 26050: a2 = t0 | a5\n 26053: a3 = a0 if a2 == 0\n 26056: a4 = a0 <u a4\n 26059: a4 = 0 if a2 != 0\n 26061: t0 = u64 [s1 + 0xb8]\n 26065: a0 = clz t0\n 26067: a0 = a0 + 0x40\n 26070: a5 = clz a1\n 26072: a5 = a0 if a1 == 0\n 26075: a0 = clz ra\n 26077: a0 = a0 + 0x40\n 26080: a2 = clz t1\n 26082: a2 = a0 if t1 == 0\n 26085: a0 = a2 + 0x80\n 26089: t0 = t0 | a1\n 26092: a5 = a0 if t0 == 0\n 26095: a2 = a0 <u a2\n 26098: a2 = 0 if t0 != 0\n 26100: t0 = a4 ^ a2\n 26103: a0 = a4 <u a2\n 26106: ra = a3 <u a5\n 26109: a0 = ra if t0 == 0\n 26112: t2 = a0 <u 0x1\n 26115: t2 = t2 + 0xffffffffffffffff\n 26118: t0 = -a0\n 26120: a4 = a4 - a2\n 26123: ra = a4 - ra\n 26126: a5 = a3 - a5\n 26129: a3 = t0 >u 0\n 26131: a2 = t2 >u 0\n 26133: a2 = a3 if t2 == 0\n 26136: a4 = ra >u 0\n 26138: u64 [s1 + 0xa8] = a5\n 26142: a3 = a5 <u 0x100\n 26146: a3 = a3 ^ 0x1\n 26149: a3 = a4 if ra != 0\n 26152: a3 = a2 if a0 != 0\n 26155: a2 = u64 [s1 + 0xb0]\n 26159: a2 = a2 | a3\n 26162: a4 = a1\n 26164: a4 = 0 if a2 != 0\n 26166: a3 = u64 [s1 + 0xb8]\n 26170: a3 = 0 if a2 != 0\n 26172: a0 = t1\n 26174: a0 = 0 if a2 != 0\n 26176: a5 = u64 [s1 + 0x68]\n 26179: a5 = 0 if a2 != 0\n 26181: jump @901 if a2 != 0\n      : @885 (gas: 7)\n 26185: a1 = t1\n 26187: a2 = u64 [s1 + 0xa8]\n 26191: a2 = a2 ^ 0xff\n 26195: t1 = a2 | t0\n 26198: a2 = ra | t2\n 26201: a2 = t1 | a2\n 26204: jump @901 if a2 == 0\n      : @886 (gas: 18)\n 26208: a3 = u64 [s1 + 0xa8]\n 26212: a2 = a3 + 0x1\n 26215: u64 [s1 + 0xb0] = a2\n 26219: a0 = a2 <u 0x1\n 26222: a0 = a0 + ra\n 26225: u64 [s1 + 0x88] = a0\n 26229: a0 = a0 | a2\n 26232: a0 = a0 <u 0x1\n 26235: a0 = a0 + t0\n 26238: u64 [s1 + 0x78] = a0\n 26241: a0 = a0 <u t0\n 26244: a0 = a0 + t2\n 26247: u64 [s1 + 0x80] = a0\n 26251: a2 = 0xff - a3\n 26255: u64 [s1 + 0x90] = a2\n 26259: a2 = 0x80 - a2\n 26263: a0 = u64 [s1 + 0x68]\n 26266: ra = 884, jump @956\n      : @887 [@dyn 442] (gas: 6)\n 26272: u64 [s1 + 0xa0] = a0\n 26276: u64 [s1 + 0x98] = a1\n 26280: a0 = u64 [s1 + 0xb8]\n 26284: a1 = u64 [s1 + 0x70]\n 26287: a2 = u64 [s1 + 0x90]\n 26291: ra = 886, jump @961\n      : @888 [@dyn 443] (gas: 9)\n 26297: u64 [s1 + 0x58] = a0\n 26300: a0 = u64 [s1 + 0x98]\n 26304: a0 = a0 | a1\n 26307: u64 [s1 + 0x98] = a0\n 26311: a1 = u64 [s1 + 0xa8]\n 26315: a2 = 0x7f - a1\n 26318: a0 = u64 [s1 + 0x68]\n 26321: a1 = u64 [s1 + 0x60]\n 26324: ra = 888, jump @961\n      : @889 [@dyn 444] (gas: 18)\n 26330: a2 = u64 [s1 + 0x90]\n 26334: a3 = a2 <u 0x80\n 26338: u64 [s1 + 0xa8] = a3\n 26342: a4 = u64 [s1 + 0x98]\n 26346: a1 = a4 if a3 != 0\n 26349: a4 = u64 [s1 + 0x70]\n 26352: a1 = a4 if a2 == 0\n 26355: u64 [s1 + 0x98] = a1\n 26359: a1 = u64 [s1 + 0xa0]\n 26363: a4 = u64 [s1 + 0x58]\n 26366: a1 = a1 | a4\n 26369: a1 = a0 if a3 == 0\n 26372: a0 = u64 [s1 + 0xb8]\n 26376: a1 = a0 if a2 == 0\n 26379: u64 [s1 + 0xa0] = a1\n 26383: a0 = u64 [s1 + 0x68]\n 26386: a1 = u64 [s1 + 0x60]\n 26389: ra = 890, jump @961\n      : @890 [@dyn 445] (gas: 13)\n 26395: a5 = u64 [s1 + 0x78]\n 26398: a2 = u64 [s1 + 0x80]\n 26402: a3 = u64 [s1 + 0x88]\n 26406: a3 = a3 | a2\n 26409: a2 = u64 [s1 + 0xb0]\n 26413: a2 = a2 | a5\n 26416: a2 = a2 | a3\n 26419: a3 = u64 [s1 + 0xa8]\n 26423: a1 = 0 if a3 == 0\n 26425: u64 [s1 + 0x90] = a1\n 26429: a0 = 0 if a3 == 0\n 26431: u64 [s1 + 0xa8] = a0\n 26435: jump @899 if a2 == 0\n      : @891 (gas: 5)\n 26439: a0 = u64 [s1 + 0xb0]\n 26443: a2 = a0 + 0xffffffffffffff80\n 26446: a0 = u64 [s1 + 0xb8]\n 26450: a1 = u64 [s1 + 0x70]\n 26453: ra = 892, jump @956\n      : @892 [@dyn 446] (gas: 6)\n 26459: u64 [s1 + 0x58] = a0\n 26462: u64 [s1 + 0x28] = a1\n 26465: a0 = u64 [s1 + 0x68]\n 26468: a1 = u64 [s1 + 0x60]\n 26471: a2 = u64 [s1 + 0xb0]\n 26475: ra = 894, jump @956\n      : @893 [@dyn 447] (gas: 7)\n 26481: u64 [s1 + 0x20] = a0\n 26484: u64 [s1 + 0x30] = a1\n 26487: a1 = u64 [s1 + 0xb0]\n 26491: a2 = 0x80 - a1\n 26495: a0 = u64 [s1 + 0xb8]\n 26499: a1 = u64 [s1 + 0x70]\n 26502: ra = 896, jump @961\n      : @894 [@dyn 448] (gas: 21)\n 26508: a2 = u64 [s1 + 0x30]\n 26511: a1 = a1 | a2\n 26514: a3 = u64 [s1 + 0xb0]\n 26518: a4 = a3 <u 0x80\n 26522: u64 [s1 + 0x30] = a4\n 26525: a2 = u64 [s1 + 0x28]\n 26528: a1 = a2 if a4 == 0\n 26531: a2 = u64 [s1 + 0x60]\n 26534: a2 = a1 if a3 != 0\n 26537: u64 [s1 + 0x60] = a2\n 26540: a1 = u64 [s1 + 0x20]\n 26543: a0 = a0 | a1\n 26546: a1 = u64 [s1 + 0x58]\n 26549: a0 = a1 if a4 == 0\n 26552: a1 = u64 [s1 + 0x68]\n 26555: a1 = a0 if a3 != 0\n 26558: a2 = a3\n 26560: u64 [s1 + 0x68] = a1\n 26563: a0 = u64 [s1 + 0xb8]\n 26567: a1 = u64 [s1 + 0x70]\n 26570: ra = 898, jump @956\n      : @895 [@dyn 449] (gas: 24)\n 26576: t2 = 0\n 26578: a2 = u64 [s1 + 0x30]\n 26581: a1 = 0 if a2 == 0\n 26583: a0 = 0 if a2 == 0\n 26585: u64 [s1 + 0x70] = a0\n 26588: a2 = u64 [s1 + 0x38]\n 26591: a0 = a2 <u 0x1\n 26594: a3 = u64 [s1 + 0x40]\n 26597: a0 = a3 - a0\n 26600: u64 [s1 + 0x28] = a0\n 26603: a0 = a2 | a3\n 26606: a0 = a0 <u 0x1\n 26609: a3 = u64 [s1 + 0x48]\n 26612: a4 = a3 - a0\n 26615: u64 [s1 + 0x20] = a4\n 26618: a0 = a3 <u a0\n 26621: a3 = u64 [s1 + 0x50]\n 26624: a3 = a3 - a0\n 26627: u64 [s1 + 0x18] = a3\n 26630: a2 = a2 + 0xffffffffffffffff\n 26633: u64 [s1 + 0x10] = a2\n 26636: t1 = u64 [s1 + 0x60]\n 26639: ra = u64 [s1 + 0x68]\n 26642: fallthrough\n      : @896 (gas: 106)\n 26643: u64 [s1 + 0x58] = t2\n 26646: u64 [s1 + 96] = 0\n 26649: u64 [s1 + 48] = 0\n 26652: a4 = ra >> 0x3f\n 26655: a3 = t1 << 0x1\n 26658: t0 = a3 | a4\n 26661: a4 = ra << 0x1\n 26664: a3 = u64 [s1 + 0x98]\n 26668: a2 = a3 >> 0x3f\n 26671: a2 = a2 | a4\n 26674: u64 [s1 + 0x68] = a2\n 26677: a0 = u64 [s1 + 0x28]\n 26680: a5 = a0 ^ t0\n 26683: a4 = a0 <u t0\n 26686: a0 = u64 [s1 + 0x10]\n 26689: t2 = a0 <u a2\n 26692: t2 = a4 if a5 != 0\n 26695: a1 = a1 << 0x1\n 26698: a0 = u64 [s1 + 0x70]\n 26701: a2 = a0 >> 0x3f\n 26704: a1 = a1 | a2\n 26707: u64 [s1 + 0xb8] = a1\n 26711: a2 = t1 >> 0x3f\n 26714: a0 = a0 << 0x1\n 26717: t1 = a0 | a2\n 26720: a0 = a3 << 0x1\n 26723: a1 = u64 [s1 + 0xa0]\n 26727: a2 = a1 >> 0x3f\n 26730: a0 = a0 | a2\n 26733: a2 = a1 << 0x1\n 26736: a1 = u64 [s1 + 0x90]\n 26740: a4 = a1 >> 0x3f\n 26743: a2 = a2 | a4\n 26746: a4 = a1 << 0x1\n 26749: a5 = u64 [s1 + 0xa8]\n 26753: ra = a5 >> 0x3f\n 26756: a4 = a4 | ra\n 26759: a5 = a5 << 0x1\n 26762: a1 = u64 [s1 + 0x58]\n 26765: a1 = a1 | a5\n 26768: u64 [s1 + 0xa8] = a1\n 26772: a3 = u64 [s1 + 0x60]\n 26775: a1 = a3 | a4\n 26778: u64 [s1 + 0x90] = a1\n 26782: a1 = a3 | a2\n 26785: u64 [s1 + 0xa0] = a1\n 26789: a0 = a0 | a3\n 26792: u64 [s1 + 0x98] = a0\n 26796: a1 = u64 [s1 + 0x20]\n 26799: a0 = a1 - t1\n 26802: a0 = a0 <u t2\n 26805: a2 = a1 <u t1\n 26808: a1 = u64 [s1 + 0x18]\n 26811: a3 = u64 [s1 + 0xb8]\n 26815: a4 = a1 - a3\n 26818: a4 = a4 - a2\n 26821: a4 = a4 - a0\n 26824: a4 = a4 >>a 0x3f\n 26827: a0 = u64 [s1 + 0x38]\n 26830: a1 = a4 & a0\n 26833: u64 [s1 + 0x60] = a1\n 26836: a5 = u64 [s1 + 0x40]\n 26839: a5 = a5 & a4\n 26842: a0 = t0 ^ a5\n 26845: a2 = t0 <u a5\n 26848: t2 = u64 [s1 + 0x68]\n 26851: ra = t2 <u a1\n 26854: a2 = ra if a0 == 0\n 26857: a1 = u64 [s1 + 0x48]\n 26860: a3 = a4 & a1\n 26863: a1 = t1 - a3\n 26866: a0 = a1 - a2\n 26869: u64 [s1 + 0x70] = a0\n 26872: a0 = a1 <u a2\n 26875: a1 = t1 <u a3\n 26878: a2 = u64 [s1 + 0x50]\n 26881: a2 = a2 & a4\n 26884: a3 = u64 [s1 + 0xb8]\n 26888: a2 = a3 - a2\n 26891: a1 = a2 - a1\n 26894: a1 = a1 - a0\n 26897: a3 = t0 - a5\n 26900: t1 = a3 - ra\n 26903: a0 = u64 [s1 + 0x60]\n 26906: ra = t2 - a0\n 26909: a5 = u64 [s1 + 0xb0]\n 26913: a2 = u64 [s1 + 0x88]\n 26917: a0 = a5 | a2\n 26920: a0 = a0 <u 0x1\n 26923: a3 = u64 [s1 + 0x78]\n 26926: t2 = a3 <u a0\n 26929: a0 = a3 - a0\n 26932: a3 = a5 <u 0x1\n 26935: a2 = a2 - a3\n 26938: a3 = u64 [s1 + 0x80]\n 26942: a3 = a3 - t2\n 26945: a5 = a5 + 0xffffffffffffffff\n 26948: u64 [s1 + 0x88] = a2\n 26952: u64 [s1 + 0x80] = a3\n 26956: a2 = a2 | a3\n 26959: u64 [s1 + 0xb0] = a5\n 26963: a3 = a5 | a0\n 26966: a3 = a3 | a2\n 26969: t2 = a4 & 0x1\n 26972: u64 [s1 + 0x78] = a0\n 26975: jump @896 if a3 != 0\n      : @897 (gas: 1)\n 26979: jump @900\n      : @898 (gas: 4)\n 26981: a5 = 0\n 26983: a3 = 0\n 26985: a4 = 0\n 26987: jump @901\n      : @899 (gas: 3)\n 26989: t2 = 0\n 26991: u64 [s1 + 48] = 0\n 26994: fallthrough\n      : @900 (gas: 20)\n 26995: a3 = u64 [s1 + 0xa0]\n 26999: a0 = a3 >> 0x3f\n 27002: a1 = u64 [s1 + 0x98]\n 27006: a1 = a1 << 0x1\n 27009: t0 = a1 | a0\n 27012: a0 = u64 [s1 + 0x90]\n 27016: a1 = a0 >> 0x3f\n 27019: a3 = a3 << 0x1\n 27022: a3 = a3 | a1\n 27025: a2 = u64 [s1 + 0xa8]\n 27029: a1 = a2 >> 0x3f\n 27032: a0 = a0 << 0x1\n 27035: a5 = a2 << 0x1\n 27038: a5 = t2 | a5\n 27041: a2 = u64 [s1 + 0x30]\n 27044: a1 = a1 | a2\n 27047: a0 = a0 | a1\n 27050: a3 = a3 | a2\n 27053: a4 = a2 | t0\n 27056: fallthrough\n      : @901 (gas: 12)\n 27057: a2 = u64 [s1 + 0x8]\n 27060: u64 [a2] = a5\n 27062: u64 [a2 + 0x8] = a0\n 27065: u64 [a2 + 0x10] = a3\n 27068: u64 [a2 + 0x18] = a4\n 27071: sp = s0 + 0xfffffffffffffcc0\n 27075: a0 = sp + 0x300\n 27079: ra = u64 [a0 + 0x38]\n 27082: s0 = u64 [a0 + 0x30]\n 27085: s1 = u64 [a0 + 0x28]\n 27088: sp = sp + 0x340\n 27092: ret\n      : @902 (gas: 1)\n 27094: trap\n      : @903 (gas: 6)\n 27095: u64 [s1 + 240] = 0\n 27099: u64 [s1 + 232] = 0\n 27103: u64 [s1 + 224] = 0\n 27107: t0 = 0x384\n 27111: a0 = 0x4e487b7100000000\n 27121: fallthrough\n      : @904 [@dyn 450] (gas: 4)\n 27122: a1 = s1 + 0xe0\n 27126: u64 [s1 + 0xf8] = a0\n 27130: a0 = 0\n 27132: ra = 902, jump @4\n      : @905 [@dyn 451] (gas: 8)\n 27138: u64 [s1 + 216] = 0\n 27142: u64 [s1 + 208] = 0\n 27146: u64 [s1 + 192] = 0x12\n 27151: a0 = 0x4\n 27154: a1 = s1 + 0xc0\n 27158: u64 [s1 + 200] = 0\n 27162: ra = 0x38c\n 27166: jump @4\n      : @906 (gas: 6)\n 27169: u64 [s1 + 336] = 0\n 27173: u64 [s1 + 328] = 0\n 27177: u64 [s1 + 320] = 0\n 27181: t0 = 0x388\n 27185: a0 = 0x4e487b7100000000\n 27195: fallthrough\n      : @907 [@dyn 452] (gas: 4)\n 27196: a1 = s1 + 0x140\n 27200: u64 [s1 + 0x158] = a0\n 27204: a0 = 0\n 27206: ra = 906, jump @4\n      : @908 [@dyn 453] (gas: 7)\n 27212: u64 [s1 + 312] = 0\n 27216: u64 [s1 + 304] = 0\n 27220: u64 [s1 + 288] = 0x11\n 27225: a0 = 0x4\n 27228: a1 = s1 + 0x120\n 27232: u64 [s1 + 296] = 0\n 27236: ra = 908, jump @4\n      : @909 [@dyn 454] (gas: 3)\n 27242: a0 = u64 [s1 + 0x50]\n 27245: a0 = i32 [a0]\n 27247: jump @911 if a0 >u 63\n      : @910 (gas: 3)\n 27251: a1 = u64 [s1 + 0x50]\n 27254: u32 [a1 + 0] = 0x40\n 27257: fallthrough\n      : @911 (gas: 6)\n 27258: a0 = 0x1\n 27261: a2 = 0x24\n 27264: a1 = u64 [s1 + 0x30]\n 27267: ra = 0x38e\n 27271: ecalli 12 // 'seal_return'\n 27273: fallthrough\n      : @912 [@dyn 455] (gas: 13)\n 27274: sp = sp + 0xffffffffffffff40\n 27278: u64 [sp + 0xb8] = ra\n 27282: u64 [sp + 0xb0] = s0\n 27286: u64 [sp + 0xa8] = s1\n 27290: s0 = sp + 0xc0\n 27294: sp = sp & 0xffffffffffffffe0\n 27297: u64 [sp + 152] = 0\n 27301: u64 [sp + 144] = 0\n 27305: u64 [sp + 136] = 0\n 27309: u64 [sp + 128] = 0\n 27313: a0 = sp + 0x60\n 27316: a1 = sp + 0x80\n 27320: ra = 912, jump @6\n      : @913 [@dyn 456] (gas: 11)\n 27326: a0 = u64 [sp + 0x68]\n 27329: u64 [sp + 0x18] = a0\n 27332: a0 = u64 [sp + 0x60]\n 27335: u64 [sp + 0x10] = a0\n 27338: a0 = u32 [sp + 0x70]\n 27341: u64 [sp + 0x8] = a0\n 27344: s1 = 0x301d0\n 27349: i32 a0 = s1 + 0\n 27351: u64 [sp] = a0\n 27353: ecalli 5 // 'caller'\n 27355: fallthrough\n      : @914 (gas: 22)\n 27356: a0 = u64 [0x301d8]\n 27361: a1 = u64 [0x301d0]\n 27366: a2 = i32 [0x301e0]\n 27371: a0 = reverse a0\n 27373: a3 = a0 >> 0x20\n 27376: a1 = reverse a1\n 27378: a4 = a1 << 0x20\n 27381: a3 = a3 | a4\n 27384: a0 = a0 << 0x20\n 27387: a2 = reverse a2\n 27389: a2 = a2 >> 0x20\n 27392: a0 = a0 | a2\n 27395: a1 = a1 >> 0x20\n 27398: a2 = u64 [sp + 0x8]\n 27401: a1 = a1 ^ a2\n 27404: a2 = u64 [sp + 0x10]\n 27407: a0 = a0 ^ a2\n 27410: a0 = a0 | a1\n 27413: a1 = u64 [sp + 0x18]\n 27416: a1 = a1 ^ a3\n 27419: a0 = a0 | a1\n 27422: jump @916 if a0 != 0\n      : @915 (gas: 6)\n 27425: sp = s0 + 0xffffffffffffff40\n 27429: ra = u64 [sp + 0xb8]\n 27433: s0 = u64 [sp + 0xb0]\n 27437: s1 = u64 [sp + 0xa8]\n 27441: sp = sp + 0xc0\n 27445: ret\n      : @916 (gas: 8)\n 27447: u64 [sp + 80] = 0\n 27450: u64 [sp + 72] = 0\n 27453: u64 [sp + 64] = 0\n 27456: a0 = 0x118cdaa700000000\n 27466: a1 = sp + 0x40\n 27469: u64 [sp + 0x58] = a0\n 27472: a0 = 0\n 27474: ra = 914, jump @4\n      : @917 [@dyn 457] (gas: 22)\n 27480: a0 = u64 [sp]\n 27482: ecalli 5 // 'caller'\n 27484: a0 = u64 [s1 + 0x8]\n 27487: a1 = i32 [s1 + 0x10]\n 27490: a2 = u64 [s1]\n 27492: a0 = reverse a0\n 27494: a3 = a0 << 0x20\n 27497: a1 = reverse a1\n 27499: a1 = a1 >> 0x20\n 27502: a3 = a3 | a1\n 27505: a0 = a0 >> 0x20\n 27508: a1 = reverse a2\n 27510: a2 = a1 << 0x20\n 27513: a0 = a0 | a2\n 27516: a1 = a1 >> 0x20\n 27519: u64 [sp + 56] = 0\n 27522: u64 [sp + 0x30] = a1\n 27525: u64 [sp + 0x28] = a0\n 27528: a0 = 0x4\n 27531: a1 = sp + 0x20\n 27534: u64 [sp + 0x20] = a3\n 27537: ra = 916, jump @4\n      : @918 [@dyn 458] (gas: 2)\n 27543: a1 = i32 [0x201c4]\n 27548: jump @920 if a1 >u 63\n      : @919 (gas: 2)\n 27552: u32 [0x201c4] = 0x40\n 27558: fallthrough\n      : @920 (gas: 8)\n 27559: a1 = 0x201d0\n 27564: i32 a1 = a1 + 0\n 27566: a0 = 0x1\n 27569: a2 = 0x24\n 27572: ecalli 12 // 'seal_return'\n 27574: a0 = 0\n 27576: ra = 0x396\n 27580: jump @19\n      : @921 [export #0: 'call'] (gas: 2)\n 27583: a0 = 0\n 27585: ra = 918, jump @19\n      : @922 [@dyn 459] [export #1: 'deploy'] (gas: 2)\n 27591: a0 = 0x1\n 27594: ra = 920, jump @19\n      : @923 [@dyn 460] (gas: 14)\n 27600: a0 = u64 [a2 + 0x8]\n 27603: a1 = i32 [a2 + 0x10]\n 27606: a2 = u64 [a2]\n 27608: a0 = reverse a0\n 27610: a3 = a0 << 0x20\n 27613: a1 = reverse a1\n 27615: a1 = a1 >> 0x20\n 27618: a3 = a3 | a1\n 27621: a0 = a0 >> 0x20\n 27624: a1 = reverse a2\n 27626: a2 = a1 << 0x20\n 27629: a0 = a0 | a2\n 27632: a1 = a1 >> 0x20\n 27635: jump [t0]\n      : @924 (gas: 17)\n 27637: a2 = u64 [s1 + 0x60]\n 27640: a0 = u64 [a2 + 0x8]\n 27643: a1 = i32 [a2 + 0x10]\n 27646: a2 = u64 [a2]\n 27648: a0 = reverse a0\n 27650: a3 = a0 << 0x20\n 27653: a1 = reverse a1\n 27655: a1 = a1 >> 0x20\n 27658: a3 = a3 | a1\n 27661: a0 = a0 >> 0x20\n 27664: a1 = reverse a2\n 27666: a2 = a1 << 0x20\n 27669: a0 = a0 | a2\n 27672: a1 = a1 >> 0x20\n 27675: a2 = s1 + 0x7ff\n 27679: a2 = a2 + 0x61\n 27682: jump [t0]\n      : @925 (gas: 7)\n 27684: a4 = 0x100000000\n 27694: a0 = 0xfffffffc\n 27704: a0 = a1 <u a0\n 27707: a2 = u64 [s1 + 0xd0]\n 27711: a0 = 0 if a2 != 0\n 27713: a0 = 0 if a3 != 0\n 27715: jump [t0]\n      : @926 (gas: 8)\n 27717: a0 = u64 [a2 + 0x8]\n 27720: a1 = i32 [a2 + 0x10]\n 27723: a2 = u64 [a2]\n 27725: a3 = reverse a0\n 27727: a0 = a3 << 0x20\n 27730: a1 = reverse a1\n 27732: a1 = a1 >> 0x20\n 27735: jump [t0]\n      : @927 (gas: 11)\n 27737: a0 = u64 [a3 + 0x18]\n 27740: a1 = u64 [a3 + 0x10]\n 27743: a2 = u64 [a3 + 0x8]\n 27746: a3 = u64 [a3]\n 27748: a0 = reverse a0\n 27750: a1 = reverse a1\n 27752: a2 = reverse a2\n 27754: a3 = reverse a3\n 27756: a4 = s1 + 0x1878\n 27760: a5 = a4 + 0x400\n 27764: jump [t0]\n      : @928 (gas: 12)\n 27766: a1 = u64 [s1 + 0xd0]\n 27770: a2 = u64 [s1 + 0xc0]\n 27774: a1 = a1 | a2\n 27777: a3 = u64 [s1 + 0xc8]\n 27781: a2 = u64 [s1 + 0xd8]\n 27785: a2 = a2 | a3\n 27788: a2 = a2 | a1\n 27791: a2 = a2 >> 0x20\n 27794: a1 = a1 | a3\n 27797: a1 = a1 << 0x20\n 27800: a1 = a1 | a2\n 27803: jump [t0]\n      : @929 (gas: 8)\n 27805: a3 = u64 [s1 + 0xd8]\n 27809: a0 = 0xffffffbc\n 27819: a0 = a3 <u a0\n 27822: a1 = u64 [s1 + 0xd0]\n 27826: a0 = 0 if a1 != 0\n 27828: a1 = u64 [s1 + 0xc8]\n 27832: a0 = 0 if a1 != 0\n 27834: jump [t0]\n      : @930 (gas: 5)\n 27836: a2 = s1 + 0x7ff\n 27840: a2 = a2 + 0x61\n 27843: a0 = 0x20\n 27846: a1 = s1 + 0x7ff\n 27850: jump [t0]\n      : @931 (gas: 9)\n 27852: a3 = u64 [s1 + 0xc8]\n 27856: a2 = u64 [s1 + 0xd0]\n 27860: a1 = u64 [s1 + 0xd8]\n 27864: a0 = u64 [s1 + 0xc0]\n 27868: a0 = a0 + 0xffffffffffffffdc\n 27871: a0 = a1 <u a0\n 27874: a0 = 0 if a2 != 0\n 27876: a0 = 0 if a3 != 0\n 27878: jump [t0]\n      : @932 (gas: 8)\n 27880: a2 = 0x100000000\n 27890: a2 = a2 ^ a1\n 27893: a2 = a2 | a0\n 27896: a3 = a1 >> 0x20\n 27899: a3 = a3 <u 0x1\n 27902: a3 = 0 if a0 != 0\n 27904: a3 = 0 if a2 == 0\n 27906: jump [t0]\n      : @933 (gas: 9)\n 27908: a0 = u64 [a2 + 0x8]\n 27911: a1 = i32 [a2 + 0x10]\n 27914: a2 = u64 [a2]\n 27916: a0 = reverse a0\n 27918: a3 = a0 << 0x20\n 27921: a1 = reverse a1\n 27923: a1 = a1 >> 0x20\n 27926: a1 = a1 | a3\n 27929: jump [t0]\n      : @934 (gas: 11)\n 27931: a3 = u64 [s1 + 0xd8]\n 27935: a0 = u64 [a3 + 0x18]\n 27938: a1 = u64 [a3 + 0x10]\n 27941: a2 = u64 [a3 + 0x8]\n 27944: a3 = u64 [a3]\n 27946: a0 = reverse a0\n 27948: a1 = reverse a1\n 27950: a2 = reverse a2\n 27952: a3 = reverse a3\n 27954: a4 = s1 + 0x1878\n 27958: jump [t0]\n      : @935 (gas: 5)\n 27960: a1 = u64 [s1 + 0xd0]\n 27964: a0 = 0 if a1 != 0\n 27966: a1 = u64 [s1 + 0xc8]\n 27970: a0 = 0 if a1 != 0\n 27972: jump [t0]\n      : @936 (gas: 8)\n 27974: a0 = a0 | a2\n 27977: a2 = a4 | a1\n 27980: a2 = a2 | a0\n 27983: a2 = a2 >> 0x20\n 27986: a0 = a0 | a1\n 27989: a0 = a0 << 0x20\n 27992: a0 = a0 | a2\n 27995: jump [t0]\n      : @937 (gas: 11)\n 27997: a2 = u64 [sp + 0x8]\n 28000: a2 = a2 | s1\n 28003: s1 = 0x100000000\n 28013: a0 = 0xfffffffc\n 28023: a1 = u64 [sp + 0x18]\n 28026: a0 = a1 <u a0\n 28029: a1 = u64 [sp + 0x10]\n 28032: a0 = 0 if a1 != 0\n 28034: u64 [sp + 0x8] = a2\n 28037: a0 = 0 if a2 != 0\n 28039: jump [t0]\n      : @938 (gas: 7)\n 28041: a2 = a2 >> 0x20\n 28044: u64 [a3 + 0x8] = a0\n 28047: u64 [a3] = a1\n 28049: u32 [a3 + 0x10] = a2\n 28052: a0 = 0x2078\n 28056: a2 = s1 + a0\n 28059: jump [t0]\n      : @939 (gas: 8)\n 28061: a2 = a3 | a4\n 28064: a1 = a0 | a5\n 28067: a1 = a1 | a2\n 28070: a1 = a1 >> 0x20\n 28073: a2 = a2 | a5\n 28076: a2 = a2 << 0x20\n 28079: a1 = a1 | a2\n 28082: jump [t0]\n      : @940 (gas: 15)\n 28084: a2 = u64 [sp + 0xb8]\n 28088: s1 = u64 [sp + 0xb0]\n 28092: a0 = u64 [sp + 0xa8]\n 28096: a1 = u64 [sp + 0xa0]\n 28100: u64 [sp + 0x10] = a0\n 28103: u64 [sp + 0x8] = a2\n 28106: a0 = a0 | a2\n 28109: u64 [sp + 0x18] = a1\n 28112: a1 = a1 | s1\n 28115: a1 = a1 | a0\n 28118: a1 = a1 >> 0x20\n 28121: a0 = a0 | s1\n 28124: a0 = a0 << 0x20\n 28127: a0 = a0 | a1\n 28130: jump [t0]\n      : @941 (gas: 14)\n 28132: sp = sp + 0xffffffffffffff20\n 28136: u64 [sp + 0xd8] = ra\n 28140: u64 [sp + 0xd0] = s0\n 28144: u64 [sp + 0xc8] = s1\n 28148: s0 = sp + 0xe0\n 28152: sp = sp & 0xfffffffffffffff0\n 28155: a1 = u64 [a0 + 0x10]\n 28158: a2 = u64 [a0 + 0x18]\n 28161: a3 = u64 [a0 + 0x8]\n 28164: a0 = u64 [a0]\n 28166: a2 = a2 | a3\n 28169: a0 = a0 | a1\n 28172: a0 = a0 | a2\n 28175: jump [t0]\n      : @942 (gas: 11)\n 28177: a2 = a2 - a3\n 28180: a3 = a4 <u a5\n 28183: a2 = a2 - a3\n 28186: u64 [s1 + 0x60] = a2\n 28189: a4 = a4 - a5\n 28192: u64 [s1 + 0x58] = a4\n 28195: a0 = a0 - a1\n 28198: a0 = a0 - t2\n 28201: u64 [s1 + 0x50] = a0\n 28204: a0 = t1 - ra\n 28207: jump [t0]\n      : @943 (gas: 6)\n 28209: a0 = a1 <u a0\n 28212: a2 = u64 [s1 + 0xd0]\n 28216: a0 = 0 if a2 != 0\n 28218: a2 = u64 [s1 + 0xc8]\n 28222: a0 = 0 if a2 != 0\n 28224: jump [t0]\n      : @944 (gas: 9)\n 28226: a4 = u64 [s1 + 0xc8]\n 28230: a3 = u64 [s1 + 0xd0]\n 28234: a1 = u64 [s1 + 0xd8]\n 28238: a0 = u64 [s1 + 0xc0]\n 28242: a0 = a0 + 0xffffffffffffffdc\n 28245: a0 = a1 <u a0\n 28248: a0 = 0 if a3 != 0\n 28250: a0 = 0 if a4 != 0\n 28252: jump [t0]\n      : @945 (gas: 7)\n 28254: a0 = 0xffffffbc\n 28264: a0 = s1 <u a0\n 28267: a1 = u64 [sp + 0x10]\n 28270: a0 = 0 if a1 != 0\n 28272: a1 = u64 [sp + 0x8]\n 28275: a0 = 0 if a1 != 0\n 28277: jump [t0]\n      : @946 (gas: 9)\n 28279: a0 = u64 [a3 + 0x18]\n 28282: a1 = u64 [a3 + 0x10]\n 28285: a2 = u64 [a3 + 0x8]\n 28288: a3 = u64 [a3]\n 28290: a0 = reverse a0\n 28292: a4 = reverse a1\n 28294: a2 = reverse a2\n 28296: a3 = reverse a3\n 28298: jump [t0]\n      : @947 (gas: 9)\n 28300: a0 = u64 [a3 + 0x18]\n 28303: a1 = u64 [a3 + 0x10]\n 28306: a2 = u64 [a3 + 0x8]\n 28309: a3 = u64 [a3]\n 28311: a5 = reverse a0\n 28313: a4 = reverse a1\n 28315: a0 = reverse a2\n 28317: a1 = reverse a3\n 28319: jump [t0]\n      : @948 (gas: 8)\n 28321: a4 = a4 | a2\n 28324: a2 = a0 | a1\n 28327: a2 = a2 | a4\n 28330: a2 = a2 >> 0x20\n 28333: a1 = a1 | a4\n 28336: a1 = a1 << 0x20\n 28339: a1 = a1 | a2\n 28342: jump [t0]\n      : @949 (gas: 8)\n 28344: a0 = s1 + 0xffffffffffffffdc\n 28347: a1 = u64 [sp + 0x18]\n 28350: a0 = a1 <u a0\n 28353: a1 = u64 [sp + 0x10]\n 28356: a0 = 0 if a1 != 0\n 28358: a1 = u64 [sp + 0x8]\n 28361: a0 = 0 if a1 != 0\n 28363: jump [t0]\n      : @950 (gas: 8)\n 28365: u64 [sp + 144] = 0\n 28369: u64 [sp + 136] = 0\n 28373: u64 [sp + 128] = 0\n 28377: a0 = 0x8c379a000000000\n 28387: a1 = sp + 0x80\n 28391: u64 [sp + 0x98] = a0\n 28395: a0 = u64 [sp + 0x18]\n 28398: jump [t0]\n      : @951 (gas: 6)\n 28400: i32 a0 = a2 + 0\n 28402: u64 [s1 + 0xd0] = a0\n 28406: a0 = u64 [s1 + 0xd8]\n 28410: a1 = a2\n 28412: u64 [s1 + 0xc8] = a2\n 28416: jump [t0]\n      : @952 (gas: 8)\n 28418: a0 = sp + 0xffffffffffffffe0\n 28421: a0 = a0 & 0xffffffffffffffe0\n 28424: u64 [s1 + 0xd8] = a0\n 28428: sp = a0\n 28430: i32 a2 = a0 + 0\n 28432: a1 = 0x40\n 28435: a0 = u64 [s1 + 0x50]\n 28438: jump [t0]\n      : @953 (gas: 8)\n 28440: a0 = u64 [a4 + 0x98]\n 28444: a1 = u64 [a4 + 0xa0]\n 28448: a2 = u64 [a4 + 0x90]\n 28452: a3 = u64 [a4 + 0x88]\n 28456: a1 = a1 | a2\n 28459: a0 = a0 | a3\n 28462: a0 = a0 | a1\n 28465: jump [t0]\n      : @954 (gas: 4)\n 28467: i32 a0 = a1 + 0x4\n 28470: a1 = 0x1078\n 28474: a2 = s1 + a1\n 28477: jump [t0]\n      : @955 (gas: 4)\n 28479: a2 = a3 + a1\n 28482: a3 = a2 <u a3\n 28485: a3 = a1 if a1 == 0\n 28488: jump [t0]\n      : @956 (gas: 2)\n 28490: a3 = a2 & 0x40\n 28493: jump @960 if a3 != 0\n      : @957 (gas: 1)\n 28496: jump @959 if a2 == 0\n      : @958 (gas: 6)\n 28499: i32 a3 = 0x40 - a2\n 28502: a3 = a1 << a3\n 28505: a1 = a1 >> a2\n 28508: a0 = a0 >> a2\n 28511: a0 = a0 | a3\n 28514: ret\n      : @959 (gas: 1)\n 28516: ret\n      : @960 (gas: 4)\n 28518: a0 = a2 + 0xffffffffffffffc0\n 28521: a0 = a1 >> a0\n 28524: a1 = 0\n 28526: ret\n      : @961 (gas: 2)\n 28528: a3 = a2 & 0x40\n 28531: jump @965 if a3 != 0\n      : @962 (gas: 1)\n 28534: jump @964 if a2 == 0\n      : @963 (gas: 6)\n 28537: i32 a3 = 0x40 - a2\n 28540: a3 = a0 >> a3\n 28543: a0 = a0 << a2\n 28546: a1 = a1 << a2\n 28549: a1 = a1 | a3\n 28552: ret\n      : @964 (gas: 1)\n 28554: ret\n      : @965 (gas: 4)\n 28556: a1 = a2 + 0xffffffffffffffc0\n 28559: a1 = a0 << a1\n 28562: a0 = 0\n 28564: ret\n",
        "bytecode": {
          "object": "50564d00002684000000000000010700c1f001c000800381c0145916539c07e08b84f2a4d01fcd4413afdaa322977f4919e057646b6f18b4e3726574616c6c6f4374636146206c6165207473756d20726f3031203d3c206562145916539c07e08b84f2a4d01fcd4413afdaa322977f4919e057646b6f18b4e318d512826f3f24d789eaf61c1454d08fafc3b8ac1fd9c0cf42014858138af8e2726574616c6c6f4374636146206c6165207473756d20726f3031203d3c206562e359d61df3a100c2e25825c812f1e056693844f8b0f7495f238855b35c6fd91c6d6120796170655263786520746e756f616f6c20736465657669746361206f4e00006e616f6c2065676e697473697845756d206e616f6c2065722065622074737269662064696170898d41b9ea76c7d50d31f259eeff40c0ce1b1982f65f5f223548fda713049be5637865206e616f4c6c6f632073646565206c61726574616cdee0c9aabccf0fc33982aa4e7119a7ffbeeed0d0a006f56f5d7188721730081774697720746e61436f632077617264686c61726574616c6c6369666675736e496c6f6320746e6569006c61726574616c6d20746e756f6d413e206562207473756d20746e756f6d41672065622074737574207265746165726f72657a206e61680481091000000000070000000b0000001900000027000000350000003b0000004800000053000000620000006f0000007f0000008f0000009a000000ac000000b70000006164647265737363616c6c63616c6c5f646174615f636f707963616c6c5f646174615f6c6f616463616c6c5f646174615f73697a6563616c6c65726465706f7369745f6576656e746765745f73746f72616765686173685f6b656363616b5f3235367265665f74696d655f6c65667472657475726e5f646174615f636f707972657475726e5f646174615f73697a657365616c5f72657475726e7365745f696d6d757461626c655f646174617365745f73746f7261676576616c75655f7472616e73666572726564051302c0bf6b0463616c6cc0c76b066465706c6f7906c0278181cc02c0966f2b00730176033b04430419055c05e805f50528065d068b06020733073c078c079807c807d1074a08c2081a095809ba09010a0e0a720ac10a010b500b6e0b7a0bec0b080c3a0c500c5b0c800c900dae0db70dd20def0d330e3c0e590eb00ec90e020f160f410f460f690f7f0fd10fde0f50106e10771092109a10b51005110f112811ab11ce11d711ff1166127a128412b012ba126913a813b213df132414351408159c15a915c315f9150e1618167a16f11622173f17db17ed171f18281848188d189718c318021910197919c7194b1a5f1a921ae51af21a931b481c511c7e1c981c791d991da31dc41de81d811e9c1efa1e0f1f191f371f3d1f661f6c1f06201820492062206f20e92059217a21c621e22192224023ea23172479248e249824bb24cc24f2245a256e250c2639265726ac26ba2633274d275327772791279f272d284c285228762890289e28b728c428ca28f0284029c92be32b062c4a2ceb2c1f2d402d552db02d142e292e332e582e5e2e812e872ed72ee12efd2e1b2f4f2f592f772fac2fb62f14306530bb30d5300d3122314c31523174318b31ce31eb312e32433278328932b632253339336f337d33ac33d6333a344e34583484348e344335a335ce3511362136f4366b378537df371e38463885389238ac38e038f538ff385d397f398939a539c339033a0d3a263a783aad3ad23af53a563b013c3c3cbc3ccd3c9b3d0e3e1b3e753e8a3e943ef23e0c3f413f473f5e3f643fad3fce3fe63f02404b400a4274428942c242c842f742fd42444351436c4372439643b043be43d743e443ea430c4448449544f5446d457e45b145c145c745eb45054613468a46c746d9464b4767479947d147194842487348dd48f048f948a2490a4a374a7b4a8c4a644b1c4c2d4c4e4c844c974ca04c104d294d5e4d644d7b4d814db34de44dea4d014e074e3d4e714e774e8e4e944e1c4f2c4f504fd8508e519b51345248527852be52cc5287539953cd53135489540a5518553a558e55f755275645568c569656b056dd56325755577957b8571058af5809597d59ae59d459da59e359e959ef590e5a145a335a395a6c5a775a865a395b475b605b845be95b0f5c1d5c345c585c1f5d4c5d5a5d735d975d555ea65e2d5f945fc45fea5ff05ff95fff5f056024602a6049604f6082608d609c603961a3610d623e625c62a062aa62d7620d631b638263cc633b644f648264cf645665a066b966da661b675b6771678c67d067f269026a3c6a4c6a6a6a8a6abe6a586b976bc76bd06b3908c801025108400c3307f0010383770a0d28330c9511f07b10087b15648964753308206497501002a4047c78017c797c7a027c7b03978808d4980897aa1097bb18d4ba0ad4a8087c79057c7a047c7b067c7c07979908d4a90997bb1097cc18d4cb0bd4b909979920d489027c79097c7a087c7b0a7c7c0b979908d4a90997bb1097cc18d4cb0bd4b9097c7a0d7c7b0c7c7c0e7c780f97aa08d4ba0a97cc10978818d4c808d4a808978820d498037c78117c7a107c7b127c7c13978808d4a80897bb1097cc18d4cb0bd4b8087c7a157c7b147c7c167c791797aa08d4ba0a97cc10979918d4c909d4a909979920d4890a7c78197c79187c7b1a7c7c1b978808d4980897bb1097cc18d4cb0bd4b8087c791d7c7b1c7c7c1e7c771f979908d4b90997cc10977718d4c707d49707977720d487076f776fa86f396f2a7b5a187b59107b58087b57821008821595111032009511d87b10207b15187b161082897b19088289087b198285108286183308205010045c036f686f59821a6faa821b086fbb787b18787a10787908787898bc38787c1f98bc30787c1e98bc28787c1d98bc20787c1c98bc18787c1b98bc10787c1a98bb08787b1998ab38787b1798ab30787b1698ab28787b1598ab20787b1498ab18787b1398ab10787b1298aa08787a11989a38787a0f989a30787a0e989a28787a0d989a20787a0c989a18787a0b989a10787a0a98990878790998893878790798893078790698892878790598892078790498891878790398891078790298880878780182102082151882161095112832009511a07b10587b15507b16489515608411e06476828718828910828a0882886f776f996faa6f887b18187b1a107b19087b17491138491130491128491120481140208318831a20831b403309ff33070a07821738821830821928821a206f776f886f996faa7b6a187b69107b68087b679551a082105882155082164895116032009511a07b10587b15509515608411e08272827a08827b108277188283828908828c108288186f746fbb6faa6f276f826fcc6f996f387b17187b1a107b1b087b147b18387b19307b1c287b12208318831a203309ff330b2033070a0e9551a08210588215509511603200951160ff7b1098007b1590007b1688009515a0008411e082ab7b1b3882ab087b1b3082ab107b1b2882aa187b1a20829a7b1a18829a087b1a10829a107b1a088299187b196486501006590182186f888219086f99821a106faa821b186fbb7b1b587b1a507b19487b18408218206f888219286f99821a306faa821b386fbb7b1b787b1a707b19687b18608379836a8317403308020a06955160ff8210980082159000821688009511a0003200951120ff7b10d8007b15d0007b16c8009515e0008411e082bc7b1c4082bc087b1c4882bc107b1c5082bb187b1b5833020882ab7b1b1882ab087b1b2082ab107b1b2882aa187b1a308296829a087b1a829a107b1a088299187b191049113833000a2892007b183850100a8c006f687b187882186f887b18708218086f887b18688218106f887b18608218186f887b1898008218206f887b1890008218286f887b1888008218306f887b1880008218406f887b18b8008218486f887b18b0008218506f887b18a8008218586f887b18a0008379811a388317603308030a06955120ff8210d8008215d0008216c8009511e00032008b7910520931c8780883881f8488e05638000001253309c40102390ac40102ae8a093d08c40102013308d001028377c887073200009511f07b10087b158475010a04013d07c0010251050750100c4733000e951110fe7b10e8017b15e0017b16d8019515f001951190dc8411e06416956978184929c0034929b8034929a80380003307409568201c4929b00333004a28f6fb951120fb951700047b70d8007b75d0007b76c8009515e0048411e0641649267803492670034926680349266003836760030a0f01956b000382b77082b87882b96882ba60d49808d4a707d487075207ff053907c001027b67b80097772098772095771f8477e095788000d87807956900037b98407b974894777b975033074095684003492658035010106cfb330780008268b800501012dafe83778268b80033090a02018268b80054185fb40549261803492610034926000380009567200395680003492608035010145651956800038287307b67308287287b67288287207b67204926d8024926d0024926c002a0009567e0029568c0024926c80250101621518267f0027b67488267e8027b67408267e0027b67389517e08477e07b67a00064719567a0023308c0005010188ff9956b000282b7b00082b8b80082baa00082b9a8007b679000826ba0007bb7107b6888007bb8187b6a787bba7b6980007bb9083307d001037b67b80083777b67b0000a05018269b8008097108298829908d48707d497075107e60449269803492690034926880349268003956780029568800350101a44fb826780027b6770826788027b6768826798027b679800826790027b67a8008267b00033001c0a058269b80033021e28d4658269b80050121ecd659877206f99979a20d4a707989920826aa80098aa2097aa20d4a9094926b8034926b0034926a8034926a003826a9800956b00037bbad8007bb9d0007bb7c8007bb8c0009567a0039568c0035010203bfb9567600233084050102282f8826778027b6758826770027b6750826768027b6760826760027b6798008267b0003300240a058269b8003302262880648269b8005012267964d4780298aa206f99979820d4a808989920826aa80097aa2098aa2049261802492638027b6a30028267687b6728028267707b6720023a0a0000023a0b0800023a0c1000023a071800027b6a5802956a00027bab507bac487ba7407ba9107ba80895694002956a2002956b00027b6200023307330850102892fb826980008e97826878888865858801db9708826a90008ea7826b88008eb9dab709d4ba07da78095109a90182679800826a50d4a707826860826958d49808d48707987720d4a808978820d4870752071003492690014926880149268001140700000000a079c308956880017b6798018267980050102a92f8826758826850d47809140a00000000010000001407fcffffff0000000082689800d87807826860948794975107ba02826798008377044926780149267001492660012095686001492668017b69b8007b6ab00050102c3af88267b0009577dc82689800d8780782686094878268b8009487510774028267980083772449265801492650014926400121956840014926480150102efcf78269b800140a00000000010000001407bcffffff0000000082689800d878078268609487949751072902826798008377443a08200002956b00017bb8383a082800023a093000027b6ab0003a0a3800027bb8307bb928956820017bba205010309af78267b00095779c82689800d8780782686094878268b80094875107d401826798008377644926100149260801140800000000000000307b681801956800014926000150103253f73308840082679800501034c1fa8378330701330984000a0c01140700000000ffffffff7b67b8001409ffffffff000000007b69b0008267208477ff7b67a8008267288477ff7b679800826730d297077b6790004926f8034926f0034926e8034926e003019567e0019568e003501036d4f78267f8018268f0018477ff8269b800d2980882699000d498084926180449261004492608044926000401826998007b6928048269a8007b6920047b6738047b683004956700049568200450103806f88267388477ff7b67a8008267408477ff7b6798008267488268b000d287077b67b00049265804492650044926480449264004029567c0019568400450103a45f78267d8018268d0018477ff8269b800d298088269b000d498084926780449267004492668044926600402826998007b6988048269a8007b6980047b6798047b689004956760049568800450103c77f74926b8044926b0044926a8044926a004039567a0048268a00050103e59f79567a001330840501040a0f4956b000182bab80082b8b00082b9a80082b7a000d49a0ad48709d4a909989920d4a808978820d4980851088e00003308d00102838833070133090a0c28113308d00102838833070133090a0c014926f0004926e8004926e000140700000000f7bd4f1e9568e0007b67f800330750104268f54926d8004926d0004926c8003307049568c0004926c0005010444cf53908c4010256183f0b2003c4010240013308d0010283883307013309240a0c7b67b800330046289cf87b67b80050104695f88377330833090a0228bef38267b80033085010487ff88378330733090a0c286fff3307c001027b67d8003907c001025517040728734695670020837740fc330833004c0a0301956a781881a7e4035247c23f808c0a28fe1951475bcba58df40995697820524758a5acaa0a28dc1f5247891c7bab0a2820105247d46b01b20a28e51852475721c2b50a288a1651471fa0d4baed025247411c01df0a28080f51478edaa7e8a20a51472efe12610a28b812492a6004492a5804492a5004492a4804956700208377c0fc0a0f01956a781895ab000482b75882b86082b95082ba48d49808d4a707d487075107062892418267d800817756172307289641956700208377e0fc3308040a0395677818957c000482c8800082c97882ca7082cb687b68d0007b6ac000d48a077b69c8007b6bb800d49b08d487078e774926f8064926f0067b67e0069567e0064926e80633004e3302fa022857603307d001037b67d80083777b67b0003300500a058269d80033025228255e8269d8005012521e5e4926d8067b68d0067b67c8069568c0067b6ac006330750105482f34926b8064926b0064926a006043307209568a0064926a80650105665f33309c401023907c4010256173f0b2003c4010240017b6998009517e08479e07b69a80064913307d00102837783993308407b67a0003300580a08826aa80033025a28295e826aa80050125a225e7bcaa0007bc998007bc890007bc78800956780069568001d50105cedf395680006828798008262800682899000828a8800826cd000d3c70bd8c7088267c800d8790cdbb80c8268c000d38a03d88a0a8268b800d88208db3a08d39707d4b707db7c085208062821209567e00133084050105e6af195680001828bf800828cf000828ae8008287e000501260d95e510806287a1e4926d0014926c8014926c001140900000000a079c3089568c0017b69d8017b67d8007b6ad0007b6bc8007b6cc00050106252f28268d8008267c800826ac000d47a0a501264135d520706282d1e8387044926b8014926b0014926a001209568a0014926a8017b6ac8007b6bc00050106613f25012688b5d52070628fd1d83872449269801492690014926800117956880014926880150106aebf18269d8001407bcffffff00000000d8790750126cbe5d52070628c41d8397443a087801023a098001023a0a880102956b00017bb8787bb9707bba68956860014926600133003602289ff14929a002492998024929900249298802956700208377000333006e0a0f01956a782095ab00025012703f5f51070628f83e8267d80081775617230728fc3e95670020837720033308040a0395677820957c000282c8c00082c9b80082cab00082cba8007b68c8007b6ab800d48a077b69c0007b6bb000d49b08d487078e7795687818492880004918787b87689567e0184918703300723302fa0228975d3307d001037b67d80083777b67a8003300740a058269d80033027628655b8269d8005012765e5b956978184919607b98587b97509568c0187b9a483307501078c2f033027a95687818014918404918384918280464893307209568a01849193050107c9ff09517e08477e07b67d00064713309c401023907c4010256173f0b2003c4010240017b6998009517e08479e07b69a00064913307d00102837783993308407b676833007e0a08826aa0003302800028755d826aa000502280006e5d8268d0007b8a187b89107b8b087b8795678018502082001ff19568781801828420828718828b08828c109518e08488e06481826ab800c8ca0a8262b000c8b202d8b20bc8ba0ad3ca03d8ca09da3b09826bc000c87b0bc89b0cd8bc038260c800c84000d87b0bc80b0bc83b00d87c03d3040bd84004dab304d3c707d4b707da79047b8c107b8a087b827b8018510406285d3d8267d000502084001df1956878204928e0024928d8024928d0024928c8020195676018956840235020860079f0330288009568781801958900ff8297f8007b6780008297f0007b67788297e8007b6788009567401833084050208a001cee956978108292e00795980007828cd800828bd0008287c800d42b0ad4c708d4a808988820d4ca0a97aa20d4a80851080628171b4929b8074929b0074929a807140a00000000dd72b823956820187b9ac0077b67d0007b6ba0007b6c98007b62900050208c00efee8267a80033008e000a8269d80033029000288d5a8269d80050229000865a7b68709877206f98978920d497077b67609888207b68588267a800330092000a058269d800330294002898598269d800502294009159d4780298aa206f99979820d4a8039894208267d000957a04d87a0c8267a000c8c70bd87b07dacc0782689800c88707d8870c82689000c88c0c956878108269587b8938078269607b8930078269707b892807958900077b9c80007b97788267c8007b97208267c0007b97188267b8007b97108267b0007b9708492840077b9b707b9a687b8458077b8350077b824807648c956700189568e0179569c017956aa017956b8017492c600750209600394d95687810828790078282a00782838807828a98078268a000d3870bd8870c8260d000d80304dab40c82699800c99a0bd89a0a82699000c99209502298006f5a7b677033009a000a09018267786f77977820826980006f99989920d49808826988006f99979a20987720d4a707826ad80050229c00b059492900034929f8024929f0028267706472826c58d4c707826860826b50d4b808d48707987720d4c808978820d487074929e8025107062831198267d000642850209e00acf07b6788003308208267d0005020a0009bf095697820959a0003481a0820491a40ff491a38ff491a30ff491a28ff8268d80097882098882014090000000008000000d49802956860239788209888209569a023979920d4890a82688800978820988820826b7097bb20d48b0b97772098772095688023978820d4780c3308ff3309ff64270a010151070628522a0a0b01330820ae87080a0b647801956978108262d000826ba000826c9800826a90007b688000492688007b98a8067b92c8064929b0067b9bd0064929b8067b9cd8064929c00695674017956820177b9ae0065020a20056478262d00082688000c82807d887088263a000826c8800c83c09c88909d3c90ad8c90bdaa80b82609800c80c08c88b0bd88b04d8c808826a9000c8ac0cc8c808c88404956878107b8b5806956878107b895006956878107b874806956778107b7a8006956778107b707806956778107b737006956778107b726806956700179568e0169569c016956b78107bb460065020a40001489567a0163308405020a60072ea956a781095ac000682c74082c83882c93082cb285022a80089575107062880178267b00095a900067b97088267b8007b97108267c0007b9718956880168267c8007b972064b77b6bd0005020aa005ceb8267a8003300ac000a058269d8003302ae00283a568269d8005022ae003356d4780298aa206f99979820d4a8089899203a0a600002956778107b7a00063a0a6800023a0b7000023a0c7800027b7af805957a00057babf0004927e0057bace8007ba9d8007ba8d00033082095696016956a40167b72c8058267d0005020b000b7ec330782686833090a0c28773c9567782049278000491778491770491768956700208377e0000a0f01956b782082b77882b8800082b97082ba68d49808d4a707d4870751070628af388267d80081775617030728b338492ba000492b9800492b9000492b88009567ff079577a107956800215020b20056eb9567ff07957761957900078298507b68c8008298487b68d8008297407b67d0009567ff07957781073308405020b400f9e8956aff0795aa6195ac000782cb3882c83082c92882c7205022b60068575108062804168268c800978820988920492a18078268d00095ab00077bb88268d8007bb8089568ff07958861077bb9107b67d8003300bc0228d8e94929c0034929b8034929b0034929a80395670020837720040a0f01956a782095ab000382b7b80082b8c00082b9b00082baa800d49808d4a707d4870751070628d7378267d80081775617230728db3795670020837740043308043300b8000a0301956b782082b8d80382b7e0035022ba000155520a0628c23782b9d00382bac803956b781895bc00027bcac8007bc9d0007bc8d8009568401b7bc7e00033075020bc0036e93302be0095687818014928c0024928b8024928a8020564893307209568201b4929b0025020c0000de99517e08477e07b67d00064713908c4010256183f0b2003c4010240019517e08479e07b69d80064913307d00102837783993308403300c2000a08826ad8003302c400280256826ad8005022c400fb557b68a8008269d0007b98187b67b0007b97107b6ba0007b9b087b6c98007b9c9567001b3308405020c60058e795687818958c000282c7a0007b67c00082c998007b69b80082cb90007b6bc80082ca88007b6ad8007bc780007bc9787bcb709567e01a7bca685020c80088429567c01a8268d0005020ca0037e98267c0008268c800d487078269b8008268d800d49808d47808988820d49707977720d48707510706280e1495677818957c000282cb6082ca5882c95082c8487b68d0007bc8287b6990007bc9307b6a88007bca389568a01a7b6b80007bcb408267d8005020cc00dce7826798009577018878018269a000c89808d48709889901826ab000c8a909d8a90a826ba800c8ba0a956b782095bc00037bc8f0007bc7e8007bc9f8007bba00049567801a956860245020ce0080e88267c0008268b800d47809140a00000000010000001407e0ffffff000000008268d800d878078268c80094879497520706284e13956778187b69c000647982722002957c000282cb187b6ab80082ca1082c8088267d8008377207b6878959c00017bc8e8007b6a707bcaf0007b6b687bcbf8009568601a7b62607b9200025020d0000ae782689800958702d88708826aa0005022d200e6548268b000c88a0ad88a08826ba800c8b808956b782095bc00047bc9107bc7087bca187bc8209567401a956880245020d400b5e78267b8009577c08268d800d878078268c80094878268c0009487520706289712956a781882a7c8018477ff008e797b69c8008267d800837740492ac001492ab801492ab0019568201a7ba9a8015020d60070e69567001a3308405020d80029e595687818828aa0017b6ad800828998017b69c000828b90017b6bb800828c88017b6cb0008267c8007b87e8008267607b8720018267687b8718018267707b871001492800014928f8004928f0008267787b870801826780007b874001826788007b873801826790007b8730018267d0007b872801958700017b7a607b79587b7b5064829567e0199568c0199569a019956a8019956b60197b2c48015020da00833c826bb8008269b0008267d800d4b707826ac000d4a908d47808988820d4a707977720d48707510706288b1164a295687818958c000182c77082ca80007b6ad0008283680182ca7828070749298003492978034929700349296803956700208377e0030a0f01956b782095bc000382c77882c8800082c97082ca68d49808d4a707d4870751070628aa338267d80081785618030728ae33492ba003492b9803492b9003492b88030395674019956800245020dc00ffe53302de0095687818018287e0007b67d8008287d8007b67d0008287d0007b67c8008287c8007b67c000956720193308405020e0009de3956a781882a7c00082a8b80082a9b00082aba8005022e200b45051070628ab108267c0007ba788008267c8007ba790008267d0007ba79800956800198267d8007ba7a00064b77b6bd8003300bc022883e4492900014929f8004929f0004929e80095670020837760010a0f01956a782082a7f80082a8000182a9f00082aae800d49808d4a707d4870751070628db328267d80081775617230728df3295670020837780013308040a0395677820957c000182c82082c91882ca1082cb087b68c0007b6ab000d48a077b69b8007b6ba800d49b08d487078e779568781049286004492858047b8748049567c014492850043300e40033023803286e503307d001037b67d00083777b67a0003300e6000a058269d0003302e800283a4e8269d0005022e800334e9569781049294004959b00047bb8387bb7309568a0147bba2833075020ea0091e39568781049282004492818044928080405648933072095688014492910045020ec006de39517e08477e07b67d80064713908c4010256183f0b2003c4010240019517e08479e07b69c80064913307d00102837783993308407b6798000a08826ac80082a71882a81082a90882aa6f776f8c6f996fa28268d8007b82187b89107b8c087b87951be084b8e06481957b02d87b07c87c0ad8ca0cda770cc89c0cd89c07c827077b8c107b8a087b8b7b8718956760147b68c8005020ee00c6e3956778107c77e80351070628bb0e9567a0103308405020f0007fe1956a78100182a24082ac3882ab3082a728d42b09d4c708d49808988820d4c909979920d4980851080628810e64a9491a18491a10491a08140a00000000a079c308956880107b9a207b67d8007b6bd0007b62c0007b6cc8005020f2005be28268d8008267c800826ac000d47a0a5022f4001b4d5107370e5022f600205049094919f84919e820956860104919f07b6ac8007b6bc0005020f8001ee25022fa00954d5107090e838724956bff0795bb61492bf807492bf007492be0070e95684010492be8075020fc00efe15022fe00374d5107da0d83a7443a08d800023a09e00002956bff0795bb617bb8d807492bc8077bb9d00795682010492bc0073300360228b3e151476b08b4730a286130492a2006492a1806492a1006492a080695670020837780fe0a0f01956a781895ab000682b71882b82082b91082ba08d49808d4a707d48707510706287c308267d800817756172307288030956700208377a0fe330804330000010a0301956b781882b8380682b7400650220201d64c520a0628673082b9300682ba2806956bff0795bb617bba607bb9687bb8709568ff079588c1007bb7783307502004010ce19568ff07958861330a4918584918504918400550220601604c9588a1007b9a4850200801e6e09517e08477e07b67b80064713908c4010256183f0b2003c4010240019517e08479e07b69d80064913307d00102837783993308400a08826ad80082a71882a81082a90882aa6f7c7b6cc8006f8b7b6bd0006f997b69c0006fa77b67d8008268b8007b87187b89107b8b087b8c9567ff079577810050200a015ee19568ff079588618287207b67b8008287287b67b0008287307b67a8008287387b67a0008267c8009577018878018269d000c8980895697818959a00067ba850d478087ba7488887018268c000c887077ba758d887078268d800c887077ba7609567ff079577619568c01e50200c01eee0956cff0795cc6182c77b6798008268c800958702d88708826ad00050220e01cb4d82c8087b68d0008268c000c88a0ad88a08826bd800c8b80882cb107b6bc80082cb187b6bc000956b781895bc00067bc880007bca787bc9707bc7689567ff079577419568e01e5020100181e0956700107c7740f87b6790009567ff079577213308405020120139de95670010827938f87b69d80095670010827830f87b68880095670010827a28f87b6a800095670010827c20f87b6c78826790007b6780074926980749269007492688078267c0007b67b8078267c8007b67b0078267d0007b67a807826798007b67a0078267a0007b67d8078267a8007b67d0078267b0007b67c8078267b8007b67c0077b69f8077b68f0077b6ae8079567ff079577019568e0079569c007956aa007956b80077b6ce007502014018435826b80008269788267d800d4b707826a8800d4a908d47808988820d4a707977720d487075207900a64a295670010827708f895680010828818f87b68d00095680010828300f895680010828a10f801d3b704d8b70cd89300da400cc92a08c9c804d8c8087b68c800d82a0a826cd8008268d000c9c80cc9ac0c8268c800c98c0cc9b707c90707c99308d4c707d4480ad47a0ad4470798aa20977720d4a7075207160a64977b68d8005020160190e183788169d80033070a0c28642e49294002492938024929300249292802956700208377a0020a0f01956a782095ab000282b73882b84082b93082ba28d49808d4a707d48707510706280b2d8267d800817756172307280f2d9517e08477e07b67d8006471956700208377c0023308040a0395677820957c000282c9607b69c80082ca587b6ac00082c8507b68d00082cb487b6bb8008267d8007b79187b7a107b78087b7b50201801a6468267c8008268c000d487078268b8008888658269d0009498947851080628ae2c9567e01533084050201a0104dc956978108292800595980005828c78828b70828768d42b0ad4c708d4a808988820d4ca0a97aa20d4a80852080509492958054929500549294805140a00000000a079c3089568c0157b9a60057b67d8007b6bd0007b62c0007b6cc80050201c01dcdc8268d8008267c800826ac000d47a0a50221e019c475107b80850222001a14a492940054929380549292805209568a015492930057b6ac8007b6bc000502022019adc8268d8008267c0009577dc502224016b4951077a08838724956978104929200549291805492908052195688015492910055020260163dc826ac800826bd0008268d800140900000000010000001407bcffffff00000000d8780794b794a751072d088387443a088000027b69c000956c78107bc800053a088800023a099000023a0a98000295cb00047bb8f8007bb9f000956860157bbae80050202801fbdb8269d8008267c00095779cd8790750222a01d0475107d807839764956a7810492ad804492ad004140800000000000000307ba8e00495684015492ac8043300b00128b4db492900024929f8014929f0014929e80195670020837760020a0f01956b782095bc000182c7f80082b8000282c9f00082cae800d49808d4a707d4870751070628162b8267d800817756170307281a2b492b2002492b1802492b1002492b080201956720159568802250202c013bdc95687810958900048297b8007b67c8008297b0007b67d8008297a8007b67d0009567001533084050202e01e2d9956a781095ac000482cba00082c8980082c9900082c788005022300150485208ef068268c800978820988920492a80048268d00095ab00047bb8688268d8007bb8709568e0147bb9787b67d8003300bc0228c5da492aa006492a9806492a9006492a880695670020837700ff330032010a0f01956a781895ab000650223401644851070628582a8267d800817756172307285c2a95670020837720ff3308040a0395677818957c000682c8c00082c9b80082cab00082cba8007b68407b6a30d48a077b69387b6b28d49b08d487078e779568ff079588614928f8064928f0067b87e0069567ff07957741074928e806330036013302380328b4463307d001037b676083777b6758330038010a0533023a0128ab4450223a01a8444929d806959b00067bb8d0007bb7c8009568ff07958821077bbac000330750203c01ded99568ff079588614928b8064928b0064928a0060550223e013145958801074929a80650204001b6d93309c401023907c4010256173f0b2003c4010240017b69489517e08479e07b69d80064913307d00102837783993308407b67500a08826ad80082a782a80882a91082aa186f776f886f996faa95ab02d8ab0ac8a90cd89c09daaa09c88909d88908c8870795687818958a00067babc8007bacd0007ba9d8007ba7e0009567ff079577e1069568401f502042011ada9567ff079577617c77800652078509826758330044010a053302460128ac4350224601a9434929b805959b00057bb8b0007bb7a8009568ff07958801067bbaa000330750204801dfd89568ff079588614928980549289005492880050450224a0132449588e1054929880550204c01b7d8826948819756173f0e48094033024e0128544650224e015146330050010a0833025201285a445022520157447bba000795ba00067ba9f8007ba8f0007ba7e8009567ff079577c1059568601f5020540157d99568ff07958861958900058297787b67d0008297707b67c8008297687b67c0008297607b67d80095677818492720074927180749271007647849280807039567ff079577a1059568801f5020560107d99568ff0795886182844005958900058297587b67b800829a50829c488260d800d640088267c000ca4709c89808d89809d6470bc89b03cac00bc8b8087b689800d8b808d6c00bc8b808c88302cac709c829087b68b000d8980bd83208d6c709c89808c8b8087b68a800caa7088269b800ca0909c898087b68a0008262c8007b6c78ca2c09826bd000ca4b0cc89c0cca0a09ca4203c839097b6a8800d60a0a7b6a688268a000c88a0ad642087b68a000c8c808d8390c7b6870c8a808c8c803d4b70cd42008d4c8088267b000c87909d8790b8267a800c87303c8b30c7b6980005108a300d37c08d87c09db890b826768d87a0a8268c0008e8964c08262b8008e2cd2c909826cd800d6c20c8eccd4c90982638800d6380c8eccd4c909d4a9097b69c0008267a000826870d878077b67b0008269d0008e9c8267788e78d2c808d6490c8eccd4c808640c8260c800d6070a8eaad4a8088267b000d47808d49009d4230a8e998eaad2a909d49808826980008267c000d47808d4b808848801510806284c277b6c90008268d800ca4802d49207826898006494d4c809d497078877017b67d800684795774068c9dac7096827957740688ada870a95a78000d4c40bdab709d8a70c94bc8eca8897fa00857b01dacb0a88a7019577ff9aa09accc9bc039a99f9007b60c0008e0b8e7c7b67c800da7b0c8e377b69d00088990001859901db3709dbac098267d800d49707826990009479644a947a648c947c7b628800642b947b5107062863168267d0008577ff008264c000d447028260c800d40307d47207520706284416826ad00095a9017b69d800889701c837077b67b000d49707887701c847077b67a000d84707c807077b67a8009aa9ff007b69b8009a998000826788005020580187437b67c8007b68c00082678000826890008269b80050205a0193437b67788267c000d487077b67c0008268d0009a897f826788008268980050205c0170438269b800889a80007b6ad000826bc000dbab08826b9000da9b087b68c0008268c800826b78d4b808daa70882678000da97087b68c800826788008268980050205e012c43826aa000826ba8008269b000d4b909826cd800d4ac0cd4c909826ad00093a87b68b80093a77b67d000510906284313330c491678280c154929c0004929b8004929b0004929a80095670020837720010a0f01956b782082b7b80082b8c00082b9b00082baa800d49808d4a707d48707510706287b248267d800817756170307287f24492be000492bd800492bd000492bc800029567001095684021502060015cd59567ff07957761957900078298b0007b68c8008298a8007b68d8008297a0007b67d0009567ff079577e10733084050206201fcd2956aff0795aa6195ac000782cb980082c8900082c9880082c7800050226401674152080628162400956740148268d80050206601f2d4956a78100195ab000382b7d00082b8e00082b9c80082bad800826cb000d37c0bd8c707826ca800d8c909dbb7098267b800d87a02826cc000d38c0bd8c808dab208d3a707d4b707da79085108ea0595674011330840502068016bd2956a78100182a2e00082acd80082abd00082a7c800d42b09d4c708d49808988820d4c909979920d4980852086cff64a9492ab800492ab000492aa800140a00000000a079c308956820117b9ac0007b67d8007b6bd0007b62c0007b6cc80050206a0141d38268d8008267c800826ac000d47a0a50226c01013e51071dff50226e010641330c4929a00049299800492988002095680011492990007b6ac8007b6bc00050207001fdd250227201ea3f5107e8fe8387249569781049298000491978491968199568e01049197050207401d4d2502276011c3e5107bffe83a7443a08c000023a09c800023a0ad00002956b78107bb8607bb9587bba501409000000000000006e9568c0107bb948330036022890d28267b000330078010a058269d80033027a0128fc3c8269d80050227a01f53c492678067b6870067b676806956860067b6a6006330750207c0158d249265806492650064926400604330720956840064926480650207e013ad282699800819756173f08480940019517e08477e07b67a800647183793308408267a000330080010a08826aa80033028201280d3d826aa80050228201063d7bcac0007bc9b8007bc8b0007bc7a800956720069568201d50208401d0d2826720067b67a800826728067b679000826730067b678800826738067b6780008267b000330086010a058269d8003302880128273c8269d80050228801203c4926f8057b68f0057b67e805956700069568e0057b6ae00533008a019511c0fc951900037b90387b95307b9628951540038411e064168289828a088088107b6708492698027b6890027b6a8802956880027b698002330733005803283ed1956b000682b782b80882b91082ba187b6a98057b6990057b6888057b678005826780007b67b805826788007b67b005826790007b67a8059567c0059568a00595698005826aa8007b6aa00550208c01272a956800058287d8008262c0058289d000828ac800826cd000d37c0bd8c7088267c800d8790cdbb80c8268c000d3a803d88a0a8268b800d88208db3a08d39707d4b707db7c085108c0089567800233084050208e0160cf95680002828b9800828c9000828a88008287800050229001ce3c520871fc492670024926680249266002140900000000a079c308956860027b6978027b67d8007b6ad0007b6bc8007b6cc0005020920148d08268d8008267c800826ac000d47a0a50229401083b510724fc8387044926580249265002492640022095684002492648027b6ac8007b6bc0005020960109d050229801803b5107f4fb83872449263802492630024926200218956820024926280250209a01e1cf8269d8001407bcffffff00000000d8790750229c01b33b5107bbfb8397443a086001023a096801023a0a700102956b00027bb8187bb9107bba089568000249260002330036022895cf9567ff079577c10633084050209e014dce9567ff0795776195780006828b78828c70828a688287605022a001b83b9569ff07959961520854fb4929500649294806492940067b6ad000140a00000000a079c3089568ff079588a1067b9a58067b67d8007b6bc8007b6cc0005020a20127cf8268d8008267c800826ac000d47a0a5022a401e739510703fb8387049569ff07959961492938064929300649292006209568ff0795888106492928067b6ac8007b6bc0005020a601ddce8268d8008267c0009577dc5022a801ae3b5107bdfa8387249569ff07959961492918064929100649290006229568ff0795886106492908065020aa019fce8269c800826ad0008268d800140b00000000010000001407bcffffff00000000d8780794a79497510769fa8387443a08e800027b6bc000956bff0795bb6195bc00057bc8f8003a08f000023a09f800023a0a0001027bc8f0007bc9e8009568ff07958841067bcae0005020ac0130ce8269d8008267c00095779cd879075022ae01053a51070dfa839764956aff0795aa61492ad005492ac805140800000000000074737ba8d8059568ff0795882106492ac0055020b001e6cd330884008267d8005020b20153d18378330701330984000a0c01956878204928400149283801492830014928280102956720149568a0215020b4019bce95687810958900038297b8007b67688297b0007b67608297a8007b6770956700143308405020b60145cc9562781095280003828ca000828b9800828a900082878800d4ca09d4b708d49808988820d4b909979920d49808520843f94922780349227003492268037b6a8800140a00000000dd72b8239568e0137b2a80037b6790007b6b80007b6c785020b8011bcd8267a0003300ba010a8269d0003302bc0128b9388269d0005022bc01b2387b68589877206f98978920d497077b67509888207b68488267a0003300be010a058269d0003302c00128c4378269d0005022c001bd37d4780298aa206f99979820d4a80398942082679000957a04d87a0c82678800c8c708d87807dacc07826b8000c8b707d8b70c826b78c8bc0c956b78108269487bb9f8028269507bb9f0028269587bb9e80295b900037b9c407b97388267c00095bc00027bc7e0008267b8007bc7d8008267b0007bc7d0008267a8007bc7c800492b00037b98307b9a287bb418037bb310037bb2080364bc9567c0139568a01395698013956a6013956b4013492c20035020c2015f2b95687810828750038282600382834803828a580382688800d3870bd8870c82609000d80304dab40c82698000c99a0bd89a0a826978c99209c9a909d8cb0ac9a9097b6950c9cb0b7b6b48c98707c947077b6740c903077b67583300c4010a09018267606f779778208269686f99989920d498088269706f99979a20987720d4a707826ad0005022c601c1374929600149295801492950018267586472826c48d4c707826850826b40d4b808d48707987720d4c808978820d4870749294801520745f78267900064285020c801bfce7b6770330820826790005020ca01afce95697820959a0001481a6820492aa000ff492a9800ff492a9000ff492a8800ff8268d00097882098882014090000000008000000d498029568c02197882098882095690022979920d4890a826870978820988820826b5897bb20d48b0b9777209877209568e021978820d4780c3308ff3309ff64270a01015107062880160a0b01330820ae87080a0b64780195697810826a9000826b8000826c787b68684916707b9868027b9a880249297002826a88007b9a9002492978027b9b980249298002956700139568e0127b9ca0025020cc016a2582639000826768c83700d8700882628800826c70c82c09c88909d3c90ad8c90bdaa80b826a8000c8ac08c88b0bd88b04d8c808826778c87c0cc8c808c8840495687810958c00027bcb187bc9107b8008027bc7407bca387b8230027b832802648a9567c0129568a012956980127ba420025020ce0132269517e08477e07b6790006471956760128268d8005020d001c2ca956c781082cae80182c7f00182c8f80182c90002826bc0007bcba001826bb8007bcb9801826bb0007bcb9001826ba8007bcb880195cb00017bb9c0007bb8b8007bb7b0009567401295682012956900127bbaa8005020d201ad2295677810957800018289d8007b698800828be0007b6b78828ac8007b6a80008287d0007b6770826890007b89107b8b187b8a7b87088267d8005020d401aaca826778826870d487078268880082698000d49808d487075207509567e0118268c8005020d60101ca956a781095ab000182b76882b8800082b97882ba70847700ff956b782095bc00017bc8e0007bc9d8007bcad0007bc7c800956840228267c8005020d80143ca9567c0113308405020da0189c7956a781095ac000182c76082c85882c95082cb485022dc01a03452079af48267a80095a900017b97288267b0007b97308267b8007b97389568a0118267c0007b974064b77b6bd8005020de0175c88267a0003300e0010a058269d0003302e2012853338269d0005022e2014c33d4780298aa206f99979820d4a8089899203a0aa00002956778107b7a20013a0aa800023a0bb000023a0cb800027b7a18017b7b1001492700017b7c08017b79f8007b78f00033082095698011956a60117b72e8008267d8005020e401d4c933078268980033090a0c2893198267b0003300e6010a058269d8003302e8012854328269d8005022e8014d32492678057b6870057b676805956860057b6a600533075020ea01b0c74926580549265005492640050433072095684005492648055020ec0192c79517e08477e07b67a800647182699800819756173f08480940019517e08477e07b679800647183793308408267a0003300ee010a08826a98003302f001287734826a98005022f00170348268a8007b8a187b89107b8b087b87956720055020f20121c8826a2005826728058268300582693805826bd0007b6bd804826bc8007b6bd004826bc0007b6bc804826bb8007b6bc0047b69f8047b68f0047b67e804956700059568e0049569c0047b6ae0045020f4011420956b000582b71882b81082b90882ba956b781895bc00047bc7e0007bc8d8007bc9d0007bcac8009568401d8267a8005020f6011bc895677818492700054927f8044927f00464784928e804019567a0049568601d5020f80175c78267b0047b67788267a8047b67708267a0047b678000956780043308405020fa0126c595680004828c9800828b9000828a880082878000d4ca09d4b708d49808988820d4b909979920d49808520828f2492670044926680449266004140900000000bb9c05a9956860047b6978047b67a8007b6a98007b6b90007b6c88005020fc01ffc58267b0000a058269d80082970881981082996f77977a206f88988820d4a8029877206f98978920d479039888208267a800957904d8790a82679800c8a70cd87c0bdaaa0b82679000c87b0bd87b0a82678800c87a0a8267d0007b67f8038267c8007b67f0038267c0007b67e8038267b8007b67e003492618047b6a38047b6b30047b6c28047b6920047b6810047b630804956740049568200495690004956ae0037b6200045020fe01ab22826748048262580482634004826a500482689800d3870bd8870c8260a800d80304dab40c82699000c99a0bd89a0a82698800c9920950220002db317b67680a09018267706f779778208269786f99989920d49808826980006f99979a20987720d4a707826ad8009899207ba7087ba87aa910956978184929200549291805492910058267686472826c58d4c707826860826b50d4b808d48707987720d4c808978820d48707492908055107062899f08267a80064285020020214c87b6780003308208267a8005020040203c895697818959a0005481a2820491a60ff491a58ff491a50ff491a48ff8268d80097882098882014090000000008000000d498029568801d9788209888209569c01d979920d4890a82688000978820988820826b6897bb20d48b0b9777209877209568a01d978820d4780c3308ff3309ff64270a01015107062861100a0b01330820ae87080a0b6478018269a800826a9800826b9000826c88007b6878492680007b6880037b69a003492688037b6aa803492690037b6bb003492698039567a003956880037b6cb80350200602c31e8262a800826778c82700d8700882639800826c8000c83c09c88909d3c90ad8c90bdaa80b826a9000c8ac08c88b0bd88b04d8c80882678800c87c0cc8c808c884047b6b30037b6928037b6020037b6758037b6a50037b6348037b6240039567600395684003956920037b643803502008028f1f9567000333084050200a0200c2956b000382b71882b81082b90882bad49707d48a09d47909989920d48707977720d497075107062804ef8267b8007b67e0028267c0007b67e8028267c8007b67f0029568e0028267d0007b67f80264a77b6ad00050200c02e0c28267b00033000e020a058269d8003302100228be2d8269d80050221002b72dd4780298aa206f99979820d4a8089899204926b8023a0a4001023a0b4801023a0c5001023a075801027b6ad802956a00027babd0007bacc8007ba7c0007ba9b0007ba8a8003308209569c002956aa0027b62a0028267d000502012023fc433078268a00033090a0c28fe1395676017330840502014020fc195677810827800077b68d000957900068298f8007b68c8008298f0007b68c0008297e8007b67d800330016020a0b3302180228382d50221802352d51080628fced647998772051070628f1ed50221a02982f50201c026cc5956878208269c8007a8948038377956800208388c00333090a0a9567782081774803018268d000ae870628b8ed0a0b01647898772051070628aaed8267d8007b68d00050201e0223c583788169d0003307010a0c018267d800957980826780008268900050202002822f7b67787b686882678800826898008269d800502022026a2f7b67207b68708268d8009a898000826780008268900050202402742f826970d49808826ad80088ab80007b6b70826968dab90882699800dba8097b699800826820d48707826878dab80782688800dba70864a97b688800826780008268900050202602052f330c82697093989397491670634916688264980082628800017b6888007b6c900049167898293f974a01d49a0a9729018260c000980b3fd49b0b7b6b9800826968d3a9087b688000d8a908826c70d8bc02826b8000dbb80282688800978801987b3fd4b8087b688800984b3f977701d47b0b9707018268c800988c3fd4c7077b67c000978c018267b80098783fd48c04977c018267d00098703fd40c0c97770182689000d487077b67d00086c77b67b80086477b67c8008267c00086777b67c000c9b907d82707d8b90882638800c9390cc98c0cc97c0c99c03f84076482689800c97802d87808c98a0494a8c98b07d88b08c98308826ad800826cb000d4ca09889901826ba000d89b03c99b0b88a901c99c0c8269a800c9390995aaff7b6cb0007b69a800d4c9097b6ad800d4ba0ad4a909840c017b6ba00033035209defe8269c80098973f8268c000978801d478028267b80098783f979901d489098268d000988a3f977701978801d48c0b826878d4a80cd47c0cd4980ad4280901826728d87b07826b30d3cb08d8bc0bda870b826738d87a02826c40d39c08d8c909da8209d3a707d48707da7b09510967019567ff07957761013308405020280211be9569ff079599618292180195980001828c10828b088287d42b0ad4c708d4a808988820d4ca0a97aa20d4a808510806280deb4929f0004929e8004929e000140a00000000a079c3089568ff07958841017b9af8007b67d8007b6bd0007b62c0007b6cc80050202a02e1be8268d8008267c800826ac000d47a0a50222c02a12952070628baea8387049569ff07959961330c4929d8004929d0004929c000209568ff07958821014929c8007b6ac8007b6bc00050202e0293be50223002802b520706287bea8387249569ff079599614929b8004929b0004929a0001d9568ff07958801014929a800502032025ebe50223402a6295207062846ea83a7443a082801023a093001023a0a380102956bff0795bb617bb898007bb990007bba8800140900000074696d696c9568ff079588e1007bb980005020360211be3308648267d800502038027fc183783307013309640a0c0182675833003a020a0533023c02288c2850223c0289284929f804959b00047bb8f0007bb7e8009568ff07958841057bbae000330750203e02bfbd9568ff079588614928d8044928d0044928c00404502240021229958821054929c8045020420297bd826948819756173f0e4809403302440228342b50224402312b330046020a0833024802283a2950224802372995bc00077bca407bc9387bc8307bc7289567ff07957701059568a01f50204a023bbe9568ff07958861958900048297b8007b67b8008297b0007b67b0008297a8007b67a8008297a0007b67a0009567ff079577e10433084050204c02d3bb9567ff07957761957c000482c898007b68c80082c990007b69c00082cb88007b6bd00082ca80007b6ad8007bc8787bc9707bcb689568ff079588619567ff079577c1047b8a600450204e02f5168267c8008268d000d487078268d800648a8269c000d49808d47808988820d49707977720d487075107062887e88267289569ff07959961959b00047bb7408267307bb7488267387bb7509568ff079588a1048267407bb75864a75020500260bc8267c8008268c000d47809140a00000000010000001407e0ffffff00000000826bd800d87b078268d000948794975207062820e883b7207b69c8009569ff079599617b6ac000826aa000959b00047bba20826aa8007bba28826ab0007bba309568ff0795888104826ab8007bba387b67b80050205202e8bb8268d8008267c0009577c050225402b92852070628c5e7838740956aff0795aa61492a1804492a1004492a08049568ff0795886104492a0004017b67a00050205602a4bb826758330058020a0533025a0228372650225a0234264929f803959b00037bb8f0007bb7e8009568ff07958841047bbae000330750205c026abb9568ff079588614928d8034928d0034928c0030550225e02bd26958821044929c8035020600242bb9517e08477e07b67b0006471826948819756173f08480940019517e08477e07b67d000647183793308408267500a08826ad00082a71882a81082a90882aa6f7b7b6bc0006f887b68c8006f997b69a8006fa77b67d000826ab0007ba7187ba9107ba8087bab9567ff07957701048268d8005020620291b9956aff0795aa6195ab000382b7b80082b8b00082b9a80082baa000956b781895bc00077bc7607bc8587bc9507bca489568c01f8267b0005020640201bc9567ff079577e1038268b8005020660242b99567ff07957761827280038273880382749003827a98038267c000957701887c018268c800c88c0cd4c70b88bb018268a800c88b0bd88b088269d000c89808956978187b988007959800077b8b787b8c707b87687b8aa0007b9498077b9390077b9288079567e01f95680020502068027dbb9517e0847ce064c18268c000958702d88708826ac80050226a02de278268a800c88a0ad88a08826bd000c8b8087b6cd8007bc8187bca107bc9087bc79567ff079577c1038268a00050206c0282b8956aff0795aa6195ab000382b77082b87882b96882ba60d49808d4a707d487078e777b67d0009567ff079577a1038268d80050206e0276ba956aff0795aa6195ab000382b74082b84882b95882ba50847700ff826bd000d4b707956b781895bc00077bc9c0007bcab8007bc8b0007bc7a800956820208267d80050207002afba956778184927e0074927d8074927d00764784928c807029567ff0795778103956840205020720205ba9568ff07958861958900038297307b67b0008297287b67a8008297207b67b8009567ff079577610333084050207402a8b79569ff079599618292180395980003828c10828b088287d42b0ad4c708d4a808988820d4ca0a97aa20d4a80851080628a4e44929f0024929e8024929e002140a00000000bb9c05a99568ff07958841037b9af8027b67d8007b6bd0007b6cc8007b62c0005020760278b8826758330078020a0582696033027a0228582382696050227a025223d4780298aa206f99979820d4a8039899208267d800957a04d87a0b8267d000c8b70cd87c07dabb078268c800c88707d8870b8268c000c88b0b9568ff079588617b8bb802958b00027bb7b0007bbca8008267407bb7788267387bb7708267307bb7688267287bb7607bbaa0007bb990007b8388027b828002956bff0795bb619567ff07957721039568ff07958801039569ff079599e102956aff0795aac102492b980250207c020a159568ff079588618287c8028282d8028283c002828ad0028268d000d3870bd8870c8260d800d80304dab40c8269c800c99a0bd89a0a8269c000c99209c9a909d8cb0ac9a9097b699800c9cb0b7b6b9000c98707c947077b678800c903077b67a00033007e020a09018267a8006f779778208269b0006f99989920d498088269b8006f99979a20987720d4a707826a6050228002582349094919f84919f08267a0006472826c9000d4c70782689800826b8800d4b808d48707987720d4c808978820d487074919e851070628dae28267d80064285020820255ba7b67b8003308208267d8005020840244ba9569782048190820491940ff491938ff491930ff491928ff82686097882098882014090000000008000000d49802956860209788209888209569a020979920d4890a8268b800978820988820826ba00097bb20d48b0b97772098772095688020978820d4780c3308ff3309ff64270a010152072f030a0b01330820ae87080a0b6478019569ff079599618262d800826bd000826cc800826ac0007b68b0004926b8007b9800027b922002492908027b9b2802492910027b9c3002492918029567ff07957781029568ff07958861027b9a380250208602fa108262d8008268b000c82807d887088263d000826cb800c83c09c88909d3c90ad8c90bdaa80b8260c800c80c08c88b0bd88b04d8c808826ac000c8ac0cc8c808c884049568ff079588617b8bb0019568ff079588617b89a8019568ff079588617b87a0019567ff079577617b7ad8019567ff079577617b70d0019567ff079577617b73c8019567ff079577617b72c0019567ff07957741029568ff07958821029569ff0795990102956bff0795bb617bb4b8015020880281119567ff079577e10133084050208a02eeb3956aff0795aa6195ac000182c7980082c8900082c9880082cb800050228c02fe2051070628f5e082672895a900017b97608267307b97688267387b97709568ff079588c1018267407b977864b77b6bd80050208e02d1b4826758330090020a058269603302920228b11f82696050229202ab1fd4780298aa206f99979820d4a8089899203a0a0801029567ff079577617b7a58013a0a1001023a0b1801023a0c2001027b7a5001957a00017bab48492738017bac407ba9307ba8289567ff079577613308209569ff079599a101956aff0795aa81017b7220018267d8005020940221b6330782685033090a0c28e1059567201333084050209602f2b295677810957900028298c0007b68d0008298b8007b68c8008298b0007b68c0008297a8007b67d800330098020a0b33029a02281b1f50229a02181f51080628dfdf647998772051070628d4df50229c027b2150209e024fb7956878208269c8007a89a8018377956800208388200233090a0a956778208177a80128e4f19567c0033308405020a00268b2956800038287d8007b67d0008287d0007b67c8008287c8007b67c0008287c0007b67d8003300a2020a0b3302a40228951e5022a402921e5108062859df6479987720510706284edf5022a602f5205020a802c9b6956878188269c8007a8968058377956800208388e0fd33090a0a9567781881776805285ef19567ff079577a1023308405020aa02deb19567ff07957761957900028298587b68d0008298507b68c8008298487b68c0008297407b67d8003300ac020a0b3302ae0228081e5022ae02051e51080628ccde647998772051070628c1de5022b00268205020b2023cb6956878208269c8007a89488377956800208388c00033090a0a9567782081774828d3f03308d00102838833070133090a0c2835043308d00102838833070133090a0c2824043308d00102838833070133090a0c2813043308d00102838833070133090a0c280204956778104927b8054927b0054927a80564793302b402140700000000717b484e01956820167b97c00533075020b60229b2956878104928a005492898054928880511648933070495680016492990055020b80205b282679800817756173f0c82689800480840013307013309248268680a0c013308d00102838833070133090a0c287e033308d00102838833070133090a0c286d033308d00102838833070133090a0c285c033308d00102838833070133090a0c284b033308d00102838833070133090a0c283a033308d00102838833070133090a0c2829033308d00102838833070133090a0c2818033308d00102838833070133090a0c2807033308d00102838833070133090a0c28f60252478be3fdf2a7019567782049274004492738044927300449272804956700208377a0040a0f01956a782095ab000482b73882b84082b93082ba28d49808d4a707d487075107af023308d00102838833070133090a0c289d023308d00102838833070133090a0c288c023308d00102838833070133090a0c287b023308d00102838833070133090a0c286a023308d00102838833070133090a0c2859023308d00102838833070133090a0c2848029568782049288002492878024928700249286802039567e0228268d8005020ba02f0b13308d001028388330733090a0c2815028388330733090a0c280a023308d00102838833070133090a0c28f9013308d00102838833070133090a0c28e8013308d00102838833070133090a0c28d7013308d00102838833070133090a0c28c6013308d00102838833070133090a0c28b5013308d00102838833070133090a0c28a4018268c800978820988920492a78078268d00095ab00077bb8608268d8007bb8689568ff079588c1077bb9707b67d8005020bc02c7af3308208267d8005020be0235b3837833092033070a0c280a33092033070a0c0152479d96bc29e60095677818492700044927f8034927f0034927e80395670020837760fc0a0f01956a781895ab000382b7f80082a8000482b9f00082bae800d49808d4a707d48707510715013308d00102838833070133090a0c28f2009567ff079577614927300549272805492720059569ff079599613302c002140700000000717b484e019568ff07958881057b97380533075020c2020daf9568ff07958861492818054928100549280005119569ff079599613307049568ff0795886105492908055020c402ddae826748817756173f0b826848480840013307013309248268500a0c01956978185247a6185071484929a00549299805492990054929880595670020837700fe3300c6020a0f01956a781895ab00055022c802521c510796003308d00102838833070133090a0c281c3308d00102838833070133090a0c280c838833070133090a0c018267d80081775617231c3308d0010228e78267d8008177561723643308d0010228d6956700208377c0043308040a030195677820827858048279600414070000000001000000d38707d497077b68d8009888208888017b69b8009498937852084d3308d0010228908267d8008177561703aa013308d00102287eff95670020837780fc3308043300ca020a03019567781882781804827720045022cc025519520a66023308d00102284eff95677820827850047b68c800827748047b67d0008267d8009777209877207b67c0005020ce02c3168267c8008268d000d487078268c000d48707510727031407ffffffff000000007b67b00095677820492780044927780449277004492768049567001c9568e0245020d00234ae956a781895ab000382b898007b68a80082b7a0009888209788208269d800d4980882b990007b69d8008269b800d4970782b988007b69b80095697820959a00047ba7c0007ba8b8004929a0044929980449299004492988048267c8007ba7b0008267d0007ba7a80095670025956820255020d2023fae8267b8008477ff8269d8008498ff8269b000826aa800d2a909956b7818492b4003826ac00095bc00037bca38826ac8007bca30826ad0007bca28492b60037bc9587bc8503a084000023a094800023a0a5000027bc7487bc880007bc9787bca7064b83a075800029569e01b956ac01b956ba01b7b876803330733085020d402d3ae3308d0010228d9fb5020d6027815956778184927c0054927b8054927b0054927a805956760079568201e5020d8020dad826870077b68c800826760077b67d800826768077b67d00082677807988820978820956978184929e0054929d8054929d0054929c8054929f0054929e8057b9700067b98f8059567401e9568601e5020da023aad8267c8009777209877204926180749261007492608074926000749263807956c00077bc7308267d0007bc7283a074000023a084800023a09500002826ad8007bca207bc7587bc8507bc9483a0758000295694007956a2007956b00077bc740330733085020dc02e6ad3308d0010228ecfa956a781882a9100482aa08047b6a40017b6948017b685001956840017b67580133075020de022eab4926380149263001492620010433072095682001492628015020e00210ab3307c401027b67d8003907c4010256173f0c8268d800480840019517e08479e07b69c80064913307d001027b67d000837783993308403300e2020a08826ac8003302e40228d015826ac8005022e402c9157bca407bc9387bc8307bc728956700019568a01c5020e60297ab956b000182b982b70882b81082ba187b6af8007b68f0007b67e800330780009568e0007b69e0005020e80278aa8267d800817756279f00188268d8004808a0008267d0008378800028aefa8267d0008378800028a3fa956778184927180349271003492708036479140700000000f7bd4f1e9568801b7b97200333075020ea0223aa95677818492700034927f8024927f00264793307049568601b4929e8025020ec0200aa3908c4010256183f0b2003c4010240013308d0010283883307013309243300ee020a0c019511c07b10387b15307b16289515408411f0828910828a18828b088288d4ba0ad4980bd4ab0b98bb20d4a909979920d4b909520951647664175020f00263a882171082181814090000000001000000d37909d48909987a2088aa01948a939a510a258219821a087b697b6a087b67107b68189551c08210388215308216289511403200003308d00102838833070133093300f2020a0c01951110ff7b10e8007b15e0007b16d8009515f0008411f0828610828218828c0882887b1c687b1258d42c036482d4680cd43c0c98cc207b1660d46308978820d4c8087b17505208580182b7187b171882b7107b170882b7087b171082b77b1782a7187b174882a7107b174082a7087b173882a77b1730829718829810829a0882997b19b0007b1ab8007b18c0009518b0007b17c800642664275020f402a6a8821760821858d48709140700000000010000007b17201407e0ffffff00000000d8760782186894877b192894975107d1008367208218307b1890008218387b1898008218407b18a000951890008219487b19a8005020f6024ca88217209577c0d8760782186894878218289487510791008217088218d48707821818821910d49808d487078e789567607b1748d86707821968c8790a7b1a40d89a09da7709821760c879097b1968d87907821958c897077b176083674049218800492180007b18709518704911785020f802d8a78217508218607b78188218687b78108218407b78088218487b78955110ff8210e8008215e0008216d8009511f000320000510719955120ff8210d8008215d0008216c8009511e00032009517a0003308405020fc0247a65022fe02e01352076250220003f014502002036ca750220403741351074d821718837704491178491170491160209518604911685020060347a750220803aa145107288216188367244911584911504911401295184049114850200a0322a750220c032b14520704008216188367443a089001023a099801027b18387b1930140800000000000030207b182895182049112050200e03e9a633086464675020100359aa8378330701330964330012030a0c019511807b10787b15707b1668951580008411f0829b828a829608828308829410828c10829918828818d363027b1608d863067b1b187b1a10d8ba0a7b1ada2a06d3980ad89800d84c02daa200d34c0bd4ba0adaa600520046c94c0ac99808c92808d86a09c99808c96a0a821908c99309821bc9b909821b18821c10c9bc0b7b7b7b79087b7a107b781895518082107882157082166895118000320049115049114849114033021403140700000000717b484e019518407b17583307502016030ea64911384911304911201133070495182049112850201803f5a53908c4010256183f0b2003c4010240013308d00102838833070133092433001a030a0c019511907b10687b15609515708411f0827a1882791082738277088eab8e9cdbab0c8e72883ba085bb01db720bd4a908db8c0b520b41953860d8380bc8b70cd87c07dabb07c89707d89709c8a9097b18407b1c487b1750330740c871087b195850201c036ca5955190821068821560951170320049113049112849112033021e03140700000000717b484e019518207b173833075020200338a549111849111049014133070464184911085020220321a53908c4010256183f0b2003c4010240013308d001028388330701330924330024030a0c01951170ff7b1088007b1580007b1678951590008411f064728289827408828c088273959a1fd89a00c80c0984aae07b1308c8a303d8a30bc8490ac8ba0ad39a06d89a07da6b07822b18d8c90c828610822210828818da000cc86c0cd86c06c82c09c89707d8c90cd89709c8b808c86808c8c808c8980c8ec88e79dbc809d4c7088ea6db8906520657821808d88308d34a09d84a06da9806d82708d3bc09d8bc0bda980bd32708d49808da860b520b307b13507b1a587b17603307409518507b1c685020260336a4955170ff821088008215800082167895119000320049114049113849113033022803140700000000717b484e019518307b1748330750202a03fba34911284911204911104133070495181049111850202c03e2a33908c4010256183f0b2003c4010240013308d00102838833070133092433002e030a0c019511907b10687b15607b16589515708411f0648a82841082880882920882a67b16829b7b1b08829010d3820c7b1c28d8820cd86b0b821328da3b0c64b682aa187b1a188299187b1910c9400ac9ca097b1920d8ca097b1428d8400b821418821a10c94a0ac9ba0ac99a0ac98209c969098212821b08c92b0b8e9c88bb2085bb01db9c0b8fa68219208e9cdba60cd4a909db9c0b510b616476821a28d4a207d44809d49707987720d4a909979920d49707520743951730642850203003c6a1821748821840821930821a38d4780b889c0294ac94bc510c277b697b6a087b68107b67189551908210688215608216589511703200003308d0010228083308d001020183883307013309330032030a0c01951150ff7b10a8007b15a0007b1698009515b0008411f0828c10828b1882860882827b1b407b1638d4b608d4c20bd48b0b98bb207b1c48d4c808978820d4b8087b17305208da00642682a7187b172882a7107b172082a7087b171882a77b17108297108298088299977720987720492188007b19707b18789518707b17800064275020340328a2821948821a40d4a9071408e0ffffff00000000d88608821b3894b894785108799567407b1708d86707c87b087b18d8b808da7708c898087b1838d89807c8a7077b17488367208218107b18508218187b18588218207b18609518508219287b196850203603c1a18217308218387b781082187b78088218087b788218487b7818955150ff8210a8008215a000821698009511b000320000510719955120ff8210d8008215d0008216c8009511e00032009517a00033084050203a0331a050223c03ca0d52076250223e03da0e5020400356a1502242035e0d51074d821718837704491178491170491168951860491160205020440331a150224603940e51072882161883672449115849115049114020951840491148502048030ca150224a03150e520704008216188367443a08a001027b18383a08a801023a09b001023a0ab801027b18307b19289518207b1a2050204c03d3a0330864646750204e0343a48378330701330964330050030a0c01951110ff7b10e8007b15e0007b16d8009515f0008411f0828610828218828c0882887b1c687b1258d42c036482d4680cd43c0c98cc207b1660d46308978820d4c8087b175052085c0182b7187b172082b7107b171882b7087b171082b77b170882a7107b173082a7087b173882a77b174082971082980882999777209877204921c8007b19b0007b18b8009518b0007b17c00064266427502052031ca0821760821858d48709140700000000010000007b17281407e0ffffff00000000d8760782186894877b194894975107d7001408ffffffff00000000821930d289098218388488ff821a4084aaff8367204921a8007b1a90007b189800951890007b19a00050205403b29f8217289577c0d8760782186894878218489487510787009567607b1748d86707821868c878097b1940d88908da7708821760c878087b1838d87807821858c887077b17688367408218087b18708218107b18788218187b1880009518708219207b19880050205603489f8217508218387b78108218407b78088218487b788218687b7818955110ff8210e8008215e0008216d8009511f00032000049267802492670024926600205330720956860024926680250205a03f99e3309c401023907c4010256173f0b2003c4010240017b69509517e08479e07b69b80064913307d00102837783993308407b673033005c030a08826ab80033025e0328ef0b826ab80050225e03e80b7b6890007b68b8027b6798007b67b0027b6b88007b6ba8027b6c80007b6ca0029567400233084050206003449d956b000282b7587b67a80082b8507b68a00082ba487b6ab00082b9407b69b8007bb7387bb8307bba28956720027bb920502062037df8956700029568a002502064032c9f8267a8008268b000d487078269a0008268b800d49808d47808988820d49707977720d487075207960682691802826a100282680802826700027b6778956b00017bb7e0007b68687bb8e8007b6a587bbaf0009568e0017b69707bb9f8008267b80050206603d39d8267800095770188780182698800c89808d48709889901826a9800c8a909d8a90a826b9000c8ba0a956b00027bb8c8007bb7c0007bb9d0007bbad8009567c0019568c002502068037b9e8267a8008268a000d47809140700000000010000007b67a0001407e0ffffff000000008268b800d878078268b00094877b69a80094975107d405956c000182c9d80082c8d00082cac80082cbc0008267b8008377207bcba0007bcaa8007bc8b0009568a0017bc9b80050206a031a9d82688000958702d88708826a880050226c03f60a82689800c88a0ad88a08826b9000c8b808956b00027bb9e8007bb7e0007bbaf0007bb8f800956780019568e00250206e03c59d8267a0009577c08268b800d878078268b00094878268a800948751073a05826780018477ff007b67b0008e788267b80083774049267801492670017b686001956860014926680150207003869c8267b00051079204330364826278d63207826b68ca3b08c887077b6760d88707d63b08c88707826a58ca3a08c878087b68b800d87807d63a08826c70ca3c09c88909d4a20ad4cb0bd4ba0ac8790b510a1794b7d88908d63c098e99d49808d487075207f1047b6b704926180349261003492608034926000303956700019568000350207203f19c826c18018262100182640801826b0001d4c407d42b08d4870751076804826878968864887701826ab800d48a0a64807b6868826360826870d48309d4a909889901d497077b67b000682795774068cadac70a7b6b3868b7957740684b7b6440da470b95b780007b6c507b6248d4c209da970ad8b70b949b8262b8006827957740688cda870c68079577406839da370995978000d48202da270cd897099429d39b02d89b07d8ca00da20078874019544ff9a72c99b0bc90b00c9ca0c8e2a8e49da4a098e0b7b6ca80088ca000185aa01db0b0adb790a8269b000d4a909648b949b826ab800949a64379497826c68949c52096c0364388269a8008599ff00d42903d44009d4930951095503826aa80095a9017b69b000889701c807077b678800d49707887701c827077b6778d82707c847077b6780009aa9ff007b6990009a99800082676850207403b0087b67a0007b6898008267b8008268708269900050207603bd087b675882679800d487077b6798008268a8009a897f826768826860502078039c0882699000889a80007b6aa800826b9800dbab08826b70da9b087b6898008268a000826b58d4b808daa7088267b800da97087b68a00082676882686050207a035b08826c7882698000826a8800d49a0a8269b000d4c909d4a909826aa80093a87b68900093a77b67a80051092a028267b0009579808267b80082687050207c03f5077b67587b68288267688268608269b00050207e03df077b67207b68308268b0009a8980008267b80082687050208003ea07826930d49808826ab00088ab80007b6b30826928dab908826960dba8097b6960826820d48707826858dab807826868dba70864a97b68688267b8008268705020820380073304826930939893977b6770826938889701826a40c97a077b6728d4a907887701826a48c97a0b7b6b20d87a07826a50c97a0a7b6a189599ff7b6910826360826068017b6458491660491630980b3f973a01d4ba02970b01826a980098a93fd4b9097b6968826728d3270cd8270b826710d89704dbcb0497880182677098793fd498087b68b80098393f977701d4970397a7018268a00098893fd4970797890182689000988b3fd4b909978b01826ca80098c03fd40b0b97cc01826858d4c8087b68a800826a60d4ba087b689000d49a087b68a000d4a7077b679800826820c93807d84707d83809826818826ab800c9a80bc99b0bc97b0b99bb3f826738d27b087b6860826c40d2bc0cd3c207d8c209826468d88400da7009826848d28b0ac9a308c998077b6770d89807d8a308826950d2b909826ab800c99a09c98908c97808c9c20ac90a03826760c97400826cb00082698800d49c07887701826a78d87a04c97a0788ca01c9a909826a8000c94a0a95ccff7b6988007b6a8000d4a9097b6cb000d47c0ad49a0a84b4017b6778520ab4fe2810330c330a330b2846330449163001826aa00098a73f82689800978801d478028267900098783f97aa01d48a0a8269a80098983f977701979c01d4c40c826930d49808d48707d49a0ad4290b018269087b9c7b97087b9a107b9b189551c0fc95170003827038827530827628951140033200004926f0004926e8004926e00033028403140700000000717b484e019568e0007b67f80033075020860353974926d8004926d0004926c000123307049568c0004926c80033008c0328319749265001492648014926400133028803140700000000717b484e01956840017b675801330750208a03099749263801492630014926200111330704956820014926280150208c03eb96826750817756173f0b8268504808400133070133092482683033008e030a0c01951140ff7b10b8007b15b0007b16a8009515c0008411e049219800492190004921880049218000951760951880005020900389978217687b17188217607b17108017707b17083306d0010383677b170a05013a07d801033a08d001033909e001036f77987a206f88978b20d4ba0a9777206f99989920d49707988820821908d39808821910d39707d48707821818d3a808d48707520719955140ff8210b8008215b0008216a8009511c0003200491150491148491140140700000000a7da8c119518407b1758330750209203fd9582170a0582670881681082696f77977a206f88988820d48a0a9877206f98978920d497079888204911387b18307b17283307049518207b1a2050209403be953908c4010256183f0b2003c4010240013308d0010283883307013309240a0c3307330096032843993307502096033e9933070150209803359982970881981082996f77977a206f88988820d48a0a9877206f98978920d49707988820320282696082970881981082996f77977a206f88988820d48a0a9877206f98978920d497079888209569ff079599613202140b00000000010000001407fcffffff00000000d878078269d000949794a7320282970881981082996f7a97a7206f88988820320282a71882a81082a90882aa6f776f886f996faa956b781895bc000432028268d0008269c000d49808826ac8008269d800d4a909d48909989920d4a808978820d498083202826ad8001407bcffffff00000000d87a078268d00094878268c800948732029569ff079599613307209568ff073202826ac8008269d0008268d8008267c0009577dcd87807949794a7320214090000000001000000d38909d47909988a2088aa01947a939a320282970881981082996f77977a206f88988820d4a8083202826ad80082a71882a81082a90882aa6f776f886f996faa956b781832028268d00094878268c80094873202d49707d48b09d47909989920d48707977720d497073202821908d46909140600000000010000001407fcffffff00000000821818d8780782181094877b1908949732029899207ba7087ba87aa91033077820c876093202d4ba09d4c708d49808988820d4c909979920d4980832028219b8008216b0008217a8008218a0007b17107b1908d497077b1818d46808d47808988820d46707977720d487073202951120ff7b10d8007b15d0007b16c8009515e0008411f0827810827918827a088277d4a909d48707d497073202c9a909d8cb0ac9a9097b6960c9cb0b7b6b58c98707c947077b6750c903073202d878078269d00094978269c80094973202826bc800826ad0008268d8008267c0009577dcd8780794a794b732021407bcffffff00000000d8760782181094878218089487320282a71882a81082a90882aa6f776f8b6f996faa320282a71882a81082a90882aa6f7c6f8b6f976fa83202d49b0bd48709d4b909989920d4b808978820d4980832029567dc821818d87807821810948782180894873202492190004921880049218000140700000000a079c308951880007b179800821718320283977b67d0008267d80064987b69c80032029517e08477e07b67d80064718379330840826750320282b7980082b8a00082b9900082ba8800d49808d4a707d48707320283870433087810c886093202c88a09d8a90ada880a3202849a40520a195109148d9a40cfa80ad09808d09707d4a707320032009597c0d0780733083200849a40520a195109148d9a40d0a70acf9707cf9808d4a808320032009598c0cf870833073200214225a952484992244992244992244992244992244992244992244992244992244992244992542529a524292949a84a494a922449922449922449922449922449922449922449929224294955494a92284925495592922425494a5292aaaa242549492a498a88889424494a92a442a5949224a59492a4922222a28888484992242549925292244928959494142952a4489122458a92141111254982101286d2a434241211119122224844121111912222a2912449224492442229890811a1a811228288089124494410112112892451448888888844522444d1484922222222442211119122899092449288888888888810099148242252241192924412118944082144244922222a44491245492292244992888800222224092080482a22112122224422298a484488081140009154444224840849244422298a48440011112242890610014412492411112122442412898810111111119248229188881011221289444488888888081111224224444444922489a154a1d4880820a2101189082182a1a4482254250a5509112211a511810444208104124840200181444444342249922451242245449288442445444422218a1449848888284484448410221849142a91228910111111222222924822892449120911111192880820222222444442928810111142928810112280842421844812118988884823421245225244444444229222924822218a1449844812292426512221894288602451a824452482485204314992229124492489244992244949228888081141c4888844448288888824499244440011111141c48844909424892822112425892492441289442211914824128924228a888808222222924822890489a64449942482884849922449245110892022222222092091441249922492a4264d6a44444444444444440411494492249224924444444444444444444410092292244822128944a408228a4804494942440821222222121111944a4492884622499244918888880822914824221244224982249288281291884444443422222249124522128d88208988888888828811a144044914229844a112452482884422512488888888888824124404118948922489489248241291082289249144222222228288041040242a892822914412914844228824824822114912114422519444441189888820124444444444442291888844444444442429222222888844922449118988242222a211892449124522224404112322222222414444044944444444149188888846444492248a44a4882489484452444444444214514422888824521011a144044914229844a1124592aa224949499224498908229248109324499224250920121111444482084a44228220128908114110092112111191402222221a9124499228129168440449442449440a2225114482240a114ca250299254144511498a0822894422114924224922492491082245241124228924121191241241444412444444444444222222222222222222222222221111114422912449141111111193244924228924499224510445252222a21149922489224914912212894422921444241295448288489224492222028888880822224104112122228848108988101144440001a422212242081111114424412422028888484444442322229224512422424410111111110922222282882422128944242222221a112451242245444424499222111111110929512488888888824844082282102298240a951425a94a922489888888882012912812444444444124220411418a448228124444444404914824128988884244049188441289244912499244922412494412499248228924499248228948924445899448494412514a4a9112492a8948924424519228a5944852912495888a149124125545251191489248249124928888082222224824221141444422114922111144442289a2484a2222221a1111499228121121228844444444448248444404c98820464444249144224992880431222249924411114044444410110922282244440441242211098248082192041089441491082222a220222422882293a844149108222222828888888888221241444444442489549288882812258988888888888888202222228924924892442488888820222280888888202212442242444410442242441001248884102249442422412492248844444400111111414424884422424444041109229188101141440410402a12221211428888882022092291880022228288a04423224244101189442241444444922489888800222212448c480449499288221241529248224924492412894822222222229288282222228888884822892449922449124d49494a124144a424499224220a9208222284102209209144922449124952932635229244444444444410492249924892248948228928222248a288202222222222222222222282888848442492124192882411414422898888888820124424491011894422520411452482a424212284101111918888a0a8441491082222a22022242248a22832894a441189209214414444444444444444440491a4888888882022a2101144221191202222922449444400111111411449a52425892492441289888888888888888888082222228924924890a6a4244a124989884849922449245110892022222222092091441249922492a4264d6a444422222222222288241149924892481211111111114124882425499224222222228a20a288449094244208212222221211111495481011111111114582a4244110114554c4485a9288a0482311411211411211112411492291249122222815891891248924924812892491249144224924894451449124922491a424114924492411892451442289249124499249922449922422124422929224491211014444444410110992448a081111110449221121228220490821121101444490084a9a2812444444444124220411418a448228124492444410898888888888049188888888481289882022512449922412499288a42022010410894a129188482412118920224192484444840812458288888828884484202248a21499442545928aa22822491111442222222249228288082211119144924822119124222222488a2482482291a48808229124498a880822912411898888880822220a1111442291484424884424254992242202888888882051220992924412492289442222922449222222111111111144222222892492489248249188468992284982922812912449922888441011119124804412492491249124359ad448444444444444444444109144244922492249242211894844221291888888884410912012111141924892442445902891044949422442081189249144444404a512092222222222a2489094240822a2888a482488888888882812242509828828a22212912012894422114582a424411091222a92502aa15442a984528988280218511011a14404514426692895502aa15442a9845209a5124a25944a2895808888886844922489502aa15442a9845209a5124a2522224404a12a5509a5124a25944a2895502aa154228988442212412228556a404444443422222249845289444424021811059188104944042992491a81888888684410a154a154a546118a2214914644004924510945212422d188082224222222892022910820222222228888882412118988888888888888082291884444241289248490480a11111584041111111144444444121111111111412411111189841022494244a482908888888882889088204488c8240a51892212419244045192888888200a111189484444014414444494882044309444932449529224490549004952292549923494a21111912425294992249224a924494a922222a28224012480a414492412910892a4142949529224499224494492204992a48888682222a248102408822449244190248924083209210920499082926892442a499224494a922449922449495292248992440093822492042182a1249a24494aa5244992244992240992a42411c0a420494a1022184aa2119148252549922449922449922449252549922449922449828848942402981424912408110c25d124494a522549929424499224499292929492a4244992a42049924a4992240d85a5684444244949922449a224494a521249a22049004925494a92244992244990a4a42422229a88882812040982204992441024492209824c4242084912a4a0241a1111495292922449224992922425298988880a9204900092520490244922222248925224499224499224492289204992928888684448441042049344a19228221144444444448248241289249120228848449224111191884422121144124922894444444410910022804814454444442222228824824822111111114422511411512422228288244992244924499224252591880811414444924812294992442929259124294a292592942449492a4524895454298a4812914822499288880411910812894812444424894812892448442289a2884824489208928848904424499224498904a5922449922449924c9224912449922489248924912492249144229124892449922449922449124992242249924412914892a8aa8c4412492249922453928824d1888800461444844444222202185110111211a4482689464444222212419224a11a42282529499224492222a22401240595544a529224498210c1505291820449a524252949a5242589144000892aa99492541551442292242902481415491411915401244995544a8a245545515492242909208024a59212294992141191244992141111495292922449921245454424550049a9245595a4aa92244949522a2202884845142551491111494aa4242549925452499224951400"
        },
        "methodIdentifiers": {
          "collateralBalances(address)": "29bc969d",
          "collateralFactor()": "df011c41",
          "collateralToken()": "b2016bd4",
          "depositCollateral(uint256)": "bad4a01f",
          "getLoanDetails(address)": "e8a7da8e",
          "lendingToken()": "aaaca558",
          "loans(address)": "73b4086b",
          "owner()": "8da5cb5b",
          "renounceOwnership()": "715018a6",
          "repayLoan(uint256)": "ab7b1c89",
          "setCollateralFactor(uint256)": "b5c22157",
          "takeLoan(uint256)": "8c803fc2",
          "transferOwnership(address)": "f2fde38b",
          "withdrawCollateral(uint256)": "6112fe2e"
        }
      },
      "hash": "9c9d0f09506ff6e153b7d4bd565400042587560bc335ce32113322f827da9b2e",
      "factoryDependencies": {}
    }
  }
}