{
  "contracts/MyToken.sol": {
    "MockERC20": {
      "abi": [
        {
          "inputs": [
            {
              "internalType": "string",
              "name": "name",
              "type": "string"
            },
            {
              "internalType": "string",
              "name": "symbol",
              "type": "string"
            }
          ],
          "stateMutability": "nonpayable",
          "type": "constructor"
        },
        {
          "inputs": [
            {
              "internalType": "address",
              "name": "spender",
              "type": "address"
            },
            {
              "internalType": "uint256",
              "name": "allowance",
              "type": "uint256"
            },
            {
              "internalType": "uint256",
              "name": "needed",
              "type": "uint256"
            }
          ],
          "name": "ERC20InsufficientAllowance",
          "type": "error"
        },
        {
          "inputs": [
            {
              "internalType": "address",
              "name": "sender",
              "type": "address"
            },
            {
              "internalType": "uint256",
              "name": "balance",
              "type": "uint256"
            },
            {
              "internalType": "uint256",
              "name": "needed",
              "type": "uint256"
            }
          ],
          "name": "ERC20InsufficientBalance",
          "type": "error"
        },
        {
          "inputs": [
            {
              "internalType": "address",
              "name": "approver",
              "type": "address"
            }
          ],
          "name": "ERC20InvalidApprover",
          "type": "error"
        },
        {
          "inputs": [
            {
              "internalType": "address",
              "name": "receiver",
              "type": "address"
            }
          ],
          "name": "ERC20InvalidReceiver",
          "type": "error"
        },
        {
          "inputs": [
            {
              "internalType": "address",
              "name": "sender",
              "type": "address"
            }
          ],
          "name": "ERC20InvalidSender",
          "type": "error"
        },
        {
          "inputs": [
            {
              "internalType": "address",
              "name": "spender",
              "type": "address"
            }
          ],
          "name": "ERC20InvalidSpender",
          "type": "error"
        },
        {
          "inputs": [
            {
              "internalType": "address",
              "name": "owner",
              "type": "address"
            }
          ],
          "name": "OwnableInvalidOwner",
          "type": "error"
        },
        {
          "inputs": [
            {
              "internalType": "address",
              "name": "account",
              "type": "address"
            }
          ],
          "name": "OwnableUnauthorizedAccount",
          "type": "error"
        },
        {
          "anonymous": false,
          "inputs": [
            {
              "indexed": true,
              "internalType": "address",
              "name": "owner",
              "type": "address"
            },
            {
              "indexed": true,
              "internalType": "address",
              "name": "spender",
              "type": "address"
            },
            {
              "indexed": false,
              "internalType": "uint256",
              "name": "value",
              "type": "uint256"
            }
          ],
          "name": "Approval",
          "type": "event"
        },
        {
          "anonymous": false,
          "inputs": [
            {
              "indexed": true,
              "internalType": "address",
              "name": "previousOwner",
              "type": "address"
            },
            {
              "indexed": true,
              "internalType": "address",
              "name": "newOwner",
              "type": "address"
            }
          ],
          "name": "OwnershipTransferred",
          "type": "event"
        },
        {
          "anonymous": false,
          "inputs": [
            {
              "indexed": true,
              "internalType": "address",
              "name": "from",
              "type": "address"
            },
            {
              "indexed": true,
              "internalType": "address",
              "name": "to",
              "type": "address"
            },
            {
              "indexed": false,
              "internalType": "uint256",
              "name": "value",
              "type": "uint256"
            }
          ],
          "name": "Transfer",
          "type": "event"
        },
        {
          "inputs": [
            {
              "internalType": "address",
              "name": "owner",
              "type": "address"
            },
            {
              "internalType": "address",
              "name": "spender",
              "type": "address"
            }
          ],
          "name": "allowance",
          "outputs": [
            {
              "internalType": "uint256",
              "name": "",
              "type": "uint256"
            }
          ],
          "stateMutability": "view",
          "type": "function"
        },
        {
          "inputs": [
            {
              "internalType": "address",
              "name": "spender",
              "type": "address"
            },
            {
              "internalType": "uint256",
              "name": "value",
              "type": "uint256"
            }
          ],
          "name": "approve",
          "outputs": [
            {
              "internalType": "bool",
              "name": "",
              "type": "bool"
            }
          ],
          "stateMutability": "nonpayable",
          "type": "function"
        },
        {
          "inputs": [
            {
              "internalType": "address",
              "name": "account",
              "type": "address"
            }
          ],
          "name": "balanceOf",
          "outputs": [
            {
              "internalType": "uint256",
              "name": "",
              "type": "uint256"
            }
          ],
          "stateMutability": "view",
          "type": "function"
        },
        {
          "inputs": [],
          "name": "decimals",
          "outputs": [
            {
              "internalType": "uint8",
              "name": "",
              "type": "uint8"
            }
          ],
          "stateMutability": "view",
          "type": "function"
        },
        {
          "inputs": [
            {
              "internalType": "address",
              "name": "to",
              "type": "address"
            },
            {
              "internalType": "uint256",
              "name": "amount",
              "type": "uint256"
            }
          ],
          "name": "mint",
          "outputs": [],
          "stateMutability": "nonpayable",
          "type": "function"
        },
        {
          "inputs": [],
          "name": "name",
          "outputs": [
            {
              "internalType": "string",
              "name": "",
              "type": "string"
            }
          ],
          "stateMutability": "view",
          "type": "function"
        },
        {
          "inputs": [],
          "name": "owner",
          "outputs": [
            {
              "internalType": "address",
              "name": "",
              "type": "address"
            }
          ],
          "stateMutability": "view",
          "type": "function"
        },
        {
          "inputs": [],
          "name": "renounceOwnership",
          "outputs": [],
          "stateMutability": "nonpayable",
          "type": "function"
        },
        {
          "inputs": [],
          "name": "symbol",
          "outputs": [
            {
              "internalType": "string",
              "name": "",
              "type": "string"
            }
          ],
          "stateMutability": "view",
          "type": "function"
        },
        {
          "inputs": [],
          "name": "totalSupply",
          "outputs": [
            {
              "internalType": "uint256",
              "name": "",
              "type": "uint256"
            }
          ],
          "stateMutability": "view",
          "type": "function"
        },
        {
          "inputs": [
            {
              "internalType": "address",
              "name": "to",
              "type": "address"
            },
            {
              "internalType": "uint256",
              "name": "value",
              "type": "uint256"
            }
          ],
          "name": "transfer",
          "outputs": [
            {
              "internalType": "bool",
              "name": "",
              "type": "bool"
            }
          ],
          "stateMutability": "nonpayable",
          "type": "function"
        },
        {
          "inputs": [
            {
              "internalType": "address",
              "name": "from",
              "type": "address"
            },
            {
              "internalType": "address",
              "name": "to",
              "type": "address"
            },
            {
              "internalType": "uint256",
              "name": "value",
              "type": "uint256"
            }
          ],
          "name": "transferFrom",
          "outputs": [
            {
              "internalType": "bool",
              "name": "",
              "type": "bool"
            }
          ],
          "stateMutability": "nonpayable",
          "type": "function"
        },
        {
          "inputs": [
            {
              "internalType": "address",
              "name": "newOwner",
              "type": "address"
            }
          ],
          "name": "transferOwnership",
          "outputs": [],
          "stateMutability": "nonpayable",
          "type": "function"
        }
      ],
      "evm": {
        "assembly": "// RO data = 0/0 bytes\n// RW data = 224/65808 bytes\n// Stack size = 32768 bytes\n\n// Instructions = 6684\n// Code size = 23195 bytes\n\n      : @0 (gas: 1)\n     0: jump @14 if a0 == a1\n      : @1 (gas: 9)\n     3: a3 = a1 << 0x20\n     6: a3 = a3 >> 0x20\n     9: a4 = a0 << 0x20\n    12: a4 = a4 >> 0x20\n    15: a4 = a4 + a2\n    18: a3 = a3 - a4\n    21: a4 = a2 << 0x1\n    24: a4 = -a4\n    26: jump @7 if a4 >=u a3\n      : @2 (gas: 1)\n    29: jump @11 if a0 >=u a1\n      : @3 (gas: 1)\n    32: jump @14 if a2 == 0\n      : @4 (gas: 3)\n    35: a2 = a2 + a0\n    38: a3 = a0\n    40: fallthrough\n      : @5 (gas: 6)\n    41: a4 = u8 [a1]\n    43: a1 = a1 + 0x1\n    46: a5 = a3 + 0x1\n    49: u8 [a3] = a4\n    51: a3 = a5\n    53: jump @5 if a5 != a2\n      : @6 (gas: 1)\n    56: jump @14\n      : @7 (gas: 1)\n    58: jump @14 if a2 == 0\n      : @8 (gas: 3)\n    61: a2 = a2 + a0\n    64: a3 = a0\n    66: fallthrough\n      : @9 (gas: 6)\n    67: a4 = u8 [a1]\n    69: a1 = a1 + 0x1\n    72: a5 = a3 + 0x1\n    75: u8 [a3] = a4\n    77: a3 = a5\n    79: jump @9 if a5 != a2\n      : @10 (gas: 1)\n    82: jump @14\n      : @11 (gas: 1)\n    84: jump @14 if a2 == 0\n      : @12 (gas: 2)\n    87: i32 a3 = a2 + 0xffffffffffffffff\n    90: fallthrough\n      : @13 (gas: 7)\n    91: a4 = a1 + a3\n    94: a4 = u8 [a4]\n    96: a2 = a2 + 0xffffffffffffffff\n    99: a5 = a0 + a3\n   102: u8 [a5] = a4\n   104: i32 a3 = a3 + 0xffffffffffffffff\n   107: jump @13 if a2 != 0\n      : @14 (gas: 1)\n   110: ret\n      : @15 (gas: 2)\n   112: a1 = i32 [0x200e8]\n   117: jump @213 if a1 == 0\n      : @16 (gas: 4)\n   121: a0 = 0x30110\n   126: i32 a0 = a0 + 0\n   128: ecalli 8 // 'set_immutable_data'\n   130: jump @213\n      : @17 (gas: 8)\n   133: sp = sp + 0xfffffffffffffff0\n   136: u64 [sp + 0x8] = ra\n   139: u64 [sp] = s0\n   141: a2 = a1\n   143: s0 = a0\n   145: a1 = 0x20\n   148: a0 = a2\n   150: ra = 2, jump @26\n      : @18 [@dyn 1] (gas: 100)\n   155: a1 = u8 [a0 + 0x1]\n   158: a2 = u8 [a0]\n   160: a3 = u8 [a0 + 0x2]\n   163: a4 = u8 [a0 + 0x3]\n   166: a1 = a1 << 0x8\n   169: a1 = a1 | a2\n   172: a3 = a3 << 0x10\n   175: a4 = a4 << 0x18\n   178: a3 = a3 | a4\n   181: a1 = a1 | a3\n   184: a2 = u8 [a0 + 0x5]\n   187: a3 = u8 [a0 + 0x4]\n   190: a4 = u8 [a0 + 0x6]\n   193: a5 = u8 [a0 + 0x7]\n   196: a2 = a2 << 0x8\n   199: a2 = a2 | a3\n   202: a4 = a4 << 0x10\n   205: a5 = a5 << 0x18\n   208: a4 = a4 | a5\n   211: a2 = a2 | a4\n   214: a2 = a2 << 0x20\n   217: t0 = a2 | a1\n   220: a2 = u8 [a0 + 0x9]\n   223: a3 = u8 [a0 + 0x8]\n   226: a4 = u8 [a0 + 0xa]\n   229: a5 = u8 [a0 + 0xb]\n   232: a2 = a2 << 0x8\n   235: a2 = a2 | a3\n   238: a4 = a4 << 0x10\n   241: a5 = a5 << 0x18\n   244: a4 = a4 | a5\n   247: a2 = a2 | a4\n   250: a3 = u8 [a0 + 0xd]\n   253: a4 = u8 [a0 + 0xc]\n   256: a5 = u8 [a0 + 0xe]\n   259: a1 = u8 [a0 + 0xf]\n   262: a3 = a3 << 0x8\n   265: a3 = a3 | a4\n   268: a5 = a5 << 0x10\n   271: a1 = a1 << 0x18\n   274: a1 = a1 | a5\n   277: a1 = a1 | a3\n   280: a1 = a1 << 0x20\n   283: t1 = a1 | a2\n   286: a1 = u8 [a0 + 0x11]\n   289: a3 = u8 [a0 + 0x10]\n   292: a4 = u8 [a0 + 0x12]\n   295: a5 = u8 [a0 + 0x13]\n   298: a1 = a1 << 0x8\n   301: a1 = a1 | a3\n   304: a4 = a4 << 0x10\n   307: a5 = a5 << 0x18\n   310: a4 = a4 | a5\n   313: a1 = a1 | a4\n   316: a3 = u8 [a0 + 0x15]\n   319: a4 = u8 [a0 + 0x14]\n   322: a5 = u8 [a0 + 0x16]\n   325: a2 = u8 [a0 + 0x17]\n   328: a3 = a3 << 0x8\n   331: a3 = a3 | a4\n   334: a5 = a5 << 0x10\n   337: a2 = a2 << 0x18\n   340: a2 = a2 | a5\n   343: a2 = a2 | a3\n   346: a2 = a2 << 0x20\n   349: a3 = a2 | a1\n   352: a1 = u8 [a0 + 0x19]\n   355: a2 = u8 [a0 + 0x18]\n   358: a4 = u8 [a0 + 0x1a]\n   361: a5 = u8 [a0 + 0x1b]\n   364: a1 = a1 << 0x8\n   367: a1 = a1 | a2\n   370: a4 = a4 << 0x10\n   373: a5 = a5 << 0x18\n   376: a4 = a4 | a5\n   379: a1 = a1 | a4\n   382: a2 = u8 [a0 + 0x1d]\n   385: a4 = u8 [a0 + 0x1c]\n   388: a5 = u8 [a0 + 0x1e]\n   391: a0 = u8 [a0 + 0x1f]\n   394: a2 = a2 << 0x8\n   397: a2 = a2 | a4\n   400: a5 = a5 << 0x10\n   403: a0 = a0 << 0x18\n   406: a0 = a0 | a5\n   409: a0 = a0 | a2\n   412: a0 = a0 << 0x20\n   415: a0 = a0 | a1\n   418: a0 = reverse a0\n   420: a1 = reverse a3\n   422: a2 = reverse t1\n   424: a3 = reverse t0\n   426: u64 [s0 + 0x18] = a3\n   429: u64 [s0 + 0x10] = a2\n   432: u64 [s0 + 0x8] = a1\n   435: u64 [s0] = a0\n   437: ra = u64 [sp + 0x8]\n   440: s0 = u64 [sp]\n   442: sp = sp + 0x10\n   445: ret\n      : @19 (gas: 12)\n   447: sp = sp + 0xffffffffffffffd8\n   450: u64 [sp + 0x20] = ra\n   453: u64 [sp + 0x18] = s0\n   456: u64 [sp + 0x10] = s1\n   459: a2 = u64 [a1]\n   461: u64 [sp + 0x8] = a2\n   464: a2 = u64 [a1 + 0x8]\n   467: u64 [sp] = a2\n   469: s0 = u64 [a1 + 0x10]\n   472: s1 = u64 [a1 + 0x18]\n   475: a1 = 0x20\n   478: ra = 4, jump @26\n      : @20 [@dyn 2] (gas: 71)\n   483: a1 = reverse s1\n   485: a2 = reverse s0\n   487: a3 = u64 [sp]\n   489: a3 = reverse a3\n   491: a4 = u64 [sp + 0x8]\n   494: a4 = reverse a4\n   496: u8 [a0 + 0x18] = a4\n   499: u8 [a0 + 0x10] = a3\n   502: u8 [a0 + 0x8] = a2\n   505: u8 [a0] = a1\n   507: a5 = a4 >> 0x38\n   510: u8 [a0 + 0x1f] = a5\n   513: a5 = a4 >> 0x30\n   516: u8 [a0 + 0x1e] = a5\n   519: a5 = a4 >> 0x28\n   522: u8 [a0 + 0x1d] = a5\n   525: a5 = a4 >> 0x20\n   528: u8 [a0 + 0x1c] = a5\n   531: a5 = a4 >> 0x18\n   534: u8 [a0 + 0x1b] = a5\n   537: a5 = a4 >> 0x10\n   540: u8 [a0 + 0x1a] = a5\n   543: a4 = a4 >> 0x8\n   546: u8 [a0 + 0x19] = a4\n   549: a4 = a3 >> 0x38\n   552: u8 [a0 + 0x17] = a4\n   555: a4 = a3 >> 0x30\n   558: u8 [a0 + 0x16] = a4\n   561: a4 = a3 >> 0x28\n   564: u8 [a0 + 0x15] = a4\n   567: a4 = a3 >> 0x20\n   570: u8 [a0 + 0x14] = a4\n   573: a4 = a3 >> 0x18\n   576: u8 [a0 + 0x13] = a4\n   579: a4 = a3 >> 0x10\n   582: u8 [a0 + 0x12] = a4\n   585: a3 = a3 >> 0x8\n   588: u8 [a0 + 0x11] = a3\n   591: a3 = a2 >> 0x38\n   594: u8 [a0 + 0xf] = a3\n   597: a3 = a2 >> 0x30\n   600: u8 [a0 + 0xe] = a3\n   603: a3 = a2 >> 0x28\n   606: u8 [a0 + 0xd] = a3\n   609: a3 = a2 >> 0x20\n   612: u8 [a0 + 0xc] = a3\n   615: a3 = a2 >> 0x18\n   618: u8 [a0 + 0xb] = a3\n   621: a3 = a2 >> 0x10\n   624: u8 [a0 + 0xa] = a3\n   627: a2 = a2 >> 0x8\n   630: u8 [a0 + 0x9] = a2\n   633: a2 = a1 >> 0x38\n   636: u8 [a0 + 0x7] = a2\n   639: a2 = a1 >> 0x30\n   642: u8 [a0 + 0x6] = a2\n   645: a2 = a1 >> 0x28\n   648: u8 [a0 + 0x5] = a2\n   651: a2 = a1 >> 0x20\n   654: u8 [a0 + 0x4] = a2\n   657: a2 = a1 >> 0x18\n   660: u8 [a0 + 0x3] = a2\n   663: a2 = a1 >> 0x10\n   666: u8 [a0 + 0x2] = a2\n   669: a1 = a1 >> 0x8\n   672: u8 [a0 + 0x1] = a1\n   675: ra = u64 [sp + 0x20]\n   678: s0 = u64 [sp + 0x18]\n   681: s1 = u64 [sp + 0x10]\n   684: sp = sp + 0x28\n   687: ret\n      : @21 (gas: 48)\n   689: sp = sp + 0xffffffffffffffa0\n   692: u64 [sp + 0x58] = ra\n   695: u64 [sp + 0x50] = s0\n   698: u64 [sp + 0x48] = s1\n   701: s0 = sp + 0x60\n   704: sp = sp & 0xffffffffffffffe0\n   707: s1 = a0\n   709: a0 = u64 [a1 + 0x18]\n   712: a2 = u64 [a1 + 0x10]\n   715: a3 = u64 [a1 + 0x8]\n   718: a1 = u64 [a1]\n   720: a0 = reverse a0\n   722: a2 = reverse a2\n   724: a3 = reverse a3\n   726: a1 = reverse a1\n   728: u64 [sp + 0x18] = a1\n   731: u64 [sp + 0x10] = a3\n   734: u64 [sp + 0x8] = a2\n   737: u64 [sp] = a0\n   739: u64 [sp + 56] = 0\n   742: u64 [sp + 48] = 0\n   745: u64 [sp + 40] = 0\n   748: u64 [sp + 32] = 0\n   751: u32 [sp + 64] = 0x20\n   755: i32 a1 = sp + 0\n   757: i32 a3 = sp + 0x20\n   760: i32 a4 = sp + 0x40\n   763: a2 = 0xffffffffffffffff\n   766: a0 = 0\n   768: ecalli 5 // 'get_storage'\n   770: a0 = u64 [sp + 0x38]\n   773: a1 = u64 [sp + 0x30]\n   776: a2 = u64 [sp + 0x28]\n   779: a3 = u64 [sp + 0x20]\n   782: a0 = reverse a0\n   784: a1 = reverse a1\n   786: a2 = reverse a2\n   788: a3 = reverse a3\n   790: u64 [s1 + 0x18] = a3\n   793: u64 [s1 + 0x10] = a2\n   796: u64 [s1 + 0x8] = a1\n   799: u64 [s1] = a0\n   801: sp = s0 + 0xffffffffffffffa0\n   804: ra = u64 [sp + 0x58]\n   807: s0 = u64 [sp + 0x50]\n   810: s1 = u64 [sp + 0x48]\n   813: sp = sp + 0x60\n   816: ret\n      : @22 (gas: 40)\n   818: sp = sp + 0xffffffffffffffa0\n   821: u64 [sp + 0x58] = ra\n   824: u64 [sp + 0x50] = s0\n   827: s0 = sp + 0x60\n   830: sp = sp & 0xffffffffffffffe0\n   833: t0 = u64 [a0]\n   835: a3 = u64 [a0 + 0x8]\n   838: a4 = u64 [a0 + 0x10]\n   841: a0 = u64 [a0 + 0x18]\n   844: t1 = u64 [a1]\n   846: a2 = u64 [a1 + 0x8]\n   849: a5 = u64 [a1 + 0x10]\n   852: a1 = u64 [a1 + 0x18]\n   855: t2 = reverse a0\n   857: a4 = reverse a4\n   859: a3 = reverse a3\n   861: a0 = reverse t0\n   863: t0 = reverse a1\n   865: a5 = reverse a5\n   867: a2 = reverse a2\n   869: a1 = reverse t1\n   871: u64 [sp + 0x18] = a0\n   874: u64 [sp + 0x10] = a3\n   877: u64 [sp + 0x8] = a4\n   880: u64 [sp] = t2\n   882: u64 [sp + 0x38] = a1\n   885: u64 [sp + 0x30] = a2\n   888: u64 [sp + 0x28] = a5\n   891: u64 [sp + 0x20] = t0\n   894: i32 a1 = sp + 0\n   896: i32 a3 = sp + 0x20\n   899: a2 = 0xffffffffffffffff\n   902: a4 = 0x20\n   905: a0 = 0\n   907: ecalli 9 // 'set_storage'\n   909: sp = s0 + 0xffffffffffffffa0\n   912: ra = u64 [sp + 0x58]\n   915: s0 = u64 [sp + 0x50]\n   918: sp = sp + 0x60\n   921: ret\n      : @23 (gas: 33)\n   923: sp = sp + 0xffffffffffffff20\n   927: u64 [sp + 0xd8] = ra\n   931: u64 [sp + 0xd0] = s0\n   935: u64 [sp + 0xc8] = s1\n   939: s0 = sp + 0xe0\n   943: sp = sp & 0xffffffffffffffe0\n   946: a5 = u64 [a4]\n   948: u64 [sp + 0x40] = a5\n   951: a5 = u64 [a4 + 0x8]\n   954: u64 [sp + 0x48] = a5\n   957: a5 = u64 [a4 + 0x10]\n   960: u64 [sp + 0x50] = a5\n   963: a4 = u64 [a4 + 0x18]\n   966: u64 [sp + 0x58] = a4\n   969: t0 = 0x6\n   972: a4 = u64 [a3]\n   974: u64 [sp + 0x18] = a4\n   977: a4 = u64 [a3 + 0x8]\n   980: u64 [sp + 0x20] = a4\n   983: a4 = u64 [a3 + 0x10]\n   986: u64 [sp + 0x28] = a4\n   989: a3 = u64 [a3 + 0x18]\n   992: u64 [sp + 0x30] = a3\n   995: s1 = u64 [a2]\n   997: a3 = u64 [a2 + 0x8]\n  1000: u64 [sp] = a3\n  1002: a3 = u64 [a2 + 0x10]\n  1005: u64 [sp + 0x8] = a3\n  1008: a2 = u64 [a2 + 0x18]\n  1011: u64 [sp + 0x10] = a2\n  1014: u64 [sp + 0x38] = a1\n  1017: ra = 0x8\n  1020: jump @26\n      : @24 [@dyn 3] (gas: 2)\n  1023: u64 [sp + 0x38] = a1\n  1026: ra = 8, jump @26\n      : @25 [@dyn 4] (gas: 46)\n  1031: a1 = reverse s1\n  1033: u64 [sp + 0x78] = a1\n  1036: a1 = u64 [sp]\n  1038: a1 = reverse a1\n  1040: u64 [sp + 0x70] = a1\n  1043: a1 = u64 [sp + 0x8]\n  1046: a1 = reverse a1\n  1048: u64 [sp + 0x68] = a1\n  1051: a1 = u64 [sp + 0x10]\n  1054: a1 = reverse a1\n  1056: u64 [sp + 0x60] = a1\n  1059: a1 = u64 [sp + 0x18]\n  1062: a1 = reverse a1\n  1064: u64 [sp + 0x98] = a1\n  1068: a1 = u64 [sp + 0x20]\n  1071: a1 = reverse a1\n  1073: u64 [sp + 0x90] = a1\n  1077: a1 = u64 [sp + 0x28]\n  1080: a1 = reverse a1\n  1082: u64 [sp + 0x88] = a1\n  1086: a1 = u64 [sp + 0x30]\n  1089: a1 = reverse a1\n  1091: u64 [sp + 0x80] = a1\n  1095: a1 = u64 [sp + 0x40]\n  1098: a1 = reverse a1\n  1100: u64 [sp + 0xb8] = a1\n  1104: a1 = u64 [sp + 0x48]\n  1107: a1 = reverse a1\n  1109: u64 [sp + 0xb0] = a1\n  1113: a1 = u64 [sp + 0x50]\n  1116: a1 = reverse a1\n  1118: u64 [sp + 0xa8] = a1\n  1122: a1 = u64 [sp + 0x58]\n  1125: a1 = reverse a1\n  1127: u64 [sp + 0xa0] = a1\n  1131: i32 a2 = a0 + 0\n  1133: a3 = i32 [sp + 0x38]\n  1136: i32 a0 = sp + 0x60\n  1139: a1 = 0x3\n  1142: ecalli 4 // 'deposit_event'\n  1144: sp = s0 + 0xffffffffffffff20\n  1148: ra = u64 [sp + 0xd8]\n  1152: s0 = u64 [sp + 0xd0]\n  1156: s1 = u64 [sp + 0xc8]\n  1160: sp = sp + 0xe0\n  1164: ret\n      : @26 (gas: 2)\n  1166: i32 a2 = a0 >> 0x10\n  1169: jump @31 if a2 != 0\n      : @27 (gas: 4)\n  1172: a1 = a1 + a0\n  1175: i32 a1 = a1 + 0x1f\n  1178: a1 = a1 & 0xffffffffffffffe0\n  1181: jump @31 if a1 >u 65536\n      : @28 (gas: 3)\n  1187: a2 = 0x200e4\n  1192: a3 = i32 [0x200e4]\n  1197: jump @30 if a3 >=u a1\n      : @29 (gas: 2)\n  1200: u32 [0x200e4] = a1\n  1205: fallthrough\n      : @30 (gas: 4)\n  1206: a1 = 0x200f0\n  1211: i32 a0 = a0 + 0\n  1213: a0 = a0 + a1\n  1216: ret\n      : @31 (gas: 1)\n  1218: trap\n      : @32 (gas: 6)\n  1219: sp = sp + 0xfffffffffffffff0\n  1222: u64 [sp + 0x8] = ra\n  1225: u64 [sp] = s0\n  1227: s0 = a0 & 0x1\n  1230: ecalli 2 // 'call_data_size'\n  1232: fallthrough\n      : @33 (gas: 2)\n  1233: u32 [0x200e0] = a0\n  1238: jump @35 if s0 == 0\n      : @34 (gas: 1)\n  1241: ra = 10, jump @36\n      : @35 [@dyn 5] (gas: 21)\n  1245: ra = 0xc\n  1248: sp = sp + 0xfffffffffffff808\n  1252: a0 = sp + 0x700\n  1256: u64 [a0 + 0xf0] = ra\n  1260: u64 [a0 + 0xe8] = s0\n  1264: u64 [a0 + 0xe0] = s1\n  1268: s0 = sp + 0x7f8\n  1272: sp = sp + 0xfffffffffffff800\n  1276: sp = sp + 0xfffffffffffffb78\n  1280: sp = sp & 0xffffffffffffffe0\n  1283: s1 = sp\n  1285: a2 = s1 + 0x7ff\n  1289: a2 = a2 + 0x79\n  1292: u64 [a2 + 1984] = 0\n  1296: u64 [a2 + 1976] = 0\n  1300: u64 [a2 + 1960] = 0x80\n  1306: a0 = 0x40\n  1309: a1 = s1 + 0x1020\n  1313: u64 [a2 + 1968] = 0\n  1317: ra = 0xc6\n  1321: jump @19\n      : @36 [@dyn 6] (gas: 15)\n  1324: sp = sp + 0xfffffffffffffe10\n  1328: u64 [sp + 0x1e8] = ra\n  1332: u64 [sp + 0x1e0] = s0\n  1336: u64 [sp + 0x1d8] = s1\n  1340: s0 = sp + 0x1f0\n  1344: sp = sp + 0xfffffffffffff930\n  1348: sp = sp & 0xffffffffffffffe0\n  1351: s1 = sp\n  1353: u64 [s1 + 1560] = 0\n  1357: u64 [s1 + 1552] = 0\n  1361: u64 [s1 + 1536] = 0x80\n  1367: a0 = 0x40\n  1370: a1 = s1 + 0x600\n  1374: u64 [s1 + 1544] = 0\n  1378: ra = 14, jump @19\n      : @37 [@dyn 7] (gas: 7)\n  1383: u64 [s1 + 1592] = 0\n  1387: u64 [s1 + 1584] = 0\n  1391: u64 [s1 + 1576] = 0\n  1395: u64 [s1 + 1568] = 0\n  1399: i32 a0 = s1 + 0x620\n  1403: ecalli 10 // 'value_transferred'\n  1405: fallthrough\n      : @38 (gas: 9)\n  1406: a4 = s1 + 0x600\n  1410: a0 = u64 [a4 + 0x30]\n  1413: a1 = u64 [a4 + 0x38]\n  1416: a2 = u64 [a4 + 0x28]\n  1419: a3 = u64 [a4 + 0x20]\n  1422: a1 = a1 | a2\n  1425: a0 = a0 | a3\n  1428: a0 = a0 | a1\n  1431: jump @40 if a0 == 0\n      : @39 (gas: 1)\n  1434: jump @177\n      : @40 (gas: 9)\n  1437: a2 = u32 [0x200e0]\n  1442: u64 [s1 + 1496] = 0\n  1446: u64 [s1 + 1488] = 0\n  1450: u64 [s1 + 1480] = 0\n  1454: a0 = s1 + 0x5e0\n  1458: a1 = s1 + 0x5c0\n  1462: u64 [s1 + 0x118] = a2\n  1466: u64 [s1 + 0x5c0] = a2\n  1470: ra = 16, jump @602\n      : @41 [@dyn 8] (gas: 17)\n  1475: a4 = s1 + 0x500\n  1479: a3 = u64 [a4 + 0xf8]\n  1483: a2 = u64 [a4 + 0xf0]\n  1487: a1 = u64 [a4 + 0xe8]\n  1491: a0 = u64 [a4 + 0xe0]\n  1495: a4 = s1 + 0x100\n  1499: u64 [a4 + 0x10] = a3\n  1502: u64 [a4] = a1\n  1504: a3 = a3 | a1\n  1507: a1 = a0 | a2\n  1510: a1 = a1 | a3\n  1513: a1 = a1 >> 0x20\n  1516: u64 [a4 + 0x8] = a2\n  1519: a2 = a2 | a3\n  1522: a2 = a2 << 0x20\n  1525: a1 = a1 | a2\n  1528: jump @43 if a1 == 0\n      : @42 (gas: 1)\n  1531: jump @176\n      : @43 (gas: 3)\n  1534: u64 [s1 + 0xf8] = a0\n  1538: a1 = u64 [s1 + 0x118]\n  1542: ra = 18, jump @26\n      : @44 [@dyn 9] (gas: 5)\n  1547: i32 a0 = a0 + 0\n  1549: a1 = i32 [s1 + 0x118]\n  1553: a2 = 0\n  1555: ecalli 0 // 'call_data_copy'\n  1556: fallthrough\n      : @45 (gas: 2)\n  1557: a1 = u64 [s1 + 0x118]\n  1561: jump @47 if a1 >u 63\n      : @46 (gas: 1)\n  1565: jump @178\n      : @47 (gas: 3)\n  1568: a0 = s1 + 0x5a0\n  1572: a1 = u64 [s1 + 0xf8]\n  1576: ra = 20, jump @17\n      : @48 [@dyn 10] (gas: 8)\n  1581: a0 = u64 [s1 + 0x5b8]\n  1585: t0 = u64 [s1 + 0x5b0]\n  1589: a4 = u64 [s1 + 0x5a8]\n  1593: u64 [s1 + 0xf0] = a0\n  1597: a2 = t0 | a0\n  1600: a3 = a4 <u 0x1\n  1603: a3 = 0 if a2 != 0\n  1605: jump @50 if a3 != 0\n      : @49 (gas: 1)\n  1608: jump @179\n      : @50 (gas: 50)\n  1611: a3 = u64 [s1 + 0x5a0]\n  1615: t1 = u64 [s1 + 0xf8]\n  1619: t2 = u64 [s1 + 0x118]\n  1623: t2 = t2 + t1\n  1626: a1 = t2 <u t1\n  1629: t1 = t1 + a3\n  1632: u64 [s1 + 0x118] = t1\n  1636: a3 = t1 <u a3\n  1639: a2 = u64 [s1 + 0x100]\n  1643: a0 = a4 + a2\n  1646: a5 = a2\n  1648: t1 = a0 + a3\n  1651: a2 = t1 ^ a4\n  1654: a4 = t1 <u a4\n  1657: a4 = a3 if a2 == 0\n  1660: a2 = a5\n  1662: a5 = a5 + a1\n  1665: a2 = a5 <u a2\n  1668: a2 = a1 if a1 == 0\n  1671: a1 = u64 [s1 + 0x108]\n  1675: a3 = t0 + a1\n  1678: ra = a3 <u t0\n  1681: a0 = u64 [s1 + 0x110]\n  1685: t0 = u64 [s1 + 0xf0]\n  1689: t0 = t0 + a0\n  1692: ra = ra + t0\n  1695: t0 = a1 + a2\n  1698: a4 = a4 + a3\n  1701: a2 = a4 <u a3\n  1704: a3 = ra + a2\n  1707: a1 = t0 <u a1\n  1710: a1 = a1 + a0\n  1713: u64 [s1 + 0xf0] = t2\n  1717: u64 [s1 + 0x540] = t2\n  1721: u64 [s1 + 0xe8] = a5\n  1725: u64 [s1 + 0x548] = a5\n  1729: a0 = u64 [s1 + 0x118]\n  1733: a5 = s1 + 0x500\n  1737: u64 [a5 + 0x60] = a0\n  1740: u64 [s1 + 0x118] = t0\n  1744: u64 [s1 + 0x550] = t0\n  1748: u64 [s1 + 0xe0] = a1\n  1752: u64 [a5 + 0x58] = a1\n  1755: u64 [s1 + 0x568] = t1\n  1759: u64 [a5 + 0x70] = a4\n  1762: a0 = s1 + 0x580\n  1766: a1 = s1 + 0x560\n  1770: a2 = s1 + 0x540\n  1774: u64 [a5 + 0x78] = a3\n  1777: ra = 22, jump @613\n      : @51 [@dyn 11] (gas: 11)\n  1782: a2 = u64 [s1 + 0xf8]\n  1786: a4 = s1 + 0x100\n  1790: a0 = u64 [a4 + 0x8]\n  1793: a1 = u64 [a4 + 0x10]\n  1796: a0 = a0 | a1\n  1799: a1 = 0xffffffe0\n  1809: a1 = a2 <u a1\n  1812: a3 = u64 [a4]\n  1814: a1 = 0 if a3 != 0\n  1816: a1 = 0 if a0 != 0\n  1818: jump @53 if a1 != 0\n      : @52 (gas: 1)\n  1821: jump @176\n      : @53 (gas: 11)\n  1824: a0 = u64 [s1 + 0x598]\n  1828: u64 [s1 + 0xa0] = a0\n  1832: a0 = u64 [s1 + 0x590]\n  1836: u64 [s1 + 0x98] = a0\n  1840: a0 = u64 [s1 + 0x588]\n  1844: u64 [s1 + 0xa8] = a0\n  1848: a0 = u64 [s1 + 0x580]\n  1852: u64 [s1 + 0xb0] = a0\n  1856: i32 a1 = a2 + 0x20\n  1859: a0 = s1 + 0x520\n  1863: ra = 24, jump @17\n      : @54 [@dyn 12] (gas: 7)\n  1868: t0 = u64 [s1 + 0x538]\n  1872: a1 = u64 [s1 + 0x530]\n  1876: a2 = u64 [s1 + 0x528]\n  1880: a3 = a1 | t0\n  1883: a4 = a2 <u 0x1\n  1886: a4 = 0 if a3 != 0\n  1888: jump @56 if a4 != 0\n      : @55 (gas: 1)\n  1891: jump @180\n      : @56 (gas: 36)\n  1894: a3 = u64 [s1 + 0x520]\n  1898: a4 = u64 [s1 + 0xf8]\n  1902: a4 = a4 + a3\n  1905: a3 = a4 <u a3\n  1908: a5 = u64 [s1 + 0x100]\n  1912: a5 = a5 + a2\n  1915: a5 = a5 + a3\n  1918: a0 = a5 ^ a2\n  1921: a2 = a5 <u a2\n  1924: a2 = a3 if a0 == 0\n  1927: a0 = u64 [s1 + 0x108]\n  1931: a0 = a0 + a1\n  1934: a2 = a2 + a0\n  1937: a3 = a2 <u a0\n  1940: a0 = a0 <u a1\n  1943: a1 = u64 [s1 + 0x110]\n  1947: t0 = t0 + a1\n  1950: a0 = a0 + t0\n  1953: a3 = a3 + a0\n  1956: a0 = u64 [s1 + 0xf0]\n  1960: u64 [s1 + 0x4c0] = a0\n  1964: a0 = u64 [s1 + 0xe8]\n  1968: u64 [s1 + 0x4c8] = a0\n  1972: u64 [s1 + 0x4e0] = a4\n  1976: a0 = u64 [s1 + 0x118]\n  1980: a4 = s1 + 0x400\n  1984: u64 [a4 + 0xd0] = a0\n  1988: a0 = u64 [s1 + 0xe0]\n  1992: u64 [a4 + 0xd8] = a0\n  1996: u64 [a4 + 0xe8] = a5\n  2000: u64 [a4 + 0xf0] = a2\n  2004: a0 = s1 + 0x500\n  2008: a1 = s1 + 0x4e0\n  2012: a2 = s1 + 0x4c0\n  2016: u64 [a4 + 0xf8] = a3\n  2020: ra = 26, jump @613\n      : @57 [@dyn 13] (gas: 12)\n  2025: a2 = u64 [s1 + 0x98]\n  2029: a4 = u64 [s1 + 0xb0]\n  2033: a0 = a4 | a2\n  2036: a1 = u64 [s1 + 0xa0]\n  2040: a3 = u64 [s1 + 0xa8]\n  2044: a1 = a1 | a3\n  2047: a0 = a0 | a1\n  2050: a0 = a0 >> 0x20\n  2053: a1 = a1 | a2\n  2056: a1 = a1 << 0x20\n  2059: a0 = a0 | a1\n  2062: jump @59 if a0 == 0\n      : @58 (gas: 1)\n  2065: jump @176\n      : @59 (gas: 12)\n  2068: a1 = a4\n  2070: a2 = s1 + 0x500\n  2074: a0 = u64 [a2 + 0x18]\n  2077: u64 [s1 + 0x78] = a0\n  2080: a0 = u64 [a2 + 0x10]\n  2083: u64 [s1 + 0x70] = a0\n  2086: a0 = u64 [a2 + 0x8]\n  2089: u64 [s1 + 0x80] = a0\n  2093: a0 = u64 [a2]\n  2095: u64 [s1 + 0x88] = a0\n  2099: a0 = s1 + 0x4a0\n  2103: ra = 28, jump @17\n      : @60 [@dyn 14] (gas: 17)\n  2108: a0 = s1 + 0x400\n  2112: a3 = u64 [a0 + 0xb8]\n  2116: a1 = u64 [a0 + 0xb0]\n  2120: a2 = u64 [a0 + 0xa8]\n  2124: a0 = a3 >u 0\n  2126: a4 = a1 >u 0\n  2128: a4 = a0 if a3 != 0\n  2131: u64 [s1 + 0xd0] = a2\n  2135: a0 = a2 >u 0\n  2137: u64 [s1 + 0x60] = a1\n  2140: u64 [s1 + 0xc8] = a3\n  2144: a1 = a1 | a3\n  2147: u64 [s1 + 0x58] = a0\n  2150: u64 [s1 + 0x90] = a4\n  2154: u64 [s1 + 0xc0] = a1\n  2158: a0 = a4 if a1 != 0\n  2161: jump @62 if a0 == 0\n      : @61 (gas: 1)\n  2164: jump @181\n      : @62 (gas: 9)\n  2167: a0 = u64 [s1 + 0x4a0]\n  2171: u64 [s1 + 0x68] = a0\n  2174: u64 [s1 + 1624] = 0\n  2178: u64 [s1 + 1616] = 0\n  2182: u64 [s1 + 1608] = 0\n  2186: u64 [s1 + 1600] = 0x3\n  2191: a0 = s1 + 0x480\n  2195: a1 = s1 + 0x640\n  2199: ra = 30, jump @21\n      : @63 [@dyn 15] (gas: 6)\n  2204: a4 = s1 + 0x400\n  2208: a0 = u64 [a4 + 0x90]\n  2212: a1 = u64 [a4 + 0x88]\n  2216: a2 = u64 [a4 + 0x80]\n  2220: a3 = u64 [a4 + 0x98]\n  2224: t0 = 32, jump @735\n      : @64 [@dyn 16] (gas: 12)\n  2229: t0 = a2 <u 0x1\n  2232: ra = a1 & 0x7f\n  2235: t2 = a5 & a0\n  2238: a4 = a5 & t1\n  2241: ra = a1 if a2 != 0\n  2244: a1 = ra <u 0x20\n  2247: a5 = a5 & a3\n  2250: a2 = a1\n  2252: a2 = 0 if a4 != 0\n  2254: a0 = t2 | a5\n  2257: a2 = 0 if a0 != 0\n  2259: jump @66 if t0 == a2\n      : @65 (gas: 1)\n  2262: jump @187\n      : @66 (gas: 1)\n  2265: t0 = 34, jump @740\n      : @67 [@dyn 17] (gas: 4)\n  2270: a0 = u64 [s1 + 0x68]\n  2273: a0 = a0 <u 0x20\n  2276: u64 [s1 + 0xb8] = a0\n  2280: jump @76 if a3 == 0\n      : @68 (gas: 11)\n  2284: u64 [s1 + 0xf0] = a4\n  2288: u64 [s1 + 0xf8] = ra\n  2292: u64 [s1 + 0x100] = a5\n  2296: u64 [s1 + 0x110] = t2\n  2300: u64 [s1 + 1144] = 0\n  2304: u64 [s1 + 1136] = 0\n  2308: u64 [s1 + 1128] = 0\n  2312: a1 = s1 + 0x460\n  2316: u64 [s1 + 1120] = 0x3\n  2321: a0 = 0\n  2323: ra = 36, jump @19\n      : @69 [@dyn 18] (gas: 2)\n  2328: a1 = i32 [0x200e4]\n  2333: jump @71 if a1 >u 31\n      : @70 (gas: 2)\n  2337: u32 [0x200e4] = 0x20\n  2343: fallthrough\n      : @71 (gas: 87)\n  2344: a0 = sp + 0xffffffffffffffe0\n  2347: a2 = a0 & 0xffffffffffffffe0\n  2350: u64 [s1 + 0x108] = a2\n  2354: sp = a2\n  2356: a0 = 0x200f0\n  2361: i32 a0 = a0 + 0\n  2363: i32 a2 = a2 + 0\n  2365: a1 = 0x20\n  2368: ecalli 6 // 'hash_keccak_256'\n  2370: a0 = u64 [s1 + 0x68]\n  2373: a1 = a0 + 0x1f\n  2376: a0 = a1 <u a0\n  2379: a5 = u64 [s1 + 0xd0]\n  2383: a2 = a5 + a0\n  2386: a3 = a2 <u a5\n  2389: a3 = a0 if a0 == 0\n  2392: a4 = u64 [s1 + 0x60]\n  2395: a3 = a3 + a4\n  2398: u64 [s1 + 0xe8] = a3\n  2402: a3 = a3 << 0x3b\n  2405: a4 = a2 >> 0x5\n  2408: a4 = a4 | a3\n  2411: a0 = u64 [s1 + 0x108]\n  2415: t1 = u64 [a0 + 0x18]\n  2418: a2 = a2 << 0x3b\n  2421: a3 = u64 [a0 + 0x10]\n  2424: a1 = a1 >> 0x5\n  2427: a0 = a1 | a2\n  2430: t2 = reverse t1\n  2432: a2 = reverse a3\n  2434: a1 = u64 [s1 + 0xb8]\n  2438: a1 = 0 if a5 != 0\n  2440: a3 = u64 [s1 + 0xc0]\n  2444: a1 = 0 if a3 != 0\n  2446: a4 = 0 if a1 != 0\n  2448: a0 = 0 if a1 != 0\n  2450: t0 = t2 + a0\n  2453: a0 = t0 <u t2\n  2456: a5 = a2 + a0\n  2459: a4 = a4 + a5\n  2462: u64 [s1 + 0x118] = a4\n  2466: a5 = a4 ^ a2\n  2469: a3 = a4 <u a2\n  2472: a3 = a0 if a5 == 0\n  2475: u64 [s1 + 0xe0] = a3\n  2479: a0 = u64 [s1 + 0xf8]\n  2483: ra = a0 + 0x1f\n  2486: a4 = ra <u a0\n  2489: a3 = u64 [s1 + 0xf0]\n  2493: a0 = a3 + a4\n  2496: a5 = a0 <u a3\n  2499: a5 = a4 if a4 == 0\n  2502: t1 = u64 [s1 + 0x110]\n  2506: t1 = t1 + a5\n  2509: a4 = t1 << 0x3b\n  2512: a3 = a0 >> 0x5\n  2515: a3 = a3 | a4\n  2518: a0 = a0 << 0x3b\n  2521: a4 = ra >> 0x5\n  2524: a0 = a0 | a4\n  2527: a0 = a0 + t2\n  2530: u64 [s1 + 0xf8] = a0\n  2534: a0 = a0 <u t2\n  2537: t2 = t0\n  2539: a4 = a2 + a0\n  2542: a4 = a4 + a3\n  2545: a3 = a4 ^ a2\n  2548: u64 [s1 + 0xf0] = a4\n  2552: a2 = a4 <u a2\n  2555: a2 = a0 if a3 == 0\n  2558: a4 = u64 [s1 + 0xe8]\n  2562: a0 = u64 [s1 + 0x60]\n  2565: a0 = a4 <u a0\n  2568: a3 = u64 [s1 + 0xc8]\n  2572: a0 = a0 + a3\n  2575: a3 = a4 >> 0x5\n  2578: a4 = a0 << 0x3b\n  2581: a3 = a3 | a4\n  2584: a4 = u64 [s1 + 0x108]\n  2588: t0 = u64 [a4]\n  2590: a4 = u64 [a4 + 0x8]\n  2593: a0 = a0 >> 0x5\n  2596: a3 = 0 if a1 != 0\n  2598: a0 = 0 if a1 != 0\n  2600: a1 = reverse a4\n  2602: a4 = reverse t0\n  2604: t0 = 38, jump @756\n      : @72 [@dyn 19] (gas: 24)\n  2609: t0 = a0 + a3\n  2612: a0 = u64 [s1 + 0x110]\n  2616: a0 = t1 <u a0\n  2619: a3 = u64 [s1 + 0x100]\n  2623: a0 = a0 + a3\n  2626: a3 = t1 >> 0x5\n  2629: a5 = a0 << 0x3b\n  2632: a3 = a3 | a5\n  2635: a0 = a0 >> 0x5\n  2638: a0 = a0 + a4\n  2641: a4 = u64 [s1 + 0x118]\n  2645: a3 = a3 + a1\n  2648: a1 = a3 <u a1\n  2651: a0 = a0 + a1\n  2654: a2 = a2 + a3\n  2657: u64 [s1 + 0xe8] = a2\n  2661: a1 = a2 <u a3\n  2664: a0 = a0 + a1\n  2667: u64 [s1 + 0xe0] = a0\n  2671: a0 = sp + 0xffffffffffffffe0\n  2674: t1 = a0 & 0xffffffffffffffe0\n  2677: sp = t1\n  2679: u64 [s1 + 0xd8] = t1\n  2683: fallthrough\n      : @73 (gas: 20)\n  2684: a0 = u64 [s1 + 0xf8]\n  2688: a0 = t2 <u a0\n  2691: a2 = u64 [s1 + 0xf0]\n  2695: a1 = a4 ^ a2\n  2698: a2 = a4 <u a2\n  2701: a2 = a0 if a1 == 0\n  2704: a5 = u64 [s1 + 0xe8]\n  2708: a0 = ra <u a5\n  2711: a3 = u64 [s1 + 0xe0]\n  2715: a1 = t0 ^ a3\n  2718: a3 = t0 <u a3\n  2721: a3 = a0 if a1 == 0\n  2724: a0 = ra ^ a5\n  2727: a0 = a0 | a1\n  2730: a3 = a2 if a0 == 0\n  2733: u64 [t1] = t2\n  2735: u64 [t1 + 0x8] = a4\n  2738: u64 [t1 + 0x10] = ra\n  2741: u64 [t1 + 0x18] = t0\n  2744: jump @76 if a3 == 0\n      : @74 (gas: 11)\n  2747: u64 [s1 + 1656] = 0\n  2751: u64 [s1 + 1648] = 0\n  2755: u64 [s1 + 1640] = 0\n  2759: u64 [s1 + 1632] = 0\n  2763: a1 = s1 + 0x660\n  2767: a0 = t1\n  2769: u64 [s1 + 0x110] = t2\n  2773: u64 [s1 + 0x118] = a4\n  2777: u64 [s1 + 0x108] = t0\n  2781: u64 [s1 + 0x100] = ra\n  2785: ra = 40, jump @22\n      : @75 [@dyn 20] (gas: 15)\n  2790: t1 = u64 [s1 + 0xd8]\n  2794: t0 = u64 [s1 + 0x108]\n  2798: a4 = u64 [s1 + 0x118]\n  2802: t2 = u64 [s1 + 0x110]\n  2806: t2 = t2 + 0x1\n  2809: a0 = t2 <u 0x1\n  2812: a4 = a4 + a0\n  2815: a0 = t2 | a4\n  2818: a0 = a0 <u 0x1\n  2821: a1 = u64 [s1 + 0x100]\n  2825: a0 = a0 + a1\n  2828: a1 = a0 <u a1\n  2831: t0 = t0 + a1\n  2834: ra = a0\n  2836: jump @73\n      : @76 (gas: 23)\n  2839: a0 = u64 [s1 + 0xb8]\n  2843: a0 = a0 ^ 0x1\n  2846: a5 = u64 [s1 + 0xd0]\n  2850: a1 = u64 [s1 + 0x58]\n  2853: a0 = a1 if a5 != 0\n  2856: a1 = u64 [s1 + 0x90]\n  2860: a2 = u64 [s1 + 0xc0]\n  2864: a0 = a1 if a2 != 0\n  2867: ra = u64 [s1 + 0xc8]\n  2871: a4 = a5 | ra\n  2874: a1 = u64 [s1 + 0x60]\n  2877: t2 = a1 >> 0x3f\n  2880: ra = ra << 0x1\n  2883: a2 = a5 >> 0x3f\n  2886: u64 [s1 + 0x58] = a2\n  2889: a2 = a1 << 0x1\n  2892: u64 [s1 + 0x48] = a2\n  2895: a3 = u64 [s1 + 0x68]\n  2898: t0 = a3 >> 0x3f\n  2901: a2 = a5 << 0x1\n  2904: u64 [s1 + 0x50] = a2\n  2907: a2 = a3 << 0x1\n  2910: jump @87 if a0 == 0\n      : @77 (gas: 14)\n  2914: u64 [s1 + 0x20] = a4\n  2917: u64 [s1 + 0x30] = t0\n  2920: u64 [s1 + 0x38] = ra\n  2923: u64 [s1 + 0x28] = t2\n  2926: u64 [s1 + 0x40] = a2\n  2929: a3 = a3 & 0xffffffffffffffe0\n  2932: u64 [s1 + 0x90] = a3\n  2936: u64 [s1 + 1080] = 0\n  2940: u64 [s1 + 1072] = 0\n  2944: u64 [s1 + 1064] = 0\n  2948: a1 = s1 + 0x420\n  2952: u64 [s1 + 1056] = 0x3\n  2957: a0 = 0\n  2959: ra = 42, jump @19\n      : @78 [@dyn 21] (gas: 7)\n  2964: a0 = sp + 0xffffffffffffffe0\n  2967: a0 = a0 & 0xffffffffffffffe0\n  2970: u64 [s1 + 0xf0] = a0\n  2974: sp = a0\n  2976: a1 = 0x20\n  2979: a0 = 0\n  2981: ra = 44, jump @26\n      : @79 [@dyn 22] (gas: 1)\n  2986: t0 = 46, jump @755\n      : @80 [@dyn 23] (gas: 5)\n  2991: ecalli 6 // 'hash_keccak_256'\n  2993: u64 [s1 + 280] = 0x20\n  2998: a5 = 0\n  3000: u64 [s1 + 272] = 0\n  3004: t0 = 48, jump @743\n      : @81 [@dyn 24] (gas: 15)\n  3009: t0 = u64 [a3]\n  3011: t1 = reverse a0\n  3013: a1 = reverse a1\n  3015: a3 = reverse a2\n  3017: a2 = reverse t0\n  3019: t0 = a2\n  3021: a0 = u64 [s1 + 0xf0]\n  3025: u64 [a0 + 0x18] = a2\n  3028: u64 [s1 + 0xd0] = a3\n  3032: u64 [a0 + 0x10] = a3\n  3035: u64 [s1 + 0xe8] = a1\n  3039: u64 [a0 + 0x8] = a1\n  3042: a3 = t1\n  3044: u64 [a0] = t1\n  3046: fallthrough\n      : @82 (gas: 25)\n  3047: t2 = t0\n  3049: t1 = a3\n  3051: a0 = u64 [s1 + 0x90]\n  3055: u64 [s1 + 0xe0] = a4\n  3059: a0 = a4 <u a0\n  3062: a4 = a0 ^ 0x1\n  3065: u64 [s1 + 0xd8] = ra\n  3069: a4 = 0x1 if ra != 0\n  3072: a0 = u64 [s1 + 0x100]\n  3076: a2 = u64 [s1 + 0xf8]\n  3080: a0 = a0 | a2\n  3083: a4 = 0x1 if a0 != 0\n  3086: a1 = u64 [s1 + 0xb0]\n  3090: a0 = u64 [s1 + 0x118]\n  3094: a1 = a1 + a0\n  3097: a3 = u64 [s1 + 0xa8]\n  3101: t0 = a5\n  3103: a3 = a3 + a5\n  3106: a2 = u64 [s1 + 0x98]\n  3110: a0 = u64 [s1 + 0x110]\n  3114: a2 = a2 + a0\n  3117: a0 = u64 [s1 + 0xa0]\n  3121: a5 = u64 [s1 + 0x108]\n  3125: a0 = a0 + a5\n  3128: jump @89 if a4 != 0\n      : @83 (gas: 23)\n  3132: a4 = u64 [s1 + 0x118]\n  3136: a4 = a1 <u a4\n  3139: ra = a3 + a4\n  3142: a3 = t0\n  3144: t0 = ra ^ t0\n  3147: a5 = ra <u a3\n  3150: a5 = a4 if t0 == 0\n  3153: a5 = a5 + a2\n  3156: t0 = a5 <u a2\n  3159: a4 = u64 [s1 + 0x110]\n  3163: a2 = a2 <u a4\n  3166: a0 = a0 + a2\n  3169: a0 = a0 + t0\n  3172: a2 = a1 | a5\n  3175: a0 = ra | a0\n  3178: a2 = a2 | a0\n  3181: a2 = a2 >> 0x20\n  3184: a0 = a0 | a5\n  3187: a0 = a0 << 0x20\n  3190: a0 = a0 | a2\n  3193: u64 [s1 + 0xc8] = t1\n  3197: u64 [s1 + 0xc0] = t2\n  3201: jump @176 if a0 != 0\n      : @84 (gas: 3)\n  3205: a0 = s1 + 0x1a0\n  3209: u64 [s1 + 0xb8] = a3\n  3213: ra = 50, jump @17\n      : @85 [@dyn 25] (gas: 12)\n  3218: a0 = u64 [s1 + 0x1b8]\n  3222: a1 = u64 [s1 + 0x1b0]\n  3226: a2 = u64 [s1 + 0x1a8]\n  3230: a3 = u64 [s1 + 0x1a0]\n  3234: a4 = s1 + 0x600\n  3238: u64 [a4 + 0x98] = a0\n  3242: u64 [a4 + 0x90] = a1\n  3246: u64 [a4 + 0x88] = a2\n  3250: u64 [a4 + 0x80] = a3\n  3254: a1 = s1 + 0x680\n  3258: a0 = u64 [s1 + 0xf0]\n  3262: ra = 52, jump @22\n      : @86 [@dyn 26] (gas: 57)\n  3267: ra = u64 [s1 + 0xc8]\n  3271: ra = ra + 0x1\n  3274: a0 = ra <u 0x1\n  3277: t0 = u64 [s1 + 0xe8]\n  3281: t0 = t0 + a0\n  3284: a0 = ra | t0\n  3287: a0 = a0 <u 0x1\n  3290: a1 = u64 [s1 + 0xd0]\n  3294: t1 = a1 + a0\n  3297: a1 = t1 <u a1\n  3300: a0 = u64 [s1 + 0xc0]\n  3304: a0 = a0 + a1\n  3307: a1 = u64 [s1 + 0x118]\n  3311: a2 = a1 + 0x20\n  3314: u64 [s1 + 0xc8] = a2\n  3318: a3 = a2 <u a1\n  3321: a1 = u64 [s1 + 0xb8]\n  3325: a2 = a1 + a3\n  3328: u64 [s1 + 0xc0] = a2\n  3332: a4 = a2 <u a1\n  3335: a4 = a3 if a3 == 0\n  3338: a1 = u64 [s1 + 0x110]\n  3342: t2 = a1 + a4\n  3345: a4 = t2 <u a1\n  3348: a1 = u64 [s1 + 0x108]\n  3352: a1 = a1 + a4\n  3355: u64 [s1 + 0x108] = a1\n  3359: a1 = u64 [s1 + 0xe0]\n  3363: a4 = a1 + 0x20\n  3366: a5 = a4 <u a1\n  3369: a2 = u64 [s1 + 0xd8]\n  3373: a1 = a2 + a5\n  3376: a2 = a1 <u a2\n  3379: a2 = a5 if a5 == 0\n  3382: a3 = u64 [s1 + 0xf8]\n  3386: a2 = a2 + a3\n  3389: a5 = a2 <u a3\n  3392: a3 = u64 [s1 + 0x100]\n  3396: a3 = a3 + a5\n  3399: u64 [s1 + 0x100] = a3\n  3403: a3 = t0\n  3405: u64 [s1 + 0xe8] = a3\n  3409: a5 = u64 [s1 + 0xf0]\n  3413: u64 [a5 + 0x8] = a3\n  3416: a3 = ra\n  3418: u64 [a5] = ra\n  3420: u64 [a5 + 0x10] = t1\n  3423: t0 = a0\n  3425: u64 [a5 + 0x18] = a0\n  3428: u64 [s1 + 0xd0] = t1\n  3432: a0 = u64 [s1 + 0xc8]\n  3436: u64 [s1 + 0x118] = a0\n  3440: a5 = u64 [s1 + 0xc0]\n  3444: u64 [s1 + 0x110] = t2\n  3448: ra = a1\n  3450: u64 [s1 + 0xf8] = a2\n  3454: jump @82\n      : @87 (gas: 7)\n  3457: a0 = a3 | a1\n  3460: a0 = a0 | a4\n  3463: a4 = u64 [s1 + 0xb0]\n  3467: t1 = u64 [s1 + 0xa8]\n  3471: a1 = u64 [s1 + 0xa0]\n  3475: a5 = u64 [s1 + 0x98]\n  3479: jump @102 if a0 != 0\n      : @88 (gas: 6)\n  3483: u64 [s1 + 0x40] = a2\n  3486: u64 [s1 + 256] = 0\n  3490: u64 [s1 + 248] = 0\n  3494: u64 [s1 + 264] = 0\n  3498: u64 [s1 + 272] = 0\n  3502: jump @105\n      : @89 (gas: 11)\n  3505: ra = t0\n  3507: t1 = u64 [s1 + 0x68]\n  3510: a4 = u64 [s1 + 0x90]\n  3514: a4 = a4 ^ t1\n  3517: a5 = u64 [s1 + 0x60]\n  3520: a4 = a4 | a5\n  3523: a5 = u64 [s1 + 0x20]\n  3526: a4 = a4 | a5\n  3529: a5 = u64 [s1 + 0x38]\n  3532: t0 = u64 [s1 + 0x30]\n  3535: jump @101 if a4 == 0\n      : @90 (gas: 13)\n  3539: a4 = u64 [s1 + 0x118]\n  3543: a4 = a1 <u a4\n  3546: a3 = a3 + a4\n  3549: t0 = a3 ^ ra\n  3552: a5 = a3 <u ra\n  3555: a5 = a4 if t0 == 0\n  3558: a5 = a5 + a2\n  3561: t0 = a5 <u a2\n  3564: a4 = u64 [s1 + 0x110]\n  3568: a2 = a2 <u a4\n  3571: a0 = a0 + a2\n  3574: a0 = a0 + t0\n  3577: t0 = 54, jump @742\n      : @91 [@dyn 27] (gas: 1)\n  3582: jump @176 if a0 != 0\n      : @92 (gas: 2)\n  3586: a0 = s1 + 0x400\n  3590: ra = 56, jump @17\n      : @93 [@dyn 28] (gas: 11)\n  3595: a1 = s1 + 0x400\n  3599: a0 = u64 [a1 + 0x18]\n  3602: u64 [s1 + 0x110] = a0\n  3606: a0 = u64 [a1 + 0x10]\n  3609: u64 [s1 + 0x108] = a0\n  3613: a0 = u64 [a1 + 0x8]\n  3616: u64 [s1 + 0x100] = a0\n  3620: a0 = u64 [a1]\n  3622: u64 [s1 + 0xf8] = a0\n  3626: a0 = u64 [s1 + 0x68]\n  3629: t0 = 58, jump @746\n      : @94 [@dyn 29] (gas: 1)\n  3634: ra = 60, jump @764\n      : @95 [@dyn 30] (gas: 6)\n  3639: u64 [s1 + 0xe8] = a0\n  3643: u64 [s1 + 0xd0] = a1\n  3647: a0 = 0xffffffffffffffff\n  3650: a1 = 0xffffffffffffffff\n  3653: a2 = u64 [s1 + 0x118]\n  3657: ra = 62, jump @759\n      : @96 [@dyn 31] (gas: 1)\n  3662: t0 = 64, jump @747\n      : @97 [@dyn 32] (gas: 1)\n  3667: ra = 66, jump @759\n      : @98 [@dyn 33] (gas: 1)\n  3672: t0 = 68, jump @733\n      : @99 [@dyn 34] (gas: 8)\n  3677: a4 = s1 + 0x600\n  3681: u64 [a4 + 0xb8] = a3\n  3685: u64 [a4 + 0xb0] = a2\n  3689: u64 [a4 + 0xa8] = a1\n  3693: u64 [a4 + 0xa0] = a0\n  3697: a1 = s1 + 0x6a0\n  3701: a0 = u64 [s1 + 0xf0]\n  3705: ra = 70, jump @22\n      : @100 [@dyn 35] (gas: 3)\n  3710: t0 = u64 [s1 + 0x30]\n  3713: a5 = u64 [s1 + 0x38]\n  3716: fallthrough\n      : @101 (gas: 22)\n  3717: a0 = u64 [s1 + 0x28]\n  3720: a0 = a0 | a5\n  3723: a1 = u64 [s1 + 0x58]\n  3726: a2 = u64 [s1 + 0x48]\n  3729: a1 = a1 | a2\n  3732: a2 = u64 [s1 + 0x50]\n  3735: a2 = a2 | t0\n  3738: a3 = u64 [s1 + 0x40]\n  3741: a3 = a3 + 0x1\n  3744: u64 [s1 + 1752] = 0\n  3748: u64 [s1 + 1744] = 0\n  3752: u64 [s1 + 1736] = 0\n  3756: a5 = s1 + 0x600\n  3760: u64 [a5 + 192] = 0x3\n  3765: u64 [a5 + 0xe0] = a3\n  3769: u64 [a5 + 0xe8] = a2\n  3773: u64 [a5 + 0xf0] = a1\n  3777: u64 [a5 + 0xf8] = a0\n  3781: a0 = s1 + 0x6c0\n  3785: a1 = s1 + 0x6e0\n  3789: ra = 0x56\n  3792: jump @22\n      : @102 (gas: 6)\n  3795: a0 = a5 | a1\n  3798: a1 = 0xffffffe0\n  3808: a1 = a4 <u a1\n  3811: a1 = 0 if t1 != 0\n  3813: a1 = 0 if a0 != 0\n  3815: jump @176 if a1 == 0\n      : @103 (gas: 7)\n  3819: u64 [s1 + 0x40] = a2\n  3822: i32 a1 = a4 + 0x20\n  3825: a0 = s1 + 0x440\n  3829: u64 [s1 + 0x28] = t2\n  3832: u64 [s1 + 0x38] = ra\n  3835: u64 [s1 + 0x30] = t0\n  3838: ra = 72, jump @17\n      : @104 [@dyn 36] (gas: 15)\n  3843: t0 = u64 [s1 + 0x30]\n  3846: ra = u64 [s1 + 0x38]\n  3849: t2 = u64 [s1 + 0x28]\n  3852: a3 = u64 [s1 + 0x68]\n  3855: a1 = s1 + 0x400\n  3859: a0 = u64 [a1 + 0x58]\n  3862: a2 = s1 + 0x100\n  3866: u64 [a2 + 0x10] = a0\n  3869: a0 = u64 [a1 + 0x50]\n  3872: u64 [a2 + 0x8] = a0\n  3875: a0 = u64 [a1 + 0x48]\n  3878: u64 [s1 + 0xf8] = a0\n  3882: a0 = u64 [a1 + 0x40]\n  3885: u64 [a2] = a0\n  3887: fallthrough\n      : @105 (gas: 10)\n  3888: a0 = u64 [s1 + 0x58]\n  3891: a1 = u64 [s1 + 0x48]\n  3894: a0 = a0 | a1\n  3897: u64 [s1 + 0xf0] = a0\n  3901: a0 = ra | t2\n  3904: u64 [s1 + 0xe8] = a0\n  3908: a0 = u64 [s1 + 0x50]\n  3911: a0 = a0 | t0\n  3914: u64 [s1 + 0xe0] = a0\n  3918: t0 = 74, jump @758\n      : @106 [@dyn 37] (gas: 1)\n  3923: ra = 76, jump @764\n      : @107 [@dyn 38] (gas: 7)\n  3928: u64 [s1 + 0xc0] = a0\n  3932: u64 [s1 + 0xd8] = a1\n  3936: a0 = u64 [s1 + 0x68]\n  3939: i32 a2 = a0 << 0x3\n  3942: a0 = 0xffffffffffffffff\n  3945: a1 = 0xffffffffffffffff\n  3948: ra = 78, jump @759\n      : @108 [@dyn 39] (gas: 10)\n  3953: u64 [s1 + 0xd0] = a0\n  3957: u64 [s1 + 0xc8] = a1\n  3961: a1 = u64 [s1 + 0xc0]\n  3965: a0 = a0 | a1\n  3968: u64 [s1 + 0xc0] = a0\n  3972: a0 = u64 [s1 + 0x118]\n  3976: i32 a2 = a0 + 0xffffffffffffff80\n  3979: a0 = 0xffffffffffffffff\n  3982: a1 = 0xffffffffffffffff\n  3985: ra = 80, jump @759\n      : @109 [@dyn 40] (gas: 7)\n  3990: a4 = u64 [s1 + 0x118]\n  3994: a2 = a4 <u 0x80\n  3998: a3 = u64 [s1 + 0xc0]\n  4002: a0 = a3 if a2 != 0\n  4005: a5 = u64 [s1 + 0xc8]\n  4009: a3 = u64 [s1 + 0xd8]\n  4013: t0 = 82, jump @748\n      : @110 [@dyn 41] (gas: 2)\n  4018: a4 = u64 [s1 + 0xd0]\n  4022: t0 = 84, jump @737\n      : @111 [@dyn 42] (gas: 20)\n  4027: a4 = u64 [s1 + 0x40]\n  4030: a0 = a0 | a4\n  4033: a4 = u64 [s1 + 0xe0]\n  4037: a1 = a1 | a4\n  4040: a4 = u64 [s1 + 0xe8]\n  4044: a3 = a3 | a4\n  4047: a4 = u64 [s1 + 0xf0]\n  4051: a2 = a2 | a4\n  4054: a5 = s1 + 0x700\n  4058: u64 [a5 + 0] = 0x3\n  4061: u64 [a5 + 0x30] = a2\n  4064: u64 [a5 + 0x38] = a3\n  4067: u64 [a5 + 0x28] = a1\n  4070: u64 [a5 + 0x20] = a0\n  4073: u64 [s1 + 1816] = 0\n  4077: u64 [s1 + 1808] = 0\n  4081: u64 [s1 + 1800] = 0\n  4085: a0 = s1 + 0x700\n  4089: a1 = s1 + 0x720\n  4093: ra = 86, jump @22\n      : @112 [@dyn 43] (gas: 12)\n  4098: a1 = u64 [s1 + 0x88]\n  4102: a4 = u64 [s1 + 0x70]\n  4105: a0 = a1 | a4\n  4108: a2 = u64 [s1 + 0x80]\n  4112: a3 = u64 [s1 + 0x78]\n  4115: a2 = a2 | a3\n  4118: a0 = a0 | a2\n  4121: a0 = a0 >> 0x20\n  4124: a2 = a2 | a4\n  4127: a2 = a2 << 0x20\n  4130: a0 = a0 | a2\n  4133: jump @176 if a0 != 0\n      : @113 (gas: 2)\n  4137: a0 = s1 + 0x3e0\n  4141: ra = 88, jump @17\n      : @114 [@dyn 44] (gas: 17)\n  4146: a0 = s1 + 0x300\n  4150: a3 = u64 [a0 + 0xf8]\n  4154: a2 = u64 [a0 + 0xf0]\n  4158: a1 = u64 [a0 + 0xe8]\n  4162: a0 = a3 >u 0\n  4164: a4 = a2 >u 0\n  4166: a4 = a0 if a3 != 0\n  4169: u64 [s1 + 0xa0] = a1\n  4173: a0 = a1 >u 0\n  4175: u64 [s1 + 0x98] = a2\n  4179: u64 [s1 + 0x90] = a3\n  4183: a2 = a2 | a3\n  4186: u64 [s1 + 0xb8] = a0\n  4190: u64 [s1 + 0xc0] = a4\n  4194: u64 [s1 + 0xd0] = a2\n  4198: a0 = a4 if a2 != 0\n  4201: jump @193 if a0 != 0\n      : @115 (gas: 9)\n  4205: a0 = u64 [s1 + 0x3e0]\n  4209: u64 [s1 + 0xa8] = a0\n  4213: u64 [s1 + 1880] = 0\n  4217: u64 [s1 + 1872] = 0\n  4221: u64 [s1 + 1864] = 0\n  4225: u64 [s1 + 1856] = 0x4\n  4230: a0 = s1 + 0x3c0\n  4234: a1 = s1 + 0x740\n  4238: ra = 90, jump @21\n      : @116 [@dyn 45] (gas: 6)\n  4243: a4 = s1 + 0x300\n  4247: a0 = u64 [a4 + 0xd0]\n  4251: a1 = u64 [a4 + 0xc8]\n  4255: a2 = u64 [a4 + 0xc0]\n  4259: a3 = u64 [a4 + 0xd8]\n  4263: t0 = 92, jump @735\n      : @117 [@dyn 46] (gas: 12)\n  4268: t0 = a2 <u 0x1\n  4271: ra = a1 & 0x7f\n  4274: t2 = a5 & a0\n  4277: a4 = a5 & t1\n  4280: ra = a1 if a2 != 0\n  4283: a1 = ra <u 0x20\n  4286: a5 = a5 & a3\n  4289: a2 = a1\n  4291: a2 = 0 if a4 != 0\n  4293: a0 = t2 | a5\n  4296: a2 = 0 if a0 != 0\n  4298: jump @199 if t0 != a2\n      : @118 (gas: 1)\n  4302: t0 = 94, jump @740\n      : @119 [@dyn 47] (gas: 4)\n  4307: a0 = u64 [s1 + 0xa8]\n  4311: a0 = a0 <u 0x20\n  4314: u64 [s1 + 0xc8] = a0\n  4318: jump @128 if a3 == 0\n      : @120 (gas: 11)\n  4322: u64 [s1 + 0xf0] = a4\n  4326: u64 [s1 + 0xf8] = ra\n  4330: u64 [s1 + 0x100] = a5\n  4334: u64 [s1 + 0x110] = t2\n  4338: u64 [s1 + 952] = 0\n  4342: u64 [s1 + 944] = 0\n  4346: u64 [s1 + 936] = 0\n  4350: a1 = s1 + 0x3a0\n  4354: u64 [s1 + 928] = 0x4\n  4359: a0 = 0\n  4361: ra = 96, jump @19\n      : @121 [@dyn 48] (gas: 2)\n  4366: a1 = i32 [0x200e4]\n  4371: jump @123 if a1 >u 31\n      : @122 (gas: 2)\n  4375: u32 [0x200e4] = 0x20\n  4381: fallthrough\n      : @123 (gas: 87)\n  4382: a0 = sp + 0xffffffffffffffe0\n  4385: a2 = a0 & 0xffffffffffffffe0\n  4388: u64 [s1 + 0x108] = a2\n  4392: sp = a2\n  4394: a0 = 0x200f0\n  4399: i32 a0 = a0 + 0\n  4401: i32 a2 = a2 + 0\n  4403: a1 = 0x20\n  4406: ecalli 6 // 'hash_keccak_256'\n  4408: a0 = u64 [s1 + 0xa8]\n  4412: a1 = a0 + 0x1f\n  4415: a0 = a1 <u a0\n  4418: a5 = u64 [s1 + 0xa0]\n  4422: a2 = a5 + a0\n  4425: a3 = a2 <u a5\n  4428: a3 = a0 if a0 == 0\n  4431: a4 = u64 [s1 + 0x98]\n  4435: a3 = a3 + a4\n  4438: u64 [s1 + 0xe8] = a3\n  4442: a3 = a3 << 0x3b\n  4445: a4 = a2 >> 0x5\n  4448: a4 = a4 | a3\n  4451: a0 = u64 [s1 + 0x108]\n  4455: t0 = u64 [a0 + 0x18]\n  4458: a2 = a2 << 0x3b\n  4461: a0 = u64 [a0 + 0x10]\n  4464: a1 = a1 >> 0x5\n  4467: a2 = a2 | a1\n  4470: t2 = reverse t0\n  4472: a0 = reverse a0\n  4474: a1 = u64 [s1 + 0xc8]\n  4478: a1 = 0 if a5 != 0\n  4480: a3 = u64 [s1 + 0xd0]\n  4484: a1 = 0 if a3 != 0\n  4486: a4 = 0 if a1 != 0\n  4488: a2 = 0 if a1 != 0\n  4490: t0 = t2 + a2\n  4493: a2 = t0 <u t2\n  4496: a5 = a0 + a2\n  4499: a4 = a4 + a5\n  4502: u64 [s1 + 0x118] = a4\n  4506: a5 = a4 ^ a0\n  4509: a3 = a4 <u a0\n  4512: a3 = a2 if a5 == 0\n  4515: u64 [s1 + 0xe0] = a3\n  4519: a2 = u64 [s1 + 0xf8]\n  4523: ra = a2 + 0x1f\n  4526: a4 = ra <u a2\n  4529: a3 = u64 [s1 + 0xf0]\n  4533: a2 = a3 + a4\n  4536: a5 = a2 <u a3\n  4539: a5 = a4 if a4 == 0\n  4542: t1 = u64 [s1 + 0x110]\n  4546: t1 = t1 + a5\n  4549: a4 = t1 << 0x3b\n  4552: a3 = a2 >> 0x5\n  4555: a3 = a3 | a4\n  4558: a2 = a2 << 0x3b\n  4561: a4 = ra >> 0x5\n  4564: a2 = a2 | a4\n  4567: a2 = a2 + t2\n  4570: u64 [s1 + 0xf8] = a2\n  4574: a4 = a2 <u t2\n  4577: t2 = t0\n  4579: a2 = a0 + a4\n  4582: a2 = a2 + a3\n  4585: a3 = a2 ^ a0\n  4588: u64 [s1 + 0xf0] = a2\n  4592: a2 = a2 <u a0\n  4595: a2 = a4 if a3 == 0\n  4598: a4 = u64 [s1 + 0xe8]\n  4602: a0 = u64 [s1 + 0x98]\n  4606: a0 = a4 <u a0\n  4609: a3 = u64 [s1 + 0x90]\n  4613: a0 = a0 + a3\n  4616: a3 = a4 >> 0x5\n  4619: a4 = a0 << 0x3b\n  4622: a3 = a3 | a4\n  4625: a4 = u64 [s1 + 0x108]\n  4629: t0 = u64 [a4]\n  4631: a4 = u64 [a4 + 0x8]\n  4634: a0 = a0 >> 0x5\n  4637: a3 = 0 if a1 != 0\n  4639: a0 = 0 if a1 != 0\n  4641: a1 = reverse a4\n  4643: a4 = reverse t0\n  4645: t0 = 98, jump @756\n      : @124 [@dyn 49] (gas: 24)\n  4650: t0 = a0 + a3\n  4653: a0 = u64 [s1 + 0x110]\n  4657: a0 = t1 <u a0\n  4660: a3 = u64 [s1 + 0x100]\n  4664: a0 = a0 + a3\n  4667: a3 = t1 >> 0x5\n  4670: a5 = a0 << 0x3b\n  4673: a3 = a3 | a5\n  4676: a0 = a0 >> 0x5\n  4679: a0 = a0 + a4\n  4682: a4 = u64 [s1 + 0x118]\n  4686: a3 = a3 + a1\n  4689: a1 = a3 <u a1\n  4692: a0 = a0 + a1\n  4695: a2 = a2 + a3\n  4698: u64 [s1 + 0xe8] = a2\n  4702: a1 = a2 <u a3\n  4705: a0 = a0 + a1\n  4708: u64 [s1 + 0xe0] = a0\n  4712: a0 = sp + 0xffffffffffffffe0\n  4715: t1 = a0 & 0xffffffffffffffe0\n  4718: sp = t1\n  4720: u64 [s1 + 0xd8] = t1\n  4724: fallthrough\n      : @125 (gas: 20)\n  4725: a0 = u64 [s1 + 0xf8]\n  4729: a0 = t2 <u a0\n  4732: a2 = u64 [s1 + 0xf0]\n  4736: a1 = a4 ^ a2\n  4739: a2 = a4 <u a2\n  4742: a2 = a0 if a1 == 0\n  4745: a5 = u64 [s1 + 0xe8]\n  4749: a0 = ra <u a5\n  4752: a3 = u64 [s1 + 0xe0]\n  4756: a1 = t0 ^ a3\n  4759: a3 = t0 <u a3\n  4762: a3 = a0 if a1 == 0\n  4765: a0 = ra ^ a5\n  4768: a0 = a0 | a1\n  4771: a3 = a2 if a0 == 0\n  4774: u64 [t1] = t2\n  4776: u64 [t1 + 0x8] = a4\n  4779: u64 [t1 + 0x10] = ra\n  4782: u64 [t1 + 0x18] = t0\n  4785: jump @128 if a3 == 0\n      : @126 (gas: 11)\n  4788: u64 [s1 + 1912] = 0\n  4792: u64 [s1 + 1904] = 0\n  4796: u64 [s1 + 1896] = 0\n  4800: u64 [s1 + 1888] = 0\n  4804: a1 = s1 + 0x760\n  4808: a0 = t1\n  4810: u64 [s1 + 0x110] = t2\n  4814: u64 [s1 + 0x118] = a4\n  4818: u64 [s1 + 0x108] = t0\n  4822: u64 [s1 + 0x100] = ra\n  4826: ra = 100, jump @22\n      : @127 [@dyn 50] (gas: 15)\n  4831: t1 = u64 [s1 + 0xd8]\n  4835: t0 = u64 [s1 + 0x108]\n  4839: a4 = u64 [s1 + 0x118]\n  4843: t2 = u64 [s1 + 0x110]\n  4847: t2 = t2 + 0x1\n  4850: a0 = t2 <u 0x1\n  4853: a4 = a4 + a0\n  4856: a0 = t2 | a4\n  4859: a0 = a0 <u 0x1\n  4862: a1 = u64 [s1 + 0x100]\n  4866: a0 = a0 + a1\n  4869: a1 = a0 <u a1\n  4872: t0 = t0 + a1\n  4875: ra = a0\n  4877: jump @125\n      : @128 (gas: 9)\n  4880: a0 = u64 [s1 + 0xc8]\n  4884: a0 = a0 ^ 0x1\n  4887: a4 = u64 [s1 + 0xa0]\n  4891: a1 = u64 [s1 + 0xb8]\n  4895: a0 = a1 if a4 != 0\n  4898: a1 = u64 [s1 + 0xc0]\n  4902: a2 = u64 [s1 + 0xd0]\n  4906: a0 = a1 if a2 != 0\n  4909: jump @140 if a0 == 0\n      : @129 (gas: 10)\n  4913: a0 = u64 [s1 + 0xa8]\n  4917: a0 = a0 & 0xffffffffffffffe0\n  4920: u64 [s1 + 0xb0] = a0\n  4924: u64 [s1 + 888] = 0\n  4928: u64 [s1 + 880] = 0\n  4932: u64 [s1 + 872] = 0\n  4936: a1 = s1 + 0x360\n  4940: u64 [s1 + 864] = 0x4\n  4945: a0 = 0\n  4947: ra = 102, jump @19\n      : @130 [@dyn 51] (gas: 7)\n  4952: a0 = sp + 0xffffffffffffffe0\n  4955: a0 = a0 & 0xffffffffffffffe0\n  4958: u64 [s1 + 0xf0] = a0\n  4962: sp = a0\n  4964: a1 = 0x20\n  4967: a0 = 0\n  4969: ra = 104, jump @26\n      : @131 [@dyn 52] (gas: 1)\n  4974: t0 = 106, jump @755\n      : @132 [@dyn 53] (gas: 5)\n  4979: ecalli 6 // 'hash_keccak_256'\n  4981: u64 [s1 + 272] = 0x20\n  4986: a5 = 0\n  4988: u64 [s1 + 280] = 0\n  4992: t0 = 108, jump @743\n      : @133 [@dyn 54] (gas: 15)\n  4997: t0 = u64 [a3]\n  4999: t1 = reverse a0\n  5001: a1 = reverse a1\n  5003: a3 = reverse a2\n  5005: a2 = reverse t0\n  5007: t0 = a2\n  5009: a0 = u64 [s1 + 0xf0]\n  5013: u64 [a0 + 0x18] = a2\n  5016: u64 [s1 + 0xc8] = a3\n  5020: u64 [a0 + 0x10] = a3\n  5023: u64 [s1 + 0xe0] = a1\n  5027: u64 [a0 + 0x8] = a1\n  5030: a3 = t1\n  5032: u64 [a0] = t1\n  5034: fallthrough\n      : @134 (gas: 26)\n  5035: t1 = t0\n  5037: t2 = a3\n  5039: a0 = u64 [s1 + 0xb0]\n  5043: u64 [s1 + 0xd8] = a4\n  5047: a0 = a4 <u a0\n  5050: a4 = a0 ^ 0x1\n  5053: u64 [s1 + 0xd0] = ra\n  5057: a4 = 0x1 if ra != 0\n  5060: a0 = u64 [s1 + 0x100]\n  5064: a2 = u64 [s1 + 0xf8]\n  5068: a0 = a0 | a2\n  5071: a4 = 0x1 if a0 != 0\n  5074: a1 = u64 [s1 + 0x88]\n  5078: ra = u64 [s1 + 0x110]\n  5082: a1 = a1 + ra\n  5085: a3 = u64 [s1 + 0x80]\n  5089: t0 = a5\n  5091: a3 = a3 + a5\n  5094: a2 = u64 [s1 + 0x70]\n  5097: a0 = u64 [s1 + 0x118]\n  5101: a2 = a2 + a0\n  5104: a0 = u64 [s1 + 0x78]\n  5107: a5 = u64 [s1 + 0x108]\n  5111: a0 = a0 + a5\n  5114: u64 [s1 + 0xe8] = t0\n  5118: jump @142 if a4 != 0\n      : @135 (gas: 13)\n  5122: a4 = a1 <u ra\n  5125: a3 = a3 + a4\n  5128: a5 = t0\n  5130: t0 = a3 ^ t0\n  5133: a5 = a3 <u a5\n  5136: a5 = a4 if t0 == 0\n  5139: a5 = a5 + a2\n  5142: t0 = a5 <u a2\n  5145: a4 = u64 [s1 + 0x118]\n  5149: a2 = a2 <u a4\n  5152: a0 = a0 + a2\n  5155: a0 = a0 + t0\n  5158: t0 = 110, jump @742\n      : @136 [@dyn 55] (gas: 3)\n  5163: u64 [s1 + 0xc0] = t2\n  5167: u64 [s1 + 0xb8] = t1\n  5171: jump @176 if a0 != 0\n      : @137 (gas: 3)\n  5175: a0 = s1 + 0x240\n  5179: u64 [s1 + 0x110] = ra\n  5183: ra = 112, jump @17\n      : @138 [@dyn 56] (gas: 13)\n  5188: a4 = s1 + 0x200\n  5192: a0 = u64 [a4 + 0x58]\n  5195: a1 = u64 [a4 + 0x50]\n  5198: a2 = u64 [a4 + 0x48]\n  5201: a3 = u64 [a4 + 0x40]\n  5204: a4 = s1 + 0x700\n  5208: u64 [a4 + 0x98] = a0\n  5212: u64 [a4 + 0x90] = a1\n  5216: u64 [a4 + 0x88] = a2\n  5220: u64 [a4 + 0x80] = a3\n  5224: a1 = s1 + 0x780\n  5228: a0 = u64 [s1 + 0xf0]\n  5232: ra = 114, jump @22\n      : @139 [@dyn 57] (gas: 57)\n  5237: ra = u64 [s1 + 0xc0]\n  5241: ra = ra + 0x1\n  5244: a0 = ra <u 0x1\n  5247: t0 = u64 [s1 + 0xe0]\n  5251: t0 = t0 + a0\n  5254: a0 = ra | t0\n  5257: a0 = a0 <u 0x1\n  5260: a1 = u64 [s1 + 0xc8]\n  5264: t1 = a1 + a0\n  5267: a1 = t1 <u a1\n  5270: a0 = u64 [s1 + 0xb8]\n  5274: a0 = a0 + a1\n  5277: a1 = u64 [s1 + 0x110]\n  5281: a2 = a1 + 0x20\n  5284: u64 [s1 + 0xc0] = a2\n  5288: a3 = a2 <u a1\n  5291: a1 = u64 [s1 + 0xe8]\n  5295: a2 = a1 + a3\n  5298: u64 [s1 + 0xb8] = a2\n  5302: a4 = a2 <u a1\n  5305: a4 = a3 if a3 == 0\n  5308: a1 = u64 [s1 + 0x118]\n  5312: t2 = a1 + a4\n  5315: a4 = t2 <u a1\n  5318: a1 = u64 [s1 + 0x108]\n  5322: a1 = a1 + a4\n  5325: u64 [s1 + 0x108] = a1\n  5329: a1 = u64 [s1 + 0xd8]\n  5333: a4 = a1 + 0x20\n  5336: a5 = a4 <u a1\n  5339: a2 = u64 [s1 + 0xd0]\n  5343: a1 = a2 + a5\n  5346: a2 = a1 <u a2\n  5349: a2 = a5 if a5 == 0\n  5352: a3 = u64 [s1 + 0xf8]\n  5356: a2 = a2 + a3\n  5359: a5 = a2 <u a3\n  5362: a3 = u64 [s1 + 0x100]\n  5366: a3 = a3 + a5\n  5369: u64 [s1 + 0x100] = a3\n  5373: a3 = t0\n  5375: u64 [s1 + 0xe0] = a3\n  5379: a5 = u64 [s1 + 0xf0]\n  5383: u64 [a5 + 0x8] = a3\n  5386: a3 = ra\n  5388: u64 [a5] = ra\n  5390: u64 [a5 + 0x10] = t1\n  5393: t0 = a0\n  5395: u64 [a5 + 0x18] = a0\n  5398: u64 [s1 + 0xc8] = t1\n  5402: a0 = u64 [s1 + 0xc0]\n  5406: u64 [s1 + 0x110] = a0\n  5410: a5 = u64 [s1 + 0xb8]\n  5414: u64 [s1 + 0x118] = t2\n  5418: ra = a1\n  5420: u64 [s1 + 0xf8] = a2\n  5424: jump @134\n      : @140 (gas: 8)\n  5427: a3 = u64 [s1 + 0xa8]\n  5431: a5 = u64 [s1 + 0x98]\n  5435: a0 = a3 | a5\n  5438: a2 = u64 [s1 + 0x90]\n  5442: a1 = a4 | a2\n  5445: a0 = a0 | a1\n  5448: t0 = u64 [s1 + 0x88]\n  5452: jump @155 if a0 != 0\n      : @141 (gas: 5)\n  5456: u64 [s1 + 256] = 0\n  5460: u64 [s1 + 248] = 0\n  5464: u64 [s1 + 264] = 0\n  5468: u64 [s1 + 272] = 0\n  5472: jump @158\n      : @142 (gas: 10)\n  5475: t0 = u64 [s1 + 0xa8]\n  5479: a4 = u64 [s1 + 0xb0]\n  5483: a4 = a4 ^ t0\n  5486: t2 = u64 [s1 + 0x98]\n  5490: a4 = a4 | t2\n  5493: t1 = u64 [s1 + 0xa0]\n  5497: ra = u64 [s1 + 0x90]\n  5501: a5 = t1 | ra\n  5504: a4 = a4 | a5\n  5507: jump @154 if a4 == 0\n      : @143 (gas: 14)\n  5511: a4 = u64 [s1 + 0x110]\n  5515: a4 = a1 <u a4\n  5518: a3 = a3 + a4\n  5521: a5 = u64 [s1 + 0xe8]\n  5525: t0 = a3 ^ a5\n  5528: a5 = a3 <u a5\n  5531: a5 = a4 if t0 == 0\n  5534: a5 = a5 + a2\n  5537: t0 = a5 <u a2\n  5540: a4 = u64 [s1 + 0x118]\n  5544: a2 = a2 <u a4\n  5547: a0 = a0 + a2\n  5550: a0 = a0 + t0\n  5553: t0 = 116, jump @742\n      : @144 [@dyn 58] (gas: 1)\n  5558: jump @176 if a0 != 0\n      : @145 (gas: 2)\n  5562: a0 = s1 + 0x340\n  5566: ra = 118, jump @17\n      : @146 [@dyn 59] (gas: 11)\n  5571: a1 = s1 + 0x300\n  5575: a0 = u64 [a1 + 0x58]\n  5578: u64 [s1 + 0x110] = a0\n  5582: a0 = u64 [a1 + 0x50]\n  5585: u64 [s1 + 0x108] = a0\n  5589: a0 = u64 [a1 + 0x48]\n  5592: u64 [s1 + 0x100] = a0\n  5596: a0 = u64 [a1 + 0x40]\n  5599: u64 [s1 + 0xf8] = a0\n  5603: a0 = u64 [s1 + 0xa8]\n  5607: t0 = 120, jump @746\n      : @147 [@dyn 60] (gas: 1)\n  5612: ra = 122, jump @764\n      : @148 [@dyn 61] (gas: 6)\n  5617: u64 [s1 + 0xe8] = a0\n  5621: u64 [s1 + 0xd0] = a1\n  5625: a0 = 0xffffffffffffffff\n  5628: a1 = 0xffffffffffffffff\n  5631: a2 = u64 [s1 + 0x118]\n  5635: ra = 124, jump @759\n      : @149 [@dyn 62] (gas: 1)\n  5640: t0 = 126, jump @747\n      : @150 [@dyn 63] (gas: 1)\n  5645: ra = 128, jump @759\n      : @151 [@dyn 64] (gas: 1)\n  5651: t0 = 130, jump @733\n      : @152 [@dyn 65] (gas: 8)\n  5657: a4 = s1 + 0x700\n  5661: u64 [a4 + 0xb8] = a3\n  5665: u64 [a4 + 0xb0] = a2\n  5669: u64 [a4 + 0xa8] = a1\n  5673: u64 [a4 + 0xa0] = a0\n  5677: a1 = s1 + 0x7a0\n  5681: a0 = u64 [s1 + 0xf0]\n  5685: ra = 132, jump @22\n      : @153 [@dyn 66] (gas: 5)\n  5691: t0 = u64 [s1 + 0xa8]\n  5695: t1 = u64 [s1 + 0xa0]\n  5699: t2 = u64 [s1 + 0x98]\n  5703: ra = u64 [s1 + 0x90]\n  5707: fallthrough\n      : @154 (gas: 24)\n  5708: a0 = t2 >> 0x3f\n  5711: a1 = ra << 0x1\n  5714: a0 = a0 | a1\n  5717: a1 = t1 >> 0x3f\n  5720: a2 = t2 << 0x1\n  5723: a1 = a1 | a2\n  5726: a2 = t0 >> 0x3f\n  5729: a3 = t1 << 0x1\n  5732: a2 = a2 | a3\n  5735: a3 = t0 << 0x1\n  5738: a3 = a3 + 0x1\n  5741: u64 [s1 + 2008] = 0\n  5745: u64 [s1 + 2000] = 0\n  5749: u64 [s1 + 1992] = 0\n  5753: a5 = s1 + 0x700\n  5757: u64 [a5 + 192] = 0x4\n  5762: u64 [a5 + 0xe0] = a3\n  5766: u64 [a5 + 0xe8] = a2\n  5770: u64 [a5 + 0xf0] = a1\n  5774: u64 [a5 + 0xf8] = a0\n  5778: a0 = s1 + 0x7c0\n  5782: a1 = s1 + 0x7e0\n  5786: ra = 0x94\n  5790: jump @22\n      : @155 (gas: 9)\n  5793: a0 = u64 [s1 + 0x78]\n  5796: a1 = u64 [s1 + 0x70]\n  5799: a0 = a0 | a1\n  5802: a1 = 0xffffffe0\n  5812: a1 = t0 <u a1\n  5815: a3 = u64 [s1 + 0x80]\n  5819: a1 = 0 if a3 != 0\n  5821: a1 = 0 if a0 != 0\n  5823: jump @176 if a1 == 0\n      : @156 (gas: 3)\n  5827: i32 a1 = t0 + 0x20\n  5830: a0 = s1 + 0x380\n  5834: ra = 134, jump @17\n      : @157 [@dyn 67] (gas: 14)\n  5840: a2 = u64 [s1 + 0x90]\n  5844: a5 = u64 [s1 + 0x98]\n  5848: a4 = u64 [s1 + 0xa0]\n  5852: a3 = u64 [s1 + 0xa8]\n  5856: a1 = s1 + 0x300\n  5860: a0 = u64 [a1 + 0x98]\n  5864: u64 [s1 + 0x110] = a0\n  5868: a0 = u64 [a1 + 0x90]\n  5872: u64 [s1 + 0x108] = a0\n  5876: a0 = u64 [a1 + 0x88]\n  5880: u64 [s1 + 0xf8] = a0\n  5884: a0 = u64 [a1 + 0x80]\n  5888: u64 [s1 + 0x100] = a0\n  5892: fallthrough\n      : @158 (gas: 15)\n  5893: a0 = a4 >> 0x3f\n  5896: a1 = a5 << 0x1\n  5899: a0 = a0 | a1\n  5902: u64 [s1 + 0xf0] = a0\n  5906: a0 = a5 >> 0x3f\n  5909: a1 = a2 << 0x1\n  5912: a0 = a0 | a1\n  5915: u64 [s1 + 0xe8] = a0\n  5919: a0 = a3 >> 0x3f\n  5922: a1 = a4 << 0x1\n  5925: a0 = a0 | a1\n  5928: u64 [s1 + 0xe0] = a0\n  5932: a0 = a3 << 0x1\n  5935: u64 [s1 + 0xd8] = a0\n  5939: t0 = 136, jump @758\n      : @159 [@dyn 68] (gas: 1)\n  5945: ra = 138, jump @764\n      : @160 [@dyn 69] (gas: 7)\n  5951: u64 [s1 + 0xb8] = a0\n  5955: u64 [s1 + 0xd0] = a1\n  5959: a0 = u64 [s1 + 0xa8]\n  5963: i32 a2 = a0 << 0x3\n  5966: a0 = 0xffffffffffffffff\n  5969: a1 = 0xffffffffffffffff\n  5972: ra = 140, jump @759\n      : @161 [@dyn 70] (gas: 10)\n  5978: u64 [s1 + 0xc8] = a0\n  5982: u64 [s1 + 0xc0] = a1\n  5986: a1 = u64 [s1 + 0xb8]\n  5990: a0 = a0 | a1\n  5993: u64 [s1 + 0xb8] = a0\n  5997: a0 = u64 [s1 + 0x118]\n  6001: i32 a2 = a0 + 0xffffffffffffff80\n  6004: a0 = 0xffffffffffffffff\n  6007: a1 = 0xffffffffffffffff\n  6010: ra = 142, jump @759\n      : @162 [@dyn 71] (gas: 7)\n  6016: a4 = u64 [s1 + 0x118]\n  6020: a2 = a4 <u 0x80\n  6024: a3 = u64 [s1 + 0xb8]\n  6028: a0 = a3 if a2 != 0\n  6031: a5 = u64 [s1 + 0xc0]\n  6035: a3 = u64 [s1 + 0xd0]\n  6039: t0 = 144, jump @748\n      : @163 [@dyn 72] (gas: 2)\n  6045: a4 = u64 [s1 + 0xc8]\n  6049: t0 = 146, jump @737\n      : @164 [@dyn 73] (gas: 29)\n  6055: a4 = u64 [s1 + 0xd8]\n  6059: a0 = a0 | a4\n  6062: a4 = u64 [s1 + 0xe0]\n  6066: a1 = a1 | a4\n  6069: a4 = u64 [s1 + 0xe8]\n  6073: a3 = a3 | a4\n  6076: a4 = u64 [s1 + 0xf0]\n  6080: a2 = a2 | a4\n  6083: a5 = s1 + 0x1000\n  6087: u64 [a5 + 4294965248] = 0x4\n  6092: a4 = s1 + 0x1000\n  6096: u64 [a4 + 0xfffffffffffff830] = a2\n  6100: a2 = s1 + 0x1000\n  6104: u64 [a2 + 0xfffffffffffff838] = a3\n  6108: a2 = s1 + 0x1000\n  6112: u64 [a2 + 0xfffffffffffff828] = a1\n  6116: a1 = s1 + 0x1000\n  6120: u64 [a1 + 0xfffffffffffff820] = a0\n  6124: a0 = s1 + 0x1000\n  6128: u64 [a0 + 4294965272] = 0\n  6132: a0 = s1 + 0x1000\n  6136: u64 [a0 + 4294965264] = 0\n  6140: a0 = s1 + 0x1000\n  6144: u64 [a0 + 4294965256] = 0\n  6148: a0 = s1 + 0x7ff\n  6152: a0 = a0 + 0x1\n  6155: a1 = s1 + 0x7ff\n  6159: a1 = a1 + 0x21\n  6162: ra = 148, jump @22\n      : @165 [@dyn 74] (gas: 6)\n  6168: a0 = 0x300f0\n  6173: u64 [s1 + 0x118] = a0\n  6177: i32 a0 = a0 + 0\n  6179: u64 [s1 + 0x110] = a0\n  6183: ecalli 3 // 'caller'\n  6185: fallthrough\n      : @166 (gas: 7)\n  6186: a2 = u64 [s1 + 0x118]\n  6190: a0 = u32 [a2 + 0x10]\n  6193: a1 = u64 [a2]\n  6195: a2 = u64 [a2 + 0x8]\n  6198: a0 = a0 | a1\n  6201: a0 = a0 | a2\n  6204: jump @205 if a0 == 0\n      : @167 (gas: 12)\n  6208: a0 = s1 + 0x1000\n  6212: u64 [a0 + 4294965336] = 0\n  6216: a0 = s1 + 0x1000\n  6220: u64 [a0 + 4294965328] = 0\n  6224: a0 = s1 + 0x1000\n  6228: u64 [a0 + 4294965320] = 0\n  6232: a1 = s1 + 0x1000\n  6236: u64 [a1 + 4294965312] = 0x5\n  6241: a0 = s1 + 0x320\n  6245: a1 = s1 + 0x7ff\n  6249: a1 = a1 + 0x41\n  6252: ra = 150, jump @21\n      : @168 [@dyn 75] (gas: 14)\n  6258: a0 = u64 [s1 + 0x320]\n  6262: u64 [s1 + 0x100] = a0\n  6266: a0 = u64 [s1 + 0x328]\n  6270: u64 [s1 + 0xf8] = a0\n  6274: a0 = u64 [s1 + 0x338]\n  6278: u64 [s1 + 0xf0] = a0\n  6282: a0 = u64 [s1 + 0x330]\n  6286: u64 [s1 + 0x108] = a0\n  6290: a0 = u64 [s1 + 0x110]\n  6294: ra = 0x98\n  6298: ecalli 3 // 'caller'\n  6300: a2 = u64 [s1 + 0x118]\n  6304: t0 = 0x9a\n  6308: jump @736\n      : @169 [@dyn 76] (gas: 2)\n  6311: a2 = u64 [s1 + 0x118]\n  6315: t0 = 154, jump @736\n      : @170 [@dyn 77] (gas: 26)\n  6321: a3 = u64 [s1 + 0x108]\n  6325: a3 = a3 >> 0x20\n  6328: a3 = a3 << 0x20\n  6331: a2 = a2 | a3\n  6334: a3 = s1 + 0x1000\n  6338: u64 [a3 + 4294965368] = 0\n  6342: a3 = s1 + 0x1000\n  6346: u64 [a3 + 4294965360] = 0\n  6350: a3 = s1 + 0x1000\n  6354: u64 [a3 + 4294965352] = 0\n  6358: a4 = s1 + 0x1000\n  6362: u64 [a4 + 4294965344] = 0x5\n  6367: a3 = s1 + 0x7ff\n  6371: a3 = a3 + 0x99\n  6375: a4 = u64 [s1 + 0xf0]\n  6379: u64 [a3] = a4\n  6381: u64 [a3 + 0xfffffffffffffff8] = a2\n  6384: a2 = s1 + 0x1000\n  6388: u64 [a2 + 0xfffffffffffff888] = a0\n  6392: a0 = s1 + 0x1000\n  6396: u64 [a0 + 0xfffffffffffff880] = a1\n  6400: a0 = s1 + 0x7ff\n  6404: a0 = a0 + 0x61\n  6407: a1 = s1 + 0x7ff\n  6411: a1 = a1 + 0x81\n  6415: ra = 156, jump @22\n      : @171 [@dyn 78] (gas: 3)\n  6421: a0 = s1 + 0x300\n  6425: a1 = 0x40\n  6428: ra = 158, jump @17\n      : @172 [@dyn 79] (gas: 13)\n  6434: a1 = s1 + 0x300\n  6438: a0 = u64 [a1 + 0x18]\n  6441: u64 [s1 + 0xf0] = a0\n  6445: a0 = u64 [a1 + 0x10]\n  6448: u64 [s1 + 0xe8] = a0\n  6452: a0 = u64 [a1 + 0x8]\n  6455: u64 [s1 + 0xe0] = a0\n  6459: a0 = u64 [a1]\n  6461: u64 [s1 + 0xd8] = a0\n  6465: a0 = u64 [s1 + 0x110]\n  6469: ra = 0xa0\n  6473: ecalli 3 // 'caller'\n  6475: fallthrough\n      : @173 [@dyn 80] (gas: 3)\n  6476: a4 = s1 + 0x100\n  6480: a2 = u64 [a4 + 0x18]\n  6483: t0 = 162, jump @753\n      : @174 [@dyn 81] (gas: 34)\n  6489: t0 = a1 | a0\n  6492: a3 = a3 >> 0x20\n  6495: a2 = reverse a2\n  6497: a1 = a2 << 0x20\n  6500: a1 = a1 | a3\n  6503: a2 = a2 >> 0x20\n  6506: a3 = u64 [a4 + 0x8]\n  6509: a3 = a3 << 0x20\n  6512: a3 = a3 >> 0x20\n  6515: u64 [s1 + 696] = 0\n  6519: u64 [s1 + 728] = 0\n  6523: u64 [s1 + 0x2d0] = a3\n  6527: a0 = u64 [s1 + 0xf8]\n  6531: u64 [s1 + 0x2c8] = a0\n  6535: a0 = u64 [a4]\n  6537: u64 [s1 + 0x2c0] = a0\n  6541: a3 = u64 [0x20000]\n  6546: a4 = u64 [0x20008]\n  6551: a5 = u64 [0x20010]\n  6556: a0 = u64 [0x20018]\n  6561: u64 [s1 + 0x2f8] = a3\n  6565: a3 = s1 + 0x200\n  6569: u64 [a3 + 0xf0] = a4\n  6573: u64 [a3 + 0xe8] = a5\n  6577: u64 [a3 + 0xe0] = a0\n  6581: u64 [a3 + 0xb0] = a2\n  6585: u64 [a3 + 0xa8] = a1\n  6589: a2 = s1 + 0x2e0\n  6593: a3 = s1 + 0x2c0\n  6597: a4 = s1 + 0x2a0\n  6601: u64 [s1 + 0x2a0] = t0\n  6605: a0 = 0\n  6607: a1 = 0\n  6609: ra = 164, jump @23\n      : @175 [@dyn 82] (gas: 13)\n  6615: a0 = u64 [s1 + 0xf0]\n  6619: a1 = u64 [s1 + 0xe0]\n  6623: a0 = a0 | a1\n  6626: a1 = u64 [s1 + 0xd8]\n  6630: a2 = a1\n  6632: a3 = u64 [s1 + 0xe8]\n  6636: a1 = a1 | a3\n  6639: a1 = a1 | a0\n  6642: a1 = a1 >> 0x20\n  6645: a0 = a0 | a3\n  6648: a0 = a0 << 0x20\n  6651: a0 = a0 | a1\n  6654: jump @211 if a0 == 0\n      : @176 (gas: 1)\n  6658: trap\n      : @177 (gas: 6)\n  6659: a1 = 0x200f0\n  6664: i32 a1 = a1 + 0\n  6666: a0 = 0x1\n  6669: a2 = 0\n  6671: ecalli 7 // 'seal_return'\n  6673: jump @181\n      : @178 (gas: 6)\n  6675: a1 = 0x200f0\n  6680: i32 a1 = a1 + 0\n  6682: a0 = 0x1\n  6685: a2 = 0\n  6687: ecalli 7 // 'seal_return'\n  6689: jump @181\n      : @179 (gas: 6)\n  6691: a1 = 0x200f0\n  6696: i32 a1 = a1 + 0\n  6698: a0 = 0x1\n  6701: a2 = 0\n  6703: ecalli 7 // 'seal_return'\n  6705: jump @181\n      : @180 (gas: 6)\n  6707: a1 = 0x200f0\n  6712: i32 a1 = a1 + 0\n  6714: a0 = 0x1\n  6717: a2 = 0\n  6719: ecalli 7 // 'seal_return'\n  6721: fallthrough\n      : @181 (gas: 6)\n  6722: u64 [s1 + 336] = 0\n  6726: u64 [s1 + 328] = 0\n  6730: u64 [s1 + 320] = 0\n  6734: t0 = 0xa6\n  6738: a0 = 0x4e487b7100000000\n  6748: fallthrough\n      : @182 [@dyn 83] (gas: 4)\n  6749: a1 = s1 + 0x140\n  6753: u64 [s1 + 0x158] = a0\n  6757: a0 = 0\n  6759: ra = 168, jump @19\n      : @183 [@dyn 84] (gas: 7)\n  6765: u64 [s1 + 312] = 0\n  6769: u64 [s1 + 304] = 0\n  6773: u64 [s1 + 288] = 0x41\n  6778: a0 = 0x4\n  6781: a1 = s1 + 0x120\n  6785: u64 [s1 + 296] = 0\n  6789: ra = 170, jump @19\n      : @184 [@dyn 85] (gas: 2)\n  6795: a1 = i32 [0x200e4]\n  6800: jump @186 if a1 >u 63\n      : @185 (gas: 3)\n  6804: u32 [0x200e4] = 0x40\n  6810: a1 = 0x200f0\n  6815: jump @210\n      : @186 (gas: 2)\n  6818: a1 = 0x200f0\n  6823: jump @210\n      : @187 (gas: 6)\n  6826: u64 [s1 + 400] = 0\n  6830: u64 [s1 + 392] = 0\n  6834: u64 [s1 + 384] = 0\n  6838: t0 = 0xac\n  6842: a0 = 0x4e487b7100000000\n  6852: fallthrough\n      : @188 [@dyn 86] (gas: 4)\n  6853: a1 = s1 + 0x180\n  6857: u64 [s1 + 0x198] = a0\n  6861: a0 = 0\n  6863: ra = 174, jump @19\n      : @189 [@dyn 87] (gas: 7)\n  6869: u64 [s1 + 376] = 0\n  6873: u64 [s1 + 368] = 0\n  6877: u64 [s1 + 352] = 0x22\n  6882: a0 = 0x4\n  6885: a1 = s1 + 0x160\n  6889: u64 [s1 + 360] = 0\n  6893: ra = 176, jump @19\n      : @190 [@dyn 88] (gas: 2)\n  6899: a1 = i32 [0x200e4]\n  6904: jump @192 if a1 >u 63\n      : @191 (gas: 3)\n  6908: u32 [0x200e4] = 0x40\n  6914: a1 = 0x200f0\n  6919: jump @210\n      : @192 (gas: 2)\n  6922: a1 = 0x200f0\n  6927: jump @210\n      : @193 (gas: 6)\n  6930: u64 [s1 + 496] = 0\n  6934: u64 [s1 + 488] = 0\n  6938: u64 [s1 + 480] = 0\n  6942: t0 = 0xb2\n  6946: a0 = 0x4e487b7100000000\n  6956: fallthrough\n      : @194 [@dyn 89] (gas: 4)\n  6957: a1 = s1 + 0x1e0\n  6961: u64 [s1 + 0x1f8] = a0\n  6965: a0 = 0\n  6967: ra = 180, jump @19\n      : @195 [@dyn 90] (gas: 7)\n  6973: u64 [s1 + 472] = 0\n  6977: u64 [s1 + 464] = 0\n  6981: u64 [s1 + 448] = 0x41\n  6986: a0 = 0x4\n  6989: a1 = s1 + 0x1c0\n  6993: u64 [s1 + 456] = 0\n  6997: ra = 182, jump @19\n      : @196 [@dyn 91] (gas: 2)\n  7003: a1 = i32 [0x200e4]\n  7008: jump @198 if a1 >u 63\n      : @197 (gas: 3)\n  7012: u32 [0x200e4] = 0x40\n  7018: a1 = 0x200f0\n  7023: jump @210\n      : @198 (gas: 2)\n  7026: a1 = 0x200f0\n  7031: jump @210\n      : @199 (gas: 6)\n  7034: u64 [s1 + 560] = 0\n  7038: u64 [s1 + 552] = 0\n  7042: u64 [s1 + 544] = 0\n  7046: t0 = 0xb8\n  7050: a0 = 0x4e487b7100000000\n  7060: fallthrough\n      : @200 [@dyn 92] (gas: 4)\n  7061: a1 = s1 + 0x220\n  7065: u64 [s1 + 0x238] = a0\n  7069: a0 = 0\n  7071: ra = 186, jump @19\n      : @201 [@dyn 93] (gas: 7)\n  7077: u64 [s1 + 536] = 0\n  7081: u64 [s1 + 528] = 0\n  7085: u64 [s1 + 512] = 0x22\n  7090: a0 = 0x4\n  7093: a1 = s1 + 0x200\n  7097: u64 [s1 + 520] = 0\n  7101: ra = 188, jump @19\n      : @202 [@dyn 94] (gas: 2)\n  7107: a1 = i32 [0x200e4]\n  7112: jump @204 if a1 >u 63\n      : @203 (gas: 3)\n  7116: u32 [0x200e4] = 0x40\n  7122: a1 = 0x200f0\n  7127: jump @210\n      : @204 (gas: 2)\n  7129: a1 = 0x200f0\n  7134: jump @210\n      : @205 (gas: 8)\n  7136: u64 [s1 + 656] = 0\n  7140: u64 [s1 + 648] = 0\n  7144: u64 [s1 + 640] = 0\n  7148: a0 = 0x1e4fbdf700000000\n  7158: a1 = s1 + 0x280\n  7162: u64 [s1 + 0x298] = a0\n  7166: a0 = 0\n  7168: ra = 190, jump @19\n      : @206 [@dyn 95] (gas: 7)\n  7174: u64 [s1 + 632] = 0\n  7178: u64 [s1 + 624] = 0\n  7182: u64 [s1 + 616] = 0\n  7186: a0 = 0x4\n  7189: a1 = s1 + 0x260\n  7193: u64 [s1 + 608] = 0\n  7197: ra = 192, jump @19\n      : @207 [@dyn 96] (gas: 2)\n  7203: a1 = i32 [0x200e4]\n  7208: jump @209 if a1 >u 63\n      : @208 (gas: 3)\n  7212: u32 [0x200e4] = 0x40\n  7218: a1 = 0x200f0\n  7223: jump @210\n      : @209 (gas: 2)\n  7225: a1 = 0x200f0\n  7230: fallthrough\n      : @210 (gas: 5)\n  7231: i32 a1 = a1 + 0\n  7233: a0 = 0x1\n  7236: a2 = 0x24\n  7239: ecalli 7 // 'seal_return'\n  7241: fallthrough\n      : @211 (gas: 3)\n  7242: a0 = a2\n  7244: a1 = 0\n  7246: ra = 194, jump @26\n      : @212 [@dyn 97] (gas: 5)\n  7252: i32 a0 = a0 + 0\n  7254: a1 = 0\n  7256: a2 = 0\n  7258: ecalli 0 // 'call_data_copy'\n  7259: jump @15\n      : @213 (gas: 3)\n  7262: a0 = u64 [s1 + 0xd8]\n  7266: a1 = 0\n  7268: ra = 196, jump @26\n      : @214 [@dyn 98] (gas: 5)\n  7274: i32 a1 = a0 + 0\n  7276: a0 = 0\n  7278: a2 = 0\n  7280: ecalli 7 // 'seal_return'\n  7282: jump @181\n      : @215 [@dyn 99] (gas: 4)\n  7285: a0 = 0x200e0\n  7290: u64 [s1 + 0xf8] = a0\n  7294: a0 = i32 [0x200e0]\n  7299: jump @217 if a0 >=u 4\n      : @216 (gas: 1)\n  7303: jump @579\n      : @217 (gas: 6)\n  7306: a0 = s1 + 0x1000\n  7310: i32 a0 = a0 + 0x40\n  7313: a1 = 0\n  7315: ra = 0xc8\n  7319: ecalli 1 // 'call_data_load'\n  7321: fallthrough\n      : @218 [@dyn 100] (gas: 4)\n  7322: a0 = s1 + 0x7ff\n  7326: a0 = a0 + 0x79\n  7329: a0 = i32 [a0 + 0x7e4]\n  7333: jump @220 if a0 != 2376452955\n      : @219 (gas: 1)\n  7340: jump @442\n      : @220 (gas: 1)\n  7343: jump @272 if a0 == 2514000705\n      : @221 (gas: 2)\n  7351: a2 = s1 + 0x1078\n  7355: jump @223 if a0 != 2835717307\n      : @222 (gas: 1)\n  7362: jump @451\n      : @223 (gas: 1)\n  7365: jump @362 if a0 == 3714247998\n      : @224 (gas: 1)\n  7373: jump @226 if a0 != 117300739\n      : @225 (gas: 1)\n  7380: jump @433\n      : @226 (gas: 1)\n  7383: jump @228 if a0 != 157198259\n      : @227 (gas: 1)\n  7390: jump @403\n      : @228 (gas: 1)\n  7393: jump @262 if a0 == 404098525\n      : @229 (gas: 1)\n  7401: jump @314 if a0 == 599290589\n      : @230 (gas: 1)\n  7409: jump @302 if a0 == 826074471\n      : @231 (gas: 1)\n  7417: jump @233 if a0 == 1086394137\n      : @232 (gas: 1)\n  7424: jump @386\n      : @233 (gas: 10)\n  7427: u64 [a2 + 320] = 0\n  7431: u64 [a2 + 312] = 0\n  7435: u64 [a2 + 304] = 0\n  7439: u64 [a2 + 296] = 0\n  7443: a0 = s1 + 0x1000\n  7447: i32 a0 = a0 + 0x1a0\n  7451: ra = 0xca\n  7455: ecalli 10 // 'value_transferred'\n  7457: t0 = 0xcc\n  7461: jump @752\n      : @234 [@dyn 101] (gas: 1)\n  7464: t0 = 204, jump @752\n      : @235 [@dyn 102] (gas: 8)\n  7470: a0 = u64 [a4 + 0x38]\n  7473: a1 = u64 [a4 + 0x40]\n  7476: a2 = u64 [a4 + 0x30]\n  7479: a3 = u64 [a4 + 0x28]\n  7482: a1 = a1 | a2\n  7485: a0 = a0 | a3\n  7488: a0 = a0 | a1\n  7491: jump @237 if a0 == 0\n      : @236 (gas: 1)\n  7494: jump @487\n      : @237 (gas: 4)\n  7497: a0 = u64 [s1 + 0xf8]\n  7501: a0 = i32 [a0]\n  7503: a1 = 0x43\n  7506: jump @239 if a1 <u a0\n      : @238 (gas: 1)\n  7509: jump @488\n      : @239 (gas: 5)\n  7512: a0 = s1 + 0x7ff\n  7516: a0 = a0 + 0x1c1\n  7520: ra = 0xce\n  7524: t0 = 0x244\n  7528: jump @749\n      : @240 [@dyn 103] (gas: 23)\n  7531: a0 = s1 + 0x7ff\n  7535: a0 = a0 + 0x79\n  7538: a1 = u64 [a0 + 0x150]\n  7542: u64 [s1 + 0xf0] = a1\n  7546: a1 = u64 [a0 + 0x148]\n  7550: u64 [s1 + 0xf8] = a1\n  7554: a0 = u32 [a0 + 0x158]\n  7558: u64 [s1 + 0xe8] = a0\n  7562: a0 = s1 + 0x1000\n  7566: i32 a0 = a0 + 0x1c0\n  7570: a1 = 0x24\n  7573: ecalli 1 // 'call_data_load'\n  7575: a0 = s1 + 0x1078\n  7579: a2 = a0 + 0x100\n  7583: a1 = u64 [a2 + 0x60]\n  7586: u64 [s1 + 0xe0] = a1\n  7590: a1 = u64 [a2 + 0x58]\n  7593: u64 [s1 + 0xd8] = a1\n  7597: a1 = u64 [a2 + 0x50]\n  7600: u64 [s1 + 0xd0] = a1\n  7604: a0 = u64 [a2 + 0x48]\n  7607: u64 [s1 + 0xc8] = a0\n  7611: ra = 208, jump @719\n      : @241 [@dyn 104] (gas: 6)\n  7617: a0 = u64 [s1 + 0xf8]\n  7621: a1 = u64 [s1 + 0xe8]\n  7625: a0 = a0 | a1\n  7628: a1 = u64 [s1 + 0xf0]\n  7632: a0 = a0 | a1\n  7635: jump @243 if a0 != 0\n      : @242 (gas: 1)\n  7638: jump @489\n      : @243 (gas: 9)\n  7641: a0 = s1 + 0x1078\n  7645: u64 [a0 + 384] = 0\n  7649: u64 [a0 + 376] = 0\n  7653: u64 [a0 + 368] = 0\n  7657: u64 [a0 + 360] = 0x2\n  7662: a0 = s1 + 0x7ff\n  7666: a0 = a0 + 0x1a1\n  7670: a1 = s1 + 0x11e0\n  7674: ra = 210, jump @21\n      : @244 [@dyn 105] (gas: 40)\n  7680: a1 = s1 + 0x7ff\n  7684: a1 = a1 + 0x79\n  7687: t2 = u64 [a1 + 0x140]\n  7691: a2 = a1 + 0x100\n  7695: a0 = u64 [a2 + 0x38]\n  7698: a4 = u64 [a2 + 0x28]\n  7701: a5 = u64 [a2 + 0x30]\n  7704: a1 = sp + 0xffffffffffffffe0\n  7707: a1 = a1 & 0xffffffffffffffe0\n  7710: sp = a1\n  7712: a3 = u64 [s1 + 0xd0]\n  7716: a3 = a3 + a5\n  7719: t0 = u64 [s1 + 0xc8]\n  7723: t0 = t0 + a4\n  7726: a4 = t0 <u a4\n  7729: a3 = a3 + a4\n  7732: t1 = a3 ^ a5\n  7735: a2 = a3 <u a5\n  7738: a2 = a4 if t1 == 0\n  7741: a4 = u64 [s1 + 0xd8]\n  7745: a4 = a4 + a0\n  7748: a5 = a4 + a2\n  7751: t1 = a5 <u a4\n  7754: ra = u64 [s1 + 0xe0]\n  7758: ra = ra + t2\n  7761: a4 = a4 <u a0\n  7764: a4 = a4 + ra\n  7767: ra = a4 + t1\n  7770: t1 = a5 <u a0\n  7773: a4 = t2 ^ ra\n  7776: t2 = ra <u t2\n  7779: t2 = t1 if a4 == 0\n  7782: a0 = a0 ^ a5\n  7785: a0 = a0 | a4\n  7788: t2 = a2 if a0 == 0\n  7791: u64 [a1 + 0x10] = a5\n  7794: u64 [a1 + 0x8] = a3\n  7797: u64 [a1] = t0\n  7799: u64 [a1 + 0x18] = ra\n  7802: jump @246 if t2 == 0\n      : @245 (gas: 1)\n  7805: jump @494\n      : @246 (gas: 7)\n  7808: a0 = s1 + 0x1078\n  7812: u64 [a0 + 416] = 0\n  7816: u64 [a0 + 408] = 0\n  7820: u64 [a0 + 400] = 0\n  7824: u64 [a0 + 392] = 0x2\n  7829: a0 = s1 + 0x1200\n  7833: ra = 212, jump @22\n      : @247 [@dyn 106] (gas: 14)\n  7839: a2 = s1 + 0x7ff\n  7843: a2 = a2 + 0x79\n  7846: u64 [a2 + 288] = 0\n  7850: a0 = u64 [s1 + 0xe8]\n  7854: a3 = a2 + 0x100\n  7858: u64 [a3 + 0x18] = a0\n  7861: a0 = u64 [s1 + 0xf0]\n  7865: u64 [a3 + 0x10] = a0\n  7868: a1 = s1 + 0x7ff\n  7872: a1 = a1 + 0x181\n  7876: a0 = u64 [s1 + 0xf8]\n  7880: u64 [a3 + 0x8] = a0\n  7883: a0 = 0\n  7885: ra = 214, jump @19\n      : @248 [@dyn 107] (gas: 11)\n  7891: a0 = s1 + 0x7ff\n  7895: a0 = a0 + 0x79\n  7898: u64 [a0 + 256] = 0\n  7902: u64 [a0 + 248] = 0\n  7906: u64 [a0 + 240] = 0\n  7910: a2 = a0\n  7912: a0 = 0x20\n  7915: a1 = s1 + 0x7ff\n  7919: a1 = a1 + 0x161\n  7923: u64 [a2 + 232] = 0\n  7927: ra = 216, jump @19\n      : @249 [@dyn 108] (gas: 6)\n  7933: a0 = sp + 0xffffffffffffffe0\n  7936: a0 = a0 & 0xffffffffffffffe0\n  7939: u64 [s1 + 0xc0] = a0\n  7943: sp = a0\n  7945: a1 = i32 [0x200e4]\n  7950: jump @251 if a1 >u 63\n      : @250 (gas: 2)\n  7954: u32 [0x200e4] = 0x40\n  7960: fallthrough\n      : @251 (gas: 14)\n  7961: a0 = sp + 0xffffffffffffffe0\n  7964: a2 = a0 & 0xffffffffffffffe0\n  7967: u64 [s1 + 0xb8] = a2\n  7971: sp = a2\n  7973: a0 = 0x200f0\n  7978: i32 a0 = a0 + 0\n  7980: i32 a2 = a2 + 0\n  7982: a1 = 0x40\n  7985: u64 [s1 + 0xb0] = a0\n  7989: ra = 0xda\n  7993: ecalli 6 // 'hash_keccak_256'\n  7995: a3 = u64 [s1 + 0xb8]\n  7999: t0 = 0xdc\n  8003: jump @734\n      : @252 [@dyn 109] (gas: 2)\n  8006: a3 = u64 [s1 + 0xb8]\n  8010: t0 = 220, jump @734\n      : @253 [@dyn 110] (gas: 8)\n  8016: a1 = u64 [s1 + 0xc0]\n  8020: u64 [a1 + 0x18] = a3\n  8023: u64 [a1 + 0x10] = a2\n  8026: u64 [a1 + 0x8] = a4\n  8029: u64 [a1] = a0\n  8031: a0 = s1 + 0x7ff\n  8035: a0 = a0 + 0x141\n  8039: ra = 222, jump @21\n      : @254 [@dyn 111] (gas: 33)\n  8045: a2 = s1 + 0x7ff\n  8049: a2 = a2 + 0x79\n  8052: a0 = u64 [a2 + 0xd0]\n  8056: a1 = u64 [a2 + 0xc8]\n  8060: t0 = u64 [a2 + 0xe0]\n  8064: a3 = u64 [a2 + 0xd8]\n  8068: a4 = u64 [s1 + 0xd0]\n  8072: a4 = a4 + a0\n  8075: a5 = u64 [s1 + 0xc8]\n  8079: a5 = a5 + a1\n  8082: a1 = a5 <u a1\n  8085: a4 = a4 + a1\n  8088: a2 = a4 ^ a0\n  8091: a0 = a4 <u a0\n  8094: a0 = a1 if a2 == 0\n  8097: a1 = u64 [s1 + 0xd8]\n  8101: a1 = a1 + a3\n  8104: a2 = u64 [s1 + 0xe0]\n  8108: t0 = t0 + a2\n  8111: a2 = a1 <u a3\n  8114: a2 = a2 + t0\n  8117: a0 = a0 + a1\n  8120: a1 = a0 <u a1\n  8123: a1 = a1 + a2\n  8126: a2 = s1 + 0x1078\n  8130: a3 = a2 + 0x100\n  8134: u64 [a3 + 0xa8] = a5\n  8138: u64 [a3 + 0xb0] = a4\n  8142: u64 [a3 + 0xb8] = a0\n  8146: u64 [a3 + 0xc0] = a1\n  8150: a1 = s1 + 0x1220\n  8154: a0 = u64 [s1 + 0xc0]\n  8158: ra = 224, jump @22\n      : @255 [@dyn 112] (gas: 4)\n  8164: a0 = s1 + 0x7ff\n  8168: a0 = a0 + 0x121\n  8172: a1 = 0x40\n  8175: ra = 226, jump @17\n      : @256 [@dyn 113] (gas: 7)\n  8181: a3 = s1 + 0x7ff\n  8185: a3 = a3 + 0x79\n  8188: a4 = u64 [a3 + 0xc0]\n  8192: a1 = u64 [a3 + 0xb8]\n  8196: a2 = u64 [a3 + 0xb0]\n  8200: a0 = u64 [a3 + 0xa8]\n  8204: t0 = 228, jump @745\n      : @257 [@dyn 114] (gas: 1)\n  8210: jump @259 if a1 == 0\n      : @258 (gas: 1)\n  8213: jump @478\n      : @259 (gas: 12)\n  8216: a1 = u64 [s1 + 0xc8]\n  8220: u64 [a3 + 0x88] = a1\n  8224: a1 = u64 [s1 + 0xd0]\n  8228: u64 [a3 + 0x90] = a1\n  8232: a1 = u64 [s1 + 0xd8]\n  8236: u64 [a3 + 0x98] = a1\n  8240: a1 = s1 + 0x7ff\n  8244: a1 = a1 + 0x101\n  8248: a2 = u64 [s1 + 0xe0]\n  8252: u64 [a3 + 0xa0] = a2\n  8256: u64 [s1 + 0xe0] = a0\n  8260: ra = 230, jump @19\n      : @260 [@dyn 115] (gas: 30)\n  8266: a5 = s1 + 0x7ff\n  8270: a5 = a5 + 0x79\n  8273: u64 [a5 + 64] = 0\n  8276: a0 = u64 [s1 + 0xe8]\n  8280: u64 [a5 + 0x38] = a0\n  8283: a0 = u64 [s1 + 0xf0]\n  8287: u64 [a5 + 0x30] = a0\n  8290: a0 = u64 [s1 + 0xf8]\n  8294: u64 [a5 + 0x28] = a0\n  8297: u64 [a5 + 96] = 0\n  8300: u64 [a5 + 88] = 0\n  8303: u64 [a5 + 80] = 0\n  8306: a0 = u64 [0x20060]\n  8311: a1 = u64 [0x20068]\n  8316: a2 = u64 [0x20070]\n  8321: a3 = u64 [0x20078]\n  8326: u64 [a5 + 0x80] = a0\n  8330: u64 [a5 + 0x78] = a1\n  8333: u64 [a5 + 0x70] = a2\n  8336: u64 [a5 + 0x68] = a3\n  8339: a1 = 0x20\n  8342: a2 = s1 + 0x7ff\n  8346: a2 = a2 + 0xe1\n  8350: a3 = s1 + 0x7ff\n  8354: a3 = a3 + 0xc1\n  8358: a4 = s1 + 0x7ff\n  8362: a4 = a4 + 0xa1\n  8366: u64 [a5 + 72] = 0\n  8369: a0 = u64 [s1 + 0xe0]\n  8373: ra = 232, jump @23\n      : @261 [@dyn 116] (gas: 5)\n  8379: a0 = 0\n  8381: a1 = u64 [s1 + 0xb0]\n  8385: a2 = 0\n  8387: ecalli 7 // 'seal_return'\n  8389: jump @581\n      : @262 (gas: 8)\n  8392: u64 [a2 + 128] = 0\n  8396: u64 [a2 + 120] = 0\n  8399: u64 [a2 + 112] = 0\n  8402: u64 [a2 + 104] = 0\n  8405: a0 = s1 + 0x1000\n  8409: i32 a0 = a0 + 0xe0\n  8413: ecalli 10 // 'value_transferred'\n  8415: fallthrough\n      : @263 (gas: 9)\n  8416: a3 = s1 + 0x1078\n  8420: a0 = u64 [a3 + 0x78]\n  8423: a1 = u64 [a3 + 0x80]\n  8427: a2 = u64 [a3 + 0x70]\n  8430: a3 = u64 [a3 + 0x68]\n  8433: a1 = a1 | a2\n  8436: a0 = a0 | a3\n  8439: a0 = a0 | a1\n  8442: jump @265 if a0 == 0\n      : @264 (gas: 1)\n  8445: jump @500\n      : @265 (gas: 3)\n  8448: a0 = u64 [s1 + 0xf8]\n  8452: a0 = i32 [a0]\n  8454: jump @267 if a0 >u 3\n      : @266 (gas: 1)\n  8458: jump @501\n      : @267 (gas: 8)\n  8461: a1 = s1 + 0x1078\n  8465: u64 [a1 + 160] = 0\n  8469: u64 [a1 + 152] = 0\n  8473: u64 [a1 + 144] = 0\n  8477: u64 [a1 + 136] = 0x2\n  8482: a0 = s1 + 0x4c0\n  8486: a1 = s1 + 0x1100\n  8490: ra = 234, jump @21\n      : @268 [@dyn 117] (gas: 11)\n  8496: a0 = u64 [s1 + 0x4d8]\n  8500: u64 [s1 + 0xf8] = a0\n  8504: a0 = u64 [s1 + 0x4d0]\n  8508: u64 [s1 + 0xf0] = a0\n  8512: a0 = u64 [s1 + 0x4c8]\n  8516: u64 [s1 + 0xe8] = a0\n  8520: a0 = u64 [s1 + 0x4c0]\n  8524: u64 [s1 + 0xe0] = a0\n  8528: a0 = s1 + 0x4a0\n  8532: a1 = 0x40\n  8535: ra = 236, jump @17\n      : @269 [@dyn 118] (gas: 13)\n  8541: a4 = s1 + 0x400\n  8545: a0 = u64 [a4 + 0xb8]\n  8549: a1 = u64 [a4 + 0xb0]\n  8553: a2 = u64 [a4 + 0xa8]\n  8557: a3 = u64 [a4 + 0xa0]\n  8561: a0 = a0 | a2\n  8564: a2 = a3 | a1\n  8567: a2 = a2 | a0\n  8570: a2 = a2 >> 0x20\n  8573: a0 = a0 | a1\n  8576: a0 = a0 << 0x20\n  8579: a0 = a0 | a2\n  8582: jump @271 if a0 == 0\n      : @270 (gas: 1)\n  8585: jump @478\n      : @271 (gas: 14)\n  8588: a0 = u64 [s1 + 0xe0]\n  8592: a2 = s1 + 0x400\n  8596: u64 [a2 + 0x80] = a0\n  8600: a0 = u64 [s1 + 0xe8]\n  8604: u64 [a2 + 0x88] = a0\n  8608: a0 = u64 [s1 + 0xf0]\n  8612: u64 [a2 + 0x90] = a0\n  8616: a1 = s1 + 0x480\n  8620: a0 = u64 [s1 + 0xf8]\n  8624: u64 [a2 + 0x98] = a0\n  8628: a0 = a3\n  8630: u64 [s1 + 0xf8] = a3\n  8634: ra = 0x1a8\n  8638: jump @19\n      : @272 (gas: 11)\n  8641: a0 = s1 + 0x1078\n  8645: u64 [a0 + 736] = 0\n  8649: u64 [a0 + 728] = 0\n  8653: u64 [a0 + 720] = 0\n  8657: u64 [a0 + 712] = 0\n  8661: a0 = s1 + 0x1000\n  8665: i32 a0 = a0 + 0x340\n  8669: ra = 0xee\n  8673: ecalli 10 // 'value_transferred'\n  8675: t0 = 0xf0\n  8679: jump @750\n      : @273 [@dyn 119] (gas: 1)\n  8682: t0 = 240, jump @750\n      : @274 [@dyn 120] (gas: 8)\n  8688: a0 = u64 [a4 + 0xd8]\n  8692: a1 = u64 [a4 + 0xe0]\n  8696: a2 = u64 [a4 + 0xd0]\n  8700: a3 = u64 [a4 + 0xc8]\n  8704: a1 = a1 | a2\n  8707: a0 = a0 | a3\n  8710: a0 = a0 | a1\n  8713: jump @276 if a0 == 0\n      : @275 (gas: 1)\n  8716: jump @502\n      : @276 (gas: 3)\n  8719: a0 = u64 [s1 + 0xf8]\n  8723: a0 = i32 [a0]\n  8725: jump @278 if a0 >u 3\n      : @277 (gas: 1)\n  8729: jump @503\n      : @278 (gas: 4)\n  8732: a0 = s1 + 0x7ff\n  8736: a0 = a0 + 0x541\n  8740: a1 = 0x40\n  8743: ra = 242, jump @17\n      : @279 [@dyn 121] (gas: 20)\n  8749: a1 = s1 + 0x7ff\n  8753: a1 = a1 + 0x79\n  8756: a2 = a1 + 0x400\n  8760: a0 = u64 [a2 + 0xe0]\n  8764: u64 [s1 + 0x58] = a0\n  8767: a0 = u64 [a2 + 0xd8]\n  8771: u64 [s1 + 0x68] = a0\n  8774: a0 = u64 [a2 + 0xd0]\n  8778: u64 [s1 + 0x60] = a0\n  8781: a0 = u64 [a2 + 0xc8]\n  8785: u64 [s1 + 0x70] = a0\n  8788: a1 = s1 + 0x1078\n  8792: u64 [a1 + 768] = 0\n  8796: u64 [a1 + 760] = 0\n  8800: u64 [a1 + 752] = 0\n  8804: u64 [a1 + 744] = 0x4\n  8809: a0 = s1 + 0x7ff\n  8813: a0 = a0 + 0x521\n  8817: a1 = s1 + 0x1360\n  8821: ra = 244, jump @21\n      : @280 [@dyn 122] (gas: 36)\n  8827: a0 = s1 + 0x7ff\n  8831: a0 = a0 + 0x79\n  8834: t2 = u64 [a0 + 0x4b8]\n  8838: ra = u64 [a0 + 0x4b0]\n  8842: t1 = u64 [a0 + 0x4c0]\n  8846: a4 = u64 [a0 + 0x4a8]\n  8850: a0 = t2 << 0x3f\n  8853: a1 = ra >> 0x1\n  8856: a0 = a0 | a1\n  8859: a1 = t1 << 0x3f\n  8862: a2 = t2 >> 0x1\n  8865: a1 = a1 | a2\n  8868: a2 = ra << 0x3f\n  8871: a3 = a4 >> 0x1\n  8874: a5 = a3 | a2\n  8877: a2 = t1 >> 0x1\n  8880: u64 [s1 + 0xf0] = a4\n  8884: a4 = a4 & 0x1\n  8887: a3 = -a4\n  8889: a1 = a1 & a3\n  8892: t0 = a3 & a0\n  8895: a2 = a2 & a3\n  8898: a0 = a5 & 0x7f\n  8901: u64 [s1 + 0xe8] = a0\n  8905: a5 = a0 if a4 == 0\n  8908: u64 [s1 + 0xb0] = a5\n  8912: a0 = a5 <u 0x20\n  8915: u64 [s1 + 0xa0] = t0\n  8919: a0 = 0 if t0 != 0\n  8921: u64 [s1 + 0xa8] = a1\n  8925: u64 [s1 + 0x98] = a2\n  8929: a1 = a1 | a2\n  8932: a0 = 0 if a1 != 0\n  8934: u64 [s1 + 0xf8] = a4\n  8938: a1 = a4 <u 0x1\n  8941: jump @282 if a1 == a0\n      : @281 (gas: 1)\n  8944: jump @504\n      : @282 (gas: 12)\n  8947: a2 = u64 [s1 + 0x68]\n  8950: a3 = u64 [s1 + 0x70]\n  8953: a0 = a3 | a2\n  8956: a1 = u64 [s1 + 0x60]\n  8959: a4 = u64 [s1 + 0x58]\n  8962: a1 = a1 | a4\n  8965: a0 = a0 | a1\n  8968: a0 = a0 >> 0x20\n  8971: a1 = a1 | a2\n  8974: a1 = a1 << 0x20\n  8977: a1 = a1 | a0\n  8980: jump @284 if a1 == 0\n      : @283 (gas: 1)\n  8983: jump @478\n      : @284 (gas: 18)\n  8986: a0 = a3\n  8988: u64 [s1 + 0xd0] = ra\n  8992: u64 [s1 + 0xd8] = t2\n  8996: u64 [s1 + 0xe0] = t1\n  9000: a1 = u64 [s1 + 0xb0]\n  9004: a3 = s1 + 0x7ff\n  9008: a3 = a3 + 0x79\n  9011: a4 = a3 + 0x400\n  9015: u64 [a4 + 0x88] = a1\n  9019: a1 = u64 [s1 + 0xa0]\n  9023: u64 [a4 + 0x90] = a1\n  9027: a1 = u64 [s1 + 0xa8]\n  9031: u64 [a4 + 0x98] = a1\n  9035: a1 = s1 + 0x7ff\n  9039: a1 = a1 + 0x501\n  9043: a2 = u64 [s1 + 0x98]\n  9047: u64 [a4 + 0xa0] = a2\n  9051: ra = 246, jump @19\n      : @285 [@dyn 123] (gas: 2)\n  9057: a0 = u64 [s1 + 0xf8]\n  9061: jump @287 if a0 == 0\n      : @286 (gas: 1)\n  9064: jump @479\n      : @287 (gas: 10)\n  9067: a0 = u64 [s1 + 0x68]\n  9070: a1 = u64 [s1 + 0x58]\n  9073: a0 = a0 | a1\n  9076: a1 = 0xffffffe0\n  9086: a3 = u64 [s1 + 0x70]\n  9089: a1 = a3 <u a1\n  9092: a2 = u64 [s1 + 0x60]\n  9095: a1 = 0 if a2 != 0\n  9097: a1 = 0 if a0 != 0\n  9099: jump @289 if a1 != 0\n      : @288 (gas: 1)\n  9102: jump @478\n      : @289 (gas: 16)\n  9105: a1 = u64 [s1 + 0xf0]\n  9109: a1 = a1 & 0xffffffffffffff00\n  9113: i32 a0 = a3 + 0x20\n  9116: a2 = s1 + 0x7ff\n  9120: a2 = a2 + 0x79\n  9123: a3 = u64 [s1 + 0xd0]\n  9127: a4 = a2 + 0x400\n  9131: u64 [a4 + 0x10] = a3\n  9134: u64 [a4 + 0x8] = a1\n  9137: a1 = u64 [s1 + 0xd8]\n  9141: u64 [a4 + 0x18] = a1\n  9144: a1 = s1 + 0x7ff\n  9148: a1 = a1 + 0x481\n  9152: a3 = u64 [s1 + 0xe0]\n  9156: u64 [a4 + 0x20] = a3\n  9159: ra = 248, jump @19\n      : @290 [@dyn 124] (gas: 8)\n  9165: t2 = 0\n  9167: t1 = 0\n  9169: u64 [s1 + 240] = 0\n  9173: a0 = u64 [s1 + 0xe8]\n  9177: a0 = a0 >u 0\n  9179: a0 = a0 << 0x5\n  9182: u64 [s1 + 0xf8] = a0\n  9186: fallthrough\n      : @291 (gas: 37)\n  9187: a1 = u64 [s1 + 0xf8]\n  9191: a0 = a1 + 0x3f\n  9194: a1 = a0 <u a1\n  9197: a2 = t2 + a1\n  9200: a0 = a0 & 0xffffffffffffffe0\n  9203: ra = u64 [s1 + 0x70]\n  9206: ra = ra + a0\n  9209: u64 [s1 + 0xf8] = ra\n  9213: a0 = ra <u a0\n  9216: t0 = u64 [s1 + 0x60]\n  9219: a3 = a2 + t0\n  9222: ra = a3 + a0\n  9225: a3 = ra ^ a2\n  9228: a4 = ra <u a2\n  9231: a4 = a0 if a3 == 0\n  9234: a0 = a2 <u t2\n  9237: a0 = a1 if a1 == 0\n  9240: a0 = a0 + t1\n  9243: a1 = a0 <u t1\n  9246: a2 = u64 [s1 + 0x68]\n  9249: a2 = a2 + a0\n  9252: a4 = a4 + a2\n  9255: a0 = a2 <u a0\n  9258: a2 = a4 <u a2\n  9261: t1 = u64 [s1 + 0x58]\n  9264: a3 = u64 [s1 + 0xf0]\n  9268: a3 = a3 + t1\n  9271: a1 = a1 + a3\n  9274: a0 = a0 + a1\n  9277: a5 = a0 + a2\n  9280: a0 = a5 >u 0\n  9282: a1 = a4 >u 0\n  9284: a1 = a0 if a5 != 0\n  9287: a0 = a4 | a5\n  9290: a2 = ra >u 0\n  9292: a2 = a1 if a0 != 0\n  9295: jump @293 if a2 == 0\n      : @292 (gas: 1)\n  9298: jump @547\n      : @293 (gas: 15)\n  9301: a0 = u64 [s1 + 0x70]\n  9304: a1 = u64 [s1 + 0xf8]\n  9308: a0 = a1 <u a0\n  9311: a1 = ra ^ t0\n  9314: a2 = ra <u t0\n  9317: a2 = a0 if a1 == 0\n  9320: a0 = u64 [s1 + 0x68]\n  9323: t2 = a4 <u a0\n  9326: a1 = a5 ^ t1\n  9329: a3 = a5 <u t1\n  9332: a3 = t2 if a1 == 0\n  9335: a0 = a0 ^ a4\n  9338: a0 = a0 | a1\n  9341: a3 = a2 if a0 == 0\n  9344: jump @295 if a3 == 0\n      : @294 (gas: 1)\n  9347: jump @547\n      : @295 (gas: 14)\n  9350: a2 = s1 + 0x7ff\n  9354: a2 = a2 + 0x79\n  9357: a0 = u64 [s1 + 0xf8]\n  9361: u64 [a2 + 0x3e8] = a0\n  9365: u64 [a2 + 0x3f0] = ra\n  9369: u64 [a2 + 0x3f8] = a4\n  9373: a0 = 0x40\n  9376: a1 = s1 + 0x7ff\n  9380: a1 = a1 + 0x461\n  9384: u64 [a2 + 0x400] = a5\n  9388: u64 [s1 + 0xe8] = ra\n  9392: u64 [s1 + 0xe0] = a4\n  9396: u64 [s1 + 0xf0] = a5\n  9400: ra = 250, jump @19\n      : @296 [@dyn 125] (gas: 27)\n  9406: a1 = s1 + 0x7ff\n  9410: a1 = a1 + 0x79\n  9413: a0 = u64 [s1 + 0x58]\n  9416: a2 = a1 + 0x300\n  9420: u64 [a2 + 0xa0] = a0\n  9424: a0 = u64 [s1 + 0x68]\n  9427: u64 [a2 + 0x98] = a0\n  9431: a0 = u64 [s1 + 0x60]\n  9434: u64 [a2 + 0x90] = a0\n  9438: a0 = u64 [s1 + 0x70]\n  9441: u64 [a2 + 0x88] = a0\n  9445: a0 = u64 [s1 + 0xf0]\n  9449: u64 [a2 + 0xc0] = a0\n  9453: a0 = u64 [s1 + 0xe0]\n  9457: u64 [a2 + 0xb8] = a0\n  9461: a0 = u64 [s1 + 0xe8]\n  9465: u64 [a2 + 0xb0] = a0\n  9469: a4 = a1\n  9471: a0 = s1 + 0x7ff\n  9475: a0 = a0 + 0x441\n  9479: a1 = s1 + 0x7ff\n  9483: a1 = a1 + 0x421\n  9487: a2 = s1 + 0x7ff\n  9491: a2 = a2 + 0x401\n  9495: a3 = u64 [s1 + 0xf8]\n  9499: u64 [a4 + 0x3a8] = a3\n  9503: ra = 252, jump @640\n      : @297 [@dyn 126] (gas: 12)\n  9509: a3 = u64 [s1 + 0xe0]\n  9513: a4 = u64 [s1 + 0xe8]\n  9517: t0 = u64 [s1 + 0xf8]\n  9521: a0 = t0 | a3\n  9524: a1 = u64 [s1 + 0xf0]\n  9528: a1 = a1 | a4\n  9531: a0 = a0 | a1\n  9534: a0 = a0 >> 0x20\n  9537: a1 = a1 | a3\n  9540: a1 = a1 << 0x20\n  9543: a0 = a0 | a1\n  9546: jump @299 if a0 == 0\n      : @298 (gas: 1)\n  9549: jump @478\n      : @299 (gas: 33)\n  9552: a1 = s1 + 0x7ff\n  9556: a1 = a1 + 0x79\n  9559: a5 = a1 + 0x300\n  9563: a0 = u64 [a5 + 0xd0]\n  9567: a2 = u64 [a5 + 0xe0]\n  9571: u64 [s1 + 0xd8] = a2\n  9575: a2 = a3\n  9577: t1 = u64 [a1 + 0x3c8]\n  9581: a3 = u64 [a5 + 0xd8]\n  9585: t2 = a0 ^ a4\n  9588: a5 = a0 <u a4\n  9591: ra = t1 <u t0\n  9594: a5 = ra if t2 == 0\n  9597: a1 = a3 - a2\n  9600: t2 = a1 - a5\n  9603: a1 = a1 <u a5\n  9606: a3 = a3 <u a2\n  9609: a2 = u64 [s1 + 0xd8]\n  9613: a3 = a2 - a3\n  9616: a2 = u64 [s1 + 0xf0]\n  9620: a3 = a3 - a2\n  9623: a3 = a3 - a1\n  9626: a0 = a0 - a4\n  9629: a0 = a0 - ra\n  9632: a1 = t1 - t0\n  9635: a0 = a0 | a3\n  9638: a2 = a1 | t2\n  9641: a2 = a2 | a0\n  9644: a0 = a0 | t2\n  9647: a2 = a2 >> 0x20\n  9650: a0 = a0 << 0x20\n  9653: a0 = a0 | a2\n  9656: jump @301 if a0 == 0\n      : @300 (gas: 1)\n  9659: jump @478\n      : @301 (gas: 4)\n  9662: a0 = t0\n  9664: u64 [s1 + 0xf8] = a1\n  9668: ra = 0x1f6\n  9672: jump @26\n      : @302 (gas: 10)\n  9675: u64 [a2 + 288] = 0\n  9679: u64 [a2 + 280] = 0\n  9683: u64 [a2 + 272] = 0\n  9687: u64 [a2 + 264] = 0\n  9691: a0 = s1 + 0x1000\n  9695: i32 a0 = a0 + 0x180\n  9699: ra = 0xfe\n  9703: ecalli 10 // 'value_transferred'\n  9705: t0 = 0x100\n  9709: jump @752\n      : @303 [@dyn 127] (gas: 1)\n  9712: t0 = 256, jump @752\n      : @304 [@dyn 128] (gas: 1)\n  9718: t0 = 258, jump @757\n      : @305 [@dyn 129] (gas: 1)\n  9724: jump @307 if a0 == 0\n      : @306 (gas: 1)\n  9727: jump @510\n      : @307 (gas: 3)\n  9730: a0 = u64 [s1 + 0xf8]\n  9734: a0 = i32 [a0]\n  9736: jump @309 if a0 >u 3\n      : @308 (gas: 1)\n  9740: jump @511\n      : @309 (gas: 4)\n  9743: a0 = s1 + 0x7ff\n  9747: a0 = a0 + 0x1\n  9750: a1 = 0x40\n  9753: ra = 260, jump @17\n      : @310 [@dyn 130] (gas: 9)\n  9759: a0 = s1 + 0x1000\n  9763: a3 = u64 [a0 + 0xfffffffffffff818]\n  9767: a0 = s1 + 0x1000\n  9771: a1 = u64 [a0 + 0xfffffffffffff810]\n  9775: a0 = s1 + 0x1000\n  9779: a2 = u64 [a0 + 0xfffffffffffff808]\n  9783: a0 = s1 + 0x1000\n  9787: a0 = u64 [a0 + 0xfffffffffffff800]\n  9791: t0 = 262, jump @738\n      : @311 [@dyn 131] (gas: 1)\n  9797: jump @313 if a1 == 0\n      : @312 (gas: 1)\n  9800: jump @478\n      : @313 (gas: 8)\n  9803: u64 [s1 + 2040] = 0\n  9807: u64 [s1 + 2032] = 0\n  9811: u64 [s1 + 2024] = 0\n  9815: a1 = s1 + 0x7e0\n  9819: u64 [s1 + 2016] = 0x12\n  9824: u64 [s1 + 0xf8] = a0\n  9828: ra = 0x1a8\n  9832: jump @19\n      : @314 (gas: 8)\n  9835: u64 [a2 + 192] = 0\n  9839: u64 [a2 + 184] = 0\n  9843: u64 [a2 + 176] = 0\n  9847: u64 [a2 + 168] = 0\n  9851: a0 = s1 + 0x1000\n  9855: i32 a0 = a0 + 0x120\n  9859: ecalli 10 // 'value_transferred'\n  9861: fallthrough\n      : @315 (gas: 9)\n  9862: a3 = s1 + 0x1078\n  9866: a0 = u64 [a3 + 0xb8]\n  9870: a1 = u64 [a3 + 0xc0]\n  9874: a2 = u64 [a3 + 0xb0]\n  9878: a3 = u64 [a3 + 0xa8]\n  9882: a1 = a1 | a2\n  9885: a0 = a0 | a3\n  9888: a0 = a0 | a1\n  9891: jump @317 if a0 == 0\n      : @316 (gas: 1)\n  9894: jump @512\n      : @317 (gas: 4)\n  9897: a0 = u64 [s1 + 0xf8]\n  9901: a0 = i32 [a0]\n  9903: a1 = 0x63\n  9906: jump @319 if a1 <u a0\n      : @318 (gas: 1)\n  9909: jump @513\n      : @319 (gas: 4)\n  9912: a0 = s1 + 0x7c0\n  9916: ra = 0x108\n  9920: t0 = 0x244\n  9924: jump @749\n      : @320 [@dyn 132] (gas: 12)\n  9927: a0 = u64 [s1 + 0x7d8]\n  9931: u64 [s1 + 0xa8] = a0\n  9935: a0 = u64 [s1 + 0x7d0]\n  9939: u64 [s1 + 0xb8] = a0\n  9943: a0 = u64 [s1 + 0x7c8]\n  9947: u64 [s1 + 0xf8] = a0\n  9951: a0 = u64 [s1 + 0x7c0]\n  9955: u64 [s1 + 0xf0] = a0\n  9959: a0 = s1 + 0x7a0\n  9963: ra = 0x10a\n  9967: t0 = 0x24e\n  9971: jump @749\n      : @321 [@dyn 133] (gas: 34)\n  9974: a0 = u64 [s1 + 0x7b8]\n  9978: u64 [s1 + 0xa0] = a0\n  9982: a0 = u64 [s1 + 0x7b0]\n  9986: u64 [s1 + 0x98] = a0\n  9990: a0 = u64 [s1 + 0x7a8]\n  9994: u64 [s1 + 0x90] = a0\n  9998: a0 = u64 [s1 + 0x7a0]\n 10002: u64 [s1 + 0x88] = a0\n 10006: a0 = s1 + 0x1000\n 10010: i32 a0 = a0 + 0x140\n 10014: a1 = 0x44\n 10017: ecalli 1 // 'call_data_load'\n 10019: a0 = s1 + 0x1078\n 10023: a1 = u64 [a0 + 0xe0]\n 10027: u64 [s1 + 0xe8] = a1\n 10031: a1 = u64 [a0 + 0xd8]\n 10035: u64 [s1 + 0xd8] = a1\n 10039: a1 = u64 [a0 + 0xd0]\n 10043: u64 [s1 + 0xc8] = a1\n 10047: a0 = u64 [a0 + 0xc8]\n 10051: u64 [s1 + 0xd0] = a0\n 10055: a0 = u64 [s1 + 0xb8]\n 10059: a0 = a0 << 0x20\n 10062: a0 = a0 >> 0x20\n 10065: u64 [s1 + 1944] = 0\n 10069: u64 [s1 + 0x78] = a0\n 10072: u64 [s1 + 0x790] = a0\n 10076: a0 = u64 [s1 + 0xf8]\n 10080: u64 [s1 + 0x788] = a0\n 10084: a1 = s1 + 0x780\n 10088: a0 = u64 [s1 + 0xf0]\n 10092: u64 [s1 + 0x780] = a0\n 10096: a0 = 0\n 10098: ra = 268, jump @19\n      : @322 [@dyn 134] (gas: 7)\n 10104: u64 [s1 + 1912] = 0\n 10108: u64 [s1 + 1904] = 0\n 10112: u64 [s1 + 1888] = 0x1\n 10117: a0 = 0x20\n 10120: a1 = s1 + 0x760\n 10124: u64 [s1 + 1896] = 0\n 10128: ra = 270, jump @19\n      : @323 [@dyn 135] (gas: 3)\n 10134: a1 = 0x200e4\n 10139: a0 = i32 [0x200e4]\n 10144: jump @325 if a0 >u 63\n      : @324 (gas: 2)\n 10148: u32 [0x200e4] = 0x40\n 10154: fallthrough\n      : @325 (gas: 15)\n 10155: a0 = sp + 0xffffffffffffffe0\n 10158: a2 = a0 & 0xffffffffffffffe0\n 10161: u64 [s1 + 0xb0] = a2\n 10165: sp = a2\n 10167: a0 = 0x200f0\n 10172: i32 a0 = a0 + 0\n 10174: i32 a2 = a2 + 0\n 10176: u64 [s1 + 0xc0] = a1\n 10180: a1 = 0x40\n 10183: u64 [s1 + 0xe0] = a0\n 10187: ra = 0x110\n 10191: ecalli 6 // 'hash_keccak_256'\n 10193: a3 = u64 [s1 + 0xb0]\n 10197: t0 = 0x112\n 10201: jump @754\n      : @326 [@dyn 136] (gas: 2)\n 10204: a3 = u64 [s1 + 0xb0]\n 10208: t0 = 274, jump @754\n      : @327 [@dyn 137] (gas: 18)\n 10214: u64 [s1 + 0x68] = a0\n 10217: a0 = reverse a1\n 10219: u64 [s1 + 0x60] = a0\n 10222: a0 = reverse a2\n 10224: u64 [s1 + 0x58] = a0\n 10227: a0 = reverse a3\n 10229: u64 [s1 + 0x50] = a0\n 10232: a0 = sp + 0xffffffffffffffe0\n 10235: a0 = a0 & 0xffffffffffffffe0\n 10238: u64 [s1 + 0x70] = a0\n 10241: sp = a0\n 10243: a0 = 0x300f0\n 10248: u64 [s1 + 0xb0] = a0\n 10252: i32 a0 = a0 + 0\n 10254: u64 [s1 + 0x80] = a0\n 10258: ra = 0x114\n 10262: ecalli 3 // 'caller'\n 10264: fallthrough\n      : @328 [@dyn 138] (gas: 5)\n 10265: a2 = u64 [s1 + 0xb0]\n 10269: a0 = u64 [a2 + 0x8]\n 10272: a1 = i32 [a2 + 0x10]\n 10275: a2 = u64 [a2]\n 10277: t0 = 278, jump @732\n      : @329 [@dyn 139] (gas: 7)\n 10283: u64 [s1 + 1880] = 0\n 10287: u64 [s1 + 0x750] = a1\n 10291: u64 [s1 + 0x748] = a0\n 10295: a1 = s1 + 0x740\n 10299: u64 [s1 + 0x740] = a3\n 10303: a0 = 0\n 10305: ra = 280, jump @19\n      : @330 [@dyn 140] (gas: 12)\n 10311: a0 = u64 [s1 + 0x50]\n 10314: a3 = s1 + 0x700\n 10318: u64 [a3 + 0x38] = a0\n 10321: a0 = u64 [s1 + 0x58]\n 10324: u64 [a3 + 0x30] = a0\n 10327: a0 = u64 [s1 + 0x60]\n 10330: u64 [a3 + 0x28] = a0\n 10333: a0 = 0x20\n 10336: a1 = s1 + 0x720\n 10340: a2 = u64 [s1 + 0x68]\n 10343: u64 [a3 + 0x20] = a2\n 10346: ra = 282, jump @19\n      : @331 [@dyn 141] (gas: 3)\n 10352: a1 = u64 [s1 + 0xc0]\n 10356: a0 = i32 [a1]\n 10358: jump @333 if a0 >u 63\n      : @332 (gas: 2)\n 10362: u32 [a1 + 0] = 0x40\n 10365: fallthrough\n      : @333 (gas: 12)\n 10366: a0 = sp + 0xffffffffffffffe0\n 10369: a0 = a0 & 0xffffffffffffffe0\n 10372: u64 [s1 + 0x68] = a0\n 10375: sp = a0\n 10377: i32 a2 = a0 + 0\n 10379: a1 = 0x40\n 10382: a0 = u64 [s1 + 0xe0]\n 10386: ra = 0x11c\n 10390: ecalli 6 // 'hash_keccak_256'\n 10392: a3 = u64 [s1 + 0x68]\n 10395: t0 = 0x11e\n 10399: jump @734\n      : @334 [@dyn 142] (gas: 2)\n 10402: a3 = u64 [s1 + 0x68]\n 10405: t0 = 286, jump @734\n      : @335 [@dyn 143] (gas: 7)\n 10411: a1 = u64 [s1 + 0x70]\n 10414: u64 [a1 + 0x18] = a3\n 10417: u64 [a1 + 0x10] = a2\n 10420: u64 [a1 + 0x8] = a4\n 10423: u64 [a1] = a0\n 10425: a0 = s1 + 0x700\n 10429: ra = 288, jump @21\n      : @336 [@dyn 144] (gas: 8)\n 10435: t2 = u64 [s1 + 0x718]\n 10439: a3 = u64 [s1 + 0x710]\n 10443: a4 = u64 [s1 + 0x708]\n 10447: t0 = u64 [s1 + 0x700]\n 10451: a0 = a4 & t2\n 10454: a1 = t0 & a3\n 10457: a0 = a0 & a1\n 10460: jump @357 if a0 == 4294967295\n      : @337 (gas: 20)\n 10465: a0 = u64 [s1 + 0xd0]\n 10469: t1 = t0 <u a0\n 10472: a1 = u64 [s1 + 0xc8]\n 10476: a0 = a4 ^ a1\n 10479: a5 = a4 <u a1\n 10482: a5 = t1 if a0 == 0\n 10485: a2 = u64 [s1 + 0xd8]\n 10489: ra = a3 <u a2\n 10492: a1 = u64 [s1 + 0xe8]\n 10496: a0 = t2 ^ a1\n 10499: a1 = t2 <u a1\n 10502: a1 = ra if a0 == 0\n 10505: a2 = a2 ^ a3\n 10508: a0 = a0 | a2\n 10511: a1 = a5 if a0 == 0\n 10514: u64 [s1 + 0x70] = t0\n 10517: u64 [s1 + 0x68] = a4\n 10520: u64 [s1 + 0x60] = t2\n 10523: u64 [s1 + 0x58] = a3\n 10526: jump @339 if a1 == 0\n      : @338 (gas: 1)\n 10529: jump @554\n      : @339 (gas: 9)\n 10532: u64 [s1 + 0x40] = ra\n 10535: u64 [s1 + 0x48] = a5\n 10538: u64 [s1 + 0x50] = t1\n 10541: a0 = u64 [s1 + 0xf0]\n 10545: a1 = u64 [s1 + 0x78]\n 10548: a0 = a0 | a1\n 10551: a1 = u64 [s1 + 0xf8]\n 10555: a0 = a0 | a1\n 10558: jump @341 if a0 != 0\n      : @340 (gas: 1)\n 10561: jump @563\n      : @341 (gas: 3)\n 10564: a0 = u64 [s1 + 0x80]\n 10568: ecalli 3 // 'caller'\n 10570: fallthrough\n      : @342 (gas: 7)\n 10571: a2 = u64 [s1 + 0xb0]\n 10575: a0 = u32 [a2 + 0x10]\n 10578: a1 = u64 [a2]\n 10580: a2 = u64 [a2 + 0x8]\n 10583: a0 = a0 | a1\n 10586: a0 = a0 | a2\n 10589: jump @344 if a0 != 0\n      : @343 (gas: 1)\n 10592: jump @565\n      : @344 (gas: 10)\n 10595: u64 [s1 + 1784] = 0\n 10599: a0 = u64 [s1 + 0xf0]\n 10603: u64 [s1 + 0x6e0] = a0\n 10607: a0 = u64 [s1 + 0xf8]\n 10611: u64 [s1 + 0x6e8] = a0\n 10615: a1 = s1 + 0x6e0\n 10619: a0 = u64 [s1 + 0x78]\n 10622: u64 [s1 + 0x6f0] = a0\n 10626: a0 = 0\n 10628: ra = 290, jump @19\n      : @345 [@dyn 145] (gas: 7)\n 10634: u64 [s1 + 1752] = 0\n 10638: u64 [s1 + 1744] = 0\n 10642: u64 [s1 + 1728] = 0x1\n 10647: a0 = 0x20\n 10650: a1 = s1 + 0x6c0\n 10654: u64 [s1 + 1736] = 0\n 10658: ra = 292, jump @19\n      : @346 [@dyn 146] (gas: 3)\n 10664: a1 = u64 [s1 + 0xc0]\n 10668: a0 = i32 [a1]\n 10670: jump @348 if a0 >u 63\n      : @347 (gas: 2)\n 10674: u32 [a1 + 0] = 0x40\n 10677: fallthrough\n      : @348 (gas: 12)\n 10678: a0 = sp + 0xffffffffffffffe0\n 10681: a0 = a0 & 0xffffffffffffffe0\n 10684: u64 [s1 + 0x78] = a0\n 10687: sp = a0\n 10689: i32 a2 = a0 + 0\n 10691: a1 = 0x40\n 10694: a0 = u64 [s1 + 0xe0]\n 10698: ra = 0x126\n 10702: ecalli 6 // 'hash_keccak_256'\n 10704: a3 = u64 [s1 + 0x78]\n 10707: t0 = 0x128\n 10711: jump @754\n      : @349 [@dyn 147] (gas: 2)\n 10714: a3 = u64 [s1 + 0x78]\n 10717: t0 = 296, jump @754\n      : @350 [@dyn 148] (gas: 15)\n 10723: u64 [s1 + 0x38] = a0\n 10726: a0 = reverse a1\n 10728: u64 [s1 + 0x30] = a0\n 10731: a0 = reverse a2\n 10733: u64 [s1 + 0x28] = a0\n 10736: a0 = reverse a3\n 10738: u64 [s1 + 0x20] = a0\n 10741: a0 = sp + 0xffffffffffffffe0\n 10744: a0 = a0 & 0xffffffffffffffe0\n 10747: u64 [s1 + 0x78] = a0\n 10750: sp = a0\n 10752: a0 = u64 [s1 + 0x80]\n 10756: ra = 0x12a\n 10760: ecalli 3 // 'caller'\n 10762: fallthrough\n      : @351 [@dyn 149] (gas: 5)\n 10763: a2 = u64 [s1 + 0xb0]\n 10767: a0 = u64 [a2 + 0x8]\n 10770: a1 = i32 [a2 + 0x10]\n 10773: a2 = u64 [a2]\n 10775: t0 = 300, jump @732\n      : @352 [@dyn 150] (gas: 7)\n 10781: u64 [s1 + 1720] = 0\n 10785: u64 [s1 + 0x6b0] = a1\n 10789: u64 [s1 + 0x6a8] = a0\n 10793: a1 = s1 + 0x6a0\n 10797: u64 [s1 + 0x6a0] = a3\n 10801: a0 = 0\n 10803: ra = 302, jump @19\n      : @353 [@dyn 151] (gas: 12)\n 10809: a0 = u64 [s1 + 0x20]\n 10812: a3 = s1 + 0x600\n 10816: u64 [a3 + 0x98] = a0\n 10820: a0 = u64 [s1 + 0x28]\n 10823: u64 [a3 + 0x90] = a0\n 10827: a0 = u64 [s1 + 0x30]\n 10830: u64 [a3 + 0x88] = a0\n 10834: a0 = 0x20\n 10837: a1 = s1 + 0x680\n 10841: a2 = u64 [s1 + 0x38]\n 10844: u64 [a3 + 0x80] = a2\n 10848: ra = 304, jump @19\n      : @354 [@dyn 152] (gas: 3)\n 10854: a1 = u64 [s1 + 0xc0]\n 10858: a0 = i32 [a1]\n 10860: jump @356 if a0 >u 63\n      : @355 (gas: 2)\n 10864: u32 [a1 + 0] = 0x40\n 10867: fallthrough\n      : @356 (gas: 49)\n 10868: a0 = sp + 0xffffffffffffffe0\n 10871: a0 = a0 & 0xffffffffffffffe0\n 10874: u64 [s1 + 0xc0] = a0\n 10878: sp = a0\n 10880: i32 a2 = a0 + 0\n 10882: a1 = 0x40\n 10885: a0 = u64 [s1 + 0xe0]\n 10889: ecalli 6 // 'hash_keccak_256'\n 10891: a0 = u64 [s1 + 0xd8]\n 10895: a1 = u64 [s1 + 0x58]\n 10898: a0 = a1 - a0\n 10901: a2 = u64 [s1 + 0x48]\n 10904: a1 = a0 - a2\n 10907: a0 = a0 <u a2\n 10910: a2 = u64 [s1 + 0xe8]\n 10914: a3 = u64 [s1 + 0x60]\n 10917: a2 = a3 - a2\n 10920: a3 = u64 [s1 + 0x40]\n 10923: a2 = a2 - a3\n 10926: a2 = a2 - a0\n 10929: a0 = u64 [s1 + 0xc8]\n 10933: a3 = u64 [s1 + 0x68]\n 10936: a0 = a3 - a0\n 10939: a3 = u64 [s1 + 0x50]\n 10942: a0 = a0 - a3\n 10945: a3 = s1 + 0x1078\n 10949: u64 [a3 + 0x100] = a2\n 10953: u64 [a3 + 0xf8] = a1\n 10957: u64 [a3 + 0xf0] = a0\n 10961: a4 = u64 [s1 + 0xc0]\n 10965: a0 = u64 [a4]\n 10967: a1 = u64 [s1 + 0xd0]\n 10971: a2 = u64 [s1 + 0x70]\n 10974: a1 = a2 - a1\n 10977: u64 [a3 + 0xe8] = a1\n 10981: a1 = u64 [a4 + 0x8]\n 10984: a2 = reverse a0\n 10986: a0 = u64 [s1 + 0x78]\n 10989: u64 [a0 + 0x18] = a2\n 10992: a3 = u64 [a4 + 0x10]\n 10995: a2 = u64 [a4 + 0x18]\n 10998: a1 = reverse a1\n 11000: u64 [a0 + 0x10] = a1\n 11003: a1 = reverse a3\n 11005: u64 [a0 + 0x8] = a1\n 11008: a1 = reverse a2\n 11010: u64 [a0] = a1\n 11012: a1 = s1 + 0x1160\n 11016: ra = 306, jump @22\n      : @357 [@dyn 153] (gas: 28)\n 11022: a0 = u64 [s1 + 0xd0]\n 11026: u64 [s1 + 0x520] = a0\n 11030: a0 = u64 [s1 + 0x88]\n 11034: u64 [s1 + 0x540] = a0\n 11038: a0 = u64 [s1 + 0xf0]\n 11042: u64 [s1 + 0x560] = a0\n 11046: a0 = u64 [s1 + 0xc8]\n 11050: u64 [s1 + 0x528] = a0\n 11054: a0 = u64 [s1 + 0x90]\n 11058: u64 [s1 + 0x548] = a0\n 11062: a0 = u64 [s1 + 0xf8]\n 11066: u64 [s1 + 0x568] = a0\n 11070: a0 = u64 [s1 + 0xd8]\n 11074: u64 [s1 + 0x530] = a0\n 11078: a0 = u64 [s1 + 0x98]\n 11082: u64 [s1 + 0x550] = a0\n 11086: a0 = u64 [s1 + 0xb8]\n 11090: u64 [s1 + 0x570] = a0\n 11094: a0 = u64 [s1 + 0xe8]\n 11098: u64 [s1 + 0x538] = a0\n 11102: a0 = u64 [s1 + 0xa0]\n 11106: u64 [s1 + 0x558] = a0\n 11110: a0 = s1 + 0x560\n 11114: a1 = s1 + 0x540\n 11118: a2 = s1 + 0x520\n 11122: a3 = u64 [s1 + 0xa8]\n 11126: u64 [s1 + 0x578] = a3\n 11130: ra = 308, jump @669\n      : @358 [@dyn 154] (gas: 3)\n 11136: a0 = s1 + 0x500\n 11140: a1 = 0x40\n 11143: ra = 310, jump @17\n      : @359 [@dyn 155] (gas: 6)\n 11149: a4 = s1 + 0x500\n 11153: a3 = u64 [a4 + 0x18]\n 11156: a1 = u64 [a4 + 0x10]\n 11159: a2 = u64 [a4 + 0x8]\n 11162: a0 = u64 [a4]\n 11164: t0 = 312, jump @738\n      : @360 [@dyn 156] (gas: 1)\n 11170: jump @478 if a1 != 0\n      : @361 (gas: 8)\n 11174: u64 [s1 + 1272] = 0\n 11178: u64 [s1 + 1264] = 0\n 11182: u64 [s1 + 1256] = 0\n 11186: a1 = s1 + 0x4e0\n 11190: u64 [s1 + 1248] = 0x1\n 11195: u64 [s1 + 0xf8] = a0\n 11199: ra = 0x1a8\n 11203: jump @19\n      : @362 (gas: 10)\n 11206: u64 [a2 + 864] = 0\n 11210: u64 [a2 + 856] = 0\n 11214: u64 [a2 + 848] = 0\n 11218: u64 [a2 + 840] = 0\n 11222: a0 = s1 + 0x1000\n 11226: i32 a0 = a0 + 0x3c0\n 11230: ra = 0x13a\n 11234: ecalli 10 // 'value_transferred'\n 11236: t0 = 0x13c\n 11240: jump @751\n      : @363 [@dyn 157] (gas: 1)\n 11243: t0 = 316, jump @751\n      : @364 [@dyn 158] (gas: 8)\n 11249: a0 = u64 [a4 + 0x58]\n 11252: a1 = u64 [a4 + 0x60]\n 11255: a2 = u64 [a4 + 0x50]\n 11258: a3 = u64 [a4 + 0x48]\n 11261: a1 = a1 | a2\n 11264: a0 = a0 | a3\n 11267: a0 = a0 | a1\n 11270: jump @366 if a0 == 0\n      : @365 (gas: 1)\n 11273: jump @514\n      : @366 (gas: 4)\n 11276: a0 = u64 [s1 + 0xf8]\n 11280: a0 = i32 [a0]\n 11282: a1 = 0x43\n 11285: jump @368 if a1 <u a0\n      : @367 (gas: 1)\n 11288: jump @515\n      : @368 (gas: 7)\n 11291: a0 = 0xffffffff\n 11301: u64 [s1 + 0xf8] = a0\n 11305: a0 = s1 + 0x7ff\n 11309: a0 = a0 + 0x721\n 11313: ra = 0x13e\n 11317: t0 = 0x244\n 11321: jump @749\n      : @369 [@dyn 159] (gas: 13)\n 11324: a1 = s1 + 0x7ff\n 11328: a1 = a1 + 0x79\n 11331: a0 = u64 [a1 + 0x6a8]\n 11335: u64 [s1 + 0xf0] = a0\n 11339: a0 = u64 [a1 + 0x6b0]\n 11343: u64 [s1 + 0xd0] = a0\n 11347: a0 = u32 [a1 + 0x6b8]\n 11351: u64 [s1 + 0xc8] = a0\n 11355: a0 = s1 + 0x7ff\n 11359: a0 = a0 + 0x701\n 11363: ra = 0x140\n 11367: t0 = 0x24e\n 11371: jump @749\n      : @370 [@dyn 160] (gas: 21)\n 11374: a1 = s1 + 0x7ff\n 11378: a1 = a1 + 0x79\n 11381: a2 = a1 + 0x600\n 11385: a0 = u64 [a2 + 0x98]\n 11389: u64 [s1 + 0xe8] = a0\n 11393: a0 = u64 [a2 + 0x90]\n 11397: u64 [s1 + 0xe0] = a0\n 11401: a0 = u64 [a2 + 0x88]\n 11405: u64 [s1 + 0xd8] = a0\n 11409: u64 [a1 + 1664] = 0\n 11413: a0 = u64 [s1 + 0xc8]\n 11417: u64 [a2 + 0x78] = a0\n 11420: a0 = u64 [s1 + 0xd0]\n 11424: u64 [a2 + 0x70] = a0\n 11427: a2 = a1\n 11429: a1 = s1 + 0x7ff\n 11433: a1 = a1 + 0x6e1\n 11437: a0 = u64 [s1 + 0xf0]\n 11441: u64 [a2 + 0x668] = a0\n 11445: a0 = 0\n 11447: ra = 322, jump @19\n      : @371 [@dyn 161] (gas: 11)\n 11453: a1 = s1 + 0x7ff\n 11457: a1 = a1 + 0x79\n 11460: u64 [a1 + 1632] = 0\n 11464: u64 [a1 + 1624] = 0\n 11468: u64 [a1 + 1608] = 0x1\n 11473: a2 = a1\n 11475: a0 = 0x20\n 11478: a1 = s1 + 0x7ff\n 11482: a1 = a1 + 0x6c1\n 11486: u64 [a2 + 1616] = 0\n 11490: ra = 324, jump @19\n      : @372 [@dyn 162] (gas: 3)\n 11496: a1 = 0x200e4\n 11501: a0 = i32 [0x200e4]\n 11506: jump @374 if a0 >u 63\n      : @373 (gas: 2)\n 11510: u32 [0x200e4] = 0x40\n 11516: fallthrough\n      : @374 (gas: 15)\n 11517: a0 = sp + 0xffffffffffffffe0\n 11520: a2 = a0 & 0xffffffffffffffe0\n 11523: u64 [s1 + 0xc8] = a2\n 11527: sp = a2\n 11529: a0 = 0x200f0\n 11534: i32 a0 = a0 + 0\n 11536: i32 a2 = a2 + 0\n 11538: u64 [s1 + 0xf0] = a1\n 11542: a1 = 0x40\n 11545: u64 [s1 + 0xd0] = a0\n 11549: ra = 0x146\n 11553: ecalli 6 // 'hash_keccak_256'\n 11555: a3 = u64 [s1 + 0xc8]\n 11559: t0 = 0x148\n 11563: jump @754\n      : @375 [@dyn 163] (gas: 2)\n 11566: a3 = u64 [s1 + 0xc8]\n 11570: t0 = 328, jump @754\n      : @376 [@dyn 164] (gas: 29)\n 11576: u64 [s1 + 0xc0] = a0\n 11580: a0 = reverse a1\n 11582: u64 [s1 + 0xb8] = a0\n 11586: a0 = reverse a2\n 11588: u64 [s1 + 0xb0] = a0\n 11592: a0 = reverse a3\n 11594: u64 [s1 + 0xa8] = a0\n 11598: a0 = sp + 0xffffffffffffffe0\n 11601: a0 = a0 & 0xffffffffffffffe0\n 11604: u64 [s1 + 0xc8] = a0\n 11608: sp = a0\n 11610: a0 = u64 [s1 + 0xd8]\n 11614: a0 = a0 & 0xffffffffffffffff\n 11617: a2 = u64 [s1 + 0xe0]\n 11621: a1 = a2 & 0xffffffffffffffff\n 11624: a2 = u64 [s1 + 0xf8]\n 11628: a3 = u64 [s1 + 0xe8]\n 11632: a2 = a2 & a3\n 11635: a3 = s1 + 0x7ff\n 11639: a3 = a3 + 0x79\n 11642: u64 [a3 + 1600] = 0\n 11646: a4 = a3 + 0x600\n 11650: u64 [a4 + 0x38] = a2\n 11653: u64 [a4 + 0x30] = a1\n 11656: a1 = s1 + 0x7ff\n 11660: a1 = a1 + 0x6a1\n 11664: u64 [a4 + 0x28] = a0\n 11667: a0 = 0\n 11669: ra = 330, jump @19\n      : @377 [@dyn 165] (gas: 16)\n 11675: a0 = u64 [s1 + 0xa8]\n 11679: a1 = s1 + 0x7ff\n 11683: a1 = a1 + 0x79\n 11686: a2 = a1 + 0x600\n 11690: u64 [a2 + 0x20] = a0\n 11693: a0 = u64 [s1 + 0xb0]\n 11697: u64 [a2 + 0x18] = a0\n 11700: a0 = u64 [s1 + 0xb8]\n 11704: u64 [a2 + 0x10] = a0\n 11707: a3 = a1\n 11709: a0 = 0x20\n 11712: a1 = s1 + 0x7ff\n 11716: a1 = a1 + 0x681\n 11720: a2 = u64 [s1 + 0xc0]\n 11724: u64 [a3 + 0x608] = a2\n 11728: ra = 332, jump @19\n      : @378 [@dyn 166] (gas: 3)\n 11734: a1 = u64 [s1 + 0xf0]\n 11738: a0 = i32 [a1]\n 11740: jump @380 if a0 >u 63\n      : @379 (gas: 2)\n 11744: u32 [a1 + 0] = 0x40\n 11747: fallthrough\n      : @380 (gas: 12)\n 11748: a0 = sp + 0xffffffffffffffe0\n 11751: a0 = a0 & 0xffffffffffffffe0\n 11754: u64 [s1 + 0xf8] = a0\n 11758: sp = a0\n 11760: i32 a2 = a0 + 0\n 11762: a1 = 0x40\n 11765: a0 = u64 [s1 + 0xd0]\n 11769: ra = 0x14e\n 11773: ecalli 6 // 'hash_keccak_256'\n 11775: a3 = u64 [s1 + 0xf8]\n 11779: t0 = 0x150\n 11783: jump @734\n      : @381 [@dyn 167] (gas: 2)\n 11786: a3 = u64 [s1 + 0xf8]\n 11790: t0 = 336, jump @734\n      : @382 [@dyn 168] (gas: 8)\n 11796: a1 = u64 [s1 + 0xc8]\n 11800: u64 [a1 + 0x18] = a3\n 11803: u64 [a1 + 0x10] = a2\n 11806: u64 [a1 + 0x8] = a4\n 11809: u64 [a1] = a0\n 11811: a0 = s1 + 0x7ff\n 11815: a0 = a0 + 0x661\n 11819: ra = 338, jump @21\n      : @383 [@dyn 169] (gas: 15)\n 11825: a1 = s1 + 0x7ff\n 11829: a1 = a1 + 0x79\n 11832: a0 = u64 [a1 + 0x600]\n 11836: u64 [s1 + 0xf8] = a0\n 11840: a2 = a1 + 0x500\n 11844: a0 = u64 [a2 + 0xf8]\n 11848: u64 [s1 + 0xf0] = a0\n 11852: a0 = u64 [a2 + 0xf0]\n 11856: u64 [s1 + 0xe8] = a0\n 11860: a0 = u64 [a2 + 0xe8]\n 11864: u64 [s1 + 0xe0] = a0\n 11868: a0 = s1 + 0x7ff\n 11872: a0 = a0 + 0x641\n 11876: a1 = 0x40\n 11879: ra = 340, jump @17\n      : @384 [@dyn 170] (gas: 15)\n 11885: a3 = s1 + 0x7ff\n 11889: a3 = a3 + 0x79\n 11892: a5 = a3 + 0x500\n 11896: a0 = u64 [a5 + 0xe0]\n 11900: a1 = u64 [a5 + 0xd8]\n 11904: a2 = u64 [a5 + 0xd0]\n 11908: a4 = u64 [a5 + 0xc8]\n 11912: a0 = a0 | a2\n 11915: a2 = a4 | a1\n 11918: a2 = a2 | a0\n 11921: a2 = a2 >> 0x20\n 11924: a0 = a0 | a1\n 11927: a0 = a0 << 0x20\n 11930: a0 = a0 | a2\n 11933: jump @478 if a0 != 0\n      : @385 (gas: 15)\n 11937: a0 = u64 [s1 + 0xe0]\n 11941: a2 = a3 + 0x500\n 11945: u64 [a2 + 0xa8] = a0\n 11949: a0 = u64 [s1 + 0xe8]\n 11953: u64 [a2 + 0xb0] = a0\n 11957: a0 = u64 [s1 + 0xf0]\n 11961: u64 [a2 + 0xb8] = a0\n 11965: a1 = s1 + 0x7ff\n 11969: a1 = a1 + 0x621\n 11973: a0 = u64 [s1 + 0xf8]\n 11977: u64 [a2 + 0xc0] = a0\n 11981: a0 = a4\n 11983: u64 [s1 + 0xf8] = a4\n 11987: ra = 0x1a8\n 11991: jump @19\n      : @386 (gas: 1)\n 11994: jump @388 if a0 == 1889567281\n      : @387 (gas: 1)\n 12001: jump @516\n      : @388 (gas: 10)\n 12004: u64 [a2 + 480] = 0\n 12008: u64 [a2 + 472] = 0\n 12012: u64 [a2 + 464] = 0\n 12016: u64 [a2 + 456] = 0\n 12020: a0 = s1 + 0x1000\n 12024: i32 a0 = a0 + 0x240\n 12028: ra = 0x156\n 12032: ecalli 10 // 'value_transferred'\n 12034: t0 = 0x158\n 12038: jump @752\n      : @389 [@dyn 171] (gas: 1)\n 12041: t0 = 344, jump @752\n      : @390 [@dyn 172] (gas: 8)\n 12047: a0 = u64 [a4 + 0xd8]\n 12051: a1 = u64 [a4 + 0xe0]\n 12055: a2 = u64 [a4 + 0xd0]\n 12059: a3 = u64 [a4 + 0xc8]\n 12063: a1 = a1 | a2\n 12066: a0 = a0 | a3\n 12069: a0 = a0 | a1\n 12072: jump @392 if a0 == 0\n      : @391 (gas: 1)\n 12075: jump @521\n      : @392 (gas: 4)\n 12078: a0 = u64 [s1 + 0xf8]\n 12082: a0 = i32 [a0]\n 12084: a1 = 0x23\n 12087: jump @394 if a1 <u a0\n      : @393 (gas: 1)\n 12090: jump @522\n      : @394 (gas: 5)\n 12093: a0 = s1 + 0x7ff\n 12097: a0 = a0 + 0x281\n 12101: ra = 0x15a\n 12105: t0 = 0x244\n 12109: jump @749\n      : @395 [@dyn 173] (gas: 14)\n 12112: a3 = s1 + 0x7ff\n 12116: a3 = a3 + 0x79\n 12119: a0 = u64 [a3 + 0x208]\n 12123: a1 = u64 [a3 + 0x210]\n 12127: a2 = u32 [a3 + 0x218]\n 12131: u64 [a3 + 512] = 0\n 12135: a4 = a3 + 0x100\n 12139: u64 [a4 + 0xf8] = a2\n 12143: u64 [a4 + 0xf0] = a1\n 12147: a1 = s1 + 0x7ff\n 12151: a1 = a1 + 0x261\n 12155: u64 [a4 + 0xe8] = a0\n 12159: a0 = 0\n 12161: ra = 348, jump @19\n      : @396 [@dyn 174] (gas: 11)\n 12167: a0 = s1 + 0x7ff\n 12171: a0 = a0 + 0x79\n 12174: u64 [a0 + 480] = 0\n 12178: u64 [a0 + 472] = 0\n 12182: u64 [a0 + 464] = 0\n 12186: a2 = a0\n 12188: a0 = 0x20\n 12191: a1 = s1 + 0x7ff\n 12195: a1 = a1 + 0x241\n 12199: u64 [a2 + 456] = 0\n 12203: ra = 350, jump @19\n      : @397 [@dyn 175] (gas: 2)\n 12209: a1 = i32 [0x200e4]\n 12214: jump @399 if a1 >u 63\n      : @398 (gas: 2)\n 12218: u32 [0x200e4] = 0x40\n 12224: fallthrough\n      : @399 (gas: 28)\n 12225: a0 = sp + 0xffffffffffffffe0\n 12228: a2 = a0 & 0xffffffffffffffe0\n 12231: u64 [s1 + 0xf8] = a2\n 12235: sp = a2\n 12237: a0 = 0x200f0\n 12242: i32 a0 = a0 + 0\n 12244: i32 a2 = a2 + 0\n 12246: a1 = 0x40\n 12249: ecalli 6 // 'hash_keccak_256'\n 12251: a3 = u64 [s1 + 0xf8]\n 12255: a0 = u64 [a3 + 0x18]\n 12258: a1 = u64 [a3 + 0x10]\n 12261: a2 = u64 [a3 + 0x8]\n 12264: a3 = u64 [a3]\n 12266: a0 = reverse a0\n 12268: a1 = reverse a1\n 12270: a2 = reverse a2\n 12272: a3 = reverse a3\n 12274: a4 = s1 + 0x1078\n 12278: u64 [a4 + 0x200] = a3\n 12282: a3 = a4 + 0x100\n 12286: u64 [a3 + 0xf8] = a2\n 12290: u64 [a3 + 0xf0] = a1\n 12294: u64 [a3 + 0xe8] = a0\n 12298: a0 = s1 + 0x7ff\n 12302: a0 = a0 + 0x221\n 12306: a1 = s1 + 0x1260\n 12310: ra = 352, jump @21\n      : @400 [@dyn 176] (gas: 15)\n 12316: a1 = s1 + 0x7ff\n 12320: a1 = a1 + 0x79\n 12323: a2 = a1 + 0x100\n 12327: a0 = u64 [a2 + 0xc0]\n 12331: u64 [s1 + 0xf8] = a0\n 12335: a0 = u64 [a2 + 0xb8]\n 12339: u64 [s1 + 0xf0] = a0\n 12343: a0 = u64 [a2 + 0xb0]\n 12347: u64 [s1 + 0xe8] = a0\n 12351: a0 = u64 [a2 + 0xa8]\n 12355: u64 [s1 + 0xe0] = a0\n 12359: a0 = s1 + 0x7ff\n 12363: a0 = a0 + 0x201\n 12367: a1 = 0x40\n 12370: ra = 354, jump @17\n      : @401 [@dyn 177] (gas: 15)\n 12376: a3 = s1 + 0x7ff\n 12380: a3 = a3 + 0x79\n 12383: a5 = a3 + 0x100\n 12387: a0 = u64 [a5 + 0xa0]\n 12391: a1 = u64 [a5 + 0x98]\n 12395: a2 = u64 [a5 + 0x90]\n 12399: a4 = u64 [a5 + 0x88]\n 12403: a0 = a0 | a2\n 12406: a2 = a4 | a1\n 12409: a2 = a2 | a0\n 12412: a2 = a2 >> 0x20\n 12415: a0 = a0 | a1\n 12418: a0 = a0 << 0x20\n 12421: a0 = a0 | a2\n 12424: jump @478 if a0 != 0\n      : @402 (gas: 15)\n 12428: a0 = u64 [s1 + 0xe0]\n 12432: a2 = a3 + 0x100\n 12436: u64 [a2 + 0x68] = a0\n 12439: a0 = u64 [s1 + 0xe8]\n 12443: u64 [a2 + 0x70] = a0\n 12446: a0 = u64 [s1 + 0xf0]\n 12450: u64 [a2 + 0x78] = a0\n 12453: a1 = s1 + 0x7ff\n 12457: a1 = a1 + 0x1e1\n 12461: a0 = u64 [s1 + 0xf8]\n 12465: u64 [a2 + 0x80] = a0\n 12469: a0 = a4\n 12471: u64 [s1 + 0xf8] = a4\n 12475: ra = 0x1a8\n 12479: jump @19\n      : @403 (gas: 8)\n 12482: u64 [a2 + 64] = 0\n 12485: u64 [a2 + 56] = 0\n 12488: u64 [a2 + 48] = 0\n 12491: u64 [a2 + 40] = 0\n 12494: a0 = s1 + 0x1000\n 12498: i32 a0 = a0 + 0xa0\n 12502: ecalli 10 // 'value_transferred'\n 12504: fallthrough\n      : @404 (gas: 9)\n 12505: a3 = s1 + 0x1078\n 12509: a0 = u64 [a3 + 0x38]\n 12512: a1 = u64 [a3 + 0x40]\n 12515: a2 = u64 [a3 + 0x30]\n 12518: a3 = u64 [a3 + 0x28]\n 12521: a1 = a1 | a2\n 12524: a0 = a0 | a3\n 12527: a0 = a0 | a1\n 12530: jump @523 if a0 != 0\n      : @405 (gas: 4)\n 12534: a0 = u64 [s1 + 0xf8]\n 12538: a0 = i32 [a0]\n 12540: a1 = 0x43\n 12543: jump @524 if a1 >=u a0\n      : @406 (gas: 4)\n 12547: a0 = s1 + 0x460\n 12551: ra = 0x164\n 12555: t0 = 0x244\n 12559: jump @749\n      : @407 [@dyn 178] (gas: 35)\n 12562: a1 = s1 + 0x400\n 12566: a0 = u64 [a1 + 0x70]\n 12569: u64 [s1 + 0xd8] = a0\n 12573: a0 = u64 [a1 + 0x68]\n 12576: u64 [s1 + 0xf0] = a0\n 12580: a0 = u64 [a1 + 0x60]\n 12583: u64 [s1 + 0xf8] = a0\n 12587: a0 = sp + 0xffffffffffffffe0\n 12590: a0 = a0 & 0xffffffffffffffe0\n 12593: u64 [s1 + 0xe0] = a0\n 12597: sp = a0\n 12599: a0 = s1 + 0x1000\n 12603: i32 a0 = a0 + 0xc0\n 12607: a1 = 0x24\n 12610: ecalli 1 // 'call_data_load'\n 12612: a0 = s1 + 0x1078\n 12616: a1 = u64 [a0 + 0x60]\n 12619: a2 = u64 [a0 + 0x58]\n 12622: a3 = u64 [a0 + 0x50]\n 12625: a0 = u64 [a0 + 0x48]\n 12628: u64 [s1 + 0x90] = a1\n 12632: a4 = u64 [s1 + 0xe0]\n 12636: u64 [a4 + 0x18] = a1\n 12639: u64 [s1 + 0x88] = a2\n 12643: u64 [a4 + 0x10] = a2\n 12646: u64 [s1 + 0x80] = a3\n 12650: u64 [a4 + 0x8] = a3\n 12653: u64 [s1 + 0x78] = a0\n 12656: u64 [a4] = a0\n 12658: a0 = 0x300f0\n 12663: u64 [s1 + 0xe8] = a0\n 12667: i32 a0 = a0 + 0\n 12669: u64 [s1 + 0xd0] = a0\n 12673: ecalli 3 // 'caller'\n 12675: fallthrough\n      : @408 (gas: 7)\n 12676: a2 = u64 [s1 + 0xe8]\n 12680: a0 = u32 [a2 + 0x10]\n 12683: a1 = u64 [a2]\n 12685: a2 = u64 [a2 + 0x8]\n 12688: a0 = a0 | a1\n 12691: a0 = a0 | a2\n 12694: jump @525 if a0 == 0\n      : @409 (gas: 9)\n 12698: a0 = u64 [s1 + 0xd8]\n 12702: a0 = a0 << 0x20\n 12705: a1 = a0 >> 0x20\n 12708: a0 = u64 [s1 + 0xf0]\n 12712: a2 = u64 [s1 + 0xf8]\n 12716: a0 = a0 | a2\n 12719: u64 [s1 + 0xd8] = a1\n 12723: a0 = a0 | a1\n 12726: jump @530 if a0 == 0\n      : @410 (gas: 4)\n 12730: a0 = u64 [s1 + 0xd0]\n 12734: ra = 0x166\n 12738: ecalli 3 // 'caller'\n 12740: fallthrough\n      : @411 [@dyn 179] (gas: 5)\n 12741: a2 = u64 [s1 + 0xe8]\n 12745: a0 = u64 [a2 + 0x8]\n 12748: a1 = i32 [a2 + 0x10]\n 12751: a2 = u64 [a2]\n 12753: t0 = 360, jump @732\n      : @412 [@dyn 180] (gas: 7)\n 12759: u64 [s1 + 1112] = 0\n 12763: u64 [s1 + 0x450] = a1\n 12767: u64 [s1 + 0x448] = a0\n 12771: a1 = s1 + 0x440\n 12775: u64 [s1 + 0x440] = a3\n 12779: a0 = 0\n 12781: ra = 362, jump @19\n      : @413 [@dyn 181] (gas: 7)\n 12787: u64 [s1 + 1080] = 0\n 12791: u64 [s1 + 1072] = 0\n 12795: u64 [s1 + 1056] = 0x1\n 12800: a0 = 0x20\n 12803: a1 = s1 + 0x420\n 12807: u64 [s1 + 1064] = 0\n 12811: ra = 364, jump @19\n      : @414 [@dyn 182] (gas: 3)\n 12817: a1 = 0x200e4\n 12822: a0 = i32 [0x200e4]\n 12827: jump @416 if a0 >u 63\n      : @415 (gas: 2)\n 12831: u32 [0x200e4] = 0x40\n 12837: fallthrough\n      : @416 (gas: 15)\n 12838: a0 = sp + 0xffffffffffffffe0\n 12841: a2 = a0 & 0xffffffffffffffe0\n 12844: u64 [s1 + 0xb8] = a2\n 12848: sp = a2\n 12850: a0 = 0x200f0\n 12855: i32 a0 = a0 + 0\n 12857: i32 a2 = a2 + 0\n 12859: u64 [s1 + 0xc8] = a1\n 12863: a1 = 0x40\n 12866: u64 [s1 + 0xc0] = a0\n 12870: ra = 0x16e\n 12874: ecalli 6 // 'hash_keccak_256'\n 12876: a3 = u64 [s1 + 0xb8]\n 12880: t0 = 0x170\n 12884: jump @754\n      : @417 [@dyn 183] (gas: 2)\n 12887: a3 = u64 [s1 + 0xb8]\n 12891: t0 = 368, jump @754\n      : @418 [@dyn 184] (gas: 22)\n 12897: u64 [s1 + 0xb0] = a0\n 12901: a0 = reverse a1\n 12903: u64 [s1 + 0xa8] = a0\n 12907: a0 = reverse a2\n 12909: u64 [s1 + 0xa0] = a0\n 12913: a0 = reverse a3\n 12915: u64 [s1 + 0x98] = a0\n 12919: a0 = sp + 0xffffffffffffffe0\n 12922: a0 = a0 & 0xffffffffffffffe0\n 12925: u64 [s1 + 0xb8] = a0\n 12929: sp = a0\n 12931: u64 [s1 + 1048] = 0\n 12935: a0 = u64 [s1 + 0xd8]\n 12939: a2 = s1 + 0x400\n 12943: u64 [a2 + 0x10] = a0\n 12946: a0 = u64 [s1 + 0xf0]\n 12950: u64 [a2 + 0x8] = a0\n 12953: a1 = s1 + 0x400\n 12957: a0 = u64 [s1 + 0xf8]\n 12961: u64 [a2] = a0\n 12963: a0 = 0\n 12965: ra = 370, jump @19\n      : @419 [@dyn 185] (gas: 12)\n 12971: a0 = u64 [s1 + 0x98]\n 12975: a3 = s1 + 0x300\n 12979: u64 [a3 + 0xf8] = a0\n 12983: a0 = u64 [s1 + 0xa0]\n 12987: u64 [a3 + 0xf0] = a0\n 12991: a0 = u64 [s1 + 0xa8]\n 12995: u64 [a3 + 0xe8] = a0\n 12999: a0 = 0x20\n 13002: a1 = s1 + 0x3e0\n 13006: a2 = u64 [s1 + 0xb0]\n 13010: u64 [a3 + 0xe0] = a2\n 13014: ra = 372, jump @19\n      : @420 [@dyn 186] (gas: 3)\n 13020: a1 = u64 [s1 + 0xc8]\n 13024: a0 = i32 [a1]\n 13026: jump @422 if a0 >u 63\n      : @421 (gas: 2)\n 13030: u32 [a1 + 0] = 0x40\n 13033: fallthrough\n      : @422 (gas: 24)\n 13034: a0 = sp + 0xffffffffffffffe0\n 13037: a0 = a0 & 0xffffffffffffffe0\n 13040: u64 [s1 + 0xc8] = a0\n 13044: sp = a0\n 13046: i32 a2 = a0 + 0\n 13048: a1 = 0x40\n 13051: a0 = u64 [s1 + 0xc0]\n 13055: ecalli 6 // 'hash_keccak_256'\n 13057: a3 = u64 [s1 + 0xc8]\n 13061: a0 = u64 [a3 + 0x18]\n 13064: a1 = u64 [a3 + 0x10]\n 13067: a2 = u64 [a3 + 0x8]\n 13070: a3 = u64 [a3]\n 13072: a4 = reverse a0\n 13074: a1 = reverse a1\n 13076: a2 = reverse a2\n 13078: a3 = reverse a3\n 13080: a0 = u64 [s1 + 0xb8]\n 13084: u64 [a0 + 0x18] = a3\n 13087: u64 [a0 + 0x10] = a2\n 13090: u64 [a0 + 0x8] = a1\n 13093: u64 [a0] = a4\n 13095: a1 = u64 [s1 + 0xe0]\n 13099: ra = 374, jump @22\n      : @423 [@dyn 187] (gas: 3)\n 13105: a0 = s1 + 0x3c0\n 13109: a1 = 0x40\n 13112: ra = 376, jump @17\n      : @424 [@dyn 188] (gas: 13)\n 13118: a4 = s1 + 0x300\n 13122: a0 = u64 [a4 + 0xd8]\n 13126: a1 = u64 [a4 + 0xd0]\n 13130: a2 = u64 [a4 + 0xc8]\n 13134: a3 = u64 [a4 + 0xc0]\n 13138: a0 = a0 | a2\n 13141: a2 = a3 | a1\n 13144: a2 = a2 | a0\n 13147: a2 = a2 >> 0x20\n 13150: a0 = a0 | a1\n 13153: a0 = a0 << 0x20\n 13156: a0 = a0 | a2\n 13159: jump @478 if a0 != 0\n      : @425 (gas: 12)\n 13163: a0 = u64 [s1 + 0x78]\n 13166: u64 [s1 + 0x3a0] = a0\n 13170: a0 = u64 [s1 + 0x80]\n 13174: u64 [s1 + 0x3a8] = a0\n 13178: a0 = u64 [s1 + 0x88]\n 13182: u64 [s1 + 0x3b0] = a0\n 13186: a1 = s1 + 0x3a0\n 13190: a0 = u64 [s1 + 0x90]\n 13194: u64 [s1 + 0x3b8] = a0\n 13198: a0 = a3\n 13200: u64 [s1 + 0xe0] = a3\n 13204: ra = 378, jump @19\n      : @426 [@dyn 189] (gas: 6)\n 13210: a0 = u64 [s1 + 0xd0]\n 13214: ra = 0x17c\n 13218: ecalli 3 // 'caller'\n 13220: a2 = u64 [s1 + 0xe8]\n 13224: t0 = 0x17e\n 13228: jump @753\n      : @427 [@dyn 190] (gas: 2)\n 13231: a2 = u64 [s1 + 0xe8]\n 13235: t0 = 382, jump @753\n      : @428 [@dyn 191] (gas: 31)\n 13241: t0 = a1 | a0\n 13244: a3 = a3 >> 0x20\n 13247: a2 = reverse a2\n 13249: a1 = a2 << 0x20\n 13252: a1 = a1 | a3\n 13255: a2 = a2 >> 0x20\n 13258: u64 [s1 + 856] = 0\n 13262: a0 = u64 [s1 + 0xd8]\n 13266: u64 [s1 + 0x350] = a0\n 13270: a0 = u64 [s1 + 0xf0]\n 13274: u64 [s1 + 0x348] = a0\n 13278: a0 = u64 [s1 + 0xf8]\n 13282: u64 [s1 + 0x340] = a0\n 13286: u64 [s1 + 888] = 0\n 13290: a3 = u64 [0x20080]\n 13295: a4 = u64 [0x20088]\n 13300: a5 = u64 [0x20090]\n 13305: a0 = u64 [0x20098]\n 13310: u64 [s1 + 0x398] = a3\n 13314: u64 [s1 + 0x390] = a4\n 13318: u64 [s1 + 0x388] = a5\n 13322: u64 [s1 + 0x380] = a0\n 13326: u64 [s1 + 0x370] = a2\n 13330: u64 [s1 + 0x368] = a1\n 13334: a1 = 0x20\n 13337: a2 = s1 + 0x380\n 13341: a3 = s1 + 0x360\n 13345: a4 = s1 + 0x340\n 13349: u64 [s1 + 0x360] = t0\n 13353: a0 = u64 [s1 + 0xe0]\n 13357: ra = 384, jump @23\n      : @429 [@dyn 192] (gas: 3)\n 13363: a0 = s1 + 0x320\n 13367: a1 = 0x40\n 13370: ra = 386, jump @17\n      : @430 [@dyn 193] (gas: 6)\n 13376: a4 = s1 + 0x300\n 13380: a3 = u64 [a4 + 0x38]\n 13383: a1 = u64 [a4 + 0x30]\n 13386: a2 = u64 [a4 + 0x28]\n 13389: a0 = u64 [a4 + 0x20]\n 13392: t0 = 388, jump @738\n      : @431 [@dyn 194] (gas: 1)\n 13398: jump @478 if a1 != 0\n      : @432 (gas: 8)\n 13402: u64 [s1 + 792] = 0\n 13406: u64 [s1 + 784] = 0\n 13410: u64 [s1 + 776] = 0\n 13414: a1 = s1 + 0x300\n 13418: u64 [s1 + 768] = 0x1\n 13423: u64 [s1 + 0xf8] = a0\n 13427: ra = 0x1a8\n 13431: jump @19\n      : @433 (gas: 8)\n 13434: u64 [a2 + 0] = 0\n 13436: u64 [a2 + 4294967288] = 0\n 13439: u64 [a2 + 4294967280] = 0\n 13442: u64 [a2 + 4294967272] = 0\n 13445: a0 = s1 + 0x1000\n 13449: i32 a0 = a0 + 0x60\n 13452: ecalli 10 // 'value_transferred'\n 13454: fallthrough\n      : @434 (gas: 10)\n 13455: a3 = s1 + 0x1078\n 13459: a4 = a3 + 0xffffffffffffff00\n 13463: a0 = u64 [a4 + 0xf8]\n 13467: a1 = u64 [a3]\n 13469: a2 = u64 [a4 + 0xf0]\n 13473: a3 = u64 [a4 + 0xe8]\n 13477: a1 = a1 | a2\n 13480: a0 = a0 | a3\n 13483: a0 = a0 | a1\n 13486: jump @535 if a0 != 0\n      : @435 (gas: 3)\n 13490: a0 = u64 [s1 + 0xf8]\n 13494: a1 = i32 [a0]\n 13496: jump @536 if a1 <=u 3\n      : @436 (gas: 8)\n 13501: a1 = s1 + 0x1078\n 13505: u64 [a1 + 32] = 0\n 13508: u64 [a1 + 24] = 0\n 13511: u64 [a1 + 16] = 0\n 13514: u64 [a1 + 8] = 0x3\n 13518: a0 = s1 + 0x260\n 13522: a1 = s1 + 0x1080\n 13526: ra = 390, jump @21\n      : @437 [@dyn 195] (gas: 34)\n 13532: a1 = s1 + 0x200\n 13536: a2 = u64 [a1 + 0x70]\n 13539: a3 = u64 [a1 + 0x68]\n 13542: a5 = u64 [a1 + 0x78]\n 13545: a0 = u64 [a1 + 0x60]\n 13548: a4 = a2 << 0x3f\n 13551: a1 = a3 >> 0x1\n 13554: t0 = a1 | a4\n 13557: a1 = a5 << 0x3f\n 13560: u64 [s1 + 0xf0] = a2\n 13564: a2 = a2 >> 0x1\n 13567: a1 = a1 | a2\n 13570: u64 [s1 + 0xe0] = a3\n 13574: a2 = a3 << 0x3f\n 13577: a3 = a0 >> 0x1\n 13580: a4 = a3 | a2\n 13583: u64 [s1 + 0xe8] = a5\n 13587: t1 = a5 >> 0x1\n 13590: u64 [s1 + 0xd0] = a0\n 13594: a5 = a0 & 0x1\n 13597: a3 = -a5\n 13599: t2 = a3 & a1\n 13602: a2 = a3 & t0\n 13605: a3 = a3 & t1\n 13608: a0 = a4 & 0x7f\n 13611: u64 [s1 + 0xd8] = a0\n 13615: a4 = a0 if a5 == 0\n 13618: a0 = a4 <u 0x20\n 13621: a0 = 0 if a2 != 0\n 13623: a1 = t2 | a3\n 13626: a0 = 0 if a1 != 0\n 13628: u64 [s1 + 0xf8] = a5\n 13632: a1 = a5 <u 0x1\n 13635: jump @537 if a1 != a0\n      : @438 (gas: 12)\n 13639: u64 [s1 + 0xb8] = a4\n 13643: a5 = s1 + 0x200\n 13647: u64 [a5 + 0x40] = a4\n 13650: u64 [s1 + 0xa8] = a2\n 13654: u64 [a5 + 0x48] = a2\n 13657: u64 [s1 + 0xb0] = t2\n 13661: u64 [s1 + 0x250] = t2\n 13665: a0 = 0x80\n 13669: a1 = s1 + 0x240\n 13673: u64 [s1 + 0xa0] = a3\n 13677: u64 [a5 + 0x58] = a3\n 13680: ra = 392, jump @19\n      : @439 [@dyn 196] (gas: 2)\n 13686: a0 = u64 [s1 + 0xf8]\n 13690: jump @466 if a0 != 0\n      : @440 (gas: 13)\n 13694: a0 = u64 [s1 + 0xd0]\n 13698: a0 = a0 & 0xffffffffffffff00\n 13702: a1 = u64 [s1 + 0xe0]\n 13706: a2 = s1 + 0x100\n 13710: u64 [a2 + 0xc8] = a1\n 13714: u64 [a2 + 0xc0] = a0\n 13718: a0 = u64 [s1 + 0xf0]\n 13722: u64 [a2 + 0xd0] = a0\n 13726: a0 = u64 [s1 + 0xe8]\n 13730: u64 [a2 + 0xd8] = a0\n 13734: a0 = 0xa0\n 13738: a1 = s1 + 0x1c0\n 13742: ra = 394, jump @19\n      : @441 [@dyn 197] (gas: 7)\n 13748: a1 = 0\n 13750: a0 = 0\n 13752: t0 = 0\n 13754: a3 = 0xc0\n 13758: a2 = u64 [s1 + 0xd8]\n 13762: a3 = 0xa0 if a2 == 0\n 13766: jump @474\n      : @442 (gas: 11)\n 13769: a0 = s1 + 0x1078\n 13773: u64 [a0 + 672] = 0\n 13777: u64 [a0 + 664] = 0\n 13781: u64 [a0 + 656] = 0\n 13785: u64 [a0 + 648] = 0\n 13789: a0 = s1 + 0x1000\n 13793: i32 a0 = a0 + 0x300\n 13797: ra = 0x18c\n 13801: ecalli 10 // 'value_transferred'\n 13803: t0 = 0x18e\n 13807: jump @750\n      : @443 [@dyn 198] (gas: 1)\n 13810: t0 = 398, jump @750\n      : @444 [@dyn 199] (gas: 8)\n 13816: a0 = u64 [a4 + 0x98]\n 13820: a1 = u64 [a4 + 0xa0]\n 13824: a2 = u64 [a4 + 0x90]\n 13828: a3 = u64 [a4 + 0x88]\n 13832: a1 = a1 | a2\n 13835: a0 = a0 | a3\n 13838: a0 = a0 | a1\n 13841: jump @543 if a0 != 0\n      : @445 (gas: 3)\n 13845: a0 = u64 [s1 + 0xf8]\n 13849: a0 = i32 [a0]\n 13851: jump @544 if a0 <=u 3\n      : @446 (gas: 9)\n 13856: a1 = s1 + 0x1078\n 13860: u64 [a1 + 704] = 0\n 13864: u64 [a1 + 696] = 0\n 13868: u64 [a1 + 688] = 0\n 13872: u64 [a1 + 680] = 0x5\n 13877: a0 = s1 + 0x7ff\n 13881: a0 = a0 + 0x361\n 13885: a1 = s1 + 0x1320\n 13889: ra = 400, jump @21\n      : @447 [@dyn 200] (gas: 13)\n 13895: a1 = s1 + 0x7ff\n 13899: a1 = a1 + 0x79\n 13902: a2 = a1 + 0x200\n 13906: a0 = u64 [a2 + 0xf8]\n 13910: u64 [s1 + 0xe8] = a0\n 13914: a0 = u64 [a2 + 0xf0]\n 13918: u64 [s1 + 0xf8] = a0\n 13922: a0 = u64 [a2 + 0xe8]\n 13926: u64 [s1 + 0xf0] = a0\n 13930: a0 = s1 + 0x7ff\n 13934: a0 = a0 + 0x341\n 13938: a1 = 0x40\n 13941: ra = 402, jump @17\n      : @448 [@dyn 201] (gas: 8)\n 13947: a3 = s1 + 0x7ff\n 13951: a3 = a3 + 0x79\n 13954: a5 = a3 + 0x200\n 13958: a4 = u64 [a5 + 0xe0]\n 13962: a1 = u64 [a5 + 0xd8]\n 13966: a2 = u64 [a5 + 0xd0]\n 13970: a0 = u64 [a5 + 0xc8]\n 13974: t0 = 404, jump @745\n      : @449 [@dyn 202] (gas: 1)\n 13980: jump @478 if a1 != 0\n      : @450 (gas: 15)\n 13984: a1 = u64 [s1 + 0xe8]\n 13988: a1 = a1 << 0x20\n 13991: a2 = a1 >> 0x20\n 13994: u64 [a3 + 704] = 0\n 13998: a1 = u64 [s1 + 0xf0]\n 14002: a4 = a3 + 0x200\n 14006: u64 [a4 + 0xa8] = a1\n 14010: a1 = u64 [s1 + 0xf8]\n 14014: u64 [a4 + 0xb0] = a1\n 14018: a1 = s1 + 0x7ff\n 14022: a1 = a1 + 0x321\n 14026: u64 [a4 + 0xb8] = a2\n 14030: u64 [s1 + 0xf8] = a0\n 14034: ra = 0x1a8\n 14038: jump @19\n      : @451 (gas: 10)\n 14041: u64 [a2 + 800] = 0\n 14045: u64 [a2 + 792] = 0\n 14049: u64 [a2 + 784] = 0\n 14053: u64 [a2 + 776] = 0\n 14057: a0 = s1 + 0x1000\n 14061: i32 a0 = a0 + 0x380\n 14065: ra = 0x196\n 14069: ecalli 10 // 'value_transferred'\n 14071: t0 = 0x198\n 14075: jump @751\n      : @452 [@dyn 203] (gas: 1)\n 14078: t0 = 408, jump @751\n      : @453 [@dyn 204] (gas: 1)\n 14084: t0 = 410, jump @757\n      : @454 [@dyn 205] (gas: 1)\n 14090: jump @545 if a0 != 0\n      : @455 (gas: 4)\n 14094: a0 = u64 [s1 + 0xf8]\n 14098: a0 = i32 [a0]\n 14100: a1 = 0x43\n 14103: jump @546 if a1 >=u a0\n      : @456 (gas: 5)\n 14107: a0 = s1 + 0x7ff\n 14111: a0 = a0 + 0x601\n 14115: ra = 0x19c\n 14119: t0 = 0x244\n 14123: jump @749\n      : @457 [@dyn 206] (gas: 33)\n 14126: a1 = s1 + 0x7ff\n 14130: a1 = a1 + 0x79\n 14133: a2 = a1 + 0x500\n 14137: a0 = u64 [a2 + 0x88]\n 14141: u64 [s1 + 0xf8] = a0\n 14145: a0 = u64 [a2 + 0x90]\n 14149: u64 [s1 + 0xf0] = a0\n 14153: a0 = u64 [a2 + 0x98]\n 14157: u64 [s1 + 0xe8] = a0\n 14161: a0 = u64 [a2 + 0xa0]\n 14165: u64 [s1 + 0xe0] = a0\n 14169: a0 = s1 + 0x1000\n 14173: i32 a0 = a0 + 0x3a0\n 14177: a1 = 0x24\n 14180: ecalli 1 // 'call_data_load'\n 14182: a0 = s1 + 0x1078\n 14186: a2 = a0 + 0x300\n 14190: a1 = u64 [a2 + 0x28]\n 14193: u64 [s1 + 0xd8] = a1\n 14197: a1 = u64 [a2 + 0x30]\n 14200: u64 [s1 + 0xd0] = a1\n 14204: a1 = u64 [a2 + 0x38]\n 14207: u64 [s1 + 0xc8] = a1\n 14211: a0 = u64 [a2 + 0x40]\n 14214: u64 [s1 + 0xc0] = a0\n 14218: a0 = 0x300f0\n 14223: u64 [s1 + 0xb8] = a0\n 14227: i32 a0 = a0 + 0\n 14229: ra = 0x19e\n 14233: ecalli 3 // 'caller'\n 14235: a2 = u64 [s1 + 0xb8]\n 14239: t0 = 0x1a0\n 14243: jump @736\n      : @458 [@dyn 207] (gas: 2)\n 14246: a2 = u64 [s1 + 0xb8]\n 14250: t0 = 416, jump @736\n      : @459 [@dyn 208] (gas: 30)\n 14256: a3 = s1 + 0x7ff\n 14260: a3 = a3 + 0x79\n 14263: a4 = u64 [s1 + 0xc0]\n 14267: a5 = a3 + 0x500\n 14271: u64 [a5 + 0x40] = a4\n 14274: a4 = u64 [s1 + 0xc8]\n 14278: u64 [a5 + 0x38] = a4\n 14281: a4 = u64 [s1 + 0xd0]\n 14285: u64 [a5 + 0x30] = a4\n 14288: a4 = u64 [s1 + 0xd8]\n 14292: u64 [a5 + 0x28] = a4\n 14295: a4 = u64 [s1 + 0xe0]\n 14299: u64 [a5 + 0x60] = a4\n 14302: a4 = u64 [s1 + 0xe8]\n 14306: u64 [a5 + 0x58] = a4\n 14309: a4 = u64 [s1 + 0xf0]\n 14313: u64 [a5 + 0x50] = a4\n 14316: a4 = u64 [s1 + 0xf8]\n 14320: u64 [a5 + 0x48] = a4\n 14323: u64 [a5 + 0x78] = a2\n 14326: u64 [a5 + 0x70] = a0\n 14329: u64 [a5 + 0x68] = a1\n 14332: a0 = s1 + 0x7ff\n 14336: a0 = a0 + 0x5e1\n 14340: a1 = s1 + 0x7ff\n 14344: a1 = a1 + 0x5c1\n 14348: a2 = s1 + 0x7ff\n 14352: a2 = a2 + 0x5a1\n 14356: u64 [a3 + 1408] = 0\n 14360: ra = 418, jump @669\n      : @460 [@dyn 209] (gas: 4)\n 14366: a0 = s1 + 0x7ff\n 14370: a0 = a0 + 0x581\n 14374: a1 = 0x40\n 14377: ra = 420, jump @17\n      : @461 [@dyn 210] (gas: 8)\n 14383: a3 = s1 + 0x7ff\n 14387: a3 = a3 + 0x79\n 14390: a5 = a3 + 0x500\n 14394: a4 = u64 [a5 + 0x20]\n 14397: a1 = u64 [a5 + 0x18]\n 14400: a2 = u64 [a5 + 0x10]\n 14403: a0 = u64 [a5 + 0x8]\n 14406: t0 = 422, jump @745\n      : @462 [@dyn 211] (gas: 1)\n 14412: jump @478 if a1 != 0\n      : @463 (gas: 8)\n 14416: u64 [a3 + 1280] = 0\n 14420: u64 [a3 + 1272] = 0\n 14424: u64 [a3 + 1256] = 0x1\n 14429: a1 = s1 + 0x7ff\n 14433: a1 = a1 + 0x561\n 14437: u64 [a3 + 1264] = 0\n 14441: u64 [s1 + 0xf8] = a0\n 14445: ra = 424, jump @19\n      : @464 [@dyn 212] (gas: 3)\n 14451: a1 = 0x20\n 14454: a0 = u64 [s1 + 0xf8]\n 14458: ra = 426, jump @26\n      : @465 [@dyn 213] (gas: 5)\n 14464: i32 a1 = a0 + 0\n 14466: a2 = 0x20\n 14469: a0 = 0\n 14471: ecalli 7 // 'seal_return'\n 14473: fallthrough\n      : @466 (gas: 7)\n 14474: u64 [s1 + 568] = 0\n 14478: u64 [s1 + 560] = 0\n 14482: u64 [s1 + 552] = 0\n 14486: a1 = s1 + 0x220\n 14490: u64 [s1 + 544] = 0x3\n 14495: a0 = 0\n 14497: ra = 428, jump @19\n      : @467 [@dyn 214] (gas: 21)\n 14503: a0 = sp + 0xffffffffffffffe0\n 14506: a1 = a0 & 0xffffffffffffffe0\n 14509: sp = a1\n 14511: u64 [s1 + 248] = 0\n 14515: a5 = 0\n 14517: t2 = 0\n 14519: t0 = 0\n 14521: t1 = u64 [0x200a0]\n 14526: a2 = u64 [0x200a8]\n 14531: ra = u64 [0x200b0]\n 14536: a0 = u64 [0x200b8]\n 14541: u64 [a1 + 0x18] = t1\n 14544: u64 [s1 + 0xd0] = a2\n 14548: u64 [a1 + 0x10] = a2\n 14551: u64 [a1 + 0x8] = ra\n 14554: a2 = a0\n 14556: u64 [a1] = a0\n 14558: a0 = 0xffffff60\n 14568: u64 [s1 + 0x98] = a0\n 14572: u64 [s1 + 0x90] = a1\n 14576: fallthrough\n      : @468 (gas: 19)\n 14577: u64 [s1 + 0xd8] = a2\n 14581: a0 = u64 [s1 + 0xb8]\n 14585: a2 = u64 [s1 + 0xf8]\n 14589: a0 = a2 <u a0\n 14592: a2 = u64 [s1 + 0xa8]\n 14596: a3 = a5 ^ a2\n 14599: u64 [s1 + 0xf0] = a5\n 14603: a2 = a5 <u a2\n 14606: a2 = a0 if a3 == 0\n 14609: a4 = u64 [s1 + 0xb0]\n 14613: a0 = t2 <u a4\n 14616: a3 = u64 [s1 + 0xa0]\n 14620: a5 = t0 ^ a3\n 14623: a3 = t0 <u a3\n 14626: a3 = a0 if a5 == 0\n 14629: a0 = t2 ^ a4\n 14632: a0 = a0 | a5\n 14635: a3 = a2 if a0 == 0\n 14638: jump @473 if a3 == 0\n      : @469 (gas: 6)\n 14642: a0 = s1 + 0x200\n 14646: u64 [s1 + 0xe8] = t0\n 14650: u64 [s1 + 0xc8] = t1\n 14654: u64 [s1 + 0xe0] = t2\n 14658: u64 [s1 + 0xc0] = ra\n 14662: ra = 430, jump @21\n      : @470 [@dyn 215] (gas: 10)\n 14668: a5 = u64 [s1 + 0xe0]\n 14672: a0 = u64 [s1 + 0xe8]\n 14676: a0 = a0 | a5\n 14679: a1 = u64 [s1 + 0xf8]\n 14683: a2 = u64 [s1 + 0x98]\n 14687: a1 = a1 <u a2\n 14690: a2 = u64 [s1 + 0xf0]\n 14694: a1 = 0 if a2 != 0\n 14696: a1 = 0 if a0 != 0\n 14698: jump @478 if a1 == 0\n      : @471 (gas: 14)\n 14702: t0 = u64 [s1 + 0x218]\n 14706: a0 = s1 + 0x200\n 14710: a1 = u64 [a0 + 0x10]\n 14713: a3 = u64 [a0 + 0x8]\n 14716: a4 = u64 [a0]\n 14718: a0 = u64 [s1 + 0xf8]\n 14722: i32 a0 = a0 + 0xa0\n 14726: a2 = s1 + 0x100\n 14730: u64 [a2 + 0xe0] = a4\n 14734: u64 [a2 + 0xe8] = a3\n 14738: u64 [a2 + 0xf0] = a1\n 14742: a1 = s1 + 0x1e0\n 14746: u64 [s1 + 0x1f8] = t0\n 14750: ra = 432, jump @19\n      : @472 [@dyn 216] (gas: 36)\n 14756: t0 = u64 [s1 + 0xe8]\n 14760: a5 = u64 [s1 + 0xd8]\n 14764: a5 = a5 + 0x1\n 14767: a0 = a5 <u 0x1\n 14770: ra = u64 [s1 + 0xc0]\n 14774: ra = ra + a0\n 14777: a0 = a5 | ra\n 14780: a0 = a0 <u 0x1\n 14783: a1 = u64 [s1 + 0xd0]\n 14787: a0 = a0 + a1\n 14790: a1 = a0 <u a1\n 14793: a3 = u64 [s1 + 0xc8]\n 14797: a3 = a3 + a1\n 14800: a1 = u64 [s1 + 0xf8]\n 14804: t1 = a1 + 0x20\n 14807: a2 = t1 <u a1\n 14810: a4 = u64 [s1 + 0xf0]\n 14814: t2 = a4 + a2\n 14817: a4 = t2 <u a4\n 14820: a4 = a2 if a2 == 0\n 14823: a1 = u64 [s1 + 0xe0]\n 14827: a4 = a4 + a1\n 14830: a2 = a4 <u a1\n 14833: t0 = t0 + a2\n 14836: a1 = u64 [s1 + 0x90]\n 14840: u64 [a1 + 0x8] = ra\n 14843: a2 = a5\n 14845: u64 [a1] = a5\n 14847: u64 [a1 + 0x10] = a0\n 14850: u64 [a1 + 0x18] = a3\n 14853: u64 [s1 + 0xd0] = a0\n 14857: u64 [s1 + 0xf8] = t1\n 14861: a5 = t2\n 14863: t2 = a4\n 14865: t1 = a3\n 14867: jump @468\n      : @473 (gas: 11)\n 14870: a0 = u64 [s1 + 0xf8]\n 14874: a3 = a0 + 0xa0\n 14878: a0 = a3 <u a0\n 14881: a2 = u64 [s1 + 0xf0]\n 14885: a1 = a2 + a0\n 14888: a2 = a1 <u a2\n 14891: a2 = a0 if a0 == 0\n 14894: a0 = t2 + a2\n 14897: a2 = a0 <u t2\n 14900: t0 = t0 + a2\n 14903: fallthrough\n      : @474 (gas: 37)\n 14904: t1 = a3 + 0xffffffffffffff9f\n 14907: a3 = t1 <u a3\n 14910: a5 = a1 + a3\n 14913: a5 = a5 + 0xffffffffffffffff\n 14916: u64 [s1 + 0xd8] = a5\n 14920: a2 = a5 ^ a1\n 14923: a1 = a5 <u a1\n 14926: a1 = a3 if a2 == 0\n 14929: a3 = a0 + 0xffffffffffffffff\n 14932: a4 = a3 + a1\n 14935: a1 = a4 <u a3\n 14938: a0 = a0 <u 0x1\n 14941: a2 = t0 - a0\n 14944: t0 = a2 + a1\n 14947: u64 [s1 + 0xc0] = t0\n 14951: a0 = t1 & 0xffffffffffffffe0\n 14954: u64 [s1 + 0xd0] = a0\n 14958: a3 = a0 + 0x80\n 14962: u64 [s1 + 0xf8] = a3\n 14966: a0 = a3 <u a0\n 14969: a2 = a5 + a0\n 14972: u64 [s1 + 0xf0] = a2\n 14976: a1 = a2 <u a5\n 14979: a1 = a0 if a0 == 0\n 14982: u64 [s1 + 0xc8] = a4\n 14986: a1 = a1 + a4\n 14989: u64 [s1 + 0xe8] = a1\n 14993: a0 = a1 <u a4\n 14996: t0 = t0 + a0\n 14999: u64 [s1 + 0xe0] = t0\n 15003: u64 [s1 + 0x1a0] = a3\n 15007: u64 [s1 + 0x1a8] = a2\n 15011: u64 [s1 + 0x1b0] = a1\n 15015: a0 = 0x40\n 15018: a1 = s1 + 0x1a0\n 15022: u64 [s1 + 0x1b8] = t0\n 15026: ra = 434, jump @19\n      : @475 [@dyn 217] (gas: 17)\n 15032: u64 [s1 + 344] = 0\n 15036: u64 [s1 + 336] = 0\n 15040: u64 [s1 + 328] = 0\n 15044: a4 = s1 + 0x100\n 15048: u64 [a4 + 64] = 0x80\n 15053: a0 = u64 [s1 + 0xe0]\n 15057: u64 [a4 + 0x78] = a0\n 15060: a0 = u64 [s1 + 0xe8]\n 15064: u64 [a4 + 0x70] = a0\n 15067: a0 = u64 [s1 + 0xf0]\n 15071: u64 [a4 + 0x68] = a0\n 15074: a0 = s1 + 0x180\n 15078: a1 = s1 + 0x160\n 15082: a2 = s1 + 0x140\n 15086: a3 = u64 [s1 + 0xf8]\n 15090: u64 [a4 + 0x60] = a3\n 15093: ra = 436, jump @640\n      : @476 [@dyn 218] (gas: 10)\n 15099: a0 = u64 [s1 + 0xc8]\n 15103: a1 = u64 [s1 + 0xc0]\n 15107: a0 = a0 | a1\n 15110: a1 = 0xffffff80\n 15120: a2 = u64 [s1 + 0xd0]\n 15124: a1 = a2 <u a1\n 15127: a2 = u64 [s1 + 0xd8]\n 15131: a1 = 0 if a2 != 0\n 15133: a1 = 0 if a0 != 0\n 15135: jump @478 if a1 == 0\n      : @477 (gas: 30)\n 15138: ra = u64 [s1 + 0x190]\n 15142: a1 = u64 [s1 + 0x198]\n 15146: t1 = u64 [s1 + 0x180]\n 15150: a3 = u64 [s1 + 0x188]\n 15154: a2 = u64 [s1 + 0xe8]\n 15158: a4 = ra <u a2\n 15161: a1 = a1 - a4\n 15164: a0 = u64 [s1 + 0xe0]\n 15168: t0 = a1 - a0\n 15171: a1 = u64 [s1 + 0xf0]\n 15175: a4 = a3 ^ a1\n 15178: a5 = a3 <u a1\n 15181: a0 = u64 [s1 + 0xf8]\n 15185: t2 = t1 <u a0\n 15188: a5 = t2 if a4 == 0\n 15191: a2 = ra - a2\n 15194: a4 = a2 <u a5\n 15197: a4 = t0 - a4\n 15200: a5 = a2 - a5\n 15203: a3 = a3 - t2\n 15206: a3 = a3 - a1\n 15209: a1 = t1 - a0\n 15212: a2 = a1 | a5\n 15215: a3 = a3 | a4\n 15218: a2 = a2 | a3\n 15221: a2 = a2 >> 0x20\n 15224: a3 = a3 | a5\n 15227: a3 = a3 << 0x20\n 15230: a2 = a2 | a3\n 15233: jump @571 if a2 == 0\n      : @478 (gas: 1)\n 15237: trap\n      : @479 (gas: 10)\n 15238: a2 = s1 + 0x7ff\n 15242: a2 = a2 + 0x79\n 15245: u64 [a2 + 1152] = 0\n 15249: u64 [a2 + 1144] = 0\n 15253: u64 [a2 + 1136] = 0\n 15257: a1 = s1 + 0x7ff\n 15261: a1 = a1 + 0x4e1\n 15265: u64 [a2 + 1128] = 0x4\n 15270: a0 = 0\n 15272: ra = 438, jump @19\n      : @480 [@dyn 219] (gas: 37)\n 15278: a0 = sp + 0xffffffffffffffe0\n 15281: a4 = a0 & 0xffffffffffffffe0\n 15284: sp = a4\n 15286: u64 [s1 + 248] = 0\n 15290: t2 = 0\n 15292: t1 = 0\n 15294: u64 [s1 + 240] = 0\n 15298: t0 = u64 [0x20040]\n 15303: a3 = u64 [0x20048]\n 15308: a1 = u64 [s1 + 0x70]\n 15311: a0 = a1 + 0x20\n 15314: u64 [s1 + 0x90] = a0\n 15318: a0 = a0 <u a1\n 15321: a1 = u64 [s1 + 0x60]\n 15324: a2 = a1 + a0\n 15327: u64 [s1 + 0x88] = a2\n 15331: a1 = a2 <u a1\n 15334: a1 = a0 if a0 == 0\n 15337: a5 = u64 [0x20050]\n 15342: a0 = u64 [0x20058]\n 15347: ra = t0\n 15349: u64 [a4 + 0x18] = t0\n 15352: u64 [s1 + 0xb8] = a3\n 15356: u64 [a4 + 0x10] = a3\n 15359: t0 = a5\n 15361: u64 [a4 + 0x8] = a5\n 15364: u64 [s1 + 0xd8] = a4\n 15368: a2 = a0\n 15370: u64 [a4] = a0\n 15372: a0 = u64 [s1 + 0x68]\n 15375: a1 = a1 + a0\n 15378: u64 [s1 + 0x80] = a1\n 15382: a0 = a1 <u a0\n 15385: a1 = u64 [s1 + 0x58]\n 15388: a0 = a0 + a1\n 15391: u64 [s1 + 0x78] = a0\n 15394: fallthrough\n      : @481 (gas: 21)\n 15395: u64 [s1 + 0xc0] = a2\n 15399: u64 [s1 + 0xc8] = t0\n 15403: u64 [s1 + 0xd0] = ra\n 15407: a0 = u64 [s1 + 0xb0]\n 15411: a1 = u64 [s1 + 0xf8]\n 15415: a0 = a1 <u a0\n 15418: a2 = u64 [s1 + 0xa0]\n 15422: a1 = t2 ^ a2\n 15425: a2 = t2 <u a2\n 15428: a2 = a0 if a1 == 0\n 15431: a4 = u64 [s1 + 0xa8]\n 15435: a0 = t1 <u a4\n 15438: a3 = u64 [s1 + 0x98]\n 15442: a1 = u64 [s1 + 0xf0]\n 15446: a5 = a1 ^ a3\n 15449: a3 = a1 <u a3\n 15452: a3 = a0 if a5 == 0\n 15455: a0 = t1 ^ a4\n 15458: a0 = a0 | a5\n 15461: a3 = a2 if a0 == 0\n 15464: jump @483 if a3 != 0\n      : @482 (gas: 1)\n 15467: jump @291\n      : @483 (gas: 6)\n 15470: a0 = s1 + 0x7ff\n 15474: a0 = a0 + 0x4c1\n 15478: a1 = u64 [s1 + 0xd8]\n 15482: u64 [s1 + 0xe8] = t1\n 15486: u64 [s1 + 0xe0] = t2\n 15490: ra = 440, jump @21\n      : @484 [@dyn 220] (gas: 30)\n 15496: t2 = u64 [s1 + 0xf8]\n 15500: t1 = u64 [s1 + 0xe0]\n 15504: ra = u64 [s1 + 0xe8]\n 15508: a1 = u64 [s1 + 0x90]\n 15512: a0 = a1 + t2\n 15515: a1 = a0 <u a1\n 15518: a4 = u64 [s1 + 0x88]\n 15522: a2 = a4 + t1\n 15525: a2 = a2 + a1\n 15528: a5 = a2 ^ a4\n 15531: a4 = a2 <u a4\n 15534: a4 = a1 if a5 == 0\n 15537: a5 = u64 [s1 + 0x80]\n 15541: a1 = a5 + ra\n 15544: t0 = a1 <u a5\n 15547: a5 = u64 [s1 + 0xf0]\n 15551: a3 = u64 [s1 + 0x78]\n 15554: a5 = a5 + a3\n 15557: a5 = a5 + t0\n 15560: a4 = a4 + a1\n 15563: a1 = a4 <u a1\n 15566: a1 = a1 + a5\n 15569: a1 = a1 | a2\n 15572: a2 = a0 | a4\n 15575: a2 = a2 | a1\n 15578: a1 = a1 | a4\n 15581: a2 = a2 >> 0x20\n 15584: a1 = a1 << 0x20\n 15587: a1 = a1 | a2\n 15590: jump @478 if a1 != 0\n      : @485 (gas: 15)\n 15594: a5 = s1 + 0x7ff\n 15598: a5 = a5 + 0x79\n 15601: t0 = u64 [a5 + 0x460]\n 15605: a3 = a5 + 0x400\n 15609: a1 = u64 [a3 + 0x58]\n 15612: a2 = u64 [a3 + 0x50]\n 15615: a4 = u64 [a3 + 0x48]\n 15618: u64 [a3 + 0x28] = a4\n 15621: u64 [a3 + 0x30] = a2\n 15624: u64 [a3 + 0x38] = a1\n 15627: a1 = s1 + 0x7ff\n 15631: a1 = a1 + 0x4a1\n 15635: u64 [a5 + 0x440] = t0\n 15639: u64 [s1 + 0xf8] = t2\n 15643: ra = 442, jump @19\n      : @486 [@dyn 221] (gas: 39)\n 15649: a3 = u64 [s1 + 0xc0]\n 15653: a3 = a3 + 0x1\n 15656: a0 = a3 <u 0x1\n 15659: ra = u64 [s1 + 0xc8]\n 15663: ra = ra + a0\n 15666: a0 = a3 | ra\n 15669: a0 = a0 <u 0x1\n 15672: a1 = u64 [s1 + 0xb8]\n 15676: t2 = a1 + a0\n 15679: a1 = t2 <u a1\n 15682: a0 = u64 [s1 + 0xd0]\n 15686: a0 = a0 + a1\n 15689: a1 = u64 [s1 + 0xf8]\n 15693: t1 = a1 + 0x20\n 15696: a2 = t1 <u a1\n 15699: a4 = u64 [s1 + 0xe0]\n 15703: a1 = a4 + a2\n 15706: a4 = a1 <u a4\n 15709: a4 = a2 if a2 == 0\n 15712: a2 = u64 [s1 + 0xe8]\n 15716: a4 = a4 + a2\n 15719: a2 = a4 <u a2\n 15722: a5 = u64 [s1 + 0xf0]\n 15726: a5 = a5 + a2\n 15729: u64 [s1 + 0xf0] = a5\n 15733: t0 = ra\n 15735: a5 = u64 [s1 + 0xd8]\n 15739: u64 [a5 + 0x8] = ra\n 15742: a2 = a3\n 15744: u64 [a5] = a3\n 15746: a3 = t2\n 15748: u64 [a5 + 0x10] = a3\n 15751: ra = a0\n 15753: u64 [a5 + 0x18] = a0\n 15756: u64 [s1 + 0xb8] = a3\n 15760: u64 [s1 + 0xf8] = t1\n 15764: t2 = a1\n 15766: t1 = a4\n 15768: jump @481\n      : @487 (gas: 6)\n 15771: a1 = 0x200f0\n 15776: i32 a1 = a1 + 0\n 15778: a0 = 0x1\n 15781: a2 = 0\n 15783: ecalli 7 // 'seal_return'\n 15785: jump @581\n      : @488 (gas: 6)\n 15788: a1 = 0x200f0\n 15793: i32 a1 = a1 + 0\n 15795: a0 = 0x1\n 15798: a2 = 0\n 15800: ecalli 7 // 'seal_return'\n 15802: jump @581\n      : @489 (gas: 13)\n 15805: a0 = s1 + 0x1000\n 15809: u64 [a0 + 4294965328] = 0\n 15813: a0 = s1 + 0x1000\n 15817: u64 [a0 + 4294965320] = 0\n 15821: a0 = s1 + 0x1000\n 15825: u64 [a0 + 4294965312] = 0\n 15829: a0 = 0xec442f0500000000\n 15839: a1 = s1 + 0x7ff\n 15843: a1 = a1 + 0x41\n 15846: a2 = s1 + 0x1000\n 15850: u64 [a2 + 0xfffffffffffff858] = a0\n 15854: a0 = 0\n 15856: ra = 444, jump @19\n      : @490 [@dyn 222] (gas: 12)\n 15862: a0 = s1 + 0x1000\n 15866: u64 [a0 + 4294965304] = 0\n 15870: a0 = s1 + 0x1000\n 15874: u64 [a0 + 4294965296] = 0\n 15878: a0 = s1 + 0x1000\n 15882: u64 [a0 + 4294965288] = 0\n 15886: a0 = 0x4\n 15889: a1 = s1 + 0x7ff\n 15893: a1 = a1 + 0x21\n 15896: a2 = s1 + 0x1000\n 15900: u64 [a2 + 4294965280] = 0\n 15904: ra = 446, jump @19\n      : @491 [@dyn 223] (gas: 2)\n 15910: a1 = i32 [0x200e4]\n 15915: jump @493 if a1 >u 63\n      : @492 (gas: 3)\n 15919: u32 [0x200e4] = 0x40\n 15925: a1 = 0x200f0\n 15930: jump @553\n      : @493 (gas: 2)\n 15933: a1 = 0x200f0\n 15938: jump @553\n      : @494 (gas: 10)\n 15941: a0 = s1 + 0x7ff\n 15945: a0 = a0 + 0x79\n 15948: u64 [a0 + 24] = 0\n 15951: u64 [a0 + 16] = 0\n 15954: u64 [a0 + 8] = 0\n 15957: a2 = a0\n 15959: t0 = 0x1c0\n 15963: a0 = 0x4e487b7100000000\n 15973: a1 = s1 + 0x7ff\n 15977: fallthrough\n      : @495 [@dyn 224] (gas: 4)\n 15978: a1 = a1 + 0x81\n 15982: u64 [a2 + 0x20] = a0\n 15985: a0 = 0\n 15987: ra = 450, jump @19\n      : @496 [@dyn 225] (gas: 12)\n 15993: a0 = s1 + 0x7ff\n 15997: a0 = a0 + 0x79\n 16000: u64 [a0 + 0] = 0\n 16002: u64 [a0 + 4294967288] = 0\n 16005: a1 = s1 + 0x1000\n 16009: u64 [a1 + 4294965344] = 0x11\n 16014: a0 = 0x4\n 16017: a1 = s1 + 0x7ff\n 16021: a1 = a1 + 0x61\n 16024: a2 = s1 + 0x1000\n 16028: u64 [a2 + 4294965352] = 0\n 16032: ra = 452, jump @19\n      : @497 [@dyn 226] (gas: 2)\n 16038: a1 = i32 [0x200e4]\n 16043: jump @499 if a1 >u 63\n      : @498 (gas: 3)\n 16047: u32 [0x200e4] = 0x40\n 16053: a1 = 0x200f0\n 16058: jump @553\n      : @499 (gas: 2)\n 16061: a1 = 0x200f0\n 16066: jump @553\n      : @500 (gas: 6)\n 16069: a1 = 0x200f0\n 16074: i32 a1 = a1 + 0\n 16076: a0 = 0x1\n 16079: a2 = 0\n 16081: ecalli 7 // 'seal_return'\n 16083: jump @581\n      : @501 (gas: 6)\n 16086: a1 = 0x200f0\n 16091: i32 a1 = a1 + 0\n 16093: a0 = 0x1\n 16096: a2 = 0\n 16098: ecalli 7 // 'seal_return'\n 16100: jump @581\n      : @502 (gas: 6)\n 16103: a1 = 0x200f0\n 16108: i32 a1 = a1 + 0\n 16110: a0 = 0x1\n 16113: a2 = 0\n 16115: ecalli 7 // 'seal_return'\n 16117: jump @581\n      : @503 (gas: 6)\n 16120: a1 = 0x200f0\n 16125: i32 a1 = a1 + 0\n 16127: a0 = 0x1\n 16130: a2 = 0\n 16132: ecalli 7 // 'seal_return'\n 16134: jump @581\n      : @504 (gas: 9)\n 16137: a2 = s1 + 0x7ff\n 16141: a2 = a2 + 0x79\n 16144: u64 [a2 + 824] = 0\n 16148: u64 [a2 + 816] = 0\n 16152: u64 [a2 + 808] = 0\n 16156: t0 = 0x1c6\n 16160: a0 = 0x4e487b7100000000\n 16170: a1 = s1 + 0x7ff\n 16174: fallthrough\n      : @505 [@dyn 227] (gas: 4)\n 16175: a1 = a1 + 0x3a1\n 16179: u64 [a2 + 0x340] = a0\n 16183: a0 = 0\n 16185: ra = 456, jump @19\n      : @506 [@dyn 228] (gas: 11)\n 16191: a1 = s1 + 0x7ff\n 16195: a1 = a1 + 0x79\n 16198: u64 [a1 + 800] = 0\n 16202: u64 [a1 + 792] = 0\n 16206: u64 [a1 + 776] = 0x22\n 16211: a2 = a1\n 16213: a0 = 0x4\n 16216: a1 = s1 + 0x7ff\n 16220: a1 = a1 + 0x381\n 16224: u64 [a2 + 784] = 0\n 16228: ra = 458, jump @19\n      : @507 [@dyn 229] (gas: 2)\n 16234: a1 = i32 [0x200e4]\n 16239: jump @509 if a1 >u 63\n      : @508 (gas: 3)\n 16243: u32 [0x200e4] = 0x40\n 16249: a1 = 0x200f0\n 16254: jump @553\n      : @509 (gas: 2)\n 16257: a1 = 0x200f0\n 16262: jump @553\n      : @510 (gas: 6)\n 16265: a1 = 0x200f0\n 16270: i32 a1 = a1 + 0\n 16272: a0 = 0x1\n 16275: a2 = 0\n 16277: ecalli 7 // 'seal_return'\n 16279: jump @581\n      : @511 (gas: 6)\n 16282: a1 = 0x200f0\n 16287: i32 a1 = a1 + 0\n 16289: a0 = 0x1\n 16292: a2 = 0\n 16294: ecalli 7 // 'seal_return'\n 16296: jump @581\n      : @512 (gas: 6)\n 16299: a1 = 0x200f0\n 16304: i32 a1 = a1 + 0\n 16306: a0 = 0x1\n 16309: a2 = 0\n 16311: ecalli 7 // 'seal_return'\n 16313: jump @581\n      : @513 (gas: 6)\n 16316: a1 = 0x200f0\n 16321: i32 a1 = a1 + 0\n 16323: a0 = 0x1\n 16326: a2 = 0\n 16328: ecalli 7 // 'seal_return'\n 16330: jump @581\n      : @514 (gas: 6)\n 16333: a1 = 0x200f0\n 16338: i32 a1 = a1 + 0\n 16340: a0 = 0x1\n 16343: a2 = 0\n 16345: ecalli 7 // 'seal_return'\n 16347: jump @581\n      : @515 (gas: 6)\n 16350: a1 = 0x200f0\n 16355: i32 a1 = a1 + 0\n 16357: a0 = 0x1\n 16360: a2 = 0\n 16362: ecalli 7 // 'seal_return'\n 16364: jump @581\n      : @516 (gas: 1)\n 16367: jump @573 if a0 != 4076725131\n      : @517 (gas: 11)\n 16375: a0 = s1 + 0x1078\n 16379: u64 [a0 + 896] = 0\n 16383: u64 [a0 + 888] = 0\n 16387: u64 [a0 + 880] = 0\n 16391: u64 [a0 + 872] = 0\n 16395: a0 = s1 + 0x1000\n 16399: i32 a0 = a0 + 0x3e0\n 16403: ra = 0x1cc\n 16407: ecalli 10 // 'value_transferred'\n 16409: t0 = 0x1ce\n 16413: jump @751\n      : @518 [@dyn 230] (gas: 1)\n 16416: t0 = 462, jump @751\n      : @519 [@dyn 231] (gas: 8)\n 16422: a0 = u64 [a4 + 0x78]\n 16425: a1 = u64 [a4 + 0x80]\n 16429: a2 = u64 [a4 + 0x70]\n 16432: a3 = u64 [a4 + 0x68]\n 16435: a1 = a1 | a2\n 16438: a0 = a0 | a3\n 16441: a0 = a0 | a1\n 16444: jump @581 if a0 == 0\n      : @520 (gas: 6)\n 16448: a1 = 0x200f0\n 16453: i32 a1 = a1 + 0\n 16455: a0 = 0x1\n 16458: a2 = 0\n 16460: ecalli 7 // 'seal_return'\n 16462: jump @581\n      : @521 (gas: 6)\n 16465: a1 = 0x200f0\n 16470: i32 a1 = a1 + 0\n 16472: a0 = 0x1\n 16475: a2 = 0\n 16477: ecalli 7 // 'seal_return'\n 16479: jump @581\n      : @522 (gas: 6)\n 16482: a1 = 0x200f0\n 16487: i32 a1 = a1 + 0\n 16489: a0 = 0x1\n 16492: a2 = 0\n 16494: ecalli 7 // 'seal_return'\n 16496: jump @581\n      : @523 (gas: 6)\n 16499: a1 = 0x200f0\n 16504: i32 a1 = a1 + 0\n 16506: a0 = 0x1\n 16509: a2 = 0\n 16511: ecalli 7 // 'seal_return'\n 16513: jump @581\n      : @524 (gas: 6)\n 16516: a1 = 0x200f0\n 16521: i32 a1 = a1 + 0\n 16523: a0 = 0x1\n 16526: a2 = 0\n 16528: ecalli 7 // 'seal_return'\n 16530: jump @581\n      : @525 (gas: 8)\n 16533: u64 [s1 + 688] = 0\n 16537: u64 [s1 + 680] = 0\n 16541: u64 [s1 + 672] = 0\n 16545: a0 = 0xe602df0500000000\n 16555: a1 = s1 + 0x2a0\n 16559: u64 [s1 + 0x2b8] = a0\n 16563: a0 = 0\n 16565: ra = 464, jump @19\n      : @526 [@dyn 232] (gas: 7)\n 16571: u64 [s1 + 664] = 0\n 16575: u64 [s1 + 656] = 0\n 16579: u64 [s1 + 648] = 0\n 16583: a0 = 0x4\n 16586: a1 = s1 + 0x280\n 16590: u64 [s1 + 640] = 0\n 16594: ra = 466, jump @19\n      : @527 [@dyn 233] (gas: 2)\n 16600: a1 = i32 [0x200e4]\n 16605: jump @529 if a1 >u 63\n      : @528 (gas: 3)\n 16609: u32 [0x200e4] = 0x40\n 16615: a1 = 0x200f0\n 16620: jump @553\n      : @529 (gas: 2)\n 16623: a1 = 0x200f0\n 16628: jump @553\n      : @530 (gas: 8)\n 16631: u64 [s1 + 752] = 0\n 16635: u64 [s1 + 744] = 0\n 16639: u64 [s1 + 736] = 0\n 16643: a0 = 0x94280d6200000000\n 16653: a1 = s1 + 0x2e0\n 16657: u64 [s1 + 0x2f8] = a0\n 16661: a0 = 0\n 16663: ra = 468, jump @19\n      : @531 [@dyn 234] (gas: 7)\n 16669: u64 [s1 + 728] = 0\n 16673: u64 [s1 + 720] = 0\n 16677: u64 [s1 + 712] = 0\n 16681: a0 = 0x4\n 16684: a1 = s1 + 0x2c0\n 16688: u64 [s1 + 704] = 0\n 16692: ra = 470, jump @19\n      : @532 [@dyn 235] (gas: 2)\n 16698: a1 = i32 [0x200e4]\n 16703: jump @534 if a1 >u 63\n      : @533 (gas: 3)\n 16707: u32 [0x200e4] = 0x40\n 16713: a1 = 0x200f0\n 16718: jump @553\n      : @534 (gas: 2)\n 16721: a1 = 0x200f0\n 16726: jump @553\n      : @535 (gas: 6)\n 16729: a1 = 0x200f0\n 16734: i32 a1 = a1 + 0\n 16736: a0 = 0x1\n 16739: a2 = 0\n 16741: ecalli 7 // 'seal_return'\n 16743: jump @581\n      : @536 (gas: 6)\n 16746: a1 = 0x200f0\n 16751: i32 a1 = a1 + 0\n 16753: a0 = 0x1\n 16756: a2 = 0\n 16758: ecalli 7 // 'seal_return'\n 16760: jump @581\n      : @537 (gas: 6)\n 16763: u64 [s1 + 304] = 0\n 16767: u64 [s1 + 296] = 0\n 16771: u64 [s1 + 288] = 0\n 16775: t0 = 0x1d8\n 16779: a0 = 0x4e487b7100000000\n 16789: fallthrough\n      : @538 [@dyn 236] (gas: 4)\n 16790: a1 = s1 + 0x120\n 16794: u64 [s1 + 0x138] = a0\n 16798: a0 = 0\n 16800: ra = 474, jump @19\n      : @539 [@dyn 237] (gas: 7)\n 16806: u64 [s1 + 280] = 0\n 16810: u64 [s1 + 272] = 0\n 16814: u64 [s1 + 256] = 0x22\n 16819: a0 = 0x4\n 16822: a1 = s1 + 0x100\n 16826: u64 [s1 + 264] = 0\n 16830: ra = 476, jump @19\n      : @540 [@dyn 238] (gas: 2)\n 16836: a1 = i32 [0x200e4]\n 16841: jump @542 if a1 >u 63\n      : @541 (gas: 3)\n 16845: u32 [0x200e4] = 0x40\n 16851: a1 = 0x200f0\n 16856: jump @553\n      : @542 (gas: 2)\n 16859: a1 = 0x200f0\n 16864: jump @553\n      : @543 (gas: 6)\n 16867: a1 = 0x200f0\n 16872: i32 a1 = a1 + 0\n 16874: a0 = 0x1\n 16877: a2 = 0\n 16879: ecalli 7 // 'seal_return'\n 16881: jump @581\n      : @544 (gas: 6)\n 16884: a1 = 0x200f0\n 16889: i32 a1 = a1 + 0\n 16891: a0 = 0x1\n 16894: a2 = 0\n 16896: ecalli 7 // 'seal_return'\n 16898: jump @581\n      : @545 (gas: 6)\n 16901: a1 = 0x200f0\n 16906: i32 a1 = a1 + 0\n 16908: a0 = 0x1\n 16911: a2 = 0\n 16913: ecalli 7 // 'seal_return'\n 16915: jump @581\n      : @546 (gas: 6)\n 16918: a1 = 0x200f0\n 16923: i32 a1 = a1 + 0\n 16925: a0 = 0x1\n 16928: a2 = 0\n 16930: ecalli 7 // 'seal_return'\n 16932: jump @581\n      : @547 (gas: 10)\n 16935: a0 = s1 + 0x7ff\n 16939: a0 = a0 + 0x79\n 16942: u64 [a0 + 888] = 0\n 16946: u64 [a0 + 880] = 0\n 16950: u64 [a0 + 872] = 0\n 16954: a2 = a0\n 16956: t0 = 0x1de\n 16960: a0 = 0x4e487b7100000000\n 16970: a1 = s1 + 0x7ff\n 16974: fallthrough\n      : @548 [@dyn 239] (gas: 4)\n 16975: a1 = a1 + 0x3e1\n 16979: u64 [a2 + 0x380] = a0\n 16983: a0 = 0\n 16985: ra = 480, jump @19\n      : @549 [@dyn 240] (gas: 11)\n 16991: a1 = s1 + 0x7ff\n 16995: a1 = a1 + 0x79\n 16998: u64 [a1 + 864] = 0\n 17002: u64 [a1 + 856] = 0\n 17006: u64 [a1 + 840] = 0x41\n 17011: a2 = a1\n 17013: a0 = 0x4\n 17016: a1 = s1 + 0x7ff\n 17020: a1 = a1 + 0x3c1\n 17024: u64 [a2 + 848] = 0\n 17028: ra = 482, jump @19\n      : @550 [@dyn 241] (gas: 2)\n 17034: a1 = i32 [0x200e4]\n 17039: jump @552 if a1 >u 63\n      : @551 (gas: 3)\n 17043: u32 [0x200e4] = 0x40\n 17049: a1 = 0x200f0\n 17054: jump @553\n      : @552 (gas: 2)\n 17056: a1 = 0x200f0\n 17061: fallthrough\n      : @553 (gas: 5)\n 17062: i32 a1 = a1 + 0\n 17064: a0 = 0x1\n 17067: a2 = 0x24\n 17070: ecalli 7 // 'seal_return'\n 17072: fallthrough\n      : @554 (gas: 8)\n 17073: u64 [s1 + 1520] = 0\n 17077: u64 [s1 + 1512] = 0\n 17081: u64 [s1 + 1504] = 0\n 17085: a0 = 0xfb8f41b200000000\n 17095: a1 = s1 + 0x5e0\n 17099: u64 [s1 + 0x5f8] = a0\n 17103: a0 = 0\n 17105: ra = 484, jump @19\n      : @555 [@dyn 242] (gas: 4)\n 17111: a0 = u64 [s1 + 0x80]\n 17115: ra = 0x1e6\n 17119: ecalli 3 // 'caller'\n 17121: fallthrough\n      : @556 [@dyn 243] (gas: 5)\n 17122: a2 = u64 [s1 + 0xb0]\n 17126: a0 = u64 [a2 + 0x8]\n 17129: a1 = i32 [a2 + 0x10]\n 17132: a2 = u64 [a2]\n 17134: t0 = 488, jump @732\n      : @557 [@dyn 244] (gas: 7)\n 17140: u64 [s1 + 1496] = 0\n 17144: u64 [s1 + 0x5d0] = a1\n 17148: u64 [s1 + 0x5c8] = a0\n 17152: a0 = 0x4\n 17155: a1 = s1 + 0x5c0\n 17159: u64 [s1 + 0x5c0] = a3\n 17163: ra = 490, jump @19\n      : @558 [@dyn 245] (gas: 11)\n 17169: a0 = u64 [s1 + 0x60]\n 17172: u64 [s1 + 0x5b8] = a0\n 17176: a0 = u64 [s1 + 0x58]\n 17179: u64 [s1 + 0x5b0] = a0\n 17183: a0 = u64 [s1 + 0x68]\n 17186: u64 [s1 + 0x5a8] = a0\n 17190: a0 = 0x24\n 17193: a1 = s1 + 0x5a0\n 17197: a2 = u64 [s1 + 0x70]\n 17200: u64 [s1 + 0x5a0] = a2\n 17204: ra = 492, jump @19\n      : @559 [@dyn 246] (gas: 12)\n 17210: a0 = u64 [s1 + 0xe8]\n 17214: a3 = s1 + 0x500\n 17218: u64 [a3 + 0x98] = a0\n 17222: a0 = u64 [s1 + 0xd8]\n 17226: u64 [a3 + 0x90] = a0\n 17230: a0 = u64 [s1 + 0xc8]\n 17234: u64 [a3 + 0x88] = a0\n 17238: a0 = 0x44\n 17241: a1 = s1 + 0x580\n 17245: a2 = u64 [s1 + 0xd0]\n 17249: u64 [a3 + 0x80] = a2\n 17253: ra = 494, jump @19\n      : @560 [@dyn 247] (gas: 3)\n 17259: a0 = u64 [s1 + 0xc0]\n 17263: a0 = i32 [a0]\n 17265: jump @562 if a0 >u 127\n      : @561 (gas: 5)\n 17269: a1 = u64 [s1 + 0xc0]\n 17273: u32 [a1 + 0] = 0x80\n 17277: a0 = 0x1\n 17280: a2 = 0x64\n 17283: jump @570\n      : @562 (gas: 7)\n 17286: a0 = 0x1\n 17289: a2 = 0x64\n 17292: a1 = u64 [s1 + 0xe0]\n 17296: ecalli 7 // 'seal_return'\n 17298: u64 [s1 + 0xf8] = a1\n 17302: ra = 0x1f6\n 17306: jump @26\n      : @563 (gas: 8)\n 17309: u64 [s1 + 1584] = 0\n 17313: u64 [s1 + 1576] = 0\n 17317: u64 [s1 + 1568] = 0\n 17321: a0 = 0xe602df0500000000\n 17331: a1 = s1 + 0x620\n 17335: u64 [s1 + 0x638] = a0\n 17339: a0 = 0\n 17341: ra = 496, jump @19\n      : @564 [@dyn 248] (gas: 8)\n 17347: u64 [s1 + 1560] = 0\n 17351: u64 [s1 + 1552] = 0\n 17355: u64 [s1 + 1544] = 0\n 17359: a0 = 0x4\n 17362: a1 = s1 + 0x600\n 17366: u64 [s1 + 1536] = 0\n 17370: ra = 0x1f4\n 17374: jump @19\n      : @565 (gas: 8)\n 17377: u64 [s1 + 1648] = 0\n 17381: u64 [s1 + 1640] = 0\n 17385: u64 [s1 + 1632] = 0\n 17389: a0 = 0x94280d6200000000\n 17399: a1 = s1 + 0x660\n 17403: u64 [s1 + 0x678] = a0\n 17407: a0 = 0\n 17409: ra = 498, jump @19\n      : @566 [@dyn 249] (gas: 7)\n 17415: u64 [s1 + 1624] = 0\n 17419: u64 [s1 + 1616] = 0\n 17423: u64 [s1 + 1608] = 0\n 17427: a0 = 0x4\n 17430: a1 = s1 + 0x640\n 17434: u64 [s1 + 1600] = 0\n 17438: ra = 500, jump @19\n      : @567 [@dyn 250] (gas: 3)\n 17444: a0 = u64 [s1 + 0xc0]\n 17448: a0 = i32 [a0]\n 17450: jump @569 if a0 >u 63\n      : @568 (gas: 5)\n 17454: a1 = u64 [s1 + 0xc0]\n 17458: u32 [a1 + 0] = 0x40\n 17461: a0 = 0x1\n 17464: a2 = 0x24\n 17467: jump @570\n      : @569 (gas: 7)\n 17469: a0 = 0x1\n 17472: a2 = 0x24\n 17475: a1 = u64 [s1 + 0xe0]\n 17479: ecalli 7 // 'seal_return'\n 17481: u64 [s1 + 0xf8] = a1\n 17485: ra = 0x1f6\n 17489: jump @26\n      : @570 (gas: 5)\n 17492: a1 = u64 [s1 + 0xe0]\n 17496: ecalli 7 // 'seal_return'\n 17498: u64 [s1 + 0xf8] = a1\n 17502: ra = 0x1f6\n 17506: jump @26\n      : @571 (gas: 2)\n 17509: u64 [s1 + 0xf8] = a1\n 17513: ra = 502, jump @26\n      : @572 [@dyn 251] (gas: 5)\n 17519: i32 a1 = a0 + 0\n 17521: a2 = i32 [s1 + 0xf8]\n 17525: a0 = 0\n 17527: ecalli 7 // 'seal_return'\n 17529: jump @466\n      : @573 (gas: 1)\n 17532: jump @579 if a0 != 1901074598\n      : @574 (gas: 11)\n 17539: a0 = s1 + 0x1078\n 17543: u64 [a0 + 544] = 0\n 17547: u64 [a0 + 536] = 0\n 17551: u64 [a0 + 528] = 0\n 17555: u64 [a0 + 520] = 0\n 17559: a0 = s1 + 0x1000\n 17563: i32 a0 = a0 + 0x280\n 17567: ra = 0x1f8\n 17571: ecalli 10 // 'value_transferred'\n 17573: t0 = 0x1fa\n 17577: jump @750\n      : @575 [@dyn 252] (gas: 1)\n 17580: t0 = 506, jump @750\n      : @576 [@dyn 253] (gas: 1)\n 17586: t0 = 508, jump @757\n      : @577 [@dyn 254] (gas: 1)\n 17592: jump @583 if a0 == 0\n      : @578 (gas: 6)\n 17595: a1 = 0x200f0\n 17600: i32 a1 = a1 + 0\n 17602: a0 = 0x1\n 17605: a2 = 0\n 17607: ecalli 7 // 'seal_return'\n 17609: jump @581\n      : @579 (gas: 6)\n 17611: a1 = 0x200f0\n 17616: i32 a1 = a1 + 0\n 17618: a0 = 0x1\n 17621: a2 = 0\n 17623: ecalli 7 // 'seal_return'\n 17625: jump @581\n      : @580 (gas: 5)\n 17627: i32 a1 = a1 + 0\n 17629: a0 = 0x1\n 17632: a2 = 0\n 17634: ecalli 7 // 'seal_return'\n 17636: fallthrough\n      : @581 (gas: 4)\n 17637: a0 = u64 [s1 + 0xf8]\n 17641: a0 = i32 [a0]\n 17643: a1 = 0x23\n 17646: jump @585 if a1 <u a0\n      : @582 (gas: 2)\n 17649: a1 = 0x200f0\n 17654: jump @580\n      : @583 (gas: 3)\n 17656: a0 = u64 [s1 + 0xf8]\n 17660: a0 = i32 [a0]\n 17662: jump @592 if a0 >u 3\n      : @584 (gas: 2)\n 17667: a1 = 0x200f0\n 17672: jump @580\n      : @585 (gas: 4)\n 17674: a0 = s1 + 0x1000\n 17678: ra = 0x1fe\n 17682: t0 = 0x244\n 17686: jump @749\n      : @586 [@dyn 255] (gas: 9)\n 17689: a0 = s1 + 0x7ff\n 17693: a0 = a0 + 0x79\n 17696: a1 = u64 [a0 + 0x790]\n 17700: u64 [s1 + 0xf0] = a1\n 17704: a1 = u64 [a0 + 0x788]\n 17708: u64 [s1 + 0xf8] = a1\n 17712: a0 = u32 [a0 + 0x798]\n 17716: u64 [s1 + 0xe8] = a0\n 17720: ra = 512, jump @719\n      : @587 [@dyn 256] (gas: 6)\n 17726: a0 = u64 [s1 + 0xf8]\n 17730: a1 = u64 [s1 + 0xe8]\n 17734: a0 = a0 | a1\n 17737: a1 = u64 [s1 + 0xf0]\n 17741: a0 = a0 | a1\n 17744: jump @597 if a0 == 0\n      : @588 (gas: 11)\n 17748: a0 = 0xffffffff\n 17758: u64 [s1 + 0xe0] = a0\n 17762: a0 = s1 + 0x1078\n 17766: u64 [a0 + 928] = 0\n 17770: u64 [a0 + 920] = 0\n 17774: u64 [a0 + 912] = 0\n 17778: u64 [a0 + 904] = 0x5\n 17783: a0 = s1 + 0x7ff\n 17787: a0 = a0 + 0x7e1\n 17791: a1 = s1 + 0x1400\n 17795: ra = 514, jump @21\n      : @589 [@dyn 257] (gas: 29)\n 17801: a1 = s1 + 0x7ff\n 17805: a1 = a1 + 0x79\n 17808: a3 = a1 + 0x700\n 17812: a0 = u64 [a3 + 0x70]\n 17815: u64 [s1 + 0xd8] = a0\n 17819: a0 = u64 [a3 + 0x80]\n 17823: a2 = u64 [a3 + 0x78]\n 17826: u64 [s1 + 0xc8] = a2\n 17830: a1 = u64 [a3 + 0x68]\n 17833: u64 [s1 + 0xd0] = a1\n 17837: a1 = s1 + 0x1078\n 17841: a4 = a1 + 0x300\n 17845: u64 [a4 + 168] = 0x5\n 17850: u64 [a4 + 0xe0] = a0\n 17854: a0 = a2 >> 0x20\n 17857: a0 = a0 << 0x20\n 17860: a2 = u64 [s1 + 0xe8]\n 17864: a0 = a0 | a2\n 17867: u64 [a4 + 0xd8] = a0\n 17871: u64 [a1 + 960] = 0\n 17875: u64 [a1 + 952] = 0\n 17879: u64 [a1 + 944] = 0\n 17883: a0 = u64 [s1 + 0xf0]\n 17887: u64 [a4 + 0xd0] = a0\n 17891: a0 = u64 [s1 + 0xf8]\n 17895: u64 [a4 + 0xc8] = a0\n 17899: a0 = s1 + 0x1420\n 17903: a1 = s1 + 0x1440\n 17907: ra = 516, jump @22\n      : @590 [@dyn 258] (gas: 39)\n 17913: a0 = u64 [s1 + 0xd0]\n 17917: a0 = a0 & 0xffffffffffffffff\n 17920: a2 = u64 [s1 + 0xd8]\n 17924: a1 = a2 & 0xffffffffffffffff\n 17927: a2 = u64 [s1 + 0xe0]\n 17931: a3 = u64 [s1 + 0xc8]\n 17935: a2 = a2 & a3\n 17938: a4 = s1 + 0x7ff\n 17942: a4 = a4 + 0x79\n 17945: u64 [a4 + 1824] = 0\n 17949: a3 = u64 [s1 + 0xe8]\n 17953: a5 = a4 + 0x700\n 17957: u64 [a5 + 0x18] = a3\n 17960: a3 = u64 [s1 + 0xf0]\n 17964: u64 [a5 + 0x10] = a3\n 17967: a3 = u64 [s1 + 0xf8]\n 17971: u64 [a5 + 0x8] = a3\n 17974: u64 [a4 + 1856] = 0\n 17978: u64 [a5 + 0x38] = a2\n 17981: u64 [a5 + 0x30] = a1\n 17984: a1 = u64 [0x20020]\n 17989: a2 = u64 [0x20028]\n 17994: a3 = u64 [0x20030]\n 17999: u64 [a5 + 0x28] = a0\n 18002: u64 [a5 + 0x60] = a1\n 18005: u64 [a5 + 0x58] = a2\n 18008: u64 [a5 + 0x50] = a3\n 18011: a1 = a4\n 18013: a0 = u64 [0x20038]\n 18018: a2 = s1 + 0x7ff\n 18022: a2 = a2 + 0x7c1\n 18026: a3 = s1 + 0x7ff\n 18030: a3 = a3 + 0x7a1\n 18034: a4 = s1 + 0x7ff\n 18038: a4 = a4 + 0x781\n 18042: u64 [a1 + 0x748] = a0\n 18046: a0 = 0\n 18048: a1 = 0\n 18050: ra = 518, jump @23\n      : @591 [@dyn 259] (gas: 6)\n 18056: a1 = 0x200f0\n 18061: i32 a1 = a1 + 0\n 18063: a0 = 0\n 18065: a2 = 0\n 18067: ecalli 7 // 'seal_return'\n 18069: jump @581\n      : @592 (gas: 1)\n 18072: ra = 520, jump @719\n      : @593 [@dyn 260] (gas: 9)\n 18078: a1 = s1 + 0x1078\n 18082: u64 [a1 + 576] = 0\n 18086: u64 [a1 + 568] = 0\n 18090: u64 [a1 + 560] = 0\n 18094: u64 [a1 + 552] = 0x5\n 18099: a0 = s1 + 0x7ff\n 18103: a0 = a0 + 0x301\n 18107: a1 = s1 + 0x12a0\n 18111: ra = 522, jump @21\n      : @594 [@dyn 261] (gas: 25)\n 18117: a1 = s1 + 0x7ff\n 18121: a1 = a1 + 0x79\n 18124: a3 = a1 + 0x200\n 18128: a2 = u64 [a3 + 0x98]\n 18132: u64 [s1 + 0xe8] = a2\n 18136: a0 = u64 [a3 + 0x88]\n 18140: u64 [s1 + 0xf8] = a0\n 18144: a0 = u64 [a3 + 0x90]\n 18148: u64 [s1 + 0xf0] = a0\n 18152: a0 = u64 [a3 + 0xa0]\n 18156: a1 = a2 >> 0x20\n 18159: a1 = a1 << 0x20\n 18162: a2 = s1 + 0x1078\n 18166: u64 [a2 + 608] = 0\n 18170: u64 [a2 + 600] = 0\n 18174: u64 [a2 + 592] = 0\n 18178: a4 = a2 + 0x200\n 18182: u64 [a4 + 72] = 0x5\n 18186: u64 [a2 + 624] = 0\n 18190: u64 [a2 + 616] = 0\n 18194: u64 [a4 + 0x80] = a0\n 18198: u64 [a4 + 0x78] = a1\n 18201: a0 = s1 + 0x12c0\n 18205: a1 = s1 + 0x12e0\n 18209: ra = 524, jump @22\n      : @595 [@dyn 262] (gas: 34)\n 18215: a0 = u64 [s1 + 0xe8]\n 18219: a0 = a0 << 0x20\n 18222: a0 = a0 >> 0x20\n 18225: a3 = s1 + 0x7ff\n 18229: a3 = a3 + 0x79\n 18232: u64 [a3 + 576] = 0\n 18236: u64 [a3 + 568] = 0\n 18240: u64 [a3 + 560] = 0\n 18244: u64 [a3 + 552] = 0\n 18248: u64 [a3 + 608] = 0\n 18252: a5 = a3 + 0x200\n 18256: u64 [a5 + 0x58] = a0\n 18259: a0 = u64 [s1 + 0xf0]\n 18263: u64 [a5 + 0x50] = a0\n 18266: a0 = u64 [0x20020]\n 18271: a1 = u64 [0x20028]\n 18276: a2 = u64 [0x20030]\n 18281: a4 = u64 [s1 + 0xf8]\n 18285: u64 [a5 + 0x48] = a4\n 18288: u64 [a5 + 0x80] = a0\n 18292: u64 [a5 + 0x78] = a1\n 18295: u64 [a5 + 0x70] = a2\n 18298: a1 = a3\n 18300: a0 = u64 [0x20038]\n 18305: a2 = s1 + 0x7ff\n 18309: a2 = a2 + 0x2e1\n 18313: a3 = s1 + 0x7ff\n 18317: a3 = a3 + 0x2c1\n 18321: a4 = s1 + 0x7ff\n 18325: a4 = a4 + 0x2a1\n 18329: u64 [a1 + 0x268] = a0\n 18333: a0 = 0\n 18335: a1 = 0\n 18337: ra = 526, jump @23\n      : @596 [@dyn 263] (gas: 6)\n 18343: a1 = 0x200f0\n 18348: i32 a1 = a1 + 0\n 18350: a0 = 0\n 18352: a2 = 0\n 18354: ecalli 7 // 'seal_return'\n 18356: jump @581\n      : @597 (gas: 12)\n 18359: a0 = s1 + 0x7ff\n 18363: a0 = a0 + 0x79\n 18366: u64 [a0 + 1784] = 0\n 18370: u64 [a0 + 1776] = 0\n 18374: u64 [a0 + 1768] = 0\n 18378: a2 = a0\n 18380: a0 = 0x1e4fbdf700000000\n 18390: a1 = s1 + 0x7ff\n 18394: a1 = a1 + 0x761\n 18398: u64 [a2 + 0x700] = a0\n 18402: a0 = 0\n 18404: ra = 528, jump @19\n      : @598 [@dyn 264] (gas: 11)\n 18410: a0 = s1 + 0x7ff\n 18414: a0 = a0 + 0x79\n 18417: u64 [a0 + 1760] = 0\n 18421: u64 [a0 + 1752] = 0\n 18425: u64 [a0 + 1744] = 0\n 18429: a2 = a0\n 18431: a0 = 0x4\n 18434: a1 = s1 + 0x7ff\n 18438: a1 = a1 + 0x741\n 18442: u64 [a2 + 1736] = 0\n 18446: ra = 530, jump @19\n      : @599 [@dyn 265] (gas: 2)\n 18452: a1 = i32 [0x200e4]\n 18457: jump @601 if a1 >u 63\n      : @600 (gas: 3)\n 18461: u32 [0x200e4] = 0x40\n 18467: a1 = 0x200f0\n 18472: jump @553\n      : @601 (gas: 2)\n 18475: a1 = 0x200f0\n 18480: jump @553\n      : @602 (gas: 17)\n 18483: sp = sp + 0xffffffffffffff30\n 18487: u64 [sp + 0xc8] = ra\n 18491: u64 [sp + 0xc0] = s0\n 18495: u64 [sp + 0xb8] = s1\n 18499: s0 = sp + 0xd0\n 18503: sp = sp & 0xfffffffffffffff0\n 18506: a2 = u64 [a1 + 0x18]\n 18509: u64 [sp + 0x10] = a2\n 18512: a2 = u64 [a1 + 0x10]\n 18515: u64 [sp + 0x8] = a2\n 18518: a2 = u64 [a1 + 0x8]\n 18521: u64 [sp] = a2\n 18523: s1 = u64 [a1]\n 18525: u64 [sp + 0x28] = a0\n 18528: a0 = sp + 0x90\n 18532: a1 = 0x40\n 18535: ra = 532, jump @17\n      : @603 [@dyn 266] (gas: 39)\n 18541: a1 = u64 [sp + 0x98]\n 18545: a2 = u64 [sp + 0x90]\n 18549: a0 = s1 + 0x1f\n 18552: ra = a0 <u s1\n 18555: a3 = u64 [sp]\n 18557: a4 = a3 + ra\n 18560: a0 = a0 & 0xffffffffffffffe0\n 18563: t1 = a1 + a4\n 18566: t0 = a2 + a0\n 18569: u64 [sp + 0x20] = a2\n 18572: a5 = t0 <u a2\n 18575: t1 = t1 + a5\n 18578: s1 = t1 ^ a1\n 18581: u64 [sp + 0x18] = a1\n 18584: a2 = t1 <u a1\n 18587: a2 = a5 if s1 == 0\n 18590: t2 = u64 [sp + 0xa8]\n 18594: a4 = a4 <u a3\n 18597: s1 = u64 [sp + 0xa0]\n 18601: a4 = ra if ra == 0\n 18604: a0 = u64 [sp + 0x8]\n 18607: a4 = a4 + a0\n 18610: a5 = a4 <u a0\n 18613: a4 = a4 + s1\n 18616: a3 = a4 + a2\n 18619: a0 = u64 [sp + 0x10]\n 18622: a0 = a0 + t2\n 18625: a0 = a0 + a5\n 18628: a5 = a3 <u a4\n 18631: a4 = a4 <u s1\n 18634: a0 = a0 + a4\n 18637: a4 = a0 + a5\n 18640: a0 = a4 >u 0\n 18642: a5 = a3 >u 0\n 18644: a5 = a0 if a4 != 0\n 18647: a0 = a3 | a4\n 18650: a1 = t1 >u 0\n 18652: a1 = a5 if a0 != 0\n 18655: jump @607 if a1 != 0\n      : @604 (gas: 8)\n 18658: a0 = a3 <u s1\n 18661: a1 = a4 ^ t2\n 18664: a5 = a4 <u t2\n 18667: a5 = a0 if a1 == 0\n 18670: a0 = a3 ^ s1\n 18673: a0 = a0 | a1\n 18676: a2 = a5 if a0 != 0\n 18679: jump @607 if a2 != 0\n      : @605 (gas: 8)\n 18682: u64 [sp + 0x70] = t0\n 18685: u64 [sp + 0x78] = t1\n 18688: u64 [sp + 0x80] = a3\n 18692: a0 = 0x40\n 18695: a1 = sp + 0x70\n 18698: u64 [sp + 0x88] = a4\n 18702: u64 [sp + 0x10] = t2\n 18705: ra = 534, jump @19\n      : @606 [@dyn 267] (gas: 14)\n 18711: a0 = u64 [sp + 0x28]\n 18714: a1 = u64 [sp + 0x10]\n 18717: u64 [a0 + 0x18] = a1\n 18720: u64 [a0 + 0x10] = s1\n 18723: a1 = u64 [sp + 0x18]\n 18726: u64 [a0 + 0x8] = a1\n 18729: a1 = u64 [sp + 0x20]\n 18732: u64 [a0] = a1\n 18734: sp = s0 + 0xffffffffffffff30\n 18738: ra = u64 [sp + 0xc8]\n 18742: s0 = u64 [sp + 0xc0]\n 18746: s1 = u64 [sp + 0xb8]\n 18750: sp = sp + 0xd0\n 18754: ret\n      : @607 (gas: 6)\n 18756: u64 [sp + 96] = 0\n 18759: u64 [sp + 88] = 0\n 18762: u64 [sp + 80] = 0\n 18765: t0 = 0x218\n 18769: a0 = 0x4e487b7100000000\n 18779: fallthrough\n      : @608 [@dyn 268] (gas: 4)\n 18780: a1 = sp + 0x50\n 18783: u64 [sp + 0x68] = a0\n 18786: a0 = 0\n 18788: ra = 538, jump @19\n      : @609 [@dyn 269] (gas: 7)\n 18794: u64 [sp + 72] = 0\n 18797: u64 [sp + 64] = 0\n 18800: u64 [sp + 48] = 0x41\n 18804: a0 = 0x4\n 18807: a1 = sp + 0x30\n 18810: u64 [sp + 56] = 0\n 18813: ra = 540, jump @19\n      : @610 [@dyn 270] (gas: 2)\n 18819: a1 = i32 [0x200e4]\n 18824: jump @612 if a1 >u 63\n      : @611 (gas: 2)\n 18828: u32 [0x200e4] = 0x40\n 18834: fallthrough\n      : @612 (gas: 7)\n 18835: a1 = 0x200f0\n 18840: i32 a1 = a1 + 0\n 18842: a0 = 0x1\n 18845: a2 = 0x24\n 18848: ra = 0x21e\n 18852: ecalli 7 // 'seal_return'\n 18854: fallthrough\n      : @613 [@dyn 271] (gas: 37)\n 18855: sp = sp + 0xfffffffffffffe70\n 18859: u64 [sp + 0x188] = ra\n 18863: u64 [sp + 0x180] = s0\n 18867: u64 [sp + 0x178] = s1\n 18871: s0 = sp + 0x190\n 18875: sp = sp & 0xfffffffffffffff0\n 18878: t2 = u64 [a1]\n 18880: a4 = u64 [a2 + 0x8]\n 18883: ra = u64 [a1 + 0x8]\n 18886: s1 = u64 [a2]\n 18888: a3 = t2 + 0x1f\n 18891: t0 = a3 <u t2\n 18894: a5 = ra + t0\n 18897: u64 [sp + 0x20] = s1\n 18900: t1 = a3 <u s1\n 18903: a3 = a5 ^ a4\n 18906: u64 [sp + 0x28] = a4\n 18909: a4 = a5 <u a4\n 18912: a4 = t1 if a3 == 0\n 18915: s1 = u64 [a1 + 0x10]\n 18918: a3 = a5 <u ra\n 18921: a3 = t0 if t0 == 0\n 18924: a5 = u64 [a2 + 0x18]\n 18927: t0 = u64 [a1 + 0x18]\n 18930: t1 = u64 [a2 + 0x10]\n 18933: a3 = a3 + s1\n 18936: a1 = a3 <u s1\n 18939: a1 = a1 + t0\n 18942: a2 = a1 ^ a5\n 18945: u64 [sp + 0x10] = a5\n 18948: a1 = a1 <s a5\n 18951: a5 = a3 <u t1\n 18954: a1 = a5 if a2 == 0\n 18957: a3 = a3 ^ t1\n 18960: a2 = a2 | a3\n 18963: a4 = a1 if a2 != 0\n 18966: jump @631 if a4 == 0\n      : @614 (gas: 13)\n 18970: u64 [sp + 0x8] = a0\n 18973: u64 [sp + 0x18] = t1\n 18976: a0 = t2 | s1\n 18979: u64 [sp + 0x38] = ra\n 18982: u64 [sp + 0x30] = t0\n 18985: a1 = ra | t0\n 18988: a0 = a0 | a1\n 18991: a0 = a0 >> 0x20\n 18994: u64 [sp + 0x58] = s1\n 18997: a1 = a1 | s1\n 19000: a1 = a1 << 0x20\n 19003: a0 = a0 | a1\n 19006: jump @630 if a0 != 0\n      : @615 (gas: 4)\n 19010: a0 = sp + 0x150\n 19014: u64 [sp + 0x50] = t2\n 19017: a1 = t2\n 19019: ra = 544, jump @17\n      : @616 [@dyn 272] (gas: 12)\n 19025: a3 = u64 [sp + 0x168]\n 19029: a2 = u64 [sp + 0x160]\n 19033: a4 = u64 [sp + 0x158]\n 19037: a0 = a3 >u 0\n 19039: a1 = a2 >u 0\n 19041: a1 = a0 if a3 != 0\n 19044: u64 [sp + 0x80] = a2\n 19048: u64 [sp + 0x88] = a3\n 19052: a0 = a2 | a3\n 19055: a2 = a4 >u 0\n 19057: a2 = a1 if a0 != 0\n 19060: jump @632 if a2 != 0\n      : @617 (gas: 20)\n 19064: a1 = u64 [sp + 0x150]\n 19068: a0 = a1 + 0x1f\n 19071: u64 [sp + 0x48] = a1\n 19074: a1 = a0 <u a1\n 19077: u64 [sp + 0x78] = a4\n 19080: a1 = a1 + a4\n 19083: a1 = a1 & 0x1\n 19086: a0 = a0 & 0xffffffffffffffe0\n 19089: a2 = a0 + 0x20\n 19092: a0 = a2 <u a0\n 19095: a3 = a1 + a0\n 19098: a4 = a3 <u a1\n 19101: a4 = a0 if a0 == 0\n 19104: u64 [sp + 296] = 0\n 19108: u64 [sp + 0x110] = a2\n 19112: u64 [sp + 0x118] = a3\n 19116: a0 = sp + 0x130\n 19120: a1 = sp + 0x110\n 19124: u64 [sp + 0x120] = a4\n 19128: ra = 546, jump @602\n      : @618 [@dyn 273] (gas: 15)\n 19134: a2 = u64 [sp + 0x148]\n 19138: a3 = u64 [sp + 0x140]\n 19142: a1 = u64 [sp + 0x138]\n 19146: a0 = u64 [sp + 0x130]\n 19150: u64 [sp + 0x40] = a1\n 19153: u64 [sp + 0x68] = a2\n 19156: a2 = a2 | a1\n 19159: a1 = a0 | a3\n 19162: a1 = a1 | a2\n 19165: a1 = a1 >> 0x20\n 19168: u64 [sp + 0x70] = a3\n 19171: a2 = a2 | a3\n 19174: a2 = a2 << 0x20\n 19177: a1 = a1 | a2\n 19180: jump @630 if a1 != 0\n      : @619 (gas: 11)\n 19184: s1 = u64 [sp + 0x48]\n 19187: u64 [sp + 0xf0] = s1\n 19191: a1 = u64 [sp + 0x78]\n 19194: u64 [sp + 0xf8] = a1\n 19198: a1 = u64 [sp + 0x80]\n 19202: u64 [sp + 0x100] = a1\n 19206: a1 = sp + 0xf0\n 19210: a2 = u64 [sp + 0x88]\n 19214: u64 [sp + 0x108] = a2\n 19218: u64 [sp + 0x60] = a0\n 19221: ra = 548, jump @19\n      : @620 [@dyn 274] (gas: 45)\n 19227: a0 = u64 [sp + 0x50]\n 19230: a3 = a0 + s1\n 19233: a2 = a3 <u a0\n 19236: t2 = u64 [sp + 0x38]\n 19239: a0 = u64 [sp + 0x78]\n 19242: a0 = a0 + t2\n 19245: a0 = a0 + a2\n 19248: a4 = a0 ^ t2\n 19251: a1 = a0 <u t2\n 19254: a1 = a2 if a4 == 0\n 19257: t1 = u64 [sp + 0x58]\n 19260: a2 = u64 [sp + 0x80]\n 19264: a2 = a2 + t1\n 19267: a5 = a3 + 0x20\n 19270: t0 = a5 <u a3\n 19273: a4 = a0 + t0\n 19276: a3 = u64 [sp + 0x20]\n 19279: a5 = a3 <u a5\n 19282: a3 = u64 [sp + 0x28]\n 19285: s1 = a4 ^ a3\n 19288: a3 = a3 <u a4\n 19291: a5 = a3 if s1 != 0\n 19294: a3 = a2 <u t1\n 19297: t1 = u64 [sp + 0x30]\n 19300: s1 = u64 [sp + 0x88]\n 19304: s1 = s1 + t1\n 19307: a3 = a3 + s1\n 19310: a1 = a1 + a2\n 19313: a2 = a1 <u a2\n 19316: a2 = a2 + a3\n 19319: a0 = a4 <u a0\n 19322: a0 = t0 if t0 == 0\n 19325: a0 = a0 + a1\n 19328: a1 = a0 <u a1\n 19331: a1 = a1 + a2\n 19334: a3 = u64 [sp + 0x10]\n 19337: a2 = a1 ^ a3\n 19340: a1 = a3 <u a1\n 19343: a4 = u64 [sp + 0x18]\n 19346: a3 = a4 <u a0\n 19349: a1 = a3 if a2 == 0\n 19352: a0 = a0 ^ a4\n 19355: a0 = a0 | a2\n 19358: a5 = a1 if a0 != 0\n 19361: jump @638 if a5 != 0\n      : @621 (gas: 10)\n 19365: a0 = u64 [sp + 0x70]\n 19368: a1 = u64 [sp + 0x68]\n 19371: a1 = a1 | a0\n 19374: a0 = 0xffffffe0\n 19384: a4 = u64 [sp + 0x60]\n 19387: a2 = a4 <u a0\n 19390: a3 = u64 [sp + 0x40]\n 19393: a2 = 0 if a3 != 0\n 19395: a2 = 0 if a1 != 0\n 19397: jump @630 if a2 == 0\n      : @622 (gas: 12)\n 19401: a3 = a4\n 19403: a1 = u64 [sp + 0x58]\n 19406: a1 = a1 | t1\n 19409: a5 = u64 [sp + 0x50]\n 19412: a0 = a5 <u a0\n 19415: a0 = 0 if t2 != 0\n 19417: a0 = 0 if a1 != 0\n 19419: ra = u64 [sp + 0x88]\n 19423: a2 = u64 [sp + 0x80]\n 19427: a4 = u64 [sp + 0x78]\n 19430: s1 = u64 [sp + 0x48]\n 19433: jump @630 if a0 == 0\n      : @623 (gas: 8)\n 19437: a0 = s1 | a2\n 19440: a1 = a4 | ra\n 19443: a0 = a0 | a1\n 19446: a0 = a0 >> 0x20\n 19449: a1 = a1 | a2\n 19452: a1 = a1 << 0x20\n 19455: a0 = a0 | a1\n 19458: jump @630 if a0 != 0\n      : @624 (gas: 5)\n 19462: i32 a0 = a3 + 0x20\n 19465: i32 a1 = a5 + 0x20\n 19468: u64 [sp + 0x58] = a1\n 19471: a1 = s1\n 19473: ra = 550, jump @26\n      : @625 [@dyn 275] (gas: 4)\n 19479: u64 [sp + 0x50] = a0\n 19482: a0 = u64 [sp + 0x58]\n 19485: a1 = s1\n 19487: ra = 552, jump @26\n      : @626 [@dyn 276] (gas: 4)\n 19493: a1 = a0\n 19495: a0 = u64 [sp + 0x50]\n 19498: a2 = s1\n 19500: ra = 554, jump @0\n      : @627 [@dyn 277] (gas: 27)\n 19506: a1 = u64 [sp + 0x60]\n 19509: a0 = a1 + s1\n 19512: a1 = a0 <u a1\n 19515: s1 = u64 [sp + 0x40]\n 19518: a2 = u64 [sp + 0x78]\n 19521: a2 = a2 + s1\n 19524: a2 = a2 + a1\n 19527: a3 = a2 ^ s1\n 19530: a4 = a2 <u s1\n 19533: a4 = a1 if a3 == 0\n 19536: a5 = u64 [sp + 0x70]\n 19539: a1 = u64 [sp + 0x80]\n 19543: a1 = a1 + a5\n 19546: a4 = a4 + a1\n 19549: t0 = a4 <u a1\n 19552: a1 = a1 <u a5\n 19555: a5 = u64 [sp + 0x88]\n 19559: a3 = u64 [sp + 0x68]\n 19562: a5 = a5 + a3\n 19565: a1 = a1 + a5\n 19568: a1 = a1 + t0\n 19571: a1 = a1 | a4\n 19574: a3 = 0xffffffe0\n 19584: a3 = a0 <u a3\n 19587: a3 = 0 if a2 != 0\n 19589: a3 = 0 if a1 != 0\n 19591: jump @630 if a3 == 0\n      : @628 (gas: 7)\n 19594: i32 a0 = a0 + 0x20\n 19597: u64 [sp + 232] = 0\n 19601: u64 [sp + 224] = 0\n 19605: u64 [sp + 216] = 0\n 19609: a1 = sp + 0xd0\n 19613: u64 [sp + 208] = 0\n 19617: ra = 556, jump @19\n      : @629 [@dyn 278] (gas: 14)\n 19623: a0 = u64 [sp + 0x8]\n 19626: a1 = u64 [sp + 0x68]\n 19629: u64 [a0 + 0x18] = a1\n 19632: a1 = u64 [sp + 0x70]\n 19635: u64 [a0 + 0x10] = a1\n 19638: u64 [a0 + 0x8] = s1\n 19641: a1 = u64 [sp + 0x60]\n 19644: u64 [a0] = a1\n 19646: sp = s0 + 0xfffffffffffffe70\n 19650: ra = u64 [sp + 0x188]\n 19654: s0 = u64 [sp + 0x180]\n 19658: s1 = u64 [sp + 0x178]\n 19662: sp = sp + 0x190\n 19666: ret\n      : @630 (gas: 1)\n 19668: trap\n      : @631 (gas: 2)\n 19669: a1 = 0x200f0\n 19674: jump @639\n      : @632 (gas: 6)\n 19676: u64 [sp + 192] = 0\n 19680: u64 [sp + 184] = 0\n 19684: u64 [sp + 176] = 0\n 19688: t0 = 0x22e\n 19692: a0 = 0x4e487b7100000000\n 19702: fallthrough\n      : @633 [@dyn 279] (gas: 4)\n 19703: a1 = sp + 0xb0\n 19707: u64 [sp + 0xc8] = a0\n 19711: a0 = 0\n 19713: ra = 560, jump @19\n      : @634 [@dyn 280] (gas: 7)\n 19719: u64 [sp + 168] = 0\n 19723: u64 [sp + 160] = 0\n 19727: u64 [sp + 144] = 0x41\n 19732: a0 = 0x4\n 19735: a1 = sp + 0x90\n 19739: u64 [sp + 152] = 0\n 19743: ra = 562, jump @19\n      : @635 [@dyn 281] (gas: 2)\n 19749: a1 = i32 [0x200e4]\n 19754: jump @637 if a1 >u 63\n      : @636 (gas: 2)\n 19758: u32 [0x200e4] = 0x40\n 19764: fallthrough\n      : @637 (gas: 7)\n 19765: a1 = 0x200f0\n 19770: i32 a1 = a1 + 0\n 19772: a0 = 0x1\n 19775: a2 = 0x24\n 19778: ecalli 7 // 'seal_return'\n 19780: a1 = 0x200f0\n 19785: jump @639\n      : @638 (gas: 2)\n 19787: a1 = 0x200f0\n 19792: fallthrough\n      : @639 (gas: 6)\n 19793: i32 a1 = a1 + 0\n 19795: a0 = 0x1\n 19798: a2 = 0\n 19800: ra = 0x234\n 19804: ecalli 7 // 'seal_return'\n 19806: fallthrough\n      : @640 [@dyn 282] (gas: 22)\n 19807: sp = sp + 0xfffffffffffffee0\n 19811: u64 [sp + 0x118] = ra\n 19815: u64 [sp + 0x110] = s0\n 19819: u64 [sp + 0x108] = s1\n 19823: s0 = sp + 0x120\n 19827: sp = sp & 0xfffffffffffffff0\n 19830: a4 = u64 [a1 + 0x10]\n 19833: a3 = u64 [a1 + 0x18]\n 19836: a5 = u64 [a1 + 0x8]\n 19839: t0 = u64 [a1]\n 19841: u64 [sp + 0x68] = a3\n 19844: u64 [sp + 0x78] = a5\n 19847: a1 = a5 | a3\n 19850: a3 = t0 | a4\n 19853: a3 = a3 | a1\n 19856: a3 = a3 >> 0x20\n 19859: u64 [sp + 0x70] = a4\n 19862: a1 = a1 | a4\n 19865: a1 = a1 << 0x20\n 19868: a1 = a1 | a3\n 19871: u64 [sp + 0x8] = a0\n 19874: jump @655 if a1 != 0\n      : @641 (gas: 15)\n 19878: a0 = u64 [a2 + 0x18]\n 19881: u64 [sp + 0x48] = a0\n 19884: s1 = u64 [a2 + 0x10]\n 19887: a0 = u64 [a2 + 0x8]\n 19890: u64 [sp + 0x50] = a0\n 19893: a0 = u64 [a2]\n 19895: u64 [sp + 0x58] = a0\n 19898: u64 [sp + 248] = 0\n 19902: u64 [sp + 240] = 0\n 19906: u64 [sp + 232] = 0\n 19910: a1 = sp + 0xe0\n 19914: u64 [sp + 224] = 0x20\n 19919: a0 = t0\n 19921: u64 [sp + 0x60] = t0\n 19924: ra = 566, jump @19\n      : @642 [@dyn 283] (gas: 12)\n 19930: a1 = u64 [sp + 0x58]\n 19933: a0 = a1 | s1\n 19936: a2 = u64 [sp + 0x48]\n 19939: a3 = u64 [sp + 0x50]\n 19942: a2 = a2 | a3\n 19945: a0 = a0 | a2\n 19948: a0 = a0 >> 0x20\n 19951: u64 [sp + 0x20] = s1\n 19954: a2 = a2 | s1\n 19957: a2 = a2 << 0x20\n 19960: a0 = a0 | a2\n 19963: jump @655 if a0 != 0\n      : @643 (gas: 2)\n 19967: a0 = sp + 0xc0\n 19971: ra = 568, jump @17\n      : @644 [@dyn 284] (gas: 13)\n 19977: a0 = u64 [sp + 0x70]\n 19980: a1 = u64 [sp + 0x68]\n 19983: a1 = a1 | a0\n 19986: a0 = 0x100000000\n 19996: u64 [sp + 0x10] = a0\n 19999: a0 = 0xffffffe0\n 20009: a2 = u64 [sp + 0x60]\n 20012: a0 = a2 <u a0\n 20015: a3 = u64 [sp + 0x78]\n 20018: a0 = 0 if a3 != 0\n 20020: u64 [sp + 0x18] = a1\n 20023: a0 = 0 if a1 != 0\n 20025: jump @655 if a0 == 0\n      : @645 (gas: 16)\n 20029: a3 = u64 [sp + 0xd8]\n 20033: a4 = u64 [sp + 0xd0]\n 20037: a5 = u64 [sp + 0xc8]\n 20041: a1 = u64 [sp + 0xc0]\n 20045: i32 a0 = a2 + 0x20\n 20048: u64 [sp + 0x28] = a1\n 20051: u64 [sp + 0xa0] = a1\n 20055: u64 [sp + 0x30] = a5\n 20058: u64 [sp + 0xa8] = a5\n 20062: u64 [sp + 0x38] = a4\n 20065: u64 [sp + 0xb0] = a4\n 20069: a1 = sp + 0xa0\n 20073: u64 [sp + 0x40] = a3\n 20076: u64 [sp + 0xb8] = a3\n 20080: s1 = a2\n 20082: ra = 570, jump @19\n      : @646 [@dyn 285] (gas: 8)\n 20088: a0 = u64 [sp + 0x10]\n 20091: a0 = a0 + 0xffffffffffffffc0\n 20094: a0 = s1 <u a0\n 20097: a1 = u64 [sp + 0x78]\n 20100: a0 = 0 if a1 != 0\n 20102: a1 = u64 [sp + 0x18]\n 20105: a0 = 0 if a1 != 0\n 20107: jump @655 if a0 == 0\n      : @647 (gas: 10)\n 20111: a0 = u64 [sp + 0x48]\n 20114: a1 = u64 [sp + 0x20]\n 20117: a0 = a0 | a1\n 20120: a1 = 0xffffffe0\n 20130: a3 = u64 [sp + 0x58]\n 20133: a1 = a3 <u a1\n 20136: a4 = u64 [sp + 0x50]\n 20139: a1 = 0 if a4 != 0\n 20141: a1 = 0 if a0 != 0\n 20143: jump @655 if a1 == 0\n      : @648 (gas: 13)\n 20147: a2 = s1\n 20149: a1 = u64 [sp + 0x28]\n 20152: a5 = u64 [sp + 0x38]\n 20155: a0 = a1 | a5\n 20158: a4 = u64 [sp + 0x40]\n 20161: s1 = u64 [sp + 0x30]\n 20164: a4 = a4 | s1\n 20167: a0 = a0 | a4\n 20170: a0 = a0 >> 0x20\n 20173: a4 = a4 | a5\n 20176: a4 = a4 << 0x20\n 20179: a0 = a0 | a4\n 20182: jump @655 if a0 != 0\n      : @649 (gas: 5)\n 20186: i32 a0 = a2 + 0x40\n 20189: i32 a3 = a3 + 0x20\n 20192: u64 [sp + 0x58] = a3\n 20195: s1 = a1\n 20197: ra = 572, jump @26\n      : @650 [@dyn 286] (gas: 4)\n 20203: u64 [sp + 0x50] = a0\n 20206: a0 = u64 [sp + 0x58]\n 20209: a1 = s1\n 20211: ra = 574, jump @26\n      : @651 [@dyn 287] (gas: 4)\n 20217: a1 = a0\n 20219: a0 = u64 [sp + 0x50]\n 20222: a2 = s1\n 20224: ra = 576, jump @0\n      : @652 [@dyn 288] (gas: 27)\n 20230: a0 = u64 [sp + 0x60]\n 20233: a0 = a0 + s1\n 20236: a1 = a0 <u s1\n 20239: a2 = u64 [sp + 0x78]\n 20242: a4 = u64 [sp + 0x30]\n 20245: a2 = a2 + a4\n 20248: a2 = a2 + a1\n 20251: a3 = a2 ^ a4\n 20254: a4 = a2 <u a4\n 20257: a4 = a1 if a3 == 0\n 20260: a1 = u64 [sp + 0x70]\n 20263: a3 = u64 [sp + 0x38]\n 20266: a1 = a1 + a3\n 20269: a3 = a1 <u a3\n 20272: a5 = u64 [sp + 0x68]\n 20275: s1 = u64 [sp + 0x40]\n 20278: a5 = a5 + s1\n 20281: a3 = a3 + a5\n 20284: a4 = a4 + a1\n 20287: a1 = a4 <u a1\n 20290: a1 = a1 + a3\n 20293: a1 = a1 | a4\n 20296: a3 = 0xffffffc0\n 20306: a3 = a0 <u a3\n 20309: a3 = 0 if a2 != 0\n 20311: a3 = 0 if a1 != 0\n 20313: jump @655 if a3 == 0\n      : @653 (gas: 7)\n 20317: i32 a0 = a0 + 0x40\n 20320: u64 [sp + 152] = 0\n 20324: u64 [sp + 144] = 0\n 20328: u64 [sp + 136] = 0\n 20332: a1 = sp + 0x80\n 20336: u64 [sp + 128] = 0\n 20340: ra = 578, jump @19\n      : @654 [@dyn 289] (gas: 35)\n 20346: s1 = u64 [sp + 0x28]\n 20349: s1 = s1 + 0x1f\n 20352: a0 = 0x1ffffffe0\n 20362: a0 = a0 & s1\n 20365: a1 = u64 [sp + 0x60]\n 20368: a0 = a0 + a1\n 20371: a1 = a0 <u a1\n 20374: a3 = u64 [sp + 0x78]\n 20377: a2 = a3 + a1\n 20380: a3 = a2 <u a3\n 20383: a3 = a1 if a1 == 0\n 20386: a1 = u64 [sp + 0x70]\n 20389: a3 = a3 + a1\n 20392: a1 = a3 <u a1\n 20395: a4 = u64 [sp + 0x68]\n 20398: a1 = a1 + a4\n 20401: a4 = a0 + 0x40\n 20404: a0 = a4 <u a0\n 20407: a5 = a2 + a0\n 20410: a2 = a5 <u a2\n 20413: a2 = a0 if a0 == 0\n 20416: a2 = a2 + a3\n 20419: a0 = a2 <u a3\n 20422: a0 = a0 + a1\n 20425: a1 = u64 [sp + 0x8]\n 20428: u64 [a1] = a4\n 20430: u64 [a1 + 0x8] = a5\n 20433: u64 [a1 + 0x10] = a2\n 20436: u64 [a1 + 0x18] = a0\n 20439: sp = s0 + 0xfffffffffffffee0\n 20443: ra = u64 [sp + 0x118]\n 20447: s0 = u64 [sp + 0x110]\n 20451: s1 = u64 [sp + 0x108]\n 20455: sp = sp + 0x120\n 20459: ret\n      : @655 (gas: 1)\n 20461: trap\n      : @656 [@dyn 290] (gas: 5)\n 20462: a1 = 0x4\n 20465: ra = 0x246\n 20469: ecalli 1 // 'call_data_load'\n 20471: t0 = 0x248\n 20475: jump @739\n      : @657 [@dyn 291] (gas: 1)\n 20478: t0 = 584, jump @739\n      : @658 [@dyn 292] (gas: 1)\n 20484: jump @661 if a3 == 0\n      : @659 (gas: 1)\n 20487: t0 = 586, jump @744\n      : @660 [@dyn 293] (gas: 1)\n 20493: ret\n      : @661 (gas: 8)\n 20495: a1 = 0x200f0\n 20500: i32 a1 = a1 + 0\n 20502: a0 = 0x1\n 20505: a2 = 0\n 20507: ra = 0x24c\n 20511: ecalli 7 // 'seal_return'\n 20513: t0 = 0x24e\n 20517: jump @749\n      : @662 [@dyn 294] (gas: 1)\n 20520: t0 = 590, jump @749\n      : @663 [@dyn 295] (gas: 5)\n 20526: a1 = 0x24\n 20529: ra = 0x250\n 20533: ecalli 1 // 'call_data_load'\n 20535: t0 = 0x252\n 20539: jump @739\n      : @664 [@dyn 296] (gas: 1)\n 20542: t0 = 594, jump @739\n      : @665 [@dyn 297] (gas: 1)\n 20548: jump @668 if a3 == 0\n      : @666 (gas: 1)\n 20551: t0 = 596, jump @744\n      : @667 [@dyn 298] (gas: 1)\n 20557: ret\n      : @668 (gas: 7)\n 20559: a1 = 0x200f0\n 20564: i32 a1 = a1 + 0\n 20566: a0 = 0x1\n 20569: a2 = 0\n 20571: ra = 0x256\n 20575: ecalli 7 // 'seal_return'\n 20577: fallthrough\n      : @669 [@dyn 299] (gas: 14)\n 20578: sp = sp + 0xfffffffffffffc20\n 20582: a3 = sp + 0x300\n 20586: u64 [a3 + 0xd8] = ra\n 20590: u64 [a3 + 0xd0] = s0\n 20594: u64 [a3 + 0xc8] = s1\n 20598: s0 = sp + 0x3e0\n 20602: sp = sp & 0xffffffffffffffe0\n 20605: s1 = sp\n 20607: t2 = u32 [a0 + 0x10]\n 20610: a3 = u64 [a0]\n 20612: a4 = u64 [a0 + 0x8]\n 20615: a0 = a3 | t2\n 20618: a0 = a0 | a4\n 20621: jump @701 if a0 == 0\n      : @670 (gas: 13)\n 20625: t0 = u64 [a1 + 0x10]\n 20628: t1 = u64 [a1 + 0x8]\n 20631: ra = u64 [a1]\n 20633: a5 = 0xffffffff\n 20643: a1 = t1 & 0xffffffffffffffff\n 20646: a0 = ra & 0xffffffffffffffff\n 20649: a5 = t0 & a5\n 20652: u64 [s1 + 0x48] = a0\n 20655: u64 [s1 + 0x38] = a5\n 20658: a0 = a0 | a5\n 20661: u64 [s1 + 0x40] = a1\n 20664: a0 = a0 | a1\n 20667: jump @706 if a0 == 0\n      : @671 (gas: 18)\n 20671: a0 = u64 [a2 + 0x18]\n 20674: u64 [s1 + 0x98] = a0\n 20678: a0 = u64 [a2 + 0x10]\n 20681: u64 [s1 + 0x88] = a0\n 20685: a0 = u64 [a2 + 0x8]\n 20688: u64 [s1 + 0x80] = a0\n 20692: a0 = u64 [a2]\n 20694: u64 [s1 + 0x90] = a0\n 20698: u64 [s1 + 824] = 0\n 20702: u64 [s1 + 0x60] = a3\n 20705: u64 [s1 + 0x320] = a3\n 20709: u64 [s1 + 0x58] = a4\n 20712: u64 [s1 + 0x328] = a4\n 20716: a1 = s1 + 0x320\n 20720: u64 [s1 + 0x50] = t2\n 20723: u64 [s1 + 0x330] = t2\n 20727: a0 = 0\n 20729: ra = 600, jump @19\n      : @672 [@dyn 300] (gas: 7)\n 20735: u64 [s1 + 792] = 0\n 20739: u64 [s1 + 784] = 0\n 20743: u64 [s1 + 776] = 0\n 20747: a0 = 0x20\n 20750: a1 = s1 + 0x300\n 20754: u64 [s1 + 768] = 0\n 20758: ra = 602, jump @19\n      : @673 [@dyn 301] (gas: 3)\n 20764: a2 = 0x200e4\n 20769: a0 = i32 [0x200e4]\n 20774: jump @675 if a0 >u 63\n      : @674 (gas: 2)\n 20778: u32 [0x200e4] = 0x40\n 20784: fallthrough\n      : @675 (gas: 15)\n 20785: u64 [s1 + 0x70] = a2\n 20788: a0 = sp + 0xffffffffffffffe0\n 20791: a2 = a0 & 0xffffffffffffffe0\n 20794: u64 [s1 + 0x68] = a2\n 20797: sp = a2\n 20799: a0 = 0x200f0\n 20804: i32 a0 = a0 + 0\n 20806: i32 a2 = a2 + 0\n 20808: a1 = 0x40\n 20811: u64 [s1 + 0x78] = a0\n 20814: ra = 0x25c\n 20818: ecalli 6 // 'hash_keccak_256'\n 20820: a3 = u64 [s1 + 0x68]\n 20823: t0 = 0x25e\n 20827: jump @741\n      : @676 [@dyn 302] (gas: 2)\n 20830: a3 = u64 [s1 + 0x68]\n 20833: t0 = 606, jump @741\n      : @677 [@dyn 303] (gas: 7)\n 20839: u64 [a4 + 0x58] = a3\n 20842: u64 [a4 + 0x50] = a2\n 20845: u64 [a4 + 0x48] = a1\n 20848: u64 [a4 + 0x40] = a0\n 20851: a0 = s1 + 0x2e0\n 20855: a1 = s1 + 0x340\n 20859: ra = 608, jump @21\n      : @678 [@dyn 304] (gas: 28)\n 20865: a1 = s1 + 0x200\n 20869: a2 = u64 [a1 + 0xf8]\n 20873: a0 = u64 [a1 + 0xf0]\n 20877: a5 = u64 [a1 + 0xe8]\n 20881: a4 = u64 [a1 + 0xe0]\n 20885: a1 = u64 [s1 + 0x98]\n 20889: t1 = a2 ^ a1\n 20892: u64 [s1 + 0x28] = a2\n 20895: a1 = a2 <u a1\n 20898: a2 = u64 [s1 + 0x88]\n 20902: a3 = a0 <u a2\n 20905: u64 [s1 + 0x10] = a3\n 20908: a1 = a3 if t1 == 0\n 20911: a3 = u64 [s1 + 0x80]\n 20915: t0 = a5 ^ a3\n 20918: u64 [s1 + 0x30] = a5\n 20921: a5 = a5 <u a3\n 20924: a3 = u64 [s1 + 0x90]\n 20928: u64 [s1 + 0x68] = a4\n 20931: a3 = a4 <u a3\n 20934: u64 [s1 + 0x18] = a3\n 20937: a5 = a3 if t0 == 0\n 20940: u64 [s1 + 0x20] = a0\n 20943: a2 = a2 ^ a0\n 20946: a0 = a2 | t1\n 20949: u64 [s1 + 0x8] = a5\n 20952: a1 = a5 if a0 == 0\n 20955: jump @712 if a1 != 0\n      : @679 (gas: 11)\n 20959: u64 [s1 + 728] = 0\n 20963: a0 = u64 [s1 + 0x60]\n 20966: a2 = s1 + 0x200\n 20970: u64 [a2 + 0xc0] = a0\n 20974: a0 = u64 [s1 + 0x58]\n 20977: u64 [a2 + 0xc8] = a0\n 20981: a1 = s1 + 0x2c0\n 20985: a0 = u64 [s1 + 0x50]\n 20988: u64 [a2 + 0xd0] = a0\n 20992: a0 = 0\n 20994: ra = 610, jump @19\n      : @680 [@dyn 305] (gas: 7)\n 21000: u64 [s1 + 696] = 0\n 21004: u64 [s1 + 688] = 0\n 21008: u64 [s1 + 680] = 0\n 21012: a0 = 0x20\n 21015: a1 = s1 + 0x2a0\n 21019: u64 [s1 + 672] = 0\n 21023: ra = 612, jump @19\n      : @681 [@dyn 306] (gas: 27)\n 21029: a0 = u64 [s1 + 0x88]\n 21033: a1 = u64 [s1 + 0x20]\n 21036: a0 = a1 - a0\n 21039: a2 = u64 [s1 + 0x8]\n 21042: a1 = a0 - a2\n 21045: u64 [s1 + 0x20] = a1\n 21048: a0 = a0 <u a2\n 21051: a1 = u64 [s1 + 0x98]\n 21055: a2 = u64 [s1 + 0x28]\n 21058: a1 = a2 - a1\n 21061: a2 = u64 [s1 + 0x10]\n 21064: a1 = a1 - a2\n 21067: a1 = a1 - a0\n 21070: u64 [s1 + 0x28] = a1\n 21073: a2 = u64 [s1 + 0x70]\n 21076: a0 = i32 [a2]\n 21078: a1 = u64 [s1 + 0x80]\n 21082: a3 = u64 [s1 + 0x30]\n 21085: a1 = a3 - a1\n 21088: a3 = u64 [s1 + 0x18]\n 21091: a1 = a1 - a3\n 21094: u64 [s1 + 0x30] = a1\n 21097: a1 = u64 [s1 + 0x90]\n 21101: a3 = u64 [s1 + 0x68]\n 21104: a3 = a3 - a1\n 21107: u64 [s1 + 0x68] = a3\n 21110: jump @683 if a0 >u 63\n      : @682 (gas: 2)\n 21114: u32 [a2 + 0] = 0x40\n 21117: fallthrough\n      : @683 (gas: 12)\n 21118: a0 = sp + 0xffffffffffffffe0\n 21121: a0 = a0 & 0xffffffffffffffe0\n 21124: u64 [s1 + 0x18] = a0\n 21127: sp = a0\n 21129: i32 a2 = a0 + 0\n 21131: a1 = 0x40\n 21134: a0 = u64 [s1 + 0x78]\n 21137: ra = 0x266\n 21141: ecalli 6 // 'hash_keccak_256'\n 21143: a3 = u64 [s1 + 0x18]\n 21146: t0 = 0x268\n 21150: jump @741\n      : @684 [@dyn 307] (gas: 2)\n 21153: a3 = u64 [s1 + 0x18]\n 21156: t0 = 616, jump @741\n      : @685 [@dyn 308] (gas: 15)\n 21162: u64 [a4 + 0x78] = a3\n 21165: u64 [a4 + 0x70] = a2\n 21168: u64 [a4 + 0x68] = a1\n 21171: u64 [a4 + 0x60] = a0\n 21174: a0 = u64 [s1 + 0x28]\n 21177: u64 [a4 + 0x98] = a0\n 21181: a0 = u64 [s1 + 0x20]\n 21184: u64 [a4 + 0x90] = a0\n 21188: a0 = u64 [s1 + 0x30]\n 21191: u64 [a4 + 0x88] = a0\n 21195: a0 = u64 [s1 + 0x68]\n 21198: u64 [a4 + 0x80] = a0\n 21202: a0 = s1 + 0x360\n 21206: a1 = s1 + 0x380\n 21210: ra = 618, jump @22\n      : @686 [@dyn 309] (gas: 11)\n 21216: u64 [s1 + 664] = 0\n 21220: a0 = u64 [s1 + 0x38]\n 21223: a2 = s1 + 0x200\n 21227: u64 [a2 + 0x90] = a0\n 21231: a0 = u64 [s1 + 0x40]\n 21234: u64 [a2 + 0x88] = a0\n 21238: a1 = s1 + 0x280\n 21242: a0 = u64 [s1 + 0x48]\n 21245: u64 [a2 + 0x80] = a0\n 21249: a0 = 0\n 21251: ra = 620, jump @19\n      : @687 [@dyn 310] (gas: 7)\n 21257: u64 [s1 + 632] = 0\n 21261: u64 [s1 + 624] = 0\n 21265: u64 [s1 + 616] = 0\n 21269: a0 = 0x20\n 21272: a1 = s1 + 0x260\n 21276: u64 [s1 + 608] = 0\n 21280: ra = 622, jump @19\n      : @688 [@dyn 311] (gas: 7)\n 21286: a1 = u64 [s1 + 0x70]\n 21289: a0 = sp + 0xffffffffffffffe0\n 21292: a0 = a0 & 0xffffffffffffffe0\n 21295: u64 [s1 + 0x68] = a0\n 21298: sp = a0\n 21300: a0 = i32 [a1]\n 21302: jump @690 if a0 >u 63\n      : @689 (gas: 2)\n 21306: u32 [a1 + 0] = 0x40\n 21309: fallthrough\n      : @690 (gas: 12)\n 21310: a0 = sp + 0xffffffffffffffe0\n 21313: a0 = a0 & 0xffffffffffffffe0\n 21316: u64 [s1 + 0x70] = a0\n 21319: sp = a0\n 21321: i32 a2 = a0 + 0\n 21323: a1 = 0x40\n 21326: a0 = u64 [s1 + 0x78]\n 21329: ra = 0x270\n 21333: ecalli 6 // 'hash_keccak_256'\n 21335: a3 = u64 [s1 + 0x70]\n 21338: t0 = 0x272\n 21342: jump @734\n      : @691 [@dyn 312] (gas: 2)\n 21345: a3 = u64 [s1 + 0x70]\n 21348: t0 = 626, jump @734\n      : @692 [@dyn 313] (gas: 7)\n 21354: a1 = u64 [s1 + 0x68]\n 21357: u64 [a1 + 0x18] = a3\n 21360: u64 [a1 + 0x10] = a2\n 21363: u64 [a1 + 0x8] = a4\n 21366: u64 [a1] = a0\n 21368: a0 = s1 + 0x240\n 21372: ra = 628, jump @21\n      : @693 [@dyn 314] (gas: 30)\n 21378: a0 = u64 [s1 + 0x248]\n 21382: a1 = u64 [s1 + 0x240]\n 21386: t0 = u64 [s1 + 0x258]\n 21390: a3 = u64 [s1 + 0x250]\n 21394: a4 = u64 [s1 + 0x80]\n 21398: a4 = a4 + a0\n 21401: a5 = u64 [s1 + 0x90]\n 21405: a5 = a5 + a1\n 21408: a1 = a5 <u a1\n 21411: a4 = a4 + a1\n 21414: a2 = a4 ^ a0\n 21417: a0 = a4 <u a0\n 21420: a0 = a1 if a2 == 0\n 21423: a1 = u64 [s1 + 0x88]\n 21427: a1 = a1 + a3\n 21430: a2 = u64 [s1 + 0x98]\n 21434: t0 = t0 + a2\n 21437: a2 = a1 <u a3\n 21440: a2 = a2 + t0\n 21443: a0 = a0 + a1\n 21446: a1 = a0 <u a1\n 21449: a1 = a1 + a2\n 21452: a2 = s1 + 0x300\n 21456: u64 [a2 + 0xa0] = a5\n 21460: u64 [a2 + 0xa8] = a4\n 21464: u64 [a2 + 0xb0] = a0\n 21468: u64 [a2 + 0xb8] = a1\n 21472: a1 = s1 + 0x3a0\n 21476: a0 = u64 [s1 + 0x68]\n 21479: ra = 630, jump @22\n      : @694 [@dyn 315] (gas: 3)\n 21485: a0 = s1 + 0x220\n 21489: a1 = 0x40\n 21492: ra = 632, jump @17\n      : @695 [@dyn 316] (gas: 6)\n 21498: a4 = s1 + 0x200\n 21502: a3 = u64 [a4 + 0x38]\n 21505: a1 = u64 [a4 + 0x30]\n 21508: a2 = u64 [a4 + 0x28]\n 21511: a0 = u64 [a4 + 0x20]\n 21514: t0 = 634, jump @738\n      : @696 [@dyn 317] (gas: 1)\n 21520: jump @700 if a1 != 0\n      : @697 (gas: 12)\n 21524: a1 = u64 [s1 + 0x90]\n 21528: a3 = s1 + 0x200\n 21532: u64 [a3] = a1\n 21534: a1 = u64 [s1 + 0x80]\n 21538: u64 [a3 + 0x8] = a1\n 21541: a1 = u64 [s1 + 0x88]\n 21545: u64 [a3 + 0x10] = a1\n 21548: a1 = s1 + 0x200\n 21552: a2 = u64 [s1 + 0x98]\n 21556: u64 [a3 + 0x18] = a2\n 21559: u64 [s1 + 0x98] = a0\n 21563: ra = 636, jump @19\n      : @698 [@dyn 318] (gas: 29)\n 21569: u64 [s1 + 440] = 0\n 21573: a0 = u64 [s1 + 0x38]\n 21576: a5 = s1 + 0x100\n 21580: u64 [a5 + 0xb0] = a0\n 21584: a0 = u64 [s1 + 0x40]\n 21587: u64 [a5 + 0xa8] = a0\n 21591: a0 = u64 [s1 + 0x48]\n 21594: u64 [a5 + 0xa0] = a0\n 21598: u64 [s1 + 472] = 0\n 21602: a0 = u64 [s1 + 0x50]\n 21605: u64 [a5 + 0xd0] = a0\n 21609: a0 = u64 [s1 + 0x58]\n 21612: u64 [a5 + 0xc8] = a0\n 21616: a0 = u64 [0x200c0]\n 21621: a1 = u64 [0x200c8]\n 21626: a2 = u64 [0x200d0]\n 21631: a3 = u64 [s1 + 0x60]\n 21634: u64 [a5 + 0xc0] = a3\n 21638: u64 [a5 + 0xf8] = a0\n 21642: u64 [a5 + 0xf0] = a1\n 21646: u64 [a5 + 0xe8] = a2\n 21650: a0 = u64 [0x200d8]\n 21655: a1 = 0x20\n 21658: a2 = s1 + 0x1e0\n 21662: a3 = s1 + 0x1c0\n 21666: a4 = s1 + 0x1a0\n 21670: u64 [a5 + 0xe0] = a0\n 21674: a0 = u64 [s1 + 0x98]\n 21678: ra = 638, jump @23\n      : @699 [@dyn 319] (gas: 7)\n 21684: sp = s0 + 0xfffffffffffffc20\n 21688: a0 = sp + 0x300\n 21692: ra = u64 [a0 + 0xd8]\n 21696: s0 = u64 [a0 + 0xd0]\n 21700: s1 = u64 [a0 + 0xc8]\n 21704: sp = sp + 0x3e0\n 21708: ret\n      : @700 (gas: 1)\n 21710: trap\n      : @701 (gas: 8)\n 21711: u64 [s1 + 208] = 0\n 21715: u64 [s1 + 200] = 0\n 21719: u64 [s1 + 192] = 0\n 21723: a0 = 0x96c6fd1e00000000\n 21733: a1 = s1 + 0xc0\n 21737: u64 [s1 + 0xd8] = a0\n 21741: a0 = 0\n 21743: ra = 640, jump @19\n      : @702 [@dyn 320] (gas: 7)\n 21749: u64 [s1 + 184] = 0\n 21753: u64 [s1 + 176] = 0\n 21757: u64 [s1 + 168] = 0\n 21761: a0 = 0x4\n 21764: a1 = s1 + 0xa0\n 21768: u64 [s1 + 160] = 0\n 21772: ra = 642, jump @19\n      : @703 [@dyn 321] (gas: 2)\n 21778: a1 = i32 [0x200e4]\n 21783: jump @705 if a1 >u 63\n      : @704 (gas: 3)\n 21787: u32 [0x200e4] = 0x40\n 21793: a1 = 0x200f0\n 21798: jump @711\n      : @705 (gas: 2)\n 21800: a1 = 0x200f0\n 21805: jump @711\n      : @706 (gas: 8)\n 21807: u64 [s1 + 272] = 0\n 21811: u64 [s1 + 264] = 0\n 21815: u64 [s1 + 256] = 0\n 21819: a0 = 0xec442f0500000000\n 21829: a1 = s1 + 0x100\n 21833: u64 [s1 + 0x118] = a0\n 21837: a0 = 0\n 21839: ra = 644, jump @19\n      : @707 [@dyn 322] (gas: 7)\n 21845: u64 [s1 + 248] = 0\n 21849: u64 [s1 + 240] = 0\n 21853: u64 [s1 + 232] = 0\n 21857: a0 = 0x4\n 21860: a1 = s1 + 0xe0\n 21864: u64 [s1 + 224] = 0\n 21868: ra = 646, jump @19\n      : @708 [@dyn 323] (gas: 2)\n 21874: a1 = i32 [0x200e4]\n 21879: jump @710 if a1 >u 63\n      : @709 (gas: 3)\n 21883: u32 [0x200e4] = 0x40\n 21889: a1 = 0x200f0\n 21894: jump @711\n      : @710 (gas: 2)\n 21896: a1 = 0x200f0\n 21901: fallthrough\n      : @711 (gas: 5)\n 21902: i32 a1 = a1 + 0\n 21904: a0 = 0x1\n 21907: a2 = 0x24\n 21910: ecalli 7 // 'seal_return'\n 21912: fallthrough\n      : @712 (gas: 8)\n 21913: u64 [s1 + 400] = 0\n 21917: u64 [s1 + 392] = 0\n 21921: u64 [s1 + 384] = 0\n 21925: a0 = 0xe450d38c00000000\n 21935: a1 = s1 + 0x180\n 21939: u64 [s1 + 0x198] = a0\n 21943: a0 = 0\n 21945: ra = 648, jump @19\n      : @713 [@dyn 324] (gas: 10)\n 21951: u64 [s1 + 376] = 0\n 21955: a0 = u64 [s1 + 0x50]\n 21958: u64 [s1 + 0x170] = a0\n 21962: a0 = u64 [s1 + 0x58]\n 21965: u64 [s1 + 0x168] = a0\n 21969: a0 = 0x4\n 21972: a1 = s1 + 0x160\n 21976: a2 = u64 [s1 + 0x60]\n 21979: u64 [s1 + 0x160] = a2\n 21983: ra = 650, jump @19\n      : @714 [@dyn 325] (gas: 11)\n 21989: a0 = u64 [s1 + 0x28]\n 21992: u64 [s1 + 0x158] = a0\n 21996: a0 = u64 [s1 + 0x20]\n 21999: u64 [s1 + 0x150] = a0\n 22003: a0 = u64 [s1 + 0x30]\n 22006: u64 [s1 + 0x148] = a0\n 22010: a0 = 0x24\n 22013: a1 = s1 + 0x140\n 22017: a2 = u64 [s1 + 0x68]\n 22020: u64 [s1 + 0x140] = a2\n 22024: ra = 652, jump @19\n      : @715 [@dyn 326] (gas: 12)\n 22030: a0 = u64 [s1 + 0x98]\n 22034: a3 = s1 + 0x100\n 22038: u64 [a3 + 0x38] = a0\n 22041: a0 = u64 [s1 + 0x88]\n 22045: u64 [a3 + 0x30] = a0\n 22048: a0 = u64 [s1 + 0x80]\n 22052: u64 [a3 + 0x28] = a0\n 22055: a0 = 0x44\n 22058: a1 = s1 + 0x120\n 22062: a2 = u64 [s1 + 0x90]\n 22066: u64 [a3 + 0x20] = a2\n 22069: ra = 654, jump @19\n      : @716 [@dyn 327] (gas: 3)\n 22075: a0 = u64 [s1 + 0x70]\n 22078: a0 = i32 [a0]\n 22080: jump @718 if a0 >u 127\n      : @717 (gas: 3)\n 22084: a1 = u64 [s1 + 0x70]\n 22087: u32 [a1 + 0] = 0x80\n 22091: fallthrough\n      : @718 (gas: 6)\n 22092: a0 = 0x1\n 22095: a2 = 0x64\n 22098: a1 = u64 [s1 + 0x78]\n 22101: ra = 0x290\n 22105: ecalli 7 // 'seal_return'\n 22107: fallthrough\n      : @719 [@dyn 328] (gas: 13)\n 22108: sp = sp + 0xffffffffffffff40\n 22112: u64 [sp + 0xb8] = ra\n 22116: u64 [sp + 0xb0] = s0\n 22120: u64 [sp + 0xa8] = s1\n 22124: s0 = sp + 0xc0\n 22128: sp = sp & 0xffffffffffffffe0\n 22131: u64 [sp + 152] = 0\n 22135: u64 [sp + 144] = 0\n 22139: u64 [sp + 136] = 0\n 22143: u64 [sp + 128] = 0x5\n 22148: a0 = sp + 0x60\n 22151: a1 = sp + 0x80\n 22155: ra = 658, jump @21\n      : @720 [@dyn 329] (gas: 11)\n 22161: a0 = u64 [sp + 0x68]\n 22164: u64 [sp + 0x18] = a0\n 22167: a0 = u64 [sp + 0x60]\n 22170: u64 [sp + 0x10] = a0\n 22173: a0 = u32 [sp + 0x70]\n 22176: u64 [sp + 0x8] = a0\n 22179: s1 = 0x300f0\n 22184: i32 a0 = s1 + 0\n 22186: u64 [sp] = a0\n 22188: ecalli 3 // 'caller'\n 22190: fallthrough\n      : @721 (gas: 22)\n 22191: a0 = u64 [0x300f8]\n 22196: a1 = u64 [0x300f0]\n 22201: a2 = i32 [0x30100]\n 22206: a0 = reverse a0\n 22208: a3 = a0 >> 0x20\n 22211: a1 = reverse a1\n 22213: a4 = a1 << 0x20\n 22216: a3 = a3 | a4\n 22219: a0 = a0 << 0x20\n 22222: a2 = reverse a2\n 22224: a2 = a2 >> 0x20\n 22227: a0 = a0 | a2\n 22230: a1 = a1 >> 0x20\n 22233: a2 = u64 [sp + 0x8]\n 22236: a1 = a1 ^ a2\n 22239: a2 = u64 [sp + 0x10]\n 22242: a0 = a0 ^ a2\n 22245: a0 = a0 | a1\n 22248: a1 = u64 [sp + 0x18]\n 22251: a1 = a1 ^ a3\n 22254: a0 = a0 | a1\n 22257: jump @723 if a0 != 0\n      : @722 (gas: 6)\n 22260: sp = s0 + 0xffffffffffffff40\n 22264: ra = u64 [sp + 0xb8]\n 22268: s0 = u64 [sp + 0xb0]\n 22272: s1 = u64 [sp + 0xa8]\n 22276: sp = sp + 0xc0\n 22280: ret\n      : @723 (gas: 8)\n 22282: u64 [sp + 80] = 0\n 22285: u64 [sp + 72] = 0\n 22288: u64 [sp + 64] = 0\n 22291: a0 = 0x118cdaa700000000\n 22301: a1 = sp + 0x40\n 22304: u64 [sp + 0x58] = a0\n 22307: a0 = 0\n 22309: ra = 660, jump @19\n      : @724 [@dyn 330] (gas: 4)\n 22315: a0 = u64 [sp]\n 22317: ra = 0x296\n 22321: ecalli 3 // 'caller'\n 22323: fallthrough\n      : @725 [@dyn 331] (gas: 4)\n 22324: a0 = u64 [s1 + 0x8]\n 22327: a1 = i32 [s1 + 0x10]\n 22330: a2 = u64 [s1]\n 22332: t0 = 664, jump @732\n      : @726 [@dyn 332] (gas: 7)\n 22337: u64 [sp + 56] = 0\n 22340: u64 [sp + 0x30] = a1\n 22343: u64 [sp + 0x28] = a0\n 22346: a0 = 0x4\n 22349: a1 = sp + 0x20\n 22352: u64 [sp + 0x20] = a3\n 22355: ra = 666, jump @19\n      : @727 [@dyn 333] (gas: 2)\n 22361: a1 = i32 [0x200e4]\n 22366: jump @729 if a1 >u 63\n      : @728 (gas: 2)\n 22370: u32 [0x200e4] = 0x40\n 22376: fallthrough\n      : @729 (gas: 8)\n 22377: a1 = 0x200f0\n 22382: i32 a1 = a1 + 0\n 22384: a0 = 0x1\n 22387: a2 = 0x24\n 22390: ecalli 7 // 'seal_return'\n 22392: a0 = 0\n 22394: ra = 0x29c\n 22398: jump @32\n      : @730 [export #0: 'call'] (gas: 2)\n 22401: a0 = 0\n 22403: ra = 668, jump @32\n      : @731 [@dyn 334] [export #1: 'deploy'] (gas: 2)\n 22409: a0 = 0x1\n 22412: ra = 670, jump @32\n      : @732 [@dyn 335] (gas: 11)\n 22418: a0 = reverse a0\n 22420: a3 = a0 << 0x20\n 22423: a1 = reverse a1\n 22425: a1 = a1 >> 0x20\n 22428: a3 = a3 | a1\n 22431: a0 = a0 >> 0x20\n 22434: a1 = reverse a2\n 22436: a2 = a1 << 0x20\n 22439: a0 = a0 | a2\n 22442: a1 = a1 >> 0x20\n 22445: jump [t0]\n      : @733 (gas: 22)\n 22447: a4 = u64 [s1 + 0x118]\n 22451: a2 = a4 <u 0x80\n 22455: a3 = u64 [s1 + 0xd0]\n 22459: a1 = a3 if a2 != 0\n 22462: a5 = u64 [s1 + 0xd8]\n 22466: a3 = u64 [s1 + 0xe8]\n 22470: a3 = a3 | a5\n 22473: a3 = a0 if a2 == 0\n 22476: a1 = 0xffffffffffffffff if a4 == 0\n 22479: a3 = 0xffffffffffffffff if a4 == 0\n 22482: a4 = u64 [s1 + 0xe0]\n 22486: a4 = 0 if a2 == 0\n 22488: a5 = 0 if a2 == 0\n 22490: a0 = u64 [s1 + 0xf8]\n 22494: a0 = a0 & ~a3\n 22497: a2 = u64 [s1 + 0x100]\n 22501: a1 = a2 & ~a1\n 22504: a2 = u64 [s1 + 0x108]\n 22508: a2 = a2 & ~a5\n 22511: a3 = u64 [s1 + 0x110]\n 22515: a3 = a3 & ~a4\n 22518: jump [t0]\n      : @734 (gas: 9)\n 22520: a0 = u64 [a3 + 0x18]\n 22523: a1 = u64 [a3 + 0x10]\n 22526: a2 = u64 [a3 + 0x8]\n 22529: a3 = u64 [a3]\n 22531: a0 = reverse a0\n 22533: a4 = reverse a1\n 22535: a2 = reverse a2\n 22537: a3 = reverse a3\n 22539: jump [t0]\n      : @735 (gas: 13)\n 22541: a4 = a0 << 0x3f\n 22544: a5 = a1 >> 0x1\n 22547: t1 = a5 | a4\n 22550: a5 = a3 << 0x3f\n 22553: a0 = a0 >> 0x1\n 22556: a0 = a0 | a5\n 22559: a1 = a1 << 0x3f\n 22562: a5 = a2 >> 0x1\n 22565: a1 = a1 | a5\n 22568: a3 = a3 >> 0x1\n 22571: a2 = a2 & 0x1\n 22574: a5 = -a2\n 22576: jump [t0]\n      : @736 (gas: 14)\n 22578: a0 = u64 [a2 + 0x8]\n 22581: a1 = i32 [a2 + 0x10]\n 22584: a2 = u64 [a2]\n 22586: a0 = reverse a0\n 22588: a3 = a0 << 0x20\n 22591: a1 = reverse a1\n 22593: a1 = a1 >> 0x20\n 22596: a1 = a1 | a3\n 22599: a0 = a0 >> 0x20\n 22602: a2 = reverse a2\n 22604: a3 = a2 << 0x20\n 22607: a0 = a0 | a3\n 22610: a2 = a2 >> 0x20\n 22613: jump [t0]\n      : @737 (gas: 10)\n 22615: a4 = 0 if a2 == 0\n 22617: a1 = u64 [s1 + 0xf8]\n 22621: a1 = a1 & ~a3\n 22624: a2 = u64 [s1 + 0x100]\n 22628: a0 = a2 & ~a0\n 22631: a2 = u64 [s1 + 0x108]\n 22635: a2 = a2 & ~a4\n 22638: a3 = u64 [s1 + 0x110]\n 22642: a3 = a3 & ~a5\n 22645: jump [t0]\n      : @738 (gas: 8)\n 22647: a3 = a3 | a2\n 22650: a2 = a0 | a1\n 22653: a2 = a2 | a3\n 22656: a2 = a2 >> 0x20\n 22659: a1 = a1 | a3\n 22662: a1 = a1 << 0x20\n 22665: a1 = a1 | a2\n 22668: jump [t0]\n      : @739 (gas: 10)\n 22670: a0 = u64 [sp + 0x10]\n 22673: a1 = u64 [sp + 0x18]\n 22676: a2 = 0x100000000\n 22686: a2 = a2 ^ a0\n 22689: a2 = a2 | a1\n 22692: a3 = a0 >> 0x20\n 22695: a3 = a3 <u 0x1\n 22698: a3 = 0 if a1 != 0\n 22700: a3 = 0 if a2 == 0\n 22702: jump [t0]\n      : @740 (gas: 8)\n 22704: a2 = a4 >u 0\n 22706: a1 = a1 ^ 0x1\n 22709: a1 = a2 if a4 != 0\n 22712: a2 = t2 >u 0\n 22714: a3 = a5 >u 0\n 22716: a3 = a2 if a5 == 0\n 22719: a3 = a1 if a0 == 0\n 22722: jump [t0]\n      : @741 (gas: 10)\n 22724: a0 = u64 [a3 + 0x18]\n 22727: a1 = u64 [a3 + 0x10]\n 22730: a2 = u64 [a3 + 0x8]\n 22733: a3 = u64 [a3]\n 22735: a0 = reverse a0\n 22737: a1 = reverse a1\n 22739: a2 = reverse a2\n 22741: a3 = reverse a3\n 22743: a4 = s1 + 0x300\n 22747: jump [t0]\n      : @742 (gas: 8)\n 22749: a2 = a1 | a5\n 22752: a0 = a0 | a3\n 22755: a2 = a2 | a0\n 22758: a2 = a2 >> 0x20\n 22761: a0 = a0 | a5\n 22764: a0 = a0 << 0x20\n 22767: a0 = a0 | a2\n 22770: jump [t0]\n      : @743 (gas: 10)\n 22772: u64 [s1 + 264] = 0\n 22776: a4 = 0\n 22778: ra = 0\n 22780: u64 [s1 + 248] = 0\n 22784: u64 [s1 + 256] = 0\n 22788: a3 = u64 [s1 + 0xe8]\n 22792: a0 = u64 [a3 + 0x18]\n 22795: a1 = u64 [a3 + 0x10]\n 22798: a2 = u64 [a3 + 0x8]\n 22801: jump [t0]\n      : @744 (gas: 12)\n 22803: a2 = u64 [sp]\n 22805: a3 = u64 [sp + 0x8]\n 22808: u64 [s1] = a2\n 22810: u64 [s1 + 0x8] = a3\n 22813: u64 [s1 + 0x10] = a0\n 22816: u64 [s1 + 0x18] = a1\n 22819: sp = s0 + 0xffffffffffffffc0\n 22822: ra = u64 [sp + 0x38]\n 22825: s0 = u64 [sp + 0x30]\n 22828: s1 = u64 [sp + 0x28]\n 22831: sp = sp + 0x40\n 22834: jump [t0]\n      : @745 (gas: 8)\n 22836: a4 = a4 | a2\n 22839: a2 = a0 | a1\n 22842: a2 = a2 | a4\n 22845: a2 = a2 >> 0x20\n 22848: a1 = a1 | a4\n 22851: a1 = a1 << 0x20\n 22854: a1 = a1 | a2\n 22857: jump [t0]\n      : @746 (gas: 7)\n 22859: a0 = a0 << 0x3b\n 22862: a1 = a0 >> 0x38\n 22865: u64 [s1 + 0x118] = a1\n 22869: a2 = 0x80 - a1\n 22873: a0 = 0xffffffffffffffff\n 22876: a1 = 0xffffffffffffffff\n 22879: jump [t0]\n      : @747 (gas: 10)\n 22881: u64 [s1 + 0xd8] = a0\n 22885: u64 [s1 + 0xe0] = a1\n 22889: a0 = u64 [s1 + 0xd0]\n 22893: a0 = a0 | a1\n 22896: u64 [s1 + 0xd0] = a0\n 22900: a0 = u64 [s1 + 0x118]\n 22904: a2 = a0 + 0xffffffffffffff80\n 22907: a0 = 0xffffffffffffffff\n 22910: a1 = 0xffffffffffffffff\n 22913: jump [t0]\n      : @748 (gas: 7)\n 22915: a3 = a3 | a5\n 22918: a3 = a1 if a2 == 0\n 22921: a1 = 0xffffffffffffffff\n 22924: a0 = a1 if a4 == 0\n 22927: a3 = a1 if a4 == 0\n 22930: a5 = 0 if a2 == 0\n 22932: jump [t0]\n      : @749 (gas: 9)\n 22934: sp = sp + 0xffffffffffffffc0\n 22937: u64 [sp + 0x38] = ra\n 22940: u64 [sp + 0x30] = s0\n 22943: u64 [sp + 0x28] = s1\n 22946: s0 = sp + 0x40\n 22949: sp = sp & 0xffffffffffffffe0\n 22952: s1 = a0\n 22954: i32 a0 = sp + 0\n 22956: jump [t0]\n      : @750 (gas: 4)\n 22958: a0 = 0x1078\n 22962: a3 = s1 + a0\n 22965: a4 = a3 + 0x200\n 22969: jump [t0]\n      : @751 (gas: 4)\n 22971: a0 = 0x1078\n 22975: a3 = s1 + a0\n 22978: a4 = a3 + 0x300\n 22982: jump [t0]\n      : @752 (gas: 4)\n 22984: a0 = 0x1078\n 22988: a3 = s1 + a0\n 22991: a4 = a3 + 0x100\n 22995: jump [t0]\n      : @753 (gas: 8)\n 22997: a0 = u64 [a2 + 0x8]\n 23000: a1 = i32 [a2 + 0x10]\n 23003: a2 = u64 [a2]\n 23005: a3 = reverse a0\n 23007: a0 = a3 << 0x20\n 23010: a1 = reverse a1\n 23012: a1 = a1 >> 0x20\n 23015: jump [t0]\n      : @754 (gas: 6)\n 23017: a0 = u64 [a3 + 0x18]\n 23020: a1 = u64 [a3 + 0x10]\n 23023: a2 = u64 [a3 + 0x8]\n 23026: a3 = u64 [a3]\n 23028: a0 = reverse a0\n 23030: jump [t0]\n      : @755 (gas: 8)\n 23032: a1 = sp + 0xffffffffffffffe0\n 23035: a1 = a1 & 0xffffffffffffffe0\n 23038: u64 [s1 + 0xe8] = a1\n 23042: sp = a1\n 23044: i32 a0 = a0 + 0\n 23046: i32 a2 = a1 + 0\n 23048: a1 = 0x20\n 23051: jump [t0]\n      : @756 (gas: 8)\n 23053: a0 = a0 + a4\n 23056: a3 = a3 + a1\n 23059: a5 = a3 <u a1\n 23062: a0 = a0 + a5\n 23065: ra = u64 [s1 + 0xe0]\n 23069: ra = ra + a3\n 23072: a3 = ra <u a3\n 23075: jump [t0]\n      : @757 (gas: 8)\n 23077: a0 = u64 [a4 + 0x18]\n 23080: a1 = u64 [a4 + 0x20]\n 23083: a2 = u64 [a4 + 0x10]\n 23086: a3 = u64 [a4 + 0x8]\n 23089: a1 = a1 | a2\n 23092: a0 = a0 | a3\n 23095: a0 = a0 | a1\n 23098: jump [t0]\n      : @758 (gas: 6)\n 23100: a1 = a3 << 0x3\n 23103: u64 [s1 + 0x118] = a1\n 23107: i32 a2 = 0x80 - a1\n 23111: a0 = 0xffffffffffffffff\n 23114: a1 = 0xffffffffffffffff\n 23117: jump [t0]\n      : @759 (gas: 2)\n 23119: a3 = a2 & 0x40\n 23122: jump @763 if a3 != 0\n      : @760 (gas: 1)\n 23125: jump @762 if a2 == 0\n      : @761 (gas: 6)\n 23128: i32 a3 = 0x40 - a2\n 23131: a3 = a1 << a3\n 23134: a1 = a1 >> a2\n 23137: a0 = a0 >> a2\n 23140: a0 = a0 | a3\n 23143: ret\n      : @762 (gas: 1)\n 23145: ret\n      : @763 (gas: 4)\n 23147: a0 = a2 + 0xffffffffffffffc0\n 23150: a0 = a1 >> a0\n 23153: a1 = 0\n 23155: ret\n      : @764 (gas: 2)\n 23157: a3 = a2 & 0x40\n 23160: jump @768 if a3 != 0\n      : @765 (gas: 1)\n 23163: jump @767 if a2 == 0\n      : @766 (gas: 6)\n 23166: i32 a3 = 0x40 - a2\n 23169: a3 = a0 >> a3\n 23172: a0 = a0 << a2\n 23175: a1 = a1 << a2\n 23178: a1 = a1 | a3\n 23181: ret\n      : @767 (gas: 1)\n 23183: ret\n      : @768 (gas: 4)\n 23185: a1 = a2 + 0xffffffffffffffc0\n 23188: a1 = a0 << a1\n 23191: a0 = 0\n 23193: ret\n",
        "bytecode": {
          "object": "50564d0000666a000000000000010700c11001c000800380e0145916539c07e08b84f2a4d01fcd4413afdaa322977f4919e057646b6f18b4e3145916539c07e08b84f2a4d01fcd4413afdaa322977f4919e057646b6f18b4e31af85fc1fbac358af209d74f347dae39c6658caab400868e9bd16be37ffe4bb69bc8e21bad52f2ddaa8d37fc68b0c26916a1c463f1a72b95efb323f54d5af5285b7decebe5e15b8cf3841e7d42714fd11e29b2f7c01403dd25b9c3c7c80a205b003c599e0e5a57c228db122fc9f859f9d002053b5a39c3695bf8716f4416255e9bc8e21bad52f2ddaa8d37fc68b0c26916a1c463f1a72b95efb323f54d5af5280480bd0b000000000e0000001c0000002a000000300000003d000000480000005700000062000000740000007f00000063616c6c5f646174615f636f707963616c6c5f646174615f6c6f616463616c6c5f646174615f73697a6563616c6c65726465706f7369745f6576656e746765745f73746f72616765686173685f6b656363616b5f3235367365616c5f72657475726e7365745f696d6d757461626c655f646174617365745f73746f7261676576616c75655f7472616e73666572726564051302c081570463616c6cc08957066465706c6f7906c09368814f02c09b5a9b00e301ff030704dd042c056705c3050b062d06f6064c07e9073c089c08b508de081809310ae60a940baa0baf0bc10b920cc30cfe0d0b0e320e370e4e0e530e580e5d0e7e0e030f530f580f710f960fb20fbb0f021032109310ac10d3100e112a12df1258136e13731385132b1444147514b615c315ec15f11508160d16131619163b16d01639173f175a1780179d17a71718187218a718b118151922194c195919d7195d1a6d1a8b1ac51ad51af31a2d1b3d1b5b1b951ba51bc31b061c231c541c6a1c751c9a1c281d2e1d6b1dc11d001e9f1ed31efd1e461f501f6d1fe41ff51f12204a20bb2030215d21ea21f0212d227b226123cd23be242525f025f625fc251f264526c726f62678279627dc27e62719282b2847287028a228ab28c3288a29a829da29e3290b2a1d2a392a662a0e2b802b8d2ba22beb2bf12b3c2c6e2cbd2ce82c2e2d382d9b2dd62d0a2e142e312e6d2e092f0f2f502f872fb12f1c3058301231c531d731f331113257326132ab32dc3231333e339a33af33b933333440345634dc347635b435f235f83547367b369c36fe3604370a372e37a637b0371e382f384c3873388038a7384c39a439b83afb3aae3b883c213df63d263e6a3e793ea63e2f3f3f3f6a3f20402640bb40d8401d413a419641a641c4414f425f428a42d742e242f44211433a436b43c343074424446f44ac44b244b84419453e458945f94588469e46c5462747a747ea4714486d4817495c496a498349a749514abe4a1b4b174c254c324ca74cf74c074d254d5f4dda4d094e784eeb4ef94e064f7a4fee4ffe4f04500d5028502e503e5044504d506250ff501c515e516751815108522552a152aa52e0520953265361536a538253ed53fa5310544154b454f554125555557255bf55e5550e563b565c5691562b5734574157595789579257aa876e978a2098aa20977b2098bb20c89b0bc9ba0a979b019abbaeab20ae873751094ec87909647a017c8b95880195ac0178ab64caab9cf42836510934c87909647a017c8b95880195ac0178ab64caab9cf4281c51091a839aff01c8a80b7cbb9599ffc8a70c78cb83aaff5209f032003908e800025108e91b330710010383770a0828dc1b9511f07b10087b15648964753308206497501002f8037c78017c797c7a027c7b03978808d4980897aa1097bb18d4ba0ad4a8087c79057c7a047c7b067c7c07979908d4a90997bb1097cc18d4cb0bd4b909979920d489027c79097c7a087c7b0a7c7c0b979908d4a90997bb1097cc18d4cb0bd4b9097c7a0d7c7b0c7c7c0e7c780f97aa08d4ba0a97cc10978818d4c808d4a808978820d498037c78117c7a107c7b127c7c13978808d4a80897bb1097cc18d4cb0bd4b8087c7a157c7b147c7c167c791797aa08d4ba0a97cc10979918d4c909d4a909979920d4890a7c78197c79187c7b1a7c7c1b978808d4980897bb1097cc18d4cb0bd4b8087c791d7c7b1c7c7c1e7c771f979908d4b90997cc10977718d4c707d49707977720d487076f776fa86f396f2a7b5a187b59107b58087b57821008821595111032009511d87b10207b15187b161082897b19088289087b19828510828618330820501004b0026f686f59821a6faa821b086fbb787b18787a10787908787898bc38787c1f98bc30787c1e98bc28787c1d98bc20787c1c98bc18787c1b98bc10787c1a98bb08787b1998ab38787b1798ab30787b1698ab28787b1598ab20787b1498ab18787b1398ab10787b1298aa08787a11989a38787a0f989a30787a0e989a28787a0d989a20787a0c989a18787a0b989a10787a0a98990878790998893878790798893078790698892878790598892078790498891878790398891078790298880878780182102082151882161095112832009511a07b10587b15507b16489515608411e06476828718828910828a0882886f776f996faa6f887b18187b1a107b19087b17491138491130491128491120481140208318831a20831b403309ff33070a05821738821830821928821a206f776f886f996faa7b6a187b69107b68087b679551a082105882155082164895116032009511a07b10587b15509515608411e08272827a08827b108277188283828908828c108288186f746fbb6faa6f276f826fcc6f996f387b17187b1a107b1b087b147b18387b19307b1c287b12208318831a203309ff330b2033070a099551a08210588215509511603200951120ff7b10d8007b15d0007b16c8009515e0008411e082bc7b1c4082bc087b1c4882bc107b1c5082bb187b1b5833020682ab7b1b1882ab087b1b2082ab107b1b2882aa187b1a308296829a087b1a829a107b1a088299187b19107b18383300082892007b18385010088c006f687b187882186f887b18708218086f887b18688218106f887b18608218186f887b1898008218206f887b1890008218286f887b1888008218306f887b1880008218406f887b18b8008218486f887b18b0008218506f887b18a8008218586f887b18a0008379811a388317603308030a04955120ff8210d8008215d0008216c8009511e00032008b7910520931c8780883881f8488e05638000001253309e40002390ae40002ae8a093d08e40002013308f000028377c887073200009511f07b10087b158475010a02013d07e0000251050750100a5333000c951108f8951700077b70f0007b75e8007b76e0009515f807951100f8951178fb8411e064169569ff079599794929c0074929b8074929a8078000330740956820104929b0073300c6002896fc951110fe7b10e8017b15e0017b16d8019515f001951130f98411e064164926180649261006492600068000330740956800064926080650100e5dfc49263806492630064926280649262006836720060a0a01956b000682b73082b83882b92882ba20d49808d4a707d487075107062869143809e000024926d8054926d0054926c8059567e0059568c0057b6918017b69c0055010107542956b000582baf80082b9f00082b8e80082b7e000956b00017bba107bb8d48a0ad49708d4a8089888207bb908d4a909979920d498085108062807147b67f8008268180150101288fe83778168180133090a018268180156183f0728f6139567a0058268f8005010145dfa8267b8058262b005826ba8057b67f000d4720988ba01949a520a0628db13826aa0058263f80082641801c83404d83408c8a3037b631801d8a30a82690001c89b07649cc8a703d3b309d8b30bda9a0b64c9c88c0cd89c09da880982680801c8820ad82a00826710018262f000c87202c82000c89802c8ab0bd8ab09c8900ad88208c878087b64f0007b6440057b6ce8007b6c480582671801956c00057bc7607b6218017b6250057b68e0007bc8587b6368057bcb709567800595686005956940057bca78501016b6428269f800956b000182b70882b810d487071408e0ffffff00000000d8890882ba94a8947852080628e512826798057b67a000826790057b679800826788057b67a800826780057b67b000839820956720055010183ef9826238058268300582692805d4280a889b0194ab520b0628d012826a2005826bf800c8ab0bd8ab0a826c0001c89c0cc8ac0cd39c07d89c09da7a0982670801c88707c87909d8790ad8870782681001c88202c82707c87a0a8267f0007b67c0048267e8007b67c8047b6be00482671801956b00047bb7d0008267e0007bb7d8007bbce8007bb9f000956700059568e0049569c0047bbaf80050101ac34182699800826bb000d49b078268a000826aa800d4a808d48707987720d49808978820d4870751070628f11164b8956900058297187b67788297107b67708297087b67800082977b6788009567a00450101c4ef895670004827ab8008278b0008279a8008ea78e8bdba70b7b69d0008e977b68607b6ac800d4a8087b67587b6b90007b68c000db8b0751070628ce118267a0047b67684926580649265006492648064926400603956780049568400650101e1afa956b000482b7900082b8880082b9800082ba98005012205d4f88920184807fd27c04d23c0bdb9800880820d2ac0c648994b9d4c4079479aa920628d411501222d74f8267688877207b67b800510a2f027b6bf0007b60f8007b6c00017b6410014926780449267004492668049568600449266004033307501024acf83908e4000256181f0b2003e4000220019517e08479e07b69080164913307f00002837783993308200a0682676895781fd87807826cd000c87c09d8c90ada770a826b60c8ba0a7b6ae80097aa3b989b05d4ab0b8267080182731897993b827a10988805d498076f346fa98268b80094c8826ac00094a8948b9487c87402d84207c8790cc8cb0b7b6b1801d39b0cd89b0adac70a7b6ae0008267f80095701fd8700b826af000c8ba07d8a70cdabb0c82631001c8c303973b3b987a05d4ba0a97773b980b05d4b707c847077b67f800d847076424c8790bc8ab0bd39b0a7b6bf000d89b09daa709826be800826760d87b07826ac800c8a70798ba05977b3bd4ba0a826b080182b282bb08987705948a94876fb86f2b501226e14fc8a70282671001d87307826a0001c8a707983a05977c3bd4ca0a987705c8b707826b1801c88a0ad88a08c88707c8a9097b69e800d8a908c887077b67e0009517e08473e064317b63d800018267f800d874078269f000d39b08d89b09da8709826ce800d8c007826ae000d3a208d8a20ada870ad3c007d48707da790a7b347b3b087b30107b3218510a5f492678064926700649266806492660069568600664377b6410017b6b18017b6208017b60000150102851f88263d80082620801826b180182641001954401884701c87b0bd4b40788770182680001c88707d88708c8820264702868ff8267b800857701826cd000826858dbc807826890008269c000db98078260c800d40c0b82686098843f97000198c93f7b69589789017b6948826a6898a23f97c9017b695097a901510723027b6b207b62307b60387b64287b694084aae07b6a9000492638044926300449262804956820044926200403330750102a30f69517e08477e07b67f0006471330820330750102ce9f850122e4e4e0a064926180120330c49261001501230384d82a26f736f886f9a6f2964928267f0007b79187b6ad0007b7a107b68e8007b7808643a7b7301642464a3826790007b6be000d87b07857b017b60d800940b01826700018269f800d49707947b018268b00082671801c87808826aa80064c2c8ca0a8269980082671001c879098267a000826c0801c8c707520b7901826b1801d8b80bc8ba00642ad32002d8a00cda2b0cc89c0cd89c02826b1001d8b909c89707c82707d4c809d47007d47909989920d4c707977720d497077b63c8007b64c0005207810d9567a0017b6ab800501032f8f38267b8018268b0018269a801826aa001956b00067bb798007bb890007bb988007bba8000956880068267f00050103474f68260c8009500018807018262e800c87202d420078877018268d000c87803d883088267c000c88707826818019589207b69c800d8890a8268b800c8a8097b69c000d8890bdaaa0b82681001c8b804d8840b82680801c8b8087b6808018268e000958b20d88b0c8269d800c8c908d89809dacc09826af800c8a909d8a90c826a0001c8ca0a7b6a0001642a7b6ae800826cf0007bca08640a7bc07bc31064727bc7187b63d0008267c8007b671801826cc0007b64100164807b69f8002869fed48a07d4b707826bb0008263a8008268a000826c980052073c017b6940492600014926f80049260801492610012882016420826368826b9000d33b0b826c60d4cb0b826c20d4cb0b826c38826230510bb600826b1801d8b80bc8ba0ad30a02d80a0cda2b0cc89c0cd89c02826b1001d8b909c89707c82707501236e44a5207040c956700045010387ff2956800048287187b6710018287107b6708018287087b67000182877b67f80082676850123a1e4b50103c434c7b67e8007b68d0003307ff3308ff8269180150103e064c501240134b501042fc4b5012445749956b00067bbab8007bb9b0007bb8a8007bb7a0009568a0068267f000501046b9f4826230826c3801826728d4c707826858826948d49808826950d42909826a4095aa014926d8064926d0064926c806956c0006492cc000037bcae0007bc9e8007bc8f0007bc7f8009567c0069568e0063300562862f4d48c071408e0ffffff00000000d88b089438947851081b0b7b694083b820956740047b64287b60387b623050104887f1826230826038826428826a6895680004828758956900017b97108287507b97088287487b67f8008287407b9701826758826848d487077b67f000d440077b67e800826750d427077b67e00050124aee4a50104c224b7b67c0007b68d8008267688a79033307ff3308ff50104ee34a7b67d0007b68c8008268c000d487077b67c000826718018379803307ff3308ff501050be4a826b180188b98000826ac000db9a07826cc800826ad800501252d649826bd000501254a148826b40d4b707826be000d4b808826be800d4ba0a826bf000d4b909956c0007490c037bc9307bca387bc8287bc720492618074926100749260807956700079568200750105635f382688800826b70d4b80782698000826a78d4a909d49707987720d4b909979920d497075207dd099567e00350105858f095670003827af8008279f0008278e8008ea78e9bdba70b7b68a0008e877b6998007b6a9000d4a9097b67b8007b6bc0007b69d000db9b075207a90a8267e0037b67a80049265807492650074926480749264007049567c0039568400750105a23f2956b000382b7d00082b8c80082b9c00082bad80050125c664788920184807fd27c04d23c0bdb9800880820d2ac0c648994b9d4c4079479ab92b00a50125ee2478267a8008877207b67c800510a32027b6bf0007b60f8007b6c00017b6410014926b8034926b0034926a8039568a0034926a003043307501060b6f03908e4000256181f0b2003e4000220019517e08479e07b69080164913307f00002837783993308200a068267a80095781fd87807826ca000c87c09d8c90ada770a826b9800c8ba0a7b6ae80097aa3b989b05d4ab0b8267080182721897993b827710988805d489096f246f778268c80094c8826ad00094a8948b9489c89402d84209c8970cc8cb0b7b6b1801d37b0cd87b0adac90a7b6ae0008269f80095901fd8900b826af000c8ba09d8a90cdabb0c82631001c8c303973b3b989a05d4ba0a97993b980b05d4b909c849097b69f800d8490b6424c8b709c8a909d3790a7b69f000d87909daab09826be80082679800d87b07826a9000c8a70798ba05977b3bd4ba0a826b080182b282bb08987705948a94876fb86f2b501262e847c8a70282671001d87307826a0001c8a707983a05977c3bd4ca0a987705c8b707826b1801c88a0ad88a08c88707c8a9097b69e800d8a908c887077b67e0009517e08473e064317b63d800018267f800d874078269f000d39b08d89b09da8709826ce800d8c007826ae000d3a208d8a20ada870ad3c007d48707da790a7b347b3b087b30107b3218510a5f492678074926700749266807492660079568600764377b6410017b6b18017b6208017b60000150106458f08263d80082620801826b180182641001954401884701c87b0bd4b40788770182680001c88707d88708c8820264702868ff8267c800857701826ba0008268b800dbb8078268c0008269d000db9807510706028267a8008477e07b67b00049267803492670034926680395686003492660030433075010666cee9517e08477e07b67f0006471330820330750106825f150126a8a460a064926100120330c4926180150126c744582a26f736f886f9a6f2964928267f0007b79187b6ac8007b7a107b68e0007b7808643a7b7301642364a48267b0007b6bd800d87b07857b017b60d000940b01826700018269f800d49707947b018268880082601001c80808826a800064c2c8ca0a82697082671801c87909826778826c0801c8c7077b62e800520b6501d8080bc8ba0a642cd32a02d8ca0cda2b0cc89c0cd89c02826b1801d8b909c89707c8270750126eb7447b64c0007b63b8005207cf05956740027b60100150107046ec956b000282b75882b85082b94882ba40956b00077bb798007bb890007bb988007bba8000956880078267f000501072c2ee8260c0009500018807018262e000c87202d420078877018268c800c87803d883088267b800c88707826810019589207b69c000d8890a8268e800c8a8097b69b800d8890bdaaa0b82681801c8b804d8840b82680801c8b8087b6808018268d800958b20d88b0c8269d000c8c908d89809dacc09826af800c8a909d8a90c826a0001c8ca0a7b6a0001642a7b6ae000826cf0007bca08640a7bc07bc31064727bc7187b63c8008267c0007b671001826cb8007b64180164807b69f800287bfe826aa800826c9800d4ca0782699000d49b08d487078262880052075501492600014926f800492608014926100128a5018262a800826bb000d32b0b82649800d44b0b8263a00082609000d4030cd4cb0b510bc900826b1001d8b80bc8ba0a826ce800d3ca02d8ca0cda2b0cc89c0cd89c02826b1801d8b909c89707c827075012742c4352074c0495674003501076c7ea956800038287587b6710018287507b6708018287487b6700018287407b67f8008267a800501278644350107a89447b67e8007b68d0003307ff3308ff8269180150107c4c4450127e5943502080004244502282009c41956b00077bbab8007bb9b0007bb8a8007bb7a0009568a0078267f00050208400fdec8262a8008263a00082649800826090000198473f970801d4870798383f974901d4980898293f973a01d4a909972a0195aa014926d8074926d0074926c807956c0007492cc000047bcae0007bc9e8007bc8f0007bc7f8009567c0079568e007330094002894ec826778826870d487071408e0ffffff00000000d88208826a800094a89478510843038328209567800350208600bbe982699000826c9800826ba000826aa80095680003828798007b671001828790007b670801828788007b67f800828780007b6700010198b73f97c801d487077b67f00098c73f979801d487077b67e80098a73f97b801d487077b67e00097a7017b67d80050228800094350208a003c437b67b8007b68d0008267a8008a79033307ff3308ff50208c00fb427b67c8007b68c0008268b800d487077b67b800826718018379803307ff3308ff50208e00d542826b180188b98000826ab800db9a07826cc000826ad00050229000ec41826bc80050229200b640826bd800d4b707826be000d4b808826be800d4ba0a826bf000d4b909956c0010492c00f804956b00107bb930f8956900107b9a38f8956900107b9828f8956800107b8720f895670010492718f895670010492710f895670010492708f89567ff079577019568ff079588215020940020eb3307f000037b67180183777b6710010a0301826918018097108298829908d48707d497075107a40395670010492758f895670010492750f895670010492748f895680010492840f805956720039568ff079588415020960045ea826720037b670001826728037b67f800826738037b67f000826730037b67080182671001330098000a038269180133029a00288e3f8269180150229a00873f826a080198aa2097aa20d4a909956a0010492a78f8956a0010492a70f8956a0010492a68f8956b0010492b60f805956aff0795aa9900826bf0007bab7ba9f8956900107b9788f8956700107b7880f89567ff079577619568ff079588810050209c0023ea9567000333084050209e0069e7956800038287187b67f0008287107b67e8008287087b67e00082877b67d800826710013300a0000a0301956b000182b9185022a2008240d4780298aa206f99979820d4a80898992082ba0897aa2098aa204926b8024926d8027b6ad0028267f8007b67c80282b77b67c0023a0a0000023a0b0800023a0c1000023a071800027b6af802956a00027babf0007bace8007ba7e0007ba9b0007ba8a8009569e002956ac002956ba0027b62a002330733085020a400cae98267f0008268e000d487078268d8006489826ae800d4a808d47808988820d4a707977720d4870751074c02003308f00002838833070133090a0728313308f00002838833070133090a0728213308f00002838833070133090a0728113308f00002838833070133090a07014926500149264801492640013302a600140700000000717b484e01956840017b67580133075020a80058e74926380149263001492620014133070495682001492628015020aa003ae73908e4000256183f122003e40002403308f0000228a0013308f000022898014926900149268801492680013302ac00140700000000717b484e01956880017b67980133075020ae00f0e64926780149267001492660012233070495686001492668015020b000d2e63908e4000256183f122003e40002403308f000022838013308f000022830014926f0014926e8014926e0013302b200140700000000717b484e019568e0017b67f80133075020b40088e64926d8014926d0014926c001413307049568c0014926c8015020b6006ae63908e4000256183f122003e40002403308f0000228d0003308f0000228c8004926300249262802492620023302b800140700000000717b484e01956820027b67380233075020ba0020e64926180249261002492600022233070495680002492608025020bc0002e63908e4000256183f112003e40002403308f0000228683308f000022861492690024926880249268002140700000000f7bd4f1e956880027b67980233075020be00bfe549267802492670024926680233070495686002492660025020c000a2e53908e4000256183f112003e40002403308f0000228083308f000020183883307013309240a0701649733085020c20040e88377330833090a2815e48267d80033085020c4002ae88378330733090a0728d0fd3307e000027b67f8003907e00002551704072844289567001083774033083300c8000a01019567ff079577798177e40752475bcba58d0a281d195147419bd8951205956978105247bb9c05a90a28171a51473eed62dd010f524703defd060a28a6175247b3a75e090a28e4135147dd0d1618e7035147dd72b8238209514767e53c31da085147190fc1400a28da1149294001492938014929300149292801956700108377a0013300ca000a0a3302cc0028a33c5022cc00a03c82b73882b84082b93082ba28d49808d4a707d487075107062855208267f8008177330843ac78062857209567ff079577c1013300ce0033024402282e3c9567ff07957779827850017b68f000827848017b68f800807758017b67e800956700108377c0013308240a0195677810957900018298607b68e0008298587b68d8008298507b68d0008297487b67c8005020d000a1388267f8008268e800d487078268f000d4870752070628e71f9567781049278001492778014927700149276801029567ff079577a1019568e0115020d200b7e49568ff079588798284400195890001829738829b28829c309518e08488e06481826ad000c8ca0a8262c800c8b202d8b20bc8ba0ad3ca03d8ca09da3b09826bd800c87b0bc89b0cd8bc038260e000c84000d87b0bc80b0bc83b00d87c03d3040bd84004dab304d3c707d4b707da79047b8c107b8a087b827b801851040628c81f956778104927a00149279801492790014927880102956700125020d40099e49569ff07959979492920018267e800959a00017ba7188267f0007ba7109568ff07958881018267f8007ba70833075020d600f2e29567ff07957779492700014927f8004927f00064793307209568ff07958861014929e8005020d800c8e29517e08477e07b67c00064713908e4000256183f0b2003e4000240019517e08479e07b69b80064913307f00002837783993308407b67b0003300da000a06826ab8003302dc0028b538826ab8005022dc00ae388268c0007b8a187b89107b8b087b879567ff07957741015020de004ae39569ff079599798297d0008298c8008292e000829ad800826bd000c87b0b826cc800c88c0cd88c08c88b0bd37b09d87b07da98078268d800c8a8088269e000c89202d8a809c82909c88707d88708c8980895697810959a00017baca8007babb0007ba7b8007ba8c000956820128267c0005020e00054e39567ff07957721013308405020e20096e0956aff0795aa7982abc00082a8b80082a9b00082a7a8005022e400283951080628701b8268c8007ba888008268d0007ba890008268d8007ba898009568ff07958801018269e0007ba9a0007b67e0005020e6007be1956cff0795cc79491c408267e8007bc7388267f0007bc7308267f8007bc728491c60491c58491c503a076000023a086800023a097000023a0a7800027bc780007bc8787bc9707bca683308209569ff079599e100956aff0795aac100956bff0795bba100491c488267e0005020e800e6e233078268b00033090a0728202449298000491978491970491968956700108377e0000a0a01956a781082a77882a8800082a97082aa68d49808d4a707d4870751070628c81d8267f80081775617030728cc1d956878104928a000492898004928900049288800029567c004956800115020ea0087e18267d8047b67f8008267d0047b67f0008267c8047b67e8008267c0047b67e0009567a0043308405020ec002edf956b000482b7b80082b8b00082b9a80082baa000d49707d48a09d47909989920d48707977720d4970751070628fc198267e000956900047b9780008267e8007b9788008267f0007b979000956880048267f8007b97980064a77b6af8003300a8012801e0956778104927e0024927d8024927d0024927c80295670010837740033300ee000a0a3302f00028c7375022f000c43782b7d80082b8e00082b9d00082bac800d49808d4a707d4870751070628db1c8267f80081775617030728df1c9567ff07957741053308405020f2005ede9568ff07958879958900048297e0007b67588297d8007b67688297d0007b67608297c8007b677095687810492800034928f8024928f0024928e802049567ff0795772105956860135020f4003ce09567ff079577798274b8048270b0048273c004827ba80497473f980801d4870797383f984901d4980897093f98ba01d49a0c9839017b6bf00084bb019abad2a808d27a02d2a90984c77f7b67e800dab70c7b6cb00088c7207b62a00094277b68a8007b699800d4980894877b6bf80088b801aa780628191c826968826a70d49a07826860826b58d4b808d48707987720d49808978820d47808510806286e1864a77b60d0007b64d8007b63e0008268b000956aff0795aa7995ab00047bb888008268a0007bb890008268a8007bb898009568ff0795880105826998007bb9a0005020f60064de8267f800510706281e18826768826858d487071408e0ffffff00000000826a70d88a088269609498947852080628f7178268f000848800ff83a7209569ff07959979826ad000959b00047bba107bb8088268d8007bb8189568ff0795888104826ae0007bba205020f800f8dd330433034926f0008267e8008e779777057b67f800018268f80095873fd88708c884098477e0826070c870007b60f800d87007826260c8290ac87a00d3900ad8900bdaa70bd84907da8807c83707d83708826968c87909c89b0bd87907d89b09826358826af000c83a0ac8a808c88707c8970c8ec78eb8dbc708d4cb078e09db780951090628d51d8267708268f800d87807d32008d82009da8709826768d87b04d33c08d83c0ada840ad3b707d48707da790a510a0628a41d9569ff079599798267f8007b97e8037b90f0037b9bf8033307409568ff07958861047b9c00047b60e8007b6be0007b6cf0005020fa0007dd9568ff07958879826758958900037b97a0008267687b9798008267607b9790008267707b9788008267f0007b97c0008267e0007b97b8008267e8007b97b000648b9567ff07957741049568ff07958821049569ff0795990104826af8007bbaa8035020fc004028826ae000826be8008262f800d4a2078268f000d4b808d48707987720d4a808978820d487075107062838169568ff07958879958c000382c7d00082c9e0007b69d80064a98283c80382cad800d3b704d8b70cd82300da400cc99a08c9c804d8c808d89a0a8269d800c9a90a8269f000c99a0ac98a0ac9b707c90707c92308d4a707d44809d47909d44707989920977720d4970751070628ca1564277b68f8003300f60128c6de4929200149291801492910014929080195670010837780013300fe000a0a3302000128db3350220001d833502202012f34510706288a198267f800817756170307288e199567ff07957701330840502004016cda95670010827a18f895670010827810f895670010827908f895670010827700f8502206013832510806283d154926f8074926f0074926e8079568e0074926e007127b67f8003300a8012857db4929c0004929b8004929b0004929a80095670010837720010a0a01956a781082a7b80082a8c00082a9b00082aaa800d49808d4a707d487075107062805198267f8008177330863ac78062807199567c007330008013302440228d2328267d8077b67a8008267d0077b67b8008267c8077b67f8008267c0077b67f0009567a00733000a0133024e0228a3328267b8077b67a0008267b0077b6798008267a8077b6790008267a0077b67880095670010837740013308440a01956778108278e0007b68e8008278d8007b68d8008278d0007b68c8008277c8007b67d0008267b800977720987720492698077b67787b6790078267f8007b678807956880078267f0007b678007330750200c014dda49267807492670074926600701330720956860074926680750200e012fda3308e400023907e4000256173f0b2003e4000240019517e08479e07b69b00064913307f00002837783997b68c0003308407b67e000330010010a06826ab00033021201281032826ab0005022120109327b67686f877b67606f977b67586fa77b67509517e08477e07b677064713307f000037b67b00083777b678000330014010a03018269b0008297088198108299502216016d2f492658077b6850077b674807956840077b6a40073307502018017ed9826750956a00077ba7388267587ba7308267607ba728330720956820078269687ba92050201a0155d98268c000818756173f08480840019517e08477e07b6768647183793308408267e00033001c010a06826a6833021e0128592f826a6850221e01532f8268707b8a187b89107b8b087b879567000750202001f4d982641807826a1007826b080782620007d24b07d2a208d287075117ff32028267d000d872038268c800d38b07d88b0cda730c8269d800d89a008268e800d38407d88408da7008d3a909d49707da7c087b62707b6b687b64607b6a585108062890197b60407b6c487b63508267f000826878d487078268f800d48707520706285c1a826780000a03018269b0008097108298829908d48707d4970752070628811a4926f8068267f0007b67e0068267f8007b67e8069568e0068267787b67f0063307502022013bd84926d8064926d0064926c006013307209568c0064926c806502024011dd88268c000818756173f08480840019517e08477e07b6778647183793308408267e000330026010a06826a7833022801281230826a78502228010c307b67386f877b67306f977b67286fa77b67209517e08477e07b677864718267800033002a010a03018269b000829708819810829950222c017b2d4926b8067b68b0067b67a8069568a0067b6aa006330750202e018cd7826720956a00067ba798008267287ba790008267307ba78800330720956880068269387ba98000502030015fd78268c000818756173f08480840019517e08477e07b67c000647183793308408267e0000a068267d800826858c97807826948c99708d897078269e800826a60c99a09826a40c9a909c979098267c800826a68c97a07826a50c9a707956a78107ba900017ba8f8007ba7f000826bc00082b78268d000826970c989087ba8e80082b8086f798267787b791882ba1082b9186f887b78106fa87b78086f987b7895686011502032012ad88267d0007b672005826788007b6740058267f0007b6760058267c8007b672805826790007b6748058267f8007b6768058267d8007b673005826798007b6750058267b8007b6770058267e8007b6738058267a0007b675805956760059568400595692005826aa8007b6a780550203401e8249567000533084050203601fed4956b000582ba1882b81082b90882b750223801db2c5208e30f4926f8044926f0044926e8049568e0044926e004017b67f8003300a80128fcd549296003492958034929500349294803956700108377c00333003a010a0a33023c0128d32d50223c01d02d82b75882b86082b95082ba48d49808d4a707d4870751070628c4138267f8008177330843ac780628c6131407ffffffff000000007b67f8009567ff079577210733003e0133024402285d2d9568ff079588798287a8067b67f0008287b0067b67d0008087b8067b67c8009567ff07957701073300400133024e02282b2d9568ff0795887995890006829798007b67e800829790007b67e000829788007b67d800492880068267c8007b97788267d0007b977064899568ff079588e1068267f0007b97680633075020420108d59568ff079588794928600649285806492848060164893307209568ff079588c1064929500650204401ddd43308e400023907e4000256173f0b2003e4000240019517e08479e07b69c80064913307f00002837783997b68f0003308407b67d000330046010a06826ac8003302480128be2c826ac80050224801b72c7b67c0006f877b67b8006f977b67b0006fa77b67a8009517e08477e07b67c80064718267d8008477ff8269e0008498ff8269f800826ae800d2a909956aff0795aa79492a400695ab00067bb9387bb8309568ff079588a1067bb728330750204a012ad48267a8009568ff07958879958900067b97208267b0007b97188267b8007b9710648a3307209568ff07958881068269c0007ba9080650204c01efd38268f000818756173f08480840019517e08477e07b67f800647183793308408267d00033004e010a06826af8003302500128f129826af80050225001ea298268c8007b8a187b89107b8b087b879567ff07957761065020520186d49568ff07958879828700067b67f800958900058297f8007b67f0008297f0007b67e8008297e8007b67e0009567ff0795774106330840502054011ed2956aff0795aa7995ac000582c7e00082c8d80082c9d00082cbc800d49707d48b09d47909989920d48707977720d497075207e80c8267e00095a900057b97a8008267e8007b97b0008267f0007b97b8009568ff07958821068267f8007b97c00064b77b6bf8003300a80128e8d251473182a0700a280e114929e0014929d8014929d0014929c8019567001083774002330056010a0a3302580128c22a50225801bf2a82b7d80082b8e00082b9d00082bac800d49808d4a707d487075107062826118267f8008177330823ac78062828119567ff079577810233005a013302440228492a956aff0795aa7982a7080282a8100280a91802492a000295ab00017bb9f8007bb8f0009568ff07958861027bb7e800330750205c013ed29567ff079577794927e0014927d8014927d00164793307209568ff07958841024929c80150205e0114d23908e4000256183f0b2003e4000240019517e08479e07b69f80064913307f00002837783993308400a06826af80082a71882a81082a90882aa6f776f886f996faa956b78107bba000295ba00017ba9f8007ba8f0007ba7e8009567ff079577210295686012502060019bd29568ff07958879958900018297c0007b67f8008297b8007b67f0008297b0007b67e8008297a8007b67e0009567ff07957701023308405020620133d0956aff0795aa7995ac000182c7a00082c8980082c9900082cb8800d49707d48b09d47909989920d48707977720d497075207fd0a8267e00095a900017b97688267e8007b97708267f0007b97789568ff079588e1018267f8007b97800064b77b6bf8003300a8012800d1491940491938491930491928956700108377a0000a0a01956a781082a73882a84082a93082aa28d49808d4a707d487075207810f8267f8008177330843ae78850f956760043300640133024402288728956800048287707b67d8008287687b67f0008287607b67f8009517e08477e07b67e0006471956700108377c0003308240a0195677810827860827958827a508277487b689000826be0007bb8187b6988007bb9107b6a80007bba087b67787bb73307f000037b67e80083777b67d0000a03018269e8008097108298829908d48707d497075107ff0e8267d8009777209878208267f0008269f800d497077b68d800d487075107410f8267d000330066010a03018269e800829708819810829950226801c125492658047b6850047b674804956840047b6a4004330750206a01d2cf49263804492630044926200401330720956820044926280450206c01b4cf3308e400023907e4000256173f0b2003e4000240019517e08479e07b69b80064913307f00002837783997b68c8003308407b67c00033006e010a06826ab80033027001289527826ab800502270018e277b67b0006f877b67a8006f977b67a0006fa77b6798009517e08477e07b67b8006471492618048267d800956900047b97108267f0007b9708956800048267f8007b973307502072011acf82679800956a00037ba7f8008267a0007ba7f0008267a8007ba7e8003307209568e0038269b0007ba9e00050207401e9ce8268c800818756173f08480840019517e08477e07b67c800647183793308408267c0000a06826ac80082a71882a81082a90882aa6f7b6f886f996faa8267b8007b7a187b79107b78087b7b8268e0005020760107d09567c003330840502078014dcd956b000382b7d80082b8d00082b9c80082bac000d49707d48a09d47909989920d48707977720d4970752071e088267787b67a003826780007b67a803826788007b67b0039568a003826790007b67b80364a77b6ae00050207a012bce8267d00033007c010a038269e80033027e012829268269e80050227e012226d4780298aa206f99979820d4a808989920492658038267d8007b6750038267f0007b6748038267f8007b674003492678033a0a8000023a0b8800023a0c9000023a079800027b6a98037b6b90037b6c88037b6780037b6970037b68680333082095698003956a6003956b40037b6260038267e000502080016ecf95672003330840502082014bcc956b000382ba3882b83082b92882b72050228401272452082f074926180349261003492608039568000349260003017b67f8003300a8012848cd49094919f84919f04919e8956700108377600a0a01956a781095ab00ff82b7f80082a882b9f00082bae800d49808d4a707d487075207ab0c8267f8008178541803b20c9568781049182049181849181049180803956760029568801050208601dbcd95680002828970828a68828c78828760979b3f98a801d4b80297c83f7b69f000989901d498087b6ae00097a93f987a01d49a0b7b6ce80098c3017b67d000847c019acad28a04d22a09d23a0a84b77f7b67d800dac70b88b7209497d4a40894877b6cf80088c801ab78380c7b6bb800956c00027bcb407b69a8007bc9487b64b0007b64500233078000956840027b6aa0007bca58502088014fcc8267f800520710038267d000847700ff8268e000956900017b98c8007b97c0008267f0007b97d0008267e8007b97d8003307a0009568c00150208a0111cc330833073302330ac0008269d800939aa000287204956778104927a002492798024927900249278802956700108377000333008c010a0a33028e0128bf2350228e01bc2382b7980082b8a00082b9900082ba8800d49808d4a707d487075207d20b8267f8008177541703d90b956878104928c0024928b8024928b0024928a802059567ff0795776103956820135020900170cc9568ff07958879958900028297f8007b67e8008297f0007b67f8008297e8007b67f0009567ff07957741033308405020920110ca956aff0795aa7995ac000282cbe00082c8d80082c9d00082c7c800502294019e225208e9048268e800978820988920492ac0028268f00095ab00027bb8a8008268f8007bb8b0009568ff07958821037bb9b8007b67f8003300a80128e9ca492920034929180349291003492908039567001083778003330096010a0a3302980128c02250229801bd2250229a0121235207fb0a8267f8008177330843ae78ff0a9567ff079577010633009c0133024402286b229568ff0795887995890005829788007b67f800829790007b67f000829798007b67e8008297a0007b67e000956700108377a0033308240a0195677810957900038298287b68d8008298307b68d0008298387b68c8008297407b67c0003307f000037b67b800837733009e010a038269b8003302a001288f208269b8005022a0018820956aff0795aa79826bc00095ac00057bcb40826bc8007bcb38826bd0007bcb30826bd8007bcb28826be0007bcb60826be8007bcb58826bf0007bcb50826bf8007bcb487bc9787bc7707bc8689567ff079577e1059568ff079588c1059569ff079599a105492a80055020a2014a189567ff07957781053308405020a4015cc8956aff0795aa7995ac000582cb2082c81882c91082c7085022a601ee2052083903492a0005492af804492ae804019568ff0795886105492af0047b67f8005020a80152c93308208267f8005020aa0114cc837833092033070a070149263802492630024926280295682002492620020333075020ac011ec99517e08478e064814926f800330c330433023a03a000023a09a800023a00b000023a07b800027b83187b69d0007b89107b800864797b87140760ffffff000000007b6798007b689000017b69d8008267b8008269f800d879078269a800d39c0a7b6cf000d89c09daa709826bb000d8b407826aa000d3a20cd8a20adac70ad3b407d4c707da790a510ae800956700027b62e8007b63c8007b64e0007b60c0005020ae016bc9826ce0008267e800d4c7078268f80082699800d898088269f0009498947851081b028262180295670002827810827a08827b8267f8008377a000956900017b9be0007b9ae8007b98f0009568e0017b62f8015020b00121c88262e800826cd80095cc0188c7018260c000c87000d40c078877018268d000c88707d88708826ac800c88a0a8268f800958320d88309826bf000c89b04d8b40bda990b8268e000c88b0bd88b09c89202826890007b800864c97b8c7b87107b8a187b67d0007b63f800644c64b464a328defe8267f800957aa000d87a078269f000c87908d89809da7709c89407d84709c892020195a39fd8a30ac8a80c95ccff7b6cd800d38c09d88c08da9a08957affc88a0bd8ab08887701c97209c889027b62c0008437e07b67d000957a80007b6af800d87a07c87c097b69f000d8c908da77087b6bc800c8b8087b68e800d8b807c872027b62e0007b6aa0017b69a8017b68b0013307409568a0017b62b8015020b2010dc7492658014926500149264801956b0001491b4080008267e0007bb7788267e8007bb7708267f0007bb768956780019568600195694001826af8007bba605020b4016a128267c8008268c000d48707140880ffffff000000008269d000d889088269d80094989478510866826090018268980182638001826a88018269e800d8900bc9b8088267e000c978028268f000d38a0bd88a0c8267f800d87304dab40cc99009d8c90bc9b20bc9c90cc94a0ac98a0ac97308d4c809d4ba0ad4a909989920d4ca0a97aa20d4a9095109e408009569ff079599794929800449297804492970049568ff079588e104492968040433075020b60117c69517e0847be064b14926f800330433034926f0003a024000023a0a4800028268709587207b679000d88707826860c878097b698800d88908da77083a0c5000023a0758000264207bb2187b6ab8007bba1064c27bbc087b6bd80064797bb7826768c878087b688000d87807826858c887077b6778017b69c0007b62c8007b60d0008267b0008268f800d878078269a000d39408d89409da8709826ba800d8b307826a98008268f000d3a80cd8a80adac70ad3b307d4c707da790a520a062878e79567ff079577c1048268d8007b63e8007b64e0005020b8012fc68264f8008263e0008260e80082689000c84807d88708826b8800c83b09c88909d3b90cd8b90bdac80b826c8000c80c08d8c802826cf000826a78c8ac0cc82c0cc88b0bd88b08c8c808d49808d4b709d48909d4b808989920978820d4980852089ffe956cff0795cc7982c2600495ca000482a85882a95082ab487bab287ba9307ba8389568ff079588a1047bc240047b64f8005020ba01a4c4826ac00095aa0188a7018260c800c87000d40a078877018268b800c87804d884088267d000c887078268f800958320d88309826be000c89b08d8b80bda990b8269e800c89b0bd89b09826cf000c89c0c7b6cf0006402826cd8007bc00864a97bca644a7bca1064707bc7187b6ab8007b63f800648464b3288bfe3308f00002838833070133090a07283c073308f00002838833070133090a07282b0795670010492750f895670010492748f895670010492740f8140700000000052f44ec9568ff07958841956900107b9758f833075020bc01cfc395670010492738f895670010492730f895670010492728f83307049568ff0795882195690010492920f85020be019fc33908e4000256183f122003e40002403308f00002286c043308f000022864049567ff0795777949171849171049170864793302c001140700000000717b484e9568ff0701958881007b972033075020c2014cc39567ff0795777949074917f895680010492860f8113307049568ff0795886195690010492968f85020c4011fc33908e4000256183f122003e40002403308f0000228ec033308f0000228e4033308f00002838833070133090a072812063308f00002838833070133090a072801063308f00002838833070133090a0728f0053308f00002838833070133090a0728df059569ff079599794929380349293003492928033302c601140700000000717b484e9568ff07019588a1037b97400333075020c80186c29568ff079588794928200349281803492808032264893307049568ff0795888103492910035020ca015bc23908e4000256183f122003e40002403308f000022828033308f000022820033308f00002838833070133090a07284e053308f00002838833070133090a07283d053308f00002838833070133090a07282c053308f00002838833070133090a07281b053308f00002838833070133090a07280a053308f00002838833070133090a0728f90452478be3fdf28d049567781049278003492778034927700349276803956700108377e0033300cc010a0a3302ce01289e195022ce019b1982b77882b8800082b97082ba68d49808d4a707d487075107a9043308f00002838833070133090a072897043308f00002838833070133090a072886043308f00002838833070133090a072875043308f00002838833070133090a072864043308f00002838833070133090a072853044926b0024926a8024926a00214070000000005df02e69568a0027b67b80233075020d0010ac149269802492690024926880233070495688002492680025020d201edc03908e4000256183f122003e40002403308f0000228ba013308f0000228b2014926f0024926e8024926e002140700000000620d28949568e0027b67f80233075020d401a8c04926d8024926d0024926c8023307049568c0024926c0025020d6018bc03908e4000256183f122003e40002403308f000022858013308f000022850013308f00002838833070133090a07287e033308f00002838833070133090a07286d034926300149262801492620013302d801140700000000717b484e01956820017b67380133075020da011fc04926180149261001492600012233070495680001492608015020dc0101c03908e4000256183f122003e40002403308f0000228ce003308f0000228c6003308f00002838833070133090a0728f4023308f00002838833070133090a0728e3023308f00002838833070133090a0728d2023308f00002838833070133090a0728c1029567ff0795777949277803492770034927680364793302de01140700000000717b484e9568ff07019588e1037b97800333075020e00166bf9568ff079588794928600349285803492848034164893307049568ff079588c103492950035020e2013bbf3908e4000256183f112003e40002403308f0000228083308f000020183883307013309240a07014926f0054926e8054926e005140700000000b2418ffb9568e0057b67f80533075020e401eebe826780003300e6010a03018269b00082970881981082995022e801a4144926d8057b68d0057b67c8053307049568c0057b6ac0055020ea01b4be8267607b67b8058267587b67b0058267687b67a8053307249568a0058269707b69a0055020ec018bbe8267e800956a00057ba798008267d8007ba790008267c8007ba78800330744956880058269d0007ba980005020ee015abe8267c000817756177f158268c0004808800033070133096428d1003307013309648268e0000a077b68f8003300f60128f4c049263006492628064926200614070000000005df02e6956820067b67380633075020f00102be49261806492610064926080633070495680006492600063300f40128e1bd492670064926680649266006140700000000620d2894956860067b67780633075020f201bebd49265806492650064926480633070495684006492640065020f401a1bd8267c000817756173f138268c00048084033070133092428193307013309248268e0000a077b68f8003300f601283dc08268e0000a077b68f8003300f601282cc07b68f8005020f60125c083788169f80033070a072811f45247a61850714f956778104927200249271802492710024927080295670010837780023300f8010a0a3302fa012805155022fa0102155022fc0173155107403308f00002838833070133090a07281c3308f00002838833070133090a07280c838833070133090a07018267f8008177330823ac781c3308f0000228e58267f80081775617039a013308f0000228d3956700103300fe01330244022880149567ff07957779827890077b68f000827888077b68f800807798077b67e8005020000224118267f8008268e800d487078268f000d48707510767021407ffffffff000000007b67e000956778104927a003492798034927900349278803059567ff079577e10795680014502002022ebd9568ff07958879958a000782a7707b67d80082a7800082a9787b69c80082a8687b68d00095687810958b0003492ba800057bb7e0009897209777208269e800d497077bb7d8004928c0034928b8034928b0038267f0007bb7d0008267f8007bb7c8009567201495684014502004023fbd8267d0008477ff8269d8008498ff8269e000826ac800d2a909956bff0795bb79492b2007826ae80095bc00077bca18826af0007bca10826af8007bca08492b40077bc9387bc8303a082000023a092800023a0a3000027bc7287bc8607bc9587bca5064b83a073800029569ff079599c107956aff0795aaa107956bff0795bb81077b874807330733085020060219bd3308f000028388330733090a072850fe50200802c40f9568781049284002492838024928300249282802059567ff07957701039568a01250200a02f2bb9568ff07958879958a000282a998007b69e80082a788007b67f80082a790007b67f00082a7a00098982097882095697810492960024929580249295002959b0002491b480549297002492968027bb780007bb8789567c0129568e01250200c0211bc8267e800977720987720956aff0795aa79492a4002492a3802492a3002492a2802492a600295ac00027bc7588267f0007bc7503a072000023a082800023a09300002826bf8007bcb487bc780007bc8787bc97064a83a073800029569ff079599e102956aff0795aac102956bff0795bba1027b8768023307330850200e02fabb3308f000028388330733090a072831fd9567ff079577794927f8064927f0064927e8066479140700000000f7bd4f1e9568ff07958861077b970007330750201002dbb99567ff079577794927e0064927d8064927d00664793307049568ff07958841074929c80650201202b1b93908e4000256183f122003e40002403308f00002287efa3308f000022876fa951130ff7b10c8007b15c0007b16b8009515d0008411f08289187b19108289107b19088289087b1982867b172895179000330840502014021eb8821898008219900095671fd86700821ac80a0b8477e0c8b803c879027b1920d8920cc8c303d383067b1818d88309da6c098214a800d8ab0b8216a000da000b821708c87b0bd87b0cc86b0bc89b0a821710c84707c8c707d8ba0cd86b0bc8b707c8c70b8eb78eacdbb70cd4ba078e38db7c08520865d86a07d34b08d84b0cda870cd36a07d48707db7c0952094d7b12707b13787b1a80003307409518707b1b88007b141050201602aeb88217288218107b78187b76108218187b78088218207b78955130ff8210c8008215c0008216b8009511d000320049116049115849115033021802140700000000717b484e019518507b1768330750201a025bb84911484911404911304133070495183049113850201c0242b83908e4000256183f0b2003e4000240013308f00002838833070133092433001e020a0701951170fe7b1088017b1580017b167801951590018411f08284829b088280088296954a1fd84a02c8200c7b1620d86a03d3bc0a7b1b28d8bc0bdaa30b828610d80c0ada220a829c18828218829310c86a0ad86a08c82808d3c8097b1c10d9c808d83a0cda9c08d33a0ad4a909db980b510bbf027b17087b1318d464077b10387b1230d42008d487079877207b1658d46808978820d4870752079602951750017b14506448502020023ab6821a680182196001821b58018ea78e98dba7087b1980007b1a8800d4a9078eb9db7809520968028218500195871f7b1848d887087b1b78c8b8088488018477e0957920d87907c8780ad88a0bda770b492128017b1910017b1a180195173001951810017b1b2001502022027bfd82194801821a400182183801821730017b18407b1968d48909d4a708d498089888207b1a70d4a909979920d498085208e8018216487b16f0008218787b18f800821880007b1800019518f000821988007b1908017b176050202402aab6821750c8670ad87a09821438821778c84707c89707d3470bd84708dab90882135882198000c8390995ac20d8ac02c8270b821a20d8ca0c821a28d3ab06d8ba0adb6a0cd8390a82133082168800c83606c86a0ac89808d89809c8a909d87b07da2207c88707d88708c89808821a10d3a809d88a08821b18d87b0ada9a08d3b707d49707db780c520caa01821770821868d478081407e0ffffff00000000821b60d87b09821a4094a9948951090f0164ba821858d43808821c50d87c07944794878210880082198000821b788216485107eb00d49607d40b08d48707987720d49808978820d487075207d20083a72083c8207b18586468502026027db87b17508217586468502028026fb86478821750646950202a02d4b3821860c86807d88708821640821978c86909c88909d3690ad8690bdaa80b821c7082188000c8c808c88b0bd88b02d8c808821c8800821a68c8ac0cc8c808c82808d4b808140ae0ffffff00000000d8a70a949a948a510a4d8377204921e8004921e0004921d8009518d0004921d00050202c021eb58217088218687b78188218707b78107b76088218607b78955170fe821088018215800182167801951190013200003308f0000228774921c0004921b8004921b00033022e02140700000000717b484e019518b0007b17c800330750203002beb44921a8004921a0004921900041330704951890004921980050203202a0b43908e4000256183f0b2003e4000240013308f0000283883307013309240a073308f0000228083308f000020183883307013309330034020a07019511e0fe7b1018017b1510017b160801951520018411f0828b10828a18828c0882827b1a687b1c78d4ac08d4b20ad48a0a98aa207b1b70d4b808978820d4a8087b170852084b028297187b17488296108297087b175082977b17584921f8004921f0004921e8009518e0004921e0002064277b126050203602ebb3821858d46807821948821a50d4a909d497079877207b1620d46909979920d497075207f2019517c0005020380282b2821770821868d47808140700000000010000007b17101407e0ffffff00000000821960d87907821a7894a77b181894875107b401821ad800821bd000821cc8008218c0008397207b18287b18a0007b1c307b1ca8007b1b387b1bb0009518a0007b1a407b1ab800649650203a024db38217109577c0d876078218789487821818948751076201821748821820d487071408e0ffffff00000000821a58d88a08821b5094b8947851083e016469821828821c38d4c807821b40821630d46b0bd4b707987720d4cb0b97bb20d4b7075207170183974083aa207b1a58648650203c02a9b57b1750821758646850203e029bb5647882175064695020400200b1821760c86707d86708821978821b30c8b909c88909d3b90ad8b90bdaa80b821870821a38c8a808d8a80a821c68821640c86c0cc8ca0ac88b0bd88b08c8a808d4b808140ac0ffffff00000000d8a70a949a948a510a94008377404921980049219000492188009518800049218000502042024bb282162895661f1407e0ffffff01000000d26707821860c88707d88708821a78c88a09d8a90ada880a821870c88a0ad88a08821b68c8b808957b40d87b07c8790cd89c09da7709c8a909d8a907c887078218087b8b7b8c087b89107b87189551e0fe82101801821510018216080195112001320000330804330046020a0133024802289308502248029008510a0b50224a020c0932003308f000028388330701330933004c020a0733024e0228710950224e026e09330824330050020a0133025202285308502252025008510a0b50225402cc0832003308f0000283883307013309330056020a0701951120fc951a00037ba0d8007ba5d0007ba6c8009515e0038411e06416807410827a827b08d44a07d4b707510742048282108283088280140cffffffff000000008438ff8407ffd2c20c7b67487b6c38d4c7077b6840d48707510774048297187b6798008297107b6788008297087b67800082977b679000492638037b6a607b6a20037b6b587b6b2803956820037b64507b643003330750205802c6b0492618034926100349260803330720956800034926000350205a02a9b03309e400023907e4000256173f0b2003e4000240017b69709517e08479e07b696864913307f00002837783993308407b677833005c020a06826a6833025e02286907826a6850225e0263077bba587bb9507bb8487bb7409567e002956840035020600236b1956800028289f8008287f000828ce800828be00082689800d389037b6928d8890882698800d8970a7b6a10da3a08826a8000d3ac027b6c30d8ac0c826a90007b6b68d8ab0a7b6a18da2a0c7b6720d37909d439077b6c08da7c085208be034926d802826760956900027b97c0008267587b97c8009568c0028267507b97d000330750206202bdaf4926b8024926b0024926a8023307209568a0024926a00250206402a0af82678800826820c97807826908c997087b6820d8970782689800826928c98908826910c99808c978087b6828826970819782688000826a30c98a08826a18c9a8087b683082689000826a68c98a0a7b6a6856173f08480940019517e08477e07b671864718379330840826778330066020a06826a1833026802282606826a185022680220067bba787bb9707bb8687bb7608267287bb798008267207bb790008267307bb788008267687bb78000956760039568800350206a0258b049269802826738956900027b9790008267407b978800956880028267487b978000330750206c02bcae492678024926700249266802330720956860024926600250206e029fae8268709517e08477e07b67686471818756173f08480840019517e08477e07b677064718379330840826778330070020a06826a7033027202289a04826a705022720294048268687b8a187b89107b8b087b87956740025020740235af826748028268400282625802826a5002826b8000c87b0b826c9000c88c0cd88c08c88b0bd37b09d87b07da980782688800c8a80882699800c89202d8a809c82909c88707d88708c89808956900037b9ca0007b9ba8007b97b0007b98b8009568a003826768502076024baf956720023308405020780291ac956b000282ba3882b83082b92882b72050227a026d045208be0082689000956a00027ba8826880007ba808826888007ba81095680002826998007ba9187b67980050207c0284ad4926b801826738956c00017bc7b0008267407bc7a8008267487bc7a0004926d8018267507bc7d0008267587bc7c8003a07c000023a08c800023a09d00002826a607bcac0007bc7f8007bc8f0007bc9e8003a07d800023308209569e001956ac001956ba0017bc7e0008267980050207e02edae955120fc951700038270d8008275d0008276c8009511e0033200004926d0004926c8004926c0001407000000001efdc6969568c0007b67d800330750208002d0ac4926b8004926b0004926a8003307049568a0004926a00050208202b3ac3908e4000256183f112003e40002403308f0000228683308f000022861492610014926080149260001140700000000052f44ec956800017b67180133075020840270ac4926f8004926f0004926e8003307049568e0004926e0005020860253ac3908e4000256183f112003e40002403308f0000228083308f000020183883307013309240a07014926900149268801492680011407000000008cd350e4956880017b67980133075020880206ac492678018267507b6770018267587b676801330704956860018269607b69600150208a02e0ab8267287b6758018267207b6750018267307b674801330724956840018269687b69400150208c02b7ab82679800956a00017ba738826788007ba730826780007ba72833074495682001826990007ba92050208e028aab826770817756177f0c8268704808800001330701330964826878330090020a0701951140ff7b10b8007b15b0007b16a8009515c0008411e04921980049219000492188004921800005951760951880005020920226ac8217687b17188217607b17108017707b17083306f0000383677b170a03013a07f800033a08f0000339090001036f77987a206f88978b20d4ba0a9777206f99989920d49707988820821908d39808821910d39707d48707821818d3a808d48707520719955140ff8210b8008215b0008216a8009511c0003200491150491148491140140700000000a7da8c119518407b17583307502094029aaa8217330096020a0301826708816810826950229802564911387b18307b17283307049518207b1a2050209a026caa3908e4000256183f0b2003e4000240013308f0000283883307013309240a07330733009c022845ad330750209c0240ad33070150209e0237ad6f77977a206f88988820d48a0a9877206f98978920d497079888203202826b180188b98000826ad000db9a08826cd800826ae800d4ca0ada970a93b8ff93baff826be000939b939c8267f800e0a70782690001e0890882690801e0c909826a1001e0ba0a320282a71882a81082a90882aa6f776f8b6f996faa3202977b3f988c01d4bc0397ac3f987701d4c70797883f989c01d4c80898aa018499019a9c320282970881981082996f77977a206f88988820d4a8089877206f99979a20d4a7079899203202939b8268f800e0a80882690001e0790782690801e0b909826a1001e0ca0a3202d49a0ad48709d4a909989920d4a808978820d49808320282171082181814090000000001000000d37909d48909987a2088aa01948a939a32028eb9858801dbb9088e498ecadac90ada780a320282a71882a81082a90882aa6f776f886f996faa956b00033202d4c809d4a707d47909989920d4c707977720d49707320249260801330b33004926f80049260001826ae80082a71882a81082a90832028219821a087b697b6a087b67107b68189551c08210388215308216289511403202d49b0bd48709d4b909989920d4b808978820d49808320297773b9878387b6818019a8980003307ff3308ff32027b67d8007b68e0008267d000d487077b67d000826718019579803307ff3308ff3202d4ca0ada980a3308ffdab807dab80a939c32029511c07b10387b15307b16289515408411e064768317320233077810c8760a95ab0002320233077810c8760a95ab0003320233077810c8760a95ab0001320282970881981082996f7a97a7206f88988820320282a71882a81082a90882aa6f7732029518e08488e07b68e8006481837783893308203202c8b707c88a0ad88a0cc8c7078260e000c8a000d8a00a320282b71882b82082b91082ba08d49808d4a707d48707320297a8037b6818018d8980003307ff3308ff3202849a40520a195109148d9a40cfa80ad09808d09707d4a707320032009597c0d0780733083200849a40520a195109148d9a40d0a70acf9707cf9808d4a808320032009598c0cf87083307320049922425494b2a252da9944c4949214225a952484992244992244992244992244992244992244992244992244992244992244992542529a524292949a84a494a922449922449922449922449922449922449922449929224294955494a92284925495592922425494a5292aaaa242549492a498a88889424495292242925499284524949499122458a142952a428491111519224082161284d4a432211111111291211242212111191228244848888682449922444444444888888484992244944283a221121222229898824914849529248229224492222221211894444424492005225111111118910114949441249924892481211111111111111112212912449522449a288101151891249449248448488101111214992544a421211111111110a218249142a2589244924892449455125492489482249244992444a12492491245152151289244922492289a4188924914892a4248988882222424444922492944824118924499224492449121111a1904429844211aa2a1289d48a4822114944a244242211494992489224492222224444444444448824924412894422914412894822492491282295121111459288884844444a24499288244912494244884422512484882442082122222242324992241111212222224900a94822494892482449a44922914408114912222211494244242244482291482449222222441249922422444454a288444422222242448888889024492a458844444444448442886012854a9144924824892449455125492489482249244992444a1249442249a2a42a241249924492441249311249229124494912111145448488882449242991884424221111110a4994422814a1aa229148ad8824129144244a22894424254922498888881049121111112192481249241289441249242289249144a288544a44441489482411111189482422894822491249424488442291881022920821082222222288889824499224222244444444920490a848041111111111113149248924910882884812444422920411918820824824128910111111111111118904218a464a121111111122124444444444149108224944444484882811119188201244229128221a099292248988882284102222222222a28288449124490ca50aa50aa50aa546440430a2202224220811848444440430a2202224220811848444440430a2202224220811848444440430a220222422081184421111404441442422081184c29256504d1454254488448a46229080082420904002020202898888882241922449a22411118944444444a4884422910822124922224244049188244991489224924492244992a42411112182484424121129884444898820894204932854228a480491a488201211118924492291244944444444109120121111241111111111114412894492841042244944444422282a9124a291489224512422224404111111119120222292244912111111115144222222228a041111499228129120129148241211112222884444244992249192241289225224499224499214111189888888880822491240924a22128948221191a0224a8c24492249922449922491249594249124499224492422221111114124118944222222a28888888820221249922491888822922449229124499224491189888888224190449148828888888820898808118988886844442449a224119188888888884844444444448a888888884822111111051121114108114ca25091882212414a29490a514423298888888244922491045164924a44892448922288884812229124124992244992249248128d94248988884814448444045164924a44892448292549118da42022220a129148241241149944258a2449244922492222a24822254929154144444444444444444444444444049120921444444488484444441409922449122509202222128988888888482422222222122922a22012114a4404214430894245228a4804511445124522118944241129884824122911114114994425a2884410498a0822111111111191201211114992242222222222a28804121111114582888824499424222291888888888882484494880842049328548a2455454444444410898888888888049188884892241191482422a2882449442349924494888844229148a28814491291482485281a294944129148443492828888288808890842886012858a44149108a2288a248a8844222a888888884444104526518922495591a40822414444244992484444444411441491089292444444448410424444442222228804912441444484889424d28828224944219244441049922491449248a42489a4148988442222224144444444444444504544222222228a04111149220a1111212282484444444424884444441091444444444444222222a248104494888848242222222222524422914884288a48049188442291482412491211111141448248244910112122224804a546448482a4a842082191540011232291482291244944444410918844454452444444441091449248229144924812a924a24a4422499249124992248944441249249288884404111121128944442488480091a844444412892492244992244962242222424152548490449248422891129544928c8888449248449224494444041111492449228924499224494422922489880822892491442289249144a24895125109a5124a25222222804844414444442211418820242492a40820460a22254222114188202424944a2895502aa15422111101c4888248442811118408424242a9845209a5124a25944a289580888888882241224912a15442a9845209a5124a25220288288888440421829090880820a2202212118408424242a984528988086044414448441022080909a5124a25944a289548441401c48882484428111184084261492322808882884652101189081289442211444444442222882222491245242202882888884444222280888288484410452429892212452482a2128888888828120409a50aa52a354a425108454422111111414422114044448488082291884422224412898888888808229188442222914824218424294444444405a12a4144448888201211111191444444444422824822111111898410229114222222a28250954844144044144422a244441022080989888824492a91202229499224492492244992249594244992249144822449524444942402981424912408110c25d188884849499224499224499224492449922449440a22a212911291244992241111114144449224491289444444244892244912499224491249922449922449224900492a4a928a48224992449282a4a01424499224892489244900a924222282244952444434141111c0888288908820443094140a4bd188884892922449924492a444448412244992248908920490009294222222894422120549528a240124a928499224492429480a4a41922449922449922401a422111111240124499224499224495292888868a24890a0508a2241a24890a0508a464444a49424920248922489442251442211898288484410420493a450499448822489082222229244924812499224894844221205119188209224892449522449224964924aa2441224492291484404918844240a22221141925464924aa244122449114444442249924824491211119120124492041151241291082211894424122184444484444444101111d1880820a220221211840842a1880820a22022121184084261492322808882482412892091482412414422914424489198241a111189889008922409d5104229494992244912111125092029289a1492240942044349450a12949294a488484492444522914849aa2a4992244925959294a4229148a424495212409254259594a4aa284992141511492a2549929424494a2292222211494a9254922455248a449128a994925449542949222949929488a42449924a2a4992a4920200"
        },
        "methodIdentifiers": {
          "allowance(address,address)": "dd62ed3e",
          "approve(address,uint256)": "095ea7b3",
          "balanceOf(address)": "70a08231",
          "decimals()": "313ce567",
          "mint(address,uint256)": "40c10f19",
          "name()": "06fdde03",
          "owner()": "8da5cb5b",
          "renounceOwnership()": "715018a6",
          "symbol()": "95d89b41",
          "totalSupply()": "18160ddd",
          "transfer(address,uint256)": "a9059cbb",
          "transferFrom(address,address,uint256)": "23b872dd",
          "transferOwnership(address)": "f2fde38b"
        }
      },
      "hash": "afe781a1147f9f5ea7507feebccfcd3a3f4295ad11fa528075108a166c2cd6a1",
      "factoryDependencies": {}
    }
  }
}